:100000000C94340018950000189500001895000015
:10001000189500001895000018950000189500002C
:10002000189500001895000018950000189500001C
:10003000189500001895000018950000189500000C
:100040000C940201189500000C947600189500009D
:1000500018950000189500001895000018950000EC
:1000600018950000189500008FEF8DBFC0EBE8E2F7
:100070004E2E88E08EBFD8E0F8E05F2EA89584B7BA
:10008000082E882784BF88E1992780936000909389
:100090006000EEEFF7E0A0E0B1E088278D933197A4
:1000A000E9F783E38093C40080E08093C50088E192
:1000B0008093C1006624209A219A52985A9A3898BF
:1000C000239A4198399A85E085BD80E084BD70917E
:1000D0006E00716070936E0085E085BD7091C10007
:1000E00070687093C10078940C9413050F921F925E
:1000F0002F923F924F925F927F92AF92BF920F9357
:100100001F932F933F934F935F936F937F938F939F
:100110009F93AF93BF93CF93DF93EF93FF939FB7DB
:100120009F93A5ECB5E08091C6008C9384E2482FA4
:100130000091C505041711F00C94A90070913002CC
:10014000706870933002ACEFB4E088278C930C9405
:10015000E6000D3011F00C94CE00A0E3B2E08C91DB
:1001600087FB16F00C94CC00709130027F7770936F
:10017000300280E0ACEFB4E00E943F078D93882707
:100180008C93ECEFF4E0A6ECB5E00E946D08709162
:1001900030027064709330020C94E6000F3118F056
:1001A00011F00C94D5000C94E600A0E3B2E08C9121
:1001B00087FB16F00C94E600A5ECB5E08C91ACEF53
:1001C000B4E00E943F078D9388278C939F919FBF37
:1001D000FF91EF91DF91CF91BF91AF919F918F915F
:1001E0007F916F915F914F913F912F911F910F914F
:1001F000BF90AF907F905F904F903F902F901F9057
:100200000F9018950F921F922F923F924F925F92EC
:100210007F92AF92BF920F931F932F933F934F9371
:100220005F936F937F938F939F93AF93BF93CF937E
:10023000DF93EF93FF939FB79F9372EB76BDA8E197
:10024000B2E08C918F5F8C93A8E1B2E00C9148E012
:100250000E94A3088C9300911802003011F00C94B6
:100260009601AAE1B2E00C9140E20E94A3088C93AF
:1002700081E08093210200912102023018F011F0F8
:100280000C9491010091210241E0041BA2E2B2E032
:100290000C93E2EEF9E0A1E2B2E0AD90BB24AEE156
:1002A000B2E0AA0DBB1D8C919927ABE1B2E00E9490
:1002B000A40700912102013011F00C94710180918A
:1002C0001A02ABE1B2E00E94C9070E94BF070C907E
:1002D0000822689409F4E894A5E2B0E08C9180F9D2
:1002E0008C9300912102023011F00C9489018091CD
:1002F0001A02ABE1B2E00E94C9070E94BF070C904E
:100300000822689409F4E894A5E2B0E08C9181F9A0
:100310008C93A1E2B2E08C918F5F8C9310F40C94DB
:100320003B01AAE1B2E08C918F5F8C93A9E1B2E02E
:100330008C918F5F8C93A9E1B2E00C9144E60E940E
:10034000A3088C9300911902003011F00C9408025C
:10035000A3E2B2E08C9186FB16F00C94D201A8E2E5
:10036000B2E00E94F806A8E2B2E00D911C91ACE266
:10037000B2E04D915C910E942507A8E2B2E00D9396
:100380001C93A8E2B2E00D911C91003050E01507DB
:1003900011F00C94D00170912302786070932302C5
:1003A0000C94D80180E090E0A8E2B2E08D939C9399
:1003B000A3E2B2E08C9185FB16F00C940202A4E259
:1003C000B2E00E94F806A4E2B2E00D911C91AEE208
:1003D000B2E04D915C910E942507A4E2B2E00D933A
:1003E0001C93A4E2B2E00D911C91003050E015077F
:1003F00011F00C940002709123027061709323023B
:100400000C94080280E090E0A4E2B2E08D939C930B
:100410009F919FBFFF91EF91DF91CF91BF91AF91DE
:100420009F918F917F916F915F914F913F912F910C
:100430001F910F91BF90AF907F905F904F903F9032
:100440002F901F900F90189528982998A0E1B8E058
:10045000ECEEF1E10E948E070E9446070E945507CC
:10046000A0E1B8E0E0E0F2E10E948E070E944607BA
:100470000E945507A0E1B8E0E8E0F2E10E948E0793
:100480000E9446070E94550781E080931F02E0E02A
:10049000F0E0ACE2B2E00E949B08E2E0F0E0AEE205
:1004A000B2E00E949B08E2E1F2E10E944E07ECE21A
:1004B000F2E0A0E1B8E00E94E6070E9446070E9431
:1004C0005507ECE1F2E10E944E07EEE2F2E0A0E116
:1004D000B8E00E94E6070E9446070E94550708956B
:1004E000E6E2F2E10E944E07A6ECB5E00E94480762
:1004F0000E94550781E0E6ECF5E006E00A93A3EEE2
:10050000B1E00E947208E6ECF5E09CE204E132E220
:10051000A2E3B2E00E94CF08A1E3B2E02C930091E5
:100520003102003018F011F00C9498020C94C802BB
:1005300081E0809300014091310200910001041795
:1005400018F011F00C94C802E0E0F1E0A0E1B8E08E
:100550000E94F6070E944607E8E2F2E10E944E0779
:10056000A0E0B1E00D91112745E150E00E94840721
:10057000ADE1B2E0A00FB11F0E9448070E945507ED
:10058000A0E0B1E08C918F5F8C9310F40C949B02EF
:10059000A2E3B2E00E94B308082F063011F00C94D9
:1005A0006504E2E3F2E0A1E0B1E00E946D08E1E061
:1005B000F1E0A1E0B1E00E94B3078FEF8093D10199
:1005C000A1E0B1E0EAE2F2E10E94B90811F00C9476
:1005D000200380E08093D101A8E0B1E0E2E3F2E102
:1005E0000E948E07A3EEB1E0ECEEF1E10E948E07CF
:1005F000E3EEF1E0A8E0B1E00E943F070E946D0841
:10060000A8E0B1E00E943F07E6E4F2E10E948E0715
:10061000A3EEB1E0E8E0F2E10E948E07E3EEF1E044
:10062000A8E0B1E00E943F070E946D08A8E0B1E099
:100630000E943F07E4E5F2E10E948E070C946304F8
:10064000E6E5F2E10E94B90811F00C94550380E050
:100650008093D101E0E0F0E00EE110E0A0E1BB27E3
:100660007BE70E948A08E0E0F0E0ACE2B2E00E94A2
:100670009B08E2E0F0E00CE211E0A0E1BB277BE7A1
:100680000E948A08E2E0F0E0AEE2B2E00E949B083D
:10069000A8E0B1E0EEE5F2E10E948E07709123023E
:1006A0007160709323020C946304E2E7F2E10E940C
:1006B000B90811F00C94900300913102023011F04E
:1006C0000C948B03A7E4B2E00E943B08A0E0B1E0E9
:1006D0000C9300910001013110F00C94860380E02E
:1006E0008093D101A8E0B1E0EAE7F2E10E948E0731
:1006F000E0E0F1E0A8E0B1E00E943F070E94F607C9
:100700008091000180931F020C94890385E08093FF
:10071000D1010C948E0384E08093D1010C94630486
:10072000E2E9F2E10E94B90811F00C94C40380E000
:100730008093D101A8E0B1E0EAE9F2E10E948E07DE
:10074000A6E2B0E08C9180FBA8E0B1E00E943F07F8
:100750000E94CF078D9388278C93A8E0B1E00E9478
:100760003F07E2EAF2E10E948E07A9E2B0E08C9135
:1007700082FBA8E0B1E00E943F070E94CF078D9363
:1007800088278C930C946304ECEAF2E10E94B90888
:1007900011F00C94F80300913102023011F00C9426
:1007A000F30380E08093D101A7E4B2E00E943B080C
:1007B000ACE2B2E00D931C93E0E0F0E0ACE2B2E01A
:1007C0007BE70E948A08A8E0B1E0E4EBF2E10E9436
:1007D0008E07ECE2F2E0A8E0B1E00E943F070E9441
:1007E000E6070C94F60384E08093D1010C94630433
:1007F000EAECF2E10E94B90811F00C942C0400918B
:100800003102023011F00C94270480E08093D10172
:10081000A7E4B2E00E943B08AEE2B2E00D931C9365
:10082000E2E0F0E0AEE2B2E07BE70E948A08A8E0F6
:10083000B1E0E4EBF2E10E948E07EEE2F2E0A8E024
:10084000B1E00E943F070E94E6070C942A0484E06E
:100850008093D1010C946304E2EDF2E10E94B908A7
:1008600011F00C94460480E08093D101A8E0B1E03F
:10087000E2E1F2E10E948E07ECE2F2E0A8E0B1E0F2
:100880000E943F070E94E6070C946304EAEDF2E140
:100890000E94B90811F00C94600480E08093D101AB
:1008A000A8E0B1E0ECE1F2E10E948E07EEE2F2E0B6
:1008B000A8E0B1E00E943F070E94E6070C946304A1
:1008C00081E08093D1010C94680482E08093D1018F
:1008D0000091D101003018F011F00C9471040C94C7
:1008E0007D04E8E0F9E0A1EDB1E08C9199270E9448
:1008F000AB07A8E0B1E00E948E07A8E0B1E00E943B
:1009000048070E94550708954F4B00436F6D616E75
:10091000646F206E6F207265636F6E6F6369646FC2
:10092000004C6F6E676974756420636F6D616E64EF
:100930006F206E6F2076616C696461004E756D6525
:10094000726F206465207573756172696F206E6FB8
:100950002076616C69646F004E756D65726F2064FE
:100960006520706172616D6574726F7320696E7657
:10097000616C69646F004572726F72206C6F6E6794
:100980006974756420706172616D6574726F203175
:10099000004572726F72206C6F6E676974756420A7
:1009A000706172616D6574726F20320050617261A6
:1009B0006D6574726F206E6F2076616C69646F0074
:1009C0004552524F5238004552524F522053442EF6
:1009D00020496E74656E7465206465206E75657659
:1009E0006F0000000000030000003300000033032C
:1009F0000000333300003333030033C00C00FF0F1B
:100A0000FF0F5555555533333333777777773F009D
:100A100000003FF00300F0F0F0F000FF00FF0000E6
:100A2000FFFFFFFFFFFF0E942402A8E0B1E0EAE918
:100A3000F2E10E948E07A6E2B0E08C9180FBA8E074
:100A4000B1E00E943F070E94CF078D9388278C93C7
:100A5000A8E0B1E00E943F07E2EAF2E10E948E07BF
:100A6000A9E2B0E08C9182FBA8E0B1E00E943F07D0
:100A70000E94CF078D9388278C93A8E0B1E00E9455
:100A800048070E945507A0E3B2E08C9186FB16F060
:100A90000C945B05709130027F7B70933002E2EE24
:100AA000F2E10E944E07A6ECB5E00E9448070E94C2
:100AB00055070E947002309B0C94DF050027A6E2C8
:100AC000B0E08C9180FB00F94427A3E2B2E08C9166
:100AD00082FB40F9041711F40C947D05A6E2B0E006
:100AE0008C9180FBA3E2B2E08C9182F98C93E8EECA
:100AF000F2E10E944E070E9455074A990C94AD05F9
:100B00000027A9E2B0E08C9182FB00F94427A3E220
:100B1000B2E08C9181FB40F9041711F40C949F050D
:100B2000A9E2B0E08C9182FBA3E2B2E08C9181F962
:100B30008C93E0EFF2E10E944E070E94550782E09D
:100B400080931F0280E080932002709123027062E4
:100B5000709323022B980C94DD050027A9E2B0E0E6
:100B60008C9182FB00F94427A3E2B2E08C9181FBD7
:100B700040F9041711F40C94CC05A9E2B0E08C9173
:100B800082FBA3E2B2E08C9181F98C93E2E0F3E185
:100B90000E944E070E94550781E080931F0280E06B
:100BA00080932002709123027F7D709323027091C5
:100BB00023027F7B709323022B9A0C945E060027FE
:100BC000A6E2B0E08C9180FB00F94427A3E2B2E0FA
:100BD0008C9182FB40F9041711F40C94FE05A6E2F7
:100BE000B0E08C9180FBA3E2B2E08C9182F98C930F
:100BF000E2E1F3E10E944E070E9455074A9B0C94E4
:100C00002E060027A9E2B0E08C9182FB00F9442770
:100C1000A3E2B2E08C9181FB40F9041711F40C942B
:100C20002006A9E2B0E08C9182FBA3E2B2E08C91B5
:100C300081F98C93EAE1F3E10E944E070E94550787
:100C40007091230270647093230280E080931F02EE
:100C500081E0809320022B9A0C945E060027A9E283
:100C6000B0E08C9182FB00F94427A3E2B2E08C91C2
:100C700081FB40F9041711F40C944D06A9E2B0E091
:100C80008C9182FBA3E2B2E08C9181F98C93EAE231
:100C9000F3E10E944E070E94550780E080931F02F7
:100CA00082E080932002709123027F7B7093230265
:100CB000709123027F7D709323022B98A3E2B2E010
:100CC0008C9184FB16F00C947906709123027F7E40
:100CD00070932302ECE3F3E10E944E070E94550754
:100CE00080E180932002419AE6E0F0E00E945F07F5
:100CF0004198A3E2B2E08C9183FB16F00C94940629
:100D000070912302777F7093230280E180931F020A
:100D1000E8E4F3E10E944E070E945507419AE2E0A1
:100D2000F0E00E945F074198A3E2B2E08C9186FB5D
:100D300016F00C94BE06AAE2B2E04D915C91A8E2D6
:100D4000B2E00D911C910417150711F40C94BE0626
:100D5000E6E5F3E10E944E07E8E2F2E0A0E1B8E048
:100D60000E94E6070E9446070E945507A8E2B2E0EB
:100D70008D919C91AAE2B2E08D939C93A3E2B2E0A4
:100D80008C9185FB16F00C94E806A6E2B2E04D913A
:100D90005C91A4E2B2E00D911C910417150711F4C7
:100DA0000C94E806EEE5F3E10E944E07E4E2F2E07F
:100DB000A0E1B8E00E94E6070E9446070E9455079E
:100DC000A4E2B2E08D919C91A6E2B2E08D939C9357
:100DD000A3E2B2E08C9180FB16F00C94F6067091C1
:100DE00023027E7F709323020E9424020C94430509
:100DF000ED91FC91EF5FFF4FFC93EE93089509D0C6
:100E00000E94840700FC10D0089503D01ED001F882
:100E1000F9CF0024E89457FF02C009D0689400F885
:100E20000BD010F80124089502D009D008955095F0
:100E300040954F5F5F4F0895E89417FF0895009520
:100E400010950F5F1F4F68940895352F242FE89455
:100E5000452B11F468940895512F402F0027112736
:100E600080E1440F551F001F111F021B130B41602F
:100E700018F4020F131F4E7F8A9599F708958F93E8
:100E80008D918823E9F711978F910895A0E1B8E03B
:100E90008D91882311F00CD0FBCF08950E94940708
:100EA000802D11F005D0FACF08958DE001D08AE0B1
:100EB0000090C00005FEFCCF8093C600089588EE28
:100EC00093E00CD03197D9F708953197F1F7089551
:100ED000689462F80895E89462F80895EF93FF9398
:100EE000EE27E82BE92B31F0E0EDF7E03197F1F751
:100EF0000197D1F7FF91EF910895019111912191FF
:100F000030810895015010400F92B801469F800132
:100F1000479F100D569F100D0F9008950E94940743
:100F20000D920020D9F70895C895319600200895B4
:100F300091E005C092E003C094E001C098E0F4DFC6
:100F40000D929A95E1F70895880F991F880F991FC0
:100F5000E80FF91FF1CF0196019721F00E94940745
:100F6000E9F7FACF0895819104D08D938823D9F7BA
:100F70000895813618F08B3708F48F7D089591E03D
:100F8000882321F08894991F8A95E9F7892F9095F5
:100F90000895883018F011968850FBCF089580E3AB
:100FA0000EF483950895040F151F261F371F08950B
:100FB000000F111F221F331F0895009510952095D3
:100FC00030950F5F1F4F2F4F3F4F089501911081B4
:100FD0000FC00E947D070EC00E947D0710C00191C6
:100FE000108117FF05C03FEF2FEF04C000811127CC
:100FF0002227332737FF03C0E0DF8DE28D93CF92A6
:10100000DF92EF92AA24BB24CC24DD24EE2440E21C
:10101000EAE0FF2755E093E38081890F87FD9F7009
:1010200083FD907F891B81935A95A9F7C1DFAA1C84
:10103000BB1CCC1CDD1CEE1C4A9551F7E894EFE07C
:10104000FF2782910BD0EB30E0F71EF068948A2DD9
:1010500009D04D93EF90DF90CF900895982F82950F
:1010600001D0892F8F70805D26F0803309F40895B8
:1010700068948D93089500271127222733271DD0C8
:101080008A3328F4803318F005D015D0F9CF0EF448
:1010900094CF089580538F93402F512F622F732F39
:1010A00087DF86DF80DF84DF8F919927080F191F84
:1010B000291F391F08958D910895E894FCDF80322F
:1010C000E9F38B32D9F38930C9F38D3211F4689486
:1010D000F2CF089588278D93089581918D93882369
:1010E000E1F7089509919191992359F08A95D9F7DB
:1010F0003197002331F081918D930A958823C9F7A8
:101100000895E8CFF999FECFE1BDF2BD319608957B
:1011100091E001C092E07B3751F47FB7F894F2DFA1
:101120008D9180BDFA9AF99A9A95C9F77FBF772772
:10113000089591E001C092E0E5DFF89A80B58D93C3
:101140009A95D1F70895FF93881BF9E0001FFA954F
:1011500011F4FF910895881F841B18F4840F88945C
:10116000F5CF0894F3CF8FEF83959D919923E1F705
:101170000895689401C0E894AF93BF938D9116F0E1
:10118000919103C00E949407902D891718F011F4D3
:101190008823A1F7BF91AF910895689401C0E894A6
:1011A0002227102F231709F4089526F40E9494078C
:1011B000802D01C08191803081F0891741F070E06D
:1011C0008D931A9591F7239571E01D93EACF01D085
:1011D000E8CF703011F077270895772331F4239505
:1011E000882713958D931A95E9F7089530322D319C
:1011F000322D323032352031393A33393A353600F2
:10120000302E312E3837000052504957442E42417B
:10121000530054776169744F4E3D00005477616903
:10122000744F46463D0024003A004C45455646570B
:10123000000056657273696F6E2046573A20466506
:10124000636861203C003E2C204172636869766FC0
:10125000203C00003E00525354564152000056615B
:101260006C6F72657320706F72206465666563745D
:101270006F005345544C45440000536520636F6E26
:10128000666967757261207365746C65642061209E
:1012900000004C454544494E00005250497374616A
:1012A0003D002C2056696E4D6F6E3D0053455454E1
:1012B0004F4E0000536520636F6E66696775726FED
:1012C0002054776169744F4E3D005345544F464654
:1012D00000004C4545544F4E00004C45454F464696
:1012E0000000534552313D00525049204F4E0000FE
:1012F00046414C4C412041432C20525049204F4EF6
:1013000000004143204F4B2C20525049204F4E208B
:101310000000525049204F4646004143204F4B2C7D
:1013200020525049204F4646000046414C4C412037
:1013300041432C20525049204F46460041504147DE
:101340004152205250490000454E43454E444552BB
:10135000205250490000436E74724F4E3D00436E60
:0813600074724F46463D000087
:00000001FF
