:100000000C94460018950000189500001895000003
:10001000189500001895000018950000189500002C
:100020001895000018950000189500000C94971B77
:10003000189500001895000018950000189500000C
:1000400018950000189500000C94F3011895000015
:100050000C94B70018950000189500001895000042
:1000600018950000189500001895000018950000DC
:100070000C949A011895000018950000189500003E
:100080001895000018950000189500008FEF8DBF9F
:10009000C0E8E8E94E2E80E48EBFD0E4FFE35F2E97
:1000A000A89584B7082E882784BF88E19927809374
:1000B000600090936000EEEFFFE3A0E0B1E08827DE
:1000C0008D933197E9F787E68093C40080E08093B1
:1000D000C50088E18093C1006624209A85E085BD33
:1000E00080E084BD70916E00716070936E0085E059
:1000F00085BD80E28093B60085E08093B100709169
:100100007000716070937000A6E0B1E0ECECFDE36C
:100110000E947C1B0E94111B0E946019AFE0B1E09D
:10012000E6EDFDE30E947C1B0E94111B0E946619F4
:100130007091C10070687093C10080E18093CC0021
:1001400080E08093CD007091C80072607093C80009
:1001500087E08093CA0088E18093C900229A709159
:10016000C90070687093C90078940C9407160F92B8
:100170001F922F923F924F925F927F92AF92BF92C7
:100180000F931F932F933F934F935F936F937F939F
:100190008F939F93AF93BF93CF93DF93EF93FF938F
:1001A0008FB78F938BB78F9388278BBFA4E9B6E067
:1001B0008091C6008C9384E2482F00919406041726
:1001C00011F00C94EE007091470271607093470239
:1001D000ABECB5E088278C930C947C0185E2482F2A
:1001E000041711F00C94FF007091FF02706470937B
:1001F000FF02AFE5B7E088278C930C947C010D30AB
:1002000011F00C944301A7E4B2E08C9180FB16F04E
:100210000C942201709147027E7F7093470280E028
:10022000ABECB5E00E946D178D9388278C93EBECB7
:10023000F5E0A5E9B6E00E944B1D7091FF027068E1
:100240007093FF02AFEFB2E08C9186FB16F00C9436
:1002500041017091FF027F7B7093FF0280E0AFE568
:10026000B7E00E946D178D9388278C93EFE5F7E038
:10027000ACEEB7E00E944B1D7091FF02706270936C
:10028000FF020C947C010F3118F011F00C944A011C
:100290000C947C01A7E4B2E08C9180FB16F00C94E6
:1002A0005B01A4E9B6E08C91ABECB5E00E946D1760
:1002B0008D9388278C93AFEFB2E08C9186FB16F07C
:1002C0000C947C01A4E9B6E08C91AFE5B7E00E9404
:1002D0006D178D9388278C93AFE5B7E00E94971D2B
:1002E000082F0C3818F011F00C9478010C947C0154
:1002F000AFE5B7E088278C938F918BBF8F918FBF2D
:10030000FF91EF91DF91CF91BF91AF919F918F912D
:100310007F916F915F914F913F912F911F910F911D
:10032000BF90AF907F905F904F903F902F901F9025
:100330000F9018950F921F922F923F924F925F92BB
:100340007F92AF92BF920F931F932F933F934F9340
:100350005F936F937F938F939F93AF93BF93CF934D
:10036000DF93EF93FF938FB78F938BB78F9388278C
:100370008BBFA9E7B8E08091CE008C93AFEFB2E0DD
:100380008C9184FB16F00C94D501ACE9B2E08C9111
:100390008F5F8C9380917908ACE9B2E0AD90BB247B
:1003A000A9E7B8E0AA0DBB1D8C938F918BBF8F91ED
:1003B0008FBFFF91EF91DF91CF91BF91AF919F914F
:1003C0008F917F916F915F914F913F912F911F91ED
:1003D0000F91BF90AF907F905F904F903F902F9084
:1003E0001F900F9018950F921F922F923F924F924D
:1003F0005F927F92AF92BF920F931F932F933F9381
:100400004F935F936F937F938F939F93AF93BF931C
:10041000CF93DF93EF93FF938FB78F938BB78F9328
:1004200088278BBF74E676BDA6EEB2E08C918F5F15
:100430008C93A6EEB2E00C9148E00E94871D8C934D
:100440000091E602003011F00C946602A7EEB2E0D3
:100450000C9140E20E94871D8C93EAECFBE20E9423
:100460007C1BACEEB2E08C919927A8EEB2E00E9422
:10047000371B8091E702A8EEB2E00E946B1B0E943E
:10048000611B0C900822689409F4E894A7E4B2E098
:100490008C9183F98C93A7E4B2E08C9183FB88273D
:1004A00080F9809580FBA7E4B2E08C9183F98C936E
:1004B000A7E4B2E08C9183FBA5E2B0E08C9180F9D7
:1004C0008C93A7EEB2E08C918F5F8C93AFEFB2E08C
:1004D0008C9184FB16F00C949102A4EAB2E00E9485
:1004E0002617A4EAB2E00D911C9140EA50E00E9468
:1004F0005317A4EAB2E00D931C93A4EAB2E00D9165
:100500001C91003050E0150711F00C94910270918D
:10051000FF027F7E7093FF027091470270617093BB
:100520004702A7E4B2E08C9181FB16F00C94B00274
:10053000AFEEB2E00E942617A1EFB2E04D915C91C0
:10054000AFEEB2E00D911C910417150711F00C9459
:10055000AE02709147027460709347020C94B60229
:1005600080E090E0AFEEB2E08D939C938F918BBFD3
:100570008F918FBFFF91EF91DF91CF91BF91AF919D
:100580009F918F917F916F915F914F913F912F91AB
:100590001F910F91BF90AF907F905F904F903F90D1
:1005A0002F901F900F901895E0E0F1E00E94911AB3
:1005B000A5EFB2E00D931D932D933D9381E08093C1
:1005C000F3020091F302043018F011F00C944D0383
:1005D0000091F30241E0041BA4EFB2E00C93A5EFFD
:1005E000B2E00D911D912D913C91A3EFB2E0AD9041
:1005F000BB24A4E5B2E0AA0CBB1CAA0CBB1CAA0D30
:10060000BB1D4D915D916D917C910E94831CA9EF62
:10061000B2E00D931D932D933D93A9EFB2E00D91A0
:100620001D912D913C91A3EFB2E0AD90BB24A4E4C9
:10063000B2E0AA0CBB1CAA0CBB1CAA0DBB1D4D91A1
:100640005D916D917C910E949717A9EFB2E00D9397
:100650001D932D933D9340E050E060E070E0A9EFE2
:10066000B2E00D911D912D913C910E94881C11F0DA
:100670000C9445038091F402ADEFB2E00E946B1B35
:100680000E94611B9C91982B9C93A3EFB2E08C91EC
:100690008F5F8C9310F40C94E1027091FE027160F4
:1006A0007093FE0208952898E0EEFDE30E947C1B03
:1006B0000E947C170E948317A0E8BFE3E6E0FEE3F8
:1006C0000E947C1B0E94111B0E9474170E948317BA
:1006D000A0E8BFE3EAE1FEE30E947C1B0E94111B3D
:1006E0000E9474170E948317A0E8BFE3E2E2FEE3D2
:1006F0000E947C1B0E94111B0E9474170E9483178A
:1007000081E08093EC0281E080931901009119014E
:10071000043018F011F00C941904E9E1F1E0A19013
:10072000BB24EEEFFFEFAA0CBB1CAA0CBB1CEA0D0E
:10073000FB1DA9E1B1E0AD90BB24A4E4B2E0AA0C9A
:10074000BB1CAA0CBB1CAA0DBB1D94E00E94801D03
:10075000E9E1F1E0A190BB24EEE0F0E0AA0CBB1CC3
:10076000AA0CBB1CEA0DFB1DA9E1B1E0AD90BB24B6
:10077000A4E5B2E0AA0CBB1CAA0CBB1CAA0DBB1DB5
:1007800094E00E94801DEAE2FEE30E947C1B0E942E
:100790007C17E9E1F1E0A0E8BFE30E94AB1C0E94F6
:1007A0007417EEE2FEE30E947C1B0E947C17E9E1D5
:1007B000F1E0A190BB24E4E4F2E0AA0CBB1CAA0C7B
:1007C000BB1CEA0DFB1DA0E8BFE30E949E1C0E941B
:1007D0007417E0E3FEE30E947C1B0E947C17E9E1B2
:1007E000F1E0A0E8BFE30E94AB1C0E947417EEE2A8
:1007F000FEE30E947C1B0E947C17E9E1F1E0A190DE
:10080000BB24E4E5F2E0AA0CBB1CAA0CBB1CEA0D5D
:10081000FB1DA0E8BFE30E949E1C0E9474170E946B
:100820008317A9E1B1E08C918F5F8C9310F40C9445
:1008300086030E947F04E6E3FEE30E947C1B0E9485
:100840007C17A8E6B2E00E947617EEE3FEE30E9472
:100850007C1B0E947C170E948317E2E2F0E0A5E96E
:10086000B2E094E00E94801DE0E4FEE30E947C1B65
:100870000E947C17E5E9F2E0A0E8BFE30E94D21AEB
:100880000E947417E0E5FEE30E947C1B0E947C1727
:10089000E5E9F2E0A0E8BFE30E94CA1A0E947417DB
:1008A0000E948317E0E0F0E0A0E4B2E00E947D1D2A
:1008B000E2E5FEE30E947C1B0E947C17E0E4F2E08C
:1008C000A0E8BFE30E94AB1C0E9474170E9483172C
:1008D000E1E0F0E0A1E4B2E00E947D1DEAE5FEE384
:1008E0000E947C1B0E947C17E1E4F2E0A0E8BFE3D9
:1008F0000E94AB1C0E9474170E948317089580E029
:100900008093190180E080931A01A8E6B2E088275D
:100910008C938EE08093190100911901073118F032
:1009200011F00C94A804E09119010E94DA1A082F22
:10093000E0E1F0E0A8E6B2E00E946D170E941F1D02
:10094000A9E1B1E08C918F5F8C9310F40C948C042E
:10095000E8E6F2E0A0E3B1E00E944B1DA8E6B2E0B9
:1009600088278C938EE0809319010091190107313B
:1009700018F011F00C94D104E09119010E94DA1AD8
:10098000082FE0E1F0E0A8E6B2E00E946D170E94B7
:100990001F1DA9E1B1E08C918F5F8C9310F40C9432
:1009A000B504E0E3F1E0A8E6B2E00E949F1D11F07B
:1009B0000C94DD0481E080931901AAE1B1E08C91EF
:1009C0008F5F8C9300911901003011F00C94FC049E
:1009D00084EF91E00E94F417E4E6FEE30E947C1BA2
:1009E0000E947C17EAE1F1E0A0E8BFE30E94AB1CA3
:1009F0000E9474170E94831700911901013081E051
:100A000009F080E08F9300911A010A3081E009F02B
:100A100080E09F91892B882311F40C94850408951C
:100A200000E010E020E030E0A1E2B1E00D931D9382
:100A30002D933C9381E080931901009119010430BA
:100A400018F011F00C946605E9E1F1E0A190BB24E7
:100A5000EEEFFFEFAA0CBB1CAA0CBB1CEA0DFB1DA2
:100A60000CE211E020E030E0A0E1BB2794E07BE75E
:100A70000E946F1DE9E1F1E0A190BB24EEE0F0E0FF
:100A8000AA0CBB1CAA0CBB1CEA0DFB1DA1E2B1E029
:100A900094E07BE70E946F1DA1E2B1E00D911D91F2
:100AA0002D913C914CE350E060E070E00E947E1C90
:100AB000A1E2B1E00D931D932D933D93A9E1B1E027
:100AC0008C918F5F8C9310F40C941D050895ABE10D
:100AD000B1E08C918F5F8C93ABE1B1E00C9100FBA6
:100AE00016F40C947B0580E091E3AAE9B2E08D93C3
:100AF0009C930C9481058CE091E3AAE9B2E08D937C
:100B00009C9381E080931E0100911E01003318F038
:100B100011F00C949D0580E0AEE1B1E0AD90BB24F6
:100B2000A9E7B8E0AA0DBB1D8C93AEE1B1E08C91B2
:100B30008F5F8C9310F40C94840580E080939C026A
:100B4000A0E4B2E00C9103FB16F00C94C705EAE6B2
:100B5000FEE30E947C1B0E947C17EAE9F2E0A0E819
:100B6000BFE30E94211D0E9474170E94831780E139
:100B70008A93AAE9B2E08D919C918A939A9384E03A
:100B80008A93809141020E94FA180E948317709103
:100B9000FF0270617093FF022A9A80E18A93AAE9AA
:100BA000B2E08D919C918A939A9384E08A9380918C
:100BB00041020E94FC18EF93FF93ECEAF4E00E94DC
:100BC000EB17FF91EF912A98709147027062709332
:100BD00047020895A0E4B2E00C9103FB16F00C94D8
:100BE0002B06EEE6FEE30E947C1B0E947C17ECE9DC
:100BF000F2E0A0E8BFE30E94AB1C0E9474170E94C1
:100C0000831781E080931E0140919C0200911E0198
:100C1000041718F011F00C942906EEE1F1E0A19010
:100C2000BB24E9E7F8E0EA0DFB1DA0E8BFE30E9462
:100C30001F1D0E947417E0E5FEE30E947C1B0E94CA
:100C40007C17AEE1B1E08C918F5F8C9310F40C9423
:100C500004060E94831700919C0242E0041BADE948
:100C6000B2E00C9300919D0241E0040FAEE9B2E0C6
:100C70000C9300919E0241E0040FAFE9B2E00C93A7
:100C800081E08A9381E08A93ADE9B2E0EC91FF279D
:100C90004FEF5FEF25E030E8AAE7B8E00E94B11D12
:100CA000A0EAB2E04D935C93AFE9B2E0AD90BB2413
:100CB000A9E7B8E0AA0DBB1D9C91AEE9B2E0AD90EA
:100CC000BB24A9E7B8E0AA0DBB1D8C91AFE1B1E050
:100CD0008D939C93AFE1B1E04D915C91A0EAB2E0BD
:100CE0000D911C910417150711F00C94EA0AA7E462
:100CF000B2E08C9185FB16F00C94820AAAE9B2E06E
:100D00000D911C91003051E3150711F00C947F08F0
:100D100090917D0880917E08A2EAB2E08D939C9329
:100D2000E8ECFDE30E947C1B0E94D71EE2EAF2E0A1
:100D3000D190E080FF2400270E94541E0E94811E53
:100D4000EDE0F0E0A6EAB2E00E94501D90917F082D
:100D500080918008A2EAB2E08D939C93E8ECFDE3D9
:100D60000E947C1B0E94D71EE2EAF2E0D190E08054
:100D7000FF2400270E94541E0E94811EEDE0F0E037
:100D8000AAEAB2E00E94501D9091810880918208E9
:100D9000A2EAB2E08D939C93E8ECFDE30E947C1BF9
:100DA0000E94D71EE2EAF2E0D190E080FF24002703
:100DB0000E94541E0E94811EEDE0F0E0AEEAB2E017
:100DC0000E94501D9091830880918408A2EAB2E0AD
:100DD0008D939C93E8ECFDE30E947C1B0E94D71E40
:100DE000E2EAF2E0D190E080FF2400270E94541E46
:100DF0000E94811EEDE0F0E0A2EBB2E00E94501DE7
:100E00009091850880918608A2EAB2E08D939C9328
:100E1000E8ECFDE30E947C1B0E94D71EE2EAF2E0B0
:100E2000D190E080FF2400270E94541E0E94811E62
:100E3000EDE0F0E0A6EBB2E00E94501D9091870833
:100E400080918808A2EAB2E08D939C93E8ECFDE3E0
:100E50000E947C1B0E94D71EE2EAF2E0D190E08063
:100E6000FF2400270E94541E0E94811EEDE0F0E046
:100E7000AAEBB2E00E94501D9091890880918A08E7
:100E8000A2EAB2E08D939C93E8ECFDE30E947C1B08
:100E90000E94D71EE2EAF2E0D190E080FF24002712
:100EA0000E94541E0E94811EEDE0F0E0AEEBB2E025
:100EB0000E94501D90918B0880918C08A2EAB2E0AC
:100EC0008D939C93E8ECFDE30E947C1B0E94D71E4F
:100ED000E2EAF2E0D190E080FF2400270E94541E55
:100EE0000E94811EEDE0F0E0A2ECB2E00E94501DF5
:100EF000A0E4B2E00C9103FB16F00C947F08E6E747
:100F0000FEE30E947C1B0E947C17A0E8BFE3AF9326
:100F1000BF93E6EAF2E00E942A1E0E94031811E045
:100F200002E0BF91AF910E94361CE0E8FFE3A0E829
:100F3000BFE30E944B1D0E9474170E948317ECE7C9
:100F4000FEE30E947C1B0E947C17A0E8BFE3AF93E6
:100F5000BF93EAEAF2E00E942A1E0E94031811E001
:100F600002E0BF91AF910E94361CE0E8FFE3A0E8E9
:100F7000BFE30E944B1D0E9474170E948317E2E892
:100F8000FEE30E947C1B0E947C17A0E8BFE3AF93A6
:100F9000BF93EEEAF2E00E942A1E0E94031811E0BD
:100FA00002E0BF91AF910E94361CE0E8FFE3A0E8A9
:100FB000BFE30E944B1D0E9474170E948317EAE84A
:100FC000FEE30E947C1B0E947C17A0E8BFE3AF9366
:100FD000BF93E2EBF2E00E942A1E0E94031811E088
:100FE00002E0BF91AF910E94361CE0E8FFE3A0E869
:100FF000BFE30E944B1D0E9474170E948317E2E911
:10100000FEE30E947C1B0E947C17A0E8BFE3AF9325
:10101000BF93E6EBF2E00E942A1E0E94031811E043
:1010200002E0BF91AF910E94361CE0E8FFE3A0E828
:10103000BFE30E944B1D0E9474170E948317E8E9CA
:10104000FEE30E947C1B0E947C17A0E8BFE3AF93E5
:10105000BF93EAEBF2E00E942A1E0E94031811E0FF
:1010600002E0BF91AF910E94361CE0E8FFE3A0E8E8
:10107000BFE30E944B1D0E9474170E948317E0EA91
:10108000FEE30E947C1B0E947C17A0E8BFE3AF93A5
:10109000BF93EEEBF2E00E942A1E0E94031811E0BB
:1010A00002E0BF91AF910E94361CE0E8FFE3A0E8A8
:1010B000BFE30E944B1D0E9474170E948317E8EA49
:1010C000FEE30E947C1B0E947C17A0E8BFE3AF9365
:1010D000BF93EEEBF2E00E942A1E0E94031811E07B
:1010E00002E0BF91AF910E94361CE0E8FFE3A0E868
:1010F000BFE30E944B1D0E9474170E948317AAE948
:10110000B2E00D911C910C3051E3150711F00C94D5
:10111000800A90917D0880917E08A2EAB2E08D93CA
:101120009C93E8ECFDE30E947C1B0E94D71EE2EA40
:10113000F2E0D190E080FF2400270E94541E0E941C
:10114000811EEDE0F0E0A6ECB2E00E94501D90910F
:101150007F0880918008A2EAB2E08D939C93E8EC2E
:10116000FDE30E947C1B0E94D71EE2EAF2E0D190D0
:10117000E080FF2400270E94541E0E94811EEDE0A3
:10118000F0E0AAECB2E00E94501D9091810880919D
:101190008208A2EAB2E08D939C93E8ECFDE30E9402
:1011A0007C1B0E94D71EE2EAF2E0D190E080FF248F
:1011B00000270E94541E0E94811EEDE0F0E0AEEC7C
:1011C000B2E00E94501D9091830880918408A2EAA9
:1011D000B2E08D939C93E8ECFDE30E947C1B0E949F
:1011E000D71EE2EAF2E0D190E080FF2400270E94BF
:1011F000541E0E94811EEDE0F0E0A2EDB2E00E94DC
:10120000501D9091850880918608A2EAB2E08D93E6
:101210009C93E8ECFDE30E947C1B0E94D71EE2EA4F
:10122000F2E0D190E080FF2400270E94541E0E942B
:10123000811EEDE0F0E0A6EDB2E00E94501D90911D
:10124000870880918808A2EAB2E08D939C93E8EC2D
:10125000FDE30E947C1B0E94D71EE2EAF2E0D190DF
:10126000E080FF2400270E94541E0E94811EEDE0B2
:10127000F0E0AAEDB2E00E94501D909189088091A3
:101280008A08A2EAB2E08D939C93E8ECFDE30E9409
:101290007C1B0E94D71EE2EAF2E0D190E080FF249E
:1012A00000270E94541E0E94811EEDE0F0E0AEED8A
:1012B000B2E00E94501D90918B0880918C08A2EAA8
:1012C000B2E08D939C93E8ECFDE30E947C1B0E94AE
:1012D000D71EE2EAF2E0D190E080FF2400270E94CE
:1012E000541E0E94811EEDE0F0E0A2EEB2E00E94EA
:1012F000501DA0E4B2E00C9103FB16F00C94800AA0
:10130000E0EBFEE30E947C1B0E947C17A0E8BFE399
:10131000AF93BF93E6ECF2E00E942A1E0E940318EE
:1013200011E002E0BF91AF910E94361CE0E8FFE3BC
:10133000A0E8BFE30E944B1D0E9474170E94831710
:10134000E8EBFEE30E947C1B0E947C17A0E8BFE351
:10135000AF93BF93EAECF2E00E942A1E0E940318AA
:1013600011E002E0BF91AF910E94361CE0E8FFE37C
:10137000A0E8BFE30E944B1D0E9474170E948317D0
:10138000E0ECFEE30E947C1B0E947C17A0E8BFE318
:10139000AF93BF93EEECF2E00E942A1E0E94031866
:1013A00011E002E0BF91AF910E94361CE0E8FFE33C
:1013B000A0E8BFE30E944B1D0E9474170E94831790
:1013C000E8EAFEE30E947C1B0E947C17A0E8BFE3D2
:1013D000AF93BF93E2EDF2E00E942A1E0E94031831
:1013E00011E002E0BF91AF910E94361CE0E8FFE3FC
:1013F000A0E8BFE30E944B1D0E9474170E94831750
:10140000EAECFEE30E947C1B0E947C17A0E8BFE38D
:10141000AF93BF93E6EDF2E00E942A1E0E940318EC
:1014200011E002E0BF91AF910E94361CE0E8FFE3BB
:10143000A0E8BFE30E944B1D0E9474170E9483170F
:10144000E4EDFEE30E947C1B0E947C17A0E8BFE352
:10145000AF93BF93EAEDF2E00E942A1E0E940318A8
:1014600011E002E0BF91AF910E94361CE0E8FFE37B
:10147000A0E8BFE30E944B1D0E9474170E948317CF
:10148000EEEDFEE30E947C1B0E947C17A0E8BFE308
:10149000AF93BF93EEEDF2E00E942A1E0E94031864
:1014A00011E002E0BF91AF910E94361CE0E8FFE33B
:1014B000A0E8BFE30E944B1D0E9474170E9483178F
:1014C000E8EEFEE30E947C1B0E947C17A0E8BFE3CD
:1014D000AF93BF93E2EEF2E00E942A1E0E9403182F
:1014E00011E002E0BF91AF910E94361CE0E8FFE3FB
:1014F000A0E8BFE30E944B1D0E9474170E9483174F
:101500000C94E80A00919C02073011F00C94BC0A7C
:1015100090917D0880917E08A2EAB2E08D939C9321
:10152000E0EFFEE30E947C1B0E947C17E2EAF2E0FF
:10153000A0E8BFE30E949B1C0E947417EEEFFEE33D
:101540000E947C1B0E947C17E2EAF2E0A0E8BFE365
:101550000E94211D0E947417E6E0FFE30E947C1B9D
:101560000E947C17E2EAF2E0A0E8BFE30E949B1C25
:101570000E9474170E94831700919C02083011F09A
:101580000C94E80A90917E0880917F08A2EAB2E06C
:101590008D939C93E0EFFEE30E947C1B0E947C17DE
:1015A000E2EAF2E0A0E8BFE30E949B1C0E947417ED
:1015B000EEEFFEE30E947C1B0E947C17E2EAF2E061
:1015C000A0E8BFE30E94211D0E9474170E948317A8
:1015D0000C94010BA0E4B2E00C9103FB16F00C9408
:1015E000010BEEE0FFE30E947C1B0E947C17EAE9FE
:1015F000F2E0A0E8BFE30E94211D0E9474170E9440
:101600008317089580E080934602709147027F77A8
:1016100070934702A6E4B2E08C918F5F8C93E0E276
:10162000FFE30E947C1B0E947C17E6E4F2E0A0E846
:10163000BFE30E94AB1C0E9474170E94831784E6CC
:1016400090E0A1EFB2E08D939C9380E090E0AFEE4C
:10165000B2E08D939C937091470272607093470241
:10166000709147027B7F70934702AFEFB2E08C919D
:1016700085FB16F00C944F0B7091FF027F7D7093E9
:10168000FF02ECE2FFE30E947C1B0E947C17ACEEA1
:10169000B7E00E9476170E9483170E94150FAFEFE4
:1016A000B2E08C9187FB16F00C94690B7091FF02ED
:1016B0007F777093FF02E4E3FFE30E947C1B0E94AC
:1016C0007C17A5E9B6E00E9476170E9483170E9456
:1016D0009F0FA7E4B2E08C9187FB81E00EF080E0E1
:1016E0008F93A7E4B2E08C9182FB81E00EF080E062
:1016F0009F91892B882311F40C94350B709147022C
:101700007D7F70934702A7E4B2E08C9187FB16F4CB
:101710000C94960BEAE3FFE30E947C1B0E947C176B
:10172000A0E3B1E00E9476170E948317A7E4B2E01D
:101730008C9187FB81E00EF080E08F930091460250
:10174000033081E009F080E09F91892B882311F418
:101750000C940A0B709147027D7F70934702709141
:1017600047027F77709347020895ECE3FFE30E94FE
:101770007C1B0E947C170E945719AFE0B1E00E94C9
:101780007617E0E5FEE30E947C1B0E947C170E9416
:101790005719A6E0B1E00E9476170E9483170E94B5
:1017A0005719E6E0F1E0AFE7B2E00E944B1D0E945E
:1017B0005719EFE0F1E0AAE8B2E00E944B1DA0E368
:1017C000B1E0E6E4FFE30E947C1B0E94111BEFE7FF
:1017D000F2E0A0E3B1E00E946D170E944B1DA0E370
:1017E000B1E00E946D17E0E5FEE30E947C1B0E94C1
:1017F000111BEAE8F2E0A0E3B1E00E946D170E943D
:101800004B1DA0E3B1E00E946D17E0E5FEE30E94EE
:101810007C1B0E94111BE8E6F2E0A0E3B1E00E940D
:101820006D170E944B1DA0E3B1E00E946D17EAE422
:10183000FFE30E947C1B0E94111BA0E3B1E00E9409
:101840006D17E0E5FEE30E947C1B0E94111BA0E8DF
:10185000BFE3AF93BF93E6EAF2E00E942A1E0E9424
:10186000031811E002E0BF91AF910E94361CE0E83E
:10187000FFE3A0E3B1E00E946D170E944B1DA0E3BF
:10188000B1E00E946D17E0E5FEE30E947C1B0E9420
:10189000111BA0E8BFE3AF93BF93EAEAF2E00E9416
:1018A0002A1E0E94031811E002E0BF91AF910E942E
:1018B000361CE0E8FFE3A0E3B1E00E946D170E9450
:1018C0004B1DA0E3B1E00E946D17E0E5FEE30E942E
:1018D0007C1B0E94111BA0E8BFE3AF93BF93EEEA0D
:1018E000F2E00E942A1E0E94031811E002E0BF915C
:1018F000AF910E94361CE0E8FFE3A0E3B1E00E9454
:101900006D170E944B1DA0E3B1E00E946D17E0E54A
:10191000FEE30E947C1B0E94111BA0E8BFE3AF9373
:10192000BF93E2EBF2E00E942A1E0E94031811E02E
:1019300002E0BF91AF910E94361CE0E8FFE3A0E314
:10194000B1E00E946D170E944B1DA0E3B1E00E9420
:101950006D17E0E5FEE30E947C1B0E94111BA0E8CE
:10196000BFE3AF93BF93E6EBF2E00E942A1E0E9412
:10197000031811E002E0BF91AF910E94361CE0E82D
:10198000FFE3A0E3B1E00E946D170E944B1DA0E3AE
:10199000B1E00E946D17E0E5FEE30E947C1B0E940F
:1019A000111BA0E8BFE3AF93BF93EAEBF2E00E9404
:1019B0002A1E0E94031811E002E0BF91AF910E941D
:1019C000361CE0E8FFE3A0E3B1E00E946D170E943F
:1019D0004B1DA0E3B1E00E946D17E0E5FEE30E941D
:1019E0007C1B0E94111BA0E8BFE3AF93BF93EEEBFB
:1019F000F2E00E942A1E0E94031811E002E0BF914B
:101A0000AF910E94361CE0E8FFE3A0E3B1E00E9442
:101A10006D170E944B1DA0E3B1E00E946D17E0E539
:101A2000FEE30E947C1B0E94111BA0E8BFE3AF9362
:101A3000BF93E2ECF2E00E942A1E0E94031811E01C
:101A400002E0BF91AF910E94361CE0E8FFE3A0E303
:101A5000B1E00E946D170E944B1DA0E3B1E00E940F
:101A6000971DAFE1B1E08D9388278C93AFE1B1E092
:101A7000ED91FC91A0E3B1E00E94D51DA2E4B2E09B
:101A80000D931D932D933D93A0E3B1E00E946D173C
:101A9000EEE4FFE30E947C1B0E94111BE2E4F2E0F3
:101AA000A0E3B1E00E946D170E94231DEAE3FFE36B
:101AB0000E947C1B0E947C17A0E3B1E00E94761775
:101AC0000E9483170E94020B0895E0E5FFE30E9445
:101AD0007C1B0E947C170E945719AFE0B1E00E9466
:101AE0007617E0E5FEE30E947C1B0E947C170E94B3
:101AF0005719A6E0B1E00E9476170E9483170E9452
:101B00005719E6E0F1E0AFE7B2E00E944B1D0E94FA
:101B10005719EFE0F1E0AAE8B2E00E944B1DA0E304
:101B2000B1E0E6E4FFE30E947C1B0E94111BEFE79B
:101B3000F2E0A0E3B1E00E946D170E944B1DA0E30C
:101B4000B1E00E946D17E0E5FEE30E947C1B0E945D
:101B5000111BEAE8F2E0A0E3B1E00E946D170E94D9
:101B60004B1DA0E3B1E00E946D17E0E5FEE30E948B
:101B70007C1B0E94111BE8E6F2E0A0E3B1E00E94AA
:101B80006D170E944B1DA0E3B1E00E946D17EAE5BE
:101B9000FFE30E947C1B0E94111BA0E3B1E00E94A6
:101BA0006D17E0E5FEE30E947C1B0E94111BA0E87C
:101BB000BFE3AF93BF93E6ECF2E00E942A1E0E94BF
:101BC000031811E002E0BF91AF910E94361CE0E8DB
:101BD000FFE3A0E3B1E00E946D170E944B1DA0E35C
:101BE000B1E00E946D17E0E5FEE30E947C1B0E94BD
:101BF000111BA0E8BFE3AF93BF93EAECF2E00E94B1
:101C00002A1E0E94031811E002E0BF91AF910E94CA
:101C1000361CE0E8FFE3A0E3B1E00E946D170E94EC
:101C20004B1DA0E3B1E00E946D17E0E5FEE30E94CA
:101C30007C1B0E94111BA0E8BFE3AF93BF93EEECA7
:101C4000F2E00E942A1E0E94031811E002E0BF91F8
:101C5000AF910E94361CE0E8FFE3A0E3B1E00E94F0
:101C60006D170E944B1DA0E3B1E00E946D17E0E5E7
:101C7000FEE30E947C1B0E94111BA0E8BFE3AF9310
:101C8000BF93E2EDF2E00E942A1E0E94031811E0C9
:101C900002E0BF91AF910E94361CE0E8FFE3A0E3B1
:101CA000B1E00E946D170E944B1DA0E3B1E00E94BD
:101CB0006D17E0E5FEE30E947C1B0E94111BA0E86B
:101CC000BFE3AF93BF93E6EDF2E00E942A1E0E94AD
:101CD000031811E002E0BF91AF910E94361CE0E8CA
:101CE000FFE3A0E3B1E00E946D170E944B1DA0E34B
:101CF000B1E00E946D17E0E5FEE30E947C1B0E94AC
:101D0000111BA0E8BFE3AF93BF93EAEDF2E00E949E
:101D10002A1E0E94031811E002E0BF91AF910E94B9
:101D2000361CE0E8FFE3A0E3B1E00E946D170E94DB
:101D30004B1DA0E3B1E00E946D17E0E5FEE30E94B9
:101D40007C1B0E94111BA0E8BFE3AF93BF93EEED95
:101D5000F2E00E942A1E0E94031811E002E0BF91E7
:101D6000AF910E94361CE0E8FFE3A0E3B1E00E94DF
:101D70006D170E944B1DA0E3B1E00E946D17E0E5D6
:101D8000FEE30E947C1B0E94111BA0E8BFE3AF93FF
:101D9000BF93E2EEF2E00E942A1E0E94031811E0B7
:101DA00002E0BF91AF910E94361CE0E8FFE3A0E3A0
:101DB000B1E00E946D170E944B1DA0E3B1E00E94AC
:101DC000971DAFE1B1E08D9388278C93AFE1B1E02F
:101DD000ED91FC91A0E3B1E00E94D51DA2E4B2E038
:101DE0000D931D932D933D93A0E3B1E00E946D17D9
:101DF000EEE4FFE30E947C1B0E94111BE2E4F2E090
:101E0000A0E3B1E00E946D170E94231DEAE3FFE307
:101E10000E947C1B0E947C17A0E3B1E00E94761711
:101E20000E9483170E94020B0895ECEEF7E09BE3FB
:101E300004E132E2A1E0B3E00E94F51DA0E0B3E0CE
:101E40002C9300910003003018F011F00C942A0F2D
:101E50000C94320FE1E0F3E0A9E2B1E00E944B1DE7
:101E60000C94380FECEEF7E0A9E2B1E00E944B1DB4
:101E7000A9E2B1E0EEE5FFE30E947C1B0E949D1DFC
:101E800011F00C944A0F70914702706870934702EA
:101E90000C949E0FE2E6FFE30E947C1B0E949D1DB6
:101EA00011F00C945A0F709147027F77709347029C
:101EB0000C949E0FE6E6FFE30E947C1B0E949D1D92
:101EC00011F00C94780F7091FF0270687093FF020C
:101ED000E6E1F3E0A5E9B6E00E944B1DEEE6FFE384
:101EE0000E947C1B0E947C170E9483170C949E0FFB
:101EF000EAE7FFE30E947C1B0E949D1D11F00C94F9
:101F0000960F7091FF0270687093FF02E6E1F3E0B4
:101F1000A5E9B6E00E944B1DEEE6FFE30E947C1BA4
:101F20000E947C170E9483170C949E0FE2E8FFE347
:101F30000E947C1B0E947C170E948317089581E0F9
:101F4000E5E9F6E006E00A93ABE0B2E00E94561D38
:101F5000E5E9F6E09CE204E132E2A1E0B3E00E94B0
:101F6000F51DA0E0B3E02C93A1E0B3E00E94971D23
:101F7000082F063011F00C94E014E1E0F3E0A9E240
:101F8000B1E00E944B1DE9E2F1E0A9E2B1E00E945C
:101F9000551B8FEF8093F901A9E2B1E0EEE8FFE372
:101FA0000E947C1B0E949D1D11F00C94181080E073
:101FB0008093F901A0E3B1E0E6E9FFE30E947C1B16
:101FC0000E94111BABE0B2E0E6E0FEE30E947C1B46
:101FD0000E94111BEBE0F2E0A0E3B1E00E946D175C
:101FE0000E944B1DA0E3B1E00E946D17EAEAFFE3F7
:101FF0000E947C1B0E94111BABE0B2E0E2E2FEE318
:102000000E947C1B0E94111BEBE0F2E0A0E3B1E018
:102010000E946D170E944B1DA0E3B1E00E946D1756
:10202000EEE3FEE30E947C1B0E94111B0C94DE1465
:10203000E8EBFFE30E947C1B0E949D1D11F00C94B5
:10204000571000910003023011F00C945210A6E1D9
:10205000B3E00E94F01CA9E1B1E00C9300911901DA
:10206000013110F00C944D1080E08093F901A0E351
:10207000B1E0E0ECFFE30E947C1B0E94111BE9E150
:10208000F1E0A0E3B1E00E946D170E94AB1C8091CB
:1020900019018093EC020C94501085E08093F901B3
:1020A0000C94551084E08093F9010C94DE14E8ED53
:1020B000FFE30E947C1B0E949D1D11F00C946F1089
:1020C00080E08093F901A0E3B1E0E0EEFFE30E943D
:1020D0007C1B0E94111B0E9410050C94DE14E4EF7F
:1020E000FFE30E947C1B0E949D1D11F00C947B114C
:1020F00000910003023011F00C947611A6E1B3E0D8
:102100000E94971D082F0C3011F00C94711180E083
:102110008093F90187E0E6E1F3E002E00A93ABE0A7
:10212000B2E00E94561DABE0B2E00E946D17ECEFEA
:10213000FFE30E947C1B0E94111B89E0E6E1F3E0B3
:1021400002E00A93ABE0B2E00E946D170E94561DB8
:10215000ABE0B2E00E946D17ECEFFFE30E947C1B46
:102160000E94111B8BE0E6E1F3E002E00A93ABE092
:10217000B2E00E946D170E94561DABE0B2E00E94D3
:1021800076170E948317EBE0F2E0AFE0B1E00E9427
:102190004B1D0E946619EEEFFFE30E947C1B0E941C
:1021A0007C170E945719AFE0B1E00E9476170E9499
:1021B000831781E0E6E1F3E002E00A93ABE0B2E0EE
:1021C0000E94561DABE0B2E00E946D17E2E0F0E421
:1021D0000E947C1B0E94111B83E0E6E1F3E002E019
:1021E0000A93ABE0B2E00E946D170E94561DABE06F
:1021F000B2E00E946D17E2E0F0E40E947C1B0E94B6
:10220000111B85E0E6E1F3E002E00A93ABE0B2E007
:102210000E946D170E94561DABE0B2E00E94761737
:102220000E948317EBE0F2E0A6E0B1E00E944B1DB4
:102230000E946019E4E0F0E40E947C1B0E947C177D
:102240000E945719A6E0B1E00E9476170E948317FA
:10225000A0E3B1E0E8E0F0E40E947C1B0E94111BC7
:102260000E945719E6E0F1E0A0E3B1E00E946D178B
:102270000E944B1DA0E3B1E00E946D17E2E3F0E481
:102280000E947C1B0E94111B0E945719EFE0F1E095
:10229000A0E3B1E00E946D170E944B1DE3E0F1E066
:1022A0000E94B419A9E9B2E08C93E0E0F1E00E9449
:1022B000911AA5E9B2E00D931D932D933D93E2E2AF
:1022C000F0E0A5E9B2E094E07BE70E946F1D709119
:1022D000470270647093470281E08093EC020C9493
:1022E000741186E08093F9010C94791184E0809355
:1022F000F9010C94DE14E6E3F0E40E947C1B0E94DA
:102300009D1D11F00C94BB1180E08093F9010E9497
:102310005719EFE0F1E0ABE0B2E00E944B1DA0E303
:10232000B1E0EEE3F0E40E947C1B0E94111BEBE0A5
:10233000F2E0A0E3B1E00E946D170E944B1DA0E304
:10234000B1E00E946D17ECE4F0E40E947C1B0E9457
:10235000111B0E945719E6E0F1E0ABE0B2E00E94E9
:102360004B1DEBE0F2E0A0E3B1E00E946D170E948C
:102370004B1D0C94DE14ECE5F0E40E947C1B0E94E3
:102380009D1D11F00C94F71180E08093F901E5E9AF
:10239000F2E0ABE0B2E00E94CA1AA0E3B1E0E4E6EA
:1023A000F0E40E947C1B0E94111BEBE0F2E0A0E332
:1023B000B1E00E946D170E944B1DA0E3B1E00E94A6
:1023C0006D17E8E7F0E40E947C1B0E94111BE5E911
:1023D000F2E0ABE0B2E00E94D21AEBE0F2E0A0E360
:1023E000B1E00E946D170E944B1D0C94DE14E0E8D2
:1023F000F0E40E947C1B0E949D1D11F00C948E1233
:1024000000910003033011F00C948912A6E1B3E0AF
:102410000E94F01CAEE1B1E00C9300911E0100306F
:1024200080E010F009F081E08F9300911E010530EB
:1024300081E008F080E09F918923882311F40C94B7
:102440008412ABE2B3E00E94F01CA5E2B1E00D9370
:102450001D932D933D93A5E2B1E00D911D912D911A
:102460003C91AEE1B1E0AD90BB24A4E4B2E0AA0C93
:10247000BB1CAA0CBB1CAA0DBB1D0D931D932D9359
:102480003C93EEE1F1E0A190BB24EEEFFFEFAA0C4C
:10249000BB1CAA0CBB1CEA0DFB1DA5E2B1E094E03D
:1024A0007BE70E946F1D80E08093F901A0E3B1E01B
:1024B000E8E8F0E40E947C1B0E94111BEEE1F1E0D1
:1024C000A0E3B1E00E946D170E94AB1CA0E3B1E055
:1024D0000E946D17ECEFFFE30E947C1B0E94111B12
:1024E000EEE1F1E0A190BB24E4E4F2E0AA0CBB1C15
:1024F000AA0CBB1CEA0DFB1DA0E3B1E00E946D1706
:102500000E949E1C0C94871283E08093F9010C9426
:102510008C1284E08093F9010C94DE14EEE9F0E46F
:102520000E947C1B0E949D1D11F00C9425130091AC
:102530000003033011F00C942013A6E1B3E00E94D5
:10254000F01CAEE1B1E00C9300911E01003080E080
:1025500010F009F081E08F9300911E01053081E0B9
:1025600008F080E09F918923882311F40C941B13B9
:10257000ABE2B3E00E94F01CA5E2B1E00D931D9325
:102580002D933D93A5E2B1E00D911D912D913C91CC
:10259000AEE1B1E0AD90BB24A4E5B2E0AA0CBB1C57
:1025A000AA0CBB1CAA0DBB1D0D931D932D933C9330
:1025B000EEE1F1E0A190BB24EEE0F0E0AA0CBB1C40
:1025C000AA0CBB1CEA0DFB1DA5E2B1E094E07BE781
:1025D0000E946F1D80E08093F901A0E3B1E0E8E87C
:1025E000F0E40E947C1B0E94111BEEE1F1E0A0E3ED
:1025F000B1E00E946D170E94AB1CA0E3B1E00E9405
:102600006D17ECEFFFE30E947C1B0E94111BEEE1B3
:10261000F1E0A190BB24E4E5F2E0AA0CBB1CAA0CFB
:10262000BB1CEA0DFB1DA0E3B1E00E946D170E94E8
:102630009E1C0C941E1383E08093F9010C942313C9
:1026400084E08093F9010C94DE14E6EAF0E40E9441
:102650007C1B0E949D1D11F00C948A1300910003B5
:10266000023011F00C948513A6E1B3E00E94F01C37
:10267000AEE1B1E00C9300911E01003080E010F05B
:1026800009F081E08F9300911E01053081E008F090
:1026900080E09F918923882311F40C948013A0E398
:1026A000B1E0EEEAF0E40E947C1B0E94111BEEE117
:1026B000F1E0A0E3B1E00E946D170E94AB1CA0E323
:1026C000B1E00E946D17ECEFFFE30E947C1B0E94BB
:1026D000111BEEE1F1E0A190BB24E4E4F2E0AA0CCE
:1026E000BB1CAA0CBB1CEA0DFB1DA0E3B1E00E94C1
:1026F0006D170E949E1C80E08093F9010C94831357
:1027000083E08093F9010C94881384E08093F901AD
:102710000C94DE14E6EBF0E40E947C1B0E949D1DED
:1027200011F00C94EF1300910003023011F00C949F
:10273000EA13A6E1B3E00E94F01CAEE1B1E00C9315
:1027400000911E01003080E010F009F081E08F93CD
:1027500000911E01053081E008F080E09F918923FF
:10276000882311F40C94E513A0E3B1E0EEEBF0E460
:102770000E947C1B0E94111BEEE1F1E0A0E3B1E09E
:102780000E946D170E94AB1CA0E3B1E00E946D1780
:10279000ECEFFFE30E947C1B0E94111BEEE1F1E0D5
:1027A000A190BB24E4E5F2E0AA0CBB1CAA0CBB1C64
:1027B000EA0DFB1DA0E3B1E00E946D170E949E1C74
:1027C00080E08093F9010C94E81383E08093F90191
:1027D0000C94ED1384E08093F9010C94DE14EAEC80
:1027E000F0E40E947C1B0E949D1D11F00C945C146F
:1027F00000910003023011F00C945714A6E1B3E0ED
:102800000E94F01CAEE1B1E00C9300911E0100307B
:1028100080E010F009F081E08F9300911E010530F7
:1028200081E008F080E09F918923882311F40C94C3
:10283000521480E08093F90100911E0141E0041BD5
:10284000A9E1B1E00C9380911901ADEFB2E00E94D3
:102850006B1B0E94611B9C91982B9C93A0E3B1E0A1
:10286000E2EDF0E40E947C1B0E94111BEEE1F1E01E
:10287000A0E3B1E00E946D170E94AB1CA0E3B1E0A1
:102880000E946D17E0E5FEE30E947C1B0E94111B75
:10289000A0E3B1E00E946D17EDEFF2E00E94381D59
:1028A0000C94551483E08093F9010C945A1484E03D
:1028B0008093F9010C94DE14E6EEF0E40E947C1B98
:1028C0000E949D1D11F00C9493140091000302309E
:1028D00011F00C948E1480E08093F901A6E1B3E02E
:1028E0000E94F01CA0E4B2E00C93E0E0F0E0A0E471
:1028F000B2E07BE70E946C1DA0E3B1E0EEEEF0E4F5
:102900000E947C1B0E94111BE0E4F2E0A0E3B1E016
:102910000E946D170E94AB1C0C94911484E080936C
:10292000F9010C94DE14E4E0F1E40E947C1B0E94A7
:102930009D1D11F00C94B11480E08093F901A0E387
:10294000B1E0E2E5FEE30E947C1B0E94111BE0E483
:10295000F2E0A0E3B1E00E946D170E94AB1C0C9462
:10296000DE14ECE0F1E40E947C1B0E949D1D11F03E
:102970000C94DB1480E08093F9010E947F04A0E3B3
:10298000B1E0E4E1F1E40E947C1B0E94111BE8E647
:10299000F2E0A0E3B1E00E946D170E944B1DA0E39E
:1029A000B1E00E946D17EEE3FEE30E947C1B0E94E3
:1029B000111B0C94DE1481E08093F9010C945915DD
:1029C000E1E0F3E0A9E2B1E00E944B1DE9E2F1E0B1
:1029D000A9E2B1E00E94551BA9E2B1E0EEE5FFE3F8
:1029E0000E947C1B0E949D1D11F00C94011570919A
:1029F000470270687093470280E08093F9010C945D
:102A00005915E2E6FFE30E947C1B0E949D1D11F018
:102A10000C941415709147027F777093470280E001
:102A20008093F9010C945915E6E6FFE30E947C1BA4
:102A30000E949D1D11F00C9435157091FF02706875
:102A40007093FF02E6E1F3E0A5E9B6E00E944B1DBA
:102A5000EEE6FFE30E947C1B0E947C170E94831716
:102A600080E08093F9010C945915EAE7FFE30E9496
:102A70007C1B0E949D1D11F00C9456157091FF0255
:102A800070687093FF02E6E1F3E0A5E9B6E00E940A
:102A90004B1DEEE6FFE30E947C1B0E947C170E9408
:102AA000831780E08093F9010C94591582E080939C
:102AB000F9010091F901003018F011F00C94621541
:102AC0000C947015EEEEFAE20E947C1BA9EFB1E0C7
:102AD0008C9199270E944D1BA0E3B1E00E94111B2D
:102AE000A0E3B1E00E9476170E94831708954F4B30
:102AF00000436F6D616E646F206E6F207265636F4F
:102B00006E6F6369646F004C6F6E676974756420E3
:102B1000636F6D616E646F206E6F2076616C6964A7
:102B200061004E756D65726F206465207061726121
:102B30006D6574726F206E6F2076616C69646F00D2
:102B40004E756D65726F20646520706172616D6590
:102B500074726F7320696E76616C69646F00457280
:102B6000726F72206C6F6E67697475642070617229
:102B7000616D6574726F2031004572726F72206CE6
:102B80006F6E676974756420706172616D657472CF
:102B90006F203200506172616D6574726F206E6FCC
:102BA0002076616C69646F004552524F523800457F
:102BB00052524F522053442E20496E74656E7465F4
:102BC000206465206E7565766F00000000000300CC
:102BD00000003300000033030000333300003333C0
:102BE000030033C00C00FF0FFF0F5555555533330D
:102BF0003333777777770C00FCFFCC00FCFFCC0CED
:102C0000FCFFCCCCFCFF0C00FCFFF0FFFFFF0E94A0
:102C10005303EEE1F1E40E947C1B0E947C170E94AA
:102C2000831782E08093EC02AFEFB2E08C9187FBD8
:102C300016F00C942E167091FF027F777093FF02AE
:102C4000E4E3FFE30E947C1B0E947C17A5E9B6E049
:102C50000E9476170E9483170E949F0F0091FE0228
:102C6000013011F00C9488167091FE027E7F7093F3
:102C7000FE02AEEEB2E08C918F5F8C93AEEEB2E0CE
:102C80000C9145E00E94871D8C930091EE0200306C
:102C900011F00C948816A0E3B1E0E4E3F1E40E94A3
:102CA0007C1B0E94111BA0E3B1E00E94971DAFE1C5
:102CB000B1E08D9388278C93AFE1B1E0ED91FC9169
:102CC000A0E3B1E00E94D51DA2E4B2E00D931D93F4
:102CD0002D933D93A0E3B1E00E946D17EEE4FFE376
:102CE0000E947C1B0E94111BE2E4F2E0A0E3B1E031
:102CF0000E946D170E94231DEAE3FFE30E947C1BE4
:102D00000E947C17A0E3B1E00E9476170E9483170F
:102D1000A7E4B2E08C9186FB16F00C94141681E0C7
:102D20008093EC02AFEFB2E08C9187FB16F00C942D
:102D3000AC167091FF027F777093FF02E4E3FFE32C
:102D40000E947C1B0E947C17A5E9B6E00E947617C2
:102D50000E9483170E949F0F81E080931C010091C5
:102D60001C01043018F011F00C94161700911C018E
:102D700041E0041BADE1B1E00C9380911D01ADEF8A
:102D8000B2E00E946B1B0E94611B0C9008226894A9
:102D900009F4E89416F00C940E1780911D01ADEF24
:102DA000B2E00E946B1B0E94611B8C9189238C9363
:102DB00000911C01013011F00C94EA16ECE3F1E4EF
:102DC0000E947C1B0E947C170E9483170E94B50BF7
:102DD0000C940E17023011F00C94FA16E2E4F1E4B0
:102DE0000E947C1B0E947C170E9483170E94650D25
:102DF0000C940E17033011F00C940817E8E4F1E47A
:102E00000E947C1B0E947C170E9483170C940E1753
:102E1000043011F00C940E170E946705ACE1B1E08C
:102E20008C918F5F8C9310F40C94AF16A7E4B2E0F2
:102E30008C9184FB16F00C942417709147027F7ECE
:102E4000709347020E94EA050C949216ED91FC9152
:102E5000EF5FFF4FFC93EE93089509D00E94E41AB0
:102E600000FC10D0089503D01ED001F8F9CF002443
:102E7000E89457FF02C009D0689400F80BD010F80E
:102E80000124089502D009D00895509540954F5FD0
:102E90005F4F0895E89417FF0895009510950F5F10
:102EA0001F4F68940895352F242FE894452B11F473
:102EB00068940895512F402F0027112780E1440F77
:102EC000551F001F111F021B130B416018F4020F46
:102ED000131F4E7F8A9599F708958F938D918823BC
:102EE000E9F711978F910895A0E8BFE38D918823AA
:102EF00011F00CD0FBCF08950E94171B802D11F00C
:102F000005D0FACF08958DE001D08AE00090C0008E
:102F100005FEFCCF8093C60008950090C80005FE12
:102F2000FCCF8093CE00089500FC05D0089530D0EA
:102F300005D001F8F9CF37D03FD00895842F952FD1
:102F4000A62FB72FE894452B462B472B11F46894F6
:102F50000895402F512F622F732F0027112722270A
:102F60003327F0E2440F551F661F771F001F111F04
:102F7000221F331F081B190B2A0B3B0B416028F43F
:102F8000080F191F2A1F3B1F4E7FFA9559F7089506
:102F90000024E89477FF02C006D0689400F809D0B6
:102FA00010F80124089512D04F5F5F4F6F4F7F4F8D
:102FB0000895E89437FF0895009510952095309571
:102FC0000F5F1F4F2F4F3F4F6894089540955095C6
:102FD0006095709508953197F1F70895689462F8B7
:102FE0000895E89462F80895EF93FF93EE27E82B95
:102FF000E92B31F0E0EAFFE03197F1F70197D1F7E3
:10300000FF91EF9108958DE207FD8D938F2D881F1D
:10301000802F881F8F57082F6894F7F8802F87FF1D
:1030200017C080958395082F80E38D938EE28D9352
:10303000802F815238F080E38D9399279C930E94D2
:10304000711B089544270A95802F09F19ED01FC057
:10305000805230F09EE49D9381E48D939D93EDCF5B
:103060004427DF92EF92FF920F938FE1801B11F0C4
:10307000082F8BD091D09EE29D930F91FF90EF90FF
:10308000DF9044270395003209F4D5CF33D03F9326
:10309000EAE2F1E30E947C1B38E12F2D1E2D0D2D5D
:1030A000FF24EE24DD244427000F111F221FB8F453
:1030B0002F923F920E94171B102C0E94171B202C4E
:1030C0000E94171B302C0E94171B31970E94461B31
:1030D000410DD21CE31CF01C3F902F9003C033968F
:1030E0000E943F1B31960E943F1B3A95E9F63F91A3
:1030F00007D0A5CFDD0CEE1CFF1C0A95D9F708956B
:10310000002719E058D08F93802B11F0039501C050
:103110008F911A95B9F7802F882309F48CCF8F915E
:10312000805D8D930A95D9F788CF0065CD1D80B25B
:10313000E60E40597307A0ACB90350D6DC01286BEA
:10314000EE0094357700CA9A3B0065CD1D00B2E6CB
:103150000E0059730700ACB90300D6DC01006BEE1A
:103160000000357700009A3B0000CD1D0000E60E00
:10317000000073070000B9030000DC010000EE004E
:103180000000770000003B000000F694E794D7941D
:1031900047950A95D1F7089500270DD08F93039591
:1031A0008F2D8E298D29842BC1F78F91805D8D9372
:1031B0000A95D9F742CF1F930F93002710E2440FCF
:1031C000DD1CEE1CFF1C001F802F9AE0890B10F005
:1031D000082F43951A9599F7802F0F911F91089505
:1031E000082748E01695079510F4122701254A95FF
:1031F000C9F7089531E005C032E003C033E001C0F3
:1032000034E00FEF1FEF20EA91E0192EE9DF46D0FE
:103210008991682FE5DF42D08991E2DF3FD0899123
:10322000DFDF3CD05991613078F0653068F4882751
:10323000D7DF34D0852F869509F481E0D1DF2ED0F9
:10324000802F2CD0812F2AC0663041F49D918C9123
:10325000C7DF24D0892FC4DF21D0F2CF6031E9F459
:103260008827BEDF1BD0852F869509F481E0682F63
:10327000B7DF14D0862F880FB3DF10D0513019F488
:1032800088279D9102C09D918D91AADF07D0892F3B
:10329000A7DF04D06A95B9F7D3CF0895313011F480
:1032A0000C948617323011F40C948D170895A6E013
:1032B000B1E0E3E0F1E00E94A41933970C94801987
:1032C000E6E0F1E0A3E0B1E00C949219EFE0F1E068
:1032D000A0E0B1E00C946E19ADE0BB278681978128
:1032E0000E948D1B0D93838194810E948D1B0D93F1
:1032F000808191810E948D1B0D930895EDE0FF2741
:1033000082810E94821B8AE38D9381810E94821BAD
:103310008AE38D9380810E94821B88278C93089575
:10332000ADE0BB27808191810E948D1B0D9383812D
:1033300094810E948D1B0D93868197810E948D1B25
:103340000D930895EDE0FF2780810E94821B8FE29C
:103350008D9381810E94821B8FE28D9382810E94D6
:10336000821B88278D93089521D00F2D06950695F1
:103370000F0D0D0D8F2D837021F41E2D13300AF4C7
:103380000A958E2D8A959927E0EAF3E30E947C1B2B
:10339000A8E1BB270E94331B080F47E00C94871D50
:1033A00005010104060204000305010393E0ADE0FA
:1033B00002C096E0AAE0B0E08FB7F89401910D93B7
:1033C0009A95E1F78FBF08950191119145EB55E072
:1033D0000E943317440F440FF42E0F31150728F4C1
:1033E00081E0E82E0395D02E24C00C33150728F475
:1033F00082E0E82E0E51D02E1CC00150150B4DE678
:1034000051E00E945317F40E7CE07A95872F99279C
:10341000E4E3F4E30E947C1BA2E1BB270E942D1B86
:103420000217130790F37395E72E021B130B0395F6
:10343000D02E089500001F003B005A00780097002E
:10344000B500D400F300110130014E01019111913A
:103450002191308140E851E561E070E00E949717CA
:10346000042F152F0C94E619A1DF0E2D0A95802F3D
:103470000295003220F01F2D137009F40395DA94A1
:103480000D0D11279927ECE9F4E30E947C1BA8E1BC
:10349000BB270E94331B080F111F0895000F1B2A22
:1034A000384755647381909E81DF0F2D11274CE3BF
:1034B00055270E942D1755270E0D151F4CE3222767
:1034C0003327662777270E94EE1A0D0D131F231F3F
:1034D00008956CDFDF92EF92FF920F2D11272227C4
:1034E00033274DE651E060E070E00E94EE1AFF9055
:1034F0004F2D4D5F469546955527662777270E94A5
:103500007E1CEF90DF900F931F932F933F930E94A9
:10351000351A222733277F916F915F914F910C9439
:103520007E1C47DFAF92BF92CF920E946A1A40E89A
:1035300051E561E070E00E94EE1AFF90EF90DF909D
:103540000F931F932F933F930E94551A7F916F9172
:103550005F914F910C947E1C0191119121913081CA
:1035600040E851E561E070E00E9497170C94BC1AA6
:10357000019111912191308140E15EE060E070E0C5
:103580000E949717F42E4CE350E00E943317E42E6C
:10359000D02E0895AF93BF930E94AC1ABF91AF9104
:1035A0000C947E19AF93BF930E94261ABF91AF91DE
:1035B0000C94A21941E2FF2747BF8491089501911D
:1035C00011912191308108950F92B801469F800199
:1035D000479F100D569F100D0F9008950F921F9248
:1035E0002F92C801D901489F80014A9F90014B9FAB
:1035F000202C499F100D211D321D5A9F202C589FB1
:10360000100D211D321D599F200D311D689F200D69
:10361000311D699F300D789F300D2F901F900F90B6
:1036200008950E94171B0D920020D9F70895D89590
:10363000319628F48F938BB783958BBF8F910020A1
:10364000089591E005C092E003C094E001C098E0C5
:10365000EEDF0D929A95E1F70895880F991FE80F14
:10366000F91F0DD0F0CFE80FF91F09D0EACF880F6E
:10367000991F880F991FE80FF91F01D0E6CF28F492
:103680008F938BB783958BBF8F91089528F48F9379
:103690008BB78A958BBF8F9108950196019721F082
:1036A0000E94171BE9F7FACF0895819104D08D93FA
:1036B0008823D9F70895813618F08B3708F48F7D69
:1036C000089591E0882321F08894991F8A95E9F75D
:1036D000892F90950895883018F011968850FBCF67
:1036E00008950F9200240BBE0F9008950F9301E0F0
:1036F0000BBF0F91889408950F930027F9CF0F9374
:1037000002E0F6CF00278A3018F08A500395FBCFED
:10371000005D0D93805D8D93089580539053002735
:10372000813018F0065F8A95FBCF090F0895AF939B
:10373000BF930F939F938F938FB78F93A0E0B1E0C8
:103740008C9183958D938C3309F03DC088278E939F
:1037500011968C9183958D938C3309F034C0882712
:103760008E9311968C9183958D93883161F588277E
:103770008E9311968C9183958D939C910EE194304C
:1037800089F0963079F0993069F09B3059F00CE16E
:10379000923039F411969C911197937019F4039516
:1037A00001C00FE1801778F071F081E08E931196DF
:1037B0008C9183958D938D3031F481E08E931196A9
:1037C0008C9183958C938F918FBF8F919F910F9147
:1037D000BF91AF910F921F922F923F924F925F92A3
:1037E0007F92AF92BF920F931F932F933F934F936C
:1037F0005F936F937F938F939F93AF93BF93CF9379
:10380000DF93EF93FF938FB78F938BB78F938827B7
:103810008BBF0E94D4028F918BBF8F918FBFFF917E
:10382000EF91DF91CF91BF91AF919F918F917F9158
:103830006F915F914F913F912F911F910F91BF9089
:10384000AF907F905F904F903F902F901F900F9080
:10385000189599278D9193958823E1F79395119663
:103860008C9311978E919A95D1F70895EA2FFB2F9B
:1038700000244C918D9103948E32E1F711248D91A7
:1038800013948823E1F71A94101640F41197202F0F
:103890002119239580E38D932A95E9F7113039F5A5
:1038A0009927AE2FBF2FA00DB91FA00FB91F8C9164
:1038B0009C93853308F421C031E08E918E32E9F378
:1038C0008D3241F0830F8A3319F480E331E001C077
:1038D00033278C93AE1789F7332341F0AE2FBF2FD8
:1038E000B8DF81E34D3209F431968083089588274B
:1038F000E00DF81FE00FF81F80830895040F151FD7
:10390000261F371F0895041B150B260B370B089530
:1039100004171507260737070895000F111F221FE8
:10392000331F089500951095209530950F5F1F4F18
:103930002F4F3F4F0895019110810FC00E94DF1A51
:103940000EC00E94DF1A10C00191108117FF05C040
:103950003FEF2FEF04C0008111272227332737FFC5
:1039600003C0E0DF8DE28D93CF92DF92EF92AA2425
:10397000BB24CC24DD24EE2440E2EAE0FF2755E01E
:1039800093E38081890F87FD9F7083FD907F891B62
:1039900081935A95A9F7C1DFAA1CBB1CCC1CDD1C66
:1039A000EE1C4A9551F7E894EFE0FF2782910BD087
:1039B000EB30E0F71EF068948A2D09D04D93EF901C
:1039C000DF90CF900895982F829501D0892F8F7026
:1039D000805D26F0803309F4089568948D930895EE
:1039E00000271127222733271DD08A3328F480335C
:1039F00018F005D015D0F9CF0EF494CF0895805368
:103A00008F93402F512F622F732F87DF86DF76DF52
:103A100084DF8F919927080F191F291F391F0895D7
:103A20008D910895E894FCDF8032E9F38B32D9F36D
:103A30008930C9F38D3211F46894F2CF089541E0D2
:103A400003C042E001C044E0E40F8827F81F8291E0
:103A5000982F829506D0892F04D04A95C1F70C94EF
:103A6000481D8F708A3008F0895F805D8D930895BE
:103A700041E0E40F8827F81F829138E098E1880F31
:103A8000991F9D933A95D1F74A95B1F70C94481D2B
:103A900088278D93089581918D938823E1F7089568
:103AA00094E081918D939A95E1F708950991919110
:103AB000992359F08A95D9F73197002331F08191F4
:103AC0008D930A958823C9F70895E2CFF999FECF1F
:103AD000E1BDF2BD3196089591E001C092E07B37DF
:103AE00051F47FB7F894F2DF8D9180BDFA9AF99A7C
:103AF0009A95C9F77FBF7727089591E001C092E0BA
:103B0000E5DFF89A80B58D939A95D1F70895FF93E4
:103B1000881BF9E0001FFA9511F4FF910895881FA2
:103B2000841B18F4840F8894F5CF0894F3CF8FEF9B
:103B300083959D919923E1F70895689401C0E894D5
:103B4000AF93BF938D9116F0919103C00E94171B04
:103B5000902D891718F011F48823A1F7BF91AF9128
:103B600008950D919981903009F013D0502788E085
:103B7000440F551F10F4422753278A95C9F73197F0
:103B800081F789919991803019F08A0105D0A801B7
:103B9000089588E0112701C080E108011694079478
:103BA000001F111F8A95D1F708950FEF1FEF2FEF18
:103BB0003FEF60E273E888EB9DEE0D90002548E052
:103BC0008894379527951795079520F4062717278A
:103BD000282739274A95A1F7319779F7009510954D
:103BE000209530950895689401C0E8942227102FFD
:103BF000231709F4089526F40E94171B802D01C095
:103C00008191803081F0891741F070E08D931A9591
:103C100091F7239571E01D93EACF01D0E8CF703082
:103C200011F077270895772331F42395882713958A
:103C30008D931A95E9F70895B7FE089590E8B9169F
:103C400011F4D0FE08959FEFD91AE90AF90A09F490
:103C500003950895D190E190F190019108952191FB
:103C60003191419151910895502F2D2D3E2D4F2D81
:103C7000612F0895652F90E8440F551F5927990F1C
:103C800047956078102F90E8FF0C001F0927990FC7
:103C9000F794107800380895FF0C90E89027110FE2
:103CA0009795F794092F08951127BD2CDE2CEF2C42
:103CB000F02E0EE1FF2039F4FE2CED2CDB2CBB2482
:103CC0000850C2F752C032F00A95BB0CDD1CEE1C46
:103CD000FF1CF9CFB1DFE0CF2DEC3CEC4CEC5DE309
:103CE00066270FC0B7DFC0DFDD24EE2490E8F92E91
:103CF0000FE307C0B4DF05C02227332740E251E4B9
:103D00006627552351F1002381F1B4DF71F11627A5
:103D1000005850580894050B18F407FD03C025C03F
:103D200007FD23C0469537952795F694E794D794D9
:103D300022D0FF202AF0DD0CEE1CFF1C015073F096
:103D40009D2D969548F0DD203AF4EE202AF491E07E
:103D5000D90E9927E91EF91E9FCF07C09FE7092FAB
:103D6000F92A9FEFD92EE92E0895DD24EE24FF24B1
:103D70000027112708959F929924AA24BB2488E143
:103D8000D216E306F40628F0D21AE30AF40A0894DD
:103D900001C08894991CAA1CBB1CDD0CEE1CFF1CE6
:103DA0008A9571F7D92CEA2CFB2C9F9008950E94DC
:103DB000171B202D0E94171B302D0E94171B402D12
:103DC0000E94171B502D08950000C84230372F3035
:103DD000312F3235000031313A32383A303000007C
:103DE0002A2A2A2A2A2A2A2A2A2A2A2A20454D45E4
:103DF0005445522032303235202A2A2A2A2A2A2AA9
:103E00002A2A2A2A2A0032312D30312D32303235F9
:103E10002031323A30373A323500302E302E3634B7
:103E2000000042432E4241530000417574003D00A2
:103E30002C204F46460049447365723C00003E000A
:103E4000556C74696D6120414354434C4B20000014
:103E50002C00454E414255473D004944536C617624
:103E6000653E0000547279200000545820005054E0
:103E7000524D44423D005670733D00004970733D01
:103E8000000050777270733D0000507772696E3D8C
:103E90000000566261743D004962617463683D00D0
:103EA0005077726263683D005077726F75743D00A1
:103EB000566C6F61643D0000496C6F61643D0000A9
:103EC0005077726C6F61643D000054656D70626183
:103ED000743D000054656D70636173653D00546509
:103EE0006D70636F6D703D00426174736F633D0070
:103EF000524547204D4442204445433D00002C207C
:103F00004845583D00002C204445433D00004352A5
:103F100043206661696C20656E20414444523D0037
:103F200045737065726120525049200052504974A7
:103F3000783E0000534552313D002400545841550D
:103F40005433203B0000412C00002D33000026009C
:103F5000545841555434203B00002D3400004F4B41
:103F60000000455252005345544D424400004E4516
:103F700057204D444320434D440053455444414150
:103F800000004E6F20636D642076616C00004C452C
:103F900045564657000056657273696F6E20465746
:103FA0003A204665636861203C003E2C20417263E4
:103FB0006869766F203C00005345544C454400002E
:103FC000536520636F6E66696775726120736574EF
:103FD0006C65642061200000525354564152000029
:103FE00056616C6F72657320706F722064656661D4
:103FF000756C7400534554434C4B00003A00543EDA
:1040000000002F00443E00005741544348494E47AA
:1040100020494E464F524D412E20536520636F6E0E
:1040200066696775726F2072656C6F6A20656E20B5
:10403000000020612000534953434C4B0000486F5F
:1040400072612061637475616C3D00002C204665CF
:104050006368612061637475616C3D004C45454344
:104060004C4B0000556C74696D61204143542043F2
:104070004C4B2061203D00002C2064656C2000002A
:104080005345544155540000536520636F6E666973
:104090006775726F20747820415554200000534595
:1040A000544F464600004C45454155540000547855
:1040B0002041757420004C45454F464600004F6630
:1040C000667365742041757420005345544E4557FE
:1040D000000053652061637469766F2054782E2048
:1040E0004155542000005345544255470000536544
:1040F00020636F6E66696775726F20454E41425549
:10410000473D00004C454542554700004C4545524F
:1041100049440000494420736572203C0000457307
:104120007065726120434C4B2064656C205365724E
:1041300076657200414354434C4B00004155543165
:0E414000000041555432000041555433000038
:00000001FF
