:100000000C94460018950000189500001895000003
:10001000189500001895000018950000189500002C
:100020001895000018950000189500000C944B1CC2
:10003000189500001895000018950000189500000C
:1000400018950000189500000C94F5011895000013
:100050000C94B90018950000189500001895000040
:1000600018950000189500001895000018950000DC
:100070000C949C011895000018950000189500003C
:100080001895000018950000189500008FEF8DBF9F
:10009000C0E8E8E94E2E80E48EBFD0E4FFE35F2E97
:1000A000A89584B7082E882784BF88E19927809374
:1000B000600090936000EEEFFFE3A0E0B1E08827DE
:1000C0008D933197E9F787E68093C40080E08093B1
:1000D000C50088E18093C1006624209A25982D9A56
:1000E00085E085BD80E084BD70916E007160709385
:1000F0006E0085E085BD80E28093B60085E0809348
:10010000B10070917000716070937000A6E0B1E072
:10011000EEE3FFE30E94301C0E94C11B0E940E1AF6
:10012000AFE0B1E0E8E4FFE30E94301C0E94C11B95
:100130000E94141A7091C10070687093C10083E32B
:100140008093CC0080E08093CD007091C8007D7FCB
:100150007093C80087E08093CA0088E18093C9004B
:10016000229A7091C90070687093C90078940C94B9
:100170001E160F921F922F923F924F925F927F9284
:10018000AF92BF920F931F932F933F934F935F9321
:100190006F937F938F939F93AF93BF93CF93DF938F
:1001A000EF93FF939FB79F939BB79F9399279BBF15
:1001B000A9EAB6E08091C6008C9384E2482F0091B2
:1001C000A906041711F00C94F000709114037068E4
:1001D00070931403A0EEB5E088278C930C947E01F5
:1001E00085E2482F041711F00C940101709114035B
:1001F000706270931403A4E7B7E088278C930C9483
:100200007E010D3011F00C944501A4E1B3E08C9116
:1002100087FB16F00C942401709114037F77709380
:10022000140380E0A0EEB5E00E941B188D93882790
:100230008C93E0EEF5E0AAEAB6E00E94FF1D709113
:100240001403706470931403A4E1B3E08C9185FBF4
:1002500016F00C944301709114037F7D7093140386
:1002600080E0A4E7B7E00E941B188D9388278C9349
:10027000E4E7F7E0A1E0B8E00E94FF1D70911403ED
:100280007061709314030C947E010F3118F011F01B
:100290000C944C010C947E01A4E1B3E08C9187FB9B
:1002A00016F00C945D01A9EAB6E08C91A0EEB5E0E1
:1002B0000E941B188D9388278C93A4E1B3E08C9146
:1002C00085FB16F00C947E01A9EAB6E08C91A4E7B8
:1002D000B7E00E941B188D9388278C93A4E7B7E0A2
:1002E0000E944B1E082F0C3818F011F00C947A0164
:1002F0000C947E01A4E7B7E088278C939F919BBF65
:100300009F919FBFFF91EF91DF91CF91BF91AF91EF
:100310009F918F917F916F915F914F913F912F911D
:100320001F910F91BF90AF907F905F904F903F9043
:100330002F901F900F9018950F921F922F923F921F
:100340004F925F927F92AF92BF920F931F932F9322
:100350003F934F935F936F937F938F939F93AF934D
:10036000BF93CF93DF93EF93FF939FB79F939BB779
:100370009F9399279BBFAEE8B8E08091CE008C9305
:10038000A4E1B3E08C9183FB16F00C94D701A4EBAD
:10039000B2E08C918F5F8C9380918E08A4EBB2E0D9
:1003A000AD90BB24AEE8B8E0AA0DBB1D8C939F9125
:1003B0009BBF9F919FBFFF91EF91DF91CF91BF9125
:1003C000AF919F918F917F916F915F914F913F91ED
:1003D0002F911F910F91BF90AF907F905F904F90A2
:1003E0003F902F901F900F9018950F921F922F9271
:1003F0003F924F925F927F92AF92BF920F931F9363
:100400002F933F934F935F936F937F938F939F931C
:10041000AF93BF93CF93DF93EF93FF939FB79F93D8
:100420009BB79F9399279BBF74E676BDABEFB2E075
:100430008C918F5F8C93ABEFB2E00C9148E00E94FF
:100440003B1E8C930091FB02003011F00C94610272
:10045000ACEFB2E00C9140E20E943B1E8C93E8EFBF
:10046000FBE20E94301CA1E0B3E08C919927ADEF34
:10047000B2E00E94E71B8091FC02ADEFB2E00E9467
:100480001B1C0E94111C0C900822689409F4E8942B
:10049000A7E4B2E08C9182F98C93A7E4B2E08C914E
:1004A00094E089278C93A7E4B2E08C9182FBA5E2CB
:1004B000B0E08C9180F98C93ACEFB2E08C918F5FBF
:1004C0008C93A4E1B3E08C9183FB16F00C948C0226
:1004D000ACEBB2E00E94D417ACEBB2E00D911C91F2
:1004E00040EA50E00E940118ACEBB2E00D931C937F
:1004F000ACEBB2E00D911C91003050E0150711F00B
:100500000C948C0270911403777F70931403709194
:100510004702786070934702A7E4B2E08C9180FBB9
:1005200016F00C94AB02A4E0B3E00E94D417A6E04E
:10053000B3E04D915C91A4E0B3E00D911C910417E0
:10054000150711F00C94A902709147027260709324
:1005500047020C94B10280E090E0A4E0B3E08D93F8
:100560009C939F919BBF9F919FBFFF91EF91DF91C4
:10057000CF91BF91AF919F918F917F916F915F913B
:100580004F913F912F911F910F91BF90AF907F900E
:100590005F904F903F902F901F900F901895E0E044
:1005A000F1E00E943F1BAAE0B3E00D931D932D9351
:1005B0003D9381E08093080300910803063018F012
:1005C00011F00C9448030091080341E0041BA9E0DA
:1005D000B3E00C93AAE0B3E00D911D912D913C91F5
:1005E000A8E0B3E0AD90BB24A4E6B2E0AA0CBB1C2B
:1005F000AA0CBB1CAA0DBB1D4D915D916D917C9108
:100600000E94371DAEE0B3E00D931D932D933D93F3
:10061000AEE0B3E00D911D912D913C91A8E0B3E0C7
:10062000AD90BB24ACE4B2E0AA0CBB1CAA0CBB1C72
:10063000AA0DBB1D4D915D916D917C910E94451855
:10064000AEE0B3E00D931D932D933D9340E050E059
:1006500060E070E0AEE0B3E00D911D912D913C9112
:100660000E943C1D11F00C94400380910903A2E10B
:10067000B3E00E941B1C0E94111C9C91982B9C9320
:10068000A8E0B3E08C918F5F8C9310F40C94DC02A3
:100690007091130371607093130308952898E2E535
:1006A000FFE30E94301C0E942A180E943118A0E823
:1006B000BFE3E8E7FFE30E94301C0E94C11B0E94D9
:1006C00022180E943118A0E8BFE3ECE8FFE30E9483
:1006D000301C0E94C11B0E9422180E943118A0E801
:1006E000BFE3E4E9FFE30E94301C0E94C11B0E94AB
:1006F00022180E94311881E08093010381E08093E9
:10070000190100911901063018F011F00C9414042D
:10071000E9E1F1E0A190BB24EEEFFFEFAA0CBB1CD6
:10072000AA0CBB1CEA0DFB1DA9E1B1E0AD90BB24F6
:10073000ACE4B2E0AA0CBB1CAA0CBB1CAA0DBB1DEE
:1007400094E00E94341EE9E1F1E0A190BB24E6E1CF
:10075000F0E0AA0CBB1CAA0CBB1CEA0DFB1DA9E116
:10076000B1E0AD90BB24A4E6B2E0AA0CBB1CAA0C7D
:10077000BB1CAA0DBB1D94E00E94341EE0EAFFE3FF
:100780000E94301C0E942A18E9E1F1E0A0E8BFE3D2
:100790000E945F1D0E942218E4EAFFE30E94301CC1
:1007A0000E942A18E9E1F1E0A190BB24ECE4F2E018
:1007B000AA0CBB1CAA0CBB1CEA0DFB1DA0E8BFE3E6
:1007C0000E94521D0E942218E6EAFFE30E94301C9C
:1007D0000E942A18E9E1F1E0A0E8BFE30E945F1D52
:1007E0000E942218E4EAFFE30E94301C0E942A18AB
:1007F000E9E1F1E0A190BB24E4E6F2E0AA0CBB1C25
:10080000AA0CBB1CEA0DFB1DA0E8BFE30E94521D11
:100810000E9422180E943118A9E1B1E08C918F5FEB
:100820008C9310F40C9481030E94A104ECEAFFE382
:100830000E94301C0E942A18A0E8B2E00E942418EE
:10084000E4EBFFE30E94301C0E942A180E9431183A
:10085000E2E3F0E0ADEAB2E094E00E94341EE6EBA1
:10086000FFE30E94301C0E942A18EDEAF2E0A0E8A3
:10087000BFE30E94801B0E942218E6ECFFE30E9467
:10088000301C0E942A18EDEAF2E0A0E8BFE30E94C3
:10089000781B0E9422180E943118E0E0F0E0A0E4EA
:1008A000B2E00E94311EE8ECFFE30E94301C0E947F
:1008B0002A18E0E4F2E0A0E8BFE30E945F1D0E9476
:1008C00022180E943118E1E0F0E0A1E4B2E00E94B9
:1008D000311EE0EDFFE30E94301C0E942A18E1E483
:1008E000F2E0A0E8BFE30E945F1D0E9422180E9470
:1008F0003118E6E3F0E0A9EFB2E00E94331EA9EF61
:10090000B2E00D911C910F5F1F4FA9EFB2E00D9364
:100910001C93E6E3F0E0A9EFB2E07BE70E94221E21
:10092000EAEDFFE30E94301C0E942A18E9EFF2E092
:10093000A0E8BFE30E944F1D0E9422180E943118B8
:10094000089580E08093190180E080931A01A0E867
:10095000B2E088278C938EE08093190100911901F1
:10096000073118F011F00C94CC04A9E1B1E0EC913E
:10097000FF270E94881B082FE0E1F0E0A0E8B2E02A
:100980000E941B180E94D31DA9E1B1E08C918F5FDA
:100990008C9310F40C94AE04E0E8F2E0A0E3B1E034
:1009A0000E94FF1DA0E8B2E088278C938EE0809320
:1009B000190100911901073118F011F00C94F70496
:1009C000A9E1B1E0EC91FF270E94881B082FE0E12C
:1009D000F0E0A0E8B2E00E941B180E94D31DA9E13C
:1009E000B1E08C918F5F8C9310F40C94D904E0E308
:1009F000F1E0A0E8B2E00E94531E11F00C94030550
:100A000081E080931901AAE1B1E08C918F5F8C9312
:100A100000911901003011F00C94220584EF91E04F
:100A20000E94A218E4EEFFE30E94301C0E942A18E4
:100A3000EAE1F1E0A0E8BFE30E945F1D0E942218F6
:100A40000E94311800911901013081E009F080E025
:100A50008F9300911A010A3081E009F080E09F91A4
:100A6000892B882311F40C94A704089500E010E06A
:100A700020E030E0A1E2B1E00D931D932D933C9373
:100A800081E08093190100911901063018F011F0EE
:100A90000C948C05E9E1F1E0A190BB24EEEFFFEFAF
:100AA000AA0CBB1CAA0CBB1CEA0DFB1D0CE211E03E
:100AB00020E030E0A0E1BB2794E07BE70E94231E0A
:100AC000E9E1F1E0A190BB24E6E1F0E0AA0CBB1C57
:100AD000AA0CBB1CEA0DFB1DA1E2B1E094E07BE790
:100AE0000E94231EA1E2B1E00D911D912D913C9138
:100AF0004CE350E060E070E00E94321DA1E2B1E002
:100B00000D931D932D933D93A9E1B1E08C918F5FDF
:100B10008C9310F40C944305E1E0F0E0A0E1BB27D6
:100B200081E08C937BE70E94201EEEE0F0E00AE07B
:100B300010E020E030E0A0E1BB2794E07BE70E94DA
:100B4000231E0895AEEBB2E08C918F5F8C93AEEBD9
:100B5000B2E00C9145E00E943B1E8C93E2E1FBE287
:100B60000E94301CAEEBB2E08C919927A2EBB2E070
:100B70000E94DD1BEAEEFFE30E94301C0E942A184F
:100B8000EEEBF2E0A0E8BFE30E945F1D0E94221896
:100B9000E0EFFFE30E94301C0E942A18E2EBF2E033
:100BA000A0E8BFE30E94D51D0E9422180E943118C0
:100BB00081E080931E0100911E01003418F011F0B5
:100BC0000C94F40580E0AEE1B1E0AD90BB24AEE85A
:100BD000B8E0AA0DBB1D8C93AEE1B1E08C918F5FA4
:100BE0008C9310F40C94DB0580E08093B402A0E4B5
:100BF000B2E00C9103FB16F00C941E06E8EFFFE345
:100C00000E94301C0E942A18E2EBF2E0A0E8BFE349
:100C10000E94D51D0E9422180E94311884E28A93F6
:100C2000A2EBB2E08D919C918A939A9383E08A9390
:100C3000809141020E94A8190E94311870911403FA
:100C40007860709314032A9A84E28A93A2EBB2E04C
:100C50008D919C918A939A9383E08A93809141022B
:100C60000E94AA19EF93FF93ECE6F7E10E9499180E
:100C7000FF91EF912A98709147027061709347023B
:100C80000895A0E4B2E00C9103FB16F00C949006DA
:100C9000ECEFFFE30E94301C0E942A18E4EBF2E024
:100CA000A0E8BFE30E945F1D0E942218E0EFFFE36F
:100CB0000E94301C0E942A18E2EBF2E0A0E8BFE399
:100CC0000E94D51D0E9422180E94311881E0809355
:100CD0001E014091B40200911E01041718F011F09A
:100CE0000C948E06EEE1F1E0A190BB24EEE8F8E072
:100CF000EA0DFB1DA0E8BFE30E94D31D0E9422184D
:100D0000E6ECFFE30E94301C0E942A18AEE1B1E03D
:100D10008C918F5F8C9310F40C9469060E943118AB
:100D20000091B40242E0041BA5EBB2E00C930091E9
:100D3000B50241E0040FA6EBB2E00C930091B602BD
:100D400041E0040FA7EBB2E00C9381E08A9381E0CD
:100D50008A93A5EBB2E0EC91FF274FEF5FEF25E020
:100D600030E8AFE8B8E00E94651EA8EBB2E04D9312
:100D70005C93A7EBB2E0AD90BB24AEE8B8E0AA0D5F
:100D8000BB1D9C91A6EBB2E0AD90BB24AEE8B8E0F1
:100D9000AA0DBB1D8C91AFE1B1E08D939C93AFE1A7
:100DA000B1E04D915C91A8EBB2E00D911C9104175C
:100DB000150711F00C94770AA7E4B2E08C9184FB3C
:100DC00016F00C940F0A0091BE02003011F00C9442
:100DD00083078091920880934F02809193088093BB
:100DE0004E028091940880934D02809195088093E3
:100DF0004C02E4E0F0E40E94301C0E942A18ECE46B
:100E0000F2E0A0E8BFE30E94551D0E9422180E9454
:100E100031188091960880934F02809197088093B3
:100E20004E028091980880934D028091990880939A
:100E30004C02ACE4B2E08D919C91AFEBB2E08D93AB
:100E40009C93EAE0F0E40E94301C0E942A18EFEB29
:100E5000F2E0A0E8BFE30E944F1D0E9422180E940A
:100E6000311880919A0880934F0280919B0880935B
:100E70004E0280919C0880934D0280919D08809342
:100E80004C02ACE4B2E08D919C91A1ECB2E08D9368
:100E90009C93EEE0F0E40E94301C0E942A18E1ECE2
:100EA000F2E0A0E8BFE30E944F1D0E9422180E94BA
:100EB000311880919E0880934F0280919F08809303
:100EC0004E028091A00880934D028091A1088093EA
:100ED0004C02ACE4B2E08D919C91A3ECB2E08D9316
:100EE0009C93E2E1F0E40E94301C0E942A18E3EC9B
:100EF000F2E0A0E8BFE30E944F1D0E9422180E946A
:100F000031180C940D0A013011F00C946108809195
:100F1000920880934F028091930880934E028091B3
:100F2000940880934D028091950880934C02EAE3E7
:100F3000FFE30E94301C0E94901FECE4F2E00E944C
:100F4000DE1E0E940D1F0E943A1FEDE0F0E0A9ECAA
:100F5000B2E00E94041EE6E1F0E40E94301C0E9410
:100F60002A18E9ECF2E0A0E8BFE30E94DE1E0E942E
:100F7000B1180E9422180E9431188091960880931F
:100F80004F028091970880934E0280919808809339
:100F90004D028091990880934C02EAE3FFE30E949E
:100FA000301C0E94901FECE4F2E00E94DE1E0E94C2
:100FB0000D1F0E943A1FEDE0F0E0ADECB2E00E94A0
:100FC000041EECE1F0E40E94301C0E942A18EDECB3
:100FD000F2E0A0E8BFE30E94DE1E0E94B1180E946A
:100FE00022180E94311880919A0880934F028091B4
:100FF0009B0880934E0280919C0880934D028091C3
:101000009D0880934C02EAE3FFE30E94301C0E949B
:10101000901FECE4F2E00E94DE1E0E940D1F0E9471
:101020003A1FEDE0F0E0A1EDB2E00E94041EE0E224
:10103000F0E40E94301C0E942A18E1EDF2E0A0E8E2
:10104000BFE30E94DE1E0E94B1180E9422180E9477
:10105000311880919E0880934F0280919F08809361
:101060004E028091A00880934D028091A108809348
:101070004C02EAE3FFE30E94301C0E94901FECE464
:10108000F2E00E94DE1E0E940D1F0E943A1FEDE05A
:10109000F0E0A5EDB2E00E94041EE4E2F0E40E945C
:1010A000301C0E942A18E5EDF2E0A0E8BFE30E94A0
:1010B000DE1E0E94B1180E9422180E9431180C9462
:1010C0000D0A023011F00C9413098091920880935C
:1010D0004B028091930880934A02809194088093F8
:1010E00049028091950880934802E8E4F2E0A9ED76
:1010F000B2E00E94041EE8E2F0E40E94301C0E946C
:101100002A18E9EDF2E0A0E8BFE30E94DE1E0E948B
:10111000B1180E9422180E9431188091960880937D
:101120004B028091970880934A028091980880939F
:1011300049028091990880934802ECE4F2E00E9411
:10114000DE1E0E940D1FADEDB2E00E94E81EE0E33E
:10115000F0E40E94301C0E942A18EDEDF2E0A0E8B5
:10116000BFE30E94DE1E0E94B1180E9422180E9456
:10117000311880919A0880934B0280919B0880934C
:101180004A0280919C088093490280919D08809337
:101190004802ECE4F2E00E94DE1E0E940D1FA1EE68
:1011A000B2E00E94E81EE6E3F0E40E94301C0E94D8
:1011B0002A18E1EEF2E0A0E8BFE30E94DE1E0E94E2
:1011C000B1180E9422180E94311880919E088093C5
:1011D0004B0280919F0880934A028091A0088093DF
:1011E00049028091A10880934802ECE4F2E00E9459
:1011F000DE1E0E940D1FA5EEB2E00E94E81EECE389
:10120000F0E40E94301C0E942A18E5EEF2E0A0E80B
:10121000BFE30E94DE1E0E94B1180E9422180E94A5
:1012200031180C940D0A033011F00C94C909809107
:10123000920880934F028091930880934E02809190
:10124000940880934D028091950880934C02ACE401
:10125000B2E00D911D912D913C91A9EEB2E00D935C
:101260001D932D933C93E2E4F0E40E94301C0E9415
:101270002A18E9EEF2E0A0E8BFE30E94551D0E94A3
:1012800022180E94311880919A0880934F02809111
:101290009B0880934E0280919C0880934D02809120
:1012A0009D0880934C02ACE4B2E00D911D912D910C
:1012B0003C91ADEEB2E00D931D932D933C93E8E489
:1012C000F0E40E94301C0E942A18EDEEF2E0A0E843
:1012D000BFE30E94551D0E9422180E943118809180
:1012E0009E0880934F0280919F0880934E028091C8
:1012F000A00880934D028091A10880934C02ACE439
:10130000B2E00D911D912D913C91A1EFB2E00D93B2
:101310001D932D933C93ECE4F0E40E94301C0E945A
:101320002A18E1EFF2E0A0E8BFE30E94551D0E94F9
:1013300022180E9431188091A20880934F02809158
:10134000A30880934E028091A40880934D0280915F
:10135000A50880934C02ACE4B2E00D911D912D9153
:101360003C91A5EFB2E00D931D932D933C93ECE3DC
:10137000F0E40E94301C0E942A18E5EFF2E0A0E899
:10138000BFE30E94551D0E9422180E9431180C9440
:101390000D0A043011F00C94050A80919208809394
:1013A0004F028091930880934E028091940880931D
:1013B0004D028091950880934C02EAE3FFE30E947E
:1013C000301C0E94901FECE4F2E00E94DE1E0E949E
:1013D0000D1F0E943A1FEDE0F0E0A5ECB2E00E9484
:1013E000041EE0E5F0E40E94301C0E942A18E5EC9F
:1013F000F2E0A0E8BFE30E94DE1E0E94B1180E9446
:1014000022180E9431180C940D0AE6E5F0E40E94BF
:10141000301C0E942A180E9431180C94750A009101
:10142000B402073011F00C94490A9091920880910F
:101430009308AAEBB2E08D939C93E2E6F0E40E945D
:10144000301C0E942A18EAEBF2E0A0E8BFE30E94F9
:101450004F1D0E942218E0E7F0E40E94301C0E9419
:101460002A18EAEBF2E0A0E8BFE30E94D51D0E9433
:101470002218E8E7F0E40E94301C0E942A18EAEBE8
:10148000F2E0A0E8BFE30E944F1D0E9422180E94D4
:1014900031180091B402083011F00C94750A909143
:1014A000930880919408AAEBB2E08D939C93E2E6B6
:1014B000F0E40E94301C0E942A18EAEBF2E0A0E857
:1014C000BFE30E944F1D0E942218E0E7F0E40E9453
:1014D000301C0E942A18EAEBF2E0A0E8BFE30E9469
:1014E000D51D0E9422180E9431180C948E0AA0E487
:1014F000B2E00C9103FB16F00C948E0AE0E8F0E4E5
:101500000E94301C0E942A18E2EBF2E0A0E8BFE340
:101510000E94D51D0E9422180E943118089580E073
:1015200080934602709147027F7770934702A6E44A
:10153000B2E08C918F5F8C93E2E9F0E40E94301C62
:101540000E942A18E6E4F2E0A0E8BFE30E945F1DD3
:101550000E9422180E94311884E690E0A6E0B3E0D1
:101560008D939C9380E090E0A4E0B3E08D939C93F6
:1015700070914702716070934702709147027D7FBE
:1015800070934702A4E1B3E08C9184FB16F00C94B5
:10159000DC0A709114037F7E70931403EEE9F0E48B
:1015A0000E94301C0E942A18A1E0B8E00E94241872
:1015B0000E9431180E94B50EA4E1B3E08C9186FB25
:1015C00016F00C94F60A709114037F7B7093140349
:1015D000E6EAF0E40E94301C0E942A18AAEAB6E06B
:1015E0000E9424180E9431180E943F0FA7E4B2E025
:1015F0008C9187FB81E00EF080E08F93A7E4B2E04E
:101600008C9181FB81E00EF080E09F91892B8823F3
:1016100011F40C94C20A709147027E7F70934702C6
:10162000A7E4B2E08C9187FB16F40C94230BECEA50
:10163000F0E40E94301C0E942A18A0E3B1E00E944E
:1016400024180E943118A7E4B2E08C9187FB81E056
:101650000EF080E08F9300914602033081E009F0A4
:1016600080E09F91892B882311F40C94970A709144
:1016700047027E7F70934702709147027F77709395
:1016800047020895EEEAF0E40E94301C0E942A18F6
:101690000E94051AAFE0B1E00E942418E6ECFFE3D7
:1016A0000E94301C0E942A180E94051AA6E0B1E090
:1016B0000E9424180E9431180E94051AE6E0F1E009
:1016C000A7E9B2E00E94FF1D0E94051AEFE0F1E0D9
:1016D000A2EAB2E00E94FF1DA0E3B1E0E8EBF0E473
:1016E0000E94301C0E94C11BE7E9F2E0A0E3B1E0D8
:1016F0000E941B180E94FF1DA0E3B1E00E941B186E
:10170000E6ECFFE30E94301C0E94C11BE2EAF2E01B
:10171000A0E3B1E00E941B180E94FF1DA0E3B1E00E
:101720000E941B18E6ECFFE30E94301C0E94C11BC4
:10173000E0E8F2E0A0E3B1E00E941B180E94FF1D68
:10174000A0E3B1E00E941B18ECEBF0E40E94301C17
:101750000E94C11BA0E3B1E00E941B18E6ECFFE36E
:101760000E94301C0E94C11BEFEBF2E0A0E3B1E04D
:101770000E941B180E944F1DA0E3B1E00E941B189D
:10178000E6ECFFE30E94301C0E94C11BE1ECF2E09A
:10179000A0E3B1E00E941B180E944F1DA0E3B1E03E
:1017A0000E941B18E6ECFFE30E94301C0E94C11B44
:1017B000E3ECF2E0A0E3B1E00E941B180E944F1D91
:1017C000A0E3B1E00E941B18E6ECFFE30E94301C8E
:1017D0000E94C11BE5ECF2E0A0E3B1E00E941B18FF
:1017E0000E94DE1E0E94B118A0E3B1E00E941B1807
:1017F000E6ECFFE30E94301C0E94C11BEDECF2E01E
:10180000A0E3B1E00E941B180E94DE1E0E94B118E6
:10181000A0E3B1E00E941B18E6ECFFE30E94301C3D
:101820000E94C11BE1EDF2E0A0E3B1E00E941B18B1
:101830000E94DE1E0E94B118A0E3B1E00E941B18B6
:10184000E6ECFFE30E94301C0E94C11BE5EDF2E0D4
:10185000A0E3B1E00E941B180E94DE1E0E94B11896
:10186000A0E3B1E00E941B18E6ECFFE30E94301CED
:101870000E94C11BA0E3B1E00E944B1EAFE1B1E0AA
:101880008D9388278C93AFE1B1E0ED91FC91A0E3BB
:10189000B1E00E94891EA2E4B2E00D931D932D9346
:1018A0003D93A0E3B1E00E941B18E0ECF0E40E943D
:1018B000301C0E94C11BE2E4F2E0A0E3B1E00E9410
:1018C0001B180E94D71DECEAF0E40E94301C0E9415
:1018D0002A18A0E3B1E00E9424180E9431180E9447
:1018E0008F0A0895E2ECF0E40E94301C0E942A184E
:1018F0000E94051AAFE0B1E00E942418E6ECFFE375
:101900000E94301C0E942A180E94051AA6E0B1E02D
:101910000E9424180E9431180E94051AE6E0F1E0A6
:10192000A7E9B2E00E94FF1D0E94051AEFE0F1E076
:10193000A2EAB2E00E94FF1DA0E3B1E0E8EBF0E410
:101940000E94301C0E94C11BE7E9F2E0A0E3B1E075
:101950000E941B180E94FF1DA0E3B1E00E941B180B
:10196000E6ECFFE30E94301C0E94C11BE2EAF2E0B9
:10197000A0E3B1E00E941B180E94FF1DA0E3B1E0AC
:101980000E941B18E6ECFFE30E94301C0E94C11B62
:10199000E0E8F2E0A0E3B1E00E941B180E94FF1D06
:1019A000A0E3B1E00E941B18ECECF0E40E94301CB4
:1019B0000E94C11BA0E3B1E00E941B18E6ECFFE30C
:1019C0000E94301C0E94C11BE9EDF2E00E94DE1E65
:1019D000A0E8BFE3AF93BF930E94B11811E002E00B
:1019E000BF91AF910E94EA1CE0E8FFE3A0E3B1E001
:1019F0000E941B180E94FF1DA0E3B1E00E941B186B
:101A0000E6ECFFE30E94301C0E94C11BEDEDF2E00A
:101A10000E94DE1EA0E8BFE3AF93BF930E94B118FF
:101A200011E002E0BF91AF910E94EA1CE0E8FFE301
:101A3000A0E3B1E00E941B180E94FF1DA0E3B1E0EB
:101A40000E941B18E6ECFFE30E94301C0E94C11BA1
:101A5000E1EEF2E00E94DE1EA0E8BFE3AF93BF9389
:101A60000E94B11811E002E0BF91AF910E94EA1C00
:101A7000E0E8FFE3A0E3B1E00E941B180E94FF1D15
:101A8000A0E3B1E00E941B18E6ECFFE30E94301CCB
:101A90000E94C11BE5EEF2E00E94DE1EA0E8BFE35B
:101AA000AF93BF930E94B11811E002E0BF91AF91D4
:101AB0000E94EA1CE0E8FFE3A0E3B1E00E941B18EB
:101AC0000E94FF1DA0E3B1E00E941B18E6ECFFE3BB
:101AD0000E94301C0E94C11BE9EEF2E0A0E3B1E0DD
:101AE0000E941B180E94551DA0E3B1E00E941B1824
:101AF000E6ECFFE30E94301C0E94C11BEDEEF2E019
:101B0000A0E3B1E00E941B180E94551DA0E3B1E0C4
:101B10000E941B18E6ECFFE30E94301C0E94C11BD0
:101B2000E1EFF2E0A0E3B1E00E941B180E94551D16
:101B3000A0E3B1E00E941B18E6ECFFE30E94301C1A
:101B40000E94C11BE5EFF2E0A0E3B1E00E941B1888
:101B50000E94551DA0E3B1E00E944B1EAFE1B1E031
:101B60008D9388278C93AFE1B1E0ED91FC91A0E3D8
:101B7000B1E00E94891EA2E4B2E00D931D932D9363
:101B80003D93A0E3B1E00E941B18E0ECF0E40E945A
:101B9000301C0E94C11BE2E4F2E0A0E3B1E00E942D
:101BA0001B180E94D71DECEAF0E40E94301C0E9432
:101BB0002A18A0E3B1E00E9424180E9431180E9464
:101BC0008F0A0895E0EDF0E40E94301C0E942A186C
:101BD0000E94051AAFE0B1E00E942418E6ECFFE392
:101BE0000E94301C0E942A180E94051AA6E0B1E04B
:101BF0000E9424180E9431180E94051AE6E0F1E0C4
:101C0000A7E9B2E00E94FF1D0E94051AEFE0F1E093
:101C1000A2EAB2E00E94FF1DA0E3B1E0E8EBF0E42D
:101C20000E94301C0E94C11BE7E9F2E0A0E3B1E092
:101C30000E941B180E94FF1DA0E3B1E00E941B1828
:101C4000E6ECFFE30E94301C0E94C11BE2EAF2E0D6
:101C5000A0E3B1E00E941B180E94FF1DA0E3B1E0C9
:101C60000E941B18E6ECFFE30E94301C0E94C11B7F
:101C7000E0E8F2E0A0E3B1E00E941B180E94FF1D23
:101C8000A0E3B1E00E941B18EAEDF0E40E94301CD2
:101C90000E94C11BA0E3B1E00E941B18E6ECFFE329
:101CA0000E94301C0E94C11BA3E2B0E08C9185FB16
:101CB000A0E3B1E00E941B180E94211C8D9388278D
:101CC0008C93A0E3B1E00E941B18E6ECFFE30E94B6
:101CD000301C0E94C11BE9EFF2E0A0E3B1E00E94DA
:101CE0001B180E944F1DA0E3B1E00E941B18EEEDEF
:101CF000F0E40E94301C0E94C11BA0E3B1E00E94EE
:101D00004B1EAFE1B1E08D9388278C93AFE1B1E03A
:101D1000ED91FC91A0E3B1E00E94891EA2E4B2E043
:101D20000D931D932D933D93A0E3B1E00E941B18EA
:101D3000E0ECF0E40E94301C0E94C11BE2E4F2E0FF
:101D4000A0E3B1E00E941B180E94D71DECEAF0E46A
:101D50000E94301C0E942A18A0E3B1E00E942418BF
:101D60000E9431180E948F0A0895E1E0F8E09BE399
:101D700004E132E2A6E1B3E00E94A91EA5E1B3E0CE
:101D80002C9300911503003018F011F00C94CA0E3A
:101D90000C94D20EE6E1F3E0A9E2B1E00E94FF1D4F
:101DA0000C94D80EE1E0F8E0A9E2B1E00E94FF1D3A
:101DB000A9E2B1E0E6EEF0E40E94301C0E94511E60
:101DC00011F00C94EA0E709147027068709347020C
:101DD0000C943E0FEAEEF0E40E94301C0E94511E6B
:101DE00011F00C94FA0E709147027F7770934702BE
:101DF0000C943E0FEEEEF0E40E94301C0E94511E47
:101E000011F00C94180F7091140370647093140304
:101E1000EBE2F3E0AAEAB6E00E94FF1DE6EFF0E491
:101E20000E94301C0E942A180E9431180C943E0F08
:101E3000E2E0F1E40E94301C0E94511E11F00C946B
:101E4000360F70911403706470931403EBE2F3E0A7
:101E5000AAEAB6E00E94FF1DE6EFF0E40E94301C03
:101E60000E942A180E9431180C943E0FEAE0F1E417
:101E70000E94301C0E942A180E943118089581E0A7
:101E8000EAEAF6E006E00A93ABE0B2E00E940A1E3E
:101E9000EAEAF6E09CE204E132E2A6E1B3E00E9465
:101EA000A91EA5E1B3E02C93A6E1B3E00E944B1E6E
:101EB000082F063011F00C94F214E6E1F3E0A9E2E9
:101EC000B1E00E94FF1DE9E2F1E0A9E2B1E00E9469
:101ED000051C8FEF8093F901A9E2B1E0E6E1F1E49E
:101EE0000E94301C0E94511E11F00C94B80F80E02B
:101EF0008093F901A0E3B1E0EEE1F1E40E94301C2F
:101F00000E94C11BABE0B2E0E8E7FFE30E94301C97
:101F10000E94C11BEBE0F2E0A0E3B1E00E941B18BD
:101F20000E94FF1DA0E3B1E00E941B18E2E3F1E470
:101F30000E94301C0E94C11BABE0B2E0E4E9FFE369
:101F40000E94301C0E94C11BEBE0F2E0A0E3B1E074
:101F50000E941B180E94FF1DA0E3B1E00E941B1805
:101F6000E4EBFFE30E94301C0E94C11B0C94F014B0
:101F7000E0E4F1E40E94301C0E94511E11F00C9428
:101F8000F70F00911503023011F00C94F20FABE241
:101F9000B3E00E94A41DA9E1B1E00C9300911901E6
:101FA000013110F00C94ED0F80E08093F901A0E373
:101FB000B1E0E8E4F1E40E94301C0E94C11BE9E1B9
:101FC000F1E0A0E3B1E00E941B180E945F1D809128
:101FD0001901809301030C94F00F85E08093F901BF
:101FE0000C94F50F84E08093F9010C94F014E0E672
:101FF000F1E40E94301C0E94511E11F00C940F104D
:1020000080E08093F901A0E3B1E0E8E6F1E40E940A
:10201000301C0E94C11B0E9436050C94F014ECE7A2
:10202000F1E40E94301C0E94511E11F00C941B110F
:1020300000911503023011F00C941611ABE2B3E0DD
:102040000E944B1E082F0C3011F00C94111180E0EF
:102050008093F90187E0EBE2F3E002E00A93ABE062
:10206000B2E00E940A1EABE0B2E00E941B18E4E856
:10207000F1E40E94301C0E94C11B89E0EBE2F3E016
:1020800002E00A93ABE0B2E00E941B180E940A1E15
:10209000ABE0B2E00E941B18E4E8F1E40E94301CBF
:1020A0000E94C11B8BE0EBE2F3E002E00A93ABE09D
:1020B000B2E00E941B180E940A1EABE0B2E00E9430
:1020C00024180E943118EBE0F2E0AFE0B1E00E948A
:1020D000FF1D0E94141AE6E8F1E40E94301C0E94E1
:1020E0002A180E94051AAFE0B1E00E9424180E944D
:1020F000311881E0EBE2F3E002E00A93ABE0B2E0FA
:102100000E940A1EABE0B2E00E941B18EAE8F1E46C
:102110000E94301C0E94C11B83E0EBE2F3E002E06E
:102120000A93ABE0B2E00E941B180E940A1EABE0CB
:10213000B2E00E941B18EAE8F1E40E94301C0E9401
:10214000C11B85E0EBE2F3E002E00A93ABE0B2E012
:102150000E941B180E940A1EABE0B2E00E942418E5
:102160000E943118EBE0F2E0A6E0B1E00E94FF1D12
:102170000E940E1AECE8F1E40E94301C0E942A181A
:102180000E94051AA6E0B1E00E9424180E943118AE
:10219000A0E3B1E0E0E9F1E40E94301C0E94C11B21
:1021A0000E94051AE6E0F1E0A0E3B1E00E941B18EE
:1021B0000E94FF1DA0E3B1E00E941B18EAEBF1E4CE
:1021C0000E94301C0E94C11B0E94051AEFE0F1E042
:1021D000A0E3B1E00E941B180E94FF1DE3E0F1E0C4
:1021E0000E94621AA1EBB2E08C93E0E0F1E00E9461
:1021F0003F1BADEAB2E00D931D932D933D93E2E3B7
:10220000F0E0ADEAB2E094E07BE70E94231E70911B
:10221000470270627093470281E0809301030C943F
:10222000141186E08093F9010C94191184E08093D5
:10223000F9010C94F014EEEBF1E40E94301C0E94C2
:10224000511E11F00C945B1180E08093F9010E9403
:10225000051AEFE0F1E0ABE0B2E00E94FF1DA0E361
:10226000B1E0E6ECF1E40E94301C0E94C11BEBE0FF
:10227000F2E0A0E3B1E00E941B180E94FF1DA0E362
:10228000B1E00E941B18E4EDF1E40E94301C0E94B2
:10229000C11B0E94051AE6E0F1E0ABE0B2E00E944B
:1022A000FF1DEBE0F2E0A0E3B1E00E941B180E94EA
:1022B000FF1D0C94F014E4EEF1E40E94301C0E9427
:1022C000511E11F00C94971180E08093F901EDEA12
:1022D000F2E0ABE0B2E00E94781BA0E3B1E0ECEEEC
:1022E000F1E40E94301C0E94C11BEBE0F2E0A0E38D
:1022F000B1E00E941B180E94FF1DA0E3B1E00E9404
:102300001B18E0E0F2E40E94301C0E94C11BEDEAC1
:10231000F2E0ABE0B2E00E94801BEBE0F2E0A0E371
:10232000B1E00E941B180E94FF1D0C94F014E8E01D
:10233000F2E40E94301C0E94511E11F00C942E12E7
:1023400000911503033011F00C942912ABE2B3E0B5
:102350000E94A41DAEE1B1E00C9300911E0100307B
:1023600080E010F009F081E08F9300911E010730AA
:1023700081E008F080E09F918923882311F40C9478
:102380002412A0E4B3E00E94A41DA5E2B1E00D93E5
:102390001D932D933D93A5E2B1E00D911D912D91DB
:1023A0003C91AEE1B1E0AD90BB24ACE4B2E0AA0C4C
:1023B000BB1CAA0CBB1CAA0DBB1D0D931D932D931A
:1023C0003C93EEE1F1E0A190BB24EEEFFFEFAA0C0D
:1023D000BB1CAA0CBB1CEA0DFB1DA5E2B1E094E0FE
:1023E0007BE70E94231E80E08093F901A0E3B1E027
:1023F000E0E1F2E40E94301C0E94C11BEEE1F1E03A
:10240000A0E3B1E00E941B180E945F1DA0E3B1E0B1
:102410000E941B18E4E8F1E40E94301C0E94C11BDA
:10242000EEE1F1E0A190BB24ECE4F2E0AA0CBB1CCD
:10243000AA0CBB1CEA0DFB1DA0E3B1E00E941B1817
:102440000E94521D0C94271283E08093F9010C9492
:102450002C1284E08093F9010C94F014E6E2F2E48B
:102460000E94301C0E94511E11F00C94C512009164
:102470001503033011F00C94C012ABE2B3E00E94DC
:10248000A41DAEE1B1E00C9300911E01003080E08C
:1024900010F009F081E08F9300911E01073081E078
:1024A00008F080E09F918923882311F40C94BB12DB
:1024B000A0E4B3E00E94A41DA5E2B1E00D931D933A
:1024C0002D933D93A5E2B1E00D911D912D913C918D
:1024D000AEE1B1E0AD90BB24A4E6B2E0AA0CBB1C17
:1024E000AA0CBB1CAA0DBB1D0D931D932D933C93F1
:1024F000EEE1F1E0A190BB24E6E1F0E0AA0CBB1C08
:10250000AA0CBB1CEA0DFB1DA5E2B1E094E07BE741
:102510000E94231E80E08093F901A0E3B1E0E0E196
:10252000F2E40E94301C0E94C11BEEE1F1E0A0E346
:10253000B1E00E941B180E945F1DA0E3B1E00E9461
:102540001B18E4E8F1E40E94301C0E94C11BEEE17C
:10255000F1E0A190BB24E4E6F2E0AA0CBB1CAA0CBB
:10256000BB1CEA0DFB1DA0E3B1E00E941B180E94FA
:10257000521D0C94BE1283E08093F9010C94C31297
:1025800084E08093F9010C94F014EEE2F2E40E94EE
:10259000301C0E94511E11F00C942A130091150357
:1025A000023011F00C942513ABE2B3E00E94A41D9D
:1025B000AEE1B1E00C9300911E01003080E010F01C
:1025C00009F081E08F9300911E01073081E008F04F
:1025D00080E09F918923882311F40C942013A0E3B9
:1025E000B1E0E6E3F2E40E94301C0E94C11BEEE180
:1025F000F1E0A0E3B1E00E941B180E945F1DA0E380
:10260000B1E00E941B18E4E8F1E40E94301C0E9433
:10261000C11BEEE1F1E0A190BB24ECE4F2E0AA0CD6
:10262000BB1CAA0CBB1CEA0DFB1DA0E3B1E00E9481
:102630001B180E94521D80E08093F9010C94231313
:1026400083E08093F9010C94281384E08093F901CE
:102650000C94F014EEE3F2E40E94301C0E94511E30
:1026600011F00C948F1300911503023011F00C94AB
:102670008A13ABE2B3E00E94A41DAEE1B1E00C937B
:1026800000911E01003080E010F009F081E08F938E
:1026900000911E01073081E008F080E09F918923BE
:1026A000882311F40C948513A0E3B1E0E6E4F2E48E
:1026B0000E94301C0E94C11BEEE1F1E0A0E3B1E0FA
:1026C0000E941B180E945F1DA0E3B1E00E941B182E
:1026D000E4E8F1E40E94301C0E94C11BEEE1F1E04D
:1026E000A190BB24E4E6F2E0AA0CBB1CAA0CBB1C24
:1026F000EA0DFB1DA0E3B1E00E941B180E94521DD1
:1027000080E08093F9010C94881383E08093F901B1
:102710000C948D1384E08093F9010C94F014E2E59D
:10272000F2E40E94301C0E94511E11F00C94FC1324
:1027300000911503023011F00C94F713ABE2B3E0F3
:102740000E94A41DAEE1B1E00C9300911E01003087
:1027500080E010F009F081E08F9300911E010730B6
:1027600081E008F080E09F918923882311F40C9484
:10277000F21380E08093F90100911E0141E0041BF7
:10278000A9E1B1E00C9380911901A2E1B3E00E94AC
:102790001B1C0E94111C9C91982B9C93A0E3B1E000
:1027A000EAE5F2E40E94301C0E94C11BEEE1F1E078
:1027B000A0E3B1E00E941B180E945F1DA0E3B1E0FE
:1027C0000E941B18E6ECFFE30E94301C0E94C11B14
:1027D000A0E3B1E00E941B18E2E1F3E00E94EC1DCF
:1027E0000C94F51383E08093F9010C94FA1384E0C0
:1027F0008093F9010C94F014EEE6F2E40E94301C90
:102800000E94511E11F00C943314009115030230F4
:1028100011F00C942E1480E08093F901ABE2B3E048
:102820000E94A41DA0E4B2E00C93E0E0F0E0A0E47C
:10283000B2E07BE70E94201EA0E3B1E0E6E7F2E40D
:102840000E94301C0E94C11BE0E4F2E0A0E3B1E072
:102850000E941B180E945F1D0C94311484E0809329
:10286000F9010C94F014ECE8F2E40E94301C0E9490
:10287000511E11F00C94511480E08093F901A0E3F3
:10288000B1E0E8ECFFE30E94301C0E94C11BE0E4D1
:10289000F2E0A0E3B1E00E941B180E945F1D0C94BF
:1028A000F014E4E9F2E40E94301C0E94511E11F081
:1028B0000C947B1480E08093F9010E94A104A0E3B2
:1028C000B1E0ECE9F2E40E94301C0E94C11BE0E898
:1028D000F2E0A0E3B1E00E941B180E94FF1DA0E3FC
:1028E000B1E00E941B18E4EBFFE30E94301C0E9441
:1028F000C11B0C94F014E6EAF2E40E94301C0E9422
:10290000511E11F00C94CF1400911503023011F0F8
:102910000C94CA1480E08093F901ABE2B3E00E940A
:10292000A41DA9E1B1E00C9300911901003080E0F1
:1029300010F009F081E08F93009119010F3F81E0C1
:1029400008F080E09F918923882311F40C94C5142A
:102950008091190180934102E1E0F0E0A1E4B2E04E
:102960007BE70E94201EA0E3B1E0EEEAF2E40E94C1
:10297000301C0E94C11BE1E4F2E0A0E3B1E00E9440
:102980001B180E945F1D0C94C81485E08093F90108
:102990000C94CD1484E08093F9010C94F014E6ECCF
:1029A000F2E40E94301C0E94511E11F00C94ED14B0
:1029B00080E08093F901A0E3B1E0EEECF2E40E9444
:1029C000301C0E94C11BE1E4F2E0A0E3B1E00E94F0
:1029D0001B180E945F1D0C94F01481E08093F90194
:1029E0000C946B15E6E1F3E0A9E2B1E00E94FF1D53
:1029F000E9E2F1E0A9E2B1E00E94051CA9E2B1E040
:102A0000E6EEF0E40E94301C0E94511E11F00C947E
:102A100013157091470270687093470280E08093AD
:102A2000F9010C946B15EAEEF0E40E94301C0E9450
:102A3000511E11F00C942615709147027F77709308
:102A4000470280E08093F9010C946B15EEEEF0E400
:102A50000E94301C0E94511E11F00C944715709179
:102A60001403706470931403EBE2F3E0AAEAB6E097
:102A70000E94FF1DE6EFF0E40E94301C0E942A181D
:102A80000E94311880E08093F9010C946B15E2E00C
:102A9000F1E40E94301C0E94511E11F00C94681544
:102AA00070911403706470931403EBE2F3E0AAEAEC
:102AB000B6E00E94FF1DE6EFF0E40E94301C0E9489
:102AC0002A180E94311880E08093F9010C946B154C
:102AD00082E08093F9010091F901003018F011F0C3
:102AE0000C9474150C948215ECE1FBE20E94301CEE
:102AF000A9EFB1E08C9199270E94FD1BA0E3B1E002
:102B00000E94C11BA0E3B1E00E9424180E9431186A
:102B1000089500100E102E10701046104F4B0043F9
:102B20006F6D616E646F206E6F207265636F6E6F84
:102B30006369646F004C6F6E676974756420636FBE
:102B40006D616E646F206E6F2076616C69646100E8
:102B50004E756D65726F20646520706172616D6580
:102B600074726F206E6F2076616C69646F004E75B1
:102B70006D65726F20646520706172616D6574723D
:102B80006F7320696E76616C69646F004572726F55
:102B900072206C6F6E676974756420706172616D0C
:102BA0006574726F2031004572726F72206C6F6EA7
:102BB000676974756420706172616D6574726F20ED
:102BC0003200506172616D6574726F206E6F207695
:102BD000616C69646F004552524F52380045525241
:102BE0004F522053442E20496E74656E74652064E4
:102BF00065206E7565766F00000000000300000020
:102C0000330000003303000033330000333303008C
:102C100033C00C00FF0FFF0F555555553333333379
:102C2000777777770C00FCFFCC00FCFFCC0CFCFF27
:102C3000CCCCFCFF0C00FCFFF0FFFFFF0E944E031A
:102C4000E8EDF2E40E94301C0E942A180E9431181C
:102C500082E080930103A4E1B3E08C9186FB16F03F
:102C60000C944516709114037F7B70931403E6EA6D
:102C7000F0E40E94301C0E942A18AAEAB6E00E94E2
:102C800024180E9431180E943F0F00911303013055
:102C900011F00C949F16709113037E7F70931303B1
:102CA000A3E0B3E08C918F5F8C93A3E0B3E00C9131
:102CB00045E00E943B1E8C9300910303003011F00D
:102CC0000C949F16A0E3B1E0EEEEF2E40E94301CFB
:102CD0000E94C11BA0E3B1E00E944B1EAFE1B1E036
:102CE0008D9388278C93AFE1B1E0ED91FC91A0E347
:102CF000B1E00E94891EA2E4B2E00D931D932D93D2
:102D00003D93A0E3B1E00E941B18E0ECF0E40E94C8
:102D1000301C0E94C11BE2E4F2E0A0E3B1E00E949B
:102D20001B180E94D71DECEAF0E40E94301C0E94A0
:102D30002A18A0E3B1E00E9424180E943118A7E4E9
:102D4000B2E08C9185FB16F00C942B1681E08093F9
:102D50000103A4E1B3E08C9186FB16F00C94C3163A
:102D6000709114037F7B70931403E6EAF0E40E94F1
:102D7000301C0E942A18AAEAB6E00E9424180E9479
:102D800031180E943F0F81E080931C0100911C01CB
:102D9000063018F011F00C944B1700911C0141E023
:102DA000041BADE1B1E00C9380911D01A2E1B3E001
:102DB0000E941B1C0E94111C0C900822689409F4AC
:102DC000E89416F00C94431780911D01A2E1B3E042
:102DD0000E941B1C0E94111C8C9189238C930091D2
:102DE0001C01013011F00C940117E6EFF2E40E948F
:102DF000301C0E942A180E9431180E94420B0C9429
:102E00004317023011F00C941117ECEFF2E40E941A
:102E1000301C0E942A180E9431180E94720C0C94D7
:102E20004317033011F00C941F17E2E0F3E40E9403
:102E3000301C0E942A180E9431180C944317043049
:102E400011F00C9427170E94A2050C94431705302B
:102E500011F00C943517E8E0F3E40E94301C0E9456
:102E60002A180E9431180C944317063011F00C9464
:102E70004317EEE0F3E40E94301C0E942A180E94DF
:102E800031180E94E20DACE1B1E08C918F5F8C9320
:102E900010F40C94C616A7E4B2E08C9183FB16F0F4
:102EA0000C94591770914702777F709347020E94E4
:102EB00041061D990C9498170027A3E2B0E08C916D
:102EC00085FB00F94427A7E4B2E08C9186FB40F92A
:102ED000041711F40C9496178AE090E00E94A2184F
:102EE0001D990C949617E4E1F3E40E94301C0E94B3
:102EF0002A18A3E2B0E08C9185FBA0E8BFE30E9412
:102F0000211C8D9388278C930E9422180E943118CF
:102F1000A3E2B0E08C9185FBA7E4B2E08C9186F946
:102F20008C93709112037062709312030C94D217F9
:102F30000027A3E2B0E08C9185FB00F94427A7E4C9
:102F4000B2E08C9186FB40F9041711F40C94D2176F
:102F50008AE090E00E94A2181D9B0C94D217E4E135
:102F6000F3E40E94301C0E942A18A3E2B0E08C9186
:102F700085FBA0E8BFE30E94211C8D9388278C93DA
:102F80000E9422180E943118A3E2B0E08C9185FBC8
:102F9000A7E4B2E08C9186F98C9370911203706271
:102FA000709312030C94A916ED91FC91EF5FFF4F03
:102FB000FC93EE93089509D00E94941B00FC10D05E
:102FC000089503D01ED001F8F9CF0024E89457FFEC
:102FD00002C009D0689400F80BD010F801240895BD
:102FE00002D009D00895509540954F5F5F4F0895E6
:102FF000E89417FF0895009510950F5F1F4F689490
:103000000895352F242FE894452B11F468940895E2
:10301000512F402F0027112780E1440F551F001F1B
:10302000111F021B130B416018F4020F131F4E7F78
:103030008A9599F708958F938D918823E9F71197D1
:103040008F910895A0E8BFE38D91882311F00CD0F3
:10305000FBCF08950E94C71B802D11F005D0FACF39
:1030600008958DE001D08AE00090C00005FEFCCFFD
:103070008093C60008950090C80005FEFCCF8093A1
:10308000CE00089500FC05D0089530D005D001F899
:10309000F9CF37D03FD00895842F952FA62FB72F83
:1030A000E894452B462B472B11F468940895402F44
:1030B000512F622F732F0027112722273327F0E289
:1030C000440F551F661F771F001F111F221F331F3C
:1030D000081B190B2A0B3B0B416028F4080F191F22
:1030E0002A1F3B1F4E7FFA9559F708950024E89454
:1030F00077FF02C006D0689400F809D010F80124C8
:10310000089512D04F5F5F4F6F4F7F4F0895E8943F
:1031100037FF089500951095209530950F5F1F4F4C
:103120002F4F3F4F68940895409550956095709546
:1031300008953197F1F70895689462F80895E89436
:1031400062F80895EF93FF93EE27E82BE92B31F017
:10315000E0EAFFE03197F1F70197D1F7FF91EF91A6
:1031600008958DE207FD8D938F2D881F802F881F76
:103170008F57082F6894F7F8802F87FF17C0809526
:103180008395082F80E38D938EE28D93802F81525B
:1031900038F080E38D9399279C930E94251C089515
:1031A00044270A95802F09F19ED01FC0805230F02D
:1031B0009EE49D9381E48D939D93EDCF4427DF9210
:1031C000EF92FF920F938FE1801B11F0082F8BD0AD
:1031D00091D09EE29D930F91FF90EF90DF90442756
:1031E0000395003209F4D5CF33D03F93E6E8F2E3FC
:1031F0000E94301C38E12F2D1E2D0D2DFF24EE24B2
:10320000DD244427000F111F221FB8F42F923F9294
:103210000E94C71B102C0E94C71B202C0E94C71B9A
:10322000302C0E94C71B31970E94F61B410DD21C07
:10323000E31CF01C3F902F9003C033960E94EF1BBD
:1032400031960E94EF1B3A95E9F63F9107D0A5CF42
:10325000DD0CEE1CFF1C0A95D9F70895002719E034
:1032600058D08F93802B11F0039501C08F911A9540
:10327000B9F7802F882309F48CCF8F91805D8D93CF
:103280000A95D9F788CF0065CD1D80B2E60E40596A
:103290007307A0ACB90350D6DC01286BEE0094355F
:1032A0007700CA9A3B0065CD1D00B2E60E00597347
:1032B0000700ACB90300D6DC01006BEE00003577E7
:1032C00000009A3B0000CD1D0000E60E00007307D1
:1032D0000000B9030000DC010000EE0000007700F0
:1032E00000003B000000F694E794D79447950A95B8
:1032F000D1F7089500270DD08F9303958F2D8E2938
:103300008D29842BC1F78F91805D8D930A95D9F714
:1033100042CF1F930F93002710E2440FDD1CEE1CD9
:10332000FF1C001F802F9AE0890B10F0082F439597
:103330001A9599F7802F0F911F910895082748E05B
:103340001695079510F4122701254A95C9F7089597
:1033500031E005C032E003C033E001C034E00FEFDC
:103360001FEF20EA91E0192EE9DF46D08991682FFE
:10337000E5DF42D08991E2DF3FD08991DFDF3CD0A9
:103380005991613078F0653068F48827D7DF34D000
:10339000852F869509F481E0D1DF2ED0802F2CD0A7
:1033A000812F2AC0663041F49D918C91C7DF24D0D3
:1033B000892FC4DF21D0F2CF6031E9F48827BEDF46
:1033C0001BD0852F869509F481E0682FB7DF14D0D4
:1033D000862F880FB3DF10D0513019F488279D91C4
:1033E00002C09D918D91AADF07D0892FA7DF04D05D
:1033F0006A95B9F7D3CF0895313011F40C9434188D
:10340000323011F40C943B180895A6E0B1E0E3E0EB
:10341000F1E00E94521A33970C942E1AE6E0F1E084
:10342000A3E0B1E00C94401AEFE0F1E0A0E0B1E0DD
:103430000C941C1AADE0BB27868197810E94411C29
:103440000D93838194810E94411C0D938081918111
:103450000E94411C0D930895EDE0FF2782810E9498
:10346000361C8AE38D9381810E94361C8AE38D93FA
:1034700080810E94361C88278C930895ADE0BB277D
:10348000808191810E94411C0D93838194810E94CF
:10349000411C0D93868197810E94411C0D930895D4
:1034A000EDE0FF2780810E94361C8FE28D938181A1
:1034B0000E94361C8FE28D9382810E94361C8827E1
:1034C0008D93089521D00F2D069506950F0D0D0DA6
:1034D0008F2D837021F41E2D13300AF40A958E2D42
:1034E0008A959927ECEFF4E30E94301CA8E1BB27F2
:1034F0000E94E31B080F47E00C943B1E05010104EA
:10350000060204000305010393E0ADE002C096E06B
:10351000AAE0B0E08FB7F89401910D939A95E1F786
:103520008FBF08950191119145EB55E00E94E1177D
:10353000440F440FF42E0F31150728F481E0E82ED4
:103540000395D02E24C00C33150728F482E0E82E12
:103550000E51D02E1CC00150150B4DE651E00E94BB
:103560000118F40E7CE07A95872F9927E0E9F5E3BE
:103570000E94301CA2E1BB270E94DD1B021713072B
:1035800090F37395E72E021B130B0395D02E08952D
:1035900000001F003B005A0078009700B500D400DF
:1035A000F300110130014E010191119121913081FF
:1035B00040E851E561E070E00E944518042F152FA6
:1035C0000C94941AA1DF0E2D0A95802F02950032DB
:1035D00020F01F2D137009F40395DA940D0D1127B7
:1035E0009927E8EFF5E30E94301CA8E1BB270E9471
:1035F000E31B080F111F0895000F1B2A384755645D
:103600007381909E81DF0F2D11274CE355270E9477
:10361000DB1755270E0D151F4CE32227332766278E
:1036200077270E949E1B0D0D131F231F08956CDF2B
:10363000DF92EF92FF920F2D1127222733274DE6BD
:1036400051E060E070E00E949E1BFF904F2D4D5FA7
:10365000469546955527662777270E94321DEF909D
:10366000DF900F931F932F933F930E94E31A22271B
:1036700033277F916F915F914F910C94321D47DFFB
:10368000AF92BF92CF920E94181B40E851E561E0D3
:1036900070E00E949E1BFF90EF90DF900F931F93AE
:1036A0002F933F930E94031B7F916F915F914F91E6
:1036B0000C94321D019111912191308140E851E526
:1036C00061E070E00E9445180C946A1B0191119111
:1036D0002191308140E15EE060E070E00E94451899
:1036E000F42E4CE350E00E94E117E42ED02E089512
:1036F000AF93BF930E945A1BBF91AF910C942C1AA9
:10370000AF93BF930E94D41ABF91AF910C94501AFB
:1037100041E2FF2747BF84910895019111912191C2
:1037200030810895015010400F92B801469F8001EA
:10373000479F100D569F100D0F9008950F921F92E6
:103740002F92C801D901489F80014A9F90014B9F49
:10375000202C499F100D211D321D5A9F202C589F4F
:10376000100D211D321D599F200D311D689F200D08
:10377000311D699F300D789F300D2F901F900F9055
:1037800008950E94C71B0D920020D9F70895D8957F
:10379000319628F48F938BB783958BBF8F91002040
:1037A000089591E005C092E003C094E001C098E064
:1037B000EEDF0D929A95E1F70895880F991FE80FB3
:1037C000F91F0DD0F0CFE80FF91F09D0EACF880F0D
:1037D000991F880F991FE80FF91F01D0E6CF28F431
:1037E0008F938BB783958BBF8F91089528F48F9318
:1037F0008BB78A958BBF8F9108950196019721F021
:103800000E94C71BE9F7FACF0895819104D08D93E8
:103810008823D9F70895813618F08B3708F48F7D07
:10382000089591E0882321F08894991F8A95E9F7FB
:10383000892F90950895883018F011968850FBCF05
:10384000089580E30EF4839508950F9200240BBE33
:103850000F9008950F9301E00BBF0F918894089586
:103860000F930027F9CF0F9302E0F6CF00278A309D
:1038700018F08A500395FBCF005D0D93805D8D930A
:103880000895805390530027813018F0065F8A9581
:10389000FBCF090F0895AF93BF930F939F938F931F
:1038A0008FB78F93A0E0B1E08C9183958D938C338B
:1038B00009F03DC088278E9311968C9183958D9346
:1038C0008C3309F034C088278E9311968C918395A0
:1038D0008D93883161F588278E9311968C9183950D
:1038E0008D939C910EE1943089F0963079F0993067
:1038F00069F09B3059F00CE1923039F411969C91AB
:103900001197937019F4039501C00FE1801778F0B7
:1039100071F081E08E9311968C9183958D938D300B
:1039200031F481E08E9311968C9183958C938F91D5
:103930008FBF8F919F910F91BF91AF910F921F9267
:103940002F923F924F925F927F92AF92BF920F93CE
:103950001F932F933F934F935F936F937F938F9317
:103960009F93AF93BF93CF93DF93EF93FF939FB753
:103970009F939BB79F9399279BBF0E94CF029F91D4
:103980009BBF9F919FBFFF91EF91DF91CF91BF911F
:10399000AF919F918F917F916F915F914F913F91E7
:1039A0002F911F910F91BF90AF907F905F904F909C
:1039B0003F902F901F900F90189599278D91939578
:1039C0008823E1F7939511968C9311978E919A9590
:1039D000D1F70895EA2FFB2F00244C918D91039489
:1039E0008E32E1F711248D9113948823E1F71A9414
:1039F000101640F41197202F2119239580E38D9301
:103A00002A95E9F7113039F59927AE2FBF2FA00D70
:103A1000B91FA00FB91F8C919C93853308F421C066
:103A200031E08E918E32E9F38D3241F0830F8A338B
:103A300019F480E331E001C033278C93AE1789F786
:103A4000332341F0AE2FBF2FB8DF81E34D3209F4AD
:103A50003196808308958827E00DF81FE00FF81F46
:103A600080830895040F151F261F371F0895041B18
:103A7000150B260B370B0895041715072607370774
:103A80000895000F111F221F331F089500951095F0
:103A9000209530950F5F1F4F2F4F3F4F0895019195
:103AA00010810FC00E948D1B0EC00E948D1B10C084
:103AB0000191108117FF05C03FEF2FEF04C0008177
:103AC00011272227332737FF03C0E0DF8DE28D93D4
:103AD000CF92DF92EF92AA24BB24CC24DD24EE24E3
:103AE00040E2EAE0FF2755E093E38081890F87FDFC
:103AF0009F7083FD907F891B81935A95A9F7C1DF41
:103B0000AA1CBB1CCC1CDD1CEE1C4A9551F7E8948A
:103B1000EFE0FF2782910BD0EB30E0F71EF06894C6
:103B20008A2D09D04D93EF90DF90CF900895982F74
:103B3000829501D0892F8F70805D26F0803309F443
:103B4000089568948D93089500271127222733271D
:103B50001DD08A3328F4803318F005D015D0F9CF62
:103B60000EF494CF089580538F93402F512F622FDE
:103B7000732F87DF86DF76DF84DF8F919927080F29
:103B8000191F291F391F08958D910895E894FCDFAE
:103B90008032E9F38B32D9F38930C9F38D3211F4D5
:103BA0006894F2CF089541E003C042E001C044E0D0
:103BB000E40F8827F81F8291982F829506D0892FCD
:103BC00004D04A95C1F70C94FC1D8F708A3008F020
:103BD000895F805D8D93089541E0E40F8827F81F89
:103BE000829138E098E1880F991F9D933A95D1F71B
:103BF0004A95B1F70C94FC1D88278D930895819107
:103C00008D938823E1F7089594E081918D939A959F
:103C1000E1F7089509919191992359F08A95D9F77F
:103C20003197002331F081918D930A958823C9F74C
:103C30000895E2CFF999FECFE1BDF2BD3196089526
:103C400091E001C092E07B3751F47FB7F894F2DF46
:103C50008D9180BDFA9AF99A9A95C9F77FBF772717
:103C6000089591E001C092E0E5DFF89A80B58D9368
:103C70009A95D1F70895FF93881BF9E0001FFA95F4
:103C800011F4FF910895881F841B18F4840F889401
:103C9000F5CF0894F3CF8FEF83959D919923E1F7AA
:103CA0000895689401C0E894AF93BF938D9116F086
:103CB000919103C00E94C71B902D891718F011F431
:103CC0008823A1F7BF91AF9108950D91998190300C
:103CD00009F013D0502788E0440F551F10F44227F5
:103CE00053278A95C9F7319781F789919991803047
:103CF00019F08A0105D0A801089588E0112701C0B4
:103D000080E1080116940794001F111F8A95D1F7CE
:103D100008950FEF1FEF2FEF3FEF60E273E888EB9E
:103D20009DEE0D90002548E08894379527951795CE
:103D3000079520F406271727282739274A95A1F742
:103D4000319779F7009510952095309508956894EE
:103D500001C0E8942227102F231709F4089526F4B0
:103D60000E94C71B802D01C08191803081F089178E
:103D700041F070E08D931A9591F7239571E01D93B2
:103D8000EACF01D0E8CF703011F07727089577237C
:103D900031F42395882713958D931A95E9F70895A3
:103DA000B7FE089590E8B91611F4D0FE08959FEF7C
:103DB000D91AE90AF90A09F403950895D190E19016
:103DC000F19001910895219131914191519108957E
:103DD000DD92ED92FD920C930895502F2D2D3E2DE6
:103DE0004F2D612F0895652F90E8440F551F5927D7
:103DF000990F47956078102F90E8FF0C001F092756
:103E0000990FF794107800380895FF0C90E89027E8
:103E1000110F9795F794092F08951127BD2CDE2CCB
:103E2000EF2CF02E0EE1FF2039F4FE2CED2CDB2CD4
:103E3000BB240850C2F752C032F00A95BB0CDD1CFF
:103E4000EE1CFF1CF9CFACDFE0CF2DEC3CEC4CECD2
:103E50005DE366270FC0B2DFC0DFDD24EE2490E80B
:103E6000F92E0FE307C0AFDF05C02227332740E25A
:103E700051E46627552351F1002381F1B4DF71F13C
:103E80001627005850580894050B18F407FD03C076
:103E900025C007FD23C0469537952795F694E794EE
:103EA000D79422D0FF202AF0DD0CEE1CFF1C01501D
:103EB00073F09D2D969548F0DD203AF4EE202AF41B
:103EC00091E0D90E9927E91EF91E9FCF07C09FE701
:103ED000092FF92A9FEFD92EE92E0895DD24EE242B
:103EE000FF240027112708959F929924AA24BB2418
:103EF00088E1D216E306F40628F0D21AE30AF40A9F
:103F0000089401C08894991CAA1CBB1CDD0CEE1CF3
:103F1000FF1C8A9571F7D92CEA2CFB2C9F900895F1
:103F20000E94C71B202D0E94C71B302D0E94C71B5B
:103F3000402D0E94C71B502D089500007A44303751
:103F40002F30312F3235000031313A32383A3030AB
:103F500000002A2A2A2A2A2A2A2A2A2A2A2A204504
:103F60004D455445522032303235202A2A2A2A2AF9
:103F70002A2A2A2A2A2A2A0030372D30382D323090
:103F800032352031323A33323A323700302E302E49
:103F900031303800454D455445522E4241530000C2
:103FA000417574003D002C204F464600494473651E
:103FB000723C00003E00556C74696D6120414354B1
:103FC000434C4B2000002C00454E414255473D00DC
:103FD0004944536C6176653E0000434E5452696E0D
:103FE000693D00005472792000005074723D000059
:103FF0002C20416464723D00545820005054524DAE
:1040000044423D00563366733D0056613D005662A2
:104010003D0056633D004933733D000049613D005A
:1040200049623D0049633D0050575233733D0000E3
:10403000507772613D00507772623D005077726335
:104040003D00456133733D0045613D0045623D00E3
:10405000667265633D00507472206E6F2076616CED
:104060000000524547204D4442204445433D000056
:104070002C204845583D00002C204445433D00007D
:10408000435243206661696C20656E20414444526E
:104090003D004573706572612052504920005250B6
:1040A0004974783E0000534552313D002400545875
:1040B00041555431203B0000412C00002D310000BF
:1040C0002600545841555434203B00002D32000046
:1040D000545841555436203B00002D3600002C2CFE
:1040E0002C2C2C2C00004F4B000045525200534505
:1040F000544D424400004E4557204D444320434D0B
:10410000440053455444414100004E6F20636D64A8
:104110002076616C00004C454556465700005665B8
:104120007273696F6E2046573A2046656368612056
:104130003C003E2C204172636869766F203C000091
:104140005345544C45440000536520636F6E6669C7
:1041500067757261207365746C656420612000006E
:10416000525354564152000056616C6F7265732071
:10417000706F722064656661756C740053455443BA
:104180004C4B00003A00543E00002F00443E00001B
:104190005741544348494E4720494E464F524D419E
:1041A0002E20536520636F6E66696775726F20728B
:1041B000656C6F6A20656E20000020612000534905
:1041C00053434C4B0000486F72612061637475610A
:1041D0006C3D00002C204665636861206163747546
:1041E000616C3D004C4545434C4B0000556C746977
:1041F0006D612041435420434C4B2061203D000021
:104200002C2064656C200000534554415554000037
:10421000536520636F6E66696775726F20747820CE
:104220004155542000005345544F464600004C452C
:1042300045415554000054782041757420004C4588
:10424000454F464600004F6666736574204175749D
:1042500020005345544E4557000053652061637458
:1042600069766F2054782E20415554200000534524
:10427000544255470000536520636F6E6669677549
:10428000726F20454E414255473D00004C45454226
:10429000554700004C4545524944000049442073AD
:1042A0006572203C00005345544449520000536558
:1042B00020636F6E66696775726F204944736C6125
:1042C0007665206120004C45454449520000494430
:1042D000736C617665203D004573706572612043A3
:1042E0004C4B2064656C20536572766572004143C7
:1042F00054434C4B00004155543100004155543259
:1043000000004155543300004155543500004155DB
:0E43100054360000537075657274613D0000F4
:00000001FF
