:100000000C94460018950000189500001895000003
:10001000189500001895000018950000189500002C
:100020001895000018950000189500000C949F1E6C
:10003000189500001895000018950000189500000C
:1000400018950000189500000C94F7011895000011
:100050000C94BB001895000018950000189500003E
:1000600018950000189500001895000018950000DC
:100070000C949E011895000018950000189500003A
:100080001895000018950000189500008FEF8DBF9F
:10009000C0E8E8E94E2E80E48EBFD0E4FFE35F2E97
:1000A000A89584B7082E882784BF88E19927809374
:1000B000600090936000EEEFFFE3A0E0B1E08827DE
:1000C0008D933197E9F787E68093C40080E08093B1
:1000D000C50088E18093C1006624209A25982D9A56
:1000E000279A2F9885E085BD80E084BD70916E00D1
:1000F000716070936E0085E085BD80E28093B600EC
:1001000085E08093B1007091700071607093700011
:10011000A6E0B1E0E0EEF3E40E94841E0E94151E0A
:100120000E94621CAFE0B1E0EAEEF3E40E94841E9C
:100130000E94151E0E94681C7091C1007068709327
:10014000C10083E38093CC0080E08093CD00709168
:10015000C8007D7F7093C80087E08093CA0088E163
:100160008093C900229A7091C90070687093C90089
:1001700078940C9470180F921F922F923F924F9286
:100180005F927F92AF92BF920F931F932F933F93F3
:100190004F935F936F937F938F939F93AF93BF938F
:1001A000CF93DF93EF93FF939FB79F939BB79F935B
:1001B00099279BBFADEBB6E08091C6008C9384E29B
:1001C000482F0091BD06041711F00C94F2007091B5
:1001D0002803706870932803A4EFB5E088278C93F8
:1001E0000C94800185E2482F041711F00C94030150
:1001F00070912803706270932803A8E8B7E08827FD
:100200008C930C9480010D3011F00C944701A8E2FE
:10021000B3E08C9187FB16F00C94260170912803B3
:100220007F777093280380E0A4EFB5E00E946F1AF7
:100230008D9388278C93E4EFF5E0AEEBB6E00E9457
:10024000532070912803706470932803A8E2B3E0F0
:100250008C9185FB16F00C944501709128037F7DED
:100260007093280380E0A8E8B7E00E946F1A8D938E
:1002700088278C93E8E8F7E0A5E1B8E00E945320D6
:10028000709128037061709328030C9480010F31E2
:1002900018F011F00C944E010C948001A8E2B3E028
:1002A0008C9187FB16F00C945F01ADEBB6E08C915E
:1002B000A4EFB5E00E946F1A8D9388278C93A8E273
:1002C000B3E08C9185FB16F00C948001ADEBB6E0A9
:1002D0008C91A8E8B7E00E946F1A8D9388278C93C1
:1002E000A8E8B7E00E949F20082F0C3818F011F002
:1002F0000C947C010C948001A8E8B7E088278C93CB
:100300009F919BBF9F919FBFFF91EF91DF91CF91F5
:10031000BF91AF919F918F917F916F915F914F911D
:100320003F912F911F910F91BF90AF907F905F9061
:100330004F903F902F901F900F9018950F921F9203
:100340002F923F924F925F927F92AF92BF920F9304
:100350001F932F933F934F935F936F937F938F934D
:100360009F93AF93BF93CF93DF93EF93FF939FB789
:100370009F939BB79F9399279BBFA2EAB8E0809178
:10038000CE008C93A8E2B3E08C9183FB16F00C9422
:10039000D901A4EBB2E08C918F5F8C938091A2087D
:1003A000A4EBB2E0AD90BB24A2EAB8E0AA0DBB1D5D
:1003B0008C939F919BBF9F919FBFFF91EF91DF9186
:1003C000CF91BF91AF919F918F917F916F915F91ED
:1003D0004F913F912F911F910F91BF90AF907F90C0
:1003E0005F904F903F902F901F900F9018950F9215
:1003F0001F922F923F924F925F927F92AF92BF9245
:100400000F931F932F933F934F935F936F937F931C
:100410008F939F93AF93BF93CF93DF93EF93FF930C
:100420009FB79F939BB79F9399279BBF74E676BD19
:10043000AFE0B3E08C918F5F8C93AFE0B3E00C91B1
:1004400048E00E948F208C9300910F03003011F040
:100450000C946302A0E1B3E00C9140E20E948F2073
:100460008C93ECE9F0E30E94841EA5E1B3E08C914B
:100470009927A1E1B3E00E943B1E80911003A1E106
:10048000B3E00E946F1E0E94651E0C9008226894C3
:1004900009F4E894A7E4B2E08C9182F98C93A7E484
:1004A000B2E08C9194E089278C93A7E4B2E08C9120
:1004B00082FBA5E2B0E08C9180F98C93A0E1B3E0DF
:1004C0008C918F5F8C93A8E2B3E08C9183FB16F044
:1004D0000C948E02ACEBB2E00E94281AACEBB2E0B6
:1004E0000D911C9140EA50E00E94551AACEBB2E02D
:1004F0000D931C93ACEBB2E00D911C91003050E0D9
:10050000150711F00C948E0270912803777F709379
:10051000280370914702786070934702A7E4B2E025
:100520008C9180FB16F00C94AD02A8E1B3E00E9420
:10053000281AAAE1B3E04D915C91A8E1B3E00D91D6
:100540001C910417150711F00C94AB02709147022F
:100550007260709347020C94B30280E090E0A8E1CF
:10056000B3E08D939C939F919BBF9F919FBFFF9101
:10057000EF91DF91CF91BF91AF919F918F917F913B
:100580006F915F914F913F912F911F910F91BF906C
:10059000AF907F905F904F903F902F901F900F9063
:1005A0001895E0E0F1E00E94931DAEE1B3E00D93F9
:1005B0001D932D933D9381E080931C0300911C03B8
:1005C000063018F011F00C944A0300911C0341E02E
:1005D000041BADE1B3E00C93AEE1B3E00D911D91CE
:1005E0002D913C91ACE1B3E0AD90BB24A4E6B2E028
:1005F000AA0CBB1CAA0CBB1CAA0DBB1D4D915D9186
:100600006D917C910E948B1FA2E2B3E00D931D932C
:100610002D933D93A2E2B3E00D911D912D913C915C
:10062000ACE1B3E0AD90BB24ACE4B2E0AA0CBB1CDF
:10063000AA0CBB1CAA0DBB1D4D915D916D917C91C7
:100640000E94991AA2E2B3E00D931D932D933D935E
:1006500040E050E060E070E0A2E2B3E00D911D9157
:100660002D913C910E94901F11F00C9442038091B7
:100670001D03A6E2B3E00E946F1E0E94651E9C91BE
:10068000982B9C93ACE1B3E08C918F5F8C9310F42A
:100690000C94DE0270912703716070932703089514
:1006A0002898E4EFF3E40E94841E0E947E1A0E94C0
:1006B000851AA0E8BFE3EAE1F4E40E94841E0E94E8
:1006C000151E0E94761A0E94851AA0E8BFE3EEE28A
:1006D000F4E40E94841E0E94151E0E94761A0E9455
:1006E000851AA0E8BFE3E6E3F4E40E94841E0E94BA
:1006F000151E0E94761A0E94851A81E080931503C8
:1007000081E08093190100911901063018F011F071
:100710000C941604E9E1F1E0A190BB24EEEFFFEFA9
:10072000AA0CBB1CAA0CBB1CEA0DFB1DA9E1B1E085
:10073000AD90BB24ACE4B2E0AA0CBB1CAA0CBB1C61
:10074000AA0DBB1D94E00E948820E9E1F1E0A19090
:10075000BB24E6E1F0E0AA0CBB1CAA0CBB1CEA0D12
:10076000FB1DA9E1B1E0AD90BB24A4E6B2E0AA0C68
:10077000BB1CAA0CBB1CAA0DBB1D94E00E948820C8
:10078000E2E4F4E40E94841E0E947E1AE9E1F1E0B2
:10079000A0E8BFE30E94B31F0E94761AE6E4F4E4E7
:1007A0000E94841E0E947E1AE9E1F1E0A190BB2420
:1007B000ECE4F2E0AA0CBB1CAA0CBB1CEA0DFB1D6E
:1007C000A0E8BFE30E94A61F0E94761AE8E4F4E4C2
:1007D0000E94841E0E947E1AE9E1F1E0A0E8BFE3D6
:1007E0000E94B31F0E94761AE6E4F4E40E94841E7D
:1007F0000E947E1AE9E1F1E0A190BB24E4E6F2E078
:10080000AA0CBB1CAA0CBB1CEA0DFB1DA0E8BFE395
:100810000E94A61F0E94761A0E94851AA9E1B1E0E3
:100820008C918F5F8C9310F40C9483030E94A3042B
:10083000EEE4F4E40E94841E0E947E1AA0E8B2E076
:100840000E94781AE6E5F4E40E94841E0E947E1A53
:100850000E94851AE2E3F0E0ADEAB2E094E00E9483
:100860008820E8E5F4E40E94841E0E947E1AEDEAE6
:10087000F2E0A0E8BFE30E94D41D0E94761AE8E6E9
:10088000F4E40E94841E0E947E1AEDEAF2E0A0E8E1
:10089000BFE30E94CC1D0E94761A0E94851AE0E0F8
:1008A000F0E0A0E4B2E00E948520EAE6F4E40E94D1
:1008B000841E0E947E1AE0E4F2E0A0E8BFE30E94FA
:1008C000B31F0E94761A0E94851AE1E0F0E0A1E4CD
:1008D000B2E00E948520E2E7F4E40E94841E0E94B8
:1008E0007E1AE1E4F2E0A0E8BFE30E94B31F0E9499
:1008F000761A0E94851AE6E3F0E0ADE0B3E00E94CC
:100900008720ADE0B3E00D911C910F5F1F4FADE06C
:10091000B3E00D931C93E6E3F0E0ADE0B3E07BE7DA
:100920000E947620ECE7F4E40E94841E0E947E1A66
:10093000EDE0F3E0A0E8BFE30E94A31F0E94761A57
:100940000E94851A089580E08093190180E08093C9
:100950001A01A0E8B2E088278C938EE080931901F9
:1009600000911901073118F011F00C94CE04A9E19F
:10097000B1E0EC91FF270E94DC1D082FE0E1F0E0E0
:10098000A0E8B2E00E946F1A0E942720A9E1B1E01E
:100990008C918F5F8C9310F40C94B004E0E8F2E03B
:1009A000A0E3B1E00E945320A0E8B2E088278C9336
:1009B0008EE08093190100911901073118F011F0B0
:1009C0000C94F904A9E1B1E0EC91FF270E94DC1D31
:1009D000082FE0E1F0E0A0E8B2E00E946F1A0E9468
:1009E0002720A9E1B1E08C918F5F8C9310F40C94D7
:1009F000DB04E0E3F1E0A0E8B2E00E94A72011F000
:100A00000C94050581E080931901AAE1B1E08C9175
:100A10008F5F8C9300911901003011F00C94240524
:100A200084EF91E00E94F61AE6E8F4E40E94841E46
:100A30000E947E1AEAE1F1E0A0E8BFE30E94B31F42
:100A40000E94761A0E94851A00911901013081E0F6
:100A500009F080E08F9300911A010A3081E009F0DB
:100A600080E09F91892B882311F40C94A9040895A8
:100A700000E010E020E030E0A1E2B1E00D931D9332
:100A80002D933C9381E08093190100911901063068
:100A900018F011F00C948E05E9E1F1E0A190BB246F
:100AA000EEEFFFEFAA0CBB1CAA0CBB1CEA0DFB1D52
:100AB0000CE211E020E030E0A0E1BB2794E07BE70E
:100AC0000E947720E9E1F1E0A190BB24E6E1F0E0AB
:100AD000AA0CBB1CAA0CBB1CEA0DFB1DA1E2B1E0D9
:100AE00094E07BE70E947720A1E2B1E00D911D9197
:100AF0002D913C914CE350E060E070E00E94861F35
:100B0000A1E2B1E00D931D932D933D93A9E1B1E0D6
:100B10008C918F5F8C9310F40C944505E1E0F0E02C
:100B2000A0E1BB2781E08C937BE70E947420EEE07C
:100B3000F0E00AE010E020E030E0A0E1BB2794E024
:100B40007BE70E9477200895AEEBB2E08C918F5F37
:100B50008C93AEEBB2E00C9145E00E948F208C9319
:100B6000E6EBFFE20E94841EAEEBB2E08C91992787
:100B7000A2EBB2E00E94311EECE8F4E40E94841E75
:100B80000E947E1AEEEBF2E0A0E8BFE30E94B31FE2
:100B90000E94761AE2E9F4E40E94841E0E947E1A02
:100BA000E2EBF2E0A0E8BFE30E9429200E94761A5F
:100BB0000E94851A81E080931E0100911E0100347D
:100BC00018F011F00C94F60580E0AEE1B1E0AD90C4
:100BD000BB24A2EAB8E0AA0DBB1D8C93AEE1B1E044
:100BE0008C918F5F8C9310F40C94DD0580E08093E2
:100BF000B402A0E4B2E00C9103FB16F00C942006C2
:100C0000EAE9F4E40E94841E0E947E1AE2EBF2E01C
:100C1000A0E8BFE30E9429200E94761A0E94851A4C
:100C200084E28A93A2EBB2E08D919C918A939A938D
:100C300083E08A93809141020E94FC1B0E94851AE6
:100C4000709128037860709328032A9A84E28A932B
:100C5000A2EBB2E08D919C918A939A9383E08A9360
:100C6000809141020E94FE1BEF93FF93ECE6F7E1B7
:100C70000E94ED1AFF91EF912A98709147027061DE
:100C8000709347020895A0E4B2E00C9103FB16F0C4
:100C90000C949206EEE9F4E40E94841E0E947E1AEF
:100CA000E4EBF2E0A0E8BFE30E94B31F0E94761AD3
:100CB000E2E9F4E40E94841E0E947E1AE2EBF2E074
:100CC000A0E8BFE30E9429200E94761A0E94851A9C
:100CD00081E080931E014091B40200911E0104172F
:100CE00018F011F00C949006EEE1F1E0A190BB2415
:100CF000E2EAF8E0EA0DFB1DA0E8BFE30E9427202E
:100D00000E94761AE8E6F4E40E94841E0E947E1A8D
:100D1000AEE1B1E08C918F5F8C9310F40C946B0674
:100D20000E94851A0091B40242E0041BA5EBB2E0D8
:100D30000C930091B50241E0040FA6EBB2E00C93D6
:100D40000091B60241E0040FA7EBB2E00C9381E002
:100D50008A9381E08A93A5EBB2E0EC91FF274FEFF5
:100D60005FEF25E030E8A3EAB8E00E94B920A8EBE5
:100D7000B2E04D935C93A7EBB2E0AD90BB24A2EA46
:100D8000B8E0AA0DBB1D9C91A6EBB2E0AD90BB24D0
:100D9000A2EAB8E0AA0DBB1D8C91AFE1B1E08D9342
:100DA0009C93AFE1B1E04D915C91A8EBB2E00D9165
:100DB0001C910417150711F00C942B0BA7E4B2E05B
:100DC0008C9184FB16F00C94C30A0091BE02003093
:100DD00011F00C9485078091A60880934F028091B2
:100DE000A70880934E028091A80880934D028091BD
:100DF000A90880934C02E6EAF4E40E94841E0E9453
:100E00007E1AECE4F2E0A0E8BFE30E94A91F0E9472
:100E1000761A0E94851A8091AA0880934F028091C9
:100E2000AB0880934E028091AC0880934D02809174
:100E3000AD0880934C02ACE4B2E08D919C91AFEB95
:100E4000B2E08D939C93ECEAF4E40E94841E0E942D
:100E50007E1AEFEBF2E0A0E8BFE30E94A31F0E941E
:100E6000761A0E94851A8091AE0880934F02809175
:100E7000AF0880934E028091B00880934D0280911C
:100E8000B10880934C02ACE4B2E08D919C91A1EC4E
:100E9000B2E08D939C93E0EBF4E40E94841E0E94E8
:100EA0007E1AE1ECF2E0A0E8BFE30E94A31F0E94DB
:100EB000761A0E94851A8091B20880934F02809121
:100EC000B30880934E028091B40880934D028091C4
:100ED000B50880934C02ACE4B2E08D919C91A3ECF8
:100EE000B2E08D939C93E4EBF4E40E94841E0E9494
:100EF0007E1AE3ECF2E0A0E8BFE30E94A31F0E9489
:100F0000761A0E94851A0C94C10A013011F00C94D3
:100F100063088091A60880934F028091A708809370
:100F20004E028091A80880934D028091A908809379
:100F30004C02E8EDF3E40E94841E0E94DF21ECE401
:100F4000F2E00E9432210E945C210E948921EDE0A2
:100F5000F0E0A9ECB2E00E945820E8EBF4E40E9433
:100F6000841E0E947E1AE9ECF2E0A0E8BFE30E9432
:100F700032210E94051B0E94761A0E94851A8091D8
:100F8000AA0880934F028091AB0880934E02809113
:100F9000AC0880934D028091AD0880934C02E8ED3F
:100FA000F3E40E94841E0E94DF21ECE4F2E00E9440
:100FB00032210E945C210E948921EDE0F0E0ADEC3D
:100FC000B2E00E945820EEEBF4E40E94841E0E94DE
:100FD0007E1AEDECF2E0A0E8BFE30E9432210E940D
:100FE000051B0E94761A0E94851A8091AE08809394
:100FF0004F028091AF0880934E028091B008809399
:101000004D028091B10880934C02E8EDF3E40E9418
:10101000841E0E94DF21ECE4F2E00E9432210E9453
:101020005C210E948921EDE0F0E0A1EDB2E00E9498
:101030005820E2ECF4E40E94841E0E947E1AE1ED46
:10104000F2E0A0E8BFE30E9432210E94051B0E944B
:10105000761A0E94851A8091B20880934F0280917F
:10106000B30880934E028091B40880934D02809122
:10107000B50880934C02E8EDF3E40E94841E0E94C0
:10108000DF21ECE4F2E00E9432210E945C210E9408
:101090008921EDE0F0E0A5EDB2E00E945820E6ECF9
:1010A000F4E40E94841E0E947E1AE5EDF2E0A0E8BE
:1010B000BFE30E9432210E94051B0E94761A0E9403
:1010C000851A0C94C10A023011F00C9441098091E8
:1010D000A60880934F028091A70880934E028091CA
:1010E000A80880934D028091A90880934C02ECEDF2
:1010F000F3E40E94841E0E94DF21ECE4F2E00E94EF
:1011000032210E945C210E948921EDE0F0E0ADEFE8
:10111000B2E00E945820EAECF4E40E94841E0E948F
:101120007E1AEDEFF2E0A0E8BFE30E9432210E94B8
:10113000051B0E94761A0E94851A8091AA08809346
:101140004F028091AB0880934E028091AC0880934F
:101150004D028091AD0880934C02ECEDF3E40E94C7
:10116000841E0E94DF21ECE4F2E00E9432210E9402
:101170005C210E948921EDE0F0E0A1E0B3E00E9453
:101180005820E2EDF4E40E94841E0E947E1AE1E001
:10119000F3E0A0E8BFE30E9432210E94051B0E94F9
:1011A000761A0E94851A8091AE0880934F02809132
:1011B000AF0880934E028091B00880934D028091D9
:1011C000B10880934C02ECEDF3E40E94841E0E946F
:1011D000DF21ECE4F2E00E9432210E945C210E94B7
:1011E0008921EDE0F0E0A5E0B3E00E945820E8EDB1
:1011F000F4E40E94841E0E947E1AE5E0F3E0A0E879
:10120000BFE30E9432210E94051B0E94761A0E94B1
:10121000851A8091B20880934F028091B308809321
:101220004E028091B40880934D028091B50880935E
:101230004C02ECEDF3E40E94841E0E94DF21ECE4FA
:10124000F2E00E9432210E945C210E948921EDE09F
:10125000F0E0A9E0B3E00E945820EEEDF4E40E9433
:10126000841E0E947E1AE9E0F3E0A0E8BFE30E943A
:1012700032210E94051B0E94761A0E94851A0C9446
:10128000C10A033011F00C94110A8091A6088093D2
:101290004B028091A70880934A028091A80880930E
:1012A00049028091A90880934802E8E4F2E0A9EDA0
:1012B000B2E00E945820E4EEF4E40E94841E0E94F2
:1012C0007E1AE9EDF2E0A0E8BFE30E9432210E941D
:1012D000051B0E94761A0E94851A8091AE088093A1
:1012E0004F028091AF0880934E028091B0088093A6
:1012F0004D028091B10880934C02ECEDF3E40E9422
:10130000841E0E94DF21ECE4F2E00E9432210E9460
:101310005C210E948921EDE0F0E0ADEDB2E00E9499
:101320005820ECEEF4E40E94841E0E947E1AEDED3B
:10133000F2E0A0E8BFE30E9432210E94051B0E9458
:10134000761A0E94851A8091B20880934F0280918C
:10135000B30880934E028091B40880934D0280912F
:10136000B50880934C02ECEDF3E40E94841E0E94C9
:10137000DF21ECE4F2E00E9432210E945C210E9415
:101380008921EDE0F0E0A1EEB2E00E945820E2EF0A
:10139000F4E40E94841E0E947E1AE1EEF2E0A0E8CE
:1013A000BFE30E9432210E94051B0E94761A0E9410
:1013B000851A8091B60880934F028091B708809378
:1013C0004E028091B80880934D028091B9088093B5
:1013D0004C02ECEDF3E40E94841E0E94DF21ECE459
:1013E000F2E00E9432210E945C210E948921EDE0FE
:1013F000F0E0A5EEB2E00E945820E8EFF4E40E948D
:10140000841E0E947E1AE5EEF2E0A0E8BFE30E948F
:1014100032210E94051B0E94761A0E94851A0C94A4
:10142000C10A043011F00C94B90A8091A608809387
:101430004F028091A70880934E028091A808809364
:101440004D028091A90880934C02ECEDF3E40E94D8
:10145000841E0E94DF21ECE4F2E00E9432210E940F
:101460005C210E948921EDE0F0E0A9EEB2E00E944B
:101470005820EEEFF4E40E94841E0E947E1AE9EEEA
:10148000F2E0A0E8BFE30E9432210E94051B0E9407
:10149000761A0E94851A8091AA0880934F02809143
:1014A000AB0880934E028091AC0880934D028091EE
:1014B000AD0880934C02ECEDF3E40E94841E0E9480
:1014C000DF21ECE4F2E00E9432210E945C210E94C4
:1014D0008921EDE0F0E0A9EFB2E00E945820E4E0BD
:1014E000F5E40E94841E0E947E1AE9EFF2E0A0E873
:1014F000BFE30E9432210E94051B0E94761A0E94BF
:10150000851A8091B20880934F028091B30880932E
:101510004E028091B40880934D028091B50880936B
:101520004C02E8EDF3E40E94841E0E94DF21ECE40B
:10153000F2E00E9432210E945C210E948921EDE0AC
:10154000F0E0A5ECB2E00E945820EAE0F5E40E9449
:10155000841E0E947E1AE5ECF2E0A0E8BFE30E9440
:1015600032210E94051B0E94761A0E94851A0C9453
:10157000C10AE0E1F5E40E94841E0E947E1A0E94E6
:10158000851A0C94290B0091B402073011F00C94C9
:10159000FD0A9091A6088091A708AAEBB2E08D936E
:1015A0009C93ECE1F5E40E94841E0E947E1AEAEB13
:1015B000F2E0A0E8BFE30E94A31F0E94761AEAE2CD
:1015C000F5E40E94841E0E947E1AEAEBF2E0A0E895
:1015D000BFE30E9429200E94761AE2E3F5E40E940C
:1015E000841E0E947E1AEAEBF2E0A0E8BFE30E94AC
:1015F000A31F0E94761A0E94851A0091B402083037
:1016000011F00C94290B9091A7088091A808AAEBDF
:10161000B2E08D939C93ECE1F5E40E94841E0E945D
:101620007E1AEAEBF2E0A0E8BFE30E94A31F0E944B
:10163000761AEAE2F5E40E94841E0E947E1AEAEB22
:10164000F2E0A0E8BFE30E9429200E94761A0E94DF
:10165000851A0C94420BA0E4B2E00C9103FB16F047
:101660000C94420BEAE3F5E40E94841E0E947E1A69
:10167000E2EBF2E0A0E8BFE30E9429200E94761A84
:101680000E94851A089580E0809346027091470277
:101690007F7770934702A6E4B2E08C918F5F8C93C2
:1016A000ECE4F5E40E94841E0E947E1AE6E4F2E077
:1016B000A0E8BFE30E94B31F0E94761A0E94851A19
:1016C00084E690E0AAE1B3E08D939C9380E090E003
:1016D000A8E1B3E08D939C93709147027160709381
:1016E0004702709147027D7F70934702A8E2B3E002
:1016F0008C9184FB16F00C94900B709128037F7EE4
:1017000070932803E8E5F5E40E94841E0E947E1A87
:10171000A5E1B8E00E94781A0E94851A0E94CD10B7
:10172000A8E2B3E08C9186FB16F00C94AA0B7091A2
:1017300028037F7B70932803E0E6F5E40E94841E73
:101740000E947E1AAEEBB6E00E94781A0E94851ABB
:101750000E945711A7E4B2E08C9187FB81E00EF064
:1017600080E08F93A7E4B2E08C9181FB81E00EF0E2
:1017700080E09F91892B882311F40C94760B709153
:1017800047027E7F70934702A7E4B2E08C9187FB0B
:1017900016F40C94D70BE6E6F5E40E94841E0E9432
:1017A0007E1AA0E3B1E00E94781A0E94851AA7E48D
:1017B000B2E08C9187FB81E00EF080E08F93009186
:1017C0004602033081E009F080E09F91892B882355
:1017D00011F40C944B0B709147027E7F709347027B
:1017E000709147027F77709347020895E8E6F5E429
:1017F0000E94841E0E947E1A0E94591CAFE0B1E034
:101800000E94781AE8E6F4E40E94841E0E947E1A80
:101810000E94591CA6E0B1E00E94781A0E94851A25
:101820000E94591CE6E0F1E0A7E9B2E00E945320D3
:101830000E94591CEFE0F1E0A2EAB2E00E945320BE
:10184000A0E3B1E0E2E7F5E40E94841E0E94151EC9
:10185000E7E9F2E0A0E3B1E00E946F1A0E94532092
:10186000A0E3B1E00E946F1AE8E6F4E40E94841E4F
:101870000E94151EE2EAF2E0A0E3B1E00E946F1AB6
:101880000E945320A0E3B1E00E946F1AE8E6F4E45E
:101890000E94841E0E94151EE0E8F2E0A0E3B1E081
:1018A0000E946F1A0E945320A0E3B1E00E946F1AB9
:1018B000E6E7F5E40E94841E0E94151EA0E3B1E055
:1018C0000E946F1AE8E6F4E40E94841E0E94151E2E
:1018D000EFEBF2E0A0E3B1E00E946F1A0E94A31FB9
:1018E000A0E3B1E00E946F1AE8E6F4E40E94841ECF
:1018F0000E94151EE1ECF2E0A0E3B1E00E946F1A35
:101900000E94A31FA0E3B1E00E946F1AE8E6F4E48E
:101910000E94841E0E94151EE3ECF2E0A0E3B1E0F9
:101920000E946F1A0E94A31FA0E3B1E00E946F1AE9
:10193000E8E6F4E40E94841E0E94151EE5ECF2E045
:10194000A0E3B1E00E946F1A0E9432210E94051BA1
:10195000A0E3B1E00E946F1AE8E6F4E40E94841E5E
:101960000E94151EEDECF2E0A0E3B1E00E946F1AB8
:101970000E9432210E94051BA0E3B1E00E946F1A71
:10198000E8E6F4E40E94841E0E94151EE1EDF2E0F8
:10199000A0E3B1E00E946F1A0E9432210E94051B51
:1019A000A0E3B1E00E946F1AE8E6F4E40E94841E0E
:1019B0000E94151EE5EDF2E0A0E3B1E00E946F1A6F
:1019C0000E9432210E94051BA0E3B1E00E946F1A21
:1019D000E8E6F4E40E94841E0E94151EA0E3B1E034
:1019E0000E949F20AFE1B1E08D9388278C93AFE1F7
:1019F000B1E0ED91FC91A0E3B1E00E94DD20A2E412
:101A0000B2E00D931D932D933D93A0E3B1E00E94AE
:101A10006F1AEAE7F5E40E94841E0E94151EE2E4B4
:101A2000F2E0A0E3B1E00E946F1A0E942B20E6E6EC
:101A3000F5E40E94841E0E947E1AA0E3B1E00E9499
:101A4000781A0E94851A0E94430B0895ECE7F5E48A
:101A50000E94841E0E947E1A0E94591CAFE0B1E0D1
:101A60000E94781AE8E6F4E40E94841E0E947E1A1E
:101A70000E94591CA6E0B1E00E94781A0E94851AC3
:101A80000E94591CE6E0F1E0A7E9B2E00E94532071
:101A90000E94591CEFE0F1E0A2EAB2E00E9453205C
:101AA000A0E3B1E0E2E7F5E40E94841E0E94151E67
:101AB000E7E9F2E0A0E3B1E00E946F1A0E94532030
:101AC000A0E3B1E00E946F1AE8E6F4E40E94841EED
:101AD0000E94151EE2EAF2E0A0E3B1E00E946F1A54
:101AE0000E945320A0E3B1E00E946F1AE8E6F4E4FC
:101AF0000E94841E0E94151EE0E8F2E0A0E3B1E01F
:101B00000E946F1A0E945320A0E3B1E00E946F1A56
:101B1000E6E8F5E40E94841E0E94151EA0E3B1E0F1
:101B20000E946F1AE8E6F4E40E94841E0E94151ECB
:101B3000E9EDF2E00E943221A0E8BFE3AF93BF934A
:101B40000E94051B11E002E0BF91AF910E943E1F71
:101B5000E0E8FFE3A0E3B1E00E946F1A0E94532087
:101B6000A0E3B1E00E946F1AE8E6F4E40E94841E4C
:101B70000E94151EEDEDF2E00E943221A0E8BFE3C5
:101B8000AF93BF930E94051B11E002E0BF91AF919C
:101B90000E943E1FE0E8FFE3A0E3B1E00E946F1A5D
:101BA0000E945320A0E3B1E00E946F1AE8E6F4E43B
:101BB0000E94841E0E94151EE1EEF2E00E94322176
:101BC000A0E8BFE3AF93BF930E94051B11E002E0C2
:101BD000BF91AF910E943E1FE0E8FFE3A0E3B1E0B8
:101BE0000E946F1A0E945320A0E3B1E00E946F1A76
:101BF000E8E6F4E40E94841E0E94151EE5EEF2E081
:101C00000E943221A0E8BFE3AF93BF930E94051B5F
:101C100011E002E0BF91AF910E943E1FE0E8FFE3B8
:101C2000A0E3B1E00E946F1A0E945320A0E3B1E04C
:101C30000E946F1AE8E6F4E40E94841E0E94151EBA
:101C4000E9EEF2E00E943221A0E8BFE3AF93BF9338
:101C50000E94051B11E002E0BF91AF910E943E1F60
:101C6000E0E8FFE3A0E3B1E00E946F1A0E94532076
:101C7000A0E3B1E00E946F1AE8E6F4E40E94841E3B
:101C80000E94151EEDEEF2E0A0E3B1E00E946F1A93
:101C90000E94A91FA0E3B1E00E946F1AE8E6F4E4F5
:101CA0000E94841E0E94151EE1EFF2E0A0E3B1E065
:101CB0000E946F1A0E94A91FA0E3B1E00E946F1A50
:101CC000E8E6F4E40E94841E0E94151EE5EFF2E0AF
:101CD000A0E3B1E00E946F1A0E94A91FA0E3B1E047
:101CE0000E949F20AFE1B1E08D9388278C93AFE1F4
:101CF000B1E0ED91FC91A0E3B1E00E94DD20A2E40F
:101D0000B2E00D931D932D933D93A0E3B1E00E94AB
:101D10006F1AEAE7F5E40E94841E0E94151EE2E4B1
:101D2000F2E0A0E3B1E00E946F1A0E942B20E6E6E9
:101D3000F5E40E94841E0E947E1AA0E3B1E00E9496
:101D4000781A0E94851A0E94430B0895EAE8F5E488
:101D50000E94841E0E947E1A0E94591CAFE0B1E0CE
:101D60000E94781AE8E6F4E40E94841E0E947E1A1B
:101D70000E94591CA6E0B1E00E94781A0E94851AC0
:101D80000E94591CE6E0F1E0A7E9B2E00E9453206E
:101D90000E94591CEFE0F1E0A2EAB2E00E94532059
:101DA000A0E3B1E0E2E7F5E40E94841E0E94151E64
:101DB000E7E9F2E0A0E3B1E00E946F1A0E9453202D
:101DC000A0E3B1E00E946F1AE8E6F4E40E94841EEA
:101DD0000E94151EE2EAF2E0A0E3B1E00E946F1A51
:101DE0000E945320A0E3B1E00E946F1AE8E6F4E4F9
:101DF0000E94841E0E94151EE0E8F2E0A0E3B1E01C
:101E00000E946F1A0E945320A0E3B1E00E946F1A53
:101E1000E4E9F5E40E94841E0E94151EA0E3B1E0EF
:101E20000E946F1AE8E6F4E40E94841E0E94151EC8
:101E3000EDEFF2E00E943221A0E8BFE3AF93BF9341
:101E40000E94051B11E002E0BF91AF910E943E1F6E
:101E5000E0E8FFE3A0E3B1E00E946F1A0E94532084
:101E6000A0E3B1E00E946F1AE8E6F4E40E94841E49
:101E70000E94151EE1E0F3E00E943221A0E8BFE3DA
:101E8000AF93BF930E94051B11E002E0BF91AF9199
:101E90000E943E1FE0E8FFE3A0E3B1E00E946F1A5A
:101EA0000E945320A0E3B1E00E946F1AE8E6F4E438
:101EB0000E94841E0E94151EE5E0F3E00E9432217C
:101EC000A0E8BFE3AF93BF930E94051B11E002E0BF
:101ED000BF91AF910E943E1FE0E8FFE3A0E3B1E0B5
:101EE0000E946F1A0E945320A0E3B1E00E946F1A73
:101EF000E8E6F4E40E94841E0E94151EE9E0F3E087
:101F00000E943221A0E8BFE3AF93BF930E94051B5C
:101F100011E002E0BF91AF910E943E1FE0E8FFE3B5
:101F2000A0E3B1E00E946F1A0E945320A0E3B1E049
:101F30000E946F1AE8E6F4E40E94841E0E94151EB7
:101F4000E9EFF2E00E943221A0E8BFE3AF93BF9334
:101F50000E94051B11E002E0BF91AF910E943E1F5D
:101F6000E0E8FFE3A0E3B1E00E946F1A0E94532073
:101F7000A0E3B1E00E946F1AE8E9F5E40E94841E34
:101F80000E94151EA0E3B1E00E949F20AFE1B1E0E6
:101F90008D9388278C93AFE1B1E0ED91FC91A0E3A4
:101FA000B1E00E94DD20A2E4B2E00D931D932D93D9
:101FB0003D93A0E3B1E00E946F1AEAE7F5E40E94C6
:101FC000841E0E94151EE2E4F2E0A0E3B1E00E944C
:101FD0006F1A0E942B20E6E6F5E40E94841E0E9400
:101FE0007E1AA0E3B1E00E94781A0E94851A0E942E
:101FF000430B0895ECE9F5E40E94841E0E947E1ACA
:102000000E94591CAFE0B1E00E94781AE8E6F4E4BF
:102010000E94841E0E947E1A0E94591CA6E0B1E014
:102020000E94781A0E94851A0E94591CE6E0F1E08D
:10203000A7E9B2E00E9453200E94591CEFE0F1E0B2
:10204000A2EAB2E00E945320A0E3B1E0E2E7F5E4A7
:102050000E94841E0E94151EE7E9F2E0A0E3B1E0B1
:102060000E946F1A0E945320A0E3B1E00E946F1AF1
:10207000E8E6F4E40E94841E0E94151EE2EAF2E003
:10208000A0E3B1E00E946F1A0E945320A0E3B1E0E8
:102090000E946F1AE8E6F4E40E94841E0E94151E56
:1020A000E0E8F2E0A0E3B1E00E946F1A0E94532042
:1020B000A0E3B1E00E946F1AE6EAF5E40E94841EF4
:1020C0000E94151EA0E3B1E00E946F1AE8E6F4E456
:1020D0000E94841E0E94151EA3E2B0E08C9185FB35
:1020E000A0E3B1E00E946F1A0E94751E8D938827AD
:1020F0008C93A0E3B1E00E946F1AE8E6F4E40E943A
:10210000841E0E94151EEDE0F3E0A0E3B1E00E9402
:102110006F1A0E94A31FA0E3B1E00E946F1AEAEABF
:10212000F5E40E94841E0E94151EA0E3B1E00E9407
:102130009F20AFE1B1E08D9388278C93AFE1B1E0B0
:10214000ED91FC91A0E3B1E00E94DD20A2E4B2E0B9
:102150000D931D932D933D93A0E3B1E00E946F1A60
:10216000EAE7F5E40E94841E0E94151EE2E4F2E014
:10217000A0E3B1E00E946F1A0E942B20E6E6F5E48E
:102180000E94841E0E947E1AA0E3B1E00E94781A89
:102190000E94851A0E94430B0895E5E1F8E09BE355
:1021A00004E132E2AAE2B3E00E94FD20A9E2B3E03A
:1021B0002C9300912903003018F011F00C94E210D8
:1021C0000C94EA10EAE2F3E0A9E2B1E00E945320A5
:1021D0000C94F010E5E1F8E0A9E2B1E00E94532090
:1021E000A9E2B1E0E2EBF5E40E94841E0E94A52082
:1021F00011F00C94021170914702706870934702BD
:102200000C945611E6EBF5E40E94841E0E94A52072
:1022100011F00C941211709147027F77709347026E
:102220000C945611EAEBF5E40E94841E0E94A5204E
:1022300011F00C943011709128037064709328038E
:10224000EFE3F3E0AEEBB6E00E945320E2ECF5E4FE
:102250000E94841E0E947E1A0E94851A0C945611B8
:10226000EEECF5E40E94841E0E94A52011F00C946F
:102270004E1170912803706470932803EFE3F3E02C
:10228000AEEBB6E00E945320E2ECF5E40E94841E1F
:102290000E947E1A0E94851A0C945611E6EDF5E410
:1022A0000E94841E0E947E1A0E94851A089581E071
:1022B000EEEBF6E006E00A93ABE0B2E00E945E20AF
:1022C000EEEBF6E09CE204E132E2AAE2B3E00E9427
:1022D000FD20A9E2B3E02C93AAE2B3E00E949F2084
:1022E000082F063011F00C944417EAE2F3E0A9E25B
:1022F000B1E00E945320E9E2F1E0A9E2B1E00E94DE
:10230000591E8FEF8093F901A9E2B1E0E2EEF5E406
:102310000E94841E0E94A52011F00C94D01180E030
:102320008093F901A0E3B1E0EAEEF5E40E94841E97
:102330000E94151EABE0B2E0EAE1F4E40E94841EC4
:102340000E94151EEBE0F2E0A0E3B1E00E946F1ADC
:102350000E945320A0E3B1E00E946F1AEEEFF5E473
:102360000E94841E0E94151EABE0B2E0E6E3F4E496
:102370000E94841E0E94151EEBE0F2E0A0E3B1E093
:102380000E946F1A0E945320A0E3B1E00E946F1ACE
:10239000E6E5F4E40E94841E0E94151E0C94421788
:1023A000ECE0F6E40E94841E0E94A52011F00C943B
:1023B0000F1200912903023011F00C940A12AFE3BE
:1023C000B3E00E94F81FA9E1B1E00C93009119015C
:1023D000013110F00C94051280E08093F901A0E324
:1023E000B1E0E4E1F6E40E94841E0E94151EE9E1DA
:1023F000F1E0A0E3B1E00E946F1A0E94B31F809148
:102400001901809315030C94081285E08093F9015B
:102410000C940D1284E08093F9010C944217ECE2C5
:10242000F6E40E94841E0E94A52011F00C9427124D
:1024300080E08093F901A0E3B1E0E4E3F6E40E94D8
:10244000841E0E94151E0E9438050C944217E8E471
:10245000F6E40E94841E0E94A52011F00C94331310
:1024600000912903023011F00C942E13AFE3B3E076
:102470000E949F20082F0C3011F00C94291380E04B
:102480008093F90187E0EFE3F3E002E00A93ABE029
:10249000B2E00E945E20ABE0B2E00E946F1AE0E57D
:1024A000F6E40E94841E0E94151E89E0EFE3F3E02B
:1024B00002E00A93ABE0B2E00E946F1A0E945E2035
:1024C000ABE0B2E00E946F1AE0E5F6E40E94841EE1
:1024D0000E94151E8BE0EFE3F3E002E00A93ABE00D
:1024E000B2E00E946F1A0E945E20ABE0B2E00E9450
:1024F000781A0E94851AEBE0F2E0AFE0B1E00E94AA
:1025000053200E94681CE2E5F6E40E94841E0E94AB
:102510007E1A0E94591CAFE0B1E00E94781A0E9416
:10252000851A81E0EFE3F3E002E00A93ABE0B2E06A
:102530000E945E20ABE0B2E00E946F1AE6E5F6E48E
:102540000E94841E0E94151E83E0EFE3F3E002E088
:102550000A93ABE0B2E00E946F1A0E945E20ABE0EB
:10256000B2E00E946F1AE6E5F6E40E94841E0E9423
:10257000151E85E0EFE3F3E002E00A93ABE0B2E082
:102580000E946F1A0E945E20ABE0B2E00E94781AAF
:102590000E94851AEBE0F2E0A6E0B1E00E94532031
:1025A0000E94621CE8E5F6E40E94841E0E947E1AE6
:1025B0000E94591CA6E0B1E00E94781A0E94851A78
:1025C000A0E3B1E0ECE5F6E40E94841E0E94151E33
:1025D0000E94591CE6E0F1E0A0E3B1E00E946F1A0E
:1025E0000E945320A0E3B1E00E946F1AE6E8F6E4EF
:1025F0000E94841E0E94151E0E94591CEFE0F1E00B
:10260000A0E3B1E00E946F1A0E945320E3E0F1E0E2
:102610000E94B61CA1EBB2E08C93E0E0F1E00E94D6
:10262000931DADEAB2E00D931D932D933D93E2E32C
:10263000F0E0ADEAB2E094E07BE70E947720709191
:10264000470270627093470281E0809315030C94F7
:102650002C1386E08093F9010C94311384E080936D
:10266000F9010C944217EAE8F6E40E94841E0E94E5
:10267000A52011F00C94731380E08093F9010E945F
:10268000591CEFE0F1E0ABE0B2E00E945320A0E380
:10269000B1E0E2E9F6E40E94841E0E94151EEBE020
:1026A000F2E0A0E3B1E00E946F1A0E945320A0E381
:1026B000B1E00E946F1AE0EAF6E40E94841E0E94D4
:1026C000151E0E94591CE6E0F1E0ABE0B2E00E946A
:1026D0005320EBE0F2E0A0E3B1E00E946F1A0E9409
:1026E00053200C944217E0EBF6E40E94841E0E94F3
:1026F000A52011F00C94AF1380E08093F901EDEA6E
:10270000F2E0ABE0B2E00E94CC1DA0E3B1E0E8EB68
:10271000F6E40E94841E0E94151EEBE0F2E0A0E3A6
:10272000B1E00E946F1A0E945320A0E3B1E00E9422
:102730006F1AECECF6E40E94841E0E94151EEDEA6E
:10274000F2E0ABE0B2E00E94D41DEBE0F2E0A0E3E7
:10275000B1E00E946F1A0E9453200C944217E4EDDE
:10276000F6E40E94841E0E94A52011F00C944614E9
:1027700000912903033011F00C944114AFE3B3E04E
:102780000E94F81FAEE1B1E00C9300911E010030F1
:1027900080E010F009F081E08F9300911E01073076
:1027A00081E008F080E09F918923882311F40C9444
:1027B0003C14A4E5B3E00E94F81FA5E2B1E00D933C
:1027C0001D932D933D93A5E2B1E00D911D912D91A7
:1027D0003C91AEE1B1E0AD90BB24ACE4B2E0AA0C18
:1027E000BB1CAA0CBB1CAA0DBB1D0D931D932D93E6
:1027F0003C93EEE1F1E0A190BB24EEEFFFEFAA0CD9
:10280000BB1CAA0CBB1CEA0DFB1DA5E2B1E094E0C9
:102810007BE70E94772080E08093F901A0E3B1E09C
:10282000ECEDF6E40E94841E0E94151EEEE1F1E03C
:10283000A0E3B1E00E946F1A0E94B31FA0E3B1E0D1
:102840000E946F1AE0E5F6E40E94841E0E94151EA5
:10285000EEE1F1E0A190BB24ECE4F2E0AA0CBB1C99
:10286000AA0CBB1CEA0DFB1DA0E3B1E00E946F1A8D
:102870000E94A61F0C943F1483E08093F9010C94EE
:10288000441484E08093F9010C944217E2EFF6E4DB
:102890000E94841E0E94A52011F00C94DD1400916A
:1028A0002903033011F00C94D814AFE3B3E00E9475
:1028B000F81FAEE1B1E00C9300911E01003080E002
:1028C00010F009F081E08F9300911E01073081E044
:1028D00008F080E09F918923882311F40C94D3148D
:1028E000A4E5B3E00E94F81FA5E2B1E00D931D93AB
:1028F0002D933D93A5E2B1E00D911D912D913C9159
:10290000AEE1B1E0AD90BB24A4E6B2E0AA0CBB1CE2
:10291000AA0CBB1CAA0DBB1D0D931D932D933C93BC
:10292000EEE1F1E0A190BB24E6E1F0E0AA0CBB1CD3
:10293000AA0CBB1CEA0DFB1DA5E2B1E094E07BE70D
:102940000E94772080E08093F901A0E3B1E0ECEDF4
:10295000F6E40E94841E0E94151EEEE1F1E0A0E361
:10296000B1E00E946F1A0E94B31FA0E3B1E00E9481
:102970006F1AE0E5F6E40E94841E0E94151EEEE147
:10298000F1E0A190BB24E4E6F2E0AA0CBB1CAA0C87
:10299000BB1CEA0DFB1DA0E3B1E00E946F1A0E9470
:1029A000A61F0C94D61483E08093F9010C94DB14D9
:1029B00084E08093F9010C944217EAEFF6E40E9458
:1029C000841E0E94A52011F00C9442150091290349
:1029D000023011F00C943D15AFE3B3E00E94F81FF4
:1029E000AEE1B1E00C9300911E01003080E010F0E8
:1029F00009F081E08F9300911E01073081E008F01B
:102A000080E09F918923882311F40C943815A0E36A
:102A1000B1E0E2E0F7E40E94841E0E94151EEEE1A0
:102A2000F1E0A0E3B1E00E946F1A0E94B31FA0E39F
:102A3000B1E00E946F1AE0E5F6E40E94841E0E9455
:102A4000151EEEE1F1E0A190BB24ECE4F2E0AA0C4B
:102A5000BB1CAA0CBB1CEA0DFB1DA0E3B1E00E944D
:102A60006F1A0E94A61F80E08093F9010C943B1519
:102A700083E08093F9010C94401584E08093F90180
:102A80000C944217EAE0F7E40E94841E0E94A520FD
:102A900011F00C94A71500912903023011F00C9449
:102AA000A215AFE3B3E00E94F81FAEE1B1E00C93D2
:102AB00000911E01003080E010F009F081E08F935A
:102AC00000911E01073081E008F080E09F9189238A
:102AD000882311F40C949D15A0E3B1E0E2E1F7E442
:102AE0000E94841E0E94151EEEE1F1E0A0E3B1E019
:102AF0000E946F1A0E94B31FA0E3B1E00E946F1AF8
:102B0000E0E5F6E40E94841E0E94151EEEE1F1E06D
:102B1000A190BB24E4E6F2E0AA0CBB1CAA0CBB1CEF
:102B2000EA0DFB1DA0E3B1E00E946F1A0E94A61FF0
:102B300080E08093F9010C94A01583E08093F90163
:102B40000C94A51584E08093F9010C944217EEE1F2
:102B5000F7E40E94841E0E94A52011F00C94141624
:102B600000912903023011F00C940F16AFE3B3E08B
:102B70000E94F81FAEE1B1E00C9300911E010030FD
:102B800080E010F009F081E08F9300911E01073082
:102B900081E008F080E09F918923882311F40C9450
:102BA0000A1680E08093F90100911E0141E0041BA8
:102BB000A9E1B1E00C9380911901A6E2B3E00E9473
:102BC0006F1E0E94651E9C91982B9C93A0E3B1E020
:102BD000E6E2F7E40E94841E0E94151EEEE1F1E099
:102BE000A0E3B1E00E946F1A0E94B31FA0E3B1E01E
:102BF0000E946F1AE8E6F4E40E94841E0E94151EEB
:102C0000A0E3B1E00E946F1AE6E2F3E00E944020E8
:102C10000C940D1683E08093F9010C94121684E055
:102C20008093F9010C944217EAE3F7E40E94841EB2
:102C30000E94A52011F00C944B160091290302303C
:102C400011F00C94461680E08093F901AFE3B3E0F5
:102C50000E94F81FA0E4B2E00C93E0E0F0E0A0E4F2
:102C6000B2E07BE70E947420A0E3B1E0E2E4F7E485
:102C70000E94841E0E94151EE0E4F2E0A0E3B1E091
:102C80000E946F1A0E94B31F0C94491684E080932F
:102C9000F9010C944217E8E5F7E40E94841E0E94B3
:102CA000A52011F00C94691680E08093F901A0E34F
:102CB000B1E0EAE6F4E40E94841E0E94151EE0E4FE
:102CC000F2E0A0E3B1E00E946F1A0E94B31F0C94DF
:102CD0004217E0E6F7E40E94841E0E94A52011F04E
:102CE0000C94931680E08093F9010E94A304A0E362
:102CF000B1E0E8E6F7E40E94841E0E94151EE0E8B9
:102D0000F2E0A0E3B1E00E946F1A0E945320A0E31A
:102D1000B1E00E946F1AE6E5F4E40E94841E0E946E
:102D2000151E0C944217E2E7F7E40E94841E0E94ED
:102D3000A52011F00C94E71600912903023011F040
:102D40000C94E21680E08093F901AFE3B3E00E94B7
:102D5000F81FA9E1B1E00C9300911901003080E067
:102D600010F009F081E08F93009119010F3F81E08D
:102D700008F080E09F918923882311F40C94DD16DC
:102D80008091190180934102E1E0F0E0A1E4B2E01A
:102D90007BE70E947420A0E3B1E0EAE7F7E40E9439
:102DA000841E0E94151EE1E4F2E0A0E3B1E00E945F
:102DB0006F1A0E94B31F0C94E01685E08093F9010E
:102DC0000C94E51684E08093F9010C944217E2E933
:102DD000F7E40E94841E0E94A52011F00C940517B0
:102DE00080E08093F901A0E3B1E0EAE9F7E40E9412
:102DF000841E0E94151EE1E4F2E0A0E3B1E00E940F
:102E00006F1A0E94B31F0C944217E4EAF7E40E9481
:102E1000841E0E94A52011F00C943F1700912903F5
:102E2000023011F00C943A1780E08093F901AFE37F
:102E3000B3E00E94F81FA9E1B1E00C9300911901E1
:102E4000003011F00C942F17A0E3B1E0ECEAF7E4A6
:102E50000E94841E0E94151E2F980C943817A0E320
:102E6000B1E0E8EBF7E40E94841E0E94151E2F9A41
:102E70000C943D1784E08093F9010C94421781E093
:102E80008093F9010C94BD17EAE2F3E0A9E2B1E006
:102E90000E945320E9E2F1E0A9E2B1E00E94591E4C
:102EA000A9E2B1E0E2EBF5E40E94841E0E94A520B5
:102EB00011F00C9465177091470270687093470287
:102EC00080E08093F9010C94BD17E6EBF5E40E94D5
:102ED000841E0E94A52011F00C947817709147026F
:102EE0007F777093470280E08093F9010C94BD17BF
:102EF000EAEBF5E40E94841E0E94A52011F00C94D8
:102F0000991770912803706470932803EFE3F3E03E
:102F1000AEEBB6E00E945320E2ECF5E40E94841E82
:102F20000E947E1A0E94851A80E08093F9010C9419
:102F3000BD17EEECF5E40E94841E0E94A52011F05E
:102F40000C94BA1770912803706470932803EFE310
:102F5000F3E0AEEBB6E00E945320E2ECF5E40E9411
:102F6000841E0E947E1A0E94851A80E08093F901D7
:102F70000C94BD1782E08093F9010091F9010030B3
:102F800018F011F00C94C6170C94D417E0ECFFE283
:102F90000E94841EA9EFB1E08C9199270E94511ED6
:102FA000A0E3B1E00E94151EA0E3B1E00E94781AF0
:102FB0000E94851A089500100E10AE1070103E1079
:102FC0004F4B00436F6D616E646F206E6F207265B2
:102FD000636F6E6F6369646F004C6F6E67697475C1
:102FE0006420636F6D616E646F206E6F2076616C1C
:102FF000696461004E756D65726F20646520706153
:1030000072616D6574726F206E6F2076616C696499
:103010006F004E756D65726F20646520706172611E
:103020006D6574726F7320696E76616C69646F0090
:103030004572726F72206C6F6E6769747564207070
:103040006172616D6574726F2031004572726F72CA
:10305000206C6F6E676974756420706172616D6554
:1030600074726F203200506172616D6574726F20EE
:103070006E6F2076616C69646F004552524F523812
:10308000004552524F522053442E20496E74656EB3
:103090007465206465206E7565766F000000000021
:1030A000030000003300000033030000333300004E
:1030B0003333030033C00C00FF0FFF0F5555555538
:1030C00033333333777777770C00FCFFCC00FCFF8A
:1030D000CC0CFCFFCCCCFCFF0C00FCFFF0FFFFFF96
:1030E0000E945003E2ECF7E40E94841E0E947E1AC4
:1030F0000E94851A82E080931503A8E2B3E08C91C8
:1031000086FB16F00C949718709128037F7B7093C0
:103110002803E0E6F5E40E94841E0E947E1AAEEBCE
:10312000B6E00E94781A0E94851A0E9457110091F9
:103130002703013011F00C94F118709127037E7F62
:1031400070932703A7E1B3E08C918F5F8C93A7E185
:10315000B3E00C9145E00E948F208C9300911703FF
:10316000003011F00C94F118A0E3B1E0E8EDF7E4C1
:103170000E94841E0E94151EA0E3B1E00E949F20C1
:10318000AFE1B1E08D9388278C93AFE1B1E0ED9191
:10319000FC91A0E3B1E00E94DD20A2E4B2E00D9337
:1031A0001D932D933D93A0E3B1E00E946F1AEAE7CF
:1031B000F5E40E94841E0E94151EE2E4F2E0A0E302
:1031C000B1E00E946F1A0E942B20E6E6F5E40E940F
:1031D000841E0E947E1AA0E3B1E00E94781A0E9429
:1031E000851AA7E4B2E08C9185FB16F00C947D184B
:1031F00081E080931503A8E2B3E08C9186FB16F082
:103200000C941519709128037F7B70932803E0E6D6
:10321000F5E40E94841E0E947E1AAEEBB6E00E9486
:10322000781A0E94851A0E94571181E080931C0130
:1032300000911C01063018F011F00C949F190091B8
:103240001C0141E0041BADE1B1E00C9380911D0134
:10325000A6E2B3E00E946F1E0E94651E0C90082239
:10326000689409F4E89416F00C94971980911D0164
:10327000A6E2B3E00E946F1E0E94651E8C91892316
:103280008C9300911C01013011F00C945319E0EE65
:10329000F7E40E94841E0E947E1A0E94851A0E94F2
:1032A000F60B0C949719023011F00C946319E6EEAA
:1032B000F7E40E94841E0E947E1A0E94851A0E94D2
:1032C000260D0C949719033011F00C947119ECEE43
:1032D000F7E40E94841E0E947E1A0E94851A0C94B4
:1032E0009719043011F00C9479190E94A4050C94DC
:1032F0009719053011F00C948919E2EFF7E40E9458
:10330000841E0E947E1A0E94851A0E94A60E0C94AA
:103310009719063011F00C949719E8EFF7E40E9422
:10332000841E0E947E1A0E94851A0E94FA0FACE148
:10333000B1E08C918F5F8C9310F40C941819A7E472
:10334000B2E08C9183FB16F00C94AD19709147029A
:10335000777F709347020E9443061D990C94EC19E5
:103360000027A3E2B0E08C9185FB00F94427A7E495
:10337000B2E08C9186FB40F9041711F40C94EA1921
:103380008AE090E00E94F61A1D990C94EA19EEEF7B
:10339000F7E40E94841E0E947E1AA3E2B0E08C91A2
:1033A00085FBA0E8BFE30E94751E8D9388278C9350
:1033B0000E94761A0E94851AA3E2B0E08C9185FBE8
:1033C000A7E4B2E08C9186F98C9370912603706229
:1033D000709326030C94261A0027A3E2B0E08C9188
:1033E00085FB00F94427A7E4B2E08C9186FB40F905
:1033F000041711F40C94261A8AE090E00E94F61A41
:103400001D9B0C94261AEEEFF7E40E94841E0E9486
:103410007E1AA3E2B0E08C9185FBA0E8BFE30E9496
:10342000751E8D9388278C930E94761A0E94851AA8
:10343000A3E2B0E08C9185FBA7E4B2E08C9186F921
:103440008C93709126037062709326030C94FB1882
:10345000ED91FC91EF5FFF4FFC93EE93089509D03F
:103460000E94E81D00FC10D0089503D01ED001F882
:10347000F9CF0024E89457FF02C009D0689400F8FF
:103480000BD010F80124089502D009D0089550956A
:1034900040954F5F5F4F0895E89417FF089500959A
:1034A00010950F5F1F4F68940895352F242FE894CF
:1034B000452B11F468940895512F402F00271127B0
:1034C00080E1440F551F001F111F021B130B4160A9
:1034D00018F4020F131F4E7F8A9599F708958F9362
:1034E0008D918823E9F711978F910895A0E8BFE3A4
:1034F0008D91882311F00CD0FBCF08950E941B1EE4
:10350000802D11F005D0FACF08958DE001D08AE02A
:103510000090C00005FEFCCF8093C6000895009087
:10352000C80005FEFCCF8093CE00089500FC05D0B6
:10353000089530D005D001F8F9CF37D03FD00895A5
:10354000842F952FA62FB72FE894452B462B472B7A
:1035500011F468940895402F512F622F732F002784
:10356000112722273327F0E2440F551F661F771FCC
:10357000001F111F221F331F081B190B2A0B3B0BA7
:10358000416028F4080F191F2A1F3B1F4E7FFA9530
:1035900059F708950024E89477FF02C006D0689494
:1035A00000F809D010F80124089512D04F5F5F4F42
:1035B0006F4F7F4F0895E89437FF08950095109559
:1035C000209530950F5F1F4F2F4F3F4F6894089500
:1035D000409550956095709508953197F1F708954D
:1035E000689462F80895E89462F80895EF93FF9361
:1035F000EE27E82BE92B31F0E0EAFFE03197F1F715
:103600000197D1F7FF91EF9108958DE207FD8D931A
:103610008F2D881F802F881F8F57082F6894F7F8E9
:10362000802F87FF17C080958395082F80E38D93A7
:103630008EE28D93802F815238F080E38D9399270D
:103640009C930E94791E089544270A95802F09F1C2
:103650009ED01FC0805230F09EE49D9381E48D93F4
:103660009D93EDCF4427DF92EF92FF920F938FE16E
:10367000801B11F0082F8BD091D09EE29D930F916B
:10368000FF90EF90DF9044270395003209F4D5CFE7
:1036900033D03F93EEE2F7E30E94841E38E12F2DF2
:1036A0001E2D0D2DFF24EE24DD244427000F111FB5
:1036B000221FB8F42F923F920E941B1E102C0E94D2
:1036C0001B1E202C0E941B1E302C0E941B1E31979B
:1036D0000E944A1E410DD21CE31CF01C3F902F900B
:1036E00003C033960E94431E31960E94431E3A95B2
:1036F000E9F63F9107D0A5CFDD0CEE1CFF1C0A9523
:10370000D9F70895002719E058D08F93802B11F036
:10371000039501C08F911A95B9F7802F882309F47A
:103720008CCF8F91805D8D930A95D9F788CF0065F6
:10373000CD1D80B2E60E40597307A0ACB90350D638
:10374000DC01286BEE0094357700CA9A3B0065CD0A
:103750001D00B2E60E0059730700ACB90300D6DCB9
:1037600001006BEE0000357700009A3B0000CD1D94
:103770000000E60E000073070000B9030000DC0142
:103780000000EE000000770000003B000000F6940F
:10379000E794D79447950A95D1F7089500270DD05F
:1037A0008F9303958F2D8E298D29842BC1F78F91AF
:1037B000805D8D930A95D9F742CF1F930F93002711
:1037C00010E2440FDD1CEE1CFF1C001F802F9AE04E
:1037D000890B10F0082F43951A9599F7802F0F91B8
:1037E0001F910895082748E01695079510F41227B1
:1037F00001254A95C9F7089531E005C032E003C0BC
:1038000033E001C034E00FEF1FEF20EA91E0192E02
:10381000E9DF46D08991682FE5DF42D08991E2DF68
:103820003FD08991DFDF3CD05991613078F065302D
:1038300068F48827D7DF34D0852F869509F481E096
:10384000D1DF2ED0802F2CD0812F2AC0663041F4BA
:103850009D918C91C7DF24D0892FC4DF21D0F2CF76
:103860006031E9F48827BEDF1BD0852F869509F4E7
:1038700081E0682FB7DF14D0862F880FB3DF10D018
:10388000513019F488279D9102C09D918D91AADF36
:1038900007D0892FA7DF04D06A95B9F7D3CF089551
:1038A000313011F40C94881A323011F40C948F1AC0
:1038B0000895A6E0B1E0E3E0F1E00E94A61C339792
:1038C0000C94821CE6E0F1E0A3E0B1E00C94941CBF
:1038D000EFE0F1E0A0E0B1E00C94701CADE0BB279C
:1038E000868197810E94951E0D93838194810E9409
:1038F000951E0D93808191810E94951E0D930895D0
:10390000EDE0FF2782810E948A1E8AE38D938181E8
:103910000E948A1E8AE38D9380810E948A1E8827D6
:103920008C930895ADE0BB27808191810E94951E04
:103930000D93838194810E94951E0D9386819781BA
:103940000E94951E0D930895EDE0FF2780810E944F
:103950008A1E8FE28D9381810E948A1E8FE28D9351
:1039600082810E948A1E88278D93089521D00F2D71
:10397000069506950F0D0D0D8F2D837021F41E2DCC
:1039800013300AF40A958E2D8A959927E4EAF9E313
:103990000E94841EA8E1BB270E94371E080F47E043
:1039A0000C948F20050101040602040003050103A5
:1039B00093E0ADE002C096E0AAE0B0E08FB7F894E3
:1039C00001910D939A95E1F78FBF0895019111919F
:1039D00045EB55E00E94351A440F440FF42E0F3189
:1039E000150728F481E0E82E0395D02E24C00C336F
:1039F000150728F482E0E82E0E51D02E1CC001508D
:103A0000150B4DE651E00E94551AF40E7CE07A95B4
:103A1000872F9927E8E3FAE30E94841EA2E1BB27DF
:103A20000E94311E0217130790F37395E72E021BB5
:103A3000130B0395D02E089500001F003B005A0081
:103A400078009700B500D400F300110130014E0159
:103A5000019111912191308140E851E561E070E0E0
:103A60000E94991A042F152F0C94E81CA1DF0E2D2B
:103A70000A95802F0295003220F01F2D137009F453
:103A80000395DA940D0D11279927E0EAFAE30E94D5
:103A9000841EA8E1BB270E94371E080F111F08953E
:103AA000000F1B2A384755647381909E81DF0F2DCC
:103AB00011274CE355270E942F1A55270E0D151F6D
:103AC0004CE322273327662777270E94F21D0D0D2E
:103AD000131F231F08956CDFDF92EF92FF920F2DCB
:103AE0001127222733274DE651E060E070E00E9465
:103AF000F21DFF904F2D4D5F469546955527662741
:103B000077270E94861FEF90DF900F931F932F93CC
:103B10003F930E94371D222733277F916F915F913A
:103B20004F910C94861F47DFAF92BF92CF920E94B5
:103B30006C1D40E851E561E070E00E94F21DFF90CD
:103B4000EF90DF900F931F932F933F930E94571D89
:103B50007F916F915F914F910C94861F019111910C
:103B60002191308140E851E561E070E00E94991AAE
:103B70000C94BE1D019111912191308140E15EE0D4
:103B800060E070E00E94991AF42E4CE350E00E942D
:103B9000351AE42ED02E0895AF93BF930E94AE1D28
:103BA000BF91AF910C94801CAF93BF930E94281DCE
:103BB000BF91AF910C94A41C41E2FF2747BF8491B1
:103BC0000895019111912191308108950150104083
:103BD0000F92B801469F8001479F100D569F100D10
:103BE0000F9008950F921F922F92C801D901489FFC
:103BF00080014A9F90014B9F202C499F100D211D51
:103C0000321D5A9F202C589F100D211D321D599F87
:103C1000200D311D689F200D311D699F300D789F4B
:103C2000300D2F901F900F9008950E941B1E0D9233
:103C30000020D9F70895D895319628F48F938BB743
:103C400083958BBF8F910020089591E005C092E08D
:103C500003C094E001C098E0EEDF0D929A95E1F781
:103C60000895880F991FE80FF91F0DD0F0CFE80FC6
:103C7000F91F09D0EACF880F991F880F991FE80F05
:103C8000F91F01D0E6CF28F48F938BB783958BBFB4
:103C90008F91089528F48F938BB78A958BBF8F915E
:103CA00008950196019721F00E941B1EE9F7FACFB3
:103CB0000895819104D08D938823D9F70895813692
:103CC00018F08B3708F48F7D089591E0882321F058
:103CD0008894991F8A95E9F7892F909508958830DF
:103CE00018F011968850FBCF089580E30EF4839569
:103CF00008950F9200240BBE0F9008950F9301E0DA
:103D00000BBF0F91889408950F930027F9CF0F935D
:103D100002E0F6CF00278A3018F08A500395FBCFD7
:103D2000005D0D93805D8D9308958053905300271F
:103D3000813018F0065F8A95FBCF090F0895AF9385
:103D4000BF930F939F938F938FB78F93A0E0B1E0B2
:103D50008C9183958D938C3309F03DC088278E9389
:103D600011968C9183958D938C3309F034C08827FC
:103D70008E9311968C9183958D93883161F5882768
:103D80008E9311968C9183958D939C910EE1943036
:103D900089F0963079F0993069F09B3059F00CE158
:103DA000923039F411969C911197937019F4039500
:103DB00001C00FE1801778F071F081E08E931196C9
:103DC0008C9183958D938D3031F481E08E93119693
:103DD0008C9183958C938F918FBF8F919F910F9131
:103DE000BF91AF910F921F922F923F924F925F928D
:103DF0007F92AF92BF920F931F932F933F934F9356
:103E00005F936F937F938F939F93AF93BF93CF9362
:103E1000DF93EF93FF939FB79F939BB79F93992750
:103E20009BBF0E94D1029F919BBF9F919FBFFF911B
:103E3000EF91DF91CF91BF91AF919F918F917F9142
:103E40006F915F914F913F912F911F910F91BF9073
:103E5000AF907F905F904F903F902F901F900F906A
:103E6000189599278D9193958823E1F7939511964D
:103E70008C9311978E919A95D1F70895EA2FFB2F85
:103E800000244C918D9103948E32E1F711248D9191
:103E900013948823E1F71A94101640F41197202FF9
:103EA0002119239580E38D932A95E9F7113039F58F
:103EB0009927AE2FBF2FA00DB91FA00FB91F8C914E
:103EC0009C93853308F421C031E08E918E32E9F362
:103ED0008D3241F0830F8A3319F480E331E001C061
:103EE00033278C93AE1789F7332341F0AE2FBF2FC2
:103EF000B8DF81E34D3209F4319680830895882735
:103F0000E00DF81FE00FF81F80830895040F151FC0
:103F1000261F371F0895041B150B260B370B08951A
:103F200004171507260737070895000F111F221FD2
:103F3000331F089500951095209530950F5F1F4F02
:103F40002F4F3F4F0895019110810FC00E94E11D36
:103F50000EC00E94E11D10C00191108117FF05C025
:103F60003FEF2FEF04C0008111272227332737FFAF
:103F700003C0E0DF8DE28D93CF92DF92EF92AA240F
:103F8000BB24CC24DD24EE2440E2EAE0FF2755E008
:103F900093E38081890F87FD9F7083FD907F891B4C
:103FA00081935A95A9F7C1DFAA1CBB1CCC1CDD1C50
:103FB000EE1C4A9551F7E894EFE0FF2782910BD071
:103FC000EB30E0F71EF068948A2D09D04D93EF9006
:103FD000DF90CF900895982F829501D0892F8F7010
:103FE000805D26F0803309F4089568948D930895D8
:103FF00000271127222733271DD08A3328F4803346
:1040000018F005D015D0F9CF0EF494CF0895805351
:104010008F93402F512F622F732F87DF86DF76DF3C
:1040200084DF8F919927080F191F291F391F0895C1
:104030008D910895E894FCDF8032E9F38B32D9F357
:104040008930C9F38D3211F46894F2CF089541E0BC
:1040500003C042E001C044E0E40F8827F81F8291CA
:10406000982F829506D0892F04D04A95C1F70C94D9
:1040700050208F708A3008F0895F805D8D9308959D
:1040800041E0E40F8827F81F829138E098E1880F1B
:10409000991F9D933A95D1F74A95B1F70C9450200A
:1040A00088278D93089581918D938823E1F7089552
:1040B00094E081918D939A95E1F7089509919191FA
:1040C000992359F08A95D9F73197002331F08191DE
:1040D0008D930A958823C9F70895E2CFF999FECF09
:1040E000E1BDF2BD3196089591E001C092E07B37C9
:1040F00051F47FB7F894F2DF8D9180BDFA9AF99A66
:104100009A95C9F77FBF7727089591E001C092E0A3
:10411000E5DFF89A80B58D939A95D1F70895FF93CE
:10412000881BF9E0001FFA9511F4FF910895881F8C
:10413000841B18F4840F8894F5CF0894F3CF8FEF85
:1041400083959D919923E1F70895689401C0E894BF
:10415000AF93BF938D9116F0919103C00E941B1EE7
:10416000902D891718F011F48823A1F7BF91AF9112
:1041700008950D919981903009F013D0502788E06F
:10418000440F551F10F4422753278A95C9F73197DA
:1041900081F789919991803019F08A0105D0A801A1
:1041A000089588E0112701C080E108011694079462
:1041B000001F111F8A95D1F708950FEF1FEF2FEF02
:1041C0003FEF60E273E888EB9DEE0D90002548E03C
:1041D0008894379527951795079520F40627172774
:1041E000282739274A95A1F7319779F70095109537
:1041F000209530950895689401C0E8942227102FE7
:10420000231709F4089526F40E941B1E802D01C077
:104210008191803081F0891741F070E08D931A957B
:1042200091F7239571E01D93EACF01D0E8CF70306C
:1042300011F077270895772331F423958827139574
:104240008D931A95E9F70895B7FE089590E8B91689
:1042500011F4D0FE08959FEFD91AE90AF90A09F47A
:1042600003950895D190E190F190019108952191E5
:104270003191419151910895502F2D2D3E2D4F2D6B
:10428000612F0895652F90E8440F551F5927990F06
:1042900047956078102F90E8FF0C001F0927990FB1
:1042A000F794107800380895FF0C90E89027110FCC
:1042B0009795F794092F08951127BD2CDE2CEF2C2C
:1042C000F02E0EE1FF2039F4FE2CED2CDB2CBB246C
:1042D0000850C2F752C032F00A95BB0CDD1CEE1C30
:1042E000FF1CF9CFB1DFE0CF2DEC3CEC4CEC5DE3F3
:1042F00066270FC0B7DFC0DFDD24EE2490E8F92E7B
:104300000FE307C0B4DF05C02227332740E251E4A2
:104310006627552351F1002381F1B4DF71F116278F
:10432000005850580894050B18F407FD03C025C029
:1043300007FD23C0469537952795F694E794D794C3
:1043400022D0FF202AF0DD0CEE1CFF1C015073F080
:104350009D2D969548F0DD203AF4EE202AF491E068
:10436000D90E9927E91EF91E9FCF07C09FE7092F95
:10437000F92A9FEFD92EE92E0895DD24EE24FF249B
:104380000027112708959F929924AA24BB2488E12D
:10439000D216E306F40628F0D21AE30AF40A0894C7
:1043A00001C08894991CAA1CBB1CDD0CEE1CFF1CD0
:1043B0008A9571F7D92CEA2CFB2C9F9008950E94C6
:1043C0001B1E202D0E941B1E302D0E941B1E402DE7
:1043D0000E941B1E502D089500007A440000C84220
:1043E00030372F30312F3235000031313A32383A00
:1043F000303000002A2A2A2A2A2A2A2A2A2A2A2A65
:1044000020454D455445522032303235202A2A2A43
:104410002A2A2A2A2A2A2A2A2A0032302D31322D03
:10442000323032352031383A33333A303900302E99
:10443000302E31323100454D455445522E424153C4
:104440000000417574003D002C204F464600494451
:104450007365723C00003E00556C74696D612041CB
:104460004354434C4B2000002C00454E41425547DD
:104470003D004944536C6176653E0000434E545202
:10448000696E693D00005472792000005074723DDD
:1044900000002C20416464723D00545820005054A8
:1044A000524D44423D00563366733D0056613D0017
:1044B00056623D0056633D004933733D000049613B
:1044C0003D0049623D0049633D0045616733733DEE
:1044D00000004561673D00004562673D000045639F
:1044E000673D000050777233733D00005077726172
:1044F0003D00507772623D00507772633D00456128
:1045000033733D00457233733D00667265633D0051
:10451000507472206E6F2076616C00005245472007
:104520004D4442204445433D00002C204845583D21
:1045300000002C204445433D000043524320666167
:10454000696C20656E20414444523D00457370659E
:10455000726120525049200052504974783E000048
:10456000534552313D002400545841555431203BAD
:104570000000412C00002D31000026005458415508
:104580005434203B00002D3200005458415554351E
:10459000203B00002D3500002C2C2C005458415598
:1045A0005436203B00002D3600002C2C2C2C2C2CBB
:1045B00000004F4B0000455252005345544D4244B9
:1045C00000004E4557204D444320434D4400534581
:1045D0005444414100004E6F20636D642076616C4D
:1045E00000004C4545564657000056657273696F8A
:1045F0006E2046573A204665636861203C003E2C99
:10460000204172636869766F203C00005345544C2A
:1046100045440000536520636F6E6669677572617B
:10462000207365746C6564206120000052535456F9
:104630004152000056616C6F72657320706F72207A
:1046400064656661756C7400534554434C4B0000BF
:104650003A00543E00002F00443E000057415443AE
:1046600048494E4720494E464F524D412E205365F2
:1046700020636F6E66696775726F2072656C6F6A12
:1046800020656E20000020612000534953434C4BAD
:104690000000486F72612061637475616C3D0000B9
:1046A0002C2046656368612061637475616C3D0010
:1046B0004C4545434C4B0000556C74696D6120417D
:1046C000435420434C4B2061203D00002C20646566
:1046D0006C2000005345544155540000536520633D
:1046E0006F6E66696775726F20747820415554202B
:1046F00000005345544F464600004C454541555433
:10470000000054782041757420004C45454F4646C2
:1047100000004F6666736574204175742000534530
:10472000544E4557000053652061637469766F20CD
:1047300054782E204155542000005345544255478B
:104740000000536520636F6E66696775726F204560
:104750004E414255473D00004C45454255470000FB
:104760004C45455249440000494420736572203C41
:1047700000005345544449520000536520636F6E56
:1047800066696775726F204944736C617665206154
:1047900020004C454544495200004944736C617601
:1047A00065203D0053455452454C00005245534549
:1047B000542072656C6500005345542072656C6529
:1047C000000045737065726120434C4B2064656C3A
:1047D0002053657276657200414354434C4B000090
:1047E0004155543100004155543200004155543375
:1047F00000004155543500004155543600005370B7
:0848000075657274613D000052
:00000001FF
