:100000000C94460018950000189500001895000003
:10001000189500001895000018950000189500002C
:100020001895000018950000189500000C94EA1E21
:10003000189500001895000018950000189500000C
:1000400018950000189500000C94F7011895000011
:100050000C94BB001895000018950000189500003E
:1000600018950000189500001895000018950000DC
:100070000C949E011895000018950000189500003A
:100080001895000018950000189500008FEF8DBF9F
:10009000C0E8E8E94E2E80E48EBFD0E4FFE35F2E97
:1000A000A89584B7082E882784BF88E19927809374
:1000B000600090936000EEEFFFE3A0E0B1E08827DE
:1000C0008D933197E9F787E68093C40080E08093B1
:1000D000C50088E18093C1006624209A25982D9A56
:1000E000279A2F9885E085BD80E084BD70916E00D1
:1000F000716070936E0085E085BD80E28093B600EC
:1001000085E08093B1007091700071607093700011
:10011000A6E0B1E0ECE4F5E40E94CF1E0E94601E70
:100120000E94AD1CAFE0B1E0E6E5F5E40E94CF1E11
:100130000E94601E0E94B31C7091C1007068709391
:10014000C10083E38093CC0080E08093CD00709168
:10015000C8007D7F7093C80087E08093CA0088E163
:100160008093C900229A7091C90070687093C90089
:1001700078940C94BB180F921F922F923F924F923B
:100180005F927F92AF92BF920F931F932F933F93F3
:100190004F935F936F937F938F939F93AF93BF938F
:1001A000CF93DF93EF93FF939FB79F939BB79F935B
:1001B00099279BBFA1ECB6E08091C6008C9384E2A6
:1001C000482F0091C106041711F00C94F2007091B1
:1001D0002C03706870932C03A8EFB5E088278C93EC
:1001E0000C94800185E2482F041711F00C94030150
:1001F00070912C03706270932C03ACE8B7E08827F1
:100200008C930C9480010D3011F00C944701ACE2FA
:10021000B3E08C9187FB16F00C94260170912C03AF
:100220007F7770932C0380E0A8EFB5E00E94BA1AA4
:100230008D9388278C93E8EFF5E0A2ECB6E00E945E
:100240009E2070912C03706470932C03ACE2B3E099
:100250008C9185FB16F00C94450170912C037F7DE9
:1002600070932C0380E0ACE8B7E00E94BA1A8D933B
:1002700088278C93ECE8F7E0A9E1B8E00E949E2083
:1002800070912C03706170932C030C9480010F31DA
:1002900018F011F00C944E010C948001ACE2B3E024
:1002A0008C9187FB16F00C945F01A1ECB6E08C9169
:1002B000A8EFB5E00E94BA1A8D9388278C93ACE220
:1002C000B3E08C9185FB16F00C948001A1ECB6E0B4
:1002D0008C91ACE8B7E00E94BA1A8D9388278C9372
:1002E000ACE8B7E00E94EA20082F0C3818F011F0B3
:1002F0000C947C010C948001ACE8B7E088278C93C7
:100300009F919BBF9F919FBFFF91EF91DF91CF91F5
:10031000BF91AF919F918F917F916F915F914F911D
:100320003F912F911F910F91BF90AF907F905F9061
:100330004F903F902F901F900F9018950F921F9203
:100340002F923F924F925F927F92AF92BF920F9304
:100350001F932F933F934F935F936F937F938F934D
:100360009F93AF93BF93CF93DF93EF93FF939FB789
:100370009F939BB79F9399279BBFA6EAB8E0809174
:10038000CE008C93ACE2B3E08C9183FB16F00C941E
:10039000D901A8EBB2E08C918F5F8C938091A60875
:1003A000A8EBB2E0AD90BB24A6EAB8E0AA0DBB1D55
:1003B0008C939F919BBF9F919FBFFF91EF91DF9186
:1003C000CF91BF91AF919F918F917F916F915F91ED
:1003D0004F913F912F911F910F91BF90AF907F90C0
:1003E0005F904F903F902F901F900F9018950F9215
:1003F0001F922F923F924F925F927F92AF92BF9245
:100400000F931F932F933F934F935F936F937F931C
:100410008F939F93AF93BF93CF93DF93EF93FF930C
:100420009FB79F939BB79F9399279BBF74E676BD19
:10043000A3E1B3E08C918F5F8C93A3E1B3E00C91C7
:1004400048E00E94DA208C9300911303003011F0F1
:100450000C946302A4E1B3E00C9140E20E94DA2024
:100460008C93E2E3F1E30E94CF1EA9E1B3E08C910B
:100470009927A5E1B3E00E94861E80911403A5E1AF
:10048000B3E00E94BA1E0E94B01E0C90082268942D
:1004900009F4E894A7E4B2E08C9182F98C93A7E484
:1004A000B2E08C9194E089278C93A7E4B2E08C9120
:1004B00082FBA5E2B0E08C9180F98C93A4E1B3E0DB
:1004C0008C918F5F8C93ACE2B3E08C9183FB16F040
:1004D0000C948E02A0ECB2E00E94731AA0ECB2E081
:1004E0000D911C9140EA50E00E94A01AA0ECB2E0ED
:1004F0000D931C93A0ECB2E00D911C91003050E0E4
:10050000150711F00C948E0270912C03777F709375
:100510002C0370914702786070934702A7E4B2E021
:100520008C9180FB16F00C94AD02ACE1B3E00E941C
:10053000731AAEE1B3E04D915C91ACE1B3E00D9183
:100540001C910417150711F00C94AB02709147022F
:100550007260709347020C94B30280E090E0ACE1CB
:10056000B3E08D939C939F919BBF9F919FBFFF9101
:10057000EF91DF91CF91BF91AF919F918F917F913B
:100580006F915F914F913F912F911F910F91BF906C
:10059000AF907F905F904F903F902F901F900F9063
:1005A0001895E0E0F1E00E94DE1DA2E2B3E00D93B9
:1005B0001D932D933D9381E08093200300912003B0
:1005C000063018F011F00C944A030091200341E02A
:1005D000041BA1E2B3E00C93A2E2B3E00D911D91E4
:1005E0002D913C91A0E2B3E0AD90BB24A8E6B2E02F
:1005F000AA0CBB1CAA0CBB1CAA0DBB1D4D915D9186
:100600006D917C910E94D61FA6E2B3E00D931D93DD
:100610002D933D93A6E2B3E00D911D912D913C9158
:10062000A0E2B3E0AD90BB24A0E5B2E0AA0CBB1CF5
:10063000AA0CBB1CAA0DBB1D4D915D916D917C91C7
:100640000E94E41AA6E2B3E00D931D932D933D930F
:1006500040E050E060E070E0A6E2B3E00D911D9153
:100660002D913C910E94DB1F11F00C94420380916C
:100670002103AAE2B3E00E94BA1E0E94B01E9C9120
:10068000982B9C93A0E2B3E08C918F5F8C9310F435
:100690000C94DE0270912B03716070932B0308950C
:1006A0002898E0E6F5E40E94CF1E0E94C91A0E9435
:1006B000D01AA0E8BFE3E6E8F5E40E94CF1E0E944E
:1006C000601E0E94C11A0E94D01AA0E8BFE3EAE9A6
:1006D000F5E40E94CF1E0E94601E0E94C11A0E9473
:1006E000D01AA0E8BFE3E2EAF5E40E94CF1E0E9420
:1006F000601E0E94C11A0E94D01A81E080931903E3
:1007000081E08093190100911901063018F011F071
:100710000C941604E9E1F1E0A190BB24EEEFFFEFA9
:10072000AA0CBB1CAA0CBB1CEA0DFB1DA9E1B1E085
:10073000AD90BB24A0E5B2E0AA0CBB1CAA0CBB1C6C
:10074000AA0DBB1D94E00E94D320E9E1F1E0A19045
:10075000BB24E6E1F0E0AA0CBB1CAA0CBB1CEA0D12
:10076000FB1DA9E1B1E0AD90BB24A8E6B2E0AA0C64
:10077000BB1CAA0CBB1CAA0DBB1D94E00E94D3207D
:10078000EEEAF5E40E94CF1E0E94C91AE9E1F1E009
:10079000A0E8BFE30E94FE1F0E94C11AE2EBF5E44D
:1007A0000E94CF1E0E94C91AE9E1F1E0A190BB248A
:1007B000E0E5F2E0AA0CBB1CAA0CBB1CEA0DFB1D79
:1007C000A0E8BFE30E94F11F0E94C11AE4EBF5E428
:1007D0000E94CF1E0E94C91AE9E1F1E0A0E8BFE340
:1007E0000E94FE1F0E94C11AE2EBF5E40E94CF1E98
:1007F0000E94C91AE9E1F1E0A190BB24E8E6F2E029
:10080000AA0CBB1CAA0CBB1CEA0DFB1DA0E8BFE395
:100810000E94F11F0E94C11A0E94D01AA9E1B1E002
:100820008C918F5F8C9310F40C9483030E94A3042B
:10083000EAEBF5E40E94CF1E0E94C91AA4E8B2E0D8
:100840000E94C31AE2ECF5E40E94CF1E0E94C91A6E
:100850000E94D01AE2E3F0E0A1EBB2E094E00E9443
:10086000D320E4ECF5E40E94CF1E0E94C91AE1EB0C
:10087000F2E0A0E8BFE30E941F1E0E94C11AE4ED4F
:10088000F5E40E94CF1E0E94C91AE1EBF2E0A0E855
:10089000BFE30E94171E0E94C11A0E94D01AE0E016
:1008A000F0E0A0E4B2E00E94D020E6EDF5E40E9482
:1008B000CF1E0E94C91AE0E4F2E0A0E8BFE30E9464
:1008C000FE1F0E94C11A0E94D01AE1E0F0E0A1E4EC
:1008D000B2E00E94D020EEEDF5E40E94CF1E0E940F
:1008E000C91AE1E4F2E0A0E8BFE30E94FE1F0E9403
:1008F000C11A0E94D01AE6E3F0E0A1E1B3E00E9441
:10090000D220A1E1B3E00D911C910F5F1F4FA1E137
:10091000B3E00D931C93E6E3F0E0A1E1B3E07BE7E5
:100920000E94C120E8EEF5E40E94CF1E0E94C91A81
:10093000E1E1F3E0A0E8BFE30E94EE1F0E94C11ACC
:100940000E94D01A089580E08093190180E080937E
:100950001A01A4E8B2E088278C938EE080931901F5
:1009600000911901073118F011F00C94CE04A9E19F
:10097000B1E0EC91FF270E94271E082FE0E1F0E094
:10098000A4E8B2E00E94BA1A0E947220A9E1B1E084
:100990008C918F5F8C9310F40C94B004E4E8F2E037
:1009A000A0E3B1E00E949E20A4E8B2E088278C93E7
:1009B0008EE08093190100911901073118F011F0B0
:1009C0000C94F904A9E1B1E0EC91FF270E94271EE5
:1009D000082FE0E1F0E0A4E8B2E00E94BA1A0E9419
:1009E0007220A9E1B1E08C918F5F8C9310F40C948C
:1009F000DB04E0E3F1E0A4E8B2E00E94F22011F0B1
:100A00000C94050581E080931901AAE1B1E08C9175
:100A10008F5F8C9300911901003011F00C94240524
:100A200084EF91E00E94411BE2EFF5E40E94CF1EAB
:100A30000E94C91AEAE1F1E0A0E8BFE30E94FE1FAC
:100A40000E94C11A0E94D01A00911901013081E060
:100A500009F080E08F9300911A010A3081E009F0DB
:100A600080E09F91892B882311F40C94A9040895A8
:100A700000E010E020E030E0A1E2B1E00D931D9332
:100A80002D933C9381E08093190100911901063068
:100A900018F011F00C948E05E9E1F1E0A190BB246F
:100AA000EEEFFFEFAA0CBB1CAA0CBB1CEA0DFB1D52
:100AB0000CE211E020E030E0A0E1BB2794E07BE70E
:100AC0000E94C220E9E1F1E0A190BB24E6E1F0E060
:100AD000AA0CBB1CAA0CBB1CEA0DFB1DA1E2B1E0D9
:100AE00094E07BE70E94C220A1E2B1E00D911D914C
:100AF0002D913C914CE350E060E070E00E94D11FEA
:100B0000A1E2B1E00D931D932D933D93A9E1B1E0D6
:100B10008C918F5F8C9310F40C944505E1E0F0E02C
:100B2000A0E1BB2781E08C937BE70E94BF20EEE031
:100B3000F0E00AE010E020E030E0A0E1BB2794E024
:100B40007BE70E94C2200895A2ECB2E08C918F5FF7
:100B50008C93A2ECB2E00C9146E00E94DA208C93D8
:100B6000EAE4F0E30E94CF1EA2ECB2E08C91992758
:100B7000A6EBB2E00E947C1EE8EFF5E40E94CF1ED7
:100B80000E94C91AE2ECF2E0A0E8BFE30E94FE1F57
:100B90000E94C11AEEEFF5E40E94CF1E0E94C91A0E
:100BA000E6EBF2E0A0E8BFE30E9474200E94C11AC5
:100BB0000E94D01A81E080931E0100911E01003432
:100BC00018F011F00C94F60580E0AEE1B1E0AD90C4
:100BD000BB24A6EAB8E0AA0DBB1D8C93AEE1B1E040
:100BE0008C918F5F8C9310F40C94DD0580E08093E2
:100BF000B802A0E4B2E00C9103FB16F00C942006BE
:100C0000E6E0F6E40E94CF1E0E94C91AE6EBF2E08D
:100C1000A0E8BFE30E9474200E94C11A0E94D01A6B
:100C200084E28A93A6EBB2E08D919C918A939A9389
:100C300083E08A93809141020E94471C0E94D01A4F
:100C400070912C03786070932C032A9A84E28A9323
:100C5000A6EBB2E08D919C918A939A9383E08A935C
:100C6000809141020E94491CEF93FF93ECE6F7E16B
:100C70000E94381BFF91EF912A9870914702706192
:100C8000709347020895A0E4B2E00C9103FB16F0C4
:100C90000C949206EAE0F6E40E94CF1E0E94C91A64
:100CA000E8EBF2E0A0E8BFE30E94FE1F0E94C11A39
:100CB000EEEFF5E40E94CF1E0E94C91AE6EBF2E0C7
:100CC000A0E8BFE30E9474200E94C11A0E94D01ABB
:100CD00081E080931E014091B80200911E0104172B
:100CE00018F011F00C949006EEE1F1E0A190BB2415
:100CF000E6EAF8E0EA0DFB1DA0E8BFE30E947220DF
:100D00000E94C11AE4EDF5E40E94CF1E0E94C91AA8
:100D1000AEE1B1E08C918F5F8C9310F40C946B0674
:100D20000E94D01A0091B80242E0041BA9EBB2E085
:100D30000C930091B90241E0040FAAEBB2E00C93CE
:100D40000091BA0241E0040FABEBB2E00C9381E0FA
:100D50008A9381E08A93A9EBB2E0EC91FF274FEFF1
:100D60005FEF25E030E8A7EAB8E00E940421ACEB91
:100D7000B2E04D935C93ABEBB2E0AD90BB24A6EA3E
:100D8000B8E0AA0DBB1D9C91AAEBB2E0AD90BB24CC
:100D9000A6EAB8E0AA0DBB1D8C91AFE1B1E08D933E
:100DA0009C93AFE1B1E04D915C91ACEBB2E00D9161
:100DB0001C910417150711F00C94750BA7E4B2E011
:100DC0008C9184FB16F00C940D0B0091C202003044
:100DD00011F00C9485078091AA0880934F028091AE
:100DE000AB0880934E028091AC0880934D028091B5
:100DF000AD0880934C02E2E1F6E40E94CF1E0E940F
:100E0000C91AECE4F2E0A0E8BFE30E94F41F0E94DC
:100E1000C11A0E94D01A8091AE0880934F0280912F
:100E2000AF0880934E028091B00880934D0280916C
:100E3000B10880934C02ACE4B2E08D919C91A3EC9C
:100E4000B2E08D939C93E8E1F6E40E94CF1E0E94ED
:100E5000C91AE3ECF2E0A0E8BFE30E94EE1F0E9493
:100E6000C11A0E94D01A8091B20880934F028091DB
:100E7000B30880934E028091B40880934D02809114
:100E8000B50880934C02ACE4B2E08D919C91A5EC46
:100E9000B2E08D939C93ECE1F6E40E94CF1E0E9499
:100EA000C91AE5ECF2E0A0E8BFE30E94EE1F0E9441
:100EB000C11A0E94D01A8091B60880934F02809187
:100EC000B70880934E028091B80880934D028091BC
:100ED000B90880934C02ACE4B2E08D919C91A7ECF0
:100EE000B2E08D939C93E0E2F6E40E94CF1E0E9454
:100EF000C91AE7ECF2E0A0E8BFE30E94EE1F0E94EF
:100F0000C11A0E94D01A0C940B0B013011F00C94F2
:100F100063088091AA0880934F028091AB08809368
:100F20004E028091AC0880934D028091AD08809371
:100F30004C02E0E4F5E40E94CF1E0E949322ECE410
:100F4000F2E00E947D210E94AC210E94FC21EDE094
:100F5000F0E0ADECB2E00E94A320E4E2F6E40E94EF
:100F6000CF1E0E94C91AEDECF2E0A0E8BFE30E9498
:100F70007D210E94501B0E94C11A0E94D01A8091AC
:100F8000AE0880934F028091AF0880934E0280910B
:100F9000B00880934D028091B10880934C02E0E448
:100FA000F5E40E94CF1E0E949322ECE4F2E00E943E
:100FB0007D210E94AC210E94FC21EDE0F0E0A1ED3A
:100FC000B2E00E94A320EAE2F6E40E94CF1E0E9453
:100FD000C91AE1EDF2E0A0E8BFE30E947D210E9482
:100FE000501B0E94C11A0E94D01A8091B2088093AF
:100FF0004F028091B30880934E028091B408809391
:101000004D028091B50880934C02E0E4F5E40E9423
:10101000CF1E0E949322ECE4F2E00E947D210E9408
:10102000AC210E94FC21EDE0F0E0A5EDB2E00E94D1
:10103000A320EEE2F6E40E94CF1E0E94C91AE5ED5D
:10104000F2E0A0E8BFE30E947D210E94501B0E94B5
:10105000C11A0E94D01A8091B60880934F028091E5
:10106000B70880934E028091B80880934D0280911A
:10107000B90880934C02E0E4F5E40E94CF1E0E9480
:101080009322ECE4F2E00E947D210E94AC210E94B8
:10109000FC21EDE0F0E0A9EDB2E00E94A320E2E344
:1010A000F6E40E94CF1E0E94C91AE9EDF2E0A0E822
:1010B000BFE30E947D210E94501B0E94C11A0E9422
:1010C000D01A0C940B0B023011F00C944109809152
:1010D000AA0880934F028091AB0880934E028091C2
:1010E000AC0880934D028091AD0880934C02E4E4FB
:1010F000F5E40E94CF1E0E949322ECE4F2E00E94ED
:101100007D210E94AC210E945522EDE0F0E0A1E09B
:10111000B3E00E94A320E6E3F6E40E94CF1E0E9403
:10112000C91AE1E0F3E0A0E8BFE30E947D210E943C
:10113000501B0E94C11A0E94D01A8091AE08809361
:101140004F028091AF0880934E028091B008809347
:101150004D028091B10880934C02E4E4F5E40E94D2
:10116000CF1E0E949322ECE4F2E00E947D210E94B7
:10117000AC210E945522EDE0F0E0A5E0B3E00E9432
:10118000A320EEE3F6E40E94CF1E0E94C91AE5E018
:10119000F3E0A0E8BFE30E947D210E94501B0E9463
:1011A000C11A0E94D01A8091B20880934F02809198
:1011B000B30880934E028091B40880934D028091D1
:1011C000B50880934C02E4E4F5E40E94CF1E0E942F
:1011D0009322ECE4F2E00E947D210E94AC210E9467
:1011E0005522EDE0F0E0A9E0B3E00E94A320E4E4A2
:1011F000F6E40E94CF1E0E94C91AE9E0F3E0A0E8DD
:10120000BFE30E947D210E94501B0E94C11A0E94D0
:10121000D01A8091B60880934F028091B7088093CE
:101220004E028091B80880934D028091B908809356
:101230004C02E4E4F5E40E94CF1E0E949322ECE409
:10124000F2E00E947D210E94AC210E945522EDE037
:10125000F0E0ADE0B3E00E94A320EAE4F6E40E94EF
:10126000CF1E0E94C91AEDE0F3E0A0E8BFE30E94A0
:101270007D210E94501B0E94C11A0E94D01A0C941A
:101280000B0B033011F00C94150A8091AA0880937F
:1012900053028091AB08809352028091AC088093F6
:1012A00051028091AD0880935002E0E5F2E00E9487
:1012B0007D210E94C421ADEDB2E00E948721E0E5CE
:1012C000F6E40E94CF1E0E94C91AEDEDF2E0A0E8FC
:1012D000BFE30E947D210E94501B0E94C11A0E9400
:1012E000D01A8091AE08809353028091AF0880930A
:1012F00052028091B008809351028091B10880938E
:101300005002E8E4F5E40E94CF1E0E949322E0E53B
:10131000F2E00E947D210E94C4210E945522EDE04E
:10132000F0E0A1EEB2E00E94A320E8E5F6E40E941E
:10133000CF1E0E94C91AE1EEF2E0A0E8BFE30E94CE
:101340007D210E94501B0E94C11A0E94D01A8091D8
:10135000B208809353028091B30880935202809127
:10136000B408809351028091B50880935002E8E45C
:10137000F5E40E94CF1E0E949322E0E5F2E00E9475
:101380007D210E94C4210E945522EDE0F0E0A5EEEF
:10139000B2E00E94A320EEE5F6E40E94CF1E0E9478
:1013A000C91AE5EEF2E0A0E8BFE30E947D210E94A9
:1013B000501B0E94C11A0E94D01A8091B6088093D7
:1013C00053028091B708809352028091B8088093AD
:1013D00051028091B90880935002E8E4F5E40E943C
:1013E000CF1E0E949322E0E5F2E00E947D210E9440
:1013F000C4210E945522EDE0F0E0A9EEB2E00E9487
:10140000A320E4E6F6E40E94CF1E0E94C91AE9EE8A
:10141000F2E0A0E8BFE30E947D210E94501B0E94E1
:10142000C11A0E94D01A0C940B0B043011F00C94CA
:10143000BD0A8091AA0880934F028091AB088093E7
:101440004E028091AC0880934D028091AD0880934C
:101450004C02E4E4F5E40E94CF1E0E949322ECE4E7
:10146000F2E00E947D210E94AC210E94FC21EDE06F
:10147000F0E0ADEEB2E00E94A320EAE6F6E40E94BE
:10148000CF1E0E94C91AEDEEF2E0A0E8BFE30E9471
:101490007D210E94501B0E94C11A0E94D01A809187
:1014A000AE0880934F028091AF0880934E028091E6
:1014B000B00880934D028091B10880934C02E4E41F
:1014C000F5E40E94CF1E0E949322ECE4F2E00E9419
:1014D0007D210E94AC210E94FC21EDE0F0E0ADEF07
:1014E000B2E00E94A320E0E7F6E40E94CF1E0E9433
:1014F000C91AEDEFF2E0A0E8BFE30E947D210E944F
:10150000501B0E94C11A0E94D01A8091BA08809381
:101510004F028091BB0880934E028091BC0880935B
:101520004D028091BD0880934C02E0E4F5E40E94F6
:10153000CF1E0E949322ECE4F2E00E947D210E94E3
:10154000AC210E94FC21EDE0F0E0A9ECB2E00E94A9
:10155000A320E6E7F6E40E94CF1E0E94C91AE9EC38
:10156000F2E0A0E8BFE30E947D210E94501B0E9490
:10157000C11A0E94D01A0C940B0B053011F00C9478
:10158000030B8091AA0880934F028091AB0880934F
:101590004E028091AC0880934D028091AD088093FB
:1015A0004C02ECE7F6E40E94CF1E0E94C91AECE45C
:1015B000F2E0A0E8BFE30E94F41F0E94C11A0E945B
:1015C000D01A8091AE0880934F028091AF0880932B
:1015D0004E028091B00880934D028091B1088093B3
:1015E0004C02E0E8F6E40E94CF1E0E94C91AECE427
:1015F000F2E0A0E8BFE30E94F41F0E94C11A0E941B
:10160000D01A0C940B0BE4E8F6E40E94CF1E0E9463
:10161000C91A0E94D01A0C94730B0091B8020730BB
:1016200011F00C94470B9091AA088091AB08AEEB97
:10163000B2E08D939C93E0E9F6E40E94CF1E0E94F5
:10164000C91AEEEBF2E0A0E8BFE30E94EE1F0E9491
:10165000C11AEEE9F6E40E94CF1E0E94C91AEEEB11
:10166000F2E0A0E8BFE30E9474200E94C11AE6EAFB
:10167000F6E40E94CF1E0E94C91AEEEBF2E0A0E849
:10168000BFE30E94EE1F0E94C11A0E94D01A00916F
:10169000B802083011F00C94730B9091AB08809154
:1016A000AC08AEEBB2E08D939C93E0E9F6E40E94C7
:1016B000CF1E0E94C91AEEEBF2E0A0E8BFE30E9441
:1016C000EE1F0E94C11AEEE9F6E40E94CF1E0E94AE
:1016D000C91AEEEBF2E0A0E8BFE30E9474200E947A
:1016E000C11A0E94D01A0C948C0BA0E4B2E00C91A9
:1016F00003FB16F00C948C0BEEEAF6E40E94CF1E6E
:101700000E94C91AE6EBF2E0A0E8BFE30E94742051
:101710000E94C11A0E94D01A089580E08093460268
:10172000709147027F7770934702A6E4B2E08C91F4
:101730008F5F8C93E0ECF6E40E94CF1E0E94C91AE2
:10174000E6E4F2E0A0E8BFE30E94FE1F0E94C11A97
:101750000E94D01A84E690E0AEE1B3E08D939C93B2
:1017600080E090E0ACE1B3E08D939C9370914702F0
:10177000716070934702709147027D7F70934702BA
:10178000ACE2B3E08C9184FB16F00C94DA0B709110
:101790002C037F7E70932C03ECECF6E40E94CF1EAA
:1017A0000E94C91AA9E1B8E00E94C31A0E94D01A87
:1017B0000E941711ACE2B3E08C9186FB16F00C94FA
:1017C000F40B70912C037F7B70932C03E4EDF6E413
:1017D0000E94CF1E0E94C91AA2ECB6E00E94C31A52
:1017E0000E94D01A0E94A111A7E4B2E08C9187FB5D
:1017F00081E00EF080E08F93A7E4B2E08C9181FB52
:1018000081E00EF080E09F91892B882311F40C94E5
:10181000C00B709147027E7F70934702A7E4B2E04D
:101820008C9187FB16F40C94210CEAEDF6E40E94EF
:10183000CF1E0E94C91AA0E3B1E00E94C31A0E9401
:10184000D01AA7E4B2E08C9187FB81E00EF080E033
:101850008F9300914602033081E009F080E09F9170
:10186000892B882311F40C94950B709147027E7F8D
:1018700070934702709147027F77709347020895F3
:10188000ECEDF6E40E94CF1E0E94C91A0E94A41C2F
:10189000AFE0B1E00E94C31AE4EDF5E40E94CF1E70
:1018A0000E94C91A0E94A41CA6E0B1E00E94C31ABB
:1018B0000E94D01A0E94A41CE6E0F1E0ABE9B2E07D
:1018C0000E949E200E94A41CEFE0F1E0A6EAB2E094
:1018D0000E949E20A0E3B1E0E6EEF6E40E94CF1E57
:1018E0000E94601EEBE9F2E0A0E3B1E00E94BA1AA8
:1018F0000E949E20A0E3B1E00E94BA1AE4EDF5E454
:101900000E94CF1E0E94601EE6EAF2E0A0E3B1E072
:101910000E94BA1A0E949E20A0E3B1E00E94BA1A67
:10192000E4EDF5E40E94CF1E0E94601EE4E8F2E0C0
:10193000A0E3B1E00E94BA1A0E949E20A0E3B1E0A9
:101940000E94BA1AEAEEF6E40E94CF1E0E94601EC0
:10195000A0E3B1E00E94BA1AE4EDF5E40E94CF1EC4
:101960000E94601EE3ECF2E0A0E3B1E00E94BA1A2C
:101970000E94EE1FA0E3B1E00E94BA1AE4EDF5E484
:101980000E94CF1E0E94601EE5ECF2E0A0E3B1E0F1
:101990000E94BA1A0E94EE1FA0E3B1E00E94BA1A98
:1019A000E4EDF5E40E94CF1E0E94601EE7ECF2E039
:1019B000A0E3B1E00E94BA1A0E94EE1FA0E3B1E0DA
:1019C0000E94BA1AE4EDF5E40E94CF1E0E94601E48
:1019D000E9ECF2E0A0E3B1E00E94BA1A0E947D2196
:1019E0000E94501BA0E3B1E00E94BA1AE4EDF5E4B6
:1019F0000E94CF1E0E94601EE1EDF2E0A0E3B1E084
:101A00000E94BA1A0E947D210E94501BA0E3B1E0FF
:101A10000E94BA1AE4EDF5E40E94CF1E0E94601EF7
:101A2000E5EDF2E0A0E3B1E00E94BA1A0E947D2148
:101A30000E94501BA0E3B1E00E94BA1AE4EDF5E465
:101A40000E94CF1E0E94601EE9EDF2E0A0E3B1E02B
:101A50000E94BA1A0E947D210E94501BA0E3B1E0AF
:101A60000E94BA1AE4EDF5E40E94CF1E0E94601EA7
:101A7000A0E3B1E00E94EA20AFE1B1E08D938827B6
:101A80008C93AFE1B1E0ED91FC91A0E3B1E00E9455
:101A90002821A2E4B2E00D931D932D933D93A0E382
:101AA000B1E00E94BA1AEEEEF6E40E94CF1E0E9448
:101AB000601EE2E4F2E0A0E3B1E00E94BA1A0E94E4
:101AC0007620EAEDF6E40E94CF1E0E94C91AA0E338
:101AD000B1E00E94C31A0E94D01A0E948D0B089593
:101AE000E0EFF6E40E94CF1E0E94C91A0E94A41CD7
:101AF000AFE0B1E00E94C31AE4EDF5E40E94CF1E0E
:101B00000E94C91A0E94A41CA6E0B1E00E94C31A58
:101B10000E94D01A0E94A41CE6E0F1E0ABE9B2E01A
:101B20000E949E200E94A41CEFE0F1E0A6EAB2E031
:101B30000E949E20A0E3B1E0E6EEF6E40E94CF1EF4
:101B40000E94601EEBE9F2E0A0E3B1E00E94BA1A45
:101B50000E949E20A0E3B1E00E94BA1AE4EDF5E4F1
:101B60000E94CF1E0E94601EE6EAF2E0A0E3B1E010
:101B70000E94BA1A0E949E20A0E3B1E00E94BA1A05
:101B8000E4EDF5E40E94CF1E0E94601EE4E8F2E05E
:101B9000A0E3B1E00E94BA1A0E949E20A0E3B1E047
:101BA0000E94BA1AEAEFF6E40E94CF1E0E94601E5D
:101BB000A0E3B1E00E94BA1AE4EDF5E40E94CF1E62
:101BC0000E94601EEDEDF2E00E947D21A0E8BFE3DF
:101BD000AF93BF930E94501B11E002E0BF91AF9101
:101BE0000E94891FE0E8FFE3A0E3B1E00E94BA1A77
:101BF0000E949E20A0E3B1E00E94BA1AE4EDF5E451
:101C00000E94CF1E0E94601EE1EEF2E00E947D2144
:101C1000A0E8BFE3AF93BF930E94501B11E002E026
:101C2000BF91AF910E94891FE0E8FFE3A0E3B1E01C
:101C30000E94BA1A0E949E20A0E3B1E00E94BA1A44
:101C4000E4EDF5E40E94CF1E0E94601EE5EEF2E096
:101C50000E947D21A0E8BFE3AF93BF930E94501B79
:101C600011E002E0BF91AF910E94891FE0E8FFE31D
:101C7000A0E3B1E00E94BA1A0E949E20A0E3B1E066
:101C80000E94BA1AE4EDF5E40E94CF1E0E94601E85
:101C9000E9EEF2E00E947D21A0E8BFE3AF93BF939D
:101CA0000E94501B11E002E0BF91AF910E94891F7A
:101CB000E0E8FFE3A0E3B1E00E94BA1A0E949E2090
:101CC000A0E3B1E00E94BA1AE4EDF5E40E94CF1E51
:101CD0000E94601EEDEEF2E00E947D21A0E8BFE3CD
:101CE000AF93BF930E94501B11E002E0BF91AF91F0
:101CF0000E94891FE0E8FFE3A0E3B1E00E94BA1A66
:101D00000E949E20A0E3B1E00E94BA1AE4EDF5E43F
:101D10000E94CF1E0E94601EE1EFF2E0A0E3B1E05E
:101D20000E94BA1A0E94F41FA0E3B1E00E94BA1AFE
:101D3000E4EDF5E40E94CF1E0E94601EE5EFF2E0A4
:101D4000A0E3B1E00E94BA1A0E94F41FA0E3B1E040
:101D50000E94BA1AE4EDF5E40E94CF1E0E94601EB4
:101D6000E9EFF2E0A0E3B1E00E94BA1A0E94F41F8A
:101D7000A0E3B1E00E94EA20AFE1B1E08D938827B3
:101D80008C93AFE1B1E0ED91FC91A0E3B1E00E9452
:101D90002821A2E4B2E00D931D932D933D93A0E37F
:101DA000B1E00E94BA1AEEEEF6E40E94CF1E0E9445
:101DB000601EE2E4F2E0A0E3B1E00E94BA1A0E94E1
:101DC0007620EAEDF6E40E94CF1E0E94C91AA0E335
:101DD000B1E00E94C31A0E94D01A0E948D0B089590
:101DE000EEEFF6E40E94CF1E0E94C91A0E94A41CC6
:101DF000AFE0B1E00E94C31AE4EDF5E40E94CF1E0B
:101E00000E94C91A0E94A41CA6E0B1E00E94C31A55
:101E10000E94D01A0E94A41CE6E0F1E0ABE9B2E017
:101E20000E949E200E94A41CEFE0F1E0A6EAB2E02E
:101E30000E949E20A0E3B1E0E6EEF6E40E94CF1EF1
:101E40000E94601EEBE9F2E0A0E3B1E00E94BA1A42
:101E50000E949E20A0E3B1E00E94BA1AE4EDF5E4EE
:101E60000E94CF1E0E94601EE6EAF2E0A0E3B1E00D
:101E70000E94BA1A0E949E20A0E3B1E00E94BA1A02
:101E8000E4EDF5E40E94CF1E0E94601EE4E8F2E05B
:101E9000A0E3B1E00E94BA1A0E949E20A0E3B1E044
:101EA0000E94BA1AE8E0F7E40E94CF1E0E94601E6A
:101EB000A0E3B1E00E94BA1AE4EDF5E40E94CF1E5F
:101EC0000E94601EE1E0F3E00E947D21A0E8BFE3F4
:101ED000AF93BF930E94501B11E002E0BF91AF91FE
:101EE0000E94891FE0E8FFE3A0E3B1E00E94BA1A74
:101EF0000E949E20A0E3B1E00E94BA1AE4EDF5E44E
:101F00000E94CF1E0E94601EE5E0F3E00E947D214A
:101F1000A0E8BFE3AF93BF930E94501B11E002E023
:101F2000BF91AF910E94891FE0E8FFE3A0E3B1E019
:101F30000E94BA1A0E949E20A0E3B1E00E94BA1A41
:101F4000E4EDF5E40E94CF1E0E94601EE9E0F3E09C
:101F50000E947D21A0E8BFE3AF93BF930E94501B76
:101F600011E002E0BF91AF910E94891FE0E8FFE31A
:101F7000A0E3B1E00E94BA1A0E949E20A0E3B1E063
:101F80000E94BA1AE4EDF5E40E94CF1E0E94601E82
:101F9000EDE0F3E00E947D21A0E8BFE3AF93BF93A3
:101FA0000E94501B11E002E0BF91AF910E94891F77
:101FB000E0E8FFE3A0E3B1E00E94BA1A0E949E208D
:101FC000A0E3B1E00E94BA1AE4EDF5E40E94CF1E4E
:101FD0000E94601EEDEFF2E00E947D21A0E8BFE3C9
:101FE000AF93BF930E94501B11E002E0BF91AF91ED
:101FF0000E94891FE0E8FFE3A0E3B1E00E94BA1A63
:102000000E949E20A0E3B1E00E94BA1AECE0F7E43F
:102010000E94CF1E0E94601EA0E3B1E00E94EA2051
:10202000AFE1B1E08D9388278C93AFE1B1E0ED9102
:10203000FC91A0E3B1E00E942821A2E4B2E00D935C
:102040001D932D933D93A0E3B1E00E94BA1AEEEEEA
:10205000F6E40E94CF1E0E94601EE2E4F2E0A0E3DC
:10206000B1E00E94BA1A0E947620EAEDF6E40E94DE
:10207000CF1E0E94C91AA0E3B1E00E94C31A0E94B9
:10208000D01A0E948D0B0895E0E1F7E40E94CF1E64
:102090000E94C91A0E94A41CAFE0B1E00E94C31ABA
:1020A000E4EDF5E40E94CF1E0E94C91A0E94A41C10
:1020B000A6E0B1E00E94C31A0E94D01A0E94A41C9C
:1020C000E6E0F1E0ABE9B2E00E949E200E94A41C91
:1020D000EFE0F1E0A6EAB2E00E949E20A0E3B1E0CA
:1020E000E6EEF6E40E94CF1E0E94601EEBE9F2E0ED
:1020F000A0E3B1E00E94BA1A0E949E20A0E3B1E0E2
:102100000E94BA1AE4EDF5E40E94CF1E0E94601E00
:10211000E6EAF2E0A0E3B1E00E94BA1A0E949E2033
:10212000A0E3B1E00E94BA1AE4EDF5E40E94CF1EEC
:102130000E94601EE4E8F2E0A0E3B1E00E94BA1A57
:102140000E949E20A0E3B1E00E94BA1AEAE1F7E4FF
:102150000E94CF1E0E94601EA0E3B1E00E94BA1A46
:10216000E4EDF5E40E94CF1E0E94601EA3E2B0E001
:102170008C9185FBA0E3B1E00E94BA1A0E94C01EB8
:102180008D9388278C93A0E3B1E00E94BA1AE4ED06
:10219000F5E40E94CF1E0E94601EE1E1F3E0A0E39F
:1021A000B1E00E94BA1A0E94EE1FA0E3B1E00E94C3
:1021B000BA1AEEE1F7E40E94CF1E0E94601EA0E36F
:1021C000B1E00E94EA20AFE1B1E08D9388278C93C3
:1021D000AFE1B1E0ED91FC91A0E3B1E00E942821D4
:1021E000A2E4B2E00D931D932D933D93A0E3B1E0E3
:1021F0000E94BA1AEEEEF6E40E94CF1E0E94601E04
:10220000E2E4F2E0A0E3B1E00E94BA1A0E94762074
:10221000EAEDF6E40E94CF1E0E94C91AA0E3B1E0E5
:102220000E94C31A0E94D01A0E948D0B0895E9E102
:10223000F8E09BE304E132E2AEE2B3E00E94482121
:10224000ADE2B3E02C9300912D03003018F011F0B3
:102250000C942C110C943411EEE2F3E0A9E2B1E0FD
:102260000E949E200C943A11E9E1F8E0A9E2B1E065
:102270000E949E20A9E2B1E0E6E2F7E40E94CF1EB0
:102280000E94F02011F00C944C117091470270687C
:10229000709347020C94A011EAE2F7E40E94CF1E6B
:1022A0000E94F02011F00C945C11709147027F772E
:1022B000709347020C94A011EEE2F7E40E94CF1E47
:1022C0000E94F02011F00C947A1170912C0370642C
:1022D00070932C03E3E4F3E0A2ECB6E00E949E20AE
:1022E000E6E3F7E40E94CF1E0E94C91A0E94D01AAA
:1022F0000C94A011E2E4F7E40E94CF1E0E94F020AB
:1023000011F00C94981170912C03706470932C034D
:10231000E3E4F3E0A2ECB6E00E949E20E6E3F7E4FB
:102320000E94CF1E0E94C91A0E94D01A0C94A011BC
:10233000EAE4F7E40E94CF1E0E94C91A0E94D01A54
:10234000089581E0E2ECF6E006E00A93ABE0B2E04B
:102350000E94A920E2ECF6E09CE204E132E2AEE267
:10236000B3E00E944821ADE2B3E02C93AEE2B3E0CB
:102370000E94EA20082F063011F00C948E17EEE22E
:10238000F3E0A9E2B1E00E949E20E9E2F1E0A9E2D7
:10239000B1E00E94A41E8FEF8093F901A9E2B1E0A1
:1023A000E6E5F7E40E94CF1E0E94F02011F00C94A5
:1023B0001A1280E08093F901A0E3B1E0EEE5F7E4C2
:1023C0000E94CF1E0E94601EABE0B2E0E6E8F5E49A
:1023D0000E94CF1E0E94601EEBE0F2E0A0E3B1E09D
:1023E0000E94BA1A0E949E20A0E3B1E00E94BA1A8D
:1023F000E2E7F7E40E94CF1E0E94601EABE0B2E06D
:10240000E2EAF5E40E94CF1E0E94601EEBE0F2E0DB
:10241000A0E3B1E00E94BA1A0E949E20A0E3B1E0BE
:102420000E94BA1AE2ECF5E40E94CF1E0E94601EE0
:102430000C948C17E0E8F7E40E94CF1E0E94F02075
:1024400011F00C94591200912D03023011F00C94EC
:102450005412A3E4B3E00E944320A9E1B1E00C933D
:1024600000911901013110F00C944F1280E080931B
:10247000F901A0E3B1E0E8E8F7E40E94CF1E0E9472
:10248000601EE9E1F1E0A0E3B1E00E94BA1A0E9407
:10249000FE1F80911901809319030C94521285E05C
:1024A0008093F9010C94571284E08093F9010C9405
:1024B0008C17E0EAF7E40E94CF1E0E94F02011F092
:1024C0000C94711280E08093F901A0E3B1E0E8EA96
:1024D000F7E40E94CF1E0E94601E0E9438050C94F3
:1024E0008C17ECEBF7E40E94CF1E0E94F02011F055
:1024F0000C947D1300912D03023011F00C9478138D
:10250000A3E4B3E00E94EA20082F0C3011F00C94F1
:10251000731380E08093F90187E0E3E4F3E002E0E5
:102520000A93ABE0B2E00E94A920ABE0B2E00E94C7
:10253000BA1AE4ECF7E40E94CF1E0E94601E89E004
:10254000E3E4F3E002E00A93ABE0B2E00E94BA1ADF
:102550000E94A920ABE0B2E00E94BA1AE4ECF7E4D2
:102560000E94CF1E0E94601E8BE0E3E4F3E002E0D5
:102570000A93ABE0B2E00E94BA1A0E94A920ABE035
:10258000B2E00E94C31A0E94D01AEBE0F2E0AFE082
:10259000B1E00E949E200E94B31CE6ECF7E40E948A
:1025A000CF1E0E94C91A0E94A41CAFE0B1E00E9495
:1025B000C31A0E94D01A81E0E3E4F3E002E00A9338
:1025C000ABE0B2E00E94A920ABE0B2E00E94BA1AF0
:1025D000EAECF7E40E94CF1E0E94601E83E0E3E471
:1025E000F3E002E00A93ABE0B2E00E94BA1A0E9464
:1025F000A920ABE0B2E00E94BA1AEAECF7E40E942C
:10260000CF1E0E94601E85E0E3E4F3E002E00A933F
:10261000ABE0B2E00E94BA1A0E94A920ABE0B2E09F
:102620000E94C31A0E94D01AEBE0F2E0A6E0B1E0EB
:102630000E949E200E94AD1CECECF7E40E94CF1E8D
:102640000E94C91A0E94A41CA6E0B1E00E94C31A0D
:102650000E94D01AA0E3B1E0E0EDF7E40E94CF1EA3
:102660000E94601E0E94A41CE6E0F1E0A0E3B1E03D
:102670000E94BA1A0E949E20A0E3B1E00E94BA1AFA
:10268000EAEFF7E40E94CF1E0E94601E0E94A41C85
:10269000EFE0F1E0A0E3B1E00E94BA1A0E949E20B0
:1026A000E3E0F1E00E94011DA5EBB2E08C93E0E0D5
:1026B000F1E00E94DE1DA1EBB2E00D931D932D937E
:1026C0003D93E2E3F0E0A1EBB2E094E07BE70E940F
:1026D000C2207091470270627093470281E080933C
:1026E00019030C94761386E08093F9010C947B1304
:1026F00084E08093F9010C948C17EEEFF7E40E94CC
:10270000CF1E0E94F02011F00C94BD1380E0809346
:10271000F9010E94A41CEFE0F1E0ABE0B2E00E94FE
:102720009E20A0E3B1E0E6E0F8E40E94CF1E0E9404
:10273000601EEBE0F2E0A0E3B1E00E94BA1A0E9452
:102740009E20A0E3B1E00E94BA1AE4E1F8E40E94FE
:10275000CF1E0E94601E0E94A41CE6E0F1E0ABE0E8
:10276000B2E00E949E20EBE0F2E0A0E3B1E00E9424
:10277000BA1A0E949E200C948C17E4E2F8E40E949E
:10278000CF1E0E94F02011F00C94F91380E080938A
:10279000F901E1EBF2E0ABE0B2E00E94171EA0E32A
:1027A000B1E0ECE2F8E40E94CF1E0E94601EEBE074
:1027B000F2E0A0E3B1E00E94BA1A0E949E20A0E3DA
:1027C000B1E00E94BA1AE0E4F8E40E94CF1E0E9431
:1027D000601EE1EBF2E0ABE0B2E00E941F1EEBE016
:1027E000F2E0A0E3B1E00E94BA1A0E949E200C948D
:1027F0008C17E8E4F8E40E94CF1E0E94F02011F04C
:102800000C94901400912D03033011F00C948B1450
:10281000A3E4B3E00E944320AEE1B1E00C93009149
:102820001E01003080E010F009F081E08F930091EC
:102830001E01073081E008F080E09F918923882302
:1028400011F40C948614A8E5B3E00E944320A5E29D
:10285000B1E00D931D932D933D93A5E2B1E00D9151
:102860001D912D913C91AEE1B1E0AD90BB24A0E56E
:10287000B2E0AA0CBB1CAA0CBB1CAA0DBB1D0D937D
:102880001D932D933C93EEE1F1E0A190BB24EEEF7C
:10289000FFEFAA0CBB1CAA0CBB1CEA0DFB1DA5E29A
:1028A000B1E094E07BE70E94C22080E08093F901D0
:1028B000A0E3B1E0E0E5F8E40E94CF1E0E94601EB4
:1028C000EEE1F1E0A0E3B1E00E94BA1A0E94FE1F1F
:1028D000A0E3B1E00E94BA1AE4ECF7E40E94CF1E34
:1028E0000E94601EEEE1F1E0A190BB24E0E5F2E081
:1028F000AA0CBB1CAA0CBB1CEA0DFB1DA0E3B1E09B
:102900000E94BA1A0E94F11F0C94891483E08093EC
:10291000F9010C948E1484E08093F9010C948C17C7
:10292000E6E6F8E40E94CF1E0E94F02011F00C941D
:10293000271500912D03033011F00C942215A3E408
:10294000B3E00E944320AEE1B1E00C9300911E0180
:10295000003080E010F009F081E08F9300911E01BB
:10296000073081E008F080E09F918923882311F4EB
:102970000C941D15A8E5B3E00E944320A5E2B1E048
:102980000D931D932D933D93A5E2B1E00D911D9103
:102990002D913C91AEE1B1E0AD90BB24A8E6B2E050
:1029A000AA0CBB1CAA0CBB1CAA0DBB1D0D931D932E
:1029B0002D933C93EEE1F1E0A190BB24E6E1F0E041
:1029C000AA0CBB1CAA0CBB1CEA0DFB1DA5E2B1E0C6
:1029D00094E07BE70E94C22080E08093F901A0E3AD
:1029E000B1E0E0E5F8E40E94CF1E0E94601EEEE137
:1029F000F1E0A0E3B1E00E94BA1A0E94FE1FA0E33A
:102A0000B1E00E94BA1AE4ECF7E40E94CF1E0E94E3
:102A1000601EEEE1F1E0A190BB24E8E6F2E0AA0C32
:102A2000BB1CAA0CBB1CEA0DFB1DA0E3B1E00E947D
:102A3000BA1A0E94F11F0C94201583E08093F901CB
:102A40000C94251584E08093F9010C948C17EEE624
:102A5000F8E40E94CF1E0E94F02011F00C948C1517
:102A600000912D03023011F00C948715A3E4B3E01C
:102A70000E944320AEE1B1E00C9300911E010030B2
:102A800080E010F009F081E08F9300911E01073083
:102A900081E008F080E09F918923882311F40C9451
:102AA0008215A0E3B1E0E6E7F8E40E94CF1E0E94A1
:102AB000601EEEE1F1E0A0E3B1E00E94BA1A0E94CC
:102AC000FE1FA0E3B1E00E94BA1AE4ECF7E40E9412
:102AD000CF1E0E94601EEEE1F1E0A190BB24E0E574
:102AE000F2E0AA0CBB1CAA0CBB1CEA0DFB1DA0E368
:102AF000B1E00E94BA1A0E94F11F80E08093F901B0
:102B00000C94851583E08093F9010C948A1584E078
:102B10008093F9010C948C17EEE7F8E40E94CF1E25
:102B20000E94F02011F00C94F11500912D03023059
:102B300011F00C94EC15A3E4B3E00E944320AEE145
:102B4000B1E00C9300911E01003080E010F009F01C
:102B500081E08F9300911E01073081E008F080E052
:102B60009F918923882311F40C94E715A0E3B1E029
:102B7000E6E8F8E40E94CF1E0E94601EEEE1F1E05C
:102B8000A0E3B1E00E94BA1A0E94FE1FA0E3B1E0E8
:102B90000E94BA1AE4ECF7E40E94CF1E0E94601E65
:102BA000EEE1F1E0A190BB24E8E6F2E0AA0CBB1C48
:102BB000AA0CBB1CEA0DFB1DA0E3B1E00E94BA1AEF
:102BC0000E94F11F80E08093F9010C94EA1583E0E4
:102BD0008093F9010C94EF1584E08093F9010C9433
:102BE0008C17E2E9F8E40E94CF1E0E94F02011F059
:102BF0000C945E1600912D03023011F00C945916BE
:102C0000A3E4B3E00E944320AEE1B1E00C93009155
:102C10001E01003080E010F009F081E08F930091F8
:102C20001E01073081E008F080E09F91892388230E
:102C300011F40C94541680E08093F90100911E0168
:102C400041E0041BA9E1B1E00C9380911901AAE2D3
:102C5000B3E00E94BA1E0E94B01E9C91982B9C93D8
:102C6000A0E3B1E0EAE9F8E40E94CF1E0E94601EF2
:102C7000EEE1F1E0A0E3B1E00E94BA1A0E94FE1F6B
:102C8000A0E3B1E00E94BA1AE4EDF5E40E94CF1E81
:102C90000E94601EA0E3B1E00E94BA1AEAE2F3E0EB
:102CA0000E948B200C94571683E08093F9010C94BA
:102CB0005C1684E08093F9010C948C17EEEAF8E43A
:102CC0000E94CF1E0E94F02011F00C9495160091E6
:102CD0002D03023011F00C94901680E08093F901DE
:102CE000A3E4B3E00E944320A0E4B2E00C93E0E050
:102CF000F0E0A0E4B2E07BE70E94BF20A0E3B1E0F7
:102D0000E6EBF8E40E94CF1E0E94601EE0E4F2E0D1
:102D1000A0E3B1E00E94BA1A0E94FE1F0C94931621
:102D200084E08093F9010C948C17ECECF8E40E9499
:102D3000CF1E0E94F02011F00C94B31680E0809317
:102D4000F901A0E3B1E0E6EDF5E40E94CF1E0E9498
:102D5000601EE0E4F2E0A0E3B1E00E94BA1A0E9433
:102D6000FE1F0C948C17E4EDF8E40E94CF1E0E9425
:102D7000F02011F00C94DD1680E08093F9010E94A0
:102D8000A304A0E3B1E0ECEDF8E40E94CF1E0E94A2
:102D9000601EE4E8F2E0A0E3B1E00E94BA1A0E94EB
:102DA0009E20A0E3B1E00E94BA1AE2ECF5E40E9492
:102DB000CF1E0E94601E0C948C17E6EEF8E40E9471
:102DC000CF1E0E94F02011F00C94311700912D03BA
:102DD000023011F00C942C1780E08093F901A3E4E9
:102DE000B3E00E944320A9E1B1E00C9300911901E6
:102DF000003080E010F009F081E08F93009119011C
:102E00000F3F81E008F080E09F918923882311F42F
:102E10000C9427178091190180934102E1E0F0E0C2
:102E2000A1E4B2E07BE70E94BF20A0E3B1E0EEEEB8
:102E3000F8E40E94CF1E0E94601EE1E4F2E0A0E3ED
:102E4000B1E00E94BA1A0E94FE1F0C942A1785E076
:102E50008093F9010C942F1784E08093F9010C946E
:102E60008C17E6E0F9E40E94CF1E0E94F02011F0DA
:102E70000C944F1780E08093F901A0E3B1E0EEE0FD
:102E8000F9E40E94CF1E0E94601EE1E4F2E0A0E39C
:102E9000B1E00E94BA1A0E94FE1F0C948C17E8E160
:102EA000F9E40E94CF1E0E94F02011F00C948917C3
:102EB00000912D03023011F00C94841780E0809370
:102EC000F901A3E4B3E00E944320A9E1B1E00C932F
:102ED00000911901003011F00C947917A0E3B1E0D2
:102EE000E0E2F9E40E94CF1E0E94601E2F980C942D
:102EF0008217A0E3B1E0ECE2F9E40E94CF1E0E9449
:102F0000601E2F9A0C94871784E08093F9010C942B
:102F10008C1781E08093F9010C940718EEE2F3E03E
:102F2000A9E2B1E00E949E20E9E2F1E0A9E2B1E06D
:102F30000E94A41EA9E2B1E0E6E2F7E40E94CF1EDF
:102F40000E94F02011F00C94AF1770914702706846
:102F50007093470280E08093F9010C940718EAE22D
:102F6000F7E40E94CF1E0E94F02011F00C94C217CB
:102F7000709147027F777093470280E08093F90158
:102F80000C940718EEE2F7E40E94CF1E0E94F02096
:102F900011F00C94E31770912C03706470932C0360
:102FA000E3E4F3E0A2ECB6E00E949E20E6E3F7E45F
:102FB0000E94CF1E0E94C91A0E94D01A80E08093FE
:102FC000F9010C940718E2E4F7E40E94CF1E0E9476
:102FD000F02011F00C94041870912C03706470931D
:102FE0002C03E3E4F3E0A2ECB6E00E949E20E6E3CB
:102FF000F7E40E94CF1E0E94C91A0E94D01A80E0F6
:103000008093F9010C94071882E08093F9010091F4
:10301000F901003018F011F00C9410180C941E18DF
:10302000E6E5F0E30E94CF1EA9EFB1E08C9199276D
:103030000E949C1EA0E3B1E00E94601EA0E3B1E0EC
:103040000E94C31A0E94D01A089500100E10AE10EC
:103050002E103E10A0114F4B00436F6D616E646FD8
:10306000206E6F207265636F6E6F6369646F004CD2
:103070006F6E676974756420636F6D616E646F2035
:103080006E6F2076616C696461004E756D65726F5C
:1030900020646520706172616D6574726F206E6F5F
:1030A0002076616C69646F004E756D65726F206487
:1030B0006520706172616D6574726F7320696E76E0
:1030C000616C69646F004572726F72206C6F6E671D
:1030D0006974756420706172616D6574726F2031FE
:1030E000004572726F72206C6F6E67697475642030
:1030F000706172616D6574726F203200506172612F
:103100006D6574726F206E6F2076616C69646F00FC
:103110004552524F5238004552524F522053442E7E
:1031200020496E74656E7465206465206E756576E1
:103130006F000000000003000000330000003303B4
:103140000000333300003333030033C00C00FF0FA3
:10315000FF0F5555555533333333777777770C0059
:10316000FCFFCC00FCFFCC0CFCFFCCCCFCFF0C002B
:10317000FCFFF0FFFFFF0E945003E6E3F9E40E942A
:10318000CF1E0E94C91A0E94D01A82E080931903B0
:10319000ACE2B3E08C9186FB16F00C94E2187091CF
:1031A0002C037F7B70932C03E4EDF6E40E94CF1E8A
:1031B0000E94C91AA2ECB6E00E94C31A0E94D01A5B
:1031C0000E94A11100912B03013011F00C943C19C5
:1031D00070912B037E7F70932B03ABE1B3E08C9156
:1031E0008F5F8C93ABE1B3E00C9145E00E94DA2055
:1031F0008C9300911B03003011F00C943C19A0E358
:10320000B1E0ECE4F9E40E94CF1E0E94601EA0E34E
:10321000B1E00E94EA20AFE1B1E08D9388278C9362
:10322000AFE1B1E0ED91FC91A0E3B1E00E94282173
:10323000A2E4B2E00D931D932D933D93A0E3B1E082
:103240000E94BA1AEEEEF6E40E94CF1E0E94601EA3
:10325000E2E4F2E0A0E3B1E00E94BA1A0E94762014
:10326000EAEDF6E40E94CF1E0E94C91AA0E3B1E085
:103270000E94C31A0E94D01AA7E4B2E08C9185FB89
:1032800016F00C94C81881E080931903ACE2B3E007
:103290008C9186FB16F00C94601970912C037F7B47
:1032A00070932C03E4EDF6E40E94CF1E0E94C91A2D
:1032B000A2ECB6E00E94C31A0E94D01A0E94A1118B
:1032C00081E080931C0100911C01063018F011F080
:1032D0000C94EA1900911C0141E0041BADE1B1E03E
:1032E0000C9380911D01AAE2B3E00E94BA1E0E94D5
:1032F000B01E0C900822689409F4E89416F00C941F
:10330000E21980911D01AAE2B3E00E94BA1E0E9458
:10331000B01E8C9189238C9300911C01013011F017
:103320000C949E19E4E5F9E40E94CF1E0E94C91A8C
:103330000E94D01A0E94400C0C94E219023011F045
:103340000C94AE19EAE5F9E40E94CF1E0E94C91A56
:103350000E94D01A0E94700D0C94E219033011F0F3
:103360000C94BC19E0E6F9E40E94CF1E0E94C91A31
:103370000E94D01A0C94E219043011F00C94C41974
:103380000E94A4050C94E219053011F00C94D41994
:10339000E6E6F9E40E94CF1E0E94C91A0E94D01AE4
:1033A0000E94F00E0C94E219063011F00C94E21910
:1033B000ECE6F9E40E94CF1E0E94C91A0E94D01ABE
:1033C0000E944410ACE1B1E08C918F5F8C9310F4BB
:1033D0000C946319A7E4B2E08C9183FB16F00C9473
:1033E000F81970914702777F709347020E94430655
:1033F0001D990C94371A0027A3E2B0E08C9185FB4D
:1034000000F94427A7E4B2E08C9186FB40F9041749
:1034100011F40C94351A8AE090E00E94411B1D992A
:103420000C94351AE2E7F9E40E94CF1E0E94C91AF3
:10343000A3E2B0E08C9185FBA0E8BFE30E94C01E30
:103440008D9388278C930E94C11A0E94D01AA3E200
:10345000B0E08C9185FBA7E4B2E08C9186F98C9367
:1034600070912A03706270932A030C94711A0027DA
:10347000A3E2B0E08C9185FB00F94427A7E4B2E019
:103480008C9186FB40F9041711F40C94711A8AE0B0
:1034900090E00E94411B1D9B0C94711AE2E7F9E435
:1034A0000E94CF1E0E94C91AA3E2B0E08C9185FB56
:1034B000A0E8BFE30E94C01E8D9388278C930E94D2
:1034C000C11A0E94D01AA3E2B0E08C9185FBA7E458
:1034D000B2E08C9186F98C9370912A03706270939C
:1034E0002A030C944619ED91FC91EF5FFF4FFC937A
:1034F000EE93089509D00E94331E00FC10D0089569
:1035000003D01ED001F8F9CF0024E89457FF02C081
:1035100009D0689400F80BD010F80124089502D067
:1035200009D00895509540954F5F5F4F0895E894F6
:1035300017FF0895009510950F5F1F4F6894089529
:10354000352F242FE894452B11F468940895512FBA
:10355000402F0027112780E1440F551F001F111F26
:10356000021B130B416018F4020F131F4E7F8A9544
:1035700099F708958F938D918823E9F711978F918B
:103580000895A0E8BFE38D91882311F00CD0FBCF04
:1035900008950E94661E802D11F005D0FACF08957F
:1035A0008DE001D08AE00090C00005FEFCCF809342
:1035B000C60008950090C80005FEFCCF8093CE00A1
:1035C000089500FC05D0089530D005D001F8F9CF5A
:1035D00037D03FD00895842F952FA62FB72FE8948A
:1035E000452B462B472B11F468940895402F512FFB
:1035F000622F732F0027112722273327F0E2440F71
:10360000551F661F771F001F111F221F331F081B26
:10361000190B2A0B3B0B416028F4080F191F2A1FB6
:103620003B1F4E7FFA9559F708950024E89477FFE1
:1036300002C006D0689400F809D010F8012408955B
:1036400012D04F5F5F4F6F4F7F4F0895E89437FF61
:10365000089500951095209530950F5F1F4F2F4FBF
:103660003F4F6894089540955095609570950895E2
:103670003197F1F70895689462F80895E89462F834
:103680000895EF93FF93EE27E82BE92B31F0E0EA62
:10369000FFE03197F1F70197D1F7FF91EF9108958E
:1036A0008DE207FD8D938F2D881F802F881F8F57E8
:1036B000082F6894F7F8802F87FF17C080958395AF
:1036C000082F80E38D938EE28D93802F815238F006
:1036D00080E38D9399279C930E94C41E08954427EC
:1036E0000A95802F09F19ED01FC0805230F09EE4D1
:1036F0009D9381E48D939D93EDCF4427DF92EF92CC
:10370000FF920F938FE1801B11F0082F8BD091D087
:103710009EE29D930F91FF90EF90DF9044270395D9
:10372000003209F4D5CF33D03F93E4ECF7E30E94A5
:10373000CF1E38E12F2D1E2D0D2DFF24EE24DD246C
:103740004427000F111F221FB8F42F923F920E94AE
:10375000661E102C0E94661E202C0E94661E302CB5
:103760000E94661E31970E94951E410DD21CE31CDB
:10377000F01C3F902F9003C033960E948E1E31960E
:103780000E948E1E3A95E9F63F9107D0A5CFDD0C39
:10379000EE1CFF1C0A95D9F70895002719E058D0B0
:1037A0008F93802B11F0039501C08F911A95B9F773
:1037B000802F882309F48CCF8F91805D8D930A959B
:1037C000D9F788CF0065CD1D80B2E60E405973074A
:1037D000A0ACB90350D6DC01286BEE00943577001D
:1037E000CA9A3B0065CD1D00B2E60E005973070072
:1037F000ACB90300D6DC01006BEE000035770000A9
:103800009A3B0000CD1D0000E60E0000730700008B
:10381000B9030000DC010000EE00000077000000AA
:103820003B000000F694E794D79447950A95D1F7AA
:10383000089500270DD08F9303958F2D8E298D2904
:10384000842BC1F78F91805D8D930A95D9F742CF74
:103850001F930F93002710E2440FDD1CEE1CFF1C8A
:10386000001F802F9AE0890B10F0082F43951A95BE
:1038700099F7802F0F911F910895082748E016951A
:10388000079510F4122701254A95C9F7089531E0EC
:1038900005C032E003C033E001C034E00FEF1FEF9A
:1038A00020EA91E0192EE9DF46D08991682FE5DF03
:1038B00042D08991E2DF3FD08991DFDF3CD059913E
:1038C000613078F0653068F48827D7DF34D0852FF1
:1038D000869509F481E0D1DF2ED0802F2CD0812F66
:1038E0002AC0663041F49D918C91C7DF24D0892F86
:1038F000C4DF21D0F2CF6031E9F48827BEDF1BD0CE
:10390000852F869509F481E0682FB7DF14D0862FC4
:10391000880FB3DF10D0513019F488279D9102C071
:103920009D918D91AADF07D0892FA7DF04D06A95DA
:10393000B9F7D3CF0895313011F40C94D31A323043
:1039400011F40C94DA1A0895A6E0B1E0E3E0F1E096
:103950000E94F11C33970C94CD1CE6E0F1E0A3E04B
:10396000B1E00C94DF1CEFE0F1E0A0E0B1E00C94DA
:10397000BB1CADE0BB27868197810E94E01E0D93A2
:10398000838194810E94E01E0D93808191810E9429
:10399000E01E0D930895EDE0FF2782810E94D51E61
:1039A0008AE38D9381810E94D51E8AE38D93808165
:1039B0000E94D51E88278C930895ADE0BB27808197
:1039C00091810E94E01E0D93838194810E94E01EEC
:1039D0000D93868197810E94E01E0D930895EDE07E
:1039E000FF2780810E94D51E8FE28D9381810E94E6
:1039F000D51E8FE28D9382810E94D51E88278D93DC
:103A0000089521D00F2D069506950F0D0D0D8F2DC4
:103A1000837021F41E2D13300AF40A958E2D8A9599
:103A20009927EAE3FAE30E94CF1EA8E1BB270E9490
:103A3000821E080F47E00C94DA20050101040602FB
:103A400004000305010393E0ADE002C096E0AAE0A4
:103A5000B0E08FB7F89401910D939A95E1F78FBF7D
:103A600008950191119145EB55E00E94801A440F91
:103A7000440FF42E0F31150728F481E0E82E03954A
:103A8000D02E24C00C33150728F482E0E82E0E5106
:103A9000D02E1CC00150150B4DE651E00E94A01A1B
:103AA000F40E7CE07A95872F9927EEECFAE30E94DA
:103AB000CF1EA2E1BB270E947C1E0217130790F3C2
:103AC0007395E72E021B130B0395D02E089500006B
:103AD0001F003B005A0078009700B500D400F300A7
:103AE000110130014E01019111912191308140E885
:103AF00051E561E070E00E94E41A042F152F0C9448
:103B0000331DA1DF0E2D0A95802F0295003220F083
:103B10001F2D137009F40395DA940D0D11279927C1
:103B2000E6E3FBE30E94CF1EA8E1BB270E94821EB2
:103B3000080F111F0895000F1B2A38475564738121
:103B4000909E81DF0F2D11274CE355270E947A1A92
:103B500055270E0D151F4CE322273327662777279D
:103B60000E943D1E0D0D131F231F08956CDFDF9271
:103B7000EF92FF920F2D1127222733274DE651E0B8
:103B800060E070E00E943D1EFF904F2D4D5F469516
:103B900046955527662777270E94D11FEF90DF9023
:103BA0000F931F932F933F930E94821D2227332749
:103BB0007F916F915F914F910C94D11F47DFAF922E
:103BC000BF92CF920E94B71D40E851E561E070E0DE
:103BD0000E943D1EFF90EF90DF900F931F932F9355
:103BE0003F930E94A21D7F916F915F914F910C9422
:103BF000D11F019111912191308140E851E561E09F
:103C000070E00E94E41A0C94091E01911191219117
:103C1000308140E15EE060E070E00E94E41AF42E42
:103C20004CE350E00E94801AE42ED02E0895AF930A
:103C3000BF930E94F91DBF91AF910C94CB1CAF9321
:103C4000BF930E94731DBF91AF910C94EF1C41E292
:103C5000FF2747BF849108950191119121913081EF
:103C60000895015010400F92B801469F8001479F70
:103C7000100D569F100D0F9008950F921F922F92C6
:103C8000C801D901489F80014A9F90014B9F202C79
:103C9000499F100D211D321D5A9F202C589F100D39
:103CA000211D321D599F200D311D689F200D311D92
:103CB000699F300D789F300D2F901F900F900895C1
:103CC0000E94661E0D920020D9F70895D89531966E
:103CD00028F48F938BB783958BBF8F910020089525
:103CE00091E005C092E003C094E001C098E0EEDFEF
:103CF0000D929A95E1F70895880F991FE80FF91F23
:103D00000DD0F0CFE80FF91F09D0EACF880F991F27
:103D1000880F991FE80FF91F01D0E6CF28F48F9381
:103D20008BB783958BBF8F91089528F48F938BB7B2
:103D30008A958BBF8F9108950196019721F00E947B
:103D4000661EE9F7FACF0895819104D08D938823F8
:103D5000D9F70895813618F08B3708F48F7D0895D0
:103D600091E0882321F08894991F8A95E9F7892F9B
:103D700090950895883018F011968850FBCF0895DB
:103D800080E30EF4839508950F9200240BBE0F90EC
:103D900008950F9301E00BBF0F91889408950F933E
:103DA0000027F9CF0F9302E0F6CF00278A3018F0F2
:103DB0008A500395FBCF005D0D93805D8D93089530
:103DC000805390530027813018F0065F8A95FBCF0F
:103DD000090F0895AF93BF930F939F938F938FB75E
:103DE0008F93A0E0B1E08C9183958D938C3309F093
:103DF0003DC088278E9311968C9183958D938C333B
:103E000009F034C088278E9311968C9183958D93F9
:103E1000883161F588278E9311968C9183958D93C7
:103E20009C910EE1943089F0963079F0993069F0E8
:103E30009B3059F00CE1923039F411969C91119716
:103E4000937019F4039501C00FE1801778F071F0B9
:103E500081E08E9311968C9183958D938D3031F402
:103E600081E08E9311968C9183958C938F918FBF67
:103E70008F919F910F91BF91AF910F921F922F92AF
:103E80003F924F925F927F92AF92BF920F931F9398
:103E90002F933F934F935F936F937F938F939F9352
:103EA000AF93BF93CF93DF93EF93FF939FB79F930E
:103EB0009BB79F9399279BBF0E94D1029F919BBF65
:103EC0009F919FBFFF91EF91DF91CF91BF91AF91F4
:103ED0009F918F917F916F915F914F913F912F9122
:103EE0001F910F91BF90AF907F905F904F903F9048
:103EF0002F901F900F90189599278D919395882357
:103F0000E1F7939511968C9311978E919A95D1F72D
:103F10000895EA2FFB2F00244C918D9103948E324B
:103F2000E1F711248D9113948823E1F71A94101668
:103F300040F41197202F2119239580E38D932A9522
:103F4000E9F7113039F59927AE2FBF2FA00DB91F12
:103F5000A00FB91F8C919C93853308F421C031E0E8
:103F60008E918E32E9F38D3241F0830F8A3319F44A
:103F700080E331E001C033278C93AE1789F73323F8
:103F800041F0AE2FBF2FB8DF81E34D3209F43196F7
:103F9000808308958827E00DF81FE00FF81F8083C5
:103FA0000895040F151F261F371F0895041B150BB6
:103FB000260B370B089504171507260737070895B2
:103FC000000F111F221F331F089500951095209593
:103FD00030950F5F1F4F2F4F3F4F08950191108174
:103FE0000FC00E942C1E0EC00E942C1E10C00191FA
:103FF000108117FF05C03FEF2FEF04C0008111278C
:104000002227332737FF03C0E0DF8DE28D93CF9265
:10401000DF92EF92AA24BB24CC24DD24EE2440E2DC
:10402000EAE0FF2755E093E38081890F87FD9F70C9
:1040300083FD907F891B81935A95A9F7C1DFAA1C44
:10404000BB1CCC1CDD1CEE1C4A9551F7E894EFE03C
:10405000FF2782910BD0EB30E0F71EF068948A2D99
:1040600009D04D93EF90DF90CF900895982F8295CF
:1040700001D0892F8F70805D26F0803309F4089578
:1040800068948D93089500271127222733271DD088
:104090008A3328F4803318F005D015D0F9CF0EF408
:1040A00094CF089580538F93402F512F622F732FF9
:1040B00087DF86DF76DF84DF8F919927080F191F4E
:1040C000291F391F08958D910895E894FCDF8032EF
:1040D000E9F38B32D9F38930C9F38D3211F4689446
:1040E000F2CF089541E003C042E001C044E0E40F94
:1040F0008827F81F8291982F829506D0892F04D0A7
:104100004A95C1F70C949B208F708A3008F0895F24
:10411000805D8D93089541E0E40F8827F81F829118
:1041200038E098E1880F991F9D933A95D1F74A9509
:10413000B1F70C949B2088278D93089581918D93DE
:104140008823E1F7089594E081918D939A95E1F7A2
:10415000089509919191992359F08A95D9F731974A
:10416000002331F081918D930A958823C9F7089532
:10417000E2CFF999FECFE1BDF2BD3196089591E00D
:1041800001C092E07B3751F47FB7F894F2DF8D9154
:1041900080BDFA9AF99A9A95C9F77FBF7727089553
:1041A00091E001C092E0E5DFF89A80B58D939A9591
:1041B000D1F70895FF93881BF9E0001FFA9511F4D9
:1041C000FF910895881F841B18F4840F8894F5CFFD
:1041D0000894F3CF8FEF83959D919923E1F708958C
:1041E000689401C0E894AF93BF938D9116F09191BC
:1041F00003C00E94661E902D891718F011F48823C1
:10420000A1F7BF91AF9108950D919981903009F078
:1042100013D0502788E0440F551F10F4422753272E
:104220008A95C9F7319781F789919991803019F072
:104230008A0105D0A801089588E0112701C080E116
:10424000080116940794001F111F8A95D1F708954D
:104250000FEF1FEF2FEF3FEF60E273E888EB9DEE6B
:104260000D90002548E08894379527951795079578
:1042700020F406271727282739274A95A1F73197D1
:1042800079F700951095209530950895689401C0B0
:10429000E8942227102F231709F4089526F40E948A
:1042A000661E802D01C08191803081F0891741F018
:1042B00070E08D931A9591F7239571E01D93EACFE5
:1042C00001D0E8CF703011F077270895772331F4CB
:1042D0002395882713958D931A95E9F70895B7FECE
:1042E000089590E8B91611F4D0FE08959FEFD91AF9
:1042F000E90AF90A09F403950895D190E190F19043
:104300000191089521913191419151910895DD924A
:10431000ED92FD920C930895502F2D2D3E2D4F2D93
:10432000612F0895652F90E8440F551F5927990F65
:1043300047956078102F90E8FF0C001F0927990F10
:10434000F794107800380895FF0C90E89027110F2B
:104350009795F794092F08951127BD2CDE2CEF2C8B
:10436000F02E0EE1FF2039F4FE2CED2CDB2CBB24CB
:104370000850C2F775C032F00A95BB0CDD1CEE1C6C
:10438000FF1CF9CFACDFE0CF102FBD2CDE2CEF2CC3
:10439000F02E11234AF4B094D094E094F0949FEF5F
:1043A000B91AD90AE90AF90A0EE1FF2039F4FE2CFC
:1043B000ED2CDB2CBB240850C2F752C032F00A951A
:1043C000BB0CDD1CEE1CFF1CF9CF89DFBDCF2DEC33
:1043D0003CEC4CEC5DE366270FC08FDF9DDFDD24F6
:1043E000EE2490E8F92E0FE307C08CDF05C02227EA
:1043F000332740E251E46627552351F1002381F130
:1044000091DF71F11627005850580894050B18F4E5
:1044100007FD03C025C007FD23C0469537952795A6
:10442000F694E794D79425D0FF202AF0DD0CEE1CFB
:10443000FF1C015073F09D2D969548F0DD203AF455
:10444000EE202AF491E0D90E9927E91EF91E7CCFBF
:1044500007C09FE7092FF92A9FEFD92EE92E08956B
:10446000DD24EE24FF240027112708950FE79FEF96
:10447000F2CF9F929924AA24BB2488E1D216E306A6
:10448000F40628F0D21AE30AF40A089401C08894CA
:10449000991CAA1CBB1CDD0CEE1CFF1C8A9571F735
:1044A000D92CEA2CFB2C9F9008953CDFD9F0503892
:1044B000C9F016270058952F90580894091F12F438
:1044C00018F40EC008F00EC00FD0FF202AF0BB0C6D
:1044D000DD1CEE1CFF1C02C0039513F000DF34CF7F
:1044E0000C9429220C9430229F92FF92EF928D2DF2
:1044F000FF24EE24DD24BB2493E0849F1001829FDF
:10450000B00CD11CE21CF31C839FD00CE11C2224B4
:10451000F21C9A9531F0BD2CDE2CEF2CFF248F91EC
:10452000ECCF9F9008950E94661E202D0E94661E6B
:10453000302D0E94661E402D0E94661E502D08954B
:1045400000007A440000C842000080BF30372F309E
:10455000312F3235000031313A32383A30300000F4
:104560002A2A2A2A2A2A2A2A2A2A2A2A20454D455C
:104570005445522032303235202A2A2A2A2A2A2A21
:104580002A2A2A2A2A0033302D31322D3230323570
:104590002031323A30303A343300302E302E31323E
:1045A0003900454D455445522E4241530000417556
:1045B00074003D002C204F46460049447365723C10
:1045C00000003E00556C74696D6120414354434CBA
:1045D0004B2000002C00454E414255473D004944C8
:1045E000536C6176653E0000434E5452696E693DDE
:1045F00000005472792000005074723D00002C209D
:10460000416464723D00545820005054524D44425D
:104610003D00563366733D0056613D0056623D00D5
:1046200056633D004933733D000049613D004962D6
:104630003D0049633D0045616733733D00004561BE
:10464000673D00004562673D00004563673D00002F
:1046500050777233733D0000507772613D005077A0
:1046600072623D00507772633D00456133733D00D7
:10467000457233733D00667265633D0043543D00EF
:1046800056543D00507472206E6F2076616C0000AD
:10469000524547204D4442204445433D00002C20D4
:1046A0004845583D00002C204445433D00004352FE
:1046B00043206661696C20656E20414444523D0090
:1046C0004573706572612052504920005250497400
:1046D000783E0000534552313D0024005458415566
:1046E0005431203B0000412C00002D3100002600F9
:1046F000545841555434203B00002D32000054588A
:1047000041555435203B00002D3500002C2C2C0049
:10471000545841555436203B00002D3600002C2CB7
:104720002C2C2C2C00004F4B0000455252005345BE
:10473000544D424400004E4557204D444320434DC4
:10474000440053455444414100004E6F20636D6462
:104750002076616C00004C45455646570000566572
:104760007273696F6E2046573A2046656368612010
:104770003C003E2C204172636869766F203C00004B
:104780005345544C45440000536520636F6E666981
:1047900067757261207365746C6564206120000028
:1047A000525354564152000056616C6F726573202B
:1047B000706F722064656661756C74005345544374
:1047C0004C4B00003A00543E00002F00443E0000D5
:1047D0005741544348494E4720494E464F524D4158
:1047E0002E20536520636F6E66696775726F207245
:1047F000656C6F6A20656E200000206120005349BF
:1048000053434C4B0000486F7261206163747561C3
:104810006C3D00002C2046656368612061637475FF
:10482000616C3D004C4545434C4B0000556C746930
:104830006D612041435420434C4B2061203D0000DA
:104840002C2064656C2000005345544155540000F1
:10485000536520636F6E66696775726F2074782088
:104860004155542000005345544F464600004C45E6
:1048700045415554000054782041757420004C4542
:10488000454F464600004F66667365742041757457
:1048900020005345544E4557000053652061637412
:1048A00069766F2054782E204155542000005345DE
:1048B000544255470000536520636F6E6669677503
:1048C000726F20454E414255473D00004C454542E0
:1048D000554700004C454552494400004944207367
:1048E0006572203C00005345544449520000536512
:1048F00020636F6E66696775726F204944736C61DF
:104900007665206120004C454544495200004944E9
:10491000736C617665203D0053455452454C000050
:1049200052455345542072656C6500005345542030
:1049300072656C65000045737065726120434C4B75
:104940002064656C20536572766572004143544360
:104950004C4B000041555431000041555432000089
:1049600041555433000041555435000041555436EB
:0C4970000000537075657274613D00001A
:00000001FF
