:100000000C94460018950000189500001895000003
:10001000189500001895000018950000189500002C
:100020001895000018950000189500000C94012008
:10003000189500001895000018950000189500000C
:1000400018950000189500000C94F7011895000011
:100050000C94BB001895000018950000189500003E
:1000600018950000189500001895000018950000DC
:100070000C949E011895000018950000189500003A
:100080001895000018950000189500008FEF8DBF9F
:10009000C0E8E8E94E2E80E48EBFD0E4FFE35F2E97
:1000A000A89584B7082E882784BF88E19927809374
:1000B000600090936000EEEFFFE3A0E0B1E08827DE
:1000C0008D933197E9F787E68093C40080E08093B1
:1000D000C50088E18093C1006624209A25982D9A56
:1000E000279A2F9885E085BD80E084BD70916E00D1
:1000F000716070936E0085E085BD80E28093B600EC
:1001000085E08093B1007091700071607093700011
:10011000A6E0B1E0E0E7F7E40E94E61F0E94771F47
:100120000E94C41DAFE0B1E0EAE7F7E40E94E61FD9
:100130000E94771F0E94CA1D7091C1007068709361
:10014000C10083E38093CC0080E08093CD00709168
:10015000C8007D7F7093C80087E08093CA0088E163
:100160008093C900229A7091C90070687093C90089
:1001700078940C9488190F921F922F923F924F926D
:100180005F927F92AF92BF920F931F932F933F93F3
:100190004F935F936F937F938F939F93AF93BF938F
:1001A000CF93DF93EF93FF939FB79F939BB79F935B
:1001B00099279BBFA1ECB6E08091C6008C9384E2A6
:1001C000482F0091C106041711F00C94F2007091B1
:1001D0002C03706870932C03A8EFB5E088278C93EC
:1001E0000C94800185E2482F041711F00C94030150
:1001F00070912C03706270932C03ACE8B7E08827F1
:100200008C930C9480010D3011F00C944701ACE2FA
:10021000B3E08C9187FB16F00C94260170912C03AF
:100220007F7770932C0380E0A8EFB5E00E94D11B8C
:100230008D9388278C93E8EFF5E0A2ECB6E00E945E
:10024000B52170912C03706470932C03ACE2B3E081
:100250008C9185FB16F00C94450170912C037F7DE9
:1002600070932C0380E0ACE8B7E00E94D11B8D9323
:1002700088278C93ECE8F7E0A9E1B8E00E94B5216B
:1002800070912C03706170932C030C9480010F31DA
:1002900018F011F00C944E010C948001ACE2B3E024
:1002A0008C9187FB16F00C945F01A1ECB6E08C9169
:1002B000A8EFB5E00E94D11B8D9388278C93ACE208
:1002C000B3E08C9185FB16F00C948001A1ECB6E0B4
:1002D0008C91ACE8B7E00E94D11B8D9388278C935A
:1002E000ACE8B7E00E940122082F0C3818F011F09A
:1002F0000C947C010C948001ACE8B7E088278C93C7
:100300009F919BBF9F919FBFFF91EF91DF91CF91F5
:10031000BF91AF919F918F917F916F915F914F911D
:100320003F912F911F910F91BF90AF907F905F9061
:100330004F903F902F901F900F9018950F921F9203
:100340002F923F924F925F927F92AF92BF920F9304
:100350001F932F933F934F935F936F937F938F934D
:100360009F93AF93BF93CF93DF93EF93FF939FB789
:100370009F939BB79F9399279BBFA6EAB8E0809174
:10038000CE008C93ACE2B3E08C9183FB16F00C941E
:10039000D901A8EBB2E08C918F5F8C938091A60875
:1003A000A8EBB2E0AD90BB24A6EAB8E0AA0DBB1D55
:1003B0008C939F919BBF9F919FBFFF91EF91DF9186
:1003C000CF91BF91AF919F918F917F916F915F91ED
:1003D0004F913F912F911F910F91BF90AF907F90C0
:1003E0005F904F903F902F901F900F9018950F9215
:1003F0001F922F923F924F925F927F92AF92BF9245
:100400000F931F932F933F934F935F936F937F931C
:100410008F939F93AF93BF93CF93DF93EF93FF930C
:100420009FB79F939BB79F9399279BBF74E676BD19
:10043000A3E1B3E08C918F5F8C93A3E1B3E00C91C7
:1004400048E00E94F1218C9300911303003011F0D9
:100450000C946302A4E1B3E00C9140E20E94F1210C
:100460008C93ECECF2E30E94E61FA9E1B3E08C91DF
:100470009927A5E1B3E00E949D1F80911403A5E197
:10048000B3E00E94D11F0E94C71F0C9008226894FD
:1004900009F4E894A7E4B2E08C9182F98C93A7E484
:1004A000B2E08C9194E089278C93A7E4B2E08C9120
:1004B00082FBA5E2B0E08C9180F98C93A4E1B3E0DB
:1004C0008C918F5F8C93ACE2B3E08C9183FB16F040
:1004D0000C948E02A0ECB2E00E948A1BA0ECB2E069
:1004E0000D911C9140EA50E00E94B71BA0ECB2E0D5
:1004F0000D931C93A0ECB2E00D911C91003050E0E4
:10050000150711F00C948E0270912C03777F709375
:100510002C0370914702786070934702A7E4B2E021
:100520008C9180FB16F00C94AD02ACE1B3E00E941C
:100530008A1BAEE1B3E04D915C91ACE1B3E00D916B
:100540001C910417150711F00C94AB02709147022F
:100550007260709347020C94B30280E090E0ACE1CB
:10056000B3E08D939C939F919BBF9F919FBFFF9101
:10057000EF91DF91CF91BF91AF919F918F917F913B
:100580006F915F914F913F912F911F910F91BF906C
:10059000AF907F905F904F903F902F901F900F9063
:1005A0001895E0E0F1E00E94F51EA2E2B3E00D93A1
:1005B0001D932D933D9381E08093200300912003B0
:1005C000063018F011F00C944A030091200341E02A
:1005D000041BA1E2B3E00C93A2E2B3E00D911D91E4
:1005E0002D913C91A0E2B3E0AD90BB24A8E6B2E02F
:1005F000AA0CBB1CAA0CBB1CAA0DBB1D4D915D9186
:100600006D917C910E94ED20A6E2B3E00D931D93C5
:100610002D933D93A6E2B3E00D911D912D913C9158
:10062000A0E2B3E0AD90BB24A0E5B2E0AA0CBB1CF5
:10063000AA0CBB1CAA0DBB1D4D915D916D917C91C7
:100640000E94FB1BA6E2B3E00D931D932D933D93F7
:1006500040E050E060E070E0A6E2B3E00D911D9153
:100660002D913C910E94F22011F00C944203809154
:100670002103AAE2B3E00E94D11F0E94C71F9C91F0
:10068000982B9C93A0E2B3E08C918F5F8C9310F435
:100690000C94DE0270912B03716070932B0308950C
:1006A0002898E4E8F7E40E94E61F0E94E01B0E94FD
:1006B000E71BA0E8BFE3EAEAF7E40E94E61F0E9416
:1006C000771F0E94D81B0E94E71BA0E8BFE3EEEB58
:1006D000F7E40E94E61F0E94771F0E94D81B0E9429
:1006E000E71BA0E8BFE3E6ECF7E40E94E61F0E94E8
:1006F000771F0E94D81B0E94E71B81E0809319039B
:1007000081E08093190100911901063018F011F071
:100710000C941604E9E1F1E0A190BB24EEEFFFEFA9
:10072000AA0CBB1CAA0CBB1CEA0DFB1DA9E1B1E085
:10073000AD90BB24A0E5B2E0AA0CBB1CAA0CBB1C6C
:10074000AA0DBB1D94E00E94EA21E9E1F1E0A1902D
:10075000BB24E6E1F0E0AA0CBB1CAA0CBB1CEA0D12
:10076000FB1DA9E1B1E0AD90BB24A8E6B2E0AA0C64
:10077000BB1CAA0CBB1CAA0DBB1D94E00E94EA2165
:10078000E2EDF7E40E94E61F0E94E01BE9E1F1E0E0
:10079000A0E8BFE30E9415210E94D81BE6EDF7E414
:1007A0000E94E61F0E94E01BE9E1F1E0A190BB245A
:1007B000E0E5F2E0AA0CBB1CAA0CBB1CEA0DFB1D79
:1007C000A0E8BFE30E9408210E94D81BE8EDF7E4EF
:1007D0000E94E61F0E94E01BE9E1F1E0A0E8BFE310
:1007E0000E9415210E94D81BE6EDF7E40E94E61F47
:1007F0000E94E01BE9E1F1E0A190BB24E8E6F2E011
:10080000AA0CBB1CAA0CBB1CEA0DFB1DA0E8BFE395
:100810000E9408210E94D81B0E94E71BA9E1B1E0B9
:100820008C918F5F8C9310F40C9483030E94A3042B
:10083000EEEDF7E40E94E61F0E94E01BA4E8B2E0A0
:100840000E94DA1BE6EEF7E40E94E61F0E94E01B1E
:100850000E94E71BE2E3F0E0A1EBB2E094E00E942B
:10086000EA21E8EEF7E40E94E61F0E94E01BE1EBBC
:10087000F2E0A0E8BFE30E94361F0E94D81BE8EF19
:10088000F7E40E94E61F0E94E01BE1EBF2E0A0E823
:10089000BFE30E942E1F0E94D81B0E94E71BE0E0CE
:1008A000F0E0A0E4B2E00E94E721EAEFF7E40E9462
:1008B000E61F0E94E01BE0E4F2E0A0E8BFE30E9434
:1008C00015210E94D81B0E94E71BE1E0F0E0A1E4A3
:1008D000B2E00E94E721E2E0F8E40E94E61F0E94F5
:1008E000E01BE1E4F2E0A0E8BFE30E9415210E94D2
:1008F000D81B0E94E71BE6E3F0E0A1E1B3E00E9411
:10090000E921A1E1B3E00D911C910F5F1F4FA1E11F
:10091000B3E00D931C93E6E3F0E0A1E1B3E07BE7E5
:100920000E94D821ECE0F8E40E94E61F0E94E01B40
:10093000E1E1F3E0A0E8BFE30E9405210E94D81B9B
:100940000E94E71B089580E08093190180E0809366
:100950001A01A4E8B2E088278C938EE080931901F5
:1009600000911901073118F011F00C94CE04A9E19F
:10097000B1E0EC91FF270E943E1F082FE0E1F0E07C
:10098000A4E8B2E00E94D11B0E948921A9E1B1E054
:100990008C918F5F8C9310F40C94B004E4E8F2E037
:1009A000A0E3B1E00E94B521A4E8B2E088278C93CF
:1009B0008EE08093190100911901073118F011F0B0
:1009C0000C94F904A9E1B1E0EC91FF270E943E1FCD
:1009D000082FE0E1F0E0A4E8B2E00E94D11B0E9401
:1009E0008921A9E1B1E08C918F5F8C9310F40C9474
:1009F000DB04E0E3F1E0A4E8B2E00E94092211F098
:100A00000C94050581E080931901AAE1B1E08C9175
:100A10008F5F8C9300911901003011F00C94240524
:100A200084EF91E00E94581CE6E1F8E40E94E61F82
:100A30000E94E01BEAE1F1E0A0E8BFE30E9415217B
:100A40000E94D81B0E94E71B00911901013081E030
:100A500009F080E08F9300911A010A3081E009F0DB
:100A600080E09F91892B882311F40C94A9040895A8
:100A700000E010E020E030E0A1E2B1E00D931D9332
:100A80002D933C9381E08093190100911901063068
:100A900018F011F00C948E05E9E1F1E0A190BB246F
:100AA000EEEFFFEFAA0CBB1CAA0CBB1CEA0DFB1D52
:100AB0000CE211E020E030E0A0E1BB2794E07BE70E
:100AC0000E94D921E9E1F1E0A190BB24E6E1F0E048
:100AD000AA0CBB1CAA0CBB1CEA0DFB1DA1E2B1E0D9
:100AE00094E07BE70E94D921A1E2B1E00D911D9134
:100AF0002D913C914CE350E060E070E00E94E820D2
:100B0000A1E2B1E00D931D932D933D93A9E1B1E0D6
:100B10008C918F5F8C9310F40C944505E1E0F0E02C
:100B2000A0E1BB2781E08C937BE70E94D621EEE019
:100B3000F0E00AE010E020E030E0A0E1BB2794E024
:100B40007BE70E94D9210895A2ECB2E08C918F5FDF
:100B50008C93A2ECB2E00C9146E00E94F1218C93C0
:100B6000E4EEF1E30E94E61FA2ECB2E08C9199273B
:100B7000A6EBB2E00E94931FECE1F8E40E94E61FAE
:100B80000E94E01BE2ECF2E0A0E8BFE30E94152126
:100B90000E94D81BE2E2F8E40E94E61F0E94E01BDC
:100BA000E6EBF2E0A0E8BFE30E948B210E94D81B95
:100BB0000E94E71B81E080931E0100911E0100341A
:100BC00018F011F00C94F60580E0AEE1B1E0AD90C4
:100BD000BB24A6EAB8E0AA0DBB1D8C93AEE1B1E040
:100BE0008C918F5F8C9310F40C94DD0580E08093E2
:100BF000B802A0E4B2E00C9103FB16F00C942006BE
:100C0000EAE2F8E40E94E61F0E94E01BE6EBF2E055
:100C1000A0E8BFE30E948B210E94D81B0E94E71B23
:100C200084E28A93A6EBB2E08D919C918A939A9389
:100C300083E08A93809141020E945E1D0E94E71B1F
:100C400070912C03786070932C032A9A84E28A9323
:100C5000A6EBB2E08D919C918A939A9383E08A935C
:100C6000809141020E94601DEF93FF93ECE6F7E153
:100C70000E944F1CFF91EF912A987091470270617A
:100C8000709347020895A0E4B2E00C9103FB16F0C4
:100C90000C949206EEE2F8E40E94E61F0E94E01B2C
:100CA000E8EBF2E0A0E8BFE30E9415210E94D81B08
:100CB000E2E2F8E40E94E61F0E94E01BE6EBF2E0AD
:100CC000A0E8BFE30E948B210E94D81B0E94E71B73
:100CD00081E080931E014091B80200911E0104172B
:100CE00018F011F00C949006EEE1F1E0A190BB2415
:100CF000E6EAF8E0EA0DFB1DA0E8BFE30E948921C7
:100D00000E94D81BE8EFF7E40E94E61F0E94E01B58
:100D1000AEE1B1E08C918F5F8C9310F40C946B0674
:100D20000E94E71B0091B80242E0041BA9EBB2E06D
:100D30000C930091B90241E0040FAAEBB2E00C93CE
:100D40000091BA0241E0040FABEBB2E00C9381E0FA
:100D50008A9381E08A93A9EBB2E0EC91FF274FEFF1
:100D60005FEF25E030E8A7EAB8E00E941B22ACEB79
:100D7000B2E04D935C93ABEBB2E0AD90BB24A6EA3E
:100D8000B8E0AA0DBB1D9C91AAEBB2E0AD90BB24CC
:100D9000A6EAB8E0AA0DBB1D8C91AFE1B1E08D933E
:100DA0009C93AFE1B1E04D915C91ACEBB2E00D9161
:100DB0001C910417150711F00C947F0BA7E4B2E007
:100DC0008C9184FB16F00C94170B0091C20200303A
:100DD00011F00C9485078091AA0880934F028091AE
:100DE000AB0880934E028091AC0880934D028091B5
:100DF000AD0880934C02E6E3F8E40E94E61F0E94EF
:100E0000E01BECE4F2E0A0E8BFE30E940B210E94AB
:100E1000D81B0E94E71B8091AE0880934F028091FF
:100E2000AF0880934E028091B00880934D0280916C
:100E3000B10880934C02ACE4B2E08D919C91A3EC9C
:100E4000B2E08D939C93ECE3F8E40E94E61F0E94CD
:100E5000E01BE3ECF2E0A0E8BFE30E9405210E9462
:100E6000D81B0E94E71B8091B20880934F028091AB
:100E7000B30880934E028091B40880934D02809114
:100E8000B50880934C02ACE4B2E08D919C91A5EC46
:100E9000B2E08D939C93E0E4F8E40E94E61F0E9488
:100EA000E01BE5ECF2E0A0E8BFE30E9405210E9410
:100EB000D81B0E94E71B8091B60880934F02809157
:100EC000B70880934E028091B80880934D028091BC
:100ED000B90880934C02ACE4B2E08D919C91A7ECF0
:100EE000B2E08D939C93E4E4F8E40E94E61F0E9434
:100EF000E01BE7ECF2E0A0E8BFE30E9405210E94BE
:100F0000D81B0E94E71B0C94150B013011F00C94B8
:100F100063088091AA0880934F028091AB08809368
:100F20004E028091AC0880934D028091AD08809371
:100F30004C02E4E6F7E40E94E61F0E94A523ECE4DD
:100F4000F2E00E9494220E94BE220E940E23EDE055
:100F5000F0E0ADECB2E00E94BA21E8E4F8E40E94CF
:100F6000E61F0E94E01BEDECF2E0A0E8BFE30E9468
:100F700094220E94671C0E94D81B0E94E71B80914C
:100F8000AE0880934F028091AF0880934E0280910B
:100F9000B00880934D028091B10880934C02E4E642
:100FA000F7E40E94E61F0E94A523ECE4F2E00E9411
:100FB00094220E94BE220E940E23EDE0F0E0A1EDFB
:100FC000B2E00E94BA21EEE4F8E40E94E61F0E941B
:100FD000E01BE1EDF2E0A0E8BFE30E9494220E9452
:100FE000671C0E94D81B0E94E71B8091B208809367
:100FF0004F028091B30880934E028091B408809391
:101000004D028091B50880934C02E4E6F7E40E941B
:10101000E61F0E94A523ECE4F2E00E9494220E94C5
:10102000BE220E940E23EDE0F0E0A5EDB2E00E94AA
:10103000BA21E2E5F8E40E94E61F0E94E01BE5ED1C
:10104000F2E0A0E8BFE30E9494220E94671C0E9485
:10105000D81B0E94E71B8091B60880934F028091B5
:10106000B70880934E028091B80880934D0280911A
:10107000B90880934C02E4E6F7E40E94E61F0E9460
:10108000A523ECE4F2E00E9494220E94BE220E947A
:101090000E23EDE0F0E0A9EDB2E00E94BA21E6E512
:1010A000F8E40E94E61F0E94E01BE9EDF2E0A0E8F0
:1010B000BFE30E9494220E94671C0E94D81B0E94DA
:1010C000E71B0C94150B023011F00C944109809130
:1010D000AA0880934F028091AB0880934E028091C2
:1010E000AC0880934D028091AD0880934C02E8E6F5
:1010F000F7E40E94E61F0E94A523ECE4F2E00E94C0
:1011000094220E94BE220E946723EDE0F0E0A1E05D
:10111000B3E00E94BA21EAE5F8E40E94E61F0E94CB
:10112000E01BE1E0F3E0A0E8BFE30E9494220E940C
:10113000671C0E94D81B0E94E71B8091AE08809319
:101140004F028091AF0880934E028091B008809347
:101150004D028091B10880934C02E8E6F7E40E94CA
:10116000E61F0E94A523ECE4F2E00E9494220E9474
:10117000BE220E946723EDE0F0E0A5E0B3E00E940C
:10118000BA21E2E6F8E40E94E61F0E94E01BE5E0D7
:10119000F3E0A0E8BFE30E9494220E94671C0E9433
:1011A000D81B0E94E71B8091B20880934F02809168
:1011B000B30880934E028091B40880934D028091D1
:1011C000B50880934C02E8E6F7E40E94E61F0E940F
:1011D000A523ECE4F2E00E9494220E94BE220E9429
:1011E0006723EDE0F0E0A9E0B3E00E94BA21E8E671
:1011F000F8E40E94E61F0E94E01BE9E0F3E0A0E8AB
:10120000BFE30E9494220E94671C0E94D81B0E9488
:10121000E71B8091B60880934F028091B7088093B6
:101220004E028091B80880934D028091B908809356
:101230004C02E8E6F7E40E94E61F0E94A523ECE4D6
:10124000F2E00E9494220E94BE220E946723EDE0F9
:10125000F0E0ADE0B3E00E94BA21EEE6F8E40E94CF
:10126000E61F0E94E01BEDE0F3E0A0E8BFE30E9470
:1012700094220E94671C0E94D81B0E94E71B0C94BA
:10128000150B033011F00C941F0A8091AA0880936B
:1012900053028091AB08809352028091AC088093F6
:1012A00051028091AD0880935002ECE6F7E40E9471
:1012B000E61F0E94A523E0E5F2E00E9494220E942E
:1012C000D6220E946723EDE0F0E0ADEDB2E00E948F
:1012D000BA21E4E7F8E40E94E61F0E94E01BEDED6E
:1012E000F2E0A0E8BFE30E9494220E94671C0E94E3
:1012F000D81B0E94E71B8091AE0880935302809117
:10130000AF08809352028091B0088093510280917F
:10131000B10880935002ECE6F7E40E94E61F0E94B9
:10132000A523E0E5F2E00E9494220E94D6220E94CA
:101330006723EDE0F0E0A1EEB2E00E94BA21ECE715
:10134000F8E40E94E61F0E94E01BE1EEF2E0A0E854
:10135000BFE30E9494220E94671C0E94D81B0E9437
:10136000E71B8091B208809353028091B308809369
:1013700052028091B408809351028091B508809305
:101380005002ECE6F7E40E94E61F0E94A523E0E588
:10139000F2E00E9494220E94D6220E946723EDE090
:1013A000F0E0A5EEB2E00E94BA21E2E8F8E40E9483
:1013B000E61F0E94E01BE5EEF2E0A0E8BFE30E941A
:1013C00094220E94671C0E94D81B0E94E71B8091F8
:1013D000B608809353028091B7088093520280919F
:1013E000B808809351028091B90880935002ECE6CE
:1013F000F7E40E94E61F0E94A523E0E5F2E00E94C8
:1014000094220E94D6220E946723EDE0F0E0A9EE2C
:10141000B2E00E94BA21E8E8F8E40E94E61F0E94C8
:10142000E01BE9EEF2E0A0E8BFE30E9494220E94F4
:10143000671C0E94D81B0E94E71B0C94150B0430FC
:1014400011F00C94C70A8091AA0880934F028091F2
:10145000AB0880934E028091AC0880934D0280913E
:10146000AD0880934C02E8E6F7E40E94E61F0E9474
:10147000A523ECE4F2E00E9494220E94BE220E9486
:101480000E23EDE0F0E0ADEEB2E00E94BA21EEE80E
:10149000F8E40E94E61F0E94E01BEDEEF2E0A0E8F7
:1014A000BFE30E9494220E94671C0E94D81B0E94E6
:1014B000E71B8091AE0880934F028091AF08809324
:1014C0004E028091B00880934D028091B1088093C4
:1014D0004C02E8E6F7E40E94E61F0E94A523ECE434
:1014E000F2E00E9494220E94BE220E940E23EDE0B0
:1014F000F0E0ADEFB2E00E94BA21E4E9F8E40E9426
:10150000E61F0E94E01BEDEFF2E0A0E8BFE30E94BF
:1015100094220E94671C0E94D81B0E94E71B8091A6
:10152000BA0880934F028091BB0880934E0280914D
:10153000BC0880934D028091BD0880934C02E4E684
:10154000F7E40E94E61F0E94A523ECE4F2E00E946B
:1015500094220E94BE220E940E23EDE0F0E0A9EC4E
:10156000B2E00E94BA21EAE9F8E40E94E61F0E9474
:10157000E01BE9ECF2E0A0E8BFE30E9494220E94A5
:10158000671C0E94D81B0E94E71B0C94150B0530AA
:1015900011F00C940D0B8091AA0880934F0280915A
:1015A000AB0880934E028091AC0880934D028091ED
:1015B000AD0880934C02E0EAF8E40E94E61F0E9426
:1015C000E01BECE4F2E0A0E8BFE30E940B210E94E4
:1015D000D81B0E94E71B8091AE0880934F02809138
:1015E000AF0880934E028091B00880934D028091A5
:1015F000B10880934C02E4EAF8E40E94E61F0E94DE
:10160000E01BECE4F2E0A0E8BFE30E940B210E94A3
:10161000D81B0E94E71B0C94150BE8EAF8E40E9423
:10162000E61F0E94E01B0E94E71B0C947D0B0091BB
:10163000B802073011F00C94510B9091AA088091D8
:10164000AB08AEEBB2E08D939C93E4EBF8E40E9420
:10165000E61F0E94E01BEEEBF2E0A0E8BFE30E9471
:1016600005210E94D81BE2ECF8E40E94E61F0E94CC
:10167000E01BEEEBF2E0A0E8BFE30E948B210E94AA
:10168000D81BEAECF8E40E94E61F0E94E01BEEEB98
:10169000F2E0A0E8BFE30E9405210E94D81B0E944F
:1016A000E71B0091B802083011F00C947D0B90916B
:1016B000AB088091AC08AEEBB2E08D939C93E4EB69
:1016C000F8E40E94E61F0E94E01BEEEBF2E0A0E8C7
:1016D000BFE30E9405210E94D81BE2ECF8E40E94BF
:1016E000E61F0E94E01BEEEBF2E0A0E8BFE30E94E1
:1016F0008B210E94D81B0E94E71B0C94960BA0E440
:10170000B2E00C9103FB16F00C94960BE2EDF8E4BA
:101710000E94E61F0E94E01BE6EBF2E0A0E8BFE3B8
:101720000E948B210E94D81B0E94E71B089580E035
:1017300080934602709147027F7770934702A6E438
:10174000B2E08C918F5F8C93E4EEF8E40E94E61F88
:101750000E94E01BE6E4F2E0A0E8BFE30E9415214E
:101760000E94D81B0E94E71B84E690E0AEE1B3E044
:101770008D939C9380E090E0ACE1B3E08D939C93DB
:1017800070914702716070934702709147027D7FAC
:1017900070934702ACE2B3E08C9184FB16F00C949A
:1017A000E40B70912C037F7E70932C03E0EFF8E440
:1017B0000E94E61F0E94E01BA9E1B8E00E94DA1B2C
:1017C0000E94E71B0E94E411ACE2B3E08C9186FB1F
:1017D00016F00C94FE0B70912C037F7B70932C03FE
:1017E000E8EFF8E40E94E61F0E94E01BA2ECB6E0DE
:1017F0000E94DA1B0E94E71B0E946E12A7E4B2E06F
:101800008C9187FB81E00EF080E08F93A7E4B2E03B
:101810008C9181FB81E00EF080E09F91892B8823E1
:1018200011F40C94CA0B709147027E7F70934702AB
:10183000A7E4B2E08C9187FB16F40C942B0CEEEF2E
:10184000F8E40E94E61F0E94E01BA0E3B1E00E94C2
:10185000DA1B0E94E71BA7E4B2E08C9187FB81E0D2
:101860000EF080E08F9300914602033081E009F092
:1018700080E09F91892B882311F40C949F0B709129
:1018800047027E7F70934702709147027F77709383
:1018900047020895E0E0F9E40E94E61F0E94E01B81
:1018A0000E94BB1DAFE0B1E00E94DA1BE8EFF7E455
:1018B0000E94E61F0E94E01B0E94BB1DA6E0B1E053
:1018C0000E94DA1B0E94E71B0E94BB1DE6E0F1E0CC
:1018D000ABE9B2E00E94B5210E94BB1DEFE0F1E050
:1018E000A6EAB2E00E94B521A0E3B1E0EAE0F9E4A3
:1018F0000E94E61F0E94771FEBE9F2E0A0E3B1E04F
:101900000E94D11B0E94B521A0E3B1E00E94D11B2F
:10191000E8EFF7E40E94E61F0E94771FE6EAF2E094
:10192000A0E3B1E00E94D11B0E94B521A0E3B1E089
:101930000E94D11BE8EFF7E40E94E61F0E94771F88
:10194000E4E8F2E0A0E3B1E00E94D11B0E94B521DF
:10195000A0E3B1E00E94D11BEEE0F9E40E94E61F93
:101960000E94771FA0E3B1E00E94D11BE8EFF7E4EB
:101970000E94E61F0E94771FE3ECF2E0A0E3B1E0D3
:101980000E94D11B0E940521A0E3B1E00E94D11B5F
:10199000E8EFF7E40E94E61F0E94771FE5ECF2E013
:1019A000A0E3B1E00E94D11B0E940521A0E3B1E0B9
:1019B0000E94D11BE8EFF7E40E94E61F0E94771F08
:1019C000E7ECF2E0A0E3B1E00E94D11B0E94052108
:1019D000A0E3B1E00E94D11BE8EFF7E40E94E61F0C
:1019E0000E94771FE9ECF2E0A0E3B1E00E94D11B76
:1019F0000E9494220E94671CA0E3B1E00E94D11BC8
:101A0000E8EFF7E40E94E61F0E94771FE1EDF2E0A5
:101A1000A0E3B1E00E94D11B0E9494220E94671CA7
:101A2000A0E3B1E00E94D11BE8EFF7E40E94E61FBB
:101A30000E94771FE5EDF2E0A0E3B1E00E94D11B28
:101A40000E9494220E94671CA0E3B1E00E94D11B77
:101A5000E8EFF7E40E94E61F0E94771FE9EDF2E04D
:101A6000A0E3B1E00E94D11B0E9494220E94671C57
:101A7000A0E3B1E00E94D11BE8EFF7E40E94E61F6B
:101A80000E94771FA0E3B1E00E940122AFE1B1E024
:101A90008D9388278C93AFE1B1E0ED91FC91A0E3A9
:101AA000B1E00E943F22A2E4B2E00D931D932D937A
:101AB0003D93A0E3B1E00E94D11BE2E1F9E40E9472
:101AC000E61F0E94771FE2E4F2E0A0E3B1E00E948B
:101AD000D11B0E948D21EEEFF8E40E94E61F0E94C8
:101AE000E01BA0E3B1E00E94DA1B0E94E71B0E940A
:101AF000970B0895E4E1F9E40E94E61F0E94E01BC1
:101B00000E94BB1DAFE0B1E00E94DA1BE8EFF7E4F2
:101B10000E94E61F0E94E01B0E94BB1DA6E0B1E0F0
:101B20000E94DA1B0E94E71B0E94BB1DE6E0F1E069
:101B3000ABE9B2E00E94B5210E94BB1DEFE0F1E0ED
:101B4000A6EAB2E00E94B521A0E3B1E0EAE0F9E440
:101B50000E94E61F0E94771FEBE9F2E0A0E3B1E0EC
:101B60000E94D11B0E94B521A0E3B1E00E94D11BCD
:101B7000E8EFF7E40E94E61F0E94771FE6EAF2E032
:101B8000A0E3B1E00E94D11B0E94B521A0E3B1E027
:101B90000E94D11BE8EFF7E40E94E61F0E94771F26
:101BA000E4E8F2E0A0E3B1E00E94D11B0E94B5217D
:101BB000A0E3B1E00E94D11BEEE1F9E40E94E61F30
:101BC0000E94771FA0E3B1E00E94D11BE8EFF7E489
:101BD0000E94E61F0E94771FEDEDF2E00E94942222
:101BE000A0E8BFE3AF93BF930E94671C11E002E03F
:101BF000BF91AF910E94A020E0E8FFE3A0E3B1E035
:101C00000E94D11B0E94B521A0E3B1E00E94D11B2C
:101C1000E8EFF7E40E94E61F0E94771FE1EEF2E092
:101C20000E949422A0E8BFE3AF93BF930E94671C79
:101C300011E002E0BF91AF910E94A020E0E8FFE335
:101C4000A0E3B1E00E94D11B0E94B521A0E3B1E066
:101C50000E94D11BE8EFF7E40E94E61F0E94771F65
:101C6000E5EEF2E00E949422A0E8BFE3AF93BF93B9
:101C70000E94671C11E002E0BF91AF910E94A0207A
:101C8000E0E8FFE3A0E3B1E00E94D11B0E94B52190
:101C9000A0E3B1E00E94D11BE8EFF7E40E94E61F49
:101CA0000E94771FE9EEF2E00E949422A0E8BFE3D1
:101CB000AF93BF930E94671C11E002E0BF91AF9108
:101CC0000E94A020E0E8FFE3A0E3B1E00E94D11B66
:101CD0000E94B521A0E3B1E00E94D11BE8EFF7E438
:101CE0000E94E61F0E94771FEDEEF2E00E94942210
:101CF000A0E8BFE3AF93BF930E94671C11E002E02E
:101D0000BF91AF910E94A020E0E8FFE3A0E3B1E023
:101D10000E94D11B0E94B521A0E3B1E00E94D11B1B
:101D2000E8EFF7E40E94E61F0E94771FE1EFF2E080
:101D3000A0E3B1E00E94D11B0E940B21A0E3B1E01F
:101D40000E94D11BE8EFF7E40E94E61F0E94771F74
:101D5000E5EFF2E0A0E3B1E00E94D11B0E940B216D
:101D6000A0E3B1E00E94D11BE8EFF7E40E94E61F78
:101D70000E94771FE9EFF2E0A0E3B1E00E94D11BDF
:101D80000E940B21A0E3B1E00E940122AFE1B1E08B
:101D90008D9388278C93AFE1B1E0ED91FC91A0E3A6
:101DA000B1E00E943F22A2E4B2E00D931D932D9377
:101DB0003D93A0E3B1E00E94D11BE2E1F9E40E946F
:101DC000E61F0E94771FE2E4F2E0A0E3B1E00E9488
:101DD000D11B0E948D21EEEFF8E40E94E61F0E94C5
:101DE000E01BA0E3B1E00E94DA1B0E94E71B0E9407
:101DF000970B0895E2E2F9E40E94E61F0E94E01BBF
:101E00000E94BB1DAFE0B1E00E94DA1BE8EFF7E4EF
:101E10000E94E61F0E94E01B0E94BB1DA6E0B1E0ED
:101E20000E94DA1B0E94E71B0E94BB1DE6E0F1E066
:101E3000ABE9B2E00E94B5210E94BB1DEFE0F1E0EA
:101E4000A6EAB2E00E94B521A0E3B1E0EAE0F9E43D
:101E50000E94E61F0E94771FEBE9F2E0A0E3B1E0E9
:101E60000E94D11B0E94B521A0E3B1E00E94D11BCA
:101E7000E8EFF7E40E94E61F0E94771FE6EAF2E02F
:101E8000A0E3B1E00E94D11B0E94B521A0E3B1E024
:101E90000E94D11BE8EFF7E40E94E61F0E94771F23
:101EA000E4E8F2E0A0E3B1E00E94D11B0E94B5217A
:101EB000A0E3B1E00E94D11BECE2F9E40E94E61F2E
:101EC0000E94771FA0E3B1E00E94D11BE8EFF7E486
:101ED0000E94E61F0E94771FE1E0F3E00E94942237
:101EE000A0E8BFE3AF93BF930E94671C11E002E03C
:101EF000BF91AF910E94A020E0E8FFE3A0E3B1E032
:101F00000E94D11B0E94B521A0E3B1E00E94D11B29
:101F1000E8EFF7E40E94E61F0E94771FE5E0F3E098
:101F20000E949422A0E8BFE3AF93BF930E94671C76
:101F300011E002E0BF91AF910E94A020E0E8FFE332
:101F4000A0E3B1E00E94D11B0E94B521A0E3B1E063
:101F50000E94D11BE8EFF7E40E94E61F0E94771F62
:101F6000E9E0F3E00E949422A0E8BFE3AF93BF93BF
:101F70000E94671C11E002E0BF91AF910E94A02077
:101F8000E0E8FFE3A0E3B1E00E94D11B0E94B5218D
:101F9000A0E3B1E00E94D11BE8EFF7E40E94E61F46
:101FA0000E94771FEDE0F3E00E949422A0E8BFE3D7
:101FB000AF93BF930E94671C11E002E0BF91AF9105
:101FC0000E94A020E0E8FFE3A0E3B1E00E94D11B63
:101FD0000E94B521A0E3B1E00E94D11BE8EFF7E435
:101FE0000E94E61F0E94771FEDEFF2E00E9494220C
:101FF000A0E8BFE3AF93BF930E94671C11E002E02B
:10200000BF91AF910E94A020E0E8FFE3A0E3B1E020
:102010000E94D11B0E94B521A0E3B1E00E94D11B18
:10202000E0E3F9E40E94E61F0E94771FA0E3B1E01D
:102030000E940122AFE1B1E08D9388278C93AFE13C
:10204000B1E0ED91FC91A0E3B1E00E943F22A2E457
:10205000B2E00D931D932D933D93A0E3B1E00E9458
:10206000D11BE2E1F9E40E94E61F0E94771FE2E43F
:10207000F2E0A0E3B1E00E94D11B0E948D21EEEFBF
:10208000F8E40E94E61F0E94E01BA0E3B1E00E947A
:10209000DA1B0E94E71B0E94970B0895E4E3F9E422
:1020A0000E94E61F0E94E01B0E94BB1DAFE0B1E052
:1020B0000E94DA1BE8EFF7E40E94E61F0E94E01B93
:1020C0000E94BB1DA6E0B1E00E94DA1B0E94E71B44
:1020D0000E94BB1DE6E0F1E0ABE9B2E00E94B52151
:1020E0000E94BB1DEFE0F1E0A6EAB2E00E94B5213C
:1020F000A0E3B1E0EAE0F9E40E94E61F0E94771F46
:10210000EBE9F2E0A0E3B1E00E94D11B0E94B5210F
:10211000A0E3B1E00E94D11BE8EFF7E40E94E61FC4
:102120000E94771FE6EAF2E0A0E3B1E00E94D11B33
:102130000E94B521A0E3B1E00E94D11BE8EFF7E4D3
:102140000E94E61F0E94771FE4E8F2E0A0E3B1E0FE
:102150000E94D11B0E94B521A0E3B1E00E94D11BD7
:10216000EEE3F9E40E94E61F0E94771FA0E3B1E0CE
:102170000E94D11BE8EFF7E40E94E61F0E94771F40
:10218000A3E2B0E08C9185FBA0E3B1E00E94D11BFB
:102190000E94D71F8D9388278C93A0E3B1E00E9403
:1021A000D11BE8EFF7E40E94E61F0E94771FE1E1F0
:1021B000F3E0A0E3B1E00E94D11B0E940521A0E35F
:1021C000B1E00E94D11BE2E4F9E40E94E61F0E9404
:1021D000771FA0E3B1E00E940122AFE1B1E08D934F
:1021E00088278C93AFE1B1E0ED91FC91A0E3B1E0E1
:1021F0000E943F22A2E4B2E00D931D932D933D93E4
:10220000A0E3B1E00E94D11BE2E1F9E40E94E61FE5
:102210000E94771FE2E4F2E0A0E3B1E00E94D11B4C
:102220000E948D21EEEFF8E40E94E61F0E94E01B61
:10223000A0E3B1E00E94DA1B0E94E71B0E94970B0B
:102240000895E4E3F9E40E94E61F0E94E01B0E9467
:10225000BB1DAFE0B1E00E94DA1BE8EFF7E40E949B
:10226000E61F0E94E01B0E94BB1DA6E0B1E00E9499
:10227000DA1B0E94E71BA0E3B1E0EAE0F9E40E9468
:10228000E61F0E94771FEBE9F2E0A0E3B1E00E94B5
:10229000D11B0E94B521A0E3B1E00E94D11BE8EF61
:1022A000F7E40E94E61F0E94771FE6EAF2E0A0E34F
:1022B000B1E00E94D11B0E94B521A0E3B1E00E94D1
:1022C000D11BE8EFF7E40E94E61F0E94771FE4E8C5
:1022D000F2E0A0E3B1E00E94D11B0E94B521A0E38F
:1022E000B1E00E94D11BEEE3F9E40E94E61F0E94D8
:1022F000771FA0E3B1E00E94D11BE8EFF7E40E9452
:10230000E61F0E94771FA3E2B0E08C9185FBA0E35B
:10231000B1E00E94D11B0E94D71F8D9388278C9318
:10232000A0E3B1E00E94D11BE8EFF7E40E94E61FB2
:102330000E94771FE1E1F3E0A0E3B1E00E94D11B2E
:102340000E940521A0E3B1E00E94D11BE2E4F9E480
:102350000E94E61F0E94771FA0E3B1E00E940122C5
:10236000AFE1B1E08D9388278C93AFE1B1E0ED91BF
:10237000FC91A0E3B1E00E943F22A2E4B2E00D9301
:102380001D932D933D93A0E3B1E00E94D11BE2E1A8
:10239000F9E40E94E61F0E94771FE2E4F2E0A0E366
:1023A000B1E00E94D11B0E948D21EEEFF8E40E9463
:1023B000E61F0E94E01BA0E3B1E00E94DA1B0E942E
:1023C000E71B0E94970B0895E9E1F8E09BE304E125
:1023D00032E2AEE2B3E00E945F22ADE2B3E02C93C2
:1023E00000912D03003018F011F00C94F9110C94A9
:1023F0000112EEE2F3E0A9E2B1E00E94B5210C94F3
:102400000712E9E1F8E0A9E2B1E00E94B521A9E2F2
:10241000B1E0EAE4F9E40E94E61F0E94072211F00D
:102420000C941912709147027068709347020C94D3
:102430006D12EEE4F9E40E94E61F0E94072211F0FB
:102440000C942912709147027F77709347020C9485
:102450006D12E2E5F9E40E94E61F0E94072211F0E6
:102460000C94471270912C03706470932C03E3E476
:10247000F3E0A2ECB6E00E94B521EAE5F9E40E949F
:10248000E61F0E94E01B0E94E71B0C946D12E6E61B
:10249000F9E40E94E61F0E94072211F00C946512D5
:1024A00070912C03706470932C03E3E4F3E0A2ECCE
:1024B000B6E00E94B521EAE5F9E40E94E61F0E9419
:1024C000E01B0E94E71B0C946D12EEE6F9E40E94FB
:1024D000E61F0E94E01B0E94E71B089581E0E2ECEA
:1024E000F6E006E00A93ABE0B2E00E94C021E2EC25
:1024F000F6E09CE204E132E2AEE2B3E00E945F2249
:10250000ADE2B3E02C93AEE2B3E00E940122082FCB
:10251000063011F00C945B18EEE2F3E0A9E2B1E0B2
:102520000E94B521E9E2F1E0A9E2B1E00E94BB1FFF
:102530008FEF8093F901A9E2B1E0EAE7F9E40E94A4
:10254000E61F0E94072211F00C94E71280E08093AE
:10255000F901A0E3B1E0E2E8F9E40E94E61F0E947D
:10256000771FABE0B2E0E6E9F9E40E94E61F0E94C3
:10257000771FEBE0F2E0A0E3B1E00E94D11B0E94E4
:10258000B521A0E3B1E00E94D11BEAEAF9E40E9480
:10259000E61F0E94771FABE0B2E0E6ECF7E40E9492
:1025A000E61F0E94771FEBE0F2E0A0E3B1E00E949B
:1025B000D11B0E94B521A0E3B1E00E94D11BE6EE41
:1025C000F7E40E94E61F0E94771F0C945918E8EB6D
:1025D000F9E40E94E61F0E94072211F00C942613D2
:1025E00000912D03023011F00C942113A3E4B3E009
:1025F0000E945A21A9E1B1E00C9300911901013127
:1026000010F00C941C1380E08093F901A0E3B1E07A
:10261000E0ECF9E40E94E61F0E94771FE9E1F1E097
:10262000A0E3B1E00E94D11B0E9415218091190105
:10263000809319030C941F1385E08093F9010C9487
:10264000241384E08093F9010C945918E8EDF9E41F
:102650000E94E61F0E94072211F00C943E1380E0B6
:102660008093F901A0E3B1E0E0EEF9E40E94E61FF7
:102670000E94771F0E9438050C945918E4EFF9E482
:102680000E94E61F0E94072211F00C944A14009148
:102690002D03023011F00C944514A3E4B3E00E9422
:1026A0000122082F0C3011F00C94401480E080932C
:1026B000F90187E0E3E4F3E002E00A93ABE0B2E083
:1026C0000E94C021ABE0B2E00E94D11BECEFF9E424
:1026D0000E94E61F0E94771F89E0E3E4F3E002E036
:1026E0000A93ABE0B2E00E94D11B0E94C021ABE094
:1026F000B2E00E94D11BECEFF9E40E94E61F0E94B9
:10270000771F8BE0E3E4F3E002E00A93ABE0B2E092
:102710000E94D11B0E94C021ABE0B2E00E94DA1BF4
:102720000E94E71BEBE0F2E0AFE0B1E00E94B521D0
:102730000E94CA1DEEEFF9E40E94E61F0E94E01B12
:102740000E94BB1DAFE0B1E00E94DA1B0E94E71BB4
:1027500081E0E3E4F3E002E00A93ABE0B2E00E9440
:10276000C021ABE0B2E00E94D11BE2E0FAE40E949B
:10277000E61F0E94771F83E0E3E4F3E002E00A93A0
:10278000ABE0B2E00E94D11B0E94C021ABE0B2E0FE
:102790000E94D11BE2E0FAE40E94E61F0E94771F2C
:1027A00085E0E3E4F3E002E00A93ABE0B2E00E94EC
:1027B000D11B0E94C021ABE0B2E00E94DA1B0E9454
:1027C000E71BEBE0F2E0A6E0B1E00E94B5210E9439
:1027D000C41DE4E0FAE40E94E61F0E94E01B0E9490
:1027E000BB1DA6E0B1E00E94DA1B0E94E71BA0E33C
:1027F000B1E0E8E0FAE40E94E61F0E94771F0E9421
:10280000BB1DE6E0F1E0A0E3B1E00E94D11B0E9415
:10281000B521A0E3B1E00E94D11BE2E3FAE40E94FB
:10282000E61F0E94771F0E94BB1DEFE0F1E0A0E3CE
:10283000B1E00E94D11B0E94B521E3E0F1E00E94CB
:10284000181EA5EBB2E08C93E0E0F1E00E94F51ECB
:10285000A1EBB2E00D931D932D933D93E2E3F0E0E5
:10286000A1EBB2E094E07BE70E94D921709147028E
:1028700070627093470281E0809319030C944314B3
:1028800086E08093F9010C94481484E08093F90168
:102890000C945918E6E3FAE40E94E61F0E9407220E
:1028A00011F00C948A1480E08093F9010E94BB1D02
:1028B000EFE0F1E0ABE0B2E00E94B521A0E3B1E0CF
:1028C000EEE3FAE40E94E61F0E94771FEBE0F2E0DD
:1028D000A0E3B1E00E94D11B0E94B521A0E3B1E0CA
:1028E0000E94D11BECE4FAE40E94E61F0E94771FCD
:1028F0000E94BB1DE6E0F1E0ABE0B2E00E94B52132
:10290000EBE0F2E0A0E3B1E00E94D11B0E94B52110
:102910000C945918ECE5FAE40E94E61F0E94072285
:1029200011F00C94C61480E08093F901E1EBF2E021
:10293000ABE0B2E00E942E1FA0E3B1E0E4E6FAE4CF
:102940000E94E61F0E94771FEBE0F2E0A0E3B1E0F7
:102950000E94D11B0E94B521A0E3B1E00E94D11BCF
:10296000E8E7FAE40E94E61F0E94771FE1EBF2E03D
:10297000ABE0B2E00E94361FEBE0F2E0A0E3B1E092
:102980000E94D11B0E94B5210C945918E0E8FAE48A
:102990000E94E61F0E94072211F00C945D15009121
:1029A0002D03033011F00C945815A3E4B3E00E94FA
:1029B0005A21AEE1B1E00C9300911E01003080E09D
:1029C00010F009F081E08F9300911E01073081E043
:1029D00008F080E09F918923882311F40C9453150B
:1029E000A8E5B3E00E945A21A5E2B1E00D931D9342
:1029F0002D933D93A5E2B1E00D911D912D913C9158
:102A0000AEE1B1E0AD90BB24A0E5B2E0AA0CBB1CE6
:102A1000AA0CBB1CAA0DBB1D0D931D932D933C93BB
:102A2000EEE1F1E0A190BB24EEEFFFEFAA0CBB1C9E
:102A3000AA0CBB1CEA0DFB1DA5E2B1E094E07BE70C
:102A40000E94D92180E08093F901A0E3B1E0E8E899
:102A5000FAE40E94E61F0E94771FEEE1F1E0A0E396
:102A6000B1E00E94D11B0E941521A0E3B1E00E94B9
:102A7000D11BECEFF9E40E94E61F0E94771FEEE104
:102A8000F1E0A190BB24E0E5F2E0AA0CBB1CAA0C8B
:102A9000BB1CEA0DFB1DA0E3B1E00E94D11B0E940C
:102AA00008210C94561583E08093F9010C945B1572
:102AB00084E08093F9010C945918EEE9FAE40E943D
:102AC000E61F0E94072211F00C94F41500912D03CB
:102AD000033011F00C94EF15A3E4B3E00E945A21E7
:102AE000AEE1B1E00C9300911E01003080E010F0E7
:102AF00009F081E08F9300911E01073081E008F01A
:102B000080E09F918923882311F40C94EA15A8E5AD
:102B1000B3E00E945A21A5E2B1E00D931D932D93DD
:102B20003D93A5E2B1E00D911D912D913C91AEE157
:102B3000B1E0AD90BB24A8E6B2E0AA0CBB1CAA0C85
:102B4000BB1CAA0DBB1D0D931D932D933C93EEE171
:102B5000F1E0A190BB24E6E1F0E0AA0CBB1CAA0CBA
:102B6000BB1CEA0DFB1DA5E2B1E094E07BE70E94EF
:102B7000D92180E08093F901A0E3B1E0E8E8FAE42C
:102B80000E94E61F0E94771FEEE1F1E0A0E3B1E0B2
:102B90000E94D11B0E941521A0E3B1E00E94D11B2D
:102BA000ECEFF9E40E94E61F0E94771FEEE1F1E0EE
:102BB000A190BB24E8E6F2E0AA0CBB1CAA0CBB1C4B
:102BC000EA0DFB1DA0E3B1E00E94D11B0E94082189
:102BD0000C94ED1583E08093F9010C94F21584E0D8
:102BE0008093F9010C945918E6EAFAE40E94E61F72
:102BF0000E94072211F00C94591600912D03023007
:102C000011F00C945416A3E4B3E00E945A21AEE1F3
:102C1000B1E00C9300911E01003080E010F009F04B
:102C200081E08F9300911E01073081E008F080E081
:102C30009F918923882311F40C944F16A0E3B1E0EF
:102C4000EEEAFAE40E94E61F0E94771FEEE1F1E04F
:102C5000A0E3B1E00E94D11B0E941521A0E3B1E0E6
:102C60000E94D11BECEFF9E40E94E61F0E94771F3F
:102C7000EEE1F1E0A190BB24E0E5F2E0AA0CBB1C80
:102C8000AA0CBB1CEA0DFB1DA0E3B1E00E94D11B06
:102C90000E94082180E08093F9010C94521683E091
:102CA0008093F9010C94571684E08093F9010C94F9
:102CB0005918E6EBFAE40E94E61F0E94072211F081
:102CC0000C94BE1600912D03023011F00C94B9162D
:102CD000A3E4B3E00E945A21AEE1B1E00C9300916D
:102CE0001E01003080E010F009F081E08F93009128
:102CF0001E01073081E008F080E09F91892388233E
:102D000011F40C94B416A0E3B1E0EEEBFAE40E94E7
:102D1000E61F0E94771FEEE1F1E0A0E3B1E00E9420
:102D2000D11B0E941521A0E3B1E00E94D11BECEF62
:102D3000F9E40E94E61F0E94771FEEE1F1E0A19006
:102D4000BB24E8E6F2E0AA0CBB1CAA0CBB1CEA0DF3
:102D5000FB1DA0E3B1E00E94D11B0E94082180E08E
:102D60008093F9010C94B71683E08093F9010C94D9
:102D7000BC1684E08093F9010C945918EAECFAE44B
:102D80000E94E61F0E94072211F00C942B1700915D
:102D90002D03023011F00C942617A3E4B3E00E9437
:102DA0005A21AEE1B1E00C9300911E01003080E0A9
:102DB00010F009F081E08F9300911E01073081E04F
:102DC00008F080E09F918923882311F40C94211747
:102DD00080E08093F90100911E0141E0041BA9E10C
:102DE000B1E00C9380911901AAE2B3E00E94D11FD7
:102DF0000E94C71F9C91982B9C93A0E3B1E0E2ED49
:102E0000FAE40E94E61F0E94771FEEE1F1E0A0E3E2
:102E1000B1E00E94D11B0E941521A0E3B1E00E9405
:102E2000D11BE8EFF7E40E94E61F0E94771FA0E3A2
:102E3000B1E00E94D11BEAE2F3E00E94A2210C94CF
:102E4000241783E08093F9010C94291784E0809380
:102E5000F9010C945918E6EEFAE40E94E61F0E946C
:102E6000072211F00C94621700912D03023011F02B
:102E70000C945D1780E08093F901A3E4B3E00E9415
:102E80005A21A0E4B2E00C93E0E0F0E0A0E4B2E06C
:102E90007BE70E94D621A0E3B1E0EEEEFAE40E94C7
:102EA000E61F0E94771FE0E4F2E0A0E3B1E00E9499
:102EB000D11B0E9415210C94601784E08093F901C6
:102EC0000C945918E4E0FBE40E94E61F0E940722DC
:102ED00011F00C94801780E08093F901A0E3B1E039
:102EE000EAEFF7E40E94E61F0E94771FE0E4F2E0B9
:102EF000A0E3B1E00E94D11B0E9415210C94591847
:102F0000ECE0FBE40E94E61F0E94072211F00C9403
:102F1000AA1780E08093F9010E94A304A0E3B1E026
:102F2000E4E1FBE40E94E61F0E94771FE4E8F2E080
:102F3000A0E3B1E00E94D11B0E94B521A0E3B1E063
:102F40000E94D11BE6EEF7E40E94E61F0E94771F65
:102F50000C945918EEE1FBE40E94E61F0E94072240
:102F600011F00C94FE1700912D03023011F00C9417
:102F7000F91780E08093F901A3E4B3E00E945A219D
:102F8000A9E1B1E00C9300911901003080E010F04C
:102F900009F081E08F93009119010F3F81E008F063
:102FA00080E09F918923882311F40C94F417809179
:102FB000190180934102E1E0F0E0A1E4B2E07BE797
:102FC0000E94D621A0E3B1E0E6E2FBE40E94E61F06
:102FD0000E94771FE1E4F2E0A0E3B1E00E94D11B80
:102FE0000E9415210C94F71785E08093F9010C9449
:102FF000FC1784E08093F9010C945918EEE3FBE48C
:103000000E94E61F0E94072211F00C941C1880E019
:103010008093F901A0E3B1E0E6E4FBE40E94E61F3F
:103020000E94771FE1E4F2E0A0E3B1E00E94D11B2F
:103030000E9415210C945918E0E5FBE40E94E61F5C
:103040000E94072211F00C94561800912D030230B3
:1030500011F00C94511880E08093F901A3E4B3E0DF
:103060000E945A21A9E1B1E00C93009119010030AE
:1030700011F00C944618A0E3B1E0E8E5FBE40E94EF
:10308000E61F0E94771F2F980C944F18A0E3B1E021
:10309000E4E6FBE40E94E61F0E94771F2F9A0C943F
:1030A000541884E08093F9010C94591881E08093BE
:1030B000F9010C94D418EEE2F3E0A9E2B1E00E9429
:1030C000B521E9E2F1E0A9E2B1E00E94BB1FA9E26B
:1030D000B1E0EAE4F9E40E94E61F0E94072211F041
:1030E0000C947C187091470270687093470280E0DE
:1030F0008093F9010C94D418EEE4F9E40E94E61FE1
:103100000E94072211F00C948F18709147027F776C
:103110007093470280E08093F9010C94D418E2E5A3
:10312000F9E40E94E61F0E94072211F00C94B018E7
:1031300070912C03706470932C03E3E4F3E0A2EC31
:10314000B6E00E94B521EAE5F9E40E94E61F0E947C
:10315000E01B0E94E71B80E08093F9010C94D418D7
:10316000E6E6F9E40E94E61F0E94072211F00C94A3
:10317000D11870912C03706470932C03E3E4F3E096
:10318000A2ECB6E00E94B521EAE5F9E40E94E61F50
:103190000E94E01B0E94E71B80E08093F9010C94E1
:1031A000D41882E08093F9010091F901003018F001
:1031B00011F00C94DD180C94EB18E0EFF1E30E9491
:1031C000E61FA9EFB1E08C9199270E94B31FA0E3FD
:1031D000B1E00E94771FA0E3B1E00E94DA1B0E94D9
:1031E000E71B089500100E10AE102E103E10A01117
:1031F0004F4B00436F6D616E646F206E6F20726580
:10320000636F6E6F6369646F004C6F6E676974758E
:103210006420636F6D616E646F206E6F2076616CE9
:10322000696461004E756D65726F20646520706120
:1032300072616D6574726F206E6F2076616C696467
:103240006F004E756D65726F2064652070617261EC
:103250006D6574726F7320696E76616C69646F005E
:103260004572726F72206C6F6E676974756420703E
:103270006172616D6574726F2031004572726F7298
:10328000206C6F6E676974756420706172616D6522
:1032900074726F203200506172616D6574726F20BC
:1032A0006E6F2076616C69646F004552524F5238E0
:1032B000004552524F522053442E20496E74656E81
:1032C0007465206465206E7565766F0000000000EF
:1032D000030000003300000033030000333300001C
:1032E0003333030033C00C00FF0FFF0F5555555506
:1032F00033333333777777770C00FCFFCC00FCFF58
:10330000CC0CFCFFCCCCFCFF0C00FCFFF0FFFFFF63
:103310000E945003EEE6FBE40E94E61F0E94E01BC1
:103320000E94E71B82E080931903ACE2B3E08C912A
:1033300086FB16F00C94AF1970912C037F7B709371
:103340002C03E8EFF8E40E94E61F0E94E01BA2ECC9
:10335000B6E00E94DA1B0E94E71B0E946E120091E9
:103360002B03013011F00C94091A70912B037E7F0E
:1033700070932B03ABE1B3E08C918F5F8C93ABE147
:10338000B3E00C9145E00E94F1218C9300911B0366
:10339000003011F00C94091AA0E3B1E0E4E8FBE47A
:1033A0000E94E61F0E94771FA0E3B1E00E94012265
:1033B000AFE1B1E08D9388278C93AFE1B1E0ED915F
:1033C000FC91A0E3B1E00E943F22A2E4B2E00D93A1
:1033D0001D932D933D93A0E3B1E00E94D11BE2E148
:1033E000F9E40E94E61F0E94771FE2E4F2E0A0E306
:1033F000B1E00E94D11B0E948D21EEEFF8E40E9403
:10340000E61F0E94E01BA0E3B1E00E94DA1B0E94CD
:10341000E71BA7E4B2E08C9185FB16F00C9495199C
:1034200081E080931903ACE2B3E08C9186FB16F047
:103430000C942D1A70912C037F7B70932C03E8EF72
:10344000F8E40E94E61F0E94E01BA2ECB6E00E9496
:10345000DA1B0E94E71B0E946E1281E080931C0120
:1034600000911C01063018F011F00C94B71A00916D
:103470001C0141E0041BADE1B1E00C9380911D0102
:10348000AAE2B3E00E94D11F0E94C71F0C9008223D
:10349000689409F4E89416F00C94AF1A80911D0119
:1034A000AAE2B3E00E94D11F0E94C71F8C9189231A
:1034B0008C9300911C01013011F00C946B1AECE814
:1034C000FBE40E94E61F0E94E01B0E94E71B0E9493
:1034D0004A0C0C94AF1A023011F00C947B1AE2E9FA
:1034E000FBE40E94E61F0E94E01B0E94E71B0E9473
:1034F0007A0D0C94AF1A033011F00C94891AE8E994
:10350000FBE40E94E61F0E94E01B0E94E71B0C9454
:10351000AF1A043011F00C94911A0E94A4050C9477
:10352000AF1A053011F00C94A11AEEE9FBE40E94E9
:10353000E61F0E94E01B0E94E71B0E94FA0E0C94FB
:10354000AF1A063011F00C94AF1AE4EAFBE40E94C3
:10355000E61F0E94E01B0E94E71B0E944E10ACE198
:10356000B1E08C918F5F8C9310F40C94301AA7E427
:10357000B2E08C9183FB16F00C94C51A709147024F
:10358000777F709347020E9443061D990C94291B74
:103590000027A3E2B0E08C9185FB00F94427A7E463
:1035A000B2E08C9186FB40F9041711F40C94271BB0
:1035B0008AE090E00E94581C1D990C94271BEAEAAF
:1035C000FBE40E94E61F0E94E01BA3E2B0E08C91A6
:1035D00085FBA0E8BFE30E94D71F8D9388278C93BB
:1035E0000E94D81B0E94E71BA3E2B0E08C9185FBF0
:1035F000A7E4B2E08C9186F98C93E0E0F1E00E94C0
:10360000F51EA1E2B1E00D931D932D933D93A1E230
:10361000B1E00D911D912D913C9141E050E060E0B1
:1036200070E00E94ED20A1E2B1E00D931D932D9377
:103630003D93E1E2F1E0ABE9B2E00E94361FE1E246
:10364000F1E0A6EAB2E00E942E1F0E9421110C9424
:10365000881B0027A3E2B0E08C9185FB00F944278A
:10366000A7E4B2E08C9186FB40F9041711F40C94A6
:10367000881B8AE090E00E94581C1D9B0C94881BBC
:10368000EAEAFBE40E94E61F0E94E01BA3E2B0E02E
:103690008C9185FBA0E8BFE30E94D71F8D938827FC
:1036A0008C930E94D81B0E94E71BA3E2B0E08C9190
:1036B00085FBA7E4B2E08C9186F98C93E0E0F1E021
:1036C0000E94F51EA1E2B1E00D931D932D933D9351
:1036D000A1E2B1E00D911D912D913C9141E050E0AE
:1036E00060E070E00E94E820A1E2B1E00D931D933C
:1036F0002D933D93E1E2F1E0ABE9B2E00E94361F89
:10370000E1E2F1E0A6EAB2E00E942E1F0E94211140
:103710000C94131AED91FC91EF5FFF4FFC93EE9325
:10372000089509D00E944A1F00FC10D0089503D0CC
:103730001ED001F8F9CF0024E89457FF02C009D049
:10374000689400F80BD010F80124089502D009D035
:103750000895509540954F5F5F4F0895E89417FF87
:103760000895009510950F5F1F4F68940895352FA9
:10377000242FE894452B11F468940895512F402F7D
:103780000027112780E1440F551F001F111F021B46
:10379000130B416018F4020F131F4E7F8A9599F79F
:1037A00008958F938D918823E9F711978F9108954C
:1037B000A0E8BFE38D91882311F00CD0FBCF0895D2
:1037C0000E947D1F802D11F005D0FACF08958DE065
:1037D00001D08AE00090C00005FEFCCF8093C600B7
:1037E00008950090C80005FEFCCF8093CE00089598
:1037F00000FC05D0089530D005D001F8F9CF37D0BE
:103800003FD00895842F952FA62FB72FE894452BEE
:10381000462B472B11F468940895402F512F622FA7
:10382000732F0027112722273327F0E2440F551F5B
:10383000661F771F001F111F221F331F081B190B44
:103840002A0B3B0B416028F4080F191F2A1F3B1F4E
:103850004E7FFA9559F708950024E89477FF02C047
:1038600006D0689400F809D010F80124089512D009
:103870004F5F5F4F6F4F7F4F0895E89437FF089574
:1038800000951095209530950F5F1F4F2F4F3F4F9C
:103890006894089540955095609570950895319776
:1038A000F1F70895689462F80895E89462F808952D
:1038B000EF93FF93EE27E82BE92B31F0E0EAFFE0EE
:1038C0003197F1F70197D1F7FF91EF9108958DE2CC
:1038D00007FD8D938F2D881F802F881F8F57082FEE
:1038E0006894F7F8802F87FF17C080958395082F7D
:1038F00080E38D938EE28D93802F815238F080E3A8
:103900008D9399279C930E94DB1F089544270A9565
:10391000802F09F19ED01FC0805230F09EE49D930D
:1039200081E48D939D93EDCF4427DF92EF92FF9238
:103930000F938FE1801B11F0082F8BD091D09EE266
:103940009D930F91FF90EF90DF90442703950032F5
:1039500009F4D5CF33D03F93E2EFF9E30E94E61F9D
:1039600038E12F2D1E2D0D2DFF24EE24DD244427BC
:10397000000F111F221FB8F42F923F920E947D1F4B
:10398000102C0E947D1F202C0E947D1F302C0E9435
:103990007D1F31970E94AC1F410DD21CE31CF01C0F
:1039A0003F902F9003C033960E94A51F31960E942E
:1039B000A51F3A95E9F63F9107D0A5CFDD0CEE1C87
:1039C000FF1C0A95D9F70895002719E058D08F9366
:1039D000802B11F0039501C08F911A95B9F7802FB4
:1039E000882309F48CCF8F91805D8D930A95D9F748
:1039F00088CF0065CD1D80B2E60E40597307A0AC9C
:103A0000B90350D6DC01286BEE0094357700CA9AD2
:103A10003B0065CD1D00B2E60E0059730700ACB93E
:103A20000300D6DC01006BEE0000357700009A3B06
:103A30000000CD1D0000E60E000073070000B90372
:103A40000000DC010000EE000000770000003B00F9
:103A50000000F694E794D79447950A95D1F7089516
:103A600000270DD08F9303958F2D8E298D29842BC0
:103A7000C1F78F91805D8D930A95D9F742CF1F933F
:103A80000F93002710E2440FDD1CEE1CFF1C001FEB
:103A9000802F9AE0890B10F0082F43951A9599F71B
:103AA000802F0F911F910895082748E016950795DC
:103AB00010F4122701254A95C9F7089531E005C091
:103AC00032E003C033E001C034E00FEF1FEF20EA23
:103AD00091E0192EE9DF46D08991682FE5DF42D0C9
:103AE0008991E2DF3FD08991DFDF3CD0599161308D
:103AF00078F0653068F48827D7DF34D0852F869535
:103B000009F481E0D1DF2ED0802F2CD0812F2AC064
:103B1000663041F49D918C91C7DF24D0892FC4DF9A
:103B200021D0F2CF6031E9F48827BEDF1BD0852F8A
:103B3000869509F481E0682FB7DF14D0862F880FAF
:103B4000B3DF10D0513019F488279D9102C09D91A8
:103B50008D91AADF07D0892FA7DF04D06A95B9F726
:103B6000D3CF0895313011F40C94EA1B323011F4A4
:103B70000C94F11B0895A6E0B1E0E3E0F1E00E94AF
:103B8000081E33970C94E41DE6E0F1E0A3E0B1E0F9
:103B90000C94F61DEFE0F1E0A0E0B1E00C94D21D32
:103BA000ADE0BB27868197810E94F71F0D9383812B
:103BB00094810E94F71F0D93808191810E94F71FCD
:103BC0000D930895EDE0FF2782810E94EC1F8AE3A8
:103BD0008D9381810E94EC1F8AE38D9380810E94E6
:103BE000EC1F88278C930895ADE0BB2780819181DD
:103BF0000E94F71F0D93838194810E94F71F0D93FC
:103C0000868197810E94F71F0D930895EDE0FF27AD
:103C100080810E94EC1F8FE28D9381810E94EC1FB6
:103C20008FE28D9382810E94EC1F88278D930895E7
:103C300021D00F2D069506950F0D0D0D8F2D83703C
:103C400021F41E2D13300AF40A958E2D8A9599279A
:103C5000E8E6FCE30E94E61FA8E1BB270E94991F4B
:103C6000080F47E00C94F12105010104060204004D
:103C70000305010393E0ADE002C096E0AAE0B0E0E6
:103C80008FB7F89401910D939A95E1F78FBF08953E
:103C90000191119145EB55E00E94971B440F440F91
:103CA000F42E0F31150728F481E0E82E0395D02E6D
:103CB00024C00C33150728F482E0E82E0E51D02ED4
:103CC0001CC00150150B4DE651E00E94B71BF40ECD
:103CD0007CE07A95872F9927ECEFFCE30E94E61FA2
:103CE000A2E1BB270E94931F0217130790F373955D
:103CF000E72E021B130B0395D02E089500001F0022
:103D00003B005A0078009700B500D400F300110181
:103D100030014E01019111912191308140E851E52E
:103D200061E070E00E94FB1B042F152F0C944A1ECB
:103D3000A1DF0E2D0A95802F0295003220F01F2D55
:103D4000137009F40395DA940D0D11279927E4E611
:103D5000FDE30E94E61FA8E1BB270E94991F080F00
:103D6000111F0895000F1B2A384755647381909ED8
:103D700081DF0F2D11274CE355270E94911B5527FA
:103D80000E0D151F4CE322273327662777270E9445
:103D9000541F0D0D131F231F08956CDFDF92EF9248
:103DA000FF920F2D1127222733274DE651E060E0C7
:103DB00070E00E94541FFF904F2D4D5F4695469531
:103DC0005527662777270E94E820EF90DF900F9312
:103DD0001F932F933F930E94991E222733277F9191
:103DE0006F915F914F910C94E82047DFAF92BF92A3
:103DF000CF920E94CE1E40E851E561E070E00E9443
:103E0000541FFF90EF90DF900F931F932F933F93DA
:103E10000E94B91E7F916F915F914F910C94E820A1
:103E2000019111912191308140E851E561E070E00C
:103E30000E94FB1B0C94201F019111912191308154
:103E400040E15EE060E070E00E94FB1BF42E4CE37A
:103E500050E00E94971BE42ED02E0895AF93BF939D
:103E60000E94101FBF91AF910C94E21DAF93BF93BE
:103E70000E948A1EBF91AF910C94061E41E2FF275B
:103E800047BF849108950191119121913081089546
:103E9000015010400F92B801469F8001479F100DBE
:103EA000569F100D0F9008950F921F922F92C801E8
:103EB000D901489F80014A9F90014B9F202C499F28
:103EC000100D211D321D5A9F202C589F100D211DB1
:103ED000321D599F200D311D689F200D311D699F96
:103EE000300D789F300D2F901F900F9008950E94F5
:103EF0007D1F0D920020D9F70895D895319628F4AA
:103F00008F938BB783958BBF8F910020089591E09D
:103F100005C092E003C094E001C098E0EEDF0D928E
:103F20009A95E1F70895880F991FE80FF91F0DD0B2
:103F3000F0CFE80FF91F09D0EACF880F991F880F3B
:103F4000991FE80FF91F01D0E6CF28F48F938BB7A4
:103F500083958BBF8F91089528F48F938BB78A95A3
:103F60008BBF8F9108950196019721F00E947D1FCC
:103F7000E9F7FACF0895819104D08D938823D9F77A
:103F80000895813618F08B3708F48F7D089591E0FD
:103F9000882321F08894991F8A95E9F7892F9095B5
:103FA0000895883018F011968850FBCF089580E36B
:103FB0000EF4839508950F9200240BBE0F90089580
:103FC0000F9301E00BBF0F91889408950F93002782
:103FD000F9CF0F9302E0F6CF00278A3018F08A500D
:103FE0000395FBCF005D0D93805D8D930895805305
:103FF00090530027813018F0065F8A95FBCF090F98
:104000000895AF93BF930F939F938F938FB78F9321
:10401000A0E0B1E08C9183958D938C3309F03DC085
:1040200088278E9311968C9183958D938C3309F00C
:1040300034C088278E9311968C9183958D93883107
:1040400061F588278E9311968C9183958D939C9121
:104050000EE1943089F0963079F0993069F09B3018
:1040600059F00CE1923039F411969C9111979370AC
:1040700019F4039501C00FE1801778F071F081E029
:104080008E9311968C9183958D938D3031F481E0D0
:104090008E9311968C9183958C938F918FBF8F9176
:1040A0009F910F91BF91AF910F921F922F923F92CC
:1040B0004F925F927F92AF92BF920F931F932F9375
:1040C0003F934F935F936F937F938F939F93AF93A0
:1040D000BF93CF93DF93EF93FF939FB79F939BB7CC
:1040E0009F9399279BBF0E94D1029F919BBF9F9155
:1040F0009FBFFF91EF91DF91CF91BF91AF919F91C2
:104100008F917F916F915F914F913F912F911F916F
:104110000F91BF90AF907F905F904F903F902F9006
:104120001F900F90189599278D9193958823E1F70B
:10413000939511968C9311978E919A95D1F7089536
:10414000EA2FFB2F00244C918D9103948E32E1F7DE
:1041500011248D9113948823E1F71A94101640F4DA
:104160001197202F2119239580E38D932A95E9F744
:10417000113039F59927AE2FBF2FA00DB91FA00F11
:10418000B91F8C919C93853308F421C031E08E9146
:104190008E32E9F38D3241F0830F8A3319F480E3D4
:1041A00031E001C033278C93AE1789F7332341F0F8
:1041B000AE2FBF2FB8DF81E34D3209F431968083F3
:1041C00008958827E00DF81FE00FF81F80830895F9
:1041D000040F151F261F371F0895041B150B260BF0
:1041E000370B089504171507260737070895000FA2
:1041F000111F221F331F08950095109520953095AB
:104200000F5F1F4F2F4F3F4F0895019110810FC037
:104210000E94431F0EC00E94431F10C001911081D5
:1042200017FF05C03FEF2FEF04C0008111272227A1
:10423000332737FF03C0E0DF8DE28D93CF92DF920B
:10424000EF92AA24BB24CC24DD24EE2440E2EAE051
:10425000FF2755E093E38081890F87FD9F7083FDE1
:10426000907F891B81935A95A9F7C1DFAA1CBB1CBB
:10427000CC1CDD1CEE1C4A9551F7E894EFE0FF27BB
:1042800082910BD0EB30E0F71EF068948A2D09D0B4
:104290004D93EF90DF90CF900895982F829501D0A5
:1042A000892F8F70805D26F0803309F4089568941B
:1042B0008D93089500271127222733271DD08A3395
:1042C00028F4803318F005D015D0F9CF0EF494CF30
:1042D000089580538F93402F512F622F732F87DFC4
:1042E00086DF76DF84DF8F919927080F191F291F3A
:1042F000391F08958D910895E894FCDF8032E9F329
:104300008B32D9F38930C9F38D3211F46894F2CF2E
:10431000089541E003C042E001C044E0E40F882773
:10432000F81F8291982F829506D0892F04D04A9544
:10433000C1F70C94B2218F708A3008F0895F805DDC
:104340008D93089541E0E40F8827F81F829138E0AB
:1043500098E1880F991F9D933A95D1F74A95B1F747
:104360000C94B22188278D93089581918D93882391
:10437000E1F7089594E081918D939A95E1F708957E
:1043800009919191992359F08A95D9F73197002392
:1043900031F081918D930A958823C9F70895E2CF72
:1043A000F999FECFE1BDF2BD3196089591E001C0CB
:1043B00092E07B3751F47FB7F894F2DF8D9180BDA6
:1043C000FA9AF99A9A95C9F77FBF7727089591E0ED
:1043D00001C092E0E5DFF89A80B58D939A95D1F708
:1043E0000895FF93881BF9E0001FFA9511F4FF91DF
:1043F0000895881F841B18F4840F8894F5CF0894BF
:10440000F3CF8FEF83959D919923E1F708956894F9
:1044100001C0E894AF93BF938D9116F0919103C0C2
:104420000E947D1F902D891718F011F48823A1F7A1
:10443000BF91AF9108950D919981903009F013D0FB
:10444000502788E0440F551F10F4422753278A95C0
:10445000C9F7319781F789919991803019F08A01D4
:1044600005D0A801089588E0112701C080E1080166
:1044700016940794001F111F8A95D1F708950FEF26
:104480001FEF2FEF3FEF60E273E888EB9DEE0D909A
:10449000002548E08894379527951795079520F4CF
:1044A00006271727282739274A95A1F7319779F743
:1044B00000951095209530950895689401C0E89472
:1044C0002227102F231709F4089526F40E947D1F38
:1044D000802D01C08191803081F0891741F070E01A
:1044E0008D931A9591F7239571E01D93EACF01D032
:1044F000E8CF703011F077270895772331F42395B2
:10450000882713958D931A95E9F70895B7FE0895B6
:1045100090E8B91611F4D0FE08959FEFD91AE90A70
:10452000F90A09F403950895D190E190F190019171
:10453000089521913191419151910895502F2D2D40
:104540003E2D4F2D612F0895652F90E8440F551F84
:104550005927990F47956078102F90E8FF0C001F9E
:104560000927990FF794107800380895FF0C90E808
:104570009027110F9795F794092F08951127BD2CB7
:10458000DE2CEF2CF02E0EE1FF2039F4FE2CED2C6A
:10459000DB2CBB240850C2F775C032F00A95BB0C67
:1045A000DD1CEE1CFF1CF9CFB1DFE0CF102FBD2CBE
:1045B000DE2CEF2CF02E11234AF4B094D094E0942A
:1045C000F0949FEFB91AD90AE90AF90A0EE1FF201F
:1045D00039F4FE2CED2CDB2CBB240850C2F752C062
:1045E00032F00A95BB0CDD1CEE1CFF1CF9CF8EDFF0
:1045F000BDCF2DEC3CEC4CEC5DE366270FC094DFA7
:104600009DDFDD24EE2490E8F92E0FE307C091DF53
:1046100005C02227332740E251E46627552351F194
:10462000002381F191DF71F116270058505808944A
:10463000050B18F407FD03C025C007FD23C04695F0
:1046400037952795F694E794D79425D0FF202AF044
:10465000DD0CEE1CFF1C015073F09D2D969548F06B
:10466000DD203AF4EE202AF491E0D90E9927E91ED4
:10467000F91E7CCF07C09FE7092FF92A9FEFD92E9B
:10468000E92E0895DD24EE24FF2400271127089544
:104690000FE79FEFF2CF9F929924AA24BB2488E1D1
:1046A000D216E306F40628F0D21AE30AF40A0894B4
:1046B00001C08894991CAA1CBB1CDD0CEE1CFF1CBD
:1046C0008A9571F7D92CEA2CFB2C9F9008953CDF3A
:1046D000D9F05038C9F016270058952F90580894F3
:1046E000091F12F418F40EC008F00EC00FD0FF20FE
:1046F0002AF0BB0CDD1CEE1CFF1C02C0039513F05E
:1047000005DF34CF0C943B230C9442239F92FF92FD
:10471000EF928D2DFF24EE24DD24BB2493E0849FB3
:104720001001829FB00CD11CE21CF31C839FD00CA3
:10473000E11C2224F21C9A9531F0BD2CDE2CEF2CCA
:10474000FF248F91ECCF9F9008950E947D1F202D14
:104750000E947D1F302D0E947D1F402D0E947D1FD5
:10476000502D089500007A440000C842000080BF28
:1047700030372F30312F3235000031313A32383A6C
:10478000303000002A2A2A2A2A2A2A2A2A2A2A2AD1
:1047900020454D455445522032303235202A2A2AB0
:1047A0002A2A2A2A2A2A2A2A2A0032322D30312D70
:1047B000323032362031333A33333A333200302E0E
:1047C000302E31333700454D455445522E4241532A
:1047D0000000417574003D002C204F4646004944BE
:1047E0007365723C00003E00556C74696D61204138
:1047F0004354434C4B2000002C00454E414255474A
:104800003D004944536C6176653E0000434E54526E
:10481000696E693D00005472792000005074723D49
:1048200000002C20416464723D0054582000505414
:10483000524D44423D00563366733D0056613D0083
:1048400056623D0056633D004933733D00004961A7
:104850003D0049623D0049633D0045616733733D5A
:1048600000004561673D00004562673D000045630B
:10487000673D000050777233733D000050777261DE
:104880003D00507772623D00507772633D00456194
:1048900033733D00457233733D00667265633D00BE
:1048A00043543D0056543D00507472206E6F207684
:1048B000616C0000524547204D4442204445433D31
:1048C00000002C204845583D00002C204445433D25
:1048D0000000435243206661696C20656E204144AC
:1048E00044523D004573706572612052504920006A
:1048F00052504974783E0000534552313D00240027
:10490000545841555431203B0000412C00002D31BA
:1049100000002600545841555434203B00002D32ED
:104920000000545841555435203B00002D350000FF
:104930002C2C2C00545841555436203B00002D3669
:1049400000002C2C2C2C2C2C00004F4B000045522E
:1049500052005345544D424400004E4557204D44AB
:104960004320434D440053455444414100004E6FA1
:1049700020636D642076616C00004C4545564657B7
:10498000000056657273696F6E2046573A2046657F
:10499000636861203C0032322D30312D32303236A6
:1049A0002031333A33333A3333003E2C20417263A3
:1049B0006869766F203C00005345544C4544000024
:1049C000536520636F6E66696775726120736574E5
:1049D0006C6564206120000052535456415200001F
:1049E00056616C6F72657320706F722064656661CA
:1049F000756C7400534554434C4B00003A00543ED0
:104A000000002F00443E00005741544348494E47A0
:104A100020494E464F524D412E20536520636F6E04
:104A200066696775726F2072656C6F6A20656E20AB
:104A3000000020612000534953434C4B0000486F55
:104A400072612061637475616C3D00002C204665C5
:104A50006368612061637475616C3D004C4545433A
:104A60004C4B0000556C74696D61204143542043E8
:104A70004C4B2061203D00002C2064656C20000020
:104A80005345544155540000536520636F6E666969
:104A90006775726F2074782041555420000053458B
:104AA000544F464600004C4545415554000054784B
:104AB0002041757420004C45454F464600004F6626
:104AC000667365742041757420005345544E4557F4
:104AD000000053652061637469766F2054782E203E
:104AE000415554200000534554425547000053653A
:104AF00020636F6E66696775726F20454E4142553F
:104B0000473D00004C454542554700004C45455245
:104B100049440000494420736572203C000053451D
:104B2000544449520000536520636F6E666967758F
:104B3000726F204944736C617665206120004C459A
:104B40004544495200004944736C617665203D003C
:104B500053455452454C000052455345542072650C
:104B60006C6500005345542072656C650000457308
:104B70007065726120434C4B2064656C20536572F4
:104B800076657200414354434C4B0000415554310B
:104B90000000415554320000415554330000415546
:104BA00054350000415554360000537075657274D9
:044BB000613D000063
:00000001FF
