:100000000C94460018950000189500001895000003
:10001000189500001895000018950000189500002C
:100020001895000018950000189500000C94AD1E5E
:10003000189500001895000018950000189500000C
:1000400018950000189500000C94F7011895000011
:100050000C94BB001895000018950000189500003E
:1000600018950000189500001895000018950000DC
:100070000C949E011895000018950000189500003A
:100080001895000018950000189500008FEF8DBF9F
:10009000C0E8E8E94E2E80E48EBFD0E4FFE35F2E97
:1000A000A89584B7082E882784BF88E19927809374
:1000B000600090936000EEEFFFE3A0E0B1E08827DE
:1000C0008D933197E9F787E68093C40080E08093B1
:1000D000C50088E18093C1006624209A25982D9A56
:1000E000279A2F9885E085BD80E084BD70916E00D1
:1000F000716070936E0085E085BD80E28093B600EC
:1001000085E08093B1007091700071607093700011
:10011000A6E0B1E0E8ECF4E40E94921E0E94231EE7
:100120000E94701CAFE0B1E0E2EDF4E40E94921E88
:100130000E94231E0E94761C7091C100706870930B
:10014000C10083E38093CC0080E08093CD00709168
:10015000C8007D7F7093C80087E08093CA0088E163
:100160008093C900229A7091C90070687093C90089
:1001700078940C947E180F921F922F923F924F9278
:100180005F927F92AF92BF920F931F932F933F93F3
:100190004F935F936F937F938F939F93AF93BF938F
:1001A000CF93DF93EF93FF939FB79F939BB79F935B
:1001B00099279BBFA1ECB6E08091C6008C9384E2A6
:1001C000482F0091C106041711F00C94F2007091B1
:1001D0002C03706870932C03A8EFB5E088278C93EC
:1001E0000C94800185E2482F041711F00C94030150
:1001F00070912C03706270932C03ACE8B7E08827F1
:100200008C930C9480010D3011F00C944701ACE2FA
:10021000B3E08C9187FB16F00C94260170912C03AF
:100220007F7770932C0380E0A8EFB5E00E947D1AE1
:100230008D9388278C93E8EFF5E0A2ECB6E00E945E
:10024000612070912C03706470932C03ACE2B3E0D6
:100250008C9185FB16F00C94450170912C037F7DE9
:1002600070932C0380E0ACE8B7E00E947D1A8D9378
:1002700088278C93ECE8F7E0A9E1B8E00E946120C0
:1002800070912C03706170932C030C9480010F31DA
:1002900018F011F00C944E010C948001ACE2B3E024
:1002A0008C9187FB16F00C945F01A1ECB6E08C9169
:1002B000A8EFB5E00E947D1A8D9388278C93ACE25D
:1002C000B3E08C9185FB16F00C948001A1ECB6E0B4
:1002D0008C91ACE8B7E00E947D1A8D9388278C93AF
:1002E000ACE8B7E00E94AD20082F0C3818F011F0F0
:1002F0000C947C010C948001ACE8B7E088278C93C7
:100300009F919BBF9F919FBFFF91EF91DF91CF91F5
:10031000BF91AF919F918F917F916F915F914F911D
:100320003F912F911F910F91BF90AF907F905F9061
:100330004F903F902F901F900F9018950F921F9203
:100340002F923F924F925F927F92AF92BF920F9304
:100350001F932F933F934F935F936F937F938F934D
:100360009F93AF93BF93CF93DF93EF93FF939FB789
:100370009F939BB79F9399279BBFA6EAB8E0809174
:10038000CE008C93ACE2B3E08C9183FB16F00C941E
:10039000D901A8EBB2E08C918F5F8C938091A60875
:1003A000A8EBB2E0AD90BB24A6EAB8E0AA0DBB1D55
:1003B0008C939F919BBF9F919FBFFF91EF91DF9186
:1003C000CF91BF91AF919F918F917F916F915F91ED
:1003D0004F913F912F911F910F91BF90AF907F90C0
:1003E0005F904F903F902F901F900F9018950F9215
:1003F0001F922F923F924F925F927F92AF92BF9245
:100400000F931F932F933F934F935F936F937F931C
:100410008F939F93AF93BF93CF93DF93EF93FF930C
:100420009FB79F939BB79F9399279BBF74E676BD19
:10043000A3E1B3E08C918F5F8C93A3E1B3E00C91C7
:1004400048E00E949D208C9300911303003011F02E
:100450000C946302A4E1B3E00C9140E20E949D2061
:100460008C93E8EBF0E30E94921EA9E1B3E08C913B
:100470009927A5E1B3E00E94491E80911403A5E1EC
:10048000B3E00E947D1E0E94731E0C9008226894A7
:1004900009F4E894A7E4B2E08C9182F98C93A7E484
:1004A000B2E08C9194E089278C93A7E4B2E08C9120
:1004B00082FBA5E2B0E08C9180F98C93A4E1B3E0DB
:1004C0008C918F5F8C93ACE2B3E08C9183FB16F040
:1004D0000C948E02A0ECB2E00E94361AA0ECB2E0BE
:1004E0000D911C9140EA50E00E94631AA0ECB2E02A
:1004F0000D931C93A0ECB2E00D911C91003050E0E4
:10050000150711F00C948E0270912C03777F709375
:100510002C0370914702786070934702A7E4B2E021
:100520008C9180FB16F00C94AD02ACE1B3E00E941C
:10053000361AAEE1B3E04D915C91ACE1B3E00D91C0
:100540001C910417150711F00C94AB02709147022F
:100550007260709347020C94B30280E090E0ACE1CB
:10056000B3E08D939C939F919BBF9F919FBFFF9101
:10057000EF91DF91CF91BF91AF919F918F917F913B
:100580006F915F914F913F912F911F910F91BF906C
:10059000AF907F905F904F903F902F901F900F9063
:1005A0001895E0E0F1E00E94A11DA2E2B3E00D93F6
:1005B0001D932D933D9381E08093200300912003B0
:1005C000063018F011F00C944A030091200341E02A
:1005D000041BA1E2B3E00C93A2E2B3E00D911D91E4
:1005E0002D913C91A0E2B3E0AD90BB24A8E6B2E02F
:1005F000AA0CBB1CAA0CBB1CAA0DBB1D4D915D9186
:100600006D917C910E94991FA6E2B3E00D931D931A
:100610002D933D93A6E2B3E00D911D912D913C9158
:10062000A0E2B3E0AD90BB24A0E5B2E0AA0CBB1CF5
:10063000AA0CBB1CAA0DBB1D4D915D916D917C91C7
:100640000E94A71AA6E2B3E00D931D932D933D934C
:1006500040E050E060E070E0A6E2B3E00D911D9153
:100660002D913C910E949E1F11F00C9442038091A9
:100670002103AAE2B3E00E947D1E0E94731E9C919A
:10068000982B9C93A0E2B3E08C918F5F8C9310F435
:100690000C94DE0270912B03716070932B0308950C
:1006A0002898ECEDF4E40E94921E0E948C1A0E949D
:1006B000931AA0E8BFE3E2E0F5E40E94921E0E94D4
:1006C000231E0E94841A0E94931AA0E8BFE3E6E169
:1006D000F5E40E94921E0E94231E0E94841A0E942A
:1006E000931AA0E8BFE3EEE1F5E40E94921E0E9497
:1006F000231E0E94841A0E94931A81E0809319039A
:1007000081E08093190100911901063018F011F071
:100710000C941604E9E1F1E0A190BB24EEEFFFEFA9
:10072000AA0CBB1CAA0CBB1CEA0DFB1DA9E1B1E085
:10073000AD90BB24A0E5B2E0AA0CBB1CAA0CBB1C6C
:10074000AA0DBB1D94E00E949620E9E1F1E0A19082
:10075000BB24E6E1F0E0AA0CBB1CAA0CBB1CEA0D12
:10076000FB1DA9E1B1E0AD90BB24A8E6B2E0AA0C64
:10077000BB1CAA0CBB1CAA0DBB1D94E00E949620BA
:10078000EAE2F5E40E94921E0E948C1AE9E1F1E08F
:10079000A0E8BFE30E94C11F0E94841AEEE2F5E4C4
:1007A0000E94921E0E948C1AE9E1F1E0A190BB2404
:1007B000E0E5F2E0AA0CBB1CAA0CBB1CEA0DFB1D79
:1007C000A0E8BFE30E94B41F0E94841AE0E3F5E4AE
:1007D0000E94921E0E948C1AE9E1F1E0A0E8BFE3BA
:1007E0000E94C11F0E94841AEEE2F5E40E94921E4C
:1007F0000E948C1AE9E1F1E0A190BB24E8E6F2E066
:10080000AA0CBB1CAA0CBB1CEA0DFB1DA0E8BFE395
:100810000E94B41F0E94841A0E94931AA9E1B1E0B9
:100820008C918F5F8C9310F40C9483030E94A3042B
:10083000E6E3F5E40E94921E0E948C1AA4E8B2E05E
:100840000E94861AEEE3F5E40E94921E0E948C1A22
:100850000E94931AE2E3F0E0A1EBB2E094E00E9480
:100860009620E0E4F5E40E94921E0E948C1AE1EBCF
:10087000F2E0A0E8BFE30E94E21D0E94841AE0E5D6
:10088000F5E40E94921E0E948C1AE1EBF2E0A0E8CF
:10089000BFE30E94DA1D0E94841A0E94931AE0E0CE
:1008A000F0E0A0E4B2E00E949320E2E5F5E40E94CB
:1008B000921E0E948C1AE0E4F2E0A0E8BFE30E94DE
:1008C000C11F0E94841A0E94931AE1E0F0E0A1E4A3
:1008D000B2E00E949320EAE5F5E40E94921E0E9495
:1008E0008C1AE1E4F2E0A0E8BFE30E94C11F0E947D
:1008F000841A0E94931AE6E3F0E0A1E1B3E00E94BB
:100900009520A1E1B3E00D911C910F5F1F4FA1E174
:10091000B3E00D931C93E6E3F0E0A1E1B3E07BE7E5
:100920000E948420E4E6F5E40E94921E0E948C1A44
:10093000E1E1F3E0A0E8BFE30E94B11F0E94841A46
:100940000E94931A089580E08093190180E08093BB
:100950001A01A4E8B2E088278C938EE080931901F5
:1009600000911901073118F011F00C94CE04A9E19F
:10097000B1E0EC91FF270E94EA1D082FE0E1F0E0D2
:10098000A4E8B2E00E947D1A0E943520A9E1B1E0FE
:100990008C918F5F8C9310F40C94B004E4E8F2E037
:1009A000A0E3B1E00E946120A4E8B2E088278C9324
:1009B0008EE08093190100911901073118F011F0B0
:1009C0000C94F904A9E1B1E0EC91FF270E94EA1D23
:1009D000082FE0E1F0E0A4E8B2E00E947D1A0E9456
:1009E0003520A9E1B1E08C918F5F8C9310F40C94C9
:1009F000DB04E0E3F1E0A4E8B2E00E94B52011F0EE
:100A00000C94050581E080931901AAE1B1E08C9175
:100A10008F5F8C9300911901003011F00C94240524
:100A200084EF91E00E94041BEEE6F5E40E94921E22
:100A30000E948C1AEAE1F1E0A0E8BFE30E94C11F26
:100A40000E94841A0E94931A00911901013081E0DA
:100A500009F080E08F9300911A010A3081E009F0DB
:100A600080E09F91892B882311F40C94A9040895A8
:100A700000E010E020E030E0A1E2B1E00D931D9332
:100A80002D933C9381E08093190100911901063068
:100A900018F011F00C948E05E9E1F1E0A190BB246F
:100AA000EEEFFFEFAA0CBB1CAA0CBB1CEA0DFB1D52
:100AB0000CE211E020E030E0A0E1BB2794E07BE70E
:100AC0000E948520E9E1F1E0A190BB24E6E1F0E09D
:100AD000AA0CBB1CAA0CBB1CEA0DFB1DA1E2B1E0D9
:100AE00094E07BE70E948520A1E2B1E00D911D9189
:100AF0002D913C914CE350E060E070E00E94941F27
:100B0000A1E2B1E00D931D932D933D93A9E1B1E0D6
:100B10008C918F5F8C9310F40C944505E1E0F0E02C
:100B2000A0E1BB2781E08C937BE70E948220EEE06E
:100B3000F0E00AE010E020E030E0A0E1BB2794E024
:100B40007BE70E9485200895A2ECB2E08C918F5F34
:100B50008C93A2ECB2E00C9145E00E949D208C9316
:100B6000E2EDFFE20E94921EA2ECB2E08C91992786
:100B7000A6EBB2E00E943F1EE4E7F5E40E94921E5D
:100B80000E948C1AE2ECF2E0A0E8BFE30E94C11FD1
:100B90000E94841AEAE7F5E40E94921E0E948C1AD1
:100BA000E6EBF2E0A0E8BFE30E9437200E94841A3F
:100BB0000E94931A81E080931E0100911E0100346F
:100BC00018F011F00C94F60580E0AEE1B1E0AD90C4
:100BD000BB24A6EAB8E0AA0DBB1D8C93AEE1B1E040
:100BE0008C918F5F8C9310F40C94DD0580E08093E2
:100BF000B802A0E4B2E00C9103FB16F00C942006BE
:100C0000E2E8F5E40E94921E0E948C1AE6EBF2E004
:100C1000A0E8BFE30E9437200E94841A0E94931A22
:100C200084E28A93A6EBB2E08D919C918A939A9389
:100C300083E08A93809141020E940A1C0E94931AC9
:100C400070912C03786070932C032A9A84E28A9323
:100C5000A6EBB2E08D919C918A939A9383E08A935C
:100C6000809141020E940C1CEF93FF93ECE6F7E1A8
:100C70000E94FB1AFF91EF912A98709147027061D0
:100C8000709347020895A0E4B2E00C9103FB16F0C4
:100C90000C949206E6E8F5E40E94921E0E948C1ADB
:100CA000E8EBF2E0A0E8BFE30E94C11F0E94841AB3
:100CB000EAE7F5E40E94921E0E948C1AE6EBF2E04D
:100CC000A0E8BFE30E9437200E94841A0E94931A72
:100CD00081E080931E014091B80200911E0104172B
:100CE00018F011F00C949006EEE1F1E0A190BB2415
:100CF000E6EAF8E0EA0DFB1DA0E8BFE30E9435201C
:100D00000E94841AE0E5F5E40E94921E0E948C1A6B
:100D1000AEE1B1E08C918F5F8C9310F40C946B0674
:100D20000E94931A0091B80242E0041BA9EBB2E0C2
:100D30000C930091B90241E0040FAAEBB2E00C93CE
:100D40000091BA0241E0040FABEBB2E00C9381E0FA
:100D50008A9381E08A93A9EBB2E0EC91FF274FEFF1
:100D60005FEF25E030E8A7EAB8E00E94C720ACEBCF
:100D7000B2E04D935C93ABEBB2E0AD90BB24A6EA3E
:100D8000B8E0AA0DBB1D9C91AAEBB2E0AD90BB24CC
:100D9000A6EAB8E0AA0DBB1D8C91AFE1B1E08D933E
:100DA0009C93AFE1B1E04D915C91ACEBB2E00D9161
:100DB0001C910417150711F00C94390BA7E4B2E04D
:100DC0008C9184FB16F00C94D10A0091C202003081
:100DD00011F00C9485078091AA0880934F028091AE
:100DE000AB0880934E028091AC0880934D028091B5
:100DF000AD0880934C02EEE8F5E40E94921E0E943A
:100E00008C1AECE4F2E0A0E8BFE30E94B71F0E9456
:100E1000841A0E94931A8091AE0880934F028091A9
:100E2000AF0880934E028091B00880934D0280916C
:100E3000B10880934C02ACE4B2E08D919C91A3EC9C
:100E4000B2E08D939C93E4E9F5E40E94921E0E9427
:100E50008C1AE3ECF2E0A0E8BFE30E94B11F0E940D
:100E6000841A0E94931A8091B20880934F02809155
:100E7000B30880934E028091B40880934D02809114
:100E8000B50880934C02ACE4B2E08D919C91A5EC46
:100E9000B2E08D939C93E8E9F5E40E94921E0E94D3
:100EA0008C1AE5ECF2E0A0E8BFE30E94B11F0E94BB
:100EB000841A0E94931A8091B60880934F02809101
:100EC000B70880934E028091B80880934D028091BC
:100ED000B90880934C02ACE4B2E08D919C91A7ECF0
:100EE000B2E08D939C93ECE9F5E40E94921E0E947F
:100EF0008C1AE7ECF2E0A0E8BFE30E94B11F0E9469
:100F0000841A0E94931A0C94CF0A013011F00C94A9
:100F100063088091AA0880934F028091AB08809368
:100F20004E028091AC0880934D028091AD08809371
:100F30004C02ECEBF4E40E94921E0E945122ECE47D
:100F4000F2E00E9440210E946A210E94BA21EDE055
:100F5000F0E0ADECB2E00E946620E0EAF5E40E9429
:100F6000921E0E948C1AEDECF2E0A0E8BFE30E9412
:100F700040210E94131B0E94841A0E94931A8091A0
:100F8000AE0880934F028091AF0880934E0280910B
:100F9000B00880934D028091B10880934C02ECEB35
:100FA000F4E40E94921E0E945122ECE4F2E00E94BE
:100FB00040210E946A210E94BA21EDE0F0E0A1EDFB
:100FC000B2E00E946620E6EAF5E40E94921E0E94CA
:100FD0008C1AE1EDF2E0A0E8BFE30E9440210E94FC
:100FE000131B0E94841A0E94931A8091B208809366
:100FF0004F028091B30880934E028091B408809391
:101000004D028091B50880934C02ECEBF4E40E9411
:10101000921E0E945122ECE4F2E00E9440210E94C4
:101020006A210E94BA21EDE0F0E0A5EDB2E00E9455
:101030006620EAEAF5E40E94921E0E948C1AE5ED11
:10104000F2E0A0E8BFE30E9440210E94131B0E942F
:10105000841A0E94931A8091B60880934F0280915F
:10106000B70880934E028091B80880934D0280911A
:10107000B90880934C02ECEBF4E40E94921E0E94AB
:101080005122ECE4F2E00E9440210E946A210E9479
:10109000BA21EDE0F0E0A9EDB2E00E946620EEEAB0
:1010A000F5E40E94921E0E948C1AE9EDF2E0A0E89D
:1010B000BFE30E9440210E94131B0E94841A0E94D9
:1010C000931A0C94CF0A023011F00C9441098091CC
:1010D000AA0880934F028091AB0880934E028091C2
:1010E000AC0880934D028091AD0880934C02E0ECF7
:1010F000F4E40E94921E0E945122ECE4F2E00E946D
:1011000040210E946A210E941322EDE0F0E0A1E05C
:10111000B3E00E946620E2EBF5E40E94921E0E947A
:101120008C1AE1E0F3E0A0E8BFE30E9440210E94B6
:10113000131B0E94841A0E94931A8091AE08809318
:101140004F028091AF0880934E028091B008809347
:101150004D028091B10880934C02E0ECF4E40E94CF
:10116000921E0E945122ECE4F2E00E9440210E9473
:101170006A210E941322EDE0F0E0A5E0B3E00E94B6
:101180006620EAEBF5E40E94921E0E948C1AE5E0CC
:10119000F3E0A0E8BFE30E9440210E94131B0E94DD
:1011A000841A0E94931A8091B20880934F02809112
:1011B000B30880934E028091B40880934D028091D1
:1011C000B50880934C02E0ECF4E40E94921E0E9469
:1011D0005122ECE4F2E00E9440210E946A210E9428
:1011E0001322EDE0F0E0A9E0B3E00E946620E0EC1D
:1011F000F5E40E94921E0E948C1AE9E0F3E0A0E858
:10120000BFE30E9440210E94131B0E94841A0E9487
:10121000931A8091B60880934F028091B70880930B
:101220004E028091B80880934D028091B908809356
:101230004C02E0ECF4E40E94921E0E945122ECE485
:10124000F2E00E9440210E946A210E941322EDE0F8
:10125000F0E0ADE0B3E00E946620E6ECF5E40E9429
:10126000921E0E948C1AEDE0F3E0A0E8BFE30E941A
:1012700040210E94131B0E94841A0E94931A0C940E
:10128000CF0A033011F00C941F0A8091AA088093B2
:1012900053028091AB08809352028091AC088093F6
:1012A00051028091AD0880935002E4ECF4E40E9476
:1012B000921E0E945122E0E5F2E00E9440210E942D
:1012C00082210E941322EDE0F0E0ADEDB2E00E9439
:1012D0006620ECECF5E40E94921E0E948C1AEDED63
:1012E000F2E0A0E8BFE30E9440210E94131B0E948D
:1012F000841A0E94931A8091AE08809353028091C1
:10130000AF08809352028091B0088093510280917F
:10131000B10880935002E4ECF4E40E94921E0E9413
:101320005122E0E5F2E00E9440210E9482210E94C9
:101330001322EDE0F0E0A1EEB2E00E946620E4EDC1
:10134000F5E40E94921E0E948C1AE1EEF2E0A0E801
:10135000BFE30E9440210E94131B0E94841A0E9436
:10136000931A8091B208809353028091B3088093BE
:1013700052028091B408809351028091B508809305
:101380005002E4ECF4E40E94921E0E945122E0E537
:10139000F2E00E9440210E9482210E941322EDE08F
:1013A000F0E0A5EEB2E00E946620EAEDF5E40E94CE
:1013B000921E0E948C1AE5EEF2E0A0E8BFE30E94C4
:1013C00040210E94131B0E94841A0E94931A80914C
:1013D000B608809353028091B7088093520280919F
:1013E000B808809351028091B90880935002E4ECD0
:1013F000F4E40E94921E0E945122E0E5F2E00E9475
:1014000040210E9482210E941322EDE0F0E0A9EE2B
:10141000B2E00E946620E0EEF5E40E94921E0E9477
:101420008C1AE9EEF2E0A0E8BFE30E9440210E949E
:10143000131B0E94841A0E94931A0C94CF0A043042
:1014400011F00C94C70A8091AA0880934F028091F2
:10145000AB0880934E028091AC0880934D0280913E
:10146000AD0880934C02E0ECF4E40E94921E0E94CE
:101470005122ECE4F2E00E9440210E946A210E9485
:10148000BA21EDE0F0E0ADEEB2E00E946620E6EEBB
:10149000F5E40E94921E0E948C1AEDEEF2E0A0E8A4
:1014A000BFE30E9440210E94131B0E94841A0E94E5
:1014B000931A8091AE0880934F028091AF08809379
:1014C0004E028091B00880934D028091B1088093C4
:1014D0004C02E0ECF4E40E94921E0E945122ECE4E3
:1014E000F2E00E9440210E946A210E94BA21EDE0B0
:1014F000F0E0ADEFB2E00E946620ECEEF5E40E9471
:10150000921E0E948C1AEDEFF2E0A0E8BFE30E9469
:1015100040210E94131B0E94841A0E94931A8091FA
:10152000BA0880934F028091BB0880934E0280914D
:10153000BC0880934D028091BD0880934C02ECEB77
:10154000F4E40E94921E0E945122ECE4F2E00E9418
:1015500040210E946A210E94BA21EDE0F0E0A9EC4E
:10156000B2E00E946620E2EFF5E40E94921E0E9423
:101570008C1AE9ECF2E0A0E8BFE30E9440210E944F
:10158000131B0E94841A0E94931A0C94CF0AE8EF4E
:10159000F5E40E94921E0E948C1A0E94931A0C94E9
:1015A000370B0091B802073011F00C940B0B90919F
:1015B000AA088091AB08AEEBB2E08D939C93E4E077
:1015C000F6E40E94921E0E948C1AEEEBF2E0A0E874
:1015D000BFE30E94B11F0E94841AE2E1F6E40E9478
:1015E000921E0E948C1AEEEBF2E0A0E8BFE30E948C
:1015F00037200E94841AEAE1F6E40E94921E0E94BB
:101600008C1AEEEBF2E0A0E8BFE30E94B11F0E944B
:10161000841A0E94931A0091B802083011F00C94B9
:10162000370B9091AB088091AC08AEEBB2E08D9394
:101630009C93E4E0F6E40E94921E0E948C1AEEEB6A
:10164000F2E0A0E8BFE30E94B11F0E94841AE2E129
:10165000F6E40E94921E0E948C1AEEEBF2E0A0E8E3
:10166000BFE30E9437200E94841A0E94931A0C94B0
:10167000500BA0E4B2E00C9103FB16F00C94500B5D
:10168000E2E2F6E40E94921E0E948C1AE6EBF2E07F
:10169000A0E8BFE30E9437200E94841A0E94931A98
:1016A000089580E080934602709147027F7770939F
:1016B0004702A6E4B2E08C918F5F8C93E4E3F6E4FA
:1016C0000E94921E0E948C1AE6E4F2E0A0E8BFE3BA
:1016D0000E94C11F0E94841A0E94931A84E690E01F
:1016E000AEE1B3E08D939C9380E090E0ACE1B3E099
:1016F0008D939C9370914702716070934702709133
:1017000047027D7F70934702ACE2B3E08C9184FB8B
:1017100016F00C949E0B70912C037F7E70932C031B
:10172000E0E4F6E40E94921E0E948C1AA9E1B8E05F
:101730000E94861A0E94931A0E94DB10ACE2B3E06A
:101740008C9186FB16F00C94B80B70912C037F7B68
:1017500070932C03E8E4F6E40E94921E0E948C1A17
:10176000A2ECB6E00E94861A0E94931A0E946511AC
:10177000A7E4B2E08C9187FB81E00EF080E08F93CC
:10178000A7E4B2E08C9181FB81E00EF080E09F91B4
:10179000892B882311F40C94840B709147027E7F6F
:1017A00070934702A7E4B2E08C9187FB16F40C9487
:1017B000E50BEEE4F6E40E94921E0E948C1AA0E370
:1017C000B1E00E94861A0E94931AA7E4B2E08C91BD
:1017D00087FB81E00EF080E08F930091460203309A
:1017E00081E009F080E09F91892B882311F40C940B
:1017F000590B709147027E7F7093470270914702A8
:101800007F77709347020895E0E5F6E40E94921E08
:101810000E948C1A0E94671CAFE0B1E00E94861AF9
:10182000E0E5F5E40E94921E0E948C1A0E94671C5B
:10183000A6E0B1E00E94861A0E94931A0E94671CDB
:10184000E6E0F1E0ABE9B2E00E9461200E94671C93
:10185000EFE0F1E0A6EAB2E00E946120A0E3B1E08F
:10186000EAE5F6E40E94921E0E94231EEBE9F2E0F4
:10187000A0E3B1E00E947D1A0E946120A0E3B1E0E4
:101880000E947D1AE0E5F5E40E94921E0E94231E4C
:10189000E6EAF2E0A0E3B1E00E947D1A0E94612036
:1018A000A0E3B1E00E947D1AE0E5F5E40E94921EFB
:1018B0000E94231EE4E8F2E0A0E3B1E00E947D1A5A
:1018C0000E946120A0E3B1E00E947D1AEEE5F6E4FB
:1018D0000E94921E0E94231EA0E3B1E00E947D1A86
:1018E000E0E5F5E40E94921E0E94231EE3ECF2E084
:1018F000A0E3B1E00E947D1A0E94B11FA0E3B1E015
:101900000E947D1AE0E5F5E40E94921E0E94231ECB
:10191000E5ECF2E0A0E3B1E00E947D1A0E94B11F65
:10192000A0E3B1E00E947D1AE0E5F5E40E94921E7A
:101930000E94231EE7ECF2E0A0E3B1E00E947D1AD2
:101940000E94B11FA0E3B1E00E947D1AE0E5F5E43A
:101950000E94921E0E94231EE9ECF2E0A0E3B1E097
:101960000E947D1A0E9440210E94131BA0E3B1E057
:101970000E947D1AE0E5F5E40E94921E0E94231E5B
:10198000E1EDF2E0A0E3B1E00E947D1A0E94402167
:101990000E94131BA0E3B1E00E947D1AE0E5F5E48C
:1019A0000E94921E0E94231EE5EDF2E0A0E3B1E04A
:1019B0000E947D1A0E9440210E94131BA0E3B1E007
:1019C0000E947D1AE0E5F5E40E94921E0E94231E0B
:1019D000E9EDF2E0A0E3B1E00E947D1A0E9440210F
:1019E0000E94131BA0E3B1E00E947D1AE0E5F5E43C
:1019F0000E94921E0E94231EA0E3B1E00E94AD202F
:101A0000AFE1B1E08D9388278C93AFE1B1E0ED9128
:101A1000FC91A0E3B1E00E94EB20A2E4B2E00D93C0
:101A20001D932D933D93A0E3B1E00E947D1AE2E661
:101A3000F6E40E94921E0E94231EE2E4F2E0A0E37C
:101A4000B1E00E947D1A0E943920EEE4F6E40E9483
:101A5000921E0E948C1AA0E3B1E00E94861A0E9496
:101A6000931A0E94510B0895E4E6F6E40E94921E38
:101A70000E948C1A0E94671CAFE0B1E00E94861A97
:101A8000E0E5F5E40E94921E0E948C1A0E94671CF9
:101A9000A6E0B1E00E94861A0E94931A0E94671C79
:101AA000E6E0F1E0ABE9B2E00E9461200E94671C31
:101AB000EFE0F1E0A6EAB2E00E946120A0E3B1E02D
:101AC000EAE5F6E40E94921E0E94231EEBE9F2E092
:101AD000A0E3B1E00E947D1A0E946120A0E3B1E082
:101AE0000E947D1AE0E5F5E40E94921E0E94231EEA
:101AF000E6EAF2E0A0E3B1E00E947D1A0E946120D4
:101B0000A0E3B1E00E947D1AE0E5F5E40E94921E98
:101B10000E94231EE4E8F2E0A0E3B1E00E947D1AF7
:101B20000E946120A0E3B1E00E947D1AEEE6F6E497
:101B30000E94921E0E94231EA0E3B1E00E947D1A23
:101B4000E0E5F5E40E94921E0E94231EEDEDF2E016
:101B50000E944021A0E8BFE3AF93BF930E94131BF4
:101B600011E002E0BF91AF910E944C1FE0E8FFE35B
:101B7000A0E3B1E00E947D1A0E946120A0E3B1E0E1
:101B80000E947D1AE0E5F5E40E94921E0E94231E49
:101B9000E1EEF2E00E944021A0E8BFE3AF93BF93E3
:101BA0000E94131B11E002E0BF91AF910E944C1FF5
:101BB000E0E8FFE3A0E3B1E00E947D1A0E9461200B
:101BC000A0E3B1E00E947D1AE0E5F5E40E94921ED8
:101BD0000E94231EE5EEF2E00E944021A0E8BFE350
:101BE000AF93BF930E94131B11E002E0BF91AF912E
:101BF0000E944C1FE0E8FFE3A0E3B1E00E947D1AE1
:101C00000E946120A0E3B1E00E947D1AE0E5F5E4C6
:101C10000E94921E0E94231EE9EEF2E00E944021E3
:101C2000A0E8BFE3AF93BF930E94131B11E002E053
:101C3000BF91AF910E944C1FE0E8FFE3A0E3B1E049
:101C40000E947D1A0E946120A0E3B1E00E947D1AEB
:101C5000E0E5F5E40E94921E0E94231EEDEEF2E004
:101C60000E944021A0E8BFE3AF93BF930E94131BE3
:101C700011E002E0BF91AF910E944C1FE0E8FFE34A
:101C8000A0E3B1E00E947D1A0E946120A0E3B1E0D0
:101C90000E947D1AE0E5F5E40E94921E0E94231E38
:101CA000E1EFF2E0A0E3B1E00E947D1A0E94B71FCD
:101CB000A0E3B1E00E947D1AE0E5F5E40E94921EE7
:101CC0000E94231EE5EFF2E0A0E3B1E00E947D1A3E
:101CD0000E94B71FA0E3B1E00E947D1AE0E5F5E4A1
:101CE0000E94921E0E94231EE9EFF2E0A0E3B1E001
:101CF0000E947D1A0E94B71FA0E3B1E00E94AD20B0
:101D0000AFE1B1E08D9388278C93AFE1B1E0ED9125
:101D1000FC91A0E3B1E00E94EB20A2E4B2E00D93BD
:101D20001D932D933D93A0E3B1E00E947D1AE2E65E
:101D3000F6E40E94921E0E94231EE2E4F2E0A0E379
:101D4000B1E00E947D1A0E943920EEE4F6E40E9480
:101D5000921E0E948C1AA0E3B1E00E94861A0E9493
:101D6000931A0E94510B0895E2E7F6E40E94921E36
:101D70000E948C1A0E94671CAFE0B1E00E94861A94
:101D8000E0E5F5E40E94921E0E948C1A0E94671CF6
:101D9000A6E0B1E00E94861A0E94931A0E94671C76
:101DA000E6E0F1E0ABE9B2E00E9461200E94671C2E
:101DB000EFE0F1E0A6EAB2E00E946120A0E3B1E02A
:101DC000EAE5F6E40E94921E0E94231EEBE9F2E08F
:101DD000A0E3B1E00E947D1A0E946120A0E3B1E07F
:101DE0000E947D1AE0E5F5E40E94921E0E94231EE7
:101DF000E6EAF2E0A0E3B1E00E947D1A0E946120D1
:101E0000A0E3B1E00E947D1AE0E5F5E40E94921E95
:101E10000E94231EE4E8F2E0A0E3B1E00E947D1AF4
:101E20000E946120A0E3B1E00E947D1AECE7F6E495
:101E30000E94921E0E94231EA0E3B1E00E947D1A20
:101E4000E0E5F5E40E94921E0E94231EE1E0F3E02B
:101E50000E944021A0E8BFE3AF93BF930E94131BF1
:101E600011E002E0BF91AF910E944C1FE0E8FFE358
:101E7000A0E3B1E00E947D1A0E946120A0E3B1E0DE
:101E80000E947D1AE0E5F5E40E94921E0E94231E46
:101E9000E5E0F3E00E944021A0E8BFE3AF93BF93E9
:101EA0000E94131B11E002E0BF91AF910E944C1FF2
:101EB000E0E8FFE3A0E3B1E00E947D1A0E94612008
:101EC000A0E3B1E00E947D1AE0E5F5E40E94921ED5
:101ED0000E94231EE9E0F3E00E944021A0E8BFE356
:101EE000AF93BF930E94131B11E002E0BF91AF912B
:101EF0000E944C1FE0E8FFE3A0E3B1E00E947D1ADE
:101F00000E946120A0E3B1E00E947D1AE0E5F5E4C3
:101F10000E94921E0E94231EEDE0F3E00E944021E9
:101F2000A0E8BFE3AF93BF930E94131B11E002E050
:101F3000BF91AF910E944C1FE0E8FFE3A0E3B1E046
:101F40000E947D1A0E946120A0E3B1E00E947D1AE8
:101F5000E0E5F5E40E94921E0E94231EEDEFF2E000
:101F60000E944021A0E8BFE3AF93BF930E94131BE0
:101F700011E002E0BF91AF910E944C1FE0E8FFE347
:101F8000A0E3B1E00E947D1A0E946120A0E3B1E0CD
:101F90000E947D1AE0E8F6E40E94921E0E94231E31
:101FA000A0E3B1E00E94AD20AFE1B1E08D938827BE
:101FB0008C93AFE1B1E0ED91FC91A0E3B1E00E9420
:101FC000EB20A2E4B2E00D931D932D933D93A0E38B
:101FD000B1E00E947D1AE2E6F6E40E94921E0E94A1
:101FE000231EE2E4F2E0A0E3B1E00E947D1A0E9429
:101FF0003920EEE4F6E40E94921E0E948C1AA0E3BF
:10200000B1E00E94861A0E94931A0E94510B089513
:10201000E4E8F6E40E94921E0E948C1A0E94671C5B
:10202000AFE0B1E00E94861AE0E5F5E40E94921E5E
:102030000E948C1A0E94671CA6E0B1E00E94861ADA
:102040000E94931A0E94671CE6E0F1E0ABE9B2E05F
:102050000E9461200E94671CEFE0F1E0A6EAB2E076
:102060000E946120A0E3B1E0EAE5F6E40E94921E3E
:102070000E94231EEBE9F2E0A0E3B1E00E947D1A8A
:102080000E946120A0E3B1E00E947D1AE0E5F5E442
:102090000E94921E0E94231EE6EAF2E0A0E3B1E055
:1020A0000E947D1A0E946120A0E3B1E00E947D1A87
:1020B000E0E5F5E40E94921E0E94231EE4E8F2E0AF
:1020C000A0E3B1E00E947D1A0E946120A0E3B1E08C
:1020D0000E947D1AEEE8F6E40E94921E0E94231EE2
:1020E000A0E3B1E00E947D1AE0E5F5E40E94921EB3
:1020F0000E94231EA3E2B0E08C9185FBA0E3B1E037
:102100000E947D1A0E94831E8D9388278C93A0E3E2
:10211000B1E00E947D1AE0E5F5E40E94921E0E9463
:10212000231EE1E1F3E0A0E3B1E00E947D1A0E94EA
:10213000B11FA0E3B1E00E947D1AE2E9F6E40E943B
:10214000921E0E94231EA0E3B1E00E94AD20AFE1E9
:10215000B1E08D9388278C93AFE1B1E0ED91FC91D4
:10216000A0E3B1E00E94EB20A2E4B2E00D931D9346
:102170002D933D93A0E3B1E00E947D1AE2E6F6E4E0
:102180000E94921E0E94231EE2E4F2E0A0E3B1E06E
:102190000E947D1A0E943920EEE4F6E40E94921E0D
:1021A0000E948C1AA0E3B1E00E94861A0E94931A42
:1021B0000E94510B0895E9E1F8E09BE304E132E26B
:1021C000AEE2B3E00E940B21ADE2B3E02C930091AC
:1021D0002D03003018F011F00C94F0100C94F8104E
:1021E000EEE2F3E0A9E2B1E00E9461200C94FE105F
:1021F000E9E1F8E0A9E2B1E00E946120A9E2B1E0E2
:10220000EAE9F6E40E94921E0E94B32011F00C94B9
:102210001011709147027068709347020C9464111A
:10222000EEE9F6E40E94921E0E94B32011F00C9495
:102230002011709147027F77709347020C946411CC
:10224000E2EAF6E40E94921E0E94B32011F00C9480
:102250003E1170912C03706470932C03E3E4F3E05F
:10226000A2ECB6E00E946120EAEAF6E40E94921E27
:102270000E948C1A0E94931A0C946411E6EBF6E407
:102280000E94921E0E94B32011F00C945C11709178
:102290002C03706470932C03E3E4F3E0A2ECB6E04B
:1022A0000E946120EAEAF6E40E94921E0E948C1AC3
:1022B0000E94931A0C946411EEEBF6E40E94921EB5
:1022C0000E948C1A0E94931A089581E0E2ECF6E0D5
:1022D00006E00A93ABE0B2E00E946C20E2ECF6E08C
:1022E0009CE204E132E2AEE2B3E00E940B21ADE2F7
:1022F000B3E02C93AEE2B3E00E94AD20082F06308D
:1023000011F00C945217EEE2F3E0A9E2B1E00E9462
:102310006120E9E2F1E0A9E2B1E00E94671E8FEFDF
:102320008093F901A9E2B1E0EAECF6E40E94921E82
:102330000E94B32011F00C94DE1180E08093F9012B
:10234000A0E3B1E0E2EDF6E40E94921E0E94231E9B
:10235000ABE0B2E0E2E0F5E40E94921E0E94231E90
:10236000EBE0F2E0A0E3B1E00E947D1A0E94612060
:10237000A0E3B1E00E947D1AE6EEF6E40E94921E10
:102380000E94231EABE0B2E0EEE1F5E40E94921E53
:102390000E94231EEBE0F2E0A0E3B1E00E947D1A70
:1023A0000E946120A0E3B1E00E947D1AEEE3F5E413
:1023B0000E94921E0E94231E0C945017E4EFF6E434
:1023C0000E94921E0E94B32011F00C941D120091E5
:1023D0002D03023011F00C941812A3E4B3E00E9414
:1023E0000620A9E1B1E00C9300911901013110F030
:1023F0000C94131280E08093F901A0E3B1E0ECEFBC
:10240000F6E40E94921E0E94231EE9E1F1E0A0E39F
:10241000B1E00E947D1A0E94C11F80911901809332
:1024200019030C94161285E08093F9010C941B1289
:1024300084E08093F9010C945017E4E1F7E40E94E2
:10244000921E0E94B32011F00C94351280E080930C
:10245000F901A0E3B1E0ECE1F7E40E94921E0E94D2
:10246000231E0E9438050C945017E0E3F7E40E9405
:10247000921E0E94B32011F00C94411300912D0381
:10248000023011F00C943C13A3E4B3E00E94AD20A1
:10249000082F0C3011F00C94371380E08093F90171
:1024A00087E0E3E4F3E002E00A93ABE0B2E00E94ED
:1024B0006C20ABE0B2E00E947D1AE8E3F7E40E94F2
:1024C000921E0E94231E89E0E3E4F3E002E00A93F7
:1024D000ABE0B2E00E947D1A0E946C20ABE0B2E05B
:1024E0000E947D1AE8E3F7E40E94921E0E94231ED8
:1024F0008BE0E3E4F3E002E00A93ABE0B2E00E9499
:102500007D1A0E946C20ABE0B2E00E94861A0E9405
:10251000931AEBE0F2E0AFE0B1E00E9461200E948C
:10252000761CEAE3F7E40E94921E0E948C1A0E9435
:10253000671CAFE0B1E00E94861A0E94931A81E006
:10254000E3E4F3E002E00A93ABE0B2E00E946C2027
:10255000ABE0B2E00E947D1AEEE3F7E40E94921E27
:102560000E94231E83E0E3E4F3E002E00A93ABE081
:10257000B2E00E947D1A0E946C20ABE0B2E00E94A3
:102580007D1AEEE3F7E40E94921E0E94231E85E06E
:10259000E3E4F3E002E00A93ABE0B2E00E947D1ACC
:1025A0000E946C20ABE0B2E00E94861A0E94931A4F
:1025B000EBE0F2E0A6E0B1E00E9461200E94701C16
:1025C000E0E4F7E40E94921E0E948C1A0E94671CAD
:1025D000A6E0B1E00E94861A0E94931AA0E3B1E03F
:1025E000E4E4F7E40E94921E0E94231E0E94671CEE
:1025F000E6E0F1E0A0E3B1E00E947D1A0E946120D4
:10260000A0E3B1E00E947D1AEEE6F7E40E94921E7C
:102610000E94231E0E94671CEFE0F1E0A0E3B1E0FE
:102620000E947D1A0E946120E3E0F1E00E94C41C38
:10263000A5EBB2E08C93E0E0F1E00E94A11DA1EBDC
:10264000B2E00D931D932D933D93E2E3F0E0A1EBF7
:10265000B2E094E07BE70E948520709147027062AF
:102660007093470281E0809319030C943A1386E03B
:102670008093F9010C943F1384E08093F9010C944A
:102680005017E2E7F7E40E94921E0E94B32011F077
:102690000C94811380E08093F9010E94671CEFE0A5
:1026A000F1E0ABE0B2E00E946120A0E3B1E0EAE734
:1026B000F7E40E94921E0E94231EEBE0F2E0A0E3EA
:1026C000B1E00E947D1A0E946120A0E3B1E00E9467
:1026D0007D1AE8E8F7E40E94921E0E94231E0E94E1
:1026E000671CE6E0F1E0ABE0B2E00E946120EBE0C5
:1026F000F2E0A0E3B1E00E947D1A0E9461200C94F8
:102700005017E8E9F7E40E94921E0E94B32011F0EE
:102710000C94BD1380E08093F901E1EBF2E0ABE0B3
:10272000B2E00E94DA1DA0E3B1E0E0EAF7E40E9423
:10273000921E0E94231EEBE0F2E0A0E3B1E00E94B3
:102740007D1A0E946120A0E3B1E00E947D1AE4EBB3
:10275000F7E40E94921E0E94231EE1EBF2E0ABE040
:10276000B2E00E94E21DEBE0F2E0A0E3B1E00E94E3
:102770007D1A0E9461200C945017ECEBF7E40E9444
:10278000921E0E94B32011F00C94541400912D035A
:10279000033011F00C944F14A3E4B3E00E94062020
:1027A000AEE1B1E00C9300911E01003080E010F02A
:1027B00009F081E08F9300911E01073081E008F05D
:1027C00080E09F918923882311F40C944A14A8E592
:1027D000B3E00E940620A5E2B1E00D931D932D9376
:1027E0003D93A5E2B1E00D911D912D913C91AEE19B
:1027F000B1E0AD90BB24A0E5B2E0AA0CBB1CAA0CD2
:10280000BB1CAA0DBB1D0D931D932D933C93EEE1B4
:10281000F1E0A190BB24EEEFFFEFAA0CBB1CAA0CC9
:10282000BB1CEA0DFB1DA5E2B1E094E07BE70E9432
:10283000852080E08093F901A0E3B1E0E4ECF7E4C7
:102840000E94921E0E94231EEEE1F1E0A0E3B1E09F
:102850000E947D1A0E94C11FA0E3B1E00E947D1A70
:10286000E8E3F7E40E94921E0E94231EEEE1F1E0ED
:10287000A190BB24E0E5F2E0AA0CBB1CAA0CBB1C97
:10288000EA0DFB1DA0E3B1E00E947D1A0E94B41F77
:102890000C944D1483E08093F9010C94521484E05D
:1028A0008093F9010C945017EAEDF7E40E94921E10
:1028B0000E94B32011F00C94EB1400912D0303300F
:1028C00011F00C94E614A3E4B3E00E940620AEE1FC
:1028D000B1E00C9300911E01003080E010F009F08F
:1028E00081E08F9300911E01073081E008F080E0C5
:1028F0009F918923882311F40C94E114A8E5B3E097
:102900000E940620A5E2B1E00D931D932D933D9307
:10291000A5E2B1E00D911D912D913C91AEE1B1E0A8
:10292000AD90BB24A8E6B2E0AA0CBB1CAA0CBB1C51
:10293000AA0DBB1D0D931D932D933C93EEE1F1E089
:10294000A190BB24E6E1F0E0AA0CBB1CAA0CBB1CC6
:10295000EA0DFB1DA5E2B1E094E07BE70E94852033
:1029600080E08093F901A0E3B1E0E4ECF7E40E9499
:10297000921E0E94231EEEE1F1E0A0E3B1E00E946E
:102980007D1A0E94C11FA0E3B1E00E947D1AE8E316
:10299000F7E40E94921E0E94231EEEE1F1E0A19056
:1029A000BB24E8E6F2E0AA0CBB1CAA0CBB1CEA0D97
:1029B000FB1DA0E3B1E00E947D1A0E94B41F0C949D
:1029C000E41483E08093F9010C94E91484E080938B
:1029D000F9010C945017E2EEF7E40E94921E0E9457
:1029E000B32011F00C94501500912D03023011F01A
:1029F0000C944B15A3E4B3E00E940620AEE1B1E0D5
:102A00000C9300911E01003080E010F009F081E08D
:102A10008F9300911E01073081E008F080E09F91C4
:102A20008923882311F40C944615A0E3B1E0EAEE63
:102A3000F7E40E94921E0E94231EEEE1F1E0A0E363
:102A4000B1E00E947D1A0E94C11FA0E3B1E00E9484
:102A50007D1AE8E3F7E40E94921E0E94231EEEE135
:102A6000F1E0A190BB24E0E5F2E0AA0CBB1CAA0CAB
:102A7000BB1CEA0DFB1DA0E3B1E00E947D1A0E9481
:102A8000B41F80E08093F9010C94491583E0809392
:102A9000F9010C944E1584E08093F9010C945017C1
:102AA000E2EFF7E40E94921E0E94B32011F00C9412
:102AB000B51500912D03023011F00C94B015A3E46C
:102AC000B3E00E940620AEE1B1E00C9300911E013C
:102AD000003080E010F009F081E08F9300911E013A
:102AE000073081E008F080E09F918923882311F46A
:102AF0000C94AB15A0E3B1E0EAEFF7E40E94921E5C
:102B00000E94231EEEE1F1E0A0E3B1E00E947D1AF5
:102B10000E94C11FA0E3B1E00E947D1AE8E3F7E440
:102B20000E94921E0E94231EEEE1F1E0A190BB24C0
:102B3000E8E6F2E0AA0CBB1CAA0CBB1CEA0DFB1DCC
:102B4000A0E3B1E00E947D1A0E94B41F80E0809350
:102B5000F9010C94AE1583E08093F9010C94B31540
:102B600084E08093F9010C945017E6E0F8E40E94A9
:102B7000921E0E94B32011F00C94221600912D0396
:102B8000023011F00C941D16A3E4B3E00E9406205D
:102B9000AEE1B1E00C9300911E01003080E010F036
:102BA00009F081E08F9300911E01073081E008F069
:102BB00080E09F918923882311F40C94181680E0FB
:102BC0008093F90100911E0141E0041BA9E1B1E0ED
:102BD0000C9380911901AAE2B3E00E947D1E0E942D
:102BE000731E9C91982B9C93A0E3B1E0EEE0F8E477
:102BF0000E94921E0E94231EEEE1F1E0A0E3B1E0EC
:102C00000E947D1A0E94C11FA0E3B1E00E947D1ABC
:102C1000E0E5F5E40E94921E0E94231EA0E3B1E0CD
:102C20000E947D1AEAE2F3E00E944E200C941B16EB
:102C300083E08093F9010C94201684E08093F901DD
:102C40000C945017E2E2F8E40E94921E0E94B32016
:102C500011F00C94591600912D03023011F00C94D0
:102C6000541680E08093F901A3E4B3E00E940620AB
:102C7000A0E4B2E00C93E0E0F0E0A0E4B2E07BE797
:102C80000E948220A0E3B1E0EAE2F8E40E94921EF2
:102C90000E94231EE0E4F2E0A0E3B1E00E947D1A6E
:102CA0000E94C11F0C94571684E08093F9010C9484
:102CB0005017E0E4F8E40E94921E0E94B32011F045
:102CC0000C94771680E08093F901A0E3B1E0E2E58F
:102CD000F5E40E94921E0E94231EE0E4F2E0A0E3CD
:102CE000B1E00E947D1A0E94C11F0C945017E8E4C5
:102CF000F8E40E94921E0E94B32011F00C94A116D9
:102D000080E08093F9010E94A304A0E3B1E0E0E534
:102D1000F8E40E94921E0E94231EE4E8F2E0A0E381
:102D2000B1E00E947D1A0E946120A0E3B1E00E9400
:102D30007D1AEEE3F5E40E94921E0E94231E0C947D
:102D40005017EAE5F8E40E94921E0E94B32011F0A9
:102D50000C94F51600912D03023011F00C94F0162E
:102D600080E08093F901A3E4B3E00E940620A9E18A
:102D7000B1E00C9300911901003080E010F009F0EF
:102D800081E08F93009119010F3F81E008F080E00E
:102D90009F918923882311F40C94EB1680911901DB
:102DA00080934102E1E0F0E0A1E4B2E07BE70E9421
:102DB0008220A0E3B1E0E2E6F8E40E94921E0E94C5
:102DC000231EE1E4F2E0A0E3B1E00E947D1A0E943C
:102DD000C11F0C94EE1685E08093F9010C94F31654
:102DE00084E08093F9010C945017EAE7F8E40E941C
:102DF000921E0E94B32011F00C94131780E0809370
:102E0000F901A0E3B1E0E2E8F8E40E94921E0E941A
:102E1000231EE1E4F2E0A0E3B1E00E947D1A0E94EB
:102E2000C11F0C945017ECE8F8E40E94921E0E9417
:102E3000B32011F00C944D1700912D03023011F0C6
:102E40000C94481780E08093F901A3E4B3E00E945A
:102E50000620A9E1B1E00C9300911901003011F0B6
:102E60000C943D17A0E3B1E0E4E9F8E40E94921E5F
:102E70000E94231E2F980C944617A0E3B1E0E0EACD
:102E8000F8E40E94921E0E94231E2F9A0C944B1766
:102E900084E08093F9010C94501781E08093F9014C
:102EA0000C94CB17EEE2F3E0A9E2B1E00E946120BE
:102EB000E9E2F1E0A9E2B1E00E94671EA9E2B1E017
:102EC000EAE9F6E40E94921E0E94B32011F00C94ED
:102ED00073177091470270687093470280E0809387
:102EE000F9010C94CB17EEE9F6E40E94921E0E94C1
:102EF000B32011F00C948617709147027F7770937E
:102F0000470280E08093F9010C94CB17E2EAF6E4E3
:102F10000E94921E0E94B32011F00C94A71770918A
:102F20002C03706470932C03E3E4F3E0A2ECB6E0AE
:102F30000E946120EAEAF6E40E94921E0E948C1A26
:102F40000E94931A80E08093F9010C94CB17E6EB72
:102F5000F6E40E94921E0E94B32011F00C94C81750
:102F600070912C03706470932C03E3E4F3E0A2EC03
:102F7000B6E00E946120EAEAF6E40E94921E0E94F6
:102F80008C1A0E94931A80E08093F9010C94CB175D
:102F900082E08093F9010091F901003018F011F0FE
:102FA0000C94D4170C94E217ECEDFFE20E94921EF1
:102FB000A9EFB1E08C9199270E945F1EA0E3B1E0D8
:102FC0000E94231EA0E3B1E00E94861A0E94931A79
:102FD000089500100E10AE102E103E104F4B0043FF
:102FE0006F6D616E646F206E6F207265636F6E6FC0
:102FF0006369646F004C6F6E676974756420636FFA
:103000006D616E646F206E6F2076616C6964610023
:103010004E756D65726F20646520706172616D65BB
:1030200074726F206E6F2076616C69646F004E75EC
:103030006D65726F20646520706172616D65747278
:103040006F7320696E76616C69646F004572726F90
:1030500072206C6F6E676974756420706172616D47
:103060006574726F2031004572726F72206C6F6EE2
:10307000676974756420706172616D6574726F2028
:103080003200506172616D6574726F206E6F2076D0
:10309000616C69646F004552524F5238004552527C
:1030A0004F522053442E20496E74656E746520641F
:1030B00065206E7565766F0000000000030000005B
:1030C00033000000330300003333000033330300C8
:1030D00033C00C00FF0FFF0F5555555533333333B5
:1030E000777777770C00FCFFCC00FCFFCC0CFCFF63
:1030F000CCCCFCFF0C00FCFFF0FFFFFF0E94500354
:10310000EAEAF8E40E94921E0E948C1A0E94931A26
:1031100082E080931903ACE2B3E08C9186FB16F059
:103120000C94A51870912C037F7B70932C03E8E41A
:10313000F6E40E94921E0E948C1AA2ECB6E00E9455
:10314000861A0E94931A0E94651100912B03013088
:1031500011F00C94FF1870912B037E7F70932B035A
:10316000ABE1B3E08C918F5F8C93ABE1B3E00C915A
:1031700045E00E949D208C9300911B03003011F0CC
:103180000C94FF18A0E3B1E0E0ECF8E40E94921E7A
:103190000E94231EA0E3B1E00E94AD20AFE1B1E0A8
:1031A0008D9388278C93AFE1B1E0ED91FC91A0E382
:1031B000B1E00E94EB20A2E4B2E00D931D932D93A9
:1031C0003D93A0E3B1E00E947D1AE2E6F6E40E949E
:1031D000921E0E94231EE2E4F2E0A0E3B1E00E940E
:1031E0007D1A0E943920EEE4F6E40E94921E0E94AD
:1031F0008C1AA0E3B1E00E94861A0E94931AA7E4F9
:10320000B2E08C9185FB16F00C948B1881E08093D2
:103210001903ACE2B3E08C9186FB16F00C942319F1
:1032200070912C037F7B70932C03E8E4F6E40E94FA
:10323000921E0E948C1AA2ECB6E00E94861A0E948E
:10324000931A0E94651181E080931C0100911C017A
:10325000063018F011F00C94AD1900911C0141E0FA
:10326000041BADE1B1E00C9380911D01AAE2B3E033
:103270000E947D1E0E94731E0C900822689409F41F
:10328000E89416F00C94A51980911D01AAE2B3E010
:103290000E947D1E0E94731E8C9189238C93009145
:1032A0001C01013011F00C946119E8ECF8E40E9463
:1032B000921E0E948C1A0E94931A0E94040C0C9475
:1032C000A519023011F00C947119EEECF8E40E948B
:1032D000921E0E948C1A0E94931A0E94340D0C9424
:1032E000A519033011F00C947F19E4EDF8E40E9465
:1032F000921E0E948C1A0E94931A0C94A5190430F5
:1033000011F00C9487190E94A4050C94A51905309E
:1033100011F00C949719EAEDF8E40E94921E0E94B5
:103320008C1A0E94931A0E94B40E0C94A5190630B0
:1033300011F00C94A519E0EEF8E40E94921E0E9490
:103340008C1A0E94931A0E940810ACE1B1E08C9193
:103350008F5F8C9310F40C942619A7E4B2E08C9143
:1033600083FB16F00C94BB1970914702777F709322
:1033700047020E9443061D990C94FA190027A3E204
:10338000B0E08C9185FB00F94427A7E4B2E08C9172
:1033900086FB40F9041711F40C94F8198AE090E0C8
:1033A0000E94041B1D990C94F819E6EEF8E40E94A3
:1033B000921E0E948C1AA3E2B0E08C9185FBA0E8DB
:1033C000BFE30E94831E8D9388278C930E94841AEA
:1033D0000E94931AA3E2B0E08C9185FBA7E4B2E0CF
:1033E0008C9186F98C9370912A03706270932A03F2
:1033F0000C94341A0027A3E2B0E08C9185FB00F90D
:103400004427A7E4B2E08C9186FB40F9041711F43D
:103410000C94341A8AE090E00E94041B1D9B0C94CB
:10342000341AE6EEF8E40E94921E0E948C1AA3E27F
:10343000B0E08C9185FBA0E8BFE30E94831E8D93D2
:1034400088278C930E94841A0E94931AA3E2B0E00A
:103450008C9185FBA7E4B2E08C9186F98C937091F6
:103460002A03706270932A030C940919ED91FC9160
:10347000EF5FFF4FFC93EE93089509D00E94F61D75
:1034800000FC10D0089503D01ED001F8F9CF00241D
:10349000E89457FF02C009D0689400F80BD010F8E8
:1034A0000124089502D009D00895509540954F5FAA
:1034B0005F4F0895E89417FF0895009510950F5FEA
:1034C0001F4F68940895352F242FE894452B11F44D
:1034D00068940895512F402F0027112780E1440F51
:1034E000551F001F111F021B130B416018F4020F20
:1034F000131F4E7F8A9599F708958F938D91882396
:10350000E9F711978F910895A0E8BFE38D91882383
:1035100011F00CD0FBCF08950E94291E802D11F0D0
:1035200005D0FACF08958DE001D08AE00090C00068
:1035300005FEFCCF8093C60008950090C80005FEEC
:10354000FCCF8093CE00089500FC05D0089530D0C4
:1035500005D001F8F9CF37D03FD00895842F952FAB
:10356000A62FB72FE894452B462B472B11F46894D0
:103570000895402F512F622F732F002711272227E4
:103580003327F0E2440F551F661F771F001F111FDE
:10359000221F331F081B190B2A0B3B0B416028F419
:1035A000080F191F2A1F3B1F4E7FFA9559F70895E0
:1035B0000024E89477FF02C006D0689400F809D090
:1035C00010F80124089512D04F5F5F4F6F4F7F4F67
:1035D0000895E89437FF089500951095209530954B
:1035E0000F5F1F4F2F4F3F4F6894089540955095A0
:1035F0006095709508953197F1F70895689462F891
:103600000895E89462F80895EF93FF93EE27E82B6E
:10361000E92B31F0E0EAFFE03197F1F70197D1F7BC
:10362000FF91EF9108958DE207FD8D938F2D881FF7
:10363000802F881F8F57082F6894F7F8802F87FFF7
:1036400017C080958395082F80E38D938EE28D932C
:10365000802F815238F080E38D9399279C930E94AC
:10366000871E089544270A95802F09F19ED01FC018
:10367000805230F09EE49D9381E48D939D93EDCF35
:103680004427DF92EF92FF920F938FE1801B11F09E
:10369000082F8BD091D09EE29D930F91FF90EF90D9
:1036A000DF9044270395003209F4D5CF33D03F9300
:1036B000EAE4F7E30E94921E38E12F2D1E2D0D2D16
:1036C000FF24EE24DD244427000F111F221FB8F42D
:1036D0002F923F920E94291E102C0E94291E202CFE
:1036E0000E94291E302C0E94291E31970E94581ECC
:1036F000410DD21CE31CF01C3F902F9003C0339669
:103700000E94511E31960E94511E3A95E9F63F9152
:1037100007D0A5CFDD0CEE1CFF1C0A95D9F7089544
:10372000002719E058D08F93802B11F0039501C02A
:103730008F911A95B9F7802F882309F48CCF8F9138
:10374000805D8D930A95D9F788CF0065CD1D80B235
:10375000E60E40597307A0ACB90350D6DC01286BC4
:10376000EE0094357700CA9A3B0065CD1D00B2E6A5
:103770000E0059730700ACB90300D6DC01006BEEF4
:103780000000357700009A3B0000CD1D0000E60EDA
:10379000000073070000B9030000DC010000EE0028
:1037A0000000770000003B000000F694E794D794F7
:1037B00047950A95D1F7089500270DD08F9303956B
:1037C0008F2D8E298D29842BC1F78F91805D8D934C
:1037D0000A95D9F742CF1F930F93002710E2440FA9
:1037E000DD1CEE1CFF1C001F802F9AE0890B10F0DF
:1037F000082F43951A9599F7802F0F911F910895DF
:10380000082748E01695079510F4122701254A95D8
:10381000C9F7089531E005C032E003C033E001C0CC
:1038200034E00FEF1FEF20EA91E0192EE9DF46D0D8
:103830008991682FE5DF42D08991E2DF3FD08991FD
:10384000DFDF3CD05991613078F0653068F488272B
:10385000D7DF34D0852F869509F481E0D1DF2ED0D3
:10386000802F2CD0812F2AC0663041F49D918C91FD
:10387000C7DF24D0892FC4DF21D0F2CF6031E9F433
:103880008827BEDF1BD0852F869509F481E0682F3D
:10389000B7DF14D0862F880FB3DF10D0513019F462
:1038A00088279D9102C09D918D91AADF07D0892F15
:1038B000A7DF04D06A95B9F7D3CF0895313011F45A
:1038C0000C94961A323011F40C949D1A0895A6E0C7
:1038D000B1E0E3E0F1E00E94B41C33970C94901C3B
:1038E000E6E0F1E0A3E0B1E00C94A21CEFE0F1E02F
:1038F000A0E0B1E00C947E1CADE0BB2786819781EF
:103900000E94A31E0D93838194810E94A31E0D9398
:10391000808191810E94A31E0D930895EDE0FF2701
:1039200082810E94981E8AE38D9381810E94981E55
:103930008AE38D9380810E94981E88278C93089536
:10394000ADE0BB27808191810E94A31E0D938381EE
:1039500094810E94A31E0D93868197810E94A31ECD
:103960000D930895EDE0FF2780810E94981E8FE25D
:103970008D9381810E94981E8FE28D9382810E9497
:10398000981E88278D93089521D00F2D06950695B2
:103990000F0D0D0D8F2D837021F41E2D13300AF4A1
:1039A0000A958E2D8A959927E0ECF9E30E94921EE4
:1039B000A8E1BB270E94451E080F47E00C949D20FC
:1039C00005010104060204000305010393E0ADE0D4
:1039D00002C096E0AAE0B0E08FB7F89401910D9391
:1039E0009A95E1F78FBF08950191119145EB55E04C
:1039F0000E94431A440F440FF42E0F31150728F488
:103A000081E0E82E0395D02E24C00C33150728F44E
:103A100082E0E82E0E51D02E1CC00150150B4DE651
:103A200051E00E94631AF40E7CE07A95872F992763
:103A3000E4E5FAE30E94921EA2E1BB270E943F1E2A
:103A40000217130790F37395E72E021B130B0395D0
:103A5000D02E089500001F003B005A007800970008
:103A6000B500D400F300110130014E010191119114
:103A70002191308140E851E561E070E00E94A71A91
:103A8000042F152F0C94F61CA1DF0E2D0A95802F04
:103A90000295003220F01F2D137009F40395DA947B
:103AA0000D0D11279927ECEBFAE30E94921EA8E175
:103AB000BB270E94451E080F111F0895000F1B2AE7
:103AC000384755647381909E81DF0F2D11274CE399
:103AD00055270E943D1A55270E0D151F4CE322272E
:103AE0003327662777270E94001E0D0D131F231F03
:103AF00008956CDFDF92EF92FF920F2D112722279E
:103B000033274DE651E060E070E00E94001EFF9018
:103B10004F2D4D5F469546955527662777270E947E
:103B2000941FEF90DF900F931F932F933F930E946A
:103B3000451D222733277F916F915F914F910C9400
:103B4000941F47DFAF92BF92CF920E947A1D40E848
:103B500051E561E070E00E94001EFF90EF90DF9061
:103B60000F931F932F933F930E94651D7F916F9139
:103B70005F914F910C94941F01911191219130818B
:103B800040E851E561E070E00E94A71A0C94CC1D5A
:103B9000019111912191308140E15EE060E070E09F
:103BA0000E94A71AF42E4CE350E00E94431AE42E20
:103BB000D02E0895AF93BF930E94BC1DBF91AF91CB
:103BC0000C948E1CAF93BF930E94361DBF91AF9192
:103BD0000C94B21C41E2FF2747BF849108950191E4
:103BE0001191219130810895015010400F92B80138
:103BF000469F8001479F100D569F100D0F9008950E
:103C00000F921F922F92C801D901489F80014A9FAD
:103C100090014B9F202C499F100D211D321D5A9F52
:103C2000202C589F100D211D321D599F200D311D34
:103C3000689F200D311D699F300D789F300D2F90AA
:103C40001F900F9008950E94291E0D920020D9F711
:103C50000895D895319628F48F938BB783958BBFB1
:103C60008F910020089591E005C092E003C094E098
:103C700001C098E0EEDF0D929A95E1F70895880F64
:103C8000991FE80FF91F0DD0F0CFE80FF91F09D0E9
:103C9000EACF880F991F880F991FE80FF91F01D0ED
:103CA000E6CF28F48F938BB783958BBF8F910895C0
:103CB00028F48F938BB78A958BBF8F9108950196C7
:103CC000019721F00E94291EE9F7FACF089581910A
:103CD00004D08D938823D9F70895813618F08B3757
:103CE00008F48F7D089591E0882321F08894991F2E
:103CF0008A95E9F7892F90950895883018F01196E4
:103D00008850FBCF089580E30EF4839508950F92B9
:103D100000240BBE0F9008950F9301E00BBF0F918D
:103D2000889408950F930027F9CF0F9302E0F6CF00
:103D300000278A3018F08A500395FBCF005D0D9361
:103D4000805D8D930895805390530027813018F043
:103D5000065F8A95FBCF090F0895AF93BF930F932A
:103D60009F938F938FB78F93A0E0B1E08C91839551
:103D70008D938C3309F03DC088278E9311968C91DA
:103D800083958D938C3309F034C088278E931196D8
:103D90008C9183958D93883161F588278E93119648
:103DA0008C9183958D939C910EE1943089F096309F
:103DB00079F0993069F09B3059F00CE1923039F488
:103DC00011969C911197937019F4039501C00FE11E
:103DD000801778F071F081E08E9311968C91839525
:103DE0008D938D3031F481E08E9311968C91839573
:103DF0008C938F918FBF8F919F910F91BF91AF91B6
:103E00000F921F922F923F924F925F927F92AF92AA
:103E1000BF920F931F932F933F934F935F936F9393
:103E20007F938F939F93AF93BF93CF93DF93EF9342
:103E3000FF939FB79F939BB79F9399279BBF0E9428
:103E4000D1029F919BBF9F919FBFFF91EF91DF9107
:103E5000CF91BF91AF919F918F917F916F915F9122
:103E60004F913F912F911F910F91BF90AF907F90F5
:103E70005F904F903F902F901F900F90189599272B
:103E80008D9193958823E1F7939511968C931197D3
:103E90008E919A95D1F70895EA2FFB2F00244C912B
:103EA0008D9103948E32E1F711248D911394882320
:103EB000E1F71A94101640F41197202F2119239539
:103EC00080E38D932A95E9F7113039F59927AE2FC4
:103ED000BF2FA00DB91FA00FB91F8C919C938533E4
:103EE00008F421C031E08E918E32E9F38D3241F039
:103EF000830F8A3319F480E331E001C033278C93B8
:103F0000AE1789F7332341F0AE2FBF2FB8DF81E31F
:103F10004D3209F43196808308958827E00DF81F0B
:103F2000E00FF81F80830895040F151F261F371F09
:103F30000895041B150B260B370B0895041715075E
:103F4000260737070895000F111F221F331F0895FA
:103F500000951095209530950F5F1F4F2F4F3F4FC5
:103F60000895019110810FC00E94EF1D0EC00E94A4
:103F7000EF1D10C00191108117FF05C03FEF2FEF1B
:103F800004C0008111272227332737FF03C0E0DF59
:103F90008DE28D93CF92DF92EF92AA24BB24CC24A2
:103FA000DD24EE2440E2EAE0FF2755E093E3808140
:103FB000890F87FD9F7083FD907F891B81935A95A0
:103FC000A9F7C1DFAA1CBB1CCC1CDD1CEE1C4A954A
:103FD00051F7E894EFE0FF2782910BD0EB30E0F748
:103FE0001EF068948A2D09D04D93EF90DF90CF900A
:103FF0000895982F829501D0892F8F70805D26F0CB
:10400000803309F4089568948D930895002711274B
:10401000222733271DD08A3328F4803318F005D0A7
:1040200015D0F9CF0EF494CF089580538F93402F7D
:10403000512F622F732F87DF86DF76DF84DF8F912A
:104040009927080F191F291F391F08958D91089569
:10405000E894FCDF8032E9F38B32D9F38930C9F37D
:104060008D3211F46894F2CF089541E003C042E02C
:1040700001C044E0E40F8827F81F8291982F8295B1
:1040800006D0892F04D04A95C1F70C945E208F701A
:104090008A3008F0895F805D8D93089541E0E40FD8
:1040A0008827F81F829138E098E1880F991F9D9327
:1040B0003A95D1F74A95B1F70C945E2088278D93F5
:1040C000089581918D938823E1F7089594E081917B
:1040D0008D939A95E1F7089509919191992359F05B
:1040E0008A95D9F73197002331F081918D930A9504
:1040F0008823C9F70895E2CFF999FECFE1BDF2BD5B
:104100003196089591E001C092E07B3751F47FB77A
:10411000F894F2DF8D9180BDFA9AF99A9A95C9F7D1
:104120007FBF7727089591E001C092E0E5DFF89A1C
:1041300080B58D939A95D1F70895FF93881BF9E088
:10414000001FFA9511F4FF910895881F841B18F43D
:10415000840F8894F5CF0894F3CF8FEF83959D91CA
:104160009923E1F70895689401C0E894AF93BF9351
:104170008D9116F0919103C00E94291E902D8917F0
:1041800018F011F48823A1F7BF91AF9108950D9114
:104190009981903009F013D0502788E0440F551FC3
:1041A00010F4422753278A95C9F7319781F78991EF
:1041B0009991803019F08A0105D0A801089588E00E
:1041C000112701C080E1080116940794001F111FF8
:1041D0008A95D1F708950FEF1FEF2FEF3FEF60E2C1
:1041E00073E888EB9DEE0D90002548E088943795A4
:1041F00027951795079520F406271727282739278D
:104200004A95A1F7319779F700951095209530954B
:104210000895689401C0E8942227102F231709F409
:10422000089526F40E94291E802D01C081918030BE
:1042300081F0891741F070E08D931A9591F72395DD
:1042400071E01D93EACF01D0E8CF703011F07727ED
:104250000895772331F42395882713958D931A9524
:10426000E9F70895B7FE089590E8B91611F4D0FE65
:1042700008959FEFD91AE90AF90A09F403950895F8
:10428000D190E190F1900191089521913191419166
:1042900051910895502F2D2D3E2D4F2D612F0895B2
:1042A000652F90E8440F551F5927990F479560785F
:1042B000102F90E8FF0C001F0927990FF794107832
:1042C00000380895FF0C90E89027110F9795F79408
:1042D000092F08951127BD2CDE2CEF2CF02E0EE1B6
:1042E000FF2039F4FE2CED2CDB2CBB240850C2F748
:1042F00075C032F00A95BB0CDD1CEE1CFF1CF9CF1B
:10430000B1DFE0CF102FBD2CDE2CEF2CF02E1123CF
:104310004AF4B094D094E094F0949FEFB91AD90A7B
:10432000E90AF90A0EE1FF2039F4FE2CED2CDB2C12
:10433000BB240850C2F752C032F00A95BB0CDD1CFA
:10434000EE1CFF1CF9CF8EDFBDCF2DEC3CEC4CEC0E
:104350005DE366270FC094DF9DDFDD24EE2490E847
:10436000F92E0FE307C091DF05C02227332740E273
:1043700051E46627552351F1002381F191DF71F15A
:104380001627005850580894050B18F407FD03C071
:1043900025C007FD23C0469537952795F694E794E9
:1043A000D79425D0FF202AF0DD0CEE1CFF1C015015
:1043B00073F09D2D969548F0DD203AF4EE202AF416
:1043C00091E0D90E9927E91EF91E7CCF07C09FE71F
:1043D000092FF92A9FEFD92EE92E0895DD24EE2426
:1043E000FF240027112708950FE79FEFF2CF9F9238
:1043F0009924AA24BB2488E1D216E306F40628F007
:10440000D21AE30AF40A089401C08894991CAA1CE1
:10441000BB1CDD0CEE1CFF1C8A9571F7D92CEA2C15
:10442000FB2C9F9008953CDFD9F05038C9F0162737
:104430000058952F90580894091F12F418F40EC0D4
:1044400008F00EC00FD0FF202AF0BB0CDD1CEE1CC4
:10445000FF1C02C0039513F005DF34CF0C94E72155
:104460000C94EE219F92FF92EF928D2DFF24EE246B
:10447000DD24BB2493E0849F1001829FB00CD11CEB
:10448000E21CF31C839FD00CE11C2224F21C9A95A1
:1044900031F0BD2CDE2CEF2CFF248F91ECCF9F90C0
:1044A00008950E94291E202D0E94291E302D0E9451
:1044B000291E402D0E94291E502D089500007A4487
:1044C0000000C842000080BF30372F30312F323516
:1044D000000031313A32383A303000002A2A2A2A94
:1044E0002A2A2A2A2A2A2A2A20454D45544552207A
:1044F00032303235202A2A2A2A2A2A2A2A2A2A2A05
:104500002A0032302D31322D323032352032303ADD
:1045100034333A353000302E302E31323700454DAD
:10452000455445522E4241530000417574003D00F0
:104530002C204F46460049447365723C00003E0003
:10454000556C74696D6120414354434C4B2000000D
:104550002C00454E414255473D004944536C61761D
:10456000653E0000434E5452696E693D000054722E
:10457000792000005074723D00002C204164647268
:104580003D00545820005054524D44423D00563393
:1045900066733D0056613D0056623D0056633D0026
:1045A0004933733D000049613D0049623D00496364
:1045B0003D0045616733733D00004561673D000084
:1045C0004562673D00004563673D000050777233E8
:1045D000733D0000507772613D00507772623D007C
:1045E000507772633D00456133733D00457233730C
:1045F0003D00667265633D00507472206E6F2076D8
:10460000616C0000524547204D4442204445433DE3
:1046100000002C204845583D00002C204445433DD7
:104620000000435243206661696C20656E2041445E
:1046300044523D004573706572612052504920001C
:1046400052504974783E0000534552313D002400D9
:10465000545841555431203B0000412C00002D316D
:1046600000002600545841555434203B00002D32A0
:104670000000545841555435203B00002D350000B2
:104680002C2C2C00545841555436203B00002D361C
:1046900000002C2C2C2C2C2C00004F4B00004552E1
:1046A00052005345544D424400004E4557204D445E
:1046B0004320434D440053455444414100004E6F54
:1046C00020636D642076616C00004C45455646576A
:1046D000000056657273696F6E2046573A20466532
:1046E000636861203C003E2C204172636869766FEC
:1046F000203C00005345544C454400005365206362
:104700006F6E666967757261207365746C6564208D
:1047100061200000525354564152000056616C6FA4
:1047200072657320706F722064656661756C7400C9
:10473000534554434C4B00003A00543E00002F00B8
:10474000443E00005741544348494E4720494E4695
:104750004F524D412E20536520636F6E6669677519
:10476000726F2072656C6F6A20656E200000206198
:104770002000534953434C4B0000486F7261206145
:10478000637475616C3D00002C2046656368612090
:1047900061637475616C3D004C4545434C4B0000B2
:1047A000556C74696D612041435420434C4B20612A
:1047B000203D00002C2064656C20000053455441CE
:1047C00055540000536520636F6E66696775726F9C
:1047D000207478204155542000005345544F4646DC
:1047E00000004C45454155540000547820417574F3
:1047F00020004C45454F464600004F666673657481
:104800002041757420005345544E455700005365B0
:104810002061637469766F2054782E2041555420AE
:1048200000005345544255470000536520636F6EA6
:1048300066696775726F20454E414255473D0000DD
:104840004C454542554700004C45455249440000FF
:10485000494420736572203C00005345544449523A
:104860000000536520636F6E66696775726F20493B
:1048700044736C617665206120004C454544495283
:1048800000004944736C617665203D0053455452E5
:10489000454C000052455345542072656C6500003C
:1048A0005345542072656C650000457370657261F4
:1048B00020434C4B2064656C205365727665720012
:1048C000414354434C4B0000415554310000415585
:1048D0005432000041555433000041555435000016
:1048E000415554360000537075657274613D000087
:00000001FF
