:100000000C94460018950000189500001895000003
:10001000189500001895000018950000189500002C
:100020001895000018950000189500000C94751E96
:10003000189500001895000018950000189500000C
:1000400018950000189500000C94F7011895000011
:100050000C94BB001895000018950000189500003E
:1000600018950000189500001895000018950000DC
:100070000C949E011895000018950000189500003A
:100080001895000018950000189500008FEF8DBF9F
:10009000C0E8E8E94E2E80E48EBFD0E4FFE35F2E97
:1000A000A89584B7082E882784BF88E19927809374
:1000B000600090936000EEEFFFE3A0E0B1E08827DE
:1000C0008D933197E9F787E68093C40080E08093B1
:1000D000C50088E18093C1006624209A25982D9A56
:1000E000279A2F9885E085BD80E084BD70916E00D1
:1000F000716070936E0085E085BD80E28093B600EC
:1001000085E08093B1007091700071607093700011
:10011000A6E0B1E0ECE8F3E40E945A1E0E94EB1D59
:100120000E94381CAFE0B1E0E6E9F3E40E945A1EF9
:100130000E94EB1D0E943E1C7091C100706870937C
:10014000C10083E38093CC0080E08093CD00709168
:10015000C8007D7F7093C80087E08093CA0088E163
:100160008093C900229A7091C90070687093C90089
:1001700078940C9446180F921F922F923F924F92B0
:100180005F927F92AF92BF920F931F932F933F93F3
:100190004F935F936F937F938F939F93AF93BF938F
:1001A000CF93DF93EF93FF939FB79F939BB79F935B
:1001B00099279BBFADEBB6E08091C6008C9384E29B
:1001C000482F0091BD06041711F00C94F2007091B5
:1001D0002803706870932803A4EFB5E088278C93F8
:1001E0000C94800185E2482F041711F00C94030150
:1001F00070912803706270932803A8E8B7E08827FD
:100200008C930C9480010D3011F00C944701A8E2FE
:10021000B3E08C9187FB16F00C94260170912803B3
:100220007F777093280380E0A4EFB5E00E94451A21
:100230008D9388278C93E4EFF5E0AEEBB6E00E9457
:10024000292070912803706470932803A8E2B3E01A
:100250008C9185FB16F00C944501709128037F7DED
:100260007093280380E0A8E8B7E00E94451A8D93B8
:1002700088278C93E8E8F7E0A5E1B8E00E94292000
:10028000709128037061709328030C9480010F31E2
:1002900018F011F00C944E010C948001A8E2B3E028
:1002A0008C9187FB16F00C945F01ADEBB6E08C915E
:1002B000A4EFB5E00E94451A8D9388278C93A8E29D
:1002C000B3E08C9185FB16F00C948001ADEBB6E0A9
:1002D0008C91A8E8B7E00E94451A8D9388278C93EB
:1002E000A8E8B7E00E947520082F0C3818F011F02C
:1002F0000C947C010C948001A8E8B7E088278C93CB
:100300009F919BBF9F919FBFFF91EF91DF91CF91F5
:10031000BF91AF919F918F917F916F915F914F911D
:100320003F912F911F910F91BF90AF907F905F9061
:100330004F903F902F901F900F9018950F921F9203
:100340002F923F924F925F927F92AF92BF920F9304
:100350001F932F933F934F935F936F937F938F934D
:100360009F93AF93BF93CF93DF93EF93FF939FB789
:100370009F939BB79F9399279BBFA2EAB8E0809178
:10038000CE008C93A8E2B3E08C9183FB16F00C9422
:10039000D901A4EBB2E08C918F5F8C938091A2087D
:1003A000A4EBB2E0AD90BB24A2EAB8E0AA0DBB1D5D
:1003B0008C939F919BBF9F919FBFFF91EF91DF9186
:1003C000CF91BF91AF919F918F917F916F915F91ED
:1003D0004F913F912F911F910F91BF90AF907F90C0
:1003E0005F904F903F902F901F900F9018950F9215
:1003F0001F922F923F924F925F927F92AF92BF9245
:100400000F931F932F933F934F935F936F937F931C
:100410008F939F93AF93BF93CF93DF93EF93FF930C
:100420009FB79F939BB79F9399279BBF74E676BD19
:10043000AFE0B3E08C918F5F8C93AFE0B3E00C91B1
:1004400048E00E9465208C9300910F03003011F06A
:100450000C946302A0E1B3E00C9140E20E9465209D
:100460008C93E8E4F0E30E945A1EA5E1B3E08C917E
:100470009927A1E1B3E00E94111E80911003A1E130
:10048000B3E00E94451E0E943B1E0C900822689417
:1004900009F4E894A7E4B2E08C9182F98C93A7E484
:1004A000B2E08C9194E089278C93A7E4B2E08C9120
:1004B00082FBA5E2B0E08C9180F98C93A0E1B3E0DF
:1004C0008C918F5F8C93A8E2B3E08C9183FB16F044
:1004D0000C948E02ACEBB2E00E94FE19ACEBB2E0E1
:1004E0000D911C9140EA50E00E942B1AACEBB2E057
:1004F0000D931C93ACEBB2E00D911C91003050E0D9
:10050000150711F00C948E0270912803777F709379
:10051000280370914702786070934702A7E4B2E025
:100520008C9180FB16F00C94AD02A8E1B3E00E9420
:10053000FE19AAE1B3E04D915C91A8E1B3E00D9101
:100540001C910417150711F00C94AB02709147022F
:100550007260709347020C94B30280E090E0A8E1CF
:10056000B3E08D939C939F919BBF9F919FBFFF9101
:10057000EF91DF91CF91BF91AF919F918F917F913B
:100580006F915F914F913F912F911F910F91BF906C
:10059000AF907F905F904F903F902F901F900F9063
:1005A0001895E0E0F1E00E94691DAEE1B3E00D9323
:1005B0001D932D933D9381E080931C0300911C03B8
:1005C000063018F011F00C944A0300911C0341E02E
:1005D000041BADE1B3E00C93AEE1B3E00D911D91CE
:1005E0002D913C91ACE1B3E0AD90BB24A4E6B2E028
:1005F000AA0CBB1CAA0CBB1CAA0DBB1D4D915D9186
:100600006D917C910E94611FA2E2B3E00D931D9356
:100610002D933D93A2E2B3E00D911D912D913C915C
:10062000ACE1B3E0AD90BB24ACE4B2E0AA0CBB1CDF
:10063000AA0CBB1CAA0DBB1D4D915D916D917C91C7
:100640000E946F1AA2E2B3E00D931D932D933D9388
:1006500040E050E060E070E0A2E2B3E00D911D9157
:100660002D913C910E94661F11F00C9442038091E1
:100670001D03A6E2B3E00E94451E0E943B1E9C9112
:10068000982B9C93ACE1B3E08C918F5F8C9310F42A
:100690000C94DE0270912703716070932703089514
:1006A0002898E0EAF3E40E945A1E0E94541A0E941D
:1006B0005B1AA0E8BFE3E6ECF3E40E945A1E0E9436
:1006C000EB1D0E944C1A0E945B1AA0E8BFE3EAED02
:1006D000F3E40E945A1E0E94EB1D0E944C1A0E94D5
:1006E0005B1AA0E8BFE3E2EEF3E40E945A1E0E9408
:1006F000EB1D0E944C1A0E945B1A81E08093150347
:1007000081E08093190100911901063018F011F071
:100710000C941604E9E1F1E0A190BB24EEEFFFEFA9
:10072000AA0CBB1CAA0CBB1CEA0DFB1DA9E1B1E085
:10073000AD90BB24ACE4B2E0AA0CBB1CAA0CBB1C61
:10074000AA0DBB1D94E00E945E20E9E1F1E0A190BA
:10075000BB24E6E1F0E0AA0CBB1CAA0CBB1CEA0D12
:10076000FB1DA9E1B1E0AD90BB24A4E6B2E0AA0C68
:10077000BB1CAA0CBB1CAA0DBB1D94E00E945E20F2
:10078000EEEEF3E40E945A1E0E94541AE9E1F1E0F1
:10079000A0E8BFE30E94891F0E944C1AE2EFF3E435
:1007A0000E945A1E0E94541AE9E1F1E0A190BB2474
:1007B000ECE4F2E0AA0CBB1CAA0CBB1CEA0DFB1D6E
:1007C000A0E8BFE30E947C1F0E944C1AE4EFF3E410
:1007D0000E945A1E0E94541AE9E1F1E0A0E8BFE32A
:1007E0000E94891F0E944C1AE2EFF3E40E945A1EF5
:1007F0000E94541AE9E1F1E0A190BB24E4E6F2E0A2
:10080000AA0CBB1CAA0CBB1CEA0DFB1DA0E8BFE395
:100810000E947C1F0E944C1A0E945B1AA9E1B1E061
:100820008C918F5F8C9310F40C9483030E94A3042B
:10083000EAEFF3E40E945A1E0E94541AA0E8B2E0C4
:100840000E944E1AE2E0F4E40E945A1E0E94541ADA
:100850000E945B1AE2E3F0E0ADEAB2E094E00E94AD
:100860005E20E4E0F4E40E945A1E0E94541AEDEA6D
:10087000F2E0A0E8BFE30E94AA1D0E944C1AE4E146
:10088000F4E40E945A1E0E94541AEDEAF2E0A0E835
:10089000BFE30E94A21D0E944C1A0E945B1AE0E076
:1008A000F0E0A0E4B2E00E945B20E6E1F4E40E9404
:1008B0005A1E0E94541AE0E4F2E0A0E8BFE30E944E
:1008C000891F0E944C1A0E945B1AE1E0F0E0A1E44B
:1008D000B2E00E945B20EEE1F4E40E945A1E0E9406
:1008E000541AE1E4F2E0A0E8BFE30E94891F0E94ED
:1008F0004C1A0E945B1AE6E3F0E0ADE0B3E00E9420
:100900005D20ADE0B3E00D911C910F5F1F4FADE096
:10091000B3E00D931C93E6E3F0E0ADE0B3E07BE7DA
:100920000E944C20E8E2F4E40E945A1E0E94541AED
:10093000EDE0F3E0A0E8BFE30E94791F0E944C1AAB
:100940000E945B1A089580E08093190180E08093F3
:100950001A01A0E8B2E088278C938EE080931901F9
:1009600000911901073118F011F00C94CE04A9E19F
:10097000B1E0EC91FF270E94B21D082FE0E1F0E00A
:10098000A0E8B2E00E94451A0E94FD1FA9E1B1E073
:100990008C918F5F8C9310F40C94B004E0E8F2E03B
:1009A000A0E3B1E00E942920A0E8B2E088278C9360
:1009B0008EE08093190100911901073118F011F0B0
:1009C0000C94F904A9E1B1E0EC91FF270E94B21D5B
:1009D000082FE0E1F0E0A0E8B2E00E94451A0E9492
:1009E000FD1FA9E1B1E08C918F5F8C9310F40C9402
:1009F000DB04E0E3F1E0A0E8B2E00E947D2011F02A
:100A00000C94050581E080931901AAE1B1E08C9175
:100A10008F5F8C9300911901003011F00C94240524
:100A200084EF91E00E94CC1AE2E3F4E40E945A1EA3
:100A30000E94541AEAE1F1E0A0E8BFE30E94891F96
:100A40000E944C1A0E945B1A00911901013081E04A
:100A500009F080E08F9300911A010A3081E009F0DB
:100A600080E09F91892B882311F40C94A9040895A8
:100A700000E010E020E030E0A1E2B1E00D931D9332
:100A80002D933C9381E08093190100911901063068
:100A900018F011F00C948E05E9E1F1E0A190BB246F
:100AA000EEEFFFEFAA0CBB1CAA0CBB1CEA0DFB1D52
:100AB0000CE211E020E030E0A0E1BB2794E07BE70E
:100AC0000E944D20E9E1F1E0A190BB24E6E1F0E0D5
:100AD000AA0CBB1CAA0CBB1CEA0DFB1DA1E2B1E0D9
:100AE00094E07BE70E944D20A1E2B1E00D911D91C1
:100AF0002D913C914CE350E060E070E00E945C1F5F
:100B0000A1E2B1E00D931D932D933D93A9E1B1E0D6
:100B10008C918F5F8C9310F40C944505E1E0F0E02C
:100B2000A0E1BB2781E08C937BE70E944A20EEE0A6
:100B3000F0E00AE010E020E030E0A0E1BB2794E024
:100B40007BE70E944D200895AEEBB2E08C918F5F61
:100B50008C93AEEBB2E00C9145E00E9465208C9343
:100B6000E2E6FFE20E945A1EAEEBB2E08C919927BA
:100B7000A2EBB2E00E94071EE8E3F4E40E945A1ED2
:100B80000E94541AEEEBF2E0A0E8BFE30E94891F36
:100B90000E944C1AEEE3F4E40E945A1E0E94541A7A
:100BA000E2EBF2E0A0E8BFE30E94FF1F0E944C1AB4
:100BB0000E945B1A81E080931E0100911E010034A7
:100BC00018F011F00C94F60580E0AEE1B1E0AD90C4
:100BD000BB24A2EAB8E0AA0DBB1D8C93AEE1B1E044
:100BE0008C918F5F8C9310F40C94DD0580E08093E2
:100BF000B402A0E4B2E00C9103FB16F00C942006C2
:100C0000E6E4F4E40E945A1E0E94541AE2EBF2E079
:100C1000A0E8BFE30E94FF1F0E944C1A0E945B1ACB
:100C200084E28A93A2EBB2E08D919C918A939A938D
:100C300083E08A93809141020E94D21B0E945B1A3A
:100C4000709128037860709328032A9A84E28A932B
:100C5000A2EBB2E08D919C918A939A9383E08A9360
:100C6000809141020E94D41BEF93FF93ECE6F7E1E1
:100C70000E94C31AFF91EF912A9870914702706108
:100C8000709347020895A0E4B2E00C9103FB16F0C4
:100C90000C949206EAE4F4E40E945A1E0E94541A4C
:100CA000E4EBF2E0A0E8BFE30E94891F0E944C1A27
:100CB000EEE3F4E40E945A1E0E94541AE2EBF2E0C2
:100CC000A0E8BFE30E94FF1F0E944C1A0E945B1A1B
:100CD00081E080931E014091B40200911E0104172F
:100CE00018F011F00C949006EEE1F1E0A190BB2415
:100CF000E2EAF8E0EA0DFB1DA0E8BFE30E94FD1F59
:100D00000E944C1AE4E1F4E40E945A1E0E94541A14
:100D1000AEE1B1E08C918F5F8C9310F40C946B0674
:100D20000E945B1A0091B40242E0041BA5EBB2E002
:100D30000C930091B50241E0040FA6EBB2E00C93D6
:100D40000091B60241E0040FA7EBB2E00C9381E002
:100D50008A9381E08A93A5EBB2E0EC91FF274FEFF5
:100D60005FEF25E030E8A3EAB8E00E948F20A8EB0F
:100D7000B2E04D935C93A7EBB2E0AD90BB24A2EA46
:100D8000B8E0AA0DBB1D9C91A6EBB2E0AD90BB24D0
:100D9000A2EAB8E0AA0DBB1D8C91AFE1B1E08D9342
:100DA0009C93AFE1B1E04D915C91A8EBB2E00D9165
:100DB0001C910417150711F00C94010BA7E4B2E085
:100DC0008C9184FB16F00C94990A0091BE020030BD
:100DD00011F00C9485078091A60880934F028091B2
:100DE000A70880934E028091A80880934D028091BD
:100DF000A90880934C02E2E5F4E40E945A1E0E9486
:100E0000541AECE4F2E0A0E8BFE30E947F1F0E94C6
:100E10004C1A0E945B1A8091AA0880934F0280911D
:100E2000AB0880934E028091AC0880934D02809174
:100E3000AD0880934C02ACE4B2E08D919C91AFEB95
:100E4000B2E08D939C93E8E5F4E40E945A1E0E9460
:100E5000541AEFEBF2E0A0E8BFE30E94791F0E9472
:100E60004C1A0E945B1A8091AE0880934F028091C9
:100E7000AF0880934E028091B00880934D0280911C
:100E8000B10880934C02ACE4B2E08D919C91A1EC4E
:100E9000B2E08D939C93ECE5F4E40E945A1E0E940C
:100EA000541AE1ECF2E0A0E8BFE30E94791F0E942F
:100EB0004C1A0E945B1A8091B20880934F02809175
:100EC000B30880934E028091B40880934D028091C4
:100ED000B50880934C02ACE4B2E08D919C91A3ECF8
:100EE000B2E08D939C93E0E6F4E40E945A1E0E94C7
:100EF000541AE3ECF2E0A0E8BFE30E94791F0E94DD
:100F00004C1A0E945B1A0C94970A013011F00C9451
:100F100063088091A60880934F028091A708809370
:100F20004E028091A80880934D028091A908809379
:100F30004C02E4E8F3E40E945A1E0E94B521ECE45E
:100F4000F2E00E9408210E9432210E945F21EDE020
:100F5000F0E0A9ECB2E00E942E20E4E6F4E40E9466
:100F60005A1E0E94541AE9ECF2E0A0E8BFE30E9486
:100F700008210E94DB1A0E944C1A0E945B1A809181
:100F8000AA0880934F028091AB0880934E02809113
:100F9000AC0880934D028091AD0880934C02E4E848
:100FA000F3E40E945A1E0E94B521ECE4F2E00E9494
:100FB00008210E9432210E945F21EDE0F0E0ADECBB
:100FC000B2E00E942E20EAE6F4E40E945A1E0E943B
:100FD000541AEDECF2E0A0E8BFE30E9408210E9461
:100FE000DB1A0E944C1A0E945B1A8091AE08809313
:100FF0004F028091AF0880934E028091B008809399
:101000004D028091B10880934C02E4E8F3E40E9421
:101010005A1E0E94B521ECE4F2E00E9408210E94D1
:1010200032210E945F21EDE0F0E0A1EDB2E00E94EC
:101030002E20EEE6F4E40E945A1E0E94541AE1EDBE
:10104000F2E0A0E8BFE30E9408210E94DB1A0E94A0
:101050004C1A0E945B1A8091B20880934F028091D3
:10106000B30880934E028091B40880934D02809122
:10107000B50880934C02E4E8F3E40E945A1E0E94F3
:10108000B521ECE4F2E00E9408210E9432210E9486
:101090005F21EDE0F0E0A5EDB2E00E942E20E2E756
:1010A000F4E40E945A1E0E94541AE5EDF2E0A0E812
:1010B000BFE30E9408210E94DB1A0E944C1A0E9482
:1010C0005B1A0C94970A023011F00C94410980913C
:1010D000A60880934F028091A70880934E028091CA
:1010E000A80880934D028091A90880934C02E8E8FB
:1010F000F3E40E945A1E0E94B521ECE4F2E00E9443
:1011000008210E9432210E945F21EDE0F0E0ADEF66
:10111000B2E00E942E20E6E7F4E40E945A1E0E94EC
:10112000541AEDEFF2E0A0E8BFE30E9408210E940C
:10113000DB1A0E944C1A0E945B1A8091AA088093C5
:101140004F028091AB0880934E028091AC0880934F
:101150004D028091AD0880934C02E8E8F3E40E94D0
:101160005A1E0E94B521ECE4F2E00E9408210E9480
:1011700032210E945F21EDE0F0E0A1E0B3E00E94A7
:101180002E20EEE7F4E40E945A1E0E94541AE1E079
:10119000F3E0A0E8BFE30E9408210E94DB1A0E944E
:1011A0004C1A0E945B1A8091AE0880934F02809186
:1011B000AF0880934E028091B00880934D028091D9
:1011C000B10880934C02E8E8F3E40E945A1E0E94A2
:1011D000B521ECE4F2E00E9408210E9432210E9435
:1011E0005F21EDE0F0E0A5E0B3E00E942E20E4E80E
:1011F000F4E40E945A1E0E94541AE5E0F3E0A0E8CD
:10120000BFE30E9408210E94DB1A0E944C1A0E9430
:101210005B1A8091B20880934F028091B30880934B
:101220004E028091B40880934D028091B50880935E
:101230004C02E8E8F3E40E945A1E0E94B521ECE457
:10124000F2E00E9408210E9432210E945F21EDE01D
:10125000F0E0A9E0B3E00E942E20EAE8F4E40E9466
:101260005A1E0E94541AE9E0F3E0A0E8BFE30E948E
:1012700008210E94DB1A0E944C1A0E945B1A0C94EF
:10128000970A033011F00C94E7098091A608809327
:101290004B028091A70880934A028091A80880930E
:1012A00049028091A90880934802E8E4F2E0A9EDA0
:1012B000B2E00E942E20E0E9F4E40E945A1E0E944F
:1012C000541AE9EDF2E0A0E8BFE30E9408210E9471
:1012D000DB1A0E944C1A0E945B1A8091AA08809324
:1012E0004B028091AB0880934A028091AC088093B6
:1012F00049028091AD0880934802E8E4F2E0ADED48
:10130000B2E00E942E20E8E9F4E40E945A1E0E94F6
:10131000541AEDEDF2E0A0E8BFE30E9408210E941C
:10132000DB1A0E944C1A0E945B1A8091AE088093CF
:101330004B028091AF0880934A028091B00880935D
:1013400049028091B10880934802E8E4F2E0A1EEFE
:10135000B2E00E942E20EEE9F4E40E945A1E0E94A0
:10136000541AE1EEF2E0A0E8BFE30E9408210E94D7
:10137000DB1A0E944C1A0E945B1A8091B20880937B
:101380004B028091B30880934A028091B408809305
:1013900049028091B50880934802E8E4F2E0A5EEA6
:1013A000B2E00E942E20E4EAF4E40E945A1E0E9459
:1013B000541AE5EEF2E0A0E8BFE30E9408210E9483
:1013C000DB1A0E944C1A0E945B1A0C94970A043094
:1013D00011F00C948F0A8091A60880934F0280919F
:1013E000A70880934E028091A80880934D028091B7
:1013F000A90880934C02E8E8F3E40E945A1E0E9478
:10140000B521ECE4F2E00E9408210E9432210E9402
:101410005F21EDE0F0E0A9EEB2E00E942E20EAEAC2
:10142000F4E40E945A1E0E94541AE9EEF2E0A0E889
:10143000BFE30E9408210E94DB1A0E944C1A0E94FE
:101440005B1A8091AA0880934F028091AB08809329
:101450004E028091AC0880934D028091AD0880933C
:101460004C02E8E8F3E40E945A1E0E94B521ECE425
:10147000F2E00E9408210E9432210E945F21EDE0EB
:10148000F0E0A9EFB2E00E942E20E0EBF4E40E942D
:101490005A1E0E94541AE9EFF2E0A0E8BFE30E944E
:1014A00008210E94DB1A0E944C1A0E945B1A80914C
:1014B000B60880934F028091B70880934E028091C6
:1014C000B80880934D028091B90880934C02E4E8FB
:1014D000F3E40E945A1E0E94B521ECE4F2E00E945F
:1014E00008210E9432210E945F21EDE0F0E0A5EC8E
:1014F000B2E00E942E20E6EBF4E40E945A1E0E9405
:10150000541AE5ECF2E0A0E8BFE30E9408210E9433
:10151000DB1A0E944C1A0E945B1A0C94970AECEB9F
:10152000F4E40E945A1E0E94541A0E945B1A0C9402
:10153000FF0A0091B402073011F00C94D30A909185
:10154000A6088091A708AAEBB2E08D939C93E8ECE3
:10155000F4E40E945A1E0E94541AEAEBF2E0A0E85A
:10156000BFE30E94791F0E944C1AE6EDF4E40E944A
:101570005A1E0E94541AEAEBF2E0A0E8BFE30E9470
:10158000FF1F0E944C1AEEEDF4E40E945A1E0E94C6
:10159000541AEAEBF2E0A0E8BFE30E94791F0E9430
:1015A0004C1A0E945B1A0091B402083011F00C949E
:1015B000FF0A9091A7088091A808AAEBB2E08D934A
:1015C0009C93E8ECF4E40E945A1E0E94541AEAEB41
:1015D000F2E0A0E8BFE30E94791F0E944C1AE6EDFA
:1015E000F4E40E945A1E0E94541AEAEBF2E0A0E8CA
:1015F000BFE30E94FF1F0E944C1A0E945B1A0C94CA
:10160000180BA0E4B2E00C9103FB16F00C94180B3D
:10161000E6EEF4E40E945A1E0E94541AE2EBF2E055
:10162000A0E8BFE30E94FF1F0E944C1A0E945B1AB1
:10163000089580E080934602709147027F7770930F
:101640004702A6E4B2E08C918F5F8C93E8EFF4E45C
:101650000E945A1E0E94541AE6E4F2E0A0E8BFE39A
:101660000E94891F0E944C1A0E945B1A84E690E037
:10167000AAE1B3E08D939C9380E090E0A8E1B3E011
:101680008D939C93709147027160709347027091A3
:1016900047027D7F70934702A8E2B3E08C9184FB00
:1016A00016F00C94660B709128037F7E70932803CC
:1016B000E4E0F5E40E945A1E0E94541AA5E1B8E045
:1016C0000E944E1A0E945B1A0E94A310A8E2B3E087
:1016D0008C9186FB16F00C94800B709128037F7B15
:1016E00070932803ECE0F5E40E945A1E0E94541AFD
:1016F000AEEBB6E00E944E1A0E945B1A0E942D11BA
:10170000A7E4B2E08C9187FB81E00EF080E08F933C
:10171000A7E4B2E08C9181FB81E00EF080E09F9124
:10172000892B882311F40C944C0B709147027E7F17
:1017300070934702A7E4B2E08C9187FB16F40C94F7
:10174000AD0BE2E1F5E40E945A1E0E94541AA0E398
:10175000B1E00E944E1A0E945B1AA7E4B2E08C919D
:1017600087FB81E00EF080E08F930091460203300A
:1017700081E009F080E09F91892B882311F40C947B
:10178000210B709147027E7F709347027091470250
:101790007F77709347020895E4E1F5E40E945A1EB2
:1017A0000E94541A0E942F1CAFE0B1E00E944E1A12
:1017B000E4E1F4E40E945A1E0E94541A0E942F1C75
:1017C000A6E0B1E00E944E1A0E945B1A0E942F1CF4
:1017D000E6E0F1E0A7E9B2E00E9429200E942F1C78
:1017E000EFE0F1E0A2EAB2E00E942920A0E3B1E03C
:1017F000EEE1F5E40E945A1E0E94EB1DE7E9F2E0DB
:10180000A0E3B1E00E94451A0E942920A0E3B1E0C4
:101810000E94451AE4E1F4E40E945A1E0E94EB1D66
:10182000E2EAF2E0A0E3B1E00E94451A0E9429201A
:10183000A0E3B1E00E94451AE4E1F4E40E945A1EDC
:101840000E94EB1DE0E8F2E0A0E3B1E00E94451A3F
:101850000E942920A0E3B1E00E94451AE2E2F5E4EB
:101860000E945A1E0E94EB1DA0E3B1E00E94451A9F
:10187000E4E1F4E40E945A1E0E94EB1DEFEBF2E05B
:10188000A0E3B1E00E94451A0E94791FA0E3B1E0F5
:101890000E94451AE4E1F4E40E945A1E0E94EB1DE6
:1018A000E1ECF2E0A0E3B1E00E94451A0E94791F4A
:1018B000A0E3B1E00E94451AE4E1F4E40E945A1E5C
:1018C0000E94EB1DE3ECF2E0A0E3B1E00E94451AB8
:1018D0000E94791FA0E3B1E00E94451AE4E1F4E41C
:1018E0000E945A1E0E94EB1DE5ECF2E0A0E3B1E07D
:1018F0000E94451A0E9408210E94DB1AA0E3B1E071
:101900000E94451AE4E1F4E40E945A1E0E94EB1D75
:10191000EDECF2E0A0E3B1E00E94451A0E9408213C
:101920000E94DB1AA0E3B1E00E94451AE4E1F4E46E
:101930000E945A1E0E94EB1DE1EDF2E0A0E3B1E02F
:101940000E94451A0E9408210E94DB1AA0E3B1E020
:101950000E94451AE4E1F4E40E945A1E0E94EB1D25
:10196000E5EDF2E0A0E3B1E00E94451A0E940821F3
:101970000E94DB1AA0E3B1E00E94451AE4E1F4E41E
:101980000E945A1E0E94EB1DA0E3B1E00E94752048
:10199000AFE1B1E08D9388278C93AFE1B1E0ED9199
:1019A000FC91A0E3B1E00E94B320A2E4B2E00D9369
:1019B0001D932D933D93A0E3B1E00E94451AE6E20A
:1019C000F5E40E945A1E0E94EB1DE2E4F2E0A0E35F
:1019D000B1E00E94451A0E940120E2E1F5E40E9474
:1019E0005A1E0E94541AA0E3B1E00E944E1A0E94AF
:1019F0005B1A0E94190B0895E8E2F5E40E945A1E52
:101A00000E94541A0E942F1CAFE0B1E00E944E1AAF
:101A1000E4E1F4E40E945A1E0E94541A0E942F1C12
:101A2000A6E0B1E00E944E1A0E945B1A0E942F1C91
:101A3000E6E0F1E0A7E9B2E00E9429200E942F1C15
:101A4000EFE0F1E0A2EAB2E00E942920A0E3B1E0D9
:101A5000EEE1F5E40E945A1E0E94EB1DE7E9F2E078
:101A6000A0E3B1E00E94451A0E942920A0E3B1E062
:101A70000E94451AE4E1F4E40E945A1E0E94EB1D04
:101A8000E2EAF2E0A0E3B1E00E94451A0E942920B8
:101A9000A0E3B1E00E94451AE4E1F4E40E945A1E7A
:101AA0000E94EB1DE0E8F2E0A0E3B1E00E94451ADD
:101AB0000E942920A0E3B1E00E94451AE2E3F5E488
:101AC0000E945A1E0E94EB1DA0E3B1E00E94451A3D
:101AD000E4E1F4E40E945A1E0E94EB1DE9EDF2E0FD
:101AE0000E940821A0E8BFE3AF93BF930E94DB1AD6
:101AF00011E002E0BF91AF910E94141FE0E8FFE304
:101B0000A0E3B1E00E94451A0E942920A0E3B1E0C1
:101B10000E94451AE4E1F4E40E945A1E0E94EB1D63
:101B2000EDEDF2E00E940821A0E8BFE3AF93BF9380
:101B30000E94DB1A11E002E0BF91AF910E94141FD6
:101B4000E0E8FFE3A0E3B1E00E94451A0E942920EB
:101B5000A0E3B1E00E94451AE4E1F4E40E945A1EB9
:101B60000E94EB1DE1EEF2E00E940821A0E8BFE335
:101B7000AF93BF930E94DB1A11E002E0BF91AF91D7
:101B80000E94141FE0E8FFE3A0E3B1E00E94451AC1
:101B90000E942920A0E3B1E00E94451AE4E1F4E4A8
:101BA0000E945A1E0E94EB1DE5EEF2E00E94082101
:101BB000A0E8BFE3AF93BF930E94DB1A11E002E0FD
:101BC000BF91AF910E94141FE0E8FFE3A0E3B1E0F2
:101BD0000E94451A0E942920A0E3B1E00E94451A04
:101BE000E4E1F4E40E945A1E0E94EB1DE9EEF2E0EB
:101BF0000E940821A0E8BFE3AF93BF930E94DB1AC5
:101C000011E002E0BF91AF910E94141FE0E8FFE3F2
:101C1000A0E3B1E00E94451A0E942920A0E3B1E0B0
:101C20000E94451AE4E1F4E40E945A1E0E94EB1D52
:101C3000EDEEF2E0A0E3B1E00E94451A0E947F1FA2
:101C4000A0E3B1E00E94451AE4E1F4E40E945A1EC8
:101C50000E94EB1DE1EFF2E0A0E3B1E00E94451A23
:101C60000E947F1FA0E3B1E00E94451AE4E1F4E482
:101C70000E945A1E0E94EB1DE5EFF2E0A0E3B1E0E6
:101C80000E94451A0E947F1FA0E3B1E00E947520C8
:101C9000AFE1B1E08D9388278C93AFE1B1E0ED9196
:101CA000FC91A0E3B1E00E94B320A2E4B2E00D9366
:101CB0001D932D933D93A0E3B1E00E94451AE6E207
:101CC000F5E40E945A1E0E94EB1DE2E4F2E0A0E35C
:101CD000B1E00E94451A0E940120E2E1F5E40E9471
:101CE0005A1E0E94541AA0E3B1E00E944E1A0E94AC
:101CF0005B1A0E94190B0895E6E3F5E40E945A1E50
:101D00000E94541A0E942F1CAFE0B1E00E944E1AAC
:101D1000E4E1F4E40E945A1E0E94541A0E942F1C0F
:101D2000A6E0B1E00E944E1A0E945B1A0E942F1C8E
:101D3000E6E0F1E0A7E9B2E00E9429200E942F1C12
:101D4000EFE0F1E0A2EAB2E00E942920A0E3B1E0D6
:101D5000EEE1F5E40E945A1E0E94EB1DE7E9F2E075
:101D6000A0E3B1E00E94451A0E942920A0E3B1E05F
:101D70000E94451AE4E1F4E40E945A1E0E94EB1D01
:101D8000E2EAF2E0A0E3B1E00E94451A0E942920B5
:101D9000A0E3B1E00E94451AE4E1F4E40E945A1E77
:101DA0000E94EB1DE0E8F2E0A0E3B1E00E94451ADA
:101DB0000E942920A0E3B1E00E94451AE0E4F5E486
:101DC0000E945A1E0E94EB1DA0E3B1E00E94451A3A
:101DD000E4E1F4E40E945A1E0E94EB1DEDEFF2E0F4
:101DE0000E940821A0E8BFE3AF93BF930E94DB1AD3
:101DF00011E002E0BF91AF910E94141FE0E8FFE301
:101E0000A0E3B1E00E94451A0E942920A0E3B1E0BE
:101E10000E94451AE4E1F4E40E945A1E0E94EB1D60
:101E2000E1E0F3E00E940821A0E8BFE3AF93BF9395
:101E30000E94DB1A11E002E0BF91AF910E94141FD3
:101E4000E0E8FFE3A0E3B1E00E94451A0E942920E8
:101E5000A0E3B1E00E94451AE4E1F4E40E945A1EB6
:101E60000E94EB1DE5E0F3E00E940821A0E8BFE33B
:101E7000AF93BF930E94DB1A11E002E0BF91AF91D4
:101E80000E94141FE0E8FFE3A0E3B1E00E94451ABE
:101E90000E942920A0E3B1E00E94451AE4E1F4E4A5
:101EA0000E945A1E0E94EB1DE9E0F3E00E94082107
:101EB000A0E8BFE3AF93BF930E94DB1A11E002E0FA
:101EC000BF91AF910E94141FE0E8FFE3A0E3B1E0EF
:101ED0000E94451A0E942920A0E3B1E00E94451A01
:101EE000E4E1F4E40E945A1E0E94EB1DE9EFF2E0E7
:101EF0000E940821A0E8BFE3AF93BF930E94DB1AC2
:101F000011E002E0BF91AF910E94141FE0E8FFE3EF
:101F1000A0E3B1E00E94451A0E942920A0E3B1E0AD
:101F20000E94451AE4E4F5E40E945A1E0E94EB1D4B
:101F3000A0E3B1E00E947520AFE1B1E08D93882766
:101F40008C93AFE1B1E0ED91FC91A0E3B1E00E9490
:101F5000B320A2E4B2E00D931D932D933D93A0E333
:101F6000B1E00E94451AE6E2F5E40E945A1E0E9482
:101F7000EB1DE2E4F2E0A0E3B1E00E94451A0E940A
:101F80000120E2E1F5E40E945A1E0E94541AA0E3E7
:101F9000B1E00E944E1A0E945B1A0E94190B08952C
:101FA000E8E4F5E40E945A1E0E94541A0E942F1C75
:101FB000AFE0B1E00E944E1AE4E1F4E40E945A1E40
:101FC0000E94541A0E942F1CA6E0B1E00E944E1AF3
:101FD0000E945B1A0E942F1CE6E0F1E0A7E9B2E044
:101FE0000E9429200E942F1CEFE0F1E0A2EAB2E05B
:101FF0000E942920A0E3B1E0EEE1F5E40E945A1E20
:102000000E94EB1DE7E9F2E0A0E3B1E00E94451A6F
:102010000E942920A0E3B1E00E94451AE4E1F4E423
:102020000E945A1E0E94EB1DE2EAF2E0A0E3B1E03A
:102030000E94451A0E942920A0E3B1E00E94451A9F
:10204000E4E1F4E40E945A1E0E94EB1DE0E8F2E095
:10205000A0E3B1E00E94451A0E942920A0E3B1E06C
:102060000E94451AE2E5F5E40E945A1E0E94EB1D0B
:10207000A0E3B1E00E94451AE4E1F4E40E945A1E94
:102080000E94EB1DA3E2B0E08C9185FBA0E3B1E0E0
:102090000E94451A0E944B1E8D9388278C93A0E3C3
:1020A000B1E00E94451AE4E1F4E40E945A1E0E9445
:1020B000EB1DEDE0F3E0A0E3B1E00E94451A0E94C1
:1020C000791FA0E3B1E00E94451AE6E5F5E40E941D
:1020D0005A1E0E94EB1DA0E3B1E00E947520AFE103
:1020E000B1E08D9388278C93AFE1B1E0ED91FC9145
:1020F000A0E3B1E00E94B320A2E4B2E00D931D93EF
:102100002D933D93A0E3B1E00E94451AE6E2F5E489
:102110000E945A1E0E94EB1DE2E4F2E0A0E3B1E04F
:102120000E94451A0E940120E2E1F5E40E945A1E35
:102130000E94541AA0E3B1E00E944E1A0E945B1A5A
:102140000E94190B0895E5E1F8E09BE304E132E217
:10215000AAE2B3E00E94D320A9E2B3E02C9300915D
:102160002903003018F011F00C94B8100C94C01032
:10217000EAE2F3E0A9E2B1E00E9429200C94C61043
:10218000E5E1F8E0A9E2B1E00E942920A9E2B1E08E
:10219000EEE5F5E40E945A1E0E947B2011F00C949B
:1021A000D810709147027068709347020C942C11FC
:1021B000E2E6F5E40E945A1E0E947B2011F00C9486
:1021C000E810709147027F77709347020C942C11AE
:1021D000E6E6F5E40E945A1E0E947B2011F00C9462
:1021E000061170912803706470932803EFE3F3E005
:1021F000AEEBB6E00E942920EEE6F5E40E945A1EFE
:102200000E94541A0E945B1A0C942C11EAE7F5E420
:102210000E945A1E0E947B2011F00C942411709190
:102220002803706470932803EFE3F3E0AEEBB6E0AD
:102230000E942920EEE6F5E40E945A1E0E94541ADC
:102240000E945B1A0C942C11E2E8F5E40E945A1EDD
:102250000E94541A0E945B1A089581E0EEEBF6E0AA
:1022600006E00A93ABE0B2E00E943420EEEBF6E029
:102270009CE204E132E2AAE2B3E00E94D320A9E2A8
:10228000B3E02C93AAE2B3E00E947520082F063039
:1022900011F00C941A17EAE2F3E0A9E2B1E00E940F
:1022A0002920E9E2F1E0A9E2B1E00E942F1E8FEFC0
:1022B0008093F901A9E2B1E0EEE8F5E40E945A1E2C
:1022C0000E947B2011F00C94A61180E08093F9010C
:1022D000A0E3B1E0E6E9F5E40E945A1E0E94EB1D7E
:1022E000ABE0B2E0EAEAF5E40E945A1E0E94EB1D60
:1022F000EBE0F2E0A0E3B1E00E94451A0E94292041
:10230000A0E3B1E00E94451AEEEBF5E40E945A1EEC
:102310000E94EB1DABE0B2E0E2EEF3E40E945A1E35
:102320000E94EB1DEBE0F2E0A0E3B1E00E94451A51
:102330000E942920A0E3B1E00E94451AE2E0F4E403
:102340000E945A1E0E94EB1D0C941817ECECF5E449
:102350000E945A1E0E947B2011F00C94E5110091FE
:102360002903023011F00C94E011AFE3B3E00E94B6
:10237000CE1FA9E1B1E00C9300911901013110F0D9
:102380000C94DB1180E08093F901A0E3B1E0E4ED6F
:10239000F5E40E945A1E0E94EB1DE9E1F1E0A0E382
:1023A000B1E00E94451A0E94891F80911901809313
:1023B00015030C94DE1185E08093F9010C94E31170
:1023C00084E08093F9010C941817ECEEF5E40E9478
:1023D0005A1E0E947B2011F00C94FD1180E0809326
:1023E000F901A0E3B1E0E4EFF5E40E945A1E0E9477
:1023F000EB1D0E9438050C941817E8E0F6E40E94E3
:102400005A1E0E947B2011F00C940913009129039D
:10241000023011F00C940413AFE3B3E00E94752076
:10242000082F0C3011F00C94FF1280E08093F9011A
:1024300087E0EFE3F3E002E00A93ABE0B2E00E9452
:102440003420ABE0B2E00E94451AE0E1F6E40E94DD
:102450005A1E0E94EB1D89E0EFE3F3E002E00A93CD
:10246000ABE0B2E00E94451A0E943420ABE0B2E03B
:102470000E94451AE0E1F6E40E945A1E0E94EB1DFC
:102480008BE0EFE3F3E002E00A93ABE0B2E00E94FE
:10249000451A0E943420ABE0B2E00E944E1A0E941E
:1024A0005B1AEBE0F2E0AFE0B1E00E9429200E946D
:1024B0003E1CE2E1F6E40E945A1E0E94541A0E9459
:1024C0002F1CAFE0B1E00E944E1A0E945B1A81E01F
:1024D000EFE3F3E002E00A93ABE0B2E00E943420C5
:1024E000ABE0B2E00E94451AE6E1F6E40E945A1E13
:1024F0000E94EB1D83E0EFE3F3E002E00A93ABE020
:10250000B2E00E94451A0E943420ABE0B2E00E9483
:10251000451AE6E1F6E40E945A1E0E94EB1D85E092
:10252000EFE3F3E002E00A93ABE0B2E00E94451A69
:102530000E943420ABE0B2E00E944E1A0E945B1A67
:10254000EBE0F2E0A6E0B1E00E9429200E94381CF6
:10255000E8E1F6E40E945A1E0E94541A0E942F1CC1
:10256000A6E0B1E00E944E1A0E945B1AA0E3B1E01F
:10257000ECE1F6E40E945A1E0E94EB1D0E942F1C03
:10258000E6E0F1E0A0E3B1E00E94451A0E942920B4
:10259000A0E3B1E00E94451AE6E4F6E40E945A1E68
:1025A0000E94EB1D0E942F1CEFE0F1E0A0E3B1E0E0
:1025B0000E94451A0E942920E3E0F1E00E948C1C51
:1025C000A1EBB2E08C93E0E0F1E00E94691DADEA7E
:1025D000B2E00D931D932D933D93E2E3F0E0ADEA5D
:1025E000B2E094E07BE70E944D2070914702706258
:1025F0007093470281E0809315030C94021386E0E8
:102600008093F9010C94071384E08093F9010C94F2
:102610001817EAE4F6E40E945A1E0E947B2011F08B
:102620000C94491380E08093F9010E942F1CEFE085
:10263000F1E0ABE0B2E00E942920A0E3B1E0E2E5E6
:10264000F6E40E945A1E0E94EB1DEBE0F2E0A0E3CC
:10265000B1E00E94451A0E942920A0E3B1E00E9447
:10266000451AE0E6F6E40E945A1E0E94EB1D0E9405
:102670002F1CE6E0F1E0ABE0B2E00E942920EBE0A5
:10268000F2E0A0E3B1E00E94451A0E9429200C94D8
:102690001817E0E7F6E40E945A1E0E947B2011F012
:1026A0000C94851380E08093F901EDEAF2E0ABE051
:1026B000B2E00E94A21DA0E3B1E0E8E7F6E40E94C8
:1026C0005A1E0E94EB1DEBE0F2E0A0E3B1E00E9495
:1026D000451A0E942920A0E3B1E00E94451AECE8C7
:1026E000F6E40E945A1E0E94EB1DEDEAF2E0ABE018
:1026F000B2E00E94AA1DEBE0F2E0A0E3B1E00E948C
:10270000451A0E9429200C941817E4E9F6E40E9467
:102710005A1E0E947B2011F00C941C140091290376
:10272000033011F00C941714AFE3B3E00E94CE1FF6
:10273000AEE1B1E00C9300911E01003080E010F09A
:1027400009F081E08F9300911E01073081E008F0CD
:1027500080E09F918923882311F40C941214A4E53E
:10276000B3E00E94CE1FA5E2B1E00D931D932D931F
:102770003D93A5E2B1E00D911D912D913C91AEE10B
:10278000B1E0AD90BB24ACE4B2E0AA0CBB1CAA0C37
:10279000BB1CAA0DBB1D0D931D932D933C93EEE125
:1027A000F1E0A190BB24EEEFFFEFAA0CBB1CAA0C3A
:1027B000BB1CEA0DFB1DA5E2B1E094E07BE70E94A3
:1027C0004D2080E08093F901A0E3B1E0ECE9F6E46C
:1027D0000E945A1E0E94EB1DEEE1F1E0A0E3B1E081
:1027E0000E94451A0E94891FA0E3B1E00E94451A89
:1027F000E0E1F6E40E945A1E0E94EB1DEEE1F1E0DA
:10280000A190BB24ECE4F2E0AA0CBB1CAA0CBB1CFC
:10281000EA0DFB1DA0E3B1E00E94451A0E947C1F57
:102820000C94151483E08093F9010C941A1484E03D
:102830008093F9010C941817E2EBF6E40E945A1EFB
:102840000E947B2011F00C94B314009129030330F3
:1028500011F00C94AE14AFE3B3E00E94CE1FAEE1D2
:10286000B1E00C9300911E01003080E010F009F0FF
:1028700081E08F9300911E01073081E008F080E035
:102880009F918923882311F40C94A914A4E5B3E043
:102890000E94CE1FA5E2B1E00D931D932D933D93B1
:1028A000A5E2B1E00D911D912D913C91AEE1B1E019
:1028B000AD90BB24A4E6B2E0AA0CBB1CAA0CBB1CC6
:1028C000AA0DBB1D0D931D932D933C93EEE1F1E0FA
:1028D000A190BB24E6E1F0E0AA0CBB1CAA0CBB1C37
:1028E000EA0DFB1DA5E2B1E094E07BE70E944D20DC
:1028F00080E08093F901A0E3B1E0ECE9F6E40E9406
:102900005A1E0E94EB1DEEE1F1E0A0E3B1E00E944F
:10291000451A0E94891FA0E3B1E00E94451AE0E138
:10292000F6E40E945A1E0E94EB1DEEE1F1E0A19038
:10293000BB24E4E6F2E0AA0CBB1CAA0CBB1CEA0D0B
:10294000FB1DA0E3B1E00E94451A0E947C1F0C947D
:10295000AC1483E08093F9010C94B11484E080936B
:10296000F9010C941817EAEBF6E40E945A1E0E9433
:102970007B2011F00C94181500912903023011F0FE
:102980000C941315AFE3B3E00E94CE1FAEE1B1E0AB
:102990000C9300911E01003080E010F009F081E0FE
:1029A0008F9300911E01073081E008F080E09F9135
:1029B0008923882311F40C940E15A0E3B1E0E2EC16
:1029C000F6E40E945A1E0E94EB1DEEE1F1E0A0E346
:1029D000B1E00E94451A0E94891FA0E3B1E00E9465
:1029E000451AE0E1F6E40E945A1E0E94EB1DEEE15A
:1029F000F1E0A190BB24ECE4F2E0AA0CBB1CAA0C11
:102A0000BB1CEA0DFB1DA0E3B1E00E94451A0E9429
:102A10007C1F80E08093F9010C94111583E0809372
:102A2000F9010C94161584E08093F9010C941817A1
:102A3000EAECF6E40E945A1E0E947B2011F00C94EE
:102A40007D1500912903023011F00C947815AFE345
:102A5000B3E00E94CE1FAEE1B1E00C9300911E01E5
:102A6000003080E010F009F081E08F9300911E01AA
:102A7000073081E008F080E09F918923882311F4DA
:102A80000C947315A0E3B1E0E2EDF6E40E945A1E47
:102A90000E94EB1DEEE1F1E0A0E3B1E00E94451AD7
:102AA0000E94891FA0E3B1E00E94451AE0E1F6E42C
:102AB0000E945A1E0E94EB1DEEE1F1E0A190BB24A2
:102AC000E4E6F2E0AA0CBB1CAA0CBB1CEA0DFB1D41
:102AD000A0E3B1E00E94451A0E947C1F80E0809331
:102AE000F9010C94761583E08093F9010C947B1521
:102AF00084E08093F9010C941817EEEDF6E40E943F
:102B00005A1E0E947B2011F00C94EA1500912903B3
:102B1000023011F00C94E515AFE3B3E00E94CE1F34
:102B2000AEE1B1E00C9300911E01003080E010F0A6
:102B300009F081E08F9300911E01073081E008F0D9
:102B400080E09F918923882311F40C94E01580E0A4
:102B50008093F90100911E0141E0041BA9E1B1E05D
:102B60000C9380911901A6E2B3E00E94451E0E94D9
:102B70003B1E9C91982B9C93A0E3B1E0E6EEF6E41B
:102B80000E945A1E0E94EB1DEEE1F1E0A0E3B1E0CD
:102B90000E94451A0E94891FA0E3B1E00E94451AD5
:102BA000E4E1F4E40E945A1E0E94EB1DA0E3B1E0B0
:102BB0000E94451AE6E2F3E00E9416200C94E31509
:102BC00083E08093F9010C94E81584E08093F90187
:102BD0000C941817EAEFF6E40E945A1E0E947B201C
:102BE00011F00C94211600912903023011F00C947D
:102BF0001C1680E08093F901AFE3B3E00E94CE1F82
:102C0000A0E4B2E00C93E0E0F0E0A0E4B2E07BE707
:102C10000E944A20A0E3B1E0E2E0F7E40E945A1EDD
:102C20000E94EB1DE0E4F2E0A0E3B1E00E94451A4F
:102C30000E94891F0C941F1684E08093F9010C9464
:102C40001817E8E1F7E40E945A1E0E947B2011F059
:102C50000C943F1680E08093F901A0E3B1E0E6E137
:102C6000F4E40E945A1E0E94EB1DE0E4F2E0A0E3AF
:102C7000B1E00E94451A0E94891F0C941817E0E2E7
:102C8000F7E40E945A1E0E947B2011F00C946916F2
:102C900080E08093F9010E94A304A0E3B1E0E8E2A0
:102CA000F7E40E945A1E0E94EB1DE0E8F2E0A0E368
:102CB000B1E00E94451A0E942920A0E3B1E00E94E1
:102CC000451AE2E0F4E40E945A1E0E94EB1D0C94A7
:102CD0001817E2E3F7E40E945A1E0E947B2011F0CD
:102CE0000C94BD1600912903023011F00C94B81613
:102CF00080E08093F901AFE3B3E00E94CE1FA9E129
:102D0000B1E00C9300911901003080E010F009F05F
:102D100081E08F93009119010F3F81E008F080E07E
:102D20009F918923882311F40C94B3168091190183
:102D300080934102E1E0F0E0A1E4B2E07BE70E9491
:102D40004A20A0E3B1E0EAE3F7E40E945A1E0E94A1
:102D5000EB1DE1E4F2E0A0E3B1E00E94451A0E941D
:102D6000891F0C94B61685E08093F9010C94BB166C
:102D700084E08093F9010C941817E2E5F7E40E94CF
:102D80005A1E0E947B2011F00C94DB1680E0809389
:102D9000F901A0E3B1E0EAE5F7E40E945A1E0E94BF
:102DA000EB1DE1E4F2E0A0E3B1E00E94451A0E94CD
:102DB000891F0C941817E4E6F7E40E945A1E0E943B
:102DC0007B2011F00C94151700912903023011F0AB
:102DD0000C94101780E08093F901AFE3B3E00E94F8
:102DE000CE1FA9E1B1E00C9300911901003011F060
:102DF0000C940517A0E3B1E0ECE6F7E40E945A1E3C
:102E00000E94EB1D2F980C940E17A0E3B1E0E8E7A9
:102E1000F7E40E945A1E0E94EB1D2F9A0C94131780
:102E200084E08093F9010C94181781E08093F901F4
:102E30000C949317EAE2F3E0A9E2B1E00E942920A2
:102E4000E9E2F1E0A9E2B1E00E942F1EA9E2B1E0BF
:102E5000EEE5F5E40E945A1E0E947B2011F00C94CE
:102E60003B177091470270687093470280E080932F
:102E7000F9010C949317E2E6F5E40E945A1E0E94B1
:102E80007B2011F00C944E17709147027F7770935E
:102E9000470280E08093F9010C949317E6E6F5E48D
:102EA0000E945A1E0E947B2011F00C946F177091A3
:102EB0002803706470932803EFE3F3E0AEEBB6E011
:102EC0000E942920EEE6F5E40E945A1E0E94541A40
:102ED0000E945B1A80E08093F9010C949317EAE753
:102EE000F5E40E945A1E0E947B2011F00C9490176A
:102EF00070912803706470932803EFE3F3E0AEEB66
:102F0000B6E00E942920EEE6F5E40E945A1E0E94D7
:102F1000541A0E945B1A80E08093F9010C94931775
:102F200082E08093F9010091F901003018F011F06E
:102F30000C949C170C94AA17ECE6FFE20E945A1E10
:102F4000A9EFB1E08C9199270E94271EA0E3B1E080
:102F50000E94EB1DA0E3B1E00E944E1A0E945B1A92
:102F6000089500100E10AE102E103E104F4B00436F
:102F70006F6D616E646F206E6F207265636F6E6F30
:102F80006369646F004C6F6E676974756420636F6A
:102F90006D616E646F206E6F2076616C6964610094
:102FA0004E756D65726F20646520706172616D652C
:102FB00074726F206E6F2076616C69646F004E755D
:102FC0006D65726F20646520706172616D657472E9
:102FD0006F7320696E76616C69646F004572726F01
:102FE00072206C6F6E676974756420706172616DB8
:102FF0006574726F2031004572726F72206C6F6E53
:10300000676974756420706172616D6574726F2098
:103010003200506172616D6574726F206E6F207640
:10302000616C69646F004552524F523800455252EC
:103030004F522053442E20496E74656E746520648F
:1030400065206E7565766F000000000003000000CB
:103050003300000033030000333300003333030038
:1030600033C00C00FF0FFF0F555555553333333325
:10307000777777770C00FCFFCC00FCFFCC0CFCFFD3
:10308000CCCCFCFF0C00FCFFF0FFFFFF0E945003C4
:10309000E2E8F7E40E945A1E0E94541A0E945B1A4A
:1030A00082E080931503A8E2B3E08C9186FB16F0D2
:1030B0000C946D18709128037F7B70932803ECE0CB
:1030C000F5E40E945A1E0E94541AAEEBB6E00E942C
:1030D0004E1A0E945B1A0E942D11009127030130A5
:1030E00011F00C94C718709127037E7F709327030B
:1030F000A7E1B3E08C918F5F8C93A7E1B3E00C91D3
:1031000045E00E9465208C9300911703003011F078
:103110000C94C718A0E3B1E0E8E9F7E40E945A1E56
:103120000E94EB1DA0E3B1E00E947520AFE1B1E089
:103130008D9388278C93AFE1B1E0ED91FC91A0E3F2
:10314000B1E00E94B320A2E4B2E00D931D932D9351
:103150003D93A0E3B1E00E94451AE6E2F5E40E9447
:103160005A1E0E94EB1DE2E4F2E0A0E3B1E00E94EF
:10317000451A0E940120E2E1F5E40E945A1E0E94D5
:10318000541AA0E3B1E00E944E1A0E945B1AA7E411
:10319000B2E08C9185FB16F00C94531881E080937B
:1031A0001503A8E2B3E08C9186FB16F00C94EB18A3
:1031B000709128037F7B70932803ECE0F5E40E9474
:1031C0005A1E0E94541AAEEBB6E00E944E1A0E949C
:1031D0005B1A0E942D1181E080931C0100911C015B
:1031E000063018F011F00C94751900911C0141E0A3
:1031F000041BADE1B1E00C9380911D01A6E2B3E0A8
:103200000E94451E0E943B1E0C900822689409F4FF
:10321000E89416F00C946D1980911D01A6E2B3E0BC
:103220000E94451E0E943B1E8C9189238C93009125
:103230001C01013011F00C942919E0EAF7E40E9416
:103240005A1E0E94541A0E945B1A0E94CC0B0C94C6
:103250006D19023011F00C943919E6EAF7E40E9476
:103260005A1E0E94541A0E945B1A0E94FC0C0C9475
:103270006D19033011F00C944719ECEAF7E40E9441
:103280005A1E0E94541A0E945B1A0C946D19043045
:1032900011F00C944F190E94A4050C946D1905307F
:1032A00011F00C945F19E2EBF7E40E945A1E0E94A1
:1032B000541A0E945B1A0E947C0E0C946D19063001
:1032C00011F00C946D19E8EBF7E40E945A1E0E946D
:1032D000541A0E945B1A0E94D00FACE1B1E08C91AD
:1032E0008F5F8C9310F40C94EE18A7E4B2E08C91ED
:1032F00083FB16F00C94831970914702777F7093CB
:1033000047020E9443061D990C94C2190027A3E2AC
:10331000B0E08C9185FB00F94427A7E4B2E08C91E2
:1033200086FB40F9041711F40C94C0198AE090E070
:103330000E94CC1A1D990C94C019EEEBF7E40E9480
:103340005A1E0E94541AA3E2B0E08C9185FBA0E8BB
:10335000BFE30E944B1E8D9388278C930E944C1ACA
:103360000E945B1AA3E2B0E08C9185FBA7E4B2E077
:103370008C9186F98C93709126037062709326036A
:103380000C94FC190027A3E2B0E08C9185FB00F9B6
:103390004427A7E4B2E08C9186FB40F9041711F4AE
:1033A0000C94FC198AE090E00E94CC1A1D9B0C94AE
:1033B000FC19EEEBF7E40E945A1E0E94541AA3E295
:1033C000B0E08C9185FBA0E8BFE30E944B1E8D937B
:1033D00088278C930E944C1A0E945B1AA3E2B0E0EB
:1033E0008C9185FBA7E4B2E08C9186F98C93709167
:1033F00026037062709326030C94D118ED91FC9112
:10340000EF5FFF4FFC93EE93089509D00E94BE1D1D
:1034100000FC10D0089503D01ED001F8F9CF00248D
:10342000E89457FF02C009D0689400F80BD010F858
:103430000124089502D009D00895509540954F5F1A
:103440005F4F0895E89417FF0895009510950F5F5A
:103450001F4F68940895352F242FE894452B11F4BD
:1034600068940895512F402F0027112780E1440FC1
:10347000551F001F111F021B130B416018F4020F90
:10348000131F4E7F8A9599F708958F938D91882306
:10349000E9F711978F910895A0E8BFE38D918823F4
:1034A00011F00CD0FBCF08950E94F11D802D11F07A
:1034B00005D0FACF08958DE001D08AE00090C000D9
:1034C00005FEFCCF8093C60008950090C80005FE5D
:1034D000FCCF8093CE00089500FC05D0089530D035
:1034E00005D001F8F9CF37D03FD00895842F952F1C
:1034F000A62FB72FE894452B462B472B11F4689441
:103500000895402F512F622F732F00271127222754
:103510003327F0E2440F551F661F771F001F111F4E
:10352000221F331F081B190B2A0B3B0B416028F489
:10353000080F191F2A1F3B1F4E7FFA9559F7089550
:103540000024E89477FF02C006D0689400F809D000
:1035500010F80124089512D04F5F5F4F6F4F7F4FD7
:103560000895E89437FF08950095109520953095BB
:103570000F5F1F4F2F4F3F4F689408954095509510
:103580006095709508953197F1F70895689462F801
:103590000895E89462F80895EF93FF93EE27E82BDF
:1035A000E92B31F0E0EAFFE03197F1F70197D1F72D
:1035B000FF91EF9108958DE207FD8D938F2D881F68
:1035C000802F881F8F57082F6894F7F8802F87FF68
:1035D00017C080958395082F80E38D938EE28D939D
:1035E000802F815238F080E38D9399279C930E941D
:1035F0004F1E089544270A95802F09F19ED01FC0C1
:10360000805230F09EE49D9381E48D939D93EDCFA5
:103610004427DF92EF92FF920F938FE1801B11F00E
:10362000082F8BD091D09EE29D930F91FF90EF9049
:10363000DF9044270395003209F4D5CF33D03F9370
:10364000EAEDF6E30E945A1E38E12F2D1E2D0D2DB6
:10365000FF24EE24DD244427000F111F221FB8F49D
:103660002F923F920E94F11D102C0E94F11D202CE0
:103670000E94F11D302C0E94F11D31970E94201EE6
:10368000410DD21CE31CF01C3F902F9003C03396D9
:103690000E94191E31960E94191E3A95E9F63F9133
:1036A00007D0A5CFDD0CEE1CFF1C0A95D9F70895B5
:1036B000002719E058D08F93802B11F0039501C09B
:1036C0008F911A95B9F7802F882309F48CCF8F91A9
:1036D000805D8D930A95D9F788CF0065CD1D80B2A6
:1036E000E60E40597307A0ACB90350D6DC01286B35
:1036F000EE0094357700CA9A3B0065CD1D00B2E616
:103700000E0059730700ACB90300D6DC01006BEE64
:103710000000357700009A3B0000CD1D0000E60E4A
:10372000000073070000B9030000DC010000EE0098
:103730000000770000003B000000F694E794D79467
:1037400047950A95D1F7089500270DD08F930395DB
:103750008F2D8E298D29842BC1F78F91805D8D93BC
:103760000A95D9F742CF1F930F93002710E2440F19
:10377000DD1CEE1CFF1C001F802F9AE0890B10F04F
:10378000082F43951A9599F7802F0F911F9108954F
:10379000082748E01695079510F4122701254A9549
:1037A000C9F7089531E005C032E003C033E001C03D
:1037B00034E00FEF1FEF20EA91E0192EE9DF46D049
:1037C0008991682FE5DF42D08991E2DF3FD089916E
:1037D000DFDF3CD05991613078F0653068F488279C
:1037E000D7DF34D0852F869509F481E0D1DF2ED044
:1037F000802F2CD0812F2AC0663041F49D918C916E
:10380000C7DF24D0892FC4DF21D0F2CF6031E9F4A3
:103810008827BEDF1BD0852F869509F481E0682FAD
:10382000B7DF14D0862F880FB3DF10D0513019F4D2
:1038300088279D9102C09D918D91AADF07D0892F85
:10384000A7DF04D06A95B9F7D3CF0895313011F4CA
:103850000C945E1A323011F40C94651A0895A6E0A7
:10386000B1E0E3E0F1E00E947C1C33970C94581C1B
:10387000E6E0F1E0A3E0B1E00C946A1CEFE0F1E0D7
:10388000A0E0B1E00C94461CADE0BB278681978197
:103890000E946B1E0D93838194810E946B1E0D9379
:1038A000808191810E946B1E0D930895EDE0FF27AA
:1038B00082810E94601E8AE38D9381810E94601E36
:1038C0008AE38D9380810E94601E88278C930895DF
:1038D000ADE0BB27808191810E946B1E0D93838197
:1038E00094810E946B1E0D93868197810E946B1EAE
:1038F0000D930895EDE0FF2780810E94601E8FE206
:103900008D9381810E94601E8FE28D9382810E943F
:10391000601E88278D93089521D00F2D069506955A
:103920000F0D0D0D8F2D837021F41E2D13300AF411
:103930000A958E2D8A959927E0E5F9E30E945A1E93
:10394000A8E1BB270E940D1E080F47E00C946520DC
:1039500005010104060204000305010393E0ADE044
:1039600002C096E0AAE0B0E08FB7F89401910D9301
:103970009A95E1F78FBF08950191119145EB55E0BC
:103980000E940B1A440F440FF42E0F31150728F430
:1039900081E0E82E0395D02E24C00C33150728F4BF
:1039A00082E0E82E0E51D02E1CC00150150B4DE6C2
:1039B00051E00E942B1AF40E7CE07A95872F99270C
:1039C000E4EEF9E30E945A1EA2E1BB270E94071E03
:1039D0000217130790F37395E72E021B130B039541
:1039E000D02E089500001F003B005A007800970079
:1039F000B500D400F300110130014E010191119185
:103A00002191308140E851E561E070E00E946F1A39
:103A1000042F152F0C94BE1CA1DF0E2D0A95802FAC
:103A20000295003220F01F2D137009F40395DA94EB
:103A30000D0D11279927ECE4FAE30E945A1EA8E124
:103A4000BB270E940D1E080F111F0895000F1B2A8F
:103A5000384755647381909E81DF0F2D11274CE309
:103A600055270E94051A55270E0D151F4CE32227D6
:103A70003327662777270E94C81D0D0D131F231FAC
:103A800008956CDFDF92EF92FF920F2D112722270E
:103A900033274DE651E060E070E00E94C81DFF90C2
:103AA0004F2D4D5F469546955527662777270E94EF
:103AB0005C1FEF90DF900F931F932F933F930E9413
:103AC0000D1D222733277F916F915F914F910C94A9
:103AD0005C1F47DFAF92BF92CF920E94421D40E829
:103AE00051E561E070E00E94C81DFF90EF90DF900B
:103AF0000F931F932F933F930E942D1D7F916F91E2
:103B00005F914F910C945C1F019111912191308133
:103B100040E851E561E070E00E946F1A0C94941D3A
:103B2000019111912191308140E15EE060E070E00F
:103B30000E946F1AF42E4CE350E00E940B1AE42E00
:103B4000D02E0895AF93BF930E94841DBF91AF9173
:103B50000C94561CAF93BF930E94FE1CBF91AF9173
:103B60000C947A1C41E2FF2747BF8491089501918C
:103B70001191219130810895015010400F92B801A8
:103B8000469F8001479F100D569F100D0F9008957E
:103B90000F921F922F92C801D901489F80014A9F1E
:103BA00090014B9F202C499F100D211D321D5A9FC3
:103BB000202C589F100D211D321D599F200D311DA5
:103BC000689F200D311D699F300D789F300D2F901B
:103BD0001F900F9008950E94F11D0D920020D9F7BB
:103BE0000895D895319628F48F938BB783958BBF22
:103BF0008F910020089591E005C092E003C094E009
:103C000001C098E0EEDF0D929A95E1F70895880FD4
:103C1000991FE80FF91F0DD0F0CFE80FF91F09D059
:103C2000EACF880F991F880F991FE80FF91F01D05D
:103C3000E6CF28F48F938BB783958BBF8F91089530
:103C400028F48F938BB78A958BBF8F910895019637
:103C5000019721F00E94F11DE9F7FACF08958191B3
:103C600004D08D938823D9F70895813618F08B37C7
:103C700008F48F7D089591E0882321F08894991F9E
:103C80008A95E9F7892F90950895883018F0119654
:103C90008850FBCF089580E30EF4839508950F922A
:103CA00000240BBE0F9008950F9301E00BBF0F91FE
:103CB000889408950F930027F9CF0F9302E0F6CF71
:103CC00000278A3018F08A500395FBCF005D0D93D2
:103CD000805D8D930895805390530027813018F0B4
:103CE000065F8A95FBCF090F0895AF93BF930F939B
:103CF0009F938F938FB78F93A0E0B1E08C918395C2
:103D00008D938C3309F03DC088278E9311968C914A
:103D100083958D938C3309F034C088278E93119648
:103D20008C9183958D93883161F588278E931196B8
:103D30008C9183958D939C910EE1943089F096300F
:103D400079F0993069F09B3059F00CE1923039F4F8
:103D500011969C911197937019F4039501C00FE18E
:103D6000801778F071F081E08E9311968C91839595
:103D70008D938D3031F481E08E9311968C918395E3
:103D80008C938F918FBF8F919F910F91BF91AF9126
:103D90000F921F922F923F924F925F927F92AF921B
:103DA000BF920F931F932F933F934F935F936F9304
:103DB0007F938F939F93AF93BF93CF93DF93EF93B3
:103DC000FF939FB79F939BB79F9399279BBF0E9499
:103DD000D1029F919BBF9F919FBFFF91EF91DF9178
:103DE000CF91BF91AF919F918F917F916F915F9193
:103DF0004F913F912F911F910F91BF90AF907F9066
:103E00005F904F903F902F901F900F90189599279B
:103E10008D9193958823E1F7939511968C93119743
:103E20008E919A95D1F70895EA2FFB2F00244C919B
:103E30008D9103948E32E1F711248D911394882390
:103E4000E1F71A94101640F41197202F21192395A9
:103E500080E38D932A95E9F7113039F59927AE2F34
:103E6000BF2FA00DB91FA00FB91F8C919C93853354
:103E700008F421C031E08E918E32E9F38D3241F0A9
:103E8000830F8A3319F480E331E001C033278C9328
:103E9000AE1789F7332341F0AE2FBF2FB8DF81E390
:103EA0004D3209F43196808308958827E00DF81F7C
:103EB000E00FF81F80830895040F151F261F371F7A
:103EC0000895041B150B260B370B089504171507CF
:103ED000260737070895000F111F221F331F08956B
:103EE00000951095209530950F5F1F4F2F4F3F4F36
:103EF0000895019110810FC00E94B71D0EC00E944D
:103F0000B71D10C00191108117FF05C03FEF2FEFC3
:103F100004C0008111272227332737FF03C0E0DFC9
:103F20008DE28D93CF92DF92EF92AA24BB24CC2412
:103F3000DD24EE2440E2EAE0FF2755E093E38081B0
:103F4000890F87FD9F7083FD907F891B81935A9510
:103F5000A9F7C1DFAA1CBB1CCC1CDD1CEE1C4A95BA
:103F600051F7E894EFE0FF2782910BD0EB30E0F7B8
:103F70001EF068948A2D09D04D93EF90DF90CF907A
:103F80000895982F829501D0892F8F70805D26F03B
:103F9000803309F4089568948D93089500271127BC
:103FA000222733271DD08A3328F4803318F005D018
:103FB00015D0F9CF0EF494CF089580538F93402FEE
:103FC000512F622F732F87DF86DF76DF84DF8F919B
:103FD0009927080F191F291F391F08958D910895DA
:103FE000E894FCDF8032E9F38B32D9F38930C9F3EE
:103FF0008D3211F46894F2CF089541E003C042E09D
:1040000001C044E0E40F8827F81F8291982F829521
:1040100006D0892F04D04A95C1F70C9426208F70C2
:104020008A3008F0895F805D8D93089541E0E40F48
:104030008827F81F829138E098E1880F991F9D9397
:104040003A95D1F74A95B1F70C94262088278D939D
:10405000089581918D938823E1F7089594E08191EB
:104060008D939A95E1F7089509919191992359F0CB
:104070008A95D9F73197002331F081918D930A9574
:104080008823C9F70895E2CFF999FECFE1BDF2BDCB
:104090003196089591E001C092E07B3751F47FB7EB
:1040A000F894F2DF8D9180BDFA9AF99A9A95C9F742
:1040B0007FBF7727089591E001C092E0E5DFF89A8D
:1040C00080B58D939A95D1F70895FF93881BF9E0F9
:1040D000001FFA9511F4FF910895881F841B18F4AE
:1040E000840F8894F5CF0894F3CF8FEF83959D913B
:1040F0009923E1F70895689401C0E894AF93BF93C2
:104100008D9116F0919103C00E94F11D902D891799
:1041100018F011F48823A1F7BF91AF9108950D9184
:104120009981903009F013D0502788E0440F551F33
:1041300010F4422753278A95C9F7319781F789915F
:104140009991803019F08A0105D0A801089588E07E
:10415000112701C080E1080116940794001F111F68
:104160008A95D1F708950FEF1FEF2FEF3FEF60E231
:1041700073E888EB9DEE0D90002548E08894379514
:1041800027951795079520F40627172728273927FD
:104190004A95A1F7319779F70095109520953095BC
:1041A0000895689401C0E8942227102F231709F47A
:1041B000089526F40E94F11D802D01C08191803068
:1041C00081F0891741F070E08D931A9591F723954E
:1041D00071E01D93EACF01D0E8CF703011F077275E
:1041E0000895772331F42395882713958D931A9595
:1041F000E9F70895B7FE089590E8B91611F4D0FED6
:1042000008959FEFD91AE90AF90A09F40395089568
:10421000D190E190F19001910895219131914191D6
:1042200051910895502F2D2D3E2D4F2D612F089522
:10423000652F90E8440F551F5927990F47956078CF
:10424000102F90E8FF0C001F0927990FF7941078A2
:1042500000380895FF0C90E89027110F9795F79478
:10426000092F08951127BD2CDE2CEF2CF02E0EE126
:10427000FF2039F4FE2CED2CDB2CBB240850C2F7B8
:1042800052C032F00A95BB0CDD1CEE1CFF1CF9CFAE
:10429000B1DFE0CF2DEC3CEC4CEC5DE366270FC0CA
:1042A000B7DFC0DFDD24EE2490E8F92E0FE307C06E
:1042B000B4DF05C02227332740E251E466275523A7
:1042C00051F1002381F1B4DF71F1162700585058E5
:1042D0000894050B18F407FD03C025C007FD23C093
:1042E000469537952795F694E794D79422D0FF20EA
:1042F0002AF0DD0CEE1CFF1C015073F09D2D9695ED
:1043000048F0DD203AF4EE202AF491E0D90E992706
:10431000E91EF91E9FCF07C09FE7092FF92A9FEFDB
:10432000D92EE92E0895DD24EE24FF24002711273D
:1043300008959F929924AA24BB2488E1D216E3060B
:10434000F40628F0D21AE30AF40A089401C088940B
:10435000991CAA1CBB1CDD0CEE1CFF1C8A9571F776
:10436000D92CEA2CFB2C9F9008950E94F11D202D42
:104370000E94F11D302D0E94F11D402D0E94F11D63
:10438000502D089500007A440000C84230372F3085
:10439000312F3235000031313A32383A30300000B6
:1043A0002A2A2A2A2A2A2A2A2A2A2A2A20454D451E
:1043B0005445522032303235202A2A2A2A2A2A2AE3
:1043C0002A2A2A2A2A0032302D31322D3230323533
:1043D0002031393A31373A333300302E302E3132F2
:1043E0003500454D455445522E424153000041751C
:1043F00074003D002C204F46460049447365723CD2
:1044000000003E00556C74696D6120414354434C7B
:104410004B2000002C00454E414255473D00494489
:10442000536C6176653E0000434E5452696E693D9F
:1044300000005472792000005074723D00002C205E
:10444000416464723D00545820005054524D44421F
:104450003D00563366733D0056613D0056623D0097
:1044600056633D004933733D000049613D00496298
:104470003D0049633D0045616733733D0000456180
:10448000673D00004562673D00004563673D0000F1
:1044900050777233733D0000507772613D00507762
:1044A00072623D00507772633D00456133733D0099
:1044B000457233733D00667265633D00507472202F
:1044C0006E6F2076616C0000524547204D444220BB
:1044D0004445433D00002C204845583D00002C2019
:1044E0004445433D0000435243206661696C2065AA
:1044F0006E20414444523D00457370657261205204
:104500005049200052504974783E000053455231C2
:104510003D002400545841555431203B0000412CAB
:1045200000002D3100002600545841555434203BE2
:1045300000002D320000545841555435203B0000F6
:104540002D3500002C2C2C00545841555436203B5E
:1045500000002D3600002C2C2C2C2C2C00004F4B56
:104560000000455252005345544D424400004E4510
:1045700057204D444320434D44005345544441414A
:1045800000004E6F20636D642076616C00004C4526
:1045900045564657000056657273696F6E20465740
:1045A0003A204665636861203C0032302D31322D5F
:1045B000323032352031393A31373A3334003E2CFB
:1045C000204172636869766F203C00005345544C6B
:1045D00045440000536520636F6E666967757261BC
:1045E000207365746C65642061200000525354563A
:1045F0004152000056616C6F72657320706F7220BB
:1046000064656661756C7400534554434C4B0000FF
:104610003A00543E00002F00443E000057415443EE
:1046200048494E4720494E464F524D412E20536532
:1046300020636F6E66696775726F2072656C6F6A52
:1046400020656E20000020612000534953434C4BED
:104650000000486F72612061637475616C3D0000F9
:104660002C2046656368612061637475616C3D0050
:104670004C4545434C4B0000556C74696D612041BD
:10468000435420434C4B2061203D00002C206465A6
:104690006C2000005345544155540000536520637D
:1046A0006F6E66696775726F20747820415554206B
:1046B00000005345544F464600004C454541555473
:1046C000000054782041757420004C45454F464603
:1046D00000004F6666736574204175742000534571
:1046E000544E4557000053652061637469766F200E
:1046F00054782E20415554200000534554425547CC
:104700000000536520636F6E66696775726F2045A0
:104710004E414255473D00004C454542554700003B
:104720004C45455249440000494420736572203C81
:1047300000005345544449520000536520636F6E96
:1047400066696775726F204944736C617665206194
:1047500020004C454544495200004944736C617641
:1047600065203D0053455452454C00005245534589
:10477000542072656C6500005345542072656C6569
:10478000000045737065726120434C4B2064656C7A
:104790002053657276657200414354434C4B0000D0
:1047A00041555431000041555432000041555433B5
:1047B00000004155543500004155543600005370F7
:0847C00075657274613D000093
:00000001FF
