:100000000C94460018950000189500001895000003
:10001000189500001895000018950000189500002C
:100020001895000018950000189500000C94CC1E3F
:10003000189500001895000018950000189500000C
:1000400018950000189500000C94F7011895000011
:100050000C94BB001895000018950000189500003E
:1000600018950000189500001895000018950000DC
:100070000C949E011895000018950000189500003A
:100080001895000018950000189500008FEF8DBF9F
:10009000C0E8E8E94E2E80E48EBFD0E4FFE35F2E97
:1000A000A89584B7082E882784BF88E19927809374
:1000B000600090936000EEEFFFE3A0E0B1E08827DE
:1000C0008D933197E9F787E68093C40080E08093B1
:1000D000C50088E18093C1006624209A25982D9A56
:1000E000279A2F9885E085BD80E084BD70916E00D1
:1000F000716070936E0085E085BD80E28093B600EC
:1001000085E08093B1007091700071607093700011
:10011000A6E0B1E0ECE0F5E40E94B11E0E94421EB0
:100120000E948F1CAFE0B1E0E6E1F5E40E94B11E51
:100130000E94421E0E94951C7091C10070687093CD
:10014000C10083E38093CC0080E08093CD00709168
:10015000C8007D7F7093C80087E08093CA0088E163
:100160008093C900229A7091C90070687093C90089
:1001700078940C949D180F921F922F923F924F9259
:100180005F927F92AF92BF920F931F932F933F93F3
:100190004F935F936F937F938F939F93AF93BF938F
:1001A000CF93DF93EF93FF939FB79F939BB79F935B
:1001B00099279BBFA1ECB6E08091C6008C9384E2A6
:1001C000482F0091C106041711F00C94F2007091B1
:1001D0002C03706870932C03A8EFB5E088278C93EC
:1001E0000C94800185E2482F041711F00C94030150
:1001F00070912C03706270932C03ACE8B7E08827F1
:100200008C930C9480010D3011F00C944701ACE2FA
:10021000B3E08C9187FB16F00C94260170912C03AF
:100220007F7770932C0380E0A8EFB5E00E949C1AC2
:100230008D9388278C93E8EFF5E0A2ECB6E00E945E
:10024000802070912C03706470932C03ACE2B3E0B7
:100250008C9185FB16F00C94450170912C037F7DE9
:1002600070932C0380E0ACE8B7E00E949C1A8D9359
:1002700088278C93ECE8F7E0A9E1B8E00E948020A1
:1002800070912C03706170932C030C9480010F31DA
:1002900018F011F00C944E010C948001ACE2B3E024
:1002A0008C9187FB16F00C945F01A1ECB6E08C9169
:1002B000A8EFB5E00E949C1A8D9388278C93ACE23E
:1002C000B3E08C9185FB16F00C948001A1ECB6E0B4
:1002D0008C91ACE8B7E00E949C1A8D9388278C9390
:1002E000ACE8B7E00E94CC20082F0C3818F011F0D1
:1002F0000C947C010C948001ACE8B7E088278C93C7
:100300009F919BBF9F919FBFFF91EF91DF91CF91F5
:10031000BF91AF919F918F917F916F915F914F911D
:100320003F912F911F910F91BF90AF907F905F9061
:100330004F903F902F901F900F9018950F921F9203
:100340002F923F924F925F927F92AF92BF920F9304
:100350001F932F933F934F935F936F937F938F934D
:100360009F93AF93BF93CF93DF93EF93FF939FB789
:100370009F939BB79F9399279BBFA6EAB8E0809174
:10038000CE008C93ACE2B3E08C9183FB16F00C941E
:10039000D901A8EBB2E08C918F5F8C938091A60875
:1003A000A8EBB2E0AD90BB24A6EAB8E0AA0DBB1D55
:1003B0008C939F919BBF9F919FBFFF91EF91DF9186
:1003C000CF91BF91AF919F918F917F916F915F91ED
:1003D0004F913F912F911F910F91BF90AF907F90C0
:1003E0005F904F903F902F901F900F9018950F9215
:1003F0001F922F923F924F925F927F92AF92BF9245
:100400000F931F932F933F934F935F936F937F931C
:100410008F939F93AF93BF93CF93DF93EF93FF930C
:100420009FB79F939BB79F9399279BBF74E676BD19
:10043000A3E1B3E08C918F5F8C93A3E1B3E00C91C7
:1004400048E00E94BC208C9300911303003011F00F
:100450000C946302A4E1B3E00C9140E20E94BC2042
:100460008C93E6EFF0E30E94B11EA9E1B3E08C911A
:100470009927A5E1B3E00E94681E80911403A5E1CD
:10048000B3E00E949C1E0E94921E0C900822689469
:1004900009F4E894A7E4B2E08C9182F98C93A7E484
:1004A000B2E08C9194E089278C93A7E4B2E08C9120
:1004B00082FBA5E2B0E08C9180F98C93A4E1B3E0DB
:1004C0008C918F5F8C93ACE2B3E08C9183FB16F040
:1004D0000C948E02A0ECB2E00E94551AA0ECB2E09F
:1004E0000D911C9140EA50E00E94821AA0ECB2E00B
:1004F0000D931C93A0ECB2E00D911C91003050E0E4
:10050000150711F00C948E0270912C03777F709375
:100510002C0370914702786070934702A7E4B2E021
:100520008C9180FB16F00C94AD02ACE1B3E00E941C
:10053000551AAEE1B3E04D915C91ACE1B3E00D91A1
:100540001C910417150711F00C94AB02709147022F
:100550007260709347020C94B30280E090E0ACE1CB
:10056000B3E08D939C939F919BBF9F919FBFFF9101
:10057000EF91DF91CF91BF91AF919F918F917F913B
:100580006F915F914F913F912F911F910F91BF906C
:10059000AF907F905F904F903F902F901F900F9063
:1005A0001895E0E0F1E00E94C01DA2E2B3E00D93D7
:1005B0001D932D933D9381E08093200300912003B0
:1005C000063018F011F00C944A030091200341E02A
:1005D000041BA1E2B3E00C93A2E2B3E00D911D91E4
:1005E0002D913C91A0E2B3E0AD90BB24A8E6B2E02F
:1005F000AA0CBB1CAA0CBB1CAA0DBB1D4D915D9186
:100600006D917C910E94B81FA6E2B3E00D931D93FB
:100610002D933D93A6E2B3E00D911D912D913C9158
:10062000A0E2B3E0AD90BB24A0E5B2E0AA0CBB1CF5
:10063000AA0CBB1CAA0DBB1D4D915D916D917C91C7
:100640000E94C61AA6E2B3E00D931D932D933D932D
:1006500040E050E060E070E0A6E2B3E00D911D9153
:100660002D913C910E94BD1F11F00C94420380918A
:100670002103AAE2B3E00E949C1E0E94921E9C915C
:10068000982B9C93A0E2B3E08C918F5F8C9310F435
:100690000C94DE0270912B03716070932B0308950C
:1006A0002898E0E2F5E40E94B11E0E94AB1A0E9475
:1006B000B21AA0E8BFE3E6E4F5E40E94B11E0E948E
:1006C000421E0E94A31A0E94B21AA0E8BFE3EAE504
:1006D000F5E40E94B11E0E94421E0E94A31A0E94CD
:1006E000B21AA0E8BFE3E2E6F5E40E94B11E0E9460
:1006F000421E0E94A31A0E94B21A81E0809319033D
:1007000081E08093190100911901063018F011F071
:100710000C941604E9E1F1E0A190BB24EEEFFFEFA9
:10072000AA0CBB1CAA0CBB1CEA0DFB1DA9E1B1E085
:10073000AD90BB24A0E5B2E0AA0CBB1CAA0CBB1C6C
:10074000AA0DBB1D94E00E94B520E9E1F1E0A19063
:10075000BB24E6E1F0E0AA0CBB1CAA0CBB1CEA0D12
:10076000FB1DA9E1B1E0AD90BB24A8E6B2E0AA0C64
:10077000BB1CAA0CBB1CAA0DBB1D94E00E94B5209B
:10078000EEE6F5E40E94B11E0E94AB1AE9E1F1E049
:10079000A0E8BFE30E94E01F0E94A31AE2E7F5E48D
:1007A0000E94B11E0E94AB1AE9E1F1E0A190BB24C6
:1007B000E0E5F2E0AA0CBB1CAA0CBB1CEA0DFB1D79
:1007C000A0E8BFE30E94D31F0E94A31AE4E7F5E468
:1007D0000E94B11E0E94AB1AE9E1F1E0A0E8BFE37C
:1007E0000E94E01F0E94A31AE2E7F5E40E94B11EF6
:1007F0000E94AB1AE9E1F1E0A190BB24E8E6F2E047
:10080000AA0CBB1CAA0CBB1CEA0DFB1DA0E8BFE395
:100810000E94D31F0E94A31A0E94B21AA9E1B1E05C
:100820008C918F5F8C9310F40C9483030E94A3042B
:10083000EAE7F5E40E94B11E0E94AB1AA4E8B2E018
:100840000E94A51AE2E8F5E40E94B11E0E94AB1ACC
:100850000E94B21AE2E3F0E0A1EBB2E094E00E9461
:10086000B520E4E8F5E40E94B11E0E94AB1AE1EB6A
:10087000F2E0A0E8BFE30E94011E0E94A31AE4E98F
:10088000F5E40E94B11E0E94AB1AE1EBF2E0A0E891
:10089000BFE30E94F91D0E94A31A0E94B21AE0E071
:1008A000F0E0A0E4B2E00E94B220E6E9F5E40E94A4
:1008B000B11E0E94AB1AE0E4F2E0A0E8BFE30E94A0
:1008C000E01F0E94A31A0E94B21AE1E0F0E0A1E446
:1008D000B2E00E94B220EEE9F5E40E94B11E0E944F
:1008E000AB1AE1E4F2E0A0E8BFE30E94E01F0E943F
:1008F000A31A0E94B21AE6E3F0E0A1E1B3E00E947D
:10090000B420A1E1B3E00D911C910F5F1F4FA1E155
:10091000B3E00D931C93E6E3F0E0A1E1B3E07BE7E5
:100920000E94A320E8EAF5E40E94B11E0E94AB1ADF
:10093000E1E1F3E0A0E8BFE30E94D01F0E94A31A08
:100940000E94B21A089580E08093190180E080939C
:100950001A01A4E8B2E088278C938EE080931901F5
:1009600000911901073118F011F00C94CE04A9E19F
:10097000B1E0EC91FF270E94091E082FE0E1F0E0B2
:10098000A4E8B2E00E949C1A0E945420A9E1B1E0C0
:100990008C918F5F8C9310F40C94B004E4E8F2E037
:1009A000A0E3B1E00E948020A4E8B2E088278C9305
:1009B0008EE08093190100911901073118F011F0B0
:1009C0000C94F904A9E1B1E0EC91FF270E94091E03
:1009D000082FE0E1F0E0A4E8B2E00E949C1A0E9437
:1009E0005420A9E1B1E08C918F5F8C9310F40C94AA
:1009F000DB04E0E3F1E0A4E8B2E00E94D42011F0CF
:100A00000C94050581E080931901AAE1B1E08C9175
:100A10008F5F8C9300911901003011F00C94240524
:100A200084EF91E00E94231BE2EBF5E40E94B11EEB
:100A30000E94AB1AEAE1F1E0A0E8BFE30E94E01FE8
:100A40000E94A31A0E94B21A00911901013081E09C
:100A500009F080E08F9300911A010A3081E009F0DB
:100A600080E09F91892B882311F40C94A9040895A8
:100A700000E010E020E030E0A1E2B1E00D931D9332
:100A80002D933C9381E08093190100911901063068
:100A900018F011F00C948E05E9E1F1E0A190BB246F
:100AA000EEEFFFEFAA0CBB1CAA0CBB1CEA0DFB1D52
:100AB0000CE211E020E030E0A0E1BB2794E07BE70E
:100AC0000E94A420E9E1F1E0A190BB24E6E1F0E07E
:100AD000AA0CBB1CAA0CBB1CEA0DFB1DA1E2B1E0D9
:100AE00094E07BE70E94A420A1E2B1E00D911D916A
:100AF0002D913C914CE350E060E070E00E94B31F08
:100B0000A1E2B1E00D931D932D933D93A9E1B1E0D6
:100B10008C918F5F8C9310F40C944505E1E0F0E02C
:100B2000A0E1BB2781E08C937BE70E94A120EEE04F
:100B3000F0E00AE010E020E030E0A0E1BB2794E024
:100B40007BE70E94A4200895A2ECB2E08C918F5F15
:100B50008C93A2ECB2E00C9146E00E94BC208C93F6
:100B6000EEE0F0E30E94B11EA2ECB2E08C91992776
:100B7000A6EBB2E00E945E1EE8EBF5E40E94B11E17
:100B80000E94AB1AE2ECF2E0A0E8BFE30E94E01F93
:100B90000E94A31AEEEBF5E40E94B11E0E94AB1A6C
:100BA000E6EBF2E0A0E8BFE30E9456200E94A31A01
:100BB0000E94B21A81E080931E0100911E01003450
:100BC00018F011F00C94F60580E0AEE1B1E0AD90C4
:100BD000BB24A6EAB8E0AA0DBB1D8C93AEE1B1E040
:100BE0008C918F5F8C9310F40C94DD0580E08093E2
:100BF000B802A0E4B2E00C9103FB16F00C942006BE
:100C0000E6ECF5E40E94B11E0E94AB1AE6EBF2E0BE
:100C1000A0E8BFE30E9456200E94A31A0E94B21AC5
:100C200084E28A93A6EBB2E08D919C918A939A9389
:100C300083E08A93809141020E94291C0E94B21A8B
:100C400070912C03786070932C032A9A84E28A9323
:100C5000A6EBB2E08D919C918A939A9383E08A935C
:100C6000809141020E942B1CEF93FF93ECE6F7E189
:100C70000E941A1BFF91EF912A98709147027061B0
:100C8000709347020895A0E4B2E00C9103FB16F0C4
:100C90000C949206EAECF5E40E94B11E0E94AB1A95
:100CA000E8EBF2E0A0E8BFE30E94E01F0E94A31A75
:100CB000EEEBF5E40E94B11E0E94AB1AE6EBF2E007
:100CC000A0E8BFE30E9456200E94A31A0E94B21A15
:100CD00081E080931E014091B80200911E0104172B
:100CE00018F011F00C949006EEE1F1E0A190BB2415
:100CF000E6EAF8E0EA0DFB1DA0E8BFE30E945420FD
:100D00000E94A31AE4E9F5E40E94B11E0E94AB1A06
:100D1000AEE1B1E08C918F5F8C9310F40C946B0674
:100D20000E94B21A0091B80242E0041BA9EBB2E0A3
:100D30000C930091B90241E0040FAAEBB2E00C93CE
:100D40000091BA0241E0040FABEBB2E00C9381E0FA
:100D50008A9381E08A93A9EBB2E0EC91FF274FEFF1
:100D60005FEF25E030E8A7EAB8E00E94E620ACEBB0
:100D7000B2E04D935C93ABEBB2E0AD90BB24A6EA3E
:100D8000B8E0AA0DBB1D9C91AAEBB2E0AD90BB24CC
:100D9000A6EAB8E0AA0DBB1D8C91AFE1B1E08D933E
:100DA0009C93AFE1B1E04D915C91ACEBB2E00D9161
:100DB0001C910417150711F00C94570BA7E4B2E02F
:100DC0008C9184FB16F00C94EF0A0091C202003063
:100DD00011F00C9485078091AA0880934F028091AE
:100DE000AB0880934E028091AC0880934D028091B5
:100DF000AD0880934C02E2EDF5E40E94B11E0E9422
:100E0000AB1AECE4F2E0A0E8BFE30E94D61F0E9418
:100E1000A31A0E94B21A8091AE0880934F0280916B
:100E2000AF0880934E028091B00880934D0280916C
:100E3000B10880934C02ACE4B2E08D919C91A3EC9C
:100E4000B2E08D939C93E8EDF5E40E94B11E0E9400
:100E5000AB1AE3ECF2E0A0E8BFE30E94D01F0E94CF
:100E6000A31A0E94B21A8091B20880934F02809117
:100E7000B30880934E028091B40880934D02809114
:100E8000B50880934C02ACE4B2E08D919C91A5EC46
:100E9000B2E08D939C93ECEDF5E40E94B11E0E94AC
:100EA000AB1AE5ECF2E0A0E8BFE30E94D01F0E947D
:100EB000A31A0E94B21A8091B60880934F028091C3
:100EC000B70880934E028091B80880934D028091BC
:100ED000B90880934C02ACE4B2E08D919C91A7ECF0
:100EE000B2E08D939C93E0EEF5E40E94B11E0E9467
:100EF000AB1AE7ECF2E0A0E8BFE30E94D01F0E942B
:100F0000A31A0E94B21A0C94ED0A013011F00C944D
:100F100063088091AA0880934F028091AB08809368
:100F20004E028091AC0880934D028091AD08809371
:100F30004C02E4E0F5E40E94B11E0E947522ECE44C
:100F4000F2E00E945F210E948E210E94DE21EDE0EE
:100F5000F0E0ADECB2E00E948520E4EEF5E40E9402
:100F6000B11E0E94AB1AEDECF2E0A0E8BFE30E94D4
:100F70005F210E94321B0E94A31A0E94B21A809124
:100F8000AE0880934F028091AF0880934E0280910B
:100F9000B00880934D028091B10880934C02E4E048
:100FA000F5E40E94B11E0E947522ECE4F2E00E947A
:100FB0005F210E948E210E94DE21EDE0F0E0A1ED94
:100FC000B2E00E948520EAEEF5E40E94B11E0E9484
:100FD000AB1AE1EDF2E0A0E8BFE30E945F210E94BE
:100FE000321B0E94A31A0E94B21A8091B208809309
:100FF0004F028091B30880934E028091B408809391
:101000004D028091B50880934C02E4E0F5E40E9423
:10101000B11E0E947522ECE4F2E00E945F210E9462
:101020008E210E94DE21EDE0F0E0A5EDB2E00E940D
:101030008520EEEEF5E40E94B11E0E94AB1AE5EDAC
:10104000F2E0A0E8BFE30E945F210E94321B0E94F1
:10105000A31A0E94B21A8091B60880934F02809121
:10106000B70880934E028091B80880934D0280911A
:10107000B90880934C02E4E0F5E40E94B11E0E949E
:101080007522ECE4F2E00E945F210E948E210E9412
:10109000DE21EDE0F0E0A9EDB2E00E948520E2EF74
:1010A000F5E40E94B11E0E94AB1AE9EDF2E0A0E85F
:1010B000BFE30E945F210E94321B0E94A31A0E947C
:1010C000B21A0C94ED0A023011F00C94410980918F
:1010D000AA0880934F028091AB0880934E028091C2
:1010E000AC0880934D028091AD0880934C02E8E0FB
:1010F000F5E40E94B11E0E947522ECE4F2E00E9429
:101100005F210E948E210E943722EDE0F0E0A1E0F5
:10111000B3E00E948520E6EFF5E40E94B11E0E9434
:10112000AB1AE1E0F3E0A0E8BFE30E945F210E9478
:10113000321B0E94A31A0E94B21A8091AE088093BB
:101140004F028091AF0880934E028091B008809347
:101150004D028091B10880934C02E8E0F5E40E94D2
:10116000B11E0E947522ECE4F2E00E945F210E9411
:101170008E210E943722EDE0F0E0A5E0B3E00E946E
:101180008520EEEFF5E40E94B11E0E94AB1AE5E067
:10119000F3E0A0E8BFE30E945F210E94321B0E949F
:1011A000A31A0E94B21A8091B20880934F028091D4
:1011B000B30880934E028091B40880934D028091D1
:1011C000B50880934C02E8E0F5E40E94B11E0E944D
:1011D0007522ECE4F2E00E945F210E948E210E94C1
:1011E0003722EDE0F0E0A9E0B3E00E948520E4E0E2
:1011F000F6E40E94B11E0E94AB1AE9E0F3E0A0E819
:10120000BFE30E945F210E94321B0E94A31A0E942A
:10121000B21A8091B60880934F028091B7088093EC
:101220004E028091B80880934D028091B908809356
:101230004C02E8E0F5E40E94B11E0E947522ECE445
:10124000F2E00E945F210E948E210E943722EDE091
:10125000F0E0ADE0B3E00E948520EAE0F6E40E9411
:10126000B11E0E94AB1AEDE0F3E0A0E8BFE30E94DC
:101270005F210E94321B0E94A31A0E94B21A0C9492
:10128000ED0A033011F00C94F7098091AA088093BD
:1012900053028091AB08809352028091AC088093F6
:1012A00051028091AD0880935002E0E5F2E00E9487
:1012B0005F210E94A621ADEDB2E00E946921E0E12C
:1012C000F6E40E94B11E0E94AB1AEDEDF2E0A0E838
:1012D000BFE30E945F210E94321B0E94A31A0E945A
:1012E000B21A8091AE08809353028091AF08809328
:1012F00052028091B008809351028091B10880938E
:101300005002E0E5F2E00E945F210E94A621A1EEDA
:10131000B2E00E946921E8E1F6E40E94B11E0E9459
:10132000AB1AE1EEF2E0A0E8BFE30E945F210E9469
:10133000321B0E94A31A0E94B21A8091B2088093B5
:1013400053028091B308809352028091B408809335
:1013500051028091B50880935002E0E5F2E00E94CE
:101360005F210E94A621A5EEB2E00E946921EEE174
:10137000F6E40E94B11E0E94AB1AE5EEF2E0A0E88E
:10138000BFE30E945F210E94321B0E94A31A0E94A9
:10139000B21A8091B608809353028091B708809367
:1013A00052028091B808809351028091B9088093CD
:1013B0005002E0E5F2E00E945F210E94A621A9EE22
:1013C000B2E00E946921E4E2F6E40E94B11E0E94AC
:1013D000AB1AE9EEF2E0A0E8BFE30E945F210E94B1
:1013E000321B0E94A31A0E94B21A0C94ED0A043018
:1013F00011F00C949F0A8091AA0880934F0280916B
:10140000AB0880934E028091AC0880934D0280918E
:10141000AD0880934C02E8E0F5E40E94B11E0E9402
:101420007522ECE4F2E00E945F210E948E210E946E
:10143000DE21EDE0F0E0ADEEB2E00E948520EAE2D0
:10144000F6E40E94B11E0E94AB1AEDEEF2E0A0E8B5
:10145000BFE30E945F210E94321B0E94A31A0E94D8
:10146000B21A8091AE0880934F028091AF088093AA
:101470004E028091B00880934D028091B108809314
:101480004C02E8E0F5E40E94B11E0E947522ECE4F3
:10149000F2E00E945F210E948E210E94DE21EDE099
:1014A000F0E0ADEFB2E00E948520E0E3F6E40E94B8
:1014B000B11E0E94AB1AEDEFF2E0A0E8BFE30E947C
:1014C0005F210E94321B0E94A31A0E94B21A8091CF
:1014D000BA0880934F028091BB0880934E0280919E
:1014E000BC0880934D028091BD0880934C02E4E0DB
:1014F000F5E40E94B11E0E947522ECE4F2E00E9425
:101500005F210E948E210E94DE21EDE0F0E0A9EC37
:10151000B2E00E948520E6E3F6E40E94B11E0E943C
:10152000AB1AE9ECF2E0A0E8BFE30E945F210E9461
:10153000321B0E94A31A0E94B21A0C94ED0A0530C5
:1015400011F00C94E50A8091AA0880934F028091D3
:10155000AB0880934E028091AC0880934D0280913D
:10156000AD0880934C02ECE3F6E40E94B11E0E94A9
:10157000AB1AECE4F2E0A0E8BFE30E94D61F0E94A1
:10158000A31A0E94B21A8091AE0880934F028091F4
:10159000AF0880934E028091B00880934D028091F5
:1015A000B10880934C02E0E4F6E40E94B11E0E9470
:1015B000AB1AECE4F2E0A0E8BFE30E94D61F0E9461
:1015C000A31A0E94B21A0C94ED0AE4E4F6E40E9415
:1015D000B11E0E94AB1A0E94B21A0C94550B0091D6
:1015E000B802073011F00C94290B9091AA08809151
:1015F000AB08AEEBB2E08D939C93E0E5F6E40E947D
:10160000B11E0E94AB1AEEEBF2E0A0E8BFE30E942D
:10161000D01F0E94A31AEEE5F6E40E94B11E0E94BC
:10162000AB1AEEEBF2E0A0E8BFE30E9456200E9466
:10163000A31AE6E6F6E40E94B11E0E94AB1AEEEB96
:10164000F2E0A0E8BFE30E94D01F0E94A31A0E940C
:10165000B21A0091B802083011F00C94550B909119
:10166000AB088091AC08AEEBB2E08D939C93E0E5C3
:10167000F6E40E94B11E0E94AB1AEEEBF2E0A0E885
:10168000BFE30E94D01F0E94A31AEEE5F6E40E9479
:10169000B11E0E94AB1AEEEBF2E0A0E8BFE30E949D
:1016A00056200E94A31A0E94B21A0C946E0BA0E45A
:1016B000B2E00C9103FB16F00C946E0BEEE6F6E430
:1016C0000E94B11E0E94AB1AE6EBF2E0A0E8BFE375
:1016D0000E9456200E94A31A0E94B21A089580E028
:1016E00080934602709147027F7770934702A6E489
:1016F000B2E08C918F5F8C93E0E8F6E40E94B11E1B
:101700000E94AB1AE6E4F2E0A0E8BFE30E94E01F0B
:101710000E94A31A0E94B21A84E690E0AEE1B3E000
:101720008D939C9380E090E0ACE1B3E08D939C932B
:1017300070914702716070934702709147027D7FFC
:1017400070934702ACE2B3E08C9184FB16F00C94EA
:10175000BC0B70912C037F7E70932C03ECE8F6E4B5
:101760000E94B11E0E94AB1AA9E1B8E00E94A51A1E
:101770000E94B21A0E94F910ACE2B3E08C9186FB91
:1017800016F00C94D60B70912C037F7B70932C0376
:10179000E4E9F6E40E94B11E0E94AB1AA2ECB6E0A6
:1017A0000E94A51A0E94B21A0E948311A7E4B2E017
:1017B0008C9187FB81E00EF080E08F93A7E4B2E08C
:1017C0008C9181FB81E00EF080E09F91892B882332
:1017D00011F40C94A20B709147027E7F7093470224
:1017E000A7E4B2E08C9187FB16F40C94030CEAE9B1
:1017F000F6E40E94B11E0E94AB1AA0E3B1E00E9481
:10180000A51A0E94B21AA7E4B2E08C9187FB81E08E
:101810000EF080E08F9300914602033081E009F0E2
:1018200080E09F91892B882311F40C94770B7091A1
:1018300047027E7F70934702709147027F777093D3
:1018400047020895ECE9F6E40E94B11E0E94AB1A2B
:101850000E94861CAFE0B1E00E94A51AE4E9F5E41D
:101860000E94B11E0E94AB1A0E94861CA6E0B1E045
:101870000E94A51A0E94B21A0E94861CE6E0F1E0BE
:10188000ABE9B2E00E9480200E94861CEFE0F1E00C
:10189000A6EAB2E00E948020A0E3B1E0E6EAF6E426
:1018A0000E94B11E0E94421EEBE9F2E0A0E3B1E00B
:1018B0000E949C1A0E948020A0E3B1E00E949C1A22
:1018C000E4E9F5E40E94B11E0E94421EE6EAF2E05D
:1018D000A0E3B1E00E949C1A0E948020A0E3B1E046
:1018E0000E949C1AE4E9F5E40E94B11E0E94421E87
:1018F000E4E8F2E0A0E3B1E00E949C1A0E9480209C
:10190000A0E3B1E00E949C1AEAEAF6E40E94B11E4C
:101910000E94421EA0E3B1E00E949C1AE4E9F5E4B3
:101920000E94B11E0E94421EE3ECF2E0A0E3B1E08F
:101930000E949C1A0E94D01FA0E3B1E00E949C1A52
:10194000E4E9F5E40E94B11E0E94421EE5ECF2E0DB
:10195000A0E3B1E00E949C1A0E94D01FA0E3B1E076
:101960000E949C1AE4E9F5E40E94B11E0E94421E06
:10197000E7ECF2E0A0E3B1E00E949C1A0E94D01FC5
:10198000A0E3B1E00E949C1AE4E9F5E40E94B11ED4
:101990000E94421EE9ECF2E0A0E3B1E00E949C1A32
:1019A0000E945F210E94321BA0E3B1E00E949C1ABA
:1019B000E4E9F5E40E94B11E0E94421EE1EDF2E06E
:1019C000A0E3B1E00E949C1A0E945F210E94321B9A
:1019D000A0E3B1E00E949C1AE4E9F5E40E94B11E84
:1019E0000E94421EE5EDF2E0A0E3B1E00E949C1AE5
:1019F0000E945F210E94321BA0E3B1E00E949C1A6A
:101A0000E4E9F5E40E94B11E0E94421EE9EDF2E015
:101A1000A0E3B1E00E949C1A0E945F210E94321B49
:101A2000A0E3B1E00E949C1AE4E9F5E40E94B11E33
:101A30000E94421EA0E3B1E00E94CC20AFE1B1E0E1
:101A40008D9388278C93AFE1B1E0ED91FC91A0E3F9
:101A5000B1E00E940A21A2E4B2E00D931D932D9300
:101A60003D93A0E3B1E00E949C1AEEEAF6E40E94E6
:101A7000B11E0E94421EE2E4F2E0A0E3B1E00E9447
:101A80009C1A0E945820EAE9F6E40E94B11E0E94C6
:101A9000AB1AA0E3B1E00E94A51A0E94B21A0E94FC
:101AA0006F0B0895E0EBF6E40E94B11E0E94AB1AA2
:101AB0000E94861CAFE0B1E00E94A51AE4E9F5E4BB
:101AC0000E94B11E0E94AB1A0E94861CA6E0B1E0E3
:101AD0000E94A51A0E94B21A0E94861CE6E0F1E05C
:101AE000ABE9B2E00E9480200E94861CEFE0F1E0AA
:101AF000A6EAB2E00E948020A0E3B1E0E6EAF6E4C4
:101B00000E94B11E0E94421EEBE9F2E0A0E3B1E0A8
:101B10000E949C1A0E948020A0E3B1E00E949C1ABF
:101B2000E4E9F5E40E94B11E0E94421EE6EAF2E0FA
:101B3000A0E3B1E00E949C1A0E948020A0E3B1E0E3
:101B40000E949C1AE4E9F5E40E94B11E0E94421E24
:101B5000E4E8F2E0A0E3B1E00E949C1A0E94802039
:101B6000A0E3B1E00E949C1AEAEBF6E40E94B11EE9
:101B70000E94421EA0E3B1E00E949C1AE4E9F5E451
:101B80000E94B11E0E94421EEDEDF2E00E945F2114
:101B9000A0E8BFE3AF93BF930E94321B11E002E0C5
:101BA000BF91AF910E946B1FE0E8FFE3A0E3B1E0BB
:101BB0000E949C1A0E948020A0E3B1E00E949C1A1F
:101BC000E4E9F5E40E94B11E0E94421EE1EEF2E05B
:101BD0000E945F21A0E8BFE3AF93BF930E94321B36
:101BE00011E002E0BF91AF910E946B1FE0E8FFE3BC
:101BF000A0E3B1E00E949C1A0E948020A0E3B1E023
:101C00000E949C1AE4E9F5E40E94B11E0E94421E63
:101C1000E5EEF2E00E945F21A0E8BFE3AF93BF933F
:101C20000E94321B11E002E0BF91AF910E946B1F36
:101C3000E0E8FFE3A0E3B1E00E949C1A0E9480204C
:101C4000A0E3B1E00E949C1AE4E9F5E40E94B11E11
:101C50000E94421EE9EEF2E00E945F21A0E8BFE38D
:101C6000AF93BF930E94321B11E002E0BF91AF918E
:101C70000E946B1FE0E8FFE3A0E3B1E00E949C1A22
:101C80000E948020A0E3B1E00E949C1AE4E9F5E400
:101C90000E94B11E0E94421EEDEEF2E00E945F2102
:101CA000A0E8BFE3AF93BF930E94321B11E002E0B4
:101CB000BF91AF910E946B1FE0E8FFE3A0E3B1E0AA
:101CC0000E949C1A0E948020A0E3B1E00E949C1A0E
:101CD000E4E9F5E40E94B11E0E94421EE1EFF2E049
:101CE000A0E3B1E00E949C1A0E94D61FA0E3B1E0DD
:101CF0000E949C1AE4E9F5E40E94B11E0E94421E73
:101D0000E5EFF2E0A0E3B1E00E949C1A0E94D61F2A
:101D1000A0E3B1E00E949C1AE4E9F5E40E94B11E40
:101D20000E94421EE9EFF2E0A0E3B1E00E949C1A9B
:101D30000E94D61FA0E3B1E00E94CC20AFE1B1E049
:101D40008D9388278C93AFE1B1E0ED91FC91A0E3F6
:101D5000B1E00E940A21A2E4B2E00D931D932D93FD
:101D60003D93A0E3B1E00E949C1AEEEAF6E40E94E3
:101D7000B11E0E94421EE2E4F2E0A0E3B1E00E9444
:101D80009C1A0E945820EAE9F6E40E94B11E0E94C3
:101D9000AB1AA0E3B1E00E94A51A0E94B21A0E94F9
:101DA0006F0B0895EEEBF6E40E94B11E0E94AB1A91
:101DB0000E94861CAFE0B1E00E94A51AE4E9F5E4B8
:101DC0000E94B11E0E94AB1A0E94861CA6E0B1E0E0
:101DD0000E94A51A0E94B21A0E94861CE6E0F1E059
:101DE000ABE9B2E00E9480200E94861CEFE0F1E0A7
:101DF000A6EAB2E00E948020A0E3B1E0E6EAF6E4C1
:101E00000E94B11E0E94421EEBE9F2E0A0E3B1E0A5
:101E10000E949C1A0E948020A0E3B1E00E949C1ABC
:101E2000E4E9F5E40E94B11E0E94421EE6EAF2E0F7
:101E3000A0E3B1E00E949C1A0E948020A0E3B1E0E0
:101E40000E949C1AE4E9F5E40E94B11E0E94421E21
:101E5000E4E8F2E0A0E3B1E00E949C1A0E94802036
:101E6000A0E3B1E00E949C1AE8ECF6E40E94B11EE7
:101E70000E94421EA0E3B1E00E949C1AE4E9F5E44E
:101E80000E94B11E0E94421EE1E0F3E00E945F2129
:101E9000A0E8BFE3AF93BF930E94321B11E002E0C2
:101EA000BF91AF910E946B1FE0E8FFE3A0E3B1E0B8
:101EB0000E949C1A0E948020A0E3B1E00E949C1A1C
:101EC000E4E9F5E40E94B11E0E94421EE5E0F3E061
:101ED0000E945F21A0E8BFE3AF93BF930E94321B33
:101EE00011E002E0BF91AF910E946B1FE0E8FFE3B9
:101EF000A0E3B1E00E949C1A0E948020A0E3B1E020
:101F00000E949C1AE4E9F5E40E94B11E0E94421E60
:101F1000E9E0F3E00E945F21A0E8BFE3AF93BF9345
:101F20000E94321B11E002E0BF91AF910E946B1F33
:101F3000E0E8FFE3A0E3B1E00E949C1A0E94802049
:101F4000A0E3B1E00E949C1AE4E9F5E40E94B11E0E
:101F50000E94421EEDE0F3E00E945F21A0E8BFE393
:101F6000AF93BF930E94321B11E002E0BF91AF918B
:101F70000E946B1FE0E8FFE3A0E3B1E00E949C1A1F
:101F80000E948020A0E3B1E00E949C1AE4E9F5E4FD
:101F90000E94B11E0E94421EEDEFF2E00E945F21FE
:101FA000A0E8BFE3AF93BF930E94321B11E002E0B1
:101FB000BF91AF910E946B1FE0E8FFE3A0E3B1E0A7
:101FC0000E949C1A0E948020A0E3B1E00E949C1A0B
:101FD000ECECF6E40E94B11E0E94421EA0E3B1E0C8
:101FE0000E94CC20AFE1B1E08D9388278C93AFE1C4
:101FF000B1E0ED91FC91A0E3B1E00E940A21A2E4DE
:10200000B2E00D931D932D933D93A0E3B1E00E94A8
:102010009C1AEEEAF6E40E94B11E0E94421EE2E41F
:10202000F2E0A0E3B1E00E949C1A0E945820EAE985
:10203000F6E40E94B11E0E94AB1AA0E3B1E00E9438
:10204000A51A0E94B21A0E946F0B0895E0EDF6E403
:102050000E94B11E0E94AB1A0E94861CAFE0B1E044
:102060000E94A51AE4E9F5E40E94B11E0E94AB1A91
:102070000E94861CA6E0B1E00E94A51A0E94B21A36
:102080000E94861CE6E0F1E0ABE9B2E00E9480200D
:102090000E94861CEFE0F1E0A6EAB2E00E948020F8
:1020A000A0E3B1E0E6EAF6E40E94B11E0E94421EFF
:1020B000EBE9F2E0A0E3B1E00E949C1A0E948020CC
:1020C000A0E3B1E00E949C1AE4E9F5E40E94B11E8D
:1020D0000E94421EE6EAF2E0A0E3B1E00E949C1AF0
:1020E0000E948020A0E3B1E00E949C1AE4E9F5E49C
:1020F0000E94B11E0E94421EE4E8F2E0A0E3B1E0BB
:102100000E949C1A0E948020A0E3B1E00E949C1AC9
:10211000EAEDF6E40E94B11E0E94421EA0E3B1E087
:102120000E949C1AE4E9F5E40E94B11E0E94421E3E
:10213000A3E2B0E08C9185FBA0E3B1E00E949C1A81
:102140000E94A21E8D9388278C93A0E3B1E00E9489
:102150009C1AE4E9F5E40E94B11E0E94421EE1E1EE
:10216000F3E0A0E3B1E00E949C1A0E94D01FA0E31C
:10217000B1E00E949C1AEEEDF6E40E94B11E0E94AE
:10218000421EA0E3B1E00E94CC20AFE1B1E08D930C
:1021900088278C93AFE1B1E0ED91FC91A0E3B1E031
:1021A0000E940A21A2E4B2E00D931D932D933D936A
:1021B000A0E3B1E00E949C1AEEEAF6E40E94B11E90
:1021C0000E94421EE2E4F2E0A0E3B1E00E949C1A09
:1021D0000E945820EAE9F6E40E94B11E0E94AB1A60
:1021E000A0E3B1E00E94A51A0E94B21A0E946F0BF0
:1021F0000895E9E1F8E09BE304E132E2AEE2B3E006
:102200000E942A21ADE2B3E02C9300912D0300300F
:1022100018F011F00C940E110C941611EEE2F3E08C
:10222000A9E2B1E00E9480200C941C11E9E1F8E0E1
:10223000A9E2B1E00E948020A9E2B1E0E6EEF6E476
:102240000E94B11E0E94D22011F00C942E117091A8
:1022500047027068709347020C948211EAEEF6E42C
:102260000E94B11E0E94D22011F00C943E11709178
:1022700047027F77709347020C948211EEEEF6E4EA
:102280000E94B11E0E94D22011F00C945C1170913A
:102290002C03706470932C03E3E4F3E0A2ECB6E04B
:1022A0000E948020E6EFF6E40E94B11E0E94AB1A65
:1022B0000E94B21A0C948211E2E0F7E40E94B11E6F
:1022C0000E94D22011F00C947A1170912C0370644A
:1022D00070932C03E3E4F3E0A2ECB6E00E948020CC
:1022E000E6EFF6E40E94B11E0E94AB1A0E94B21AF9
:1022F0000C948211EAE0F7E40E94B11E0E94AB1A2E
:102300000E94B21A089581E0E2ECF6E006E00A933A
:10231000ABE0B2E00E948B20E2ECF6E09CE204E14C
:1023200032E2AEE2B3E00E942A21ADE2B3E02C93A8
:10233000AEE2B3E00E94CC20082F063011F00C94DE
:102340007017EEE2F3E0A9E2B1E00E948020E9E23A
:10235000F1E0A9E2B1E00E94861E8FEF8093F901BF
:10236000A9E2B1E0E6E1F7E40E94B11E0E94D220AA
:1023700011F00C94FC1180E08093F901A0E3B1E02E
:10238000EEE1F7E40E94B11E0E94421EABE0B2E013
:10239000E2E3F7E40E94B11E0E94421EEBE0F2E08D
:1023A000A0E3B1E00E949C1A0E948020A0E3B1E06B
:1023B0000E949C1AE6E4F7E40E94B11E0E94421EAD
:1023C000ABE0B2E0E2E6F5E40E94B11E0E94421EDC
:1023D000EBE0F2E0A0E3B1E00E949C1A0E948020B2
:1023E000A0E3B1E00E949C1AE2E8F5E40E94B11E6D
:1023F0000E94421E0C946E17E4E5F7E40E94B11EA1
:102400000E94D22011F00C943B1200912D03023057
:1024100011F00C943612A3E4B3E00E942520A9E148
:10242000B1E00C9300911901013110F00C943112BC
:1024300080E08093F901A0E3B1E0ECE5F7E40E94CD
:10244000B11E0E94421EE9E1F1E0A0E3B1E00E946A
:102450009C1A0E94E01F80911901809319030C942B
:10246000341285E08093F9010C94391284E0809352
:10247000F9010C946E17E4E7F7E40E94B11E0E9484
:10248000D22011F00C94531280E08093F901A0E364
:10249000B1E0ECE7F7E40E94B11E0E94421E0E94E8
:1024A00038050C946E17E0E9F7E40E94B11E0E9413
:1024B000D22011F00C945F1300912D03023011F023
:1024C0000C945A13A3E4B3E00E94CC20082F0C30E4
:1024D00011F00C94551380E08093F90187E0E3E458
:1024E000F3E002E00A93ABE0B2E00E948B20ABE0A5
:1024F000B2E00E949C1AE8E9F7E40E94B11E0E9433
:10250000421E89E0E3E4F3E002E00A93ABE0B2E0CC
:102510000E949C1A0E948B20ABE0B2E00E949C1AA1
:10252000E8E9F7E40E94B11E0E94421E8BE0E3E45A
:10253000F3E002E00A93ABE0B2E00E949C1A0E9432
:102540008B20ABE0B2E00E94A51A0E94B21AEBE029
:10255000F2E0AFE0B1E00E9480200E94951CEAE921
:10256000F7E40E94B11E0E94AB1A0E94861CAFE0E5
:10257000B1E00E94A51A0E94B21A81E0E3E4F3E000
:1025800002E00A93ABE0B2E00E948B20ABE0B2E045
:102590000E949C1AEEE9F7E40E94B11E0E94421EBE
:1025A00083E0E3E4F3E002E00A93ABE0B2E00E94F0
:1025B0009C1A0E948B20ABE0B2E00E949C1AEEE9CC
:1025C000F7E40E94B11E0E94421E85E0E3E4F3E0BE
:1025D00002E00A93ABE0B2E00E949C1A0E948B20BA
:1025E000ABE0B2E00E94A51A0E94B21AEBE0F2E062
:1025F000A6E0B1E00E9480200E948F1CE0EAF7E490
:102600000E94B11E0E94AB1A0E94861CA6E0B1E097
:102610000E94A51A0E94B21AA0E3B1E0E4EAF7E42E
:102620000E94B11E0E94421E0E94861CE6E0F1E05C
:10263000A0E3B1E00E949C1A0E948020A0E3B1E0D8
:102640000E949C1AEEECF7E40E94B11E0E94421E0A
:102650000E94861CEFE0F1E0A0E3B1E00E949C1A2A
:102660000E948020E3E0F1E00E94E31CA5EBB2E0D1
:102670008C93E0E0F1E00E94C01DA1EBB2E00D936D
:102680001D932D933D93E2E3F0E0A1EBB2E094E0E3
:102690007BE70E94A420709147027062709347020A
:1026A00081E0809319030C94581386E08093F9011C
:1026B0000C945D1384E08093F9010C946E17E2EDA5
:1026C000F7E40E94B11E0E94D22011F00C949F13D7
:1026D00080E08093F9010E94861CEFE0F1E0ABE01E
:1026E000B2E00E948020A0E3B1E0EAEDF7E40E94AE
:1026F000B11E0E94421EEBE0F2E0A0E3B1E00E94B6
:102700009C1A0E948020A0E3B1E00E949C1AE8EE8F
:10271000F7E40E94B11E0E94421E0E94861CE6E061
:10272000F1E0ABE0B2E00E948020EBE0F2E0A0E359
:10273000B1E00E949C1A0E9480200C946E17E8EF72
:10274000F7E40E94B11E0E94D22011F00C94DB131A
:1027500080E08093F901E1EBF2E0ABE0B2E00E94AF
:10276000F91DA0E3B1E0E0E0F8E40E94B11E0E9490
:10277000421EEBE0F2E0A0E3B1E00E949C1A0E944E
:102780008020A0E3B1E00E949C1AE4E1F8E40E94FA
:10279000B11E0E94421EE1EBF2E0ABE0B2E00E940B
:1027A000011EEBE0F2E0A0E3B1E00E949C1A0E945F
:1027B00080200C946E17ECE1F8E40E94B11E0E9498
:1027C000D22011F00C94721400912D03033011F0FB
:1027D0000C946D14A3E4B3E00E942520AEE1B1E0B7
:1027E0000C9300911E01003080E010F009F081E0B0
:1027F0008F9300911E01073081E008F080E09F91E7
:102800008923882311F40C946814A8E5B3E00E948E
:102810002520A5E2B1E00D931D932D933D93A5E2F4
:10282000B1E00D911D912D913C91AEE1B1E0AD90E3
:10283000BB24A0E5B2E0AA0CBB1CAA0CBB1CAA0DD1
:10284000BB1D0D931D932D933C93EEE1F1E0A19000
:10285000BB24EEEFFFEFAA0CBB1CAA0CBB1CEA0DBD
:10286000FB1DA5E2B1E094E07BE70E94A42080E09C
:102870008093F901A0E3B1E0E4E2F8E40E94B11E24
:102880000E94421EEEE1F1E0A0E3B1E00E949C1A3A
:102890000E94E01FA0E3B1E00E949C1AE8E9F7E47F
:1028A0000E94B11E0E94421EEEE1F1E0A190BB2405
:1028B000E0E5F2E0AA0CBB1CAA0CBB1CEA0DFB1D58
:1028C000A0E3B1E00E949C1A0E94D31F0C946B14E9
:1028D00083E08093F9010C94701484E08093F901F3
:1028E0000C946E17EAE3F8E40E94B11E0E94D22015
:1028F00011F00C94091500912D03033011F00C9484
:102900000415A3E4B3E00E942520AEE1B1E00C93EE
:1029100000911E01003080E010F009F081E08F93FB
:1029200000911E01073081E008F080E09F9189232B
:10293000882311F40C94FF14A8E5B3E00E9425202D
:10294000A5E2B1E00D931D932D933D93A5E2B1E077
:102950000D911D912D913C91AEE1B1E0AD90BB2464
:10296000A8E6B2E0AA0CBB1CAA0CBB1CAA0DBB1D9E
:102970000D931D932D933C93EEE1F1E0A190BB24C8
:10298000E6E1F0E0AA0CBB1CAA0CBB1CEA0DFB1D87
:10299000A5E2B1E094E07BE70E94A42080E0809370
:1029A000F901A0E3B1E0E4E2F8E40E94B11E0E9464
:1029B000421EEEE1F1E0A0E3B1E00E949C1A0E9409
:1029C000E01FA0E3B1E00E949C1AE8E9F7E40E944E
:1029D000B11E0E94421EEEE1F1E0A190BB24E8E6A8
:1029E000F2E0AA0CBB1CAA0CBB1CEA0DFB1DA0E369
:1029F000B1E00E949C1A0E94D31F0C94021583E040
:102A00008093F9010C94071584E08093F9010C94EC
:102A10006E17E2E4F8E40E94B11E0E94D22011F089
:102A20000C946E1500912D03023011F00C94691571
:102A3000A3E4B3E00E942520AEE1B1E00C93009145
:102A40001E01003080E010F009F081E08F930091CA
:102A50001E01073081E008F080E09F9189238823E0
:102A600011F40C946415A0E3B1E0EAE4F8E40E94E8
:102A7000B11E0E94421EEEE1F1E0A0E3B1E00E942F
:102A80009C1A0E94E01FA0E3B1E00E949C1AE8E9B2
:102A9000F7E40E94B11E0E94421EEEE1F1E0A19017
:102AA000BB24E0E5F2E0AA0CBB1CAA0CBB1CEA0D9F
:102AB000FB1DA0E3B1E00E949C1A0E94D31F80E09E
:102AC0008093F9010C94671583E08093F9010C94CD
:102AD0006C1584E08093F9010C946E17E2E5F8E43C
:102AE0000E94B11E0E94D22011F00C94D3150091C7
:102AF0002D03023011F00C94CE15A3E4B3E00E9434
:102B00002520AEE1B1E00C9300911E01003080E081
:102B100010F009F081E08F9300911E01073081E0F1
:102B200008F080E09F918923882311F40C94C91543
:102B3000A0E3B1E0EAE5F8E40E94B11E0E94421E63
:102B4000EEE1F1E0A0E3B1E00E949C1A0E94E01FD8
:102B5000A0E3B1E00E949C1AE8E9F7E40E94B11EEC
:102B60000E94421EEEE1F1E0A190BB24E8E6F2E013
:102B7000AA0CBB1CAA0CBB1CEA0DFB1DA0E3B1E018
:102B80000E949C1A0E94D31F80E08093F9010C944C
:102B9000CC1583E08093F9010C94D11584E08093E7
:102BA000F9010C946E17E6E6F8E40E94B11E0E944B
:102BB000D22011F00C94401600912D03023011F038
:102BC0000C943B16A3E4B3E00E942520AEE1B1E0F3
:102BD0000C9300911E01003080E010F009F081E0BC
:102BE0008F9300911E01073081E008F080E09F91F3
:102BF0008923882311F40C94361680E08093F90120
:102C000000911E0141E0041BA9E1B1E00C93809109
:102C10001901AAE2B3E00E949C1E0E94921E9C91A0
:102C2000982B9C93A0E3B1E0EEE6F8E40E94B11E7D
:102C30000E94421EEEE1F1E0A0E3B1E00E949C1A86
:102C40000E94E01FA0E3B1E00E949C1AE4E9F5E4D1
:102C50000E94B11E0E94421EA0E3B1E00E949C1A95
:102C6000EAE2F3E00E946D200C94391683E0809331
:102C7000F9010C943E1684E08093F9010C946E17D0
:102C8000E2E8F8E40E94B11E0E94D22011F00C94F8
:102C9000771600912D03023011F00C94721680E02B
:102CA0008093F901A3E4B3E00E942520A0E4B2E000
:102CB0000C93E0E0F0E0A0E4B2E07BE70E94A1200A
:102CC000A0E3B1E0EAE8F8E40E94B11E0E94421ECF
:102CD000E0E4F2E0A0E3B1E00E949C1A0E94E01F51
:102CE0000C94751684E08093F9010C946E17E0EA59
:102CF000F8E40E94B11E0E94D22011F00C949516A7
:102D000080E08093F901A0E3B1E0E6E9F5E40E94F8
:102D1000B11E0E94421EE0E4F2E0A0E3B1E00E9496
:102D20009C1A0E94E01F0C946E17E8EAF8E40E94D7
:102D3000B11E0E94D22011F00C94BF1680E0809347
:102D4000F9010E94A304A0E3B1E0E0EBF8E40E94E3
:102D5000B11E0E94421EE4E8F2E0A0E3B1E00E944E
:102D60009C1A0E948020A0E3B1E00E949C1AE2E835
:102D7000F5E40E94B11E0E94421E0C946E17EAEB0D
:102D8000F8E40E94B11E0E94D22011F00C94131797
:102D900000912D03023011F00C940E1780E0809307
:102DA000F901A3E4B3E00E942520A9E1B1E00C936E
:102DB00000911901003080E010F009F081E08F935C
:102DC000009119010F3F81E008F080E09F91892375
:102DD000882311F40C940917809119018093410202
:102DE000E1E0F0E0A1E4B2E07BE70E94A120A0E3F3
:102DF000B1E0E2ECF8E40E94B11E0E94421EE1E460
:102E0000F2E0A0E3B1E00E949C1A0E94E01F0C9443
:102E10000C1785E08093F9010C94111784E08093DE
:102E2000F9010C946E17EAEDF8E40E94B11E0E94BD
:102E3000D22011F00C94311780E08093F901A0E3C7
:102E4000B1E0E2EEF8E40E94B11E0E94421EE1E40D
:102E5000F2E0A0E3B1E00E949C1A0E94E01F0C94F3
:102E60006E17ECEEF8E40E94B11E0E94D22011F021
:102E70000C946B1700912D03023011F00C9466171F
:102E800080E08093F901A3E4B3E00E942520A9E14A
:102E9000B1E00C9300911901003011F00C945B1714
:102EA000A0E3B1E0E4EFF8E40E94B11E0E94421EEC
:102EB0002F980C946417A0E3B1E0E0E0F9E40E94DD
:102EC000B11E0E94421E2F9A0C94691784E08093D1
:102ED000F9010C946E1781E08093F9010C94E917C5
:102EE000EEE2F3E0A9E2B1E00E948020E9E2F1E045
:102EF000A9E2B1E00E94861EA9E2B1E0E6EEF6E4A6
:102F00000E94B11E0E94D22011F00C949117709172
:102F1000470270687093470280E08093F9010C9437
:102F2000E917EAEEF6E40E94B11E0E94D22011F0E9
:102F30000C94A417709147027F777093470280E04A
:102F40008093F9010C94E917EEEEF6E40E94B11EAD
:102F50000E94D22011F00C94C51770912C0370645C
:102F600070932C03E3E4F3E0A2ECB6E00E9480202F
:102F7000E6EFF6E40E94B11E0E94AB1A0E94B21A5C
:102F800080E08093F9010C94E917E2E0F7E40E94F5
:102F9000B11E0E94D22011F00C94E61770912C0300
:102FA000706470932C03E3E4F3E0A2ECB6E00E94BB
:102FB0008020E6EFF6E40E94B11E0E94AB1A0E9448
:102FC000B21A80E08093F9010C94E91782E08093B3
:102FD000F9010091F901003018F011F00C94F2178A
:102FE0000C940018EAE1F0E30E94B11EA9EFB1E0F1
:102FF0008C9199270E947E1EA0E3B1E00E94421EA0
:10300000A0E3B1E00E94A51A0E94B21A0895001030
:103010000E10AE102E103E10A0114F4B00436F6DDE
:10302000616E646F206E6F207265636F6E6F63698F
:10303000646F004C6F6E676974756420636F6D61B7
:103040006E646F206E6F2076616C696461004E75EE
:103050006D65726F20646520706172616D65747258
:103060006F206E6F2076616C69646F004E756D65C0
:10307000726F20646520706172616D6574726F7328
:1030800020696E76616C69646F004572726F7220A0
:103090006C6F6E676974756420706172616D6574C0
:1030A000726F2031004572726F72206C6F6E6769AB
:1030B00074756420706172616D6574726F20320086
:1030C000506172616D6574726F206E6F2076616CF5
:1030D00069646F004552524F5238004552524F5268
:1030E0002053442E20496E74656E746520646520FB
:1030F0006E7565766F00000000000300000033006D
:10310000000033030000333300003333030033C0C7
:103110000C00FF0FFF0F5555555533333333777779
:1031200077770C00FCFFCC00FCFFCC0CFCFFCCCC78
:10313000FCFF0C00FCFFF0FFFFFF0E945003EAE0E1
:10314000F9E40E94B11E0E94AB1A0E94B21A82E0FA
:1031500080931903ACE2B3E08C9186FB16F00C94DB
:10316000C41870912C037F7B70932C03E4E9F6E480
:103170000E94B11E0E94AB1AA2ECB6E00E94A51AF2
:103180000E94B21A0E94831100912B03013011F0AA
:103190000C941E1970912B037E7F70932B03ABE16F
:1031A000B3E08C918F5F8C93ABE1B3E00C9145E081
:1031B0000E94BC208C9300911B03003011F00C94F2
:1031C0001E19A0E3B1E0E0E2F9E40E94B11E0E9402
:1031D000421EA0E3B1E00E94CC20AFE1B1E08D93AC
:1031E00088278C93AFE1B1E0ED91FC91A0E3B1E0D1
:1031F0000E940A21A2E4B2E00D931D932D933D930A
:10320000A0E3B1E00E949C1AEEEAF6E40E94B11E2F
:103210000E94421EE2E4F2E0A0E3B1E00E949C1AA8
:103220000E945820EAE9F6E40E94B11E0E94AB1AFF
:10323000A0E3B1E00E94A51A0E94B21AA7E4B2E08E
:103240008C9185FB16F00C94AA1881E080931903E9
:10325000ACE2B3E08C9186FB16F00C9442197091AD
:103260002C037F7B70932C03E4E9F6E40E94B11EEB
:103270000E94AB1AA2ECB6E00E94A51A0E94B21AF4
:103280000E94831181E080931C0100911C01063093
:1032900018F011F00C94CC1900911C0141E0041BB2
:1032A000ADE1B1E00C9380911D01AAE2B3E00E9470
:1032B0009C1E0E94921E0C900822689409F4E894C7
:1032C00016F00C94C41980911D01AAE2B3E00E948B
:1032D0009C1E0E94921E8C9189238C9300911C014C
:1032E000013011F00C948019E8E2F9E40E94B11E5B
:1032F0000E94AB1A0E94B21A0E94220C0C94C419AC
:10330000023011F00C949019EEE2F9E40E94B11E23
:103310000E94AB1A0E94B21A0E94520D0C94C4195A
:10332000033011F00C949E19E4E3F9E40E94B11EFD
:103330000E94AB1A0E94B21A0C94C419043011F006
:103340000C94A6190E94A4050C94C419053011F020
:103350000C94B619EAE3F9E40E94B11E0E94AB1A7C
:103360000E94B21A0E94D20E0C94C419063011F0B9
:103370000C94C419E0E4F9E40E94B11E0E94AB1A57
:103380000E94B21A0E942610ACE1B1E08C918F5FCE
:103390008C9310F40C944519A7E4B2E08C9183FB54
:1033A00016F00C94DA1970914702777F70934702F8
:1033B0000E9443061D990C94191A0027A3E2B0E05D
:1033C0008C9185FB00F94427A7E4B2E08C9186FB41
:1033D00040F9041711F40C94171A8AE090E00E9447
:1033E000231B1D990C94171AE6E4F9E40E94B11E00
:1033F0000E94AB1AA3E2B0E08C9185FBA0E8BFE38A
:103400000E94A21E8D9388278C930E94A31A0E946B
:10341000B21AA3E2B0E08C9185FBA7E4B2E08C91F4
:1034200086F98C9370912A03706270932A030C942E
:10343000531A0027A3E2B0E08C9185FB00F94427E2
:10344000A7E4B2E08C9186FB40F9041711F40C94C8
:10345000531A8AE090E00E94231B1D9B0C94531A80
:10346000E6E4F9E40E94B11E0E94AB1AA3E2B0E0C8
:103470008C9185FBA0E8BFE30E94A21E8D93882754
:103480008C930E94A31A0E94B21AA3E2B0E08C911E
:1034900085FBA7E4B2E08C9186F98C9370912A03A6
:1034A000706270932A030C942819ED91FC91EF5FE0
:1034B000FF4FFC93EE93089509D00E94151E00FC67
:1034C00010D0089503D01ED001F8F9CF0024E8945D
:1034D00057FF02C009D0689400F80BD010F80124FF
:1034E000089502D009D00895509540954F5F5F4FE1
:1034F0000895E89417FF0895009510950F5F1F4FEA
:1035000068940895352F242FE894452B11F468947E
:103510000895512F402F0027112780E1440F551F98
:10352000001F111F021B130B416018F4020F131F21
:103530004E7F8A9599F708958F938D918823E9F7A7
:1035400011978F910895A0E8BFE38D91882311F022
:103550000CD0FBCF08950E94481E802D11F005D09D
:10356000FACF08958DE001D08AE00090C00005FEFA
:10357000FCCF8093C60008950090C80005FEFCCFE4
:103580008093CE00089500FC05D0089530D005D07A
:1035900001F8F9CF37D03FD00895842F952FA62F6B
:1035A000B72FE894452B462B472B11F468940895C8
:1035B000402F512F622F732F0027112722273327E7
:1035C000F0E2440F551F661F771F001F111F221FB7
:1035D000331F081B190B2A0B3B0B416028F4080F03
:1035E000191F2A1F3B1F4E7FFA9559F70895002493
:1035F000E89477FF02C006D0689400F809D010F86C
:103600000124089512D04F5F5F4F6F4F7F4F089591
:10361000E89437FF089500951095209530950F5F39
:103620001F4F2F4F3F4F68940895409550956095D8
:10363000709508953197F1F70895689462F80895A8
:10364000E89462F80895EF93FF93EE27E82BE92BB7
:1036500031F0E0EAFFE03197F1F70197D1F7FF9100
:10366000EF9108958DE207FD8D938F2D881F802F98
:10367000881F8F57082F6894F7F8802F87FF17C08F
:1036800080958395082F80E38D938EE28D93802F14
:10369000815238F080E38D9399279C930E94A61E57
:1036A000089544270A95802F09F19ED01FC08052AB
:1036B00030F09EE49D9381E48D939D93EDCF44275C
:1036C000DF92EF92FF920F938FE1801B11F0082F92
:1036D0008BD091D09EE29D930F91FF90EF90DF9061
:1036E00044270395003209F4D5CF33D03F93E8E85F
:1036F000F7E30E94B11E38E12F2D1E2D0D2DFF2462
:10370000EE24DD244427000F111F221FB8F42F924E
:103710003F920E94481E102C0E94481E202C0E949E
:10372000481E302C0E94481E31970E94771E410D82
:10373000D21CE31CF01C3F902F9003C033960E94D4
:10374000701E31960E94701E3A95E9F63F9107D09F
:10375000A5CFDD0CEE1CFF1C0A95D9F708950027B4
:1037600019E058D08F93802B11F0039501C08F91F1
:103770001A95B9F7802F882309F48CCF8F91805D3B
:103780008D930A95D9F788CF0065CD1D80B2E60EDE
:1037900040597307A0ACB90350D6DC01286BEE008A
:1037A00094357700CA9A3B0065CD1D00B2E60E0045
:1037B00059730700ACB90300D6DC01006BEE0000C2
:1037C000357700009A3B0000CD1D0000E60E00009A
:1037D00073070000B9030000DC010000EE000000E8
:1037E000770000003B000000F694E794D7944795DB
:1037F0000A95D1F7089500270DD08F9303958F2D4B
:103800008E298D29842BC1F78F91805D8D930A9528
:10381000D9F742CF1F930F93002710E2440FDD1C0E
:10382000EE1CFF1C001F802F9AE0890B10F0082F60
:1038300043951A9599F7802F0F911F9108950827A6
:1038400048E01695079510F4122701254A95C9F707
:10385000089531E005C032E003C033E001C034E038
:103860000FEF1FEF20EA91E0192EE9DF46D0899192
:10387000682FE5DF42D08991E2DF3FD08991DFDF19
:103880003CD05991613078F0653068F48827D7DFF3
:1038900034D0852F869509F481E0D1DF2ED0802F9A
:1038A0002CD0812F2AC0663041F49D918C91C7DFC6
:1038B00024D0892FC4DF21D0F2CF6031E9F48827EA
:1038C000BEDF1BD0852F869509F481E0682FB7DF16
:1038D00014D0862F880FB3DF10D0513019F4882709
:1038E0009D9102C09D918D91AADF07D0892FA7DFFE
:1038F00004D06A95B9F7D3CF0895313011F40C9400
:10390000B51A323011F40C94BC1A0895A6E0B1E057
:10391000E3E0F1E00E94D31C33970C94AF1CE6E087
:10392000F1E0A3E0B1E00C94C11CEFE0F1E0A0E015
:10393000B1E00C949D1CADE0BB27868197810E946D
:10394000C21E0D93838194810E94C21E0D938081BB
:1039500091810E94C21E0D930895EDE0FF278281A0
:103960000E94B71E8AE38D9381810E94B71E8AE36D
:103970008D9380810E94B71E88278C930895ADE0B7
:10398000BB27808191810E94C21E0D938381948107
:103990000E94C21E0D93868197810E94C21E0D93C4
:1039A0000895EDE0FF2780810E94B71E8FE28D937E
:1039B00081810E94B71E8FE28D9382810E94B71E83
:1039C00088278D93089521D00F2D069506950F0D0C
:1039D0000D0D8F2D837021F41E2D13300AF40A95DE
:1039E0008E2D8A959927EEEFF9E30E94B11EA8E18A
:1039F000BB270E94641E080F47E00C94BC20050101
:103A00000104060204000305010393E0ADE002C0D7
:103A100096E0AAE0B0E08FB7F89401910D939A95E3
:103A2000E1F78FBF08950191119145EB55E00E9498
:103A3000621A440F440FF42E0F31150728F481E069
:103A4000E82E0395D02E24C00C33150728F482E00D
:103A5000E82E0E51D02E1CC00150150B4DE651E042
:103A60000E94821AF40E7CE07A95872F9927E2E96A
:103A7000FAE30E94B11EA2E1BB270E945E1E02175C
:103A8000130790F37395E72E021B130B0395D02EAB
:103A9000089500001F003B005A0078009700B50011
:103AA000D400F300110130014E01019111912191D7
:103AB000308140E851E561E070E00E94C61A042FB1
:103AC000152F0C94151DA1DF0E2D0A95802F029540
:103AD000003220F01F2D137009F40395DA940D0DB8
:103AE00011279927EAEFFAE30E94B11EA8E1BB274C
:103AF0000E94641E080F111F0895000F1B2A3847EB
:103B000055647381909E81DF0F2D11274CE355275B
:103B10000E945C1A55270E0D151F4CE322273327F0
:103B2000662777270E941F1E0D0D131F231F089560
:103B30006CDFDF92EF92FF920F2D112722273327A0
:103B40004DE651E060E070E00E941F1EFF904F2D97
:103B50004D5F469546955527662777270E94B31FE8
:103B6000EF90DF900F931F932F933F930E94641D5C
:103B7000222733277F916F915F914F910C94B31F50
:103B800047DFAF92BF92CF920E94991D40E851E566
:103B900061E070E00E941F1EFF90EF90DF900F9396
:103BA0001F932F933F930E94841D7F916F915F918C
:103BB0004F910C94B31F019111912191308140E8F4
:103BC00051E561E070E00E94C61A0C94EB1D019172
:103BD00011912191308140E15EE060E070E00E944F
:103BE000C61AF42E4CE350E00E94621AE42ED02E46
:103BF0000895AF93BF930E94DB1DBF91AF910C94CA
:103C0000AD1CAF93BF930E94551DBF91AF910C9413
:103C1000D11C41E2FF2747BF849108950191119182
:103C2000219130810895015010400F92B801469FB4
:103C30008001479F100D569F100D0F9008950F9211
:103C40001F922F92C801D901489F80014A9F90017D
:103C50004B9F202C499F100D211D321D5A9F202C57
:103C6000589F100D211D321D599F200D311D689F39
:103C7000200D311D699F300D789F300D2F901F90C2
:103C80000F9008950E94481E0D920020D9F70895C4
:103C9000D895319628F48F938BB783958BBF8F91EE
:103CA0000020089591E005C092E003C094E001C0B7
:103CB00098E0EEDF0D929A95E1F70895880F991F2D
:103CC000E80FF91F0DD0F0CFE80FF91F09D0EACFA8
:103CD000880F991F880F991FE80FF91F01D0E6CFB1
:103CE00028F48F938BB783958BBF8F91089528F419
:103CF0008F938BB78A958BBF8F910895019601970B
:103D000021F00E94481EE9F7FACF0895819104D06E
:103D10008D938823D9F70895813618F08B3708F4EE
:103D20008F7D089591E0882321F08894991F8A95CA
:103D3000E9F7892F90950895883018F011968850EA
:103D4000FBCF089580E30EF4839508950F9200242D
:103D50000BBE0F9008950F9301E00BBF0F91889455
:103D600008950F930027F9CF0F9302E0F6CF0027B5
:103D70008A3018F08A500395FBCF005D0D93805D6B
:103D80008D930895805390530027813018F0065F7B
:103D90008A95FBCF090F0895AF93BF930F939F931D
:103DA0008F938FB78F93A0E0B1E08C9183958D9323
:103DB0008C3309F03DC088278E9311968C918395A2
:103DC0008D938C3309F034C088278E9311968C9193
:103DD00083958D93883161F588278E9311968C9108
:103DE00083958D939C910EE1943089F0963079F013
:103DF000993069F09B3059F00CE1923039F411960A
:103E00009C911197937019F4039501C00FE18017ED
:103E100078F071F081E08E9311968C9183958D935B
:103E20008D3031F481E08E9311968C9183958C9333
:103E30008F918FBF8F919F910F91BF91AF910F92F3
:103E40001F922F923F924F925F927F92AF92BF92BA
:103E50000F931F932F933F934F935F936F937F9392
:103E60008F939F93AF93BF93CF93DF93EF93FF9382
:103E70009FB79F939BB79F9399279BBF0E94D102A7
:103E80009F919BBF9F919FBFFF91EF91DF91CF913A
:103E9000BF91AF919F918F917F916F915F914F9162
:103EA0003F912F911F910F91BF90AF907F905F90A6
:103EB0004F903F902F901F900F90189599278D91BC
:103EC00093958823E1F7939511968C9311978E9192
:103ED0009A95D1F70895EA2FFB2F00244C918D91EC
:103EE00003948E32E1F711248D9113948823E1F726
:103EF0001A94101640F41197202F2119239580E36E
:103F00008D932A95E9F7113039F59927AE2FBF2FF8
:103F1000A00DB91FA00FB91F8C919C93853308F495
:103F200021C031E08E918E32E9F38D3241F0830F62
:103F30008A3319F480E331E001C033278C93AE1744
:103F400089F7332341F0AE2FBF2FB8DF81E34D3225
:103F500009F43196808308958827E00DF81FE00F5B
:103F6000F81F80830895040F151F261F371F08951B
:103F7000041B150B260B370B08950417150726078E
:103F800037070895000F111F221F331F0895009552
:103F90001095209530950F5F1F4F2F4F3F4F08957D
:103FA000019110810FC00E940E1E0EC00E940E1EB5
:103FB00010C00191108117FF05C03FEF2FEF04C023
:103FC000008111272227332737FF03C0E0DF8DE26E
:103FD0008D93CF92DF92EF92AA24BB24CC24DD24D0
:103FE000EE2440E2EAE0FF2755E093E38081890F69
:103FF00087FD9F7083FD907F891B81935A95A9F758
:10400000C1DFAA1CBB1CCC1CDD1CEE1C4A9551F761
:10401000E894EFE0FF2782910BD0EB30E0F71EF041
:1040200068948A2D09D04D93EF90DF90CF9008953A
:10403000982F829501D0892F8F70805D26F0803374
:1040400009F4089568948D93089500271127222775
:1040500033271DD08A3328F4803318F005D015D0CB
:10406000F9CF0EF494CF089580538F93402F512FA2
:10407000622F732F87DF86DF76DF84DF8F919927AA
:10408000080F191F291F391F08958D910895E8946D
:10409000FCDF8032E9F38B32D9F38930C9F38D32FA
:1040A00011F46894F2CF089541E003C042E001C0EA
:1040B00044E0E40F8827F81F8291982F829506D05C
:1040C000892F04D04A95C1F70C947D208F708A30D7
:1040D00008F0895F805D8D93089541E0E40F8827A3
:1040E000F81F829138E098E1880F991F9D933A95C7
:1040F000D1F74A95B1F70C947D2088278D930895C8
:1041000081918D938823E1F7089594E081918D93B7
:104110009A95E1F7089509919191992359F08A951B
:10412000D9F73197002331F081918D930A95882337
:10413000C9F70895E2CFF999FECFE1BDF2BD3196FE
:10414000089591E001C092E07B3751F47FB7F89475
:10415000F2DF8D9180BDFA9AF99A9A95C9F77FBFDF
:104160007727089591E001C092E0E5DFF89A80B5E5
:104170008D939A95D1F70895FF93881BF9E0001F5E
:10418000FA9511F4FF910895881F841B18F4840F89
:104190008894F5CF0894F3CF8FEF83959D91992361
:1041A000E1F70895689401C0E894AF93BF938D91AF
:1041B00016F0919103C00E94481E902D891718F0A7
:1041C00011F48823A1F7BF91AF9108950D919981C2
:1041D000903009F013D0502788E0440F551F10F499
:1041E000422753278A95C9F7319781F78991999189
:1041F000803019F08A0105D0A801089588E01127C0
:1042000001C080E1080116940794001F111F8A95D0
:10421000D1F708950FEF1FEF2FEF3FEF60E273E844
:1042200088EB9DEE0D90002548E088943795279502
:104230001795079520F406271727282739274A9529
:10424000A1F7319779F7009510952095309508954D
:10425000689401C0E8942227102F231709F40895C9
:1042600026F40E94481E802D01C08191803081F08B
:10427000891741F070E08D931A9591F7239571E0BD
:104280001D93EACF01D0E8CF703011F07727089561
:10429000772331F42395882713958D931A95E9F7A1
:1042A0000895B7FE089590E8B91611F4D0FE089568
:1042B0009FEFD91AE90AF90A09F403950895D190F4
:1042C000E190F190019108952191319141915191A5
:1042D0000895DD92ED92FD920C930895502F2D2DAF
:1042E0003E2D4F2D612F0895652F90E8440F551FE7
:1042F0005927990F47956078102F90E8FF0C001F01
:104300000927990FF794107800380895FF0C90E86A
:104310009027110F9795F794092F08951127BD2C19
:10432000DE2CEF2CF02E0EE1FF2039F4FE2CED2CCC
:10433000DB2CBB240850C2F775C032F00A95BB0CC9
:10434000DD1CEE1CFF1CF9CFACDFE0CF102FBD2C25
:10435000DE2CEF2CF02E11234AF4B094D094E0948C
:10436000F0949FEFB91AD90AE90AF90A0EE1FF2081
:1043700039F4FE2CED2CDB2CBB240850C2F752C0C4
:1043800032F00A95BB0CDD1CEE1CFF1CF9CF89DF57
:10439000BDCF2DEC3CEC4CEC5DE366270FC08FDF0E
:1043A0009DDFDD24EE2490E8F92E0FE307C08CDFBB
:1043B00005C02227332740E251E46627552351F1F7
:1043C000002381F191DF71F11627005850580894AD
:1043D000050B18F407FD03C025C007FD23C0469553
:1043E00037952795F694E794D79425D0FF202AF0A7
:1043F000DD0CEE1CFF1C015073F09D2D969548F0CE
:10440000DD203AF4EE202AF491E0D90E9927E91E36
:10441000F91E7CCF07C09FE7092FF92A9FEFD92EFD
:10442000E92E0895DD24EE24FF24002711270895A6
:104430000FE79FEFF2CF9F929924AA24BB2488E133
:10444000D216E306F40628F0D21AE30AF40A089416
:1044500001C08894991CAA1CBB1CDD0CEE1CFF1C1F
:104460008A9571F7D92CEA2CFB2C9F9008953CDF9C
:10447000D9F05038C9F016270058952F9058089455
:10448000091F12F418F40EC008F00EC00FD0FF2060
:104490002AF0BB0CDD1CEE1CFF1C02C0039513F0C0
:1044A00000DF34CF0C940B220C9412229F92FF92C7
:1044B000EF928D2DFF24EE24DD24BB2493E0849F16
:1044C0001001829FB00CD11CE21CF31C839FD00C06
:1044D000E11C2224F21C9A9531F0BD2CDE2CEF2C2D
:1044E000FF248F91ECCF9F9008950E94481E202DAD
:1044F0000E94481E302D0E94481E402D0E94481EDA
:10450000502D089500007A440000C84230372F3003
:10451000312F3235000031313A32383A3030000034
:104520002A2A2A2A2A2A2A2A2A2A2A2A20454D459C
:104530005445522032303235202A2A2A2A2A2A2A61
:104540002A2A2A2A2A0033302D31322D32303235B0
:104550002031333A32303A343900302E302E313374
:104560003100454D455445522E424153000041759E
:1045700074003D002C204F46460049447365723C50
:1045800000003E00556C74696D6120414354434CFA
:104590004B2000002C00454E414255473D00494408
:1045A000536C6176653E0000434E5452696E693D1E
:1045B00000005472792000005074723D00002C20DD
:1045C000416464723D00545820005054524D44429E
:1045D0003D00563366733D0056613D0056623D0016
:1045E00056633D004933733D000049613D00496217
:1045F0003D0049633D0045616733733D00004561FF
:10460000673D00004562673D00004563673D00006F
:1046100050777233733D0000507772613D005077E0
:1046200072623D00507772633D00456133733D0017
:10463000457233733D00667265633D0043543D002F
:1046400056543D00507472206E6F2076616C0000ED
:10465000524547204D4442204445433D00002C2014
:104660004845583D00002C204445433D000043523E
:1046700043206661696C20656E20414444523D00D0
:104680004573706572612052504920005250497440
:10469000783E0000534552313D00240054584155A6
:1046A0005431203B0000412C00002D310000260039
:1046B000545841555434203B00002D3200005458CA
:1046C00041555435203B00002D3500002C2C2C008A
:1046D000545841555436203B00002D3600002C2CF8
:1046E0002C2C2C2C00004F4B0000455252005345FF
:1046F000544D424400004E4557204D444320434D05
:10470000440053455444414100004E6F20636D64A2
:104710002076616C00004C454556465700005665B2
:104720007273696F6E2046573A2046656368612050
:104730003C0033302D31322D323032352031333A96
:1047400032303A3530003E2C204172636869766F12
:10475000203C00005345544C454400005365206301
:104760006F6E666967757261207365746C6564202D
:1047700061200000525354564152000056616C6F44
:1047800072657320706F722064656661756C740069
:10479000534554434C4B00003A00543E00002F0058
:1047A000443E00005741544348494E4720494E4635
:1047B0004F524D412E20536520636F6E66696775B9
:1047C000726F2072656C6F6A20656E200000206138
:1047D0002000534953434C4B0000486F72612061E5
:1047E000637475616C3D00002C2046656368612030
:1047F00061637475616C3D004C4545434C4B000052
:10480000556C74696D612041435420434C4B2061C9
:10481000203D00002C2064656C200000534554416D
:1048200055540000536520636F6E66696775726F3B
:10483000207478204155542000005345544F46467B
:1048400000004C4545415554000054782041757492
:1048500020004C45454F464600004F666673657420
:104860002041757420005345544E45570000536550
:104870002061637469766F2054782E20415554204E
:1048800000005345544255470000536520636F6E46
:1048900066696775726F20454E414255473D00007D
:1048A0004C454542554700004C454552494400009F
:1048B000494420736572203C0000534554444952DA
:1048C0000000536520636F6E66696775726F2049DB
:1048D00044736C617665206120004C454544495223
:1048E00000004944736C617665203D005345545285
:1048F000454C000052455345542072656C650000DC
:104900005345542072656C65000045737065726193
:1049100020434C4B2064656C2053657276657200B1
:10492000414354434C4B0000415554310000415524
:1049300054320000415554330000415554350000B5
:10494000415554360000537075657274613D000026
:00000001FF
