:100000000C94460018950000189500001895000003
:10001000189500001895000018950000189500002C
:100020001895000018950000189500000C943E20CB
:10003000189500001895000018950000189500000C
:1000400018950000189500000C94F7011895000011
:100050000C94BB001895000018950000189500003E
:1000600018950000189500001895000018950000DC
:100070000C949E011895000018950000189500003A
:100080001895000018950000189500008FEF8DBF9F
:10009000C0E8E8E94E2E80E48EBFD0E4FFE35F2E97
:1000A000A89584B7082E882784BF88E19927809374
:1000B000600090936000EEEFFFE3A0E0B1E08827DE
:1000C0008D933197E9F787E68093C40080E08093B1
:1000D000C50088E18093C1006624209A25982D9A56
:1000E000279A2F9885E085BD80E084BD70916E00D1
:1000F000716070936E0085E085BD80E28093B600EC
:1001000085E08093B1007091700071607093700011
:10011000A6E0B1E0EAEEF7E40E9423200E94B41FBB
:100120000E94011EAFE0B1E0E4EFF7E40E9423205B
:100130000E94B41F0E94071E7091C10070687093E6
:10014000C10083E38093CC0080E08093CD00709168
:10015000C8007D7F7093C80087E08093CA0088E163
:100160008093C900229A7091C90070687093C90089
:1001700078940C9488190F921F922F923F924F926D
:100180005F927F92AF92BF920F931F932F933F93F3
:100190004F935F936F937F938F939F93AF93BF938F
:1001A000CF93DF93EF93FF939FB79F939BB79F935B
:1001B00099279BBFA1ECB6E08091C6008C9384E2A6
:1001C000482F0091C106041711F00C94F2007091B1
:1001D0002C03706870932C03A8EFB5E088278C93EC
:1001E0000C94800185E2482F041711F00C94030150
:1001F00070912C03706270932C03ACE8B7E08827F1
:100200008C930C9480010D3011F00C944701ACE2FA
:10021000B3E08C9187FB16F00C94260170912C03AF
:100220007F7770932C0380E0A8EFB5E00E940E1C4E
:100230008D9388278C93E8EFF5E0A2ECB6E00E945E
:10024000F22170912C03706470932C03ACE2B3E044
:100250008C9185FB16F00C94450170912C037F7DE9
:1002600070932C0380E0ACE8B7E00E940E1C8D93E5
:1002700088278C93ECE8F7E0A9E1B8E00E94F2212E
:1002800070912C03706170932C030C9480010F31DA
:1002900018F011F00C944E010C948001ACE2B3E024
:1002A0008C9187FB16F00C945F01A1ECB6E08C9169
:1002B000A8EFB5E00E940E1C8D9388278C93ACE2CA
:1002C000B3E08C9185FB16F00C948001A1ECB6E0B4
:1002D0008C91ACE8B7E00E940E1C8D9388278C931C
:1002E000ACE8B7E00E943E22082F0C3818F011F05D
:1002F0000C947C010C948001ACE8B7E088278C93C7
:100300009F919BBF9F919FBFFF91EF91DF91CF91F5
:10031000BF91AF919F918F917F916F915F914F911D
:100320003F912F911F910F91BF90AF907F905F9061
:100330004F903F902F901F900F9018950F921F9203
:100340002F923F924F925F927F92AF92BF920F9304
:100350001F932F933F934F935F936F937F938F934D
:100360009F93AF93BF93CF93DF93EF93FF939FB789
:100370009F939BB79F9399279BBFA6EAB8E0809174
:10038000CE008C93ACE2B3E08C9183FB16F00C941E
:10039000D901A8EBB2E08C918F5F8C938091A60875
:1003A000A8EBB2E0AD90BB24A6EAB8E0AA0DBB1D55
:1003B0008C939F919BBF9F919FBFFF91EF91DF9186
:1003C000CF91BF91AF919F918F917F916F915F91ED
:1003D0004F913F912F911F910F91BF90AF907F90C0
:1003E0005F904F903F902F901F900F9018950F9215
:1003F0001F922F923F924F925F927F92AF92BF9245
:100400000F931F932F933F934F935F936F937F931C
:100410008F939F93AF93BF93CF93DF93EF93FF930C
:100420009FB79F939BB79F9399279BBF74E676BD19
:10043000A3E1B3E08C918F5F8C93A3E1B3E00C91C7
:1004400048E00E942E228C9300911303003011F09B
:100450000C946302A4E1B3E00C9140E20E942E22CE
:100460008C93ECECF2E30E942320A9E1B3E08C91A1
:100470009927A5E1B3E00E94DA1F80911403A5E15A
:10048000B3E00E940E200E9404200C900822689481
:1004900009F4E894A7E4B2E08C9182F98C93A7E484
:1004A000B2E08C9194E089278C93A7E4B2E08C9120
:1004B00082FBA5E2B0E08C9180F98C93A4E1B3E0DB
:1004C0008C918F5F8C93ACE2B3E08C9183FB16F040
:1004D0000C948E02A0ECB2E00E94C71BA0ECB2E02C
:1004E0000D911C9140EA50E00E94F41BA0ECB2E098
:1004F0000D931C93A0ECB2E00D911C91003050E0E4
:10050000150711F00C948E0270912C03777F709375
:100510002C0370914702786070934702A7E4B2E021
:100520008C9180FB16F00C94AD02ACE1B3E00E941C
:10053000C71BAEE1B3E04D915C91ACE1B3E00D912E
:100540001C910417150711F00C94AB02709147022F
:100550007260709347020C94B30280E090E0ACE1CB
:10056000B3E08D939C939F919BBF9F919FBFFF9101
:10057000EF91DF91CF91BF91AF919F918F917F913B
:100580006F915F914F913F912F911F910F91BF906C
:10059000AF907F905F904F903F902F901F900F9063
:1005A0001895E0E0F1E00E94321FA2E2B3E00D9363
:1005B0001D932D933D9381E08093200300912003B0
:1005C000063018F011F00C944A030091200341E02A
:1005D000041BA1E2B3E00C93A2E2B3E00D911D91E4
:1005E0002D913C91A0E2B3E0AD90BB24A8E6B2E02F
:1005F000AA0CBB1CAA0CBB1CAA0DBB1D4D915D9186
:100600006D917C910E942A21A6E2B3E00D931D9387
:100610002D933D93A6E2B3E00D911D912D913C9158
:10062000A0E2B3E0AD90BB24A0E5B2E0AA0CBB1CF5
:10063000AA0CBB1CAA0DBB1D4D915D916D917C91C7
:100640000E94381CA6E2B3E00D931D932D933D93B9
:1006500040E050E060E070E0A6E2B3E00D911D9153
:100660002D913C910E942F2111F00C944203809116
:100670002103AAE2B3E00E940E200E9404209C9174
:10068000982B9C93A0E2B3E08C918F5F8C9310F435
:100690000C94DE0270912B03716070932B0308950C
:1006A0002898EEEFF7E40E9423200E941D1C0E9470
:1006B000241CA0E8BFE3E4E2F8E40E9423200E94A7
:1006C000B41F0E94151C0E94241CA0E8BFE3E8E3AD
:1006D000F8E40E9423200E94B41F0E94151C0E946F
:1006E000241CA0E8BFE3E0E4F8E40E9423200E9479
:1006F000B41F0E94151C0E94241C81E080931903E2
:1007000081E08093190100911901063018F011F071
:100710000C941604E9E1F1E0A190BB24EEEFFFEFA9
:10072000AA0CBB1CAA0CBB1CEA0DFB1DA9E1B1E085
:10073000AD90BB24A0E5B2E0AA0CBB1CAA0CBB1C6C
:10074000AA0DBB1D94E00E942722E9E1F1E0A190EF
:10075000BB24E6E1F0E0AA0CBB1CAA0CBB1CEA0D12
:10076000FB1DA9E1B1E0AD90BB24A8E6B2E0AA0C64
:10077000BB1CAA0CBB1CAA0DBB1D94E00E94272227
:10078000ECE4F8E40E9423200E941D1CE9E1F1E062
:10079000A0E8BFE30E9452210E94151CE0E5F8E4A6
:1007A0000E9423200E941D1CE9E1F1E0A190BB24DE
:1007B000E0E5F2E0AA0CBB1CAA0CBB1CEA0DFB1D79
:1007C000A0E8BFE30E9445210E94151CE2E5F8E481
:1007D0000E9423200E941D1CE9E1F1E0A0E8BFE394
:1007E0000E9452210E94151CE0E5F8E40E9423209B
:1007F0000E941D1CE9E1F1E0A190BB24E8E6F2E0D3
:10080000AA0CBB1CAA0CBB1CEA0DFB1DA0E8BFE395
:100810000E9445210E94151C0E94241CA9E1B1E000
:100820008C918F5F8C9310F40C9483030E94A3042B
:10083000E8E5F8E40E9423200E941D1CA4E8B2E031
:100840000E94171CE0E6F8E40E9423200E941D1C71
:100850000E94241CE2E3F0E0A1EBB2E094E00E94ED
:100860002722E2E6F8E40E9423200E941D1CE1EB0F
:10087000F2E0A0E8BFE30E94731F0E94151CE2E7AC
:10088000F8E40E9423200E941D1CE1EBF2E0A0E8A6
:10089000BFE30E946B1F0E94151C0E94241CE0E015
:1008A000F0E0A0E4B2E00E942422E4E7F8E40E9431
:1008B00023200E941D1CE0E4F2E0A0E8BFE30E94B8
:1008C00052210E94151C0E94241CE1E0F0E0A1E4EA
:1008D000B2E00E942422ECE7F8E40E9423200E9468
:1008E0001D1CE1E4F2E0A0E8BFE30E9452210E9457
:1008F000151C0E94241CE6E3F0E0A1E1B3E00E9495
:100900002622A1E1B3E00D911C910F5F1F4FA1E1E1
:10091000B3E00D931C93E6E3F0E0A1E1B3E07BE7E5
:100920000E941522E6E8F8E40E9423200E941D1C84
:10093000E1E1F3E0A0E8BFE30E9442210E94151C20
:100940000E94241C089580E08093190180E0809328
:100950001A01A4E8B2E088278C938EE080931901F5
:1009600000911901073118F011F00C94CE04A9E19F
:10097000B1E0EC91FF270E947B1F082FE0E1F0E03F
:10098000A4E8B2E00E940E1C0E94C621A9E1B1E0D9
:100990008C918F5F8C9310F40C94B004E4E8F2E037
:1009A000A0E3B1E00E94F221A4E8B2E088278C9392
:1009B0008EE08093190100911901073118F011F0B0
:1009C0000C94F904A9E1B1E0EC91FF270E947B1F90
:1009D000082FE0E1F0E0A4E8B2E00E940E1C0E94C3
:1009E000C621A9E1B1E08C918F5F8C9310F40C9437
:1009F000DB04E0E3F1E0A4E8B2E00E94462211F05B
:100A00000C94050581E080931901AAE1B1E08C9175
:100A10008F5F8C9300911901003011F00C94240524
:100A200084EF91E00E94951CE0E9F8E40E94232005
:100A30000E941D1CEAE1F1E0A0E8BFE30E94522100
:100A40000E94151C0E94241C00911901013081E0B4
:100A500009F080E08F9300911A010A3081E009F0DB
:100A600080E09F91892B882311F40C94A9040895A8
:100A700000E010E020E030E0A1E2B1E00D931D9332
:100A80002D933C9381E08093190100911901063068
:100A900018F011F00C948E05E9E1F1E0A190BB246F
:100AA000EEEFFFEFAA0CBB1CAA0CBB1CEA0DFB1D52
:100AB0000CE211E020E030E0A0E1BB2794E07BE70E
:100AC0000E941622E9E1F1E0A190BB24E6E1F0E00A
:100AD000AA0CBB1CAA0CBB1CEA0DFB1DA1E2B1E0D9
:100AE00094E07BE70E941622A1E2B1E00D911D91F6
:100AF0002D913C914CE350E060E070E00E94252194
:100B0000A1E2B1E00D931D932D933D93A9E1B1E0D6
:100B10008C918F5F8C9310F40C944505E1E0F0E02C
:100B2000A0E1BB2781E08C937BE70E941322EEE0DB
:100B3000F0E00AE010E020E030E0A0E1BB2794E024
:100B40007BE70E9416220895A2ECB2E08C918F5FA1
:100B50008C93A2ECB2E00C9146E00E942E228C9382
:100B6000E4EEF1E30E942320A2ECB2E08C919927FD
:100B7000A6EBB2E00E94D01FE6E9F8E40E94232031
:100B80000E941D1CE2ECF2E0A0E8BFE30E945221AB
:100B90000E94151CECE9F8E40E9423200E941D1C11
:100BA000E6EBF2E0A0E8BFE30E94C8210E94151C1A
:100BB0000E94241C81E080931E0100911E010034DC
:100BC00018F011F00C94F60580E0AEE1B1E0AD90C4
:100BD000BB24A6EAB8E0AA0DBB1D8C93AEE1B1E040
:100BE0008C918F5F8C9310F40C94DD0580E08093E2
:100BF000B802A0E4B2E00C9103FB16F00C942006BE
:100C0000E4EAF8E40E9423200E941D1CE6EBF2E0D7
:100C1000A0E8BFE30E94C8210E94151C0E94241C6A
:100C200084E28A93A6EBB2E08D919C918A939A9389
:100C300083E08A93809141020E949B1D0E94241CA4
:100C400070912C03786070932C032A9A84E28A9323
:100C5000A6EBB2E08D919C918A939A9383E08A935C
:100C6000809141020E949D1DEF93FF93ECE6F7E116
:100C70000E948C1CFF91EF912A987091470270613D
:100C8000709347020895A0E4B2E00C9103FB16F0C4
:100C90000C949206E8EAF8E40E9423200E941D1CAE
:100CA000E8EBF2E0A0E8BFE30E9452210E94151C8D
:100CB000ECE9F8E40E9423200E941D1CE6EBF2E020
:100CC000A0E8BFE30E94C8210E94151C0E94241CBA
:100CD00081E080931E014091B80200911E0104172B
:100CE00018F011F00C949006EEE1F1E0A190BB2415
:100CF000E6EAF8E0EA0DFB1DA0E8BFE30E94C6218A
:100D00000E94151CE2E7F8E40E9423200E941D1CAB
:100D1000AEE1B1E08C918F5F8C9310F40C946B0674
:100D20000E94241C0091B80242E0041BA9EBB2E02F
:100D30000C930091B90241E0040FAAEBB2E00C93CE
:100D40000091BA0241E0040FABEBB2E00C9381E0FA
:100D50008A9381E08A93A9EBB2E0EC91FF274FEFF1
:100D60005FEF25E030E8A7EAB8E00E945822ACEB3C
:100D7000B2E04D935C93ABEBB2E0AD90BB24A6EA3E
:100D8000B8E0AA0DBB1D9C91AAEBB2E0AD90BB24CC
:100D9000A6EAB8E0AA0DBB1D8C91AFE1B1E08D933E
:100DA0009C93AFE1B1E04D915C91ACEBB2E00D9161
:100DB0001C910417150711F00C947F0BA7E4B2E007
:100DC0008C9184FB16F00C94170B0091C20200303A
:100DD00011F00C9485078091AA0880934F028091AE
:100DE000AB0880934E028091AC0880934D028091B5
:100DF000AD0880934C02E0EBF8E40E9423200E94AF
:100E00001D1CECE4F2E0A0E8BFE30E9448210E9430
:100E1000151C0E94241C8091AE0880934F02809183
:100E2000AF0880934E028091B00880934D0280916C
:100E3000B10880934C02ACE4B2E08D919C91A3EC9C
:100E4000B2E08D939C93E6EBF8E40E9423200E948D
:100E50001D1CE3ECF2E0A0E8BFE30E9442210E94E7
:100E6000151C0E94241C8091B20880934F0280912F
:100E7000B30880934E028091B40880934D02809114
:100E8000B50880934C02ACE4B2E08D919C91A5EC46
:100E9000B2E08D939C93EAEBF8E40E9423200E9439
:100EA0001D1CE5ECF2E0A0E8BFE30E9442210E9495
:100EB000151C0E94241C8091B60880934F028091DB
:100EC000B70880934E028091B80880934D028091BC
:100ED000B90880934C02ACE4B2E08D919C91A7ECF0
:100EE000B2E08D939C93EEEBF8E40E9423200E94E5
:100EF0001D1CE7ECF2E0A0E8BFE30E9442210E9443
:100F0000151C0E94241C0C94150B013011F00C943C
:100F100063088091AA0880934F028091AB08809368
:100F20004E028091AC0880934D028091AD08809371
:100F30004C02EEEDF7E40E9423200E94E223ECE451
:100F4000F2E00E94D1220E94FB220E944B23EDE09E
:100F5000F0E0ADECB2E00E94F721E2ECF8E40E9490
:100F600023200E941D1CEDECF2E0A0E8BFE30E94EC
:100F7000D1220E94A41C0E94151C0E94241C809156
:100F8000AE0880934F028091AF0880934E0280910B
:100F9000B00880934D028091B10880934C02EEED31
:100FA000F7E40E9423200E94E223ECE4F2E00E9496
:100FB000D1220E94FB220E944B23EDE0F0E0A1ED44
:100FC000B2E00E94F721E8ECF8E40E9423200E949E
:100FD0001D1CE1EDF2E0A0E8BFE30E94D1220E94D7
:100FE000A41C0E94151C0E94241C8091B2088093AE
:100FF0004F028091B30880934E028091B408809391
:101000004D028091B50880934C02EEEDF7E40E940A
:1010100023200E94E223ECE4F2E00E94D1220E940D
:10102000FB220E944B23EDE0F0E0A5EDB2E00E9430
:10103000F721ECECF8E40E9423200E941D1CE5ED52
:10104000F2E0A0E8BFE30E94D1220E94A41C0E940B
:10105000151C0E94241C8091B60880934F02809139
:10106000B70880934E028091B80880934D0280911A
:10107000B90880934C02EEEDF7E40E9423200E9411
:10108000E223ECE4F2E00E94D1220E94FB220E94C3
:101090004B23EDE0F0E0A9EDB2E00E94F721E0ED96
:1010A000F8E40E9423200E941D1CE9EDF2E0A0E874
:1010B000BFE30E94D1220E94A41C0E94151C0E9422
:1010C000241C0C94150B023011F00C9441098091F2
:1010D000AA0880934F028091AB0880934E028091C2
:1010E000AC0880934D028091AD0880934C02E2EEF3
:1010F000F7E40E9423200E94E223ECE4F2E00E9445
:10110000D1220E94FB220E94A423EDE0F0E0A1E0A6
:10111000B3E00E94F721E4EDF8E40E9423200E944E
:101120001D1CE1E0F3E0A0E8BFE30E94D1220E9491
:10113000A41C0E94151C0E94241C8091AE08809360
:101140004F028091AF0880934E028091B008809347
:101150004D028091B10880934C02E2EEF7E40E94C8
:1011600023200E94E223ECE4F2E00E94D1220E94BC
:10117000FB220E94A423EDE0F0E0A5E0B3E00E9492
:10118000F721ECEDF8E40E9423200E941D1CE5E00D
:10119000F3E0A0E8BFE30E94D1220E94A41C0E94B9
:1011A000151C0E94241C8091B20880934F028091EC
:1011B000B30880934E028091B40880934D028091D1
:1011C000B50880934C02E2EEF7E40E9423200E94CF
:1011D000E223ECE4F2E00E94D1220E94FB220E9472
:1011E000A423EDE0F0E0A9E0B3E00E94F721E2EEF5
:1011F000F8E40E9423200E941D1CE9E0F3E0A0E82F
:10120000BFE30E94D1220E94A41C0E94151C0E94D0
:10121000241C8091B60880934F028091B708809378
:101220004E028091B80880934D028091B908809356
:101230004C02E2EEF7E40E9423200E94E223ECE459
:10124000F2E00E94D1220E94FB220E94A423EDE042
:10125000F0E0ADE0B3E00E94F721E8EEF8E40E9490
:1012600023200E941D1CEDE0F3E0A0E8BFE30E94F4
:10127000D1220E94A41C0E94151C0E94241C0C94C4
:10128000150B033011F00C941F0A8091AA0880936B
:1012900053028091AB08809352028091AC088093F6
:1012A00051028091AD0880935002E6EEF7E40E946F
:1012B00023200E94E223E0E5F2E00E94D1220E9476
:1012C00013230E94A423EDE0F0E0ADEDB2E00E9414
:1012D000F721EEEEF8E40E9423200E941D1CEDEDA4
:1012E000F2E0A0E8BFE30E94D1220E94A41C0E9469
:1012F000151C0E94241C8091AE088093530280919B
:10130000AF08809352028091B0088093510280917F
:10131000B10880935002E6EEF7E40E9423200E9479
:10132000E223E0E5F2E00E94D1220E9413230E9412
:10133000A423EDE0F0E0A1EEB2E00E94F721E6EF99
:10134000F8E40E9423200E941D1CE1EEF2E0A0E8D8
:10135000BFE30E94D1220E94A41C0E94151C0E947F
:10136000241C8091B208809353028091B30880932B
:1013700052028091B408809351028091B508809305
:101380005002E6EEF7E40E9423200E94E223E0E50B
:10139000F2E00E94D1220E9413230E94A423EDE0D8
:1013A000F0E0A5EEB2E00E94F721ECEFF8E40E9435
:1013B00023200E941D1CE5EEF2E0A0E8BFE30E949E
:1013C000D1220E94A41C0E94151C0E94241C809102
:1013D000B608809353028091B7088093520280919F
:1013E000B808809351028091B90880935002E6EECC
:1013F000F7E40E9423200E94E223E0E5F2E00E944D
:10140000D1220E9413230E94A423EDE0F0E0A9EE74
:10141000B2E00E94F721E2E0F9E40E9423200E945A
:101420001D1CE9EEF2E0A0E8BFE30E94D1220E9479
:10143000A41C0E94151C0E94241C0C94150B043043
:1014400011F00C94C70A8091AA0880934F028091F2
:10145000AB0880934E028091AC0880934D0280913E
:10146000AD0880934C02E2EEF7E40E9423200E9434
:10147000E223ECE4F2E00E94D1220E94FB220E94CF
:101480004B23EDE0F0E0ADEEB2E00E94F721E8E0A2
:10149000F9E40E9423200E941D1CEDEEF2E0A0E87A
:1014A000BFE30E94D1220E94A41C0E94151C0E942E
:1014B000241C8091AE0880934F028091AF088093E6
:1014C0004E028091B00880934D028091B1088093C4
:1014D0004C02E2EEF7E40E9423200E94E223ECE4B7
:1014E000F2E00E94D1220E94FB220E944B23EDE0F9
:1014F000F0E0ADEFB2E00E94F721EEE0F9E40E94E7
:1015000023200E941D1CEDEFF2E0A0E8BFE30E9443
:10151000D1220E94A41C0E94151C0E94241C8091B0
:10152000BA0880934F028091BB0880934E0280914D
:10153000BC0880934D028091BD0880934C02EEED73
:10154000F7E40E9423200E94E223ECE4F2E00E94F0
:10155000D1220E94FB220E944B23EDE0F0E0A9EC97
:10156000B2E00E94F721E4E1F9E40E9423200E9406
:101570001D1CE9ECF2E0A0E8BFE30E94D1220E942A
:10158000A41C0E94151C0E94241C0C94150B0530F1
:1015900011F00C940D0B8091AA0880934F0280915A
:1015A000AB0880934E028091AC0880934D028091ED
:1015B000AD0880934C02EAE1F9E40E9423200E94E6
:1015C0001D1CECE4F2E0A0E8BFE30E9448210E9469
:1015D000151C0E94241C8091AE0880934F028091BC
:1015E000AF0880934E028091B00880934D028091A5
:1015F000B10880934C02EEE1F9E40E9423200E949E
:101600001D1CECE4F2E0A0E8BFE30E9448210E9428
:10161000151C0E94241C0C94150BE2E2F9E40E94B4
:1016200023200E941D1C0E94241C0C947D0B009101
:10163000B802073011F00C94510B9091AA088091D8
:10164000AB08AEEBB2E08D939C93EEE2F9E40E941E
:1016500023200E941D1CEEEBF2E0A0E8BFE30E94F5
:1016600042210E94151CECE3F9E40E9423200E9411
:101670001D1CEEEBF2E0A0E8BFE30E94C8210E942F
:10168000151CE4E4F9E40E9423200E941D1CEEEBEB
:10169000F2E0A0E8BFE30E9442210E94151C0E94D4
:1016A000241C0091B802083011F00C947D0B90912D
:1016B000AB088091AC08AEEBB2E08D939C93EEE268
:1016C000F9E40E9423200E941D1CEEEBF2E0A0E84A
:1016D000BFE30E9442210E94151CECE3F9E40E9442
:1016E00023200E941D1CEEEBF2E0A0E8BFE30E9465
:1016F000C8210E94151C0E94241C0C94960BA0E487
:10170000B2E00C9103FB16F00C94960BECE4F9E4B8
:101710000E9423200E941D1CE6EBF2E0A0E8BFE33C
:101720000E94C8210E94151C0E94241C089580E07C
:1017300080934602709147027F7770934702A6E438
:10174000B2E08C918F5F8C93EEE5F9E40E94232048
:101750000E941D1CE6E4F2E0A0E8BFE30E945221D3
:101760000E94151C0E94241C84E690E0AEE1B3E0C8
:101770008D939C9380E090E0ACE1B3E08D939C93DB
:1017800070914702716070934702709147027D7FAC
:1017900070934702ACE2B3E08C9184FB16F00C949A
:1017A000E40B70912C037F7E70932C03EAE6F9E43E
:1017B0000E9423200E941D1CA9E1B8E00E94171C72
:1017C0000E94241C0E94E411ACE2B3E08C9186FBE1
:1017D00016F00C94FE0B70912C037F7B70932C03FE
:1017E000E2E7F9E40E9423200E941D1CA2ECB6E06F
:1017F0000E94171C0E94241C0E946E12A7E4B2E0F3
:101800008C9187FB81E00EF080E08F93A7E4B2E03B
:101810008C9181FB81E00EF080E09F91892B8823E1
:1018200011F40C94CA0B709147027E7F70934702AB
:10183000A7E4B2E08C9187FB16F40C942B0CE8E73C
:10184000F9E40E9423200E941D1CA0E3B1E00E9445
:10185000171C0E94241CA7E4B2E08C9187FB81E056
:101860000EF080E08F9300914602033081E009F092
:1018700080E09F91892B882311F40C949F0B709129
:1018800047027E7F70934702709147027F77709383
:1018900047020895EAE7F9E40E9423200E941D1CF4
:1018A0000E94F81DAFE0B1E00E94171CE2E7F8E4E7
:1018B0000E9423200E941D1C0E94F81DA6E0B1E09A
:1018C0000E94171C0E94241C0E94F81DE6E0F1E013
:1018D000ABE9B2E00E94F2210E94F81DEFE0F1E0D6
:1018E000A6EAB2E00E94F221A0E3B1E0E4E8F9E464
:1018F0000E9423200E94B41FEBE9F2E0A0E3B1E0D4
:101900000E940E1C0E94F221A0E3B1E00E940E1C76
:10191000E2E7F8E40E9423200E94B41FE6EAF2E026
:10192000A0E3B1E00E940E1C0E94F221A0E3B1E00E
:101930000E940E1CE2E7F8E40E9423200E94B41FDC
:10194000E4E8F2E0A0E3B1E00E940E1C0E94F22164
:10195000A0E3B1E00E940E1CE8E8F9E40E94232015
:101960000E94B41FA0E3B1E00E940E1CE2E7F8E47D
:101970000E9423200E94B41FE3ECF2E0A0E3B1E058
:101980000E940E1C0E944221A0E3B1E00E940E1CA6
:10199000E2E7F8E40E9423200E94B41FE5ECF2E0A5
:1019A000A0E3B1E00E940E1C0E944221A0E3B1E03E
:1019B0000E940E1CE2E7F8E40E9423200E94B41F5C
:1019C000E7ECF2E0A0E3B1E00E940E1C0E9442218D
:1019D000A0E3B1E00E940E1CE2E7F8E40E9423209D
:1019E0000E94B41FE9ECF2E0A0E3B1E00E940E1CFB
:1019F0000E94D1220E94A41CA0E3B1E00E940E1C10
:101A0000E2E7F8E40E9423200E94B41FE1EDF2E037
:101A1000A0E3B1E00E940E1C0E94D1220E94A41CEF
:101A2000A0E3B1E00E940E1CE2E7F8E40E9423204C
:101A30000E94B41FE5EDF2E0A0E3B1E00E940E1CAD
:101A40000E94D1220E94A41CA0E3B1E00E940E1CBF
:101A5000E2E7F8E40E9423200E94B41FE9EDF2E0DF
:101A6000A0E3B1E00E940E1C0E94D1220E94A41C9F
:101A7000A0E3B1E00E940E1CE2E7F8E40E942320FC
:101A80000E94B41FA0E3B1E00E943E22AFE1B1E0AA
:101A90008D9388278C93AFE1B1E0ED91FC91A0E3A9
:101AA000B1E00E947C22A2E4B2E00D931D932D933D
:101AB0003D93A0E3B1E00E940E1CECE8F9E40E9423
:101AC00023200E94B41FE2E4F2E0A0E3B1E00E9410
:101AD0000E1C0E94CA21E8E7F9E40E9423200E941C
:101AE0001D1CA0E3B1E00E94171C0E94241C0E9450
:101AF000970B0895EEE8F9E40E9423200E941D1C34
:101B00000E94F81DAFE0B1E00E94171CE2E7F8E484
:101B10000E9423200E941D1C0E94F81DA6E0B1E037
:101B20000E94171C0E94241C0E94F81DE6E0F1E0B0
:101B3000ABE9B2E00E94F2210E94F81DEFE0F1E073
:101B4000A6EAB2E00E94F221A0E3B1E0E4E8F9E401
:101B50000E9423200E94B41FEBE9F2E0A0E3B1E071
:101B60000E940E1C0E94F221A0E3B1E00E940E1C14
:101B7000E2E7F8E40E9423200E94B41FE6EAF2E0C4
:101B8000A0E3B1E00E940E1C0E94F221A0E3B1E0AC
:101B90000E940E1CE2E7F8E40E9423200E94B41F7A
:101BA000E4E8F2E0A0E3B1E00E940E1C0E94F22102
:101BB000A0E3B1E00E940E1CE8E9F9E40E942320B2
:101BC0000E94B41FA0E3B1E00E940E1CE2E7F8E41B
:101BD0000E9423200E94B41FEDEDF2E00E94D1226A
:101BE000A0E8BFE3AF93BF930E94A41C11E002E002
:101BF000BF91AF910E94DD20E0E8FFE3A0E3B1E0F8
:101C00000E940E1C0E94F221A0E3B1E00E940E1C73
:101C1000E2E7F8E40E9423200E94B41FE1EEF2E024
:101C20000E94D122A0E8BFE3AF93BF930E94A41CFF
:101C300011E002E0BF91AF910E94DD20E0E8FFE3F8
:101C4000A0E3B1E00E940E1C0E94F221A0E3B1E0EB
:101C50000E940E1CE2E7F8E40E9423200E94B41FB9
:101C6000E5EEF2E00E94D122A0E8BFE3AF93BF937C
:101C70000E94A41C11E002E0BF91AF910E94DD2000
:101C8000E0E8FFE3A0E3B1E00E940E1C0E94F22115
:101C9000A0E3B1E00E940E1CE2E7F8E40E942320DA
:101CA0000E94B41FE9EEF2E00E94D122A0E8BFE357
:101CB000AF93BF930E94A41C11E002E0BF91AF91CB
:101CC0000E94DD20E0E8FFE3A0E3B1E00E940E1CEB
:101CD0000E94F221A0E3B1E00E940E1CE2E7F8E4CA
:101CE0000E9423200E94B41FEDEEF2E00E94D12258
:101CF000A0E8BFE3AF93BF930E94A41C11E002E0F1
:101D0000BF91AF910E94DD20E0E8FFE3A0E3B1E0E6
:101D10000E940E1C0E94F221A0E3B1E00E940E1C62
:101D2000E2E7F8E40E9423200E94B41FE1EFF2E012
:101D3000A0E3B1E00E940E1C0E944821A0E3B1E0A4
:101D40000E940E1CE2E7F8E40E9423200E94B41FC8
:101D5000E5EFF2E0A0E3B1E00E940E1C0E944821F2
:101D6000A0E3B1E00E940E1CE2E7F8E40E94232009
:101D70000E94B41FE9EFF2E0A0E3B1E00E940E1C64
:101D80000E944821A0E3B1E00E943E22AFE1B1E011
:101D90008D9388278C93AFE1B1E0ED91FC91A0E3A6
:101DA000B1E00E947C22A2E4B2E00D931D932D933A
:101DB0003D93A0E3B1E00E940E1CECE8F9E40E9420
:101DC00023200E94B41FE2E4F2E0A0E3B1E00E940D
:101DD0000E1C0E94CA21E8E7F9E40E9423200E9419
:101DE0001D1CA0E3B1E00E94171C0E94241C0E944D
:101DF000970B0895ECE9F9E40E9423200E941D1C32
:101E00000E94F81DAFE0B1E00E94171CE2E7F8E481
:101E10000E9423200E941D1C0E94F81DA6E0B1E034
:101E20000E94171C0E94241C0E94F81DE6E0F1E0AD
:101E3000ABE9B2E00E94F2210E94F81DEFE0F1E070
:101E4000A6EAB2E00E94F221A0E3B1E0E4E8F9E4FE
:101E50000E9423200E94B41FEBE9F2E0A0E3B1E06E
:101E60000E940E1C0E94F221A0E3B1E00E940E1C11
:101E7000E2E7F8E40E9423200E94B41FE6EAF2E0C1
:101E8000A0E3B1E00E940E1C0E94F221A0E3B1E0A9
:101E90000E940E1CE2E7F8E40E9423200E94B41F77
:101EA000E4E8F2E0A0E3B1E00E940E1C0E94F221FF
:101EB000A0E3B1E00E940E1CE6EAF9E40E942320B0
:101EC0000E94B41FA0E3B1E00E940E1CE2E7F8E418
:101ED0000E9423200E94B41FE1E0F3E00E94D1227F
:101EE000A0E8BFE3AF93BF930E94A41C11E002E0FF
:101EF000BF91AF910E94DD20E0E8FFE3A0E3B1E0F5
:101F00000E940E1C0E94F221A0E3B1E00E940E1C70
:101F1000E2E7F8E40E9423200E94B41FE5E0F3E02A
:101F20000E94D122A0E8BFE3AF93BF930E94A41CFC
:101F300011E002E0BF91AF910E94DD20E0E8FFE3F5
:101F4000A0E3B1E00E940E1C0E94F221A0E3B1E0E8
:101F50000E940E1CE2E7F8E40E9423200E94B41FB6
:101F6000E9E0F3E00E94D122A0E8BFE3AF93BF9382
:101F70000E94A41C11E002E0BF91AF910E94DD20FD
:101F8000E0E8FFE3A0E3B1E00E940E1C0E94F22112
:101F9000A0E3B1E00E940E1CE2E7F8E40E942320D7
:101FA0000E94B41FEDE0F3E00E94D122A0E8BFE35D
:101FB000AF93BF930E94A41C11E002E0BF91AF91C8
:101FC0000E94DD20E0E8FFE3A0E3B1E00E940E1CE8
:101FD0000E94F221A0E3B1E00E940E1CE2E7F8E4C7
:101FE0000E9423200E94B41FEDEFF2E00E94D12254
:101FF000A0E8BFE3AF93BF930E94A41C11E002E0EE
:10200000BF91AF910E94DD20E0E8FFE3A0E3B1E0E3
:102010000E940E1C0E94F221A0E3B1E00E940E1C5F
:10202000EAEAF9E40E9423200E94B41FA0E3B1E091
:102030000E943E22AFE1B1E08D9388278C93AFE1FF
:10204000B1E0ED91FC91A0E3B1E00E947C22A2E41A
:10205000B2E00D931D932D933D93A0E3B1E00E9458
:102060000E1CECE8F9E40E9423200E94B41FE2E475
:10207000F2E0A0E3B1E00E940E1C0E94CA21E8E752
:10208000F9E40E9423200E941D1CA0E3B1E00E94FD
:10209000171C0E94241C0E94970B0895EEEAF9E495
:1020A0000E9423200E941D1C0E94F81DAFE0B1E099
:1020B0000E94171CE2E7F8E40E9423200E941D1CE6
:1020C0000E94F81DA6E0B1E00E94171C0E94241C8B
:1020D0000E94F81DE6E0F1E0ABE9B2E00E94F221D7
:1020E0000E94F81DEFE0F1E0A6EAB2E00E94F221C2
:1020F000A0E3B1E0E4E8F9E40E9423200E94B41FC9
:10210000EBE9F2E0A0E3B1E00E940E1C0E94F22194
:10211000A0E3B1E00E940E1CE2E7F8E40E94232055
:102120000E94B41FE6EAF2E0A0E3B1E00E940E1CB8
:102130000E94F221A0E3B1E00E940E1CE2E7F8E465
:102140000E9423200E94B41FE4E8F2E0A0E3B1E083
:102150000E940E1C0E94F221A0E3B1E00E940E1C1E
:10216000E8EBF9E40E9423200E94B41FA0E3B1E051
:102170000E940E1CE2E7F8E40E9423200E94B41F94
:10218000A3E2B0E08C9185FBA0E3B1E00E940E1CBD
:102190000E9414208D9388278C93A0E3B1E00E94C5
:1021A0000E1CE2E7F8E40E9423200E94B41FE1E144
:1021B000F3E0A0E3B1E00E940E1C0E944221A0E3E4
:1021C000B1E00E940E1CECEBF9E40E9423200E9477
:1021D000B41FA0E3B1E00E943E22AFE1B1E08D93D5
:1021E00088278C93AFE1B1E0ED91FC91A0E3B1E0E1
:1021F0000E947C22A2E4B2E00D931D932D933D93A7
:10220000A0E3B1E00E940E1CECE8F9E40E94232058
:102210000E94B41FE2E4F2E0A0E3B1E00E940E1CD1
:102220000E94CA21E8E7F9E40E9423200E941D1CB5
:10223000A0E3B1E00E94171C0E94241C0E94970B8F
:102240000895EEEAF9E40E9423200E941D1C0E94DA
:10225000F81DAFE0B1E00E94171CE2E7F8E40E942D
:1022600023200E941D1C0E94F81DA6E0B1E00E94E0
:10227000171C0E94241CA0E3B1E0E4E8F9E40E94EA
:1022800023200E94B41FEBE9F2E0A0E3B1E00E943A
:102290000E1C0E94F221A0E3B1E00E940E1CE2E7B6
:1022A000F8E40E9423200E94B41FE6EAF2E0A0E3D3
:1022B000B1E00E940E1C0E94F221A0E3B1E00E9456
:1022C0000E1CE2E7F8E40E9423200E94B41FE4E819
:1022D000F2E0A0E3B1E00E940E1C0E94F221A0E314
:1022E000B1E00E940E1CE8EBF9E40E9423200E945A
:1022F000B41FA0E3B1E00E940E1CE2E7F8E40E94E4
:1023000023200E94B41FA3E2B0E08C9185FBA0E3E0
:10231000B1E00E940E1C0E9414208D9388278C939C
:10232000A0E3B1E00E940E1CE2E7F8E40E94232043
:102330000E94B41FE1E1F3E0A0E3B1E00E940E1CB3
:102340000E944221A0E3B1E00E940E1CECEBF9E4F4
:102350000E9423200E94B41FA0E3B1E00E943E220D
:10236000AFE1B1E08D9388278C93AFE1B1E0ED91BF
:10237000FC91A0E3B1E00E947C22A2E4B2E00D93C4
:102380001D932D933D93A0E3B1E00E940E1CECE859
:10239000F9E40E9423200E94B41FE2E4F2E0A0E3EB
:1023A000B1E00E940E1C0E94CA21E8E7F9E40E94F5
:1023B00023200E941D1CA0E3B1E00E94171C0E9474
:1023C000241C0E94970B0895E9E1F8E09BE304E1E7
:1023D00032E2AEE2B3E00E949C22ADE2B3E02C9385
:1023E00000912D03003018F011F00C94F9110C94A9
:1023F0000112EEE2F3E0A9E2B1E00E94F2210C94B6
:102400000712E9E1F8E0A9E2B1E00E94F221A9E2B5
:10241000B1E0E4ECF9E40E9423200E94442211F090
:102420000C941912709147027068709347020C94D3
:102430006D12E8ECF9E40E9423200E94442211F07E
:102440000C942912709147027F77709347020C9485
:102450006D12ECECF9E40E9423200E94442211F05A
:102460000C94471270912C03706470932C03E3E476
:10247000F3E0A2ECB6E00E94F221E4EDF9E40E9460
:1024800023200E941D1C0E94241C0C946D12E0EE5F
:10249000F9E40E9423200E94442211F00C9465125A
:1024A00070912C03706470932C03E3E4F3E0A2ECCE
:1024B000B6E00E94F221E4EDF9E40E9423200E949C
:1024C0001D1C0E94241C0C946D12E8EEF9E40E947D
:1024D00023200E941D1C0E94241C089581E0E2EC30
:1024E000F6E006E00A93ABE0B2E00E94FD21E2ECE8
:1024F000F6E09CE204E132E2AEE2B3E00E949C220C
:10250000ADE2B3E02C93AEE2B3E00E943E22082F8E
:10251000063011F00C945B18EEE2F3E0A9E2B1E0B2
:102520000E94F221E9E2F1E0A9E2B1E00E94F81F85
:102530008FEF8093F901A9E2B1E0E4EFF9E40E94A2
:1025400023200E94442211F00C94E71280E0809333
:10255000F901A0E3B1E0ECEFF9E40E9423200E942E
:10256000B41FABE0B2E0E0E1FAE40E9423200E9455
:10257000B41FEBE0F2E0A0E3B1E00E940E1C0E9469
:10258000F221A0E3B1E00E940E1CE4E2FAE40E9412
:1025900023200E94B41FABE0B2E0E0E4F8E40E9424
:1025A00023200E94B41FEBE0F2E0A0E3B1E00E9420
:1025B0000E1C0E94F221A0E3B1E00E940E1CE0E696
:1025C000F8E40E9423200E94B41F0C945918E2E3FF
:1025D000FAE40E9423200E94442211F00C94261356
:1025E00000912D03023011F00C942113A3E4B3E009
:1025F0000E949721A9E1B1E00C93009119010131EA
:1026000010F00C941C1380E08093F901A0E3B1E07A
:10261000EAE3FAE40E9423200E94B41FE9E1F1E01A
:10262000A0E3B1E00E940E1C0E945221809119018A
:10263000809319030C941F1385E08093F9010C9487
:10264000241384E08093F9010C945918E2E5FAE42C
:102650000E9423200E94442211F00C943E1380E03B
:102660008093F901A0E3B1E0EAE5FAE40E942320B7
:102670000E94B41F0E9438050C945918EEE6FAE443
:102680000E9423200E94442211F00C944A140091CD
:102690002D03023011F00C944514A3E4B3E00E9422
:1026A0003E22082F0C3011F00C94401480E08093EF
:1026B000F90187E0E3E4F3E002E00A93ABE0B2E083
:1026C0000E94FD21ABE0B2E00E940E1CE6E7FAE4B6
:1026D0000E9423200E94B41F89E0E3E4F3E002E0BB
:1026E0000A93ABE0B2E00E940E1C0E94FD21ABE019
:1026F000B2E00E940E1CE6E7FAE40E9423200E944A
:10270000B41F8BE0E3E4F3E002E00A93ABE0B2E055
:102710000E940E1C0E94FD21ABE0B2E00E94171C3B
:102720000E94241CEBE0F2E0AFE0B1E00E94F22155
:102730000E94071EE8E7FAE40E9423200E941D1C65
:102740000E94F81DAFE0B1E00E94171C0E94241CFB
:1027500081E0E3E4F3E002E00A93ABE0B2E00E9440
:10276000FD21ABE0B2E00E940E1CECE7FAE40E940F
:1027700023200E94B41F83E0E3E4F3E002E00A9325
:10278000ABE0B2E00E940E1C0E94FD21ABE0B2E083
:102790000E940E1CECE7FAE40E9423200E94B41F62
:1027A00085E0E3E4F3E002E00A93ABE0B2E00E94EC
:1027B0000E1C0E94FD21ABE0B2E00E94171C0E949B
:1027C000241CEBE0F2E0A6E0B1E00E94F2210E94BE
:1027D000011EEEE7FAE40E9423200E941D1C0E94C5
:1027E000F81DA6E0B1E00E94171C0E94241CA0E383
:1027F000B1E0E2E8FAE40E9423200E94B41F0E94A4
:10280000F81DE6E0F1E0A0E3B1E00E940E1C0E949A
:10281000F221A0E3B1E00E940E1CECEAFAE40E946F
:1028200023200E94B41F0E94F81DEFE0F1E0A0E316
:10283000B1E00E940E1C0E94F221E3E0F1E00E9450
:10284000551EA5EBB2E08C93E0E0F1E00E94321F50
:10285000A1EBB2E00D931D932D933D93E2E3F0E0E5
:10286000A1EBB2E094E07BE70E9416227091470250
:1028700070627093470281E0809319030C944314B3
:1028800086E08093F9010C94481484E08093F90168
:102890000C945918E0EBFAE40E9423200E94442291
:1028A00011F00C948A1480E08093F9010E94F81DC5
:1028B000EFE0F1E0ABE0B2E00E94F221A0E3B1E092
:1028C000E8EBFAE40E9423200E94B41FEBE0F2E060
:1028D000A0E3B1E00E940E1C0E94F221A0E3B1E04F
:1028E0000E940E1CE6ECFAE40E9423200E94B41F12
:1028F0000E94F81DE6E0F1E0ABE0B2E00E94F221B8
:10290000EBE0F2E0A0E3B1E00E940E1C0E94F22195
:102910000C945918E6EDFAE40E9423200E94442208
:1029200011F00C94C61480E08093F901E1EBF2E021
:10293000ABE0B2E00E946B1FA0E3B1E0EEEDFAE481
:102940000E9423200E94B41FEBE0F2E0A0E3B1E07C
:102950000E940E1C0E94F221A0E3B1E00E940E1C16
:10296000E2EFFAE40E9423200E94B41FE1EBF2E0C0
:10297000ABE0B2E00E94731FEBE0F2E0A0E3B1E055
:102980000E940E1C0E94F2210C945918EAEFFAE4FE
:102990000E9423200E94442211F00C945D150091A6
:1029A0002D03033011F00C945815A3E4B3E00E94FA
:1029B0009721AEE1B1E00C9300911E01003080E060
:1029C00010F009F081E08F9300911E01073081E043
:1029D00008F080E09F918923882311F40C9453150B
:1029E000A8E5B3E00E949721A5E2B1E00D931D9305
:1029F0002D933D93A5E2B1E00D911D912D913C9158
:102A0000AEE1B1E0AD90BB24A0E5B2E0AA0CBB1CE6
:102A1000AA0CBB1CAA0DBB1D0D931D932D933C93BB
:102A2000EEE1F1E0A190BB24EEEFFFEFAA0CBB1C9E
:102A3000AA0CBB1CEA0DFB1DA5E2B1E094E07BE70C
:102A40000E94162280E08093F901A0E3B1E0E2E069
:102A5000FBE40E9423200E94B41FEEE1F1E0A0E31A
:102A6000B1E00E940E1C0E945221A0E3B1E00E943E
:102A70000E1CE6E7FAE40E9423200E94B41FEEE158
:102A8000F1E0A190BB24E0E5F2E0AA0CBB1CAA0C8B
:102A9000BB1CEA0DFB1DA0E3B1E00E940E1C0E94CE
:102AA00045210C94561583E08093F9010C945B1535
:102AB00084E08093F9010C945918E8E1FBE40E944A
:102AC00023200E94442211F00C94F41500912D0350
:102AD000033011F00C94EF15A3E4B3E00E949721AA
:102AE000AEE1B1E00C9300911E01003080E010F0E7
:102AF00009F081E08F9300911E01073081E008F01A
:102B000080E09F918923882311F40C94EA15A8E5AD
:102B1000B3E00E949721A5E2B1E00D931D932D93A0
:102B20003D93A5E2B1E00D911D912D913C91AEE157
:102B3000B1E0AD90BB24A8E6B2E0AA0CBB1CAA0C85
:102B4000BB1CAA0DBB1D0D931D932D933C93EEE171
:102B5000F1E0A190BB24E6E1F0E0AA0CBB1CAA0CBA
:102B6000BB1CEA0DFB1DA5E2B1E094E07BE70E94EF
:102B7000162280E08093F901A0E3B1E0E2E0FBE4FB
:102B80000E9423200E94B41FEEE1F1E0A0E3B1E037
:102B90000E940E1C0E945221A0E3B1E00E940E1C74
:102BA000E6E7FAE40E9423200E94B41FEEE1F1E080
:102BB000A190BB24E8E6F2E0AA0CBB1CAA0CBB1C4B
:102BC000EA0DFB1DA0E3B1E00E940E1C0E9445210E
:102BD0000C94ED1583E08093F9010C94F21584E0D8
:102BE0008093F9010C945918E0E2FBE40E94232041
:102BF0000E94442211F00C94591600912D030230CA
:102C000011F00C945416A3E4B3E00E949721AEE1B6
:102C1000B1E00C9300911E01003080E010F009F04B
:102C200081E08F9300911E01073081E008F080E081
:102C30009F918923882311F40C944F16A0E3B1E0EF
:102C4000E8E2FBE40E9423200E94B41FEEE1F1E0E1
:102C5000A0E3B1E00E940E1C0E945221A0E3B1E06B
:102C60000E940E1CE6E7FAE40E9423200E94B41F93
:102C7000EEE1F1E0A190BB24E0E5F2E0AA0CBB1C80
:102C8000AA0CBB1CEA0DFB1DA0E3B1E00E940E1CC8
:102C90000E94452180E08093F9010C94521683E054
:102CA0008093F9010C94571684E08093F9010C94F9
:102CB0005918E0E3FBE40E9423200E94442211F013
:102CC0000C94BE1600912D03023011F00C94B9162D
:102CD000A3E4B3E00E949721AEE1B1E00C93009130
:102CE0001E01003080E010F009F081E08F93009128
:102CF0001E01073081E008F080E09F91892388233E
:102D000011F40C94B416A0E3B1E0E8E3FBE40E94F4
:102D100023200E94B41FEEE1F1E0A0E3B1E00E94A5
:102D20000E1C0E945221A0E3B1E00E940E1CE6E7B7
:102D3000FAE40E9423200E94B41FEEE1F1E0A1908A
:102D4000BB24E8E6F2E0AA0CBB1CAA0CBB1CEA0DF3
:102D5000FB1DA0E3B1E00E940E1C0E94452180E013
:102D60008093F9010C94B71683E08093F9010C94D9
:102D7000BC1684E08093F9010C945918E4E4FBE458
:102D80000E9423200E94442211F00C942B170091E2
:102D90002D03023011F00C942617A3E4B3E00E9437
:102DA0009721AEE1B1E00C9300911E01003080E06C
:102DB00010F009F081E08F9300911E01073081E04F
:102DC00008F080E09F918923882311F40C94211747
:102DD00080E08093F90100911E0141E0041BA9E10C
:102DE000B1E00C9380911901AAE2B3E00E940E2099
:102DF0000E9404209C91982B9C93A0E3B1E0ECE40A
:102E0000FBE40E9423200E94B41FEEE1F1E0A0E366
:102E1000B1E00E940E1C0E945221A0E3B1E00E948A
:102E20000E1CE2E7F8E40E9423200E94B41FA0E3F6
:102E3000B1E00E940E1CEAE2F3E00E94DF210C9454
:102E4000241783E08093F9010C94291784E0809380
:102E5000F9010C945918E0E6FBE40E9423200E943B
:102E6000442211F00C94621700912D03023011F0EE
:102E70000C945D1780E08093F901A3E4B3E00E9415
:102E80009721A0E4B2E00C93E0E0F0E0A0E4B2E02F
:102E90007BE70E941322A0E3B1E0E8E6FBE40E9496
:102EA00023200E94B41FE0E4F2E0A0E3B1E00E941E
:102EB0000E1C0E9452210C94601784E08093F9014B
:102EC0000C945918EEE7FBE40E9423200E94442250
:102ED00011F00C94801780E08093F901A0E3B1E039
:102EE000E4E7F8E40E9423200E94B41FE0E4F2E04B
:102EF000A0E3B1E00E940E1C0E9452210C945918CC
:102F0000E6E8FBE40E9423200E94442211F00C9486
:102F1000AA1780E08093F9010E94A304A0E3B1E026
:102F2000EEE8FBE40E9423200E94B41FE4E8F2E0F4
:102F3000A0E3B1E00E940E1C0E94F221A0E3B1E0E8
:102F40000E940E1CE0E6F8E40E9423200E94B41FB9
:102F50000C945918E8E9FBE40E9423200E944422C3
:102F600011F00C94FE1700912D03023011F00C9417
:102F7000F91780E08093F901A3E4B3E00E94972160
:102F8000A9E1B1E00C9300911901003080E010F04C
:102F900009F081E08F93009119010F3F81E008F063
:102FA00080E09F918923882311F40C94F417809179
:102FB000190180934102E1E0F0E0A1E4B2E07BE797
:102FC0000E941322A0E3B1E0E0EAFBE40E94232088
:102FD0000E94B41FE1E4F2E0A0E3B1E00E940E1C05
:102FE0000E9452210C94F71785E08093F9010C940C
:102FF000FC1784E08093F9010C945918E8EBFBE48A
:103000000E9423200E94442211F00C941C1880E09E
:103010008093F901A0E3B1E0E0ECFBE40E942320FF
:103020000E94B41FE1E4F2E0A0E3B1E00E940E1CB4
:103030000E9452210C945918EAECFBE40E942320D0
:103040000E94442211F00C94561800912D03023076
:1030500011F00C94511880E08093F901A3E4B3E0DF
:103060000E949721A9E1B1E00C9300911901003071
:1030700011F00C944618A0E3B1E0E2EDFBE40E94ED
:1030800023200E94B41F2F980C944F18A0E3B1E0A6
:10309000EEEDFBE40E9423200E94B41F2F9A0C94B3
:1030A000541884E08093F9010C94591881E08093BE
:1030B000F9010C94D418EEE2F3E0A9E2B1E00E9429
:1030C000F221E9E2F1E0A9E2B1E00E94F81FA9E2F1
:1030D000B1E0E4ECF9E40E9423200E94442211F0C4
:1030E0000C947C187091470270687093470280E0DE
:1030F0008093F9010C94D418E8ECF9E40E942320A1
:103100000E94442211F00C948F18709147027F772F
:103110007093470280E08093F9010C94D418ECEC92
:10312000F9E40E9423200E94442211F00C94B0186C
:1031300070912C03706470932C03E3E4F3E0A2EC31
:10314000B6E00E94F221E4EDF9E40E9423200E94FF
:103150001D1C0E94241C80E08093F9010C94D4185B
:10316000E0EEF9E40E9423200E94442211F00C9426
:10317000D11870912C03706470932C03E3E4F3E096
:10318000A2ECB6E00E94F221E4EDF9E40E942320D3
:103190000E941D1C0E94241C80E08093F9010C9465
:1031A000D41882E08093F9010091F901003018F001
:1031B00011F00C94DD180C94EB18E0EFF1E30E9491
:1031C0002320A9EFB1E08C9199270E94F01FA0E382
:1031D000B1E00E94B41FA0E3B1E00E94171C0E945E
:1031E000241C089500100E10AE102E103E10A011D9
:1031F0004F4B00436F6D616E646F206E6F20726580
:10320000636F6E6F6369646F004C6F6E676974758E
:103210006420636F6D616E646F206E6F2076616CE9
:10322000696461004E756D65726F20646520706120
:1032300072616D6574726F206E6F2076616C696467
:103240006F004E756D65726F2064652070617261EC
:103250006D6574726F7320696E76616C69646F005E
:103260004572726F72206C6F6E676974756420703E
:103270006172616D6574726F2031004572726F7298
:10328000206C6F6E676974756420706172616D6522
:1032900074726F203200506172616D6574726F20BC
:1032A0006E6F2076616C69646F004552524F5238E0
:1032B000004552524F522053442E20496E74656E81
:1032C0007465206465206E7565766F0000000000EF
:1032D000030000003300000033030000333300001C
:1032E0003333030033C00C00FF0FFF0F5555555506
:1032F00033333333777777770C00FCFFCC00FCFF58
:10330000CC0CFCFFCCCCFCFF0C00FCFFF0FFFFFF63
:103310000E945003E8EEFBE40E9423200E941D1C43
:103320000E94241C82E080931903ACE2B3E08C91EC
:1033300086FB16F00C94AF1970912C037F7B709371
:103340002C03E2E7F9E40E9423200E941D1CA2EC5A
:10335000B6E00E94171C0E94241C0E946E1200916D
:103360002B03013011F00C94091A70912B037E7F0E
:1033700070932B03ABE1B3E08C918F5F8C93ABE147
:10338000B3E00C9145E00E942E228C9300911B0328
:10339000003011F00C94091AA0E3B1E0EEEFFBE469
:1033A0000E9423200E94B41FA0E3B1E00E943E22AD
:1033B000AFE1B1E08D9388278C93AFE1B1E0ED915F
:1033C000FC91A0E3B1E00E947C22A2E4B2E00D9364
:1033D0001D932D933D93A0E3B1E00E940E1CECE8F9
:1033E000F9E40E9423200E94B41FE2E4F2E0A0E38B
:1033F000B1E00E940E1C0E94CA21E8E7F9E40E9495
:1034000023200E941D1CA0E3B1E00E94171C0E9413
:10341000241CA7E4B2E08C9185FB16F00C9495195E
:1034200081E080931903ACE2B3E08C9186FB16F047
:103430000C942D1A70912C037F7B70932C03E2E780
:10344000F9E40E9423200E941D1CA2ECB6E00E9419
:10345000171C0E94241C0E946E1281E080931C01A4
:1034600000911C01063018F011F00C94F41A009130
:103470001C0141E0041BADE1B1E00C9380911D0102
:10348000AAE2B3E00E940E200E9404200C900822C1
:10349000689409F4E89416F00C94EC1A80911D01DC
:1034A000AAE2B3E00E940E200E9404208C9189239E
:1034B0008C9300911C01013011F00C946B1AE6E022
:1034C000FCE40E9423200E941D1C0E94241C0E94D8
:1034D0004A0C0C94EC1A023011F00C947B1AECE0BC
:1034E000FCE40E9423200E941D1C0E94241C0E94B8
:1034F0007A0D0C94EC1A033011F00C94C61AE2E128
:10350000FCE40E9423200E941D1C0E94241CA0E3B6
:10351000B1E0EEEFFBE40E9423200E94B41FA0E381
:10352000B1E00E943E22AFE1B1E08D9388278C93F9
:10353000AFE1B1E0ED91FC91A0E3B1E00E947C220B
:10354000A2E4B2E00D931D932D933D93A0E3B1E06F
:103550000E940E1CECE8F9E40E9423200E94B41F94
:10356000E2E4F2E0A0E3B1E00E940E1C0E94CA2156
:10357000E8E7F9E40E9423200E941D1CA0E3B1E0CB
:103580000E94171C0E94241C0C94EC1A043011F0A9
:103590000C94CE1A0E94A4050C94EC1A053011F07C
:1035A0000C94DE1AE8E1FCE40E9423200E941D1C1A
:1035B0000E94241C0E94FA0E0C94EC1A063011F0A2
:1035C0000C94EC1AEEE1FCE40E9423200E941D1CE6
:1035D0000E94241C0E944E10ACE1B1E08C918F5FE0
:1035E0008C9310F40C94301AA7E4B2E08C9183FB16
:1035F00016F00C94021B70914702777F709347027C
:103600000E9443061D990C94661B0027A3E2B0E0BC
:103610008C9185FB00F94427A7E4B2E08C9186FBEE
:1036200040F9041711F40C94641B8AE090E00E94A6
:10363000951C1D990C94641BE4E2FCE40E94232079
:103640000E941D1CA3E2B0E08C9185FBA0E8BFE3C3
:103650000E9414208D9388278C930E94151C0E9431
:10366000241CA3E2B0E08C9185FBA7E4B2E08C912E
:1036700086F98C93E0E0F1E00E94321FA1E2B1E014
:103680000D931D932D933D93A1E2B1E00D911D91FA
:103690002D913C9141E050E060E070E00E942A21D1
:1036A000A1E2B1E00D931D932D933D93E1E2F1E092
:1036B000ABE9B2E00E94731FE1E2F1E0A6EAB2E0FA
:1036C0000E946B1F0E9421110C94C51B0027A3E2CE
:1036D000B0E08C9185FB00F94427A7E4B2E08C911F
:1036E00086FB40F9041711F40C94C51B8AE090E0A6
:1036F0000E94951C1D9B0C94C51BE4E2FCE40E94F7
:1037000023200E941D1CA3E2B0E08C9185FBA0E861
:10371000BFE30E9414208D9388278C930E94151C70
:103720000E94241CA3E2B0E08C9185FBA7E4B2E0E8
:103730008C9186F98C93E0E0F1E00E94321FA1E2C7
:10374000B1E00D931D932D933D93A1E2B1E00D9156
:103750001D912D913C9141E050E060E070E00E94AD
:103760002521A1E2B1E00D931D932D933D93E1E25C
:10377000F1E0ABE9B2E00E94731FE1E2F1E0A6EAFA
:10378000B2E00E946B1F0E9421110C94131AED915C
:10379000FC91EF5FFF4FFC93EE93089509D00E94D8
:1037A000871F00FC10D0089503D01ED001F8F9CF78
:1037B0000024E89457FF02C009D0689400F80BD0A9
:1037C00010F80124089502D009D00895509540952D
:1037D0004F5F5F4F0895E89417FF08950095109587
:1037E0000F5F1F4F68940895352F242FE894452BC1
:1037F00011F468940895512F402F0027112780E17C
:10380000440F551F001F111F021B130B416018F4BA
:10381000020F131F4E7F8A9599F708958F938D910C
:103820008823E9F711978F910895A0E8BFE38D9160
:10383000882311F00CD0FBCF08950E94BA1F802D71
:1038400011F005D0FACF08958DE001D08AE0009004
:10385000C00005FEFCCF8093C60008950090C8000C
:1038600005FEFCCF8093CE00089500FC05D008959E
:1038700030D005D001F8F9CF37D03FD00895842F4C
:10388000952FA62FB72FE894452B462B472B11F4E5
:1038900068940895402F512F622F732F002711270E
:1038A00022273327F0E2440F551F661F771F001FA2
:1038B000111F221F331F081B190B2A0B3B0B4160E2
:1038C00028F4080F191F2A1F3B1F4E7FFA9559F73E
:1038D00008950024E89477FF02C006D0689400F8A9
:1038E00009D010F80124089512D04F5F5F4F6F4F39
:1038F0007F4F0895E89437FF08950095109520951F
:1039000030950F5F1F4F2F4F3F4F6894089540959C
:1039100050956095709508953197F1F708956894E2
:1039200062F80895E89462F80895EF93FF93EE2704
:10393000E82BE92B31F0E0EAFFE03197F1F701974E
:10394000D1F7FF91EF9108958DE207FD8D938F2DB3
:10395000881F802F881F8F57082F6894F7F8802FB3
:1039600087FF17C080958395082F80E38D938EE2A3
:103970008D93802F815238F080E38D9399279C930B
:103980000E941820089544270A95802F09F19ED09F
:103990001FC0805230F09EE49D9381E48D939D93EF
:1039A000EDCF4427DF92EF92FF920F938FE1801BC0
:1039B00011F0082F8BD091D09EE29D930F91FF9034
:1039C000EF90DF9044270395003209F4D5CF33D030
:1039D0003F93ECE6FAE30E94232038E12F2D1E2DC1
:1039E0000D2DFF24EE24DD244427000F111F221F7C
:1039F000B8F42F923F920E94BA1F102C0E94BA1F57
:103A0000202C0E94BA1F302C0E94BA1F31970E94AE
:103A1000E91F410DD21CE31CF01C3F902F9003C006
:103A200033960E94E21F31960E94E21F3A95E9F612
:103A30003F9107D0A5CFDD0CEE1CFF1C0A95D9F7EE
:103A40000895002719E058D08F93802B11F003952B
:103A500001C08F911A95B9F7802F882309F48CCF74
:103A60008F91805D8D930A95D9F788CF0065CD1D24
:103A700080B2E60E40597307A0ACB90350D6DC0102
:103A8000286BEE0094357700CA9A3B0065CD1D0087
:103A9000B2E60E0059730700ACB90300D6DC010092
:103AA0006BEE0000357700009A3B0000CD1D000052
:103AB000E60E000073070000B9030000DC010000FF
:103AC000EE000000770000003B000000F694E79451
:103AD000D79447950A95D1F7089500270DD08F9375
:103AE00003958F2D8E298D29842BC1F78F91805DB1
:103AF0008D930A95D9F742CF1F930F93002710E2B9
:103B0000440FDD1CEE1CFF1C001F802F9AE0890B68
:103B100010F0082F43951A9599F7802F0F911F9158
:103B20000895082748E01695079510F412270125F7
:103B30004A95C9F7089531E005C032E003C033E08B
:103B400001C034E00FEF1FEF20EA91E0192EE9DF0A
:103B500046D08991682FE5DF42D08991E2DF3FD0DE
:103B60008991DFDF3CD05991613078F0653068F49D
:103B70008827D7DF34D0852F869509F481E0D1DFFF
:103B80002ED0802F2CD0812F2AC0663041F49D91F9
:103B90008C91C7DF24D0892FC4DF21D0F2CF6031D0
:103BA000E9F48827BEDF1BD0852F869509F481E0D4
:103BB000682FB7DF14D0862F880FB3DF10D05130B5
:103BC00019F488279D9102C09D918D91AADF07D09D
:103BD000892FA7DF04D06A95B9F7D3CF0895313084
:103BE00011F40C94271C323011F40C942E1C0895FF
:103BF000A6E0B1E0E3E0F1E00E94451E33970C94AB
:103C0000211EE6E0F1E0A3E0B1E00C94331EEFE00A
:103C1000F1E0A0E0B1E00C940F1EADE0BB2786817F
:103C200097810E9434200D93838194810E943420D7
:103C30000D93808191810E9434200D930895EDE0D1
:103C4000FF2782810E9429208AE38D9381810E942F
:103C500029208AE38D9380810E94292088278C93D4
:103C60000895ADE0BB27808191810E9434200D939F
:103C7000838194810E9434200D93868197810E94D4
:103C800034200D930895EDE0FF2780810E942920C4
:103C90008FE28D9381810E9429208FE28D93828112
:103CA0000E94292088278D93089521D00F2D0695F5
:103CB00006950F0D0D0D8F2D837021F41E2D1330E1
:103CC0000AF40A958E2D8A959927E2EEFCE30E946C
:103CD0002320A8E1BB270E94D61F080F47E00C94C1
:103CE0002E2205010104060204000305010393E0EE
:103CF000ADE002C096E0AAE0B0E08FB7F894019181
:103D00000D939A95E1F78FBF08950191119145EBBD
:103D100055E00E94D41B440F440FF42E0F311507B9
:103D200028F481E0E82E0395D02E24C00C3315072B
:103D300028F482E0E82E0E51D02E1CC00150150B45
:103D40004DE651E00E94F41BF40E7CE07A95872F3B
:103D50009927E6E7FDE30E942320A2E1BB270E940A
:103D6000D01F0217130790F37395E72E021B130B56
:103D70000395D02E089500001F003B005A007800E4
:103D80009700B500D400F300110130014E010191FC
:103D900011912191308140E851E561E070E00E948D
:103DA000381C042F152F0C94871EA1DF0E2D0A95A9
:103DB000802F0295003220F01F2D137009F4039517
:103DC000DA940D0D11279927EEEDFDE30E942320D3
:103DD000A8E1BB270E94D61F080F111F0895000FEE
:103DE0001B2A384755647381909E81DF0F2D112760
:103DF0004CE355270E94CE1B55270E0D151F4CE393
:103E000022273327662777270E94911F0D0D131F46
:103E1000231F08956CDFDF92EF92FF920F2D112781
:103E2000222733274DE651E060E070E00E94911FA9
:103E3000FF904F2D4D5F469546955527662777276E
:103E40000E942521EF90DF900F931F932F933F93B4
:103E50000E94D61E222733277F916F915F914F9149
:103E60000C94252147DFAF92BF92CF920E940B1F87
:103E700040E851E561E070E00E94911FFF90EF90F3
:103E8000DF900F931F932F933F930E94F61E7F9115
:103E90006F915F914F910C94252101911191219186
:103EA000308140E851E561E070E00E94381C0C94DC
:103EB0005D1F019111912191308140E15EE060E050
:103EC00070E00E94381CF42E4CE350E00E94D41B9A
:103ED000E42ED02E0895AF93BF930E944D1FBF9143
:103EE000AF910C941F1EAF93BF930E94C71EBF914A
:103EF000AF910C94431E41E2FF2747BF8491089580
:103F000001911191219130810895015010400F923B
:103F1000B801469F8001479F100D569F100D0F90CE
:103F200008950F921F922F92C801D901489F8001D6
:103F30004A9F90014B9F202C499F100D211D321D3F
:103F40005A9F202C589F100D211D321D599F200D66
:103F5000311D689F200D311D699F300D789F300DF8
:103F60002F901F900F9008950E94BA1F0D9200206D
:103F7000D9F70895D895319628F48F938BB7839508
:103F80008BBF8F910020089591E005C092E003C09F
:103F900094E001C098E0EEDF0D929A95E1F7089564
:103FA000880F991FE80FF91F0DD0F0CFE80FF91F08
:103FB00009D0EACF880F991F880F991FE80FF91FC2
:103FC00001D0E6CF28F48F938BB783958BBF8F9169
:103FD000089528F48F938BB78A958BBF8F9108959E
:103FE0000196019721F00E94BA1FE9F7FACF0895D0
:103FF000819104D08D938823D9F70895813618F0E4
:104000008B3708F48F7D089591E0882321F0889400
:10401000991F8A95E9F7892F90950895883018F0AF
:1040200011968850FBCF089580E30EF48395089590
:104030000F9200240BBE0F9008950F9301E00BBF69
:104040000F91889408950F930027F9CF0F9302E002
:10405000F6CF00278A3018F08A500395FBCF005D19
:104060000D93805D8D930895805390530027813088
:1040700018F0065F8A95FBCF090F0895AF93BF93A1
:104080000F939F938F938FB78F93A0E0B1E08C91A4
:1040900083958D938C3309F03DC088278E931196BC
:1040A0008C9183958D938C3309F034C088278E933F
:1040B00011968C9183958D93883161F588278E9325
:1040C00011968C9183958D939C910EE1943089F09B
:1040D000963079F0993069F09B3059F00CE19230CC
:1040E00039F411969C911197937019F4039501C0BE
:1040F0000FE1801778F071F081E08E9311968C912A
:1041000083958D938D3031F481E08E9311968C914F
:1041100083958C938F918FBF8F919F910F91BF91BA
:10412000AF910F921F922F923F924F925F927F9288
:10413000AF92BF920F931F932F933F934F935F9331
:104140006F937F938F939F93AF93BF93CF93DF939F
:10415000EF93FF939FB79F939BB79F9399279BBF25
:104160000E94D1029F919BBF9F919FBFFF91EF91B2
:10417000DF91CF91BF91AF919F918F917F916F917F
:104180005F914F913F912F911F910F91BF90AF90F1
:104190007F905F904F903F902F901F900F901895B9
:1041A00099278D9193958823E1F7939511968C9398
:1041B00011978E919A95D1F70895EA2FFB2F00243D
:1041C0004C918D9103948E32E1F711248D911394CB
:1041D0008823E1F71A94101640F41197202F211923
:1041E000239580E38D932A95E9F7113039F59927C6
:1041F000AE2FBF2FA00DB91FA00FB91F8C919C939C
:10420000853308F421C031E08E918E32E9F38D328E
:1042100041F0830F8A3319F480E331E001C0332782
:104220008C93AE1789F7332341F0AE2FBF2FB8DF41
:1042300081E34D3209F43196808308958827E00D9B
:10424000F81FE00FF81F80830895040F151F261F25
:10425000371F0895041B150B260B370B0895041701
:104260001507260737070895000F111F221F331F58
:10427000089500951095209530950F5F1F4F2F4F93
:104280003F4F0895019110810FC00E94801F0EC002
:104290000E94801F10C00191108117FF05C03FEFE1
:1042A0002FEF04C0008111272227332737FF03C0D7
:1042B000E0DF8DE28D93CF92DF92EF92AA24BB24B0
:1042C000CC24DD24EE2440E2EAE0FF2755E093E32E
:1042D0008081890F87FD9F7083FD907F891B81936B
:1042E0005A95A9F7C1DFAA1CBB1CCC1CDD1CEE1C17
:1042F0004A9551F7E894EFE0FF2782910BD0EB301D
:10430000E0F71EF068948A2D09D04D93EF90DF906E
:10431000CF900895982F829501D0892F8F70805D5E
:1043200026F0803309F4089568948D93089500274A
:104330001127222733271DD08A3328F4803318F021
:1043400005D015D0F9CF0EF494CF089580538F93F4
:10435000402F512F622F732F87DF86DF76DF84DFB8
:104360008F919927080F191F291F391F08958D91C3
:104370000895E894FCDF8032E9F38B32D9F3893079
:10438000C9F38D3211F46894F2CF089541E003C06F
:1043900042E001C044E0E40F8827F81F8291982F83
:1043A000829506D0892F04D04A95C1F70C94EF214D
:1043B0008F708A3008F0895F805D8D93089541E0A9
:1043C000E40F8827F81F829138E098E1880F991F41
:1043D0009D933A95D1F74A95B1F70C94EF21882730
:1043E0008D93089581918D938823E1F7089594E04A
:1043F00081918D939A95E1F708950991919199236F
:1044000059F08A95D9F73197002331F081918D9336
:104410000A958823C9F70895E2CFF999FECFE1BD47
:10442000F2BD3196089591E001C092E07B3751F4DE
:104430007FB7F894F2DF8D9180BDFA9AF99A9A9538
:10444000C9F77FBF7727089591E001C092E0E5DFCB
:10445000F89A80B58D939A95D1F70895FF93881BAC
:10446000F9E0001FFA9511F4FF910895881F841B4D
:1044700018F4840F8894F5CF0894F3CF8FEF8395C9
:104480009D919923E1F70895689401C0E894AF9352
:10449000BF938D9116F0919103C00E94BA1F902D89
:1044A000891718F011F48823A1F7BF91AF910895EF
:1044B0000D919981903009F013D0502788E0440F76
:1044C000551F10F4422753278A95C9F7319781F772
:1044D00089919991803019F08A0105D0A801089539
:1044E00088E0112701C080E1080116940794001F9D
:1044F000111F8A95D1F708950FEF1FEF2FEF3FEFB0
:1045000060E273E888EB9DEE0D90002548E088940A
:10451000379527951795079520F4062717272827FD
:1045200039274A95A1F7319779F70095109520958D
:1045300030950895689401C0E8942227102F23171E
:1045400009F4089526F40E94BA1F802D01C08191BC
:10455000803081F0891741F070E08D931A9591F7C2
:10456000239571E01D93EACF01D0E8CF703011F0B0
:1045700077270895772331F42395882713958D9312
:104580001A95E9F70895B7FE089590E8B91611F461
:10459000D0FE08959FEFD91AE90AF90A09F40395A4
:1045A0000895D190E190F190019108952191319178
:1045B000419151910895502F2D2D3E2D4F2D612F5A
:1045C0000895652F90E8440F551F5927990F479577
:1045D0006078102F90E8FF0C001F0927990FF794BF
:1045E000107800380895FF0C90E89027110F9795E8
:1045F000F794092F08951127BD2CDE2CEF2CF02EF7
:104600000EE1FF2039F4FE2CED2CDB2CBB240850EE
:10461000C2F775C032F00A95BB0CDD1CEE1CFF1C06
:10462000F9CFB1DFE0CF102FBD2CDE2CEF2CF02E18
:1046300011234AF4B094D094E094F0949FEFB91A07
:10464000D90AE90AF90A0EE1FF2039F4FE2CED2C13
:10465000DB2CBB240850C2F752C032F00A95BB0CC9
:10466000DD1CEE1CFF1CF9CF8EDFBDCF2DEC3CEC2A
:104670004CEC5DE366270FC094DF9DDFDD24EE2464
:1046800090E8F92E0FE307C091DF05C022273327FA
:1046900040E251E46627552351F1002381F191DF77
:1046A00071F11627005850580894050B18F407FDAF
:1046B00003C025C007FD23C0469537952795F6947E
:1046C000E794D79425D0FF202AF0DD0CEE1CFF1CC8
:1046D000015073F09D2D969548F0DD203AF4EE20C0
:1046E0002AF491E0D90E9927E91EF91E7CCF07C064
:1046F0009FE7092FF92A9FEFD92EE92E0895DD248F
:10470000EE24FF240027112708950FE79FEFF2CF33
:104710009F929924AA24BB2488E1D216E306F406CA
:1047200028F0D21AE30AF40A089401C08894991C6C
:10473000AA1CBB1CDD0CEE1CFF1C8A9571F7D92C42
:10474000EA2CFB2C9F9008953CDFD9F05038C9F03B
:1047500016270058952F90580894091F12F418F442
:104760000EC008F00EC00FD0FF202AF0BB0CDD1CDD
:10477000EE1CFF1C02C0039513F005DF34CF0C9430
:1047800078230C947F239F92FF92EF928D2DFF242C
:10479000EE24DD24BB2493E0849F1001829FB00CA3
:1047A000D11CE21CF31C839FD00CE11C2224F21CC0
:1047B0009A9531F0BD2CDE2CEF2CFF248F91ECCF9D
:1047C0009F9008950E94BA1F202D0E94BA1F302D7D
:1047D0000E94BA1F402D0E94BA1F502D089500005C
:1047E0007A440000C842000080BF30372F30312F9C
:1047F0003235000031313A32383A303000002A2A5E
:104800002A2A2A2A2A2A2A2A2A2A20454D45544574
:10481000522032303235202A2A2A2A2A2A2A2A2AC3
:104820002A2A2A0033302D30312D323032362031D1
:10483000353A34363A333800302E302E31333900A1
:10484000454D455445522E42415300004175740078
:104850003D002C204F46460049447365723C0000E1
:104860003E00556C74696D6120414354434C4B20AC
:1048700000002C00454E414255473D004944536CD1
:104880006176653E0000434E5452696E693D0000FA
:104890005472792000005074723D00002C20416455
:1048A00064723D00545820005054524D44423D0023
:1048B000563366733D0056613D0056623D005663B7
:1048C0003D004933733D000049613D0049623D00B0
:1048D00049633D0045616733733D00004561673DB5
:1048E00000004562673D00004563673D000050776A
:1048F0007233733D0000507772613D0050777262F1
:104900003D00507772633D00456133733D00457251
:1049100033733D00667265633D0043543D00565459
:104920003D00507472206E6F2076616C000052451D
:1049300047204D4442204445433D00002C2048453B
:10494000583D00002C204445433D00004352432085
:104950006661696C20656E20414444523D00457398
:104960007065726120525049200052504974783E5F
:104970000000534552313D002400545841555431F4
:10498000203B0000412C00002D310000260054582F
:1049900041555434203B00002D32000054584155FD
:1049A0005435203B00002D3500002C2C2C00545891
:1049B00041555436203B00002D3600002C2C2C2C69
:1049C0002C2C00004F4B0000455252005345544DD3
:1049D000424400004E4557204D444320434D44007F
:1049E00053455444414100004E6F20636D6420766E
:1049F000616C00004C454556465700005665727381
:104A0000696F6E2046573A204665636861203C0016
:104A100033302D30312D323032362031353A343684
:104A20003A3339003E2C204172636869766F203C2E
:104A300000005345544C45440000536520636F6E9D
:104A4000666967757261207365746C6564206120A6
:104A50000000525354564152000056616C6F72650B
:104A60007320706F722064656661756C74005345C5
:104A700054434C4B00003A00543E00002F00443E8B
:104A800000005741544348494E4720494E464F5233
:104A90004D412E20536520636F6E66696775726F96
:104AA0002072656C6F6A20656E2000002061200016
:104AB000534953434C4B0000486F7261206163744B
:104AC00075616C3D00002C20466563686120616360
:104AD0007475616C3D004C4545434C4B0000556C72
:104AE00074696D612041435420434C4B2061203D4B
:104AF00000002C2064656C2000005345544155543F
:104B00000000536520636F6E66696775726F20746D
:104B100078204155542000005345544F464600002C
:104B20004C4545415554000054782041757420008F
:104B30004C45454F464600004F66667365742041FC
:104B4000757420005345544E45570000536520614D
:104B5000637469766F2054782E20415554200000EC
:104B60005345544255470000536520636F6E666994
:104B70006775726F20454E414255473D00004C45D8
:104B80004542554700004C454552494400004944C0
:104B900020736572203C0000534554444952000084
:104BA000536520636F6E66696775726F2049447341
:104BB0006C617665206120004C45454449520000F7
:104BC0004944736C617665203D0053455452454C11
:104BD000000052455345542072656C6500005345F2
:104BE000542072656C6500004573706572612043E6
:104BF0004C4B2064656C20536572766572004143AE
:104C000054434C4B0000415554310000415554323F
:104C100000004155543300004155543500004155C2
:0E4C200054360000537075657274613D0000DB
:00000001FF
