:100000000C94460018950000189500001895000003
:10001000189500001895000018950000189500002C
:100020001895000018950000189500000C94FC1518
:10003000189500001895000018950000189500000C
:1000400018950000189500000C94A2011895000066
:100050000C94B70018950000189500001895000042
:1000600018950000189500001895000018950000DC
:100070000C9449011895000018950000189500008F
:100080001895000018950000189500008FEF8DBF9F
:10009000C0E8E8E94E2E80E48EBFD0E4FFE35F2E97
:1000A000A89584B7082E882784BF88E19927809374
:1000B000600090936000EEEFFFE3A0E0B1E08827DE
:1000C0008D933197E9F787E68093C40080E08093B1
:1000D000C50088E18093C1006624209A85E085BD33
:1000E00080E084BD70916E00716070936E0085E059
:1000F00085BD80E28093B60085E08093B100709169
:100100007000716070937000A6E0B1E0EAE5F2E380
:100110000E94E1150E9476150E94C513AFE0B1E080
:10012000E4E6F2E30E94E1150E9476150E94CB13EB
:100130007091C10070687093C10080E18093CC0021
:1001400080E08093CD007091C80072607093C80009
:1001500087E08093CA0088E18093C900229A709159
:10016000C90070687093C90078940C94C0100F9205
:100170001F922F923F924F925F927F92AF92BF92C7
:100180000F931F932F933F934F935F936F937F939F
:100190008F939F93AF93BF93CF93DF93EF93FF938F
:1001A0008FB78F938BB78F9388278BBFA4E7B6E069
:1001B0008091C6008C9384E2482F00917406041746
:1001C00011F00C94EE0070917E02786070937E02C4
:1001D000ABEAB5E088278C930C942B010D3011F01D
:1001E0000C941301AEE7B2E08C9183FB16F00C94F3
:1001F000110170917E02777F70937E0280E0ABEAFE
:10020000B5E00E94D2118D9388278C93EBEAF5E03C
:10021000A5E7B6E00E94B01770917E0274607093FB
:100220007E020C942B010F3118F011F00C941A017E
:100230000C942B01AEE7B2E08C9183FB16F00C948A
:100240002B01A4E7B6E08C91ABEAB5E00E94D21195
:100250008D9388278C938F918BBF8F918FBFFF9148
:10026000EF91DF91CF91BF91AF919F918F917F914E
:100270006F915F914F913F912F911F910F91BF907F
:10028000AF907F905F904F903F902F901F900F9076
:1002900018950F921F922F923F924F925F927F92EA
:1002A000AF92BF920F931F932F933F934F935F9300
:1002B0006F937F938F939F93AF93BF93CF93DF936E
:1002C000EF93FF938FB78F938BB78F9388278BBF55
:1002D000AEE3B7E08091CE008C93AEE7B2E08C91B4
:1002E00081FB16F00C948401A1E8B2E08C918F5F41
:1002F0008C9380913E07A1E8B2E0AD90BB24AEE3C1
:10030000B7E0AA0DBB1D8C938F918BBF8F918FBFD0
:10031000FF91EF91DF91CF91BF91AF919F918F911D
:100320007F916F915F914F913F912F911F910F910D
:10033000BF90AF907F905F904F903F902F901F9015
:100340000F9018950F921F922F923F924F925F92AB
:100350007F92AF92BF920F931F932F933F934F9330
:100360005F936F937F938F939F93AF93BF93CF933D
:10037000DF93EF93FF938FB78F938BB78F9388277C
:100380008BBF74E676BDABECB2E08C918F5F8C9343
:10039000ABECB2E00C9148E00E94EC178C9300911A
:1003A000CB02003011F00C941502ACECB2E00C91D1
:1003B00040E20E94EC178C93ECE3F1E20E94E1151D
:1003C000A1EDB2E08C919927ADECB2E00E949C15B2
:1003D0008091CC02ADECB2E00E94D0150E94C6150F
:1003E0000C900822689409F4E894AEE7B2E08C918E
:1003F00084F98C93AEE7B2E08C9184FB882780F976
:10040000809580FBAEE7B2E08C9184F98C93AEE7E7
:10041000B2E08C9184FBA5E2B0E08C9180F98C93E2
:10042000ACECB2E08C918F5F8C93AEE7B2E08C9134
:1004300081FB16F00C944002A9E8B2E00E948B11F7
:10044000A9E8B2E00D911C9140EA50E00E94B81179
:10045000A9E8B2E00D931C93A9E8B2E00D911C91BC
:10046000003050E0150711F00C94400270917E02AC
:100470007D7F70937E0270917E02706270937E0227
:100480008F918BBF8F918FBFFF91EF91DF91CF91B4
:10049000BF91AF919F918F917F916F915F914F919C
:1004A0003F912F911F910F91BF90AF907F905F90E0
:1004B0004F903F902F901F900F901895E0E0F1E043
:1004C0000E94F614A7EDB2E00D931D932D933D937A
:1004D00081E08093D5020091D502043018F011F02C
:1004E0000C94D7020091D50241E0041BA6EDB2E0C6
:1004F0000C93A7EDB2E00D911D912D913C91A5EDCE
:10050000B2E0AD90BB24AEE4B2E0AA0CBB1CAA0CD6
:10051000BB1CAA0DBB1D4D915D916D917C910E94FC
:10052000E816ABEDB2E00D931D932D933D93ABED2B
:10053000B2E00D911D912D913C91A5EDB2E0AD90F1
:10054000BB24AEE3B2E0AA0CBB1CAA0CBB1CAA0DD8
:10055000BB1D4D915D916D917C910E94FC11ABEDA5
:10056000B2E00D931D932D933D9340E050E060E089
:1005700070E0ABEDB2E00D911D912D913C910E9488
:10058000ED1611F00C94CF028091D602AFEDB2E0DF
:100590000E94D0150E94C6159C91982B9C93A5EDA6
:1005A000B2E08C918F5F8C9310F40C946B020895E1
:1005B0002898EEE6F2E30E94E1150E94E1110E9404
:1005C000E811A0E8BFE3E4E9F2E30E94E1150E942C
:1005D00076150E94D9110E94E811A0E8BFE3E8EA6D
:1005E000F2E30E94E1150E9476150E94D9110E9443
:1005F000E811A0E8BFE3E0EBF2E30E94E1150E94FE
:1006000076150E94D9110E94E81181E08093D102F1
:1006100081E08093190100911901043018F011F064
:100620000C949E03E9E1F1E0A190BB24EEEFFFEF13
:10063000AA0CBB1CAA0CBB1CEA0DFB1DA9E1B1E076
:10064000AD90BB24AEE3B2E0AA0CBB1CAA0CBB1C51
:10065000AA0DBB1D94E00E94E517E9E1F1E0A1902D
:10066000BB24EEE0F0E0AA0CBB1CAA0CBB1CEA0DFC
:10067000FB1DA9E1B1E0AD90BB24AEE4B2E0AA0C51
:10068000BB1CAA0CBB1CAA0DBB1D94E00E94E51765
:10069000ECEBF2E30E94E1150E94E111E9E1F1E0E7
:1006A000A0E8BFE30E9410170E94D911E0ECF2E32A
:1006B0000E94E1150E94E111E9E1F1E0A190BB2463
:1006C000EEE3F2E0AA0CBB1CAA0CBB1CEA0DFB1D5E
:1006D000A0E8BFE30E9403170E94D911E2ECF2E305
:1006E0000E94E1150E94E111E9E1F1E0A0E8BFE319
:1006F0000E9410170E94D911E0ECF2E30E94E1156C
:100700000E94E111E9E1F1E0A190BB24EEE4F2E006
:10071000AA0CBB1CAA0CBB1CEA0DFB1DA0E8BFE386
:100720000E9403170E94D9110E94E811A9E1B1E0CB
:100730008C918F5F8C9310F40C940B030E94040433
:10074000E8ECF2E30E94E1150E94E111A2E6B2E0BA
:100750000E94DB11E0EDF2E30E94E1150E94E1113D
:100760000E94E811E2E2F0E0A9E7B2E094E00E9422
:10077000E517E2EDF2E30E94E1150E94E111E9E7DD
:10078000F2E0A0E8BFE30E9437150E94D911E2EE23
:10079000F2E30E94E1150E94E111E9E7F2E0A0E82E
:1007A000BFE30E942F150E94D9110E94E811E0E0DA
:1007B000F0E0A0E4B2E00E94E217E4EEF2E30E946F
:1007C000E1150E94E111E0E4F2E0A0E8BFE30E943D
:1007D00010170E94D9110E94E811E1E0F0E0A1E4B5
:1007E000B2E00E94E217ECEEF2E30E94E1150E94F3
:1007F000E111E1E4F2E0A0E8BFE30E9410170E94DB
:10080000D9110E94E811089580E08093190180E0D9
:1008100080931A01A2E6B2E088278C938EE0809341
:10082000190100911901073118F011F00C942D04F1
:10083000E09119010E943F15082FE0E1F0E0A2E6E7
:10084000B2E00E94D2110E948417A9E1B1E08C911C
:100850008F5F8C9310F40C941104E2E6F2E0A0E3B5
:10086000B1E00E94B017A2E6B2E088278C938EE038
:100870008093190100911901073118F011F00C94BF
:100880005604E09119010E943F15082FE0E1F0E0C5
:10089000A2E6B2E00E94D2110E948417A9E1B1E061
:1008A0008C918F5F8C9310F40C943A04E0E3F1E0A8
:1008B000A2E6B2E00E94041811F00C94620481E0F8
:1008C00080931901AAE1B1E08C918F5F8C93009124
:1008D0001901003011F00C94810484EF91E00E9422
:1008E0005912E6EFF2E30E94E1150E94E111EAE1FC
:1008F000F1E0A0E8BFE30E9410170E94D9110E9406
:10090000E81100911901013081E009F080E08F9336
:1009100000911A010A3081E009F080E09F91892B53
:10092000882311F40C940A04089500E010E020E0FC
:1009300030E0A1E2B1E00D931D932D933C9381E053
:100940008093190100911901043018F011F00C94F2
:10095000EB04E9E1F1E0A190BB24EEEFFFEFAA0C7C
:10096000BB1CAA0CBB1CEA0DFB1D0CE211E020E035
:1009700030E0A0E1BB2794E07BE70E94D417E9E1D7
:10098000F1E0A190BB24EEE0F0E0AA0CBB1CAA0CA5
:10099000BB1CEA0DFB1DA1E2B1E094E07BE70E94E5
:1009A000D417A1E2B1E00D911D912D913C914CE342
:1009B00050E060E070E00E94E316A1E2B1E00D9328
:1009C0001D932D933D93A9E1B1E08C918F5F8C93A2
:1009D00010F40C94A2040895ABE1B1E08C918F5F08
:1009E0008C93ABE1B1E00C9100FB16F40C94000584
:1009F00080E091E3AFE7B2E08D939C930C94060501
:100A00008CE091E3AFE7B2E08D939C9381E080931B
:100A10001E0100911E01003318F011F00C94220504
:100A200080E0AEE1B1E0AD90BB24AEE3B7E0AA0D4B
:100A3000BB1D8C93AEE1B1E08C918F5F8C9310F471
:100A40000C94090580E080938102A0E4B2E00C914F
:100A500003FB16F00C944C05ECEFF2E30E94E11559
:100A60000E94E111EFE7F2E0A0E8BFE30E948617E1
:100A70000E94D9110E94E81180E18A93AFE7B2E0A9
:100A80008D919C918A939A9384E08A9380914102FC
:100A90000E945F130E94E81170917E027260709351
:100AA0007E022A9A80E18A93AFE7B2E08D919C9111
:100AB0008A939A9384E08A93809141020E94611301
:100AC000EF93FF93ECEAF4E00E945012FF91EF9154
:100AD0002A9870917E02706470937E020895A0E45B
:100AE000B2E00C9103FB16F00C94B005E0E0F3E3E8
:100AF0000E94E1150E94E111E1E8F2E0A0E8BFE305
:100B00000E9410170E94D9110E94E81181E0809381
:100B10001E014091810200911E01041718F011F08E
:100B20000C94AE05EEE1F1E0A190BB24EEE3F7E01A
:100B3000EA0DFB1DA0E8BFE30E9484170E94D911B3
:100B4000E2EEF2E30E94E1150E94E111AEE1B1E0B4
:100B50008C918F5F8C9310F40C9489050E94E8119E
:100B60000091810242E0041BA2E8B2E00C930091E4
:100B7000820241E0040FA3E8B2E00C9300918302EB
:100B800041E0040FA4E8B2E00C9381E08A9381E095
:100B90008A93A2E8B2E0EC91FF274FEF5FEF25E0E8
:100BA00030E8AFE3B7E00E941618A5E8B2E04D9335
:100BB0005C93A4E8B2E0AD90BB24AEE3B7E0AA0D2D
:100BC000BB1D9C91A3E8B2E0AD90BB24AEE3B7E0BF
:100BD000AA0DBB1D8C91AFE1B1E08D939C93AFE169
:100BE000B1E04D915C91A5E8B2E00D911C91041724
:100BF000150711F00C946F0AAEE7B2E08C9186FBFA
:100C000016F00C94070AAFE7B2E00D911C9100308A
:100C100051E3150711F00C9404089091420780915C
:100C20004307A7E8B2E08D939C93E6E5F2E30E94C8
:100C3000E1150E941E19E7E8F2E0D190E080FF2460
:100C400000270E949B180E94C818EDE0F0E0ABE876
:100C5000B2E00E94B5179091440780914507A7E83C
:100C6000B2E08D939C93E6E5F2E30E94E1150E94C9
:100C70001E19E7E8F2E0D190E080FF2400270E94EF
:100C80009B180E94C818EDE0F0E0AFE8B2E00E94C7
:100C9000B5179091460780914707A7E8B2E08D937A
:100CA0009C93E6E5F2E30E94E1150E941E19E7E835
:100CB000F2E0D190E080FF2400270E949B180E9460
:100CC000C818EDE0F0E0A3E9B2E00E94B5179091FA
:100CD000480780914907A7E8B2E08D939C93E6E529
:100CE000F2E30E94E1150E941E19E7E8F2E0D190BC
:100CF000E080FF2400270E949B180E94C818EDE0A6
:100D0000F0E0A7E9B2E00E94B51790914A07809100
:100D10004B07A7E8B2E08D939C93E6E5F2E30E94CF
:100D2000E1150E941E19E7E8F2E0D190E080FF246F
:100D300000270E949B180E94C818EDE0F0E0ABE984
:100D4000B2E00E94B51790914C0780914D07A7E83B
:100D5000B2E08D939C93E6E5F2E30E94E1150E94D8
:100D60001E19E7E8F2E0D190E080FF2400270E94FE
:100D70009B180E94C818EDE0F0E0AFE9B2E00E94D5
:100D8000B51790914E0780914F07A7E8B2E08D9379
:100D90009C93E6E5F2E30E94E1150E941E19E7E844
:100DA000F2E0D190E080FF2400270E949B180E946F
:100DB000C818EDE0F0E0A3EAB2E00E94B517909108
:100DC000500780915107A7E8B2E08D939C93E6E528
:100DD000F2E30E94E1150E941E19E7E8F2E0D190CB
:100DE000E080FF2400270E949B180E94C818EDE0B5
:100DF000F0E0A7EAB2E00E94B517A0E4B2E00C91DF
:100E000003FB16F00C940408E8E0F3E30E94E115FC
:100E10000E94E111A0E8BFE3AF93BF93EBE8F2E0DB
:100E20000E9471180E94681211E002E0BF91AF9118
:100E30000E949B16E0E8FFE3A0E8BFE30E94B01722
:100E40000E94D9110E94E811EEE0F3E30E94E1153F
:100E50000E94E111A0E8BFE3AF93BF93EFE8F2E097
:100E60000E9471180E94681211E002E0BF91AF91D8
:100E70000E949B16E0E8FFE3A0E8BFE30E94B017E2
:100E80000E94D9110E94E811E4E1F3E30E94E11508
:100E90000E94E111A0E8BFE3AF93BF93E3E9F2E062
:100EA0000E9471180E94681211E002E0BF91AF9198
:100EB0000E949B16E0E8FFE3A0E8BFE30E94B017A2
:100EC0000E94D9110E94E811ECE1F3E30E94E115C0
:100ED0000E94E111A0E8BFE3AF93BF93E7E9F2E01E
:100EE0000E9471180E94681211E002E0BF91AF9158
:100EF0000E949B16E0E8FFE3A0E8BFE30E94B01762
:100F00000E94D9110E94E811E4E2F3E30E94E11586
:100F10000E94E111A0E8BFE3AF93BF93EBE9F2E0D9
:100F20000E9471180E94681211E002E0BF91AF9117
:100F30000E949B16E0E8FFE3A0E8BFE30E94B01721
:100F40000E94D9110E94E811EAE2F3E30E94E11540
:100F50000E94E111A0E8BFE3AF93BF93EFE9F2E095
:100F60000E9471180E94681211E002E0BF91AF91D7
:100F70000E949B16E0E8FFE3A0E8BFE30E94B017E1
:100F80000E94D9110E94E811E2E3F3E30E94E11507
:100F90000E94E111A0E8BFE3AF93BF93E3EAF2E060
:100FA0000E9471180E94681211E002E0BF91AF9197
:100FB0000E949B16E0E8FFE3A0E8BFE30E94B017A1
:100FC0000E94D9110E94E811EAE3F3E30E94E115BF
:100FD0000E94E111A0E8BFE3AF93BF93E3EAF2E020
:100FE0000E9471180E94681211E002E0BF91AF9157
:100FF0000E949B16E0E8FFE3A0E8BFE30E94B01761
:101000000E94D9110E94E811AFE7B2E00D911C9146
:101010000C3051E3150711F00C94050A909142072A
:1010200080914307A7E8B2E08D939C93E6E5F2E355
:101030000E94E1150E941E19E7E8F2E0D190E080DD
:10104000FF2400270E949B180E94C818EDE0F0E0E2
:10105000ABEAB2E00E94B517909144078091450732
:10106000A7E8B2E08D939C93E6E5F2E30E94E115D8
:101070000E941E19E7E8F2E0D190E080FF240027EB
:101080000E949B180E94C818EDE0F0E0AFEAB2E0C1
:101090000E94B5179091460780914707A7E8B2E0F4
:1010A0008D939C93E6E5F2E30E94E1150E941E19E0
:1010B000E7E8F2E0D190E080FF2400270E949B182F
:1010C0000E94C818EDE0F0E0A3EBB2E00E94B51773
:1010D0009091480780914907A7E8B2E08D939C93CF
:1010E000E6E5F2E30E94E1150E941E19E7E8F2E04E
:1010F000D190E080FF2400270E949B180E94C8180E
:10110000EDE0F0E0A7EBB2E00E94B51790914A073E
:1011100080914B07A7E8B2E08D939C93E6E5F2E35C
:101120000E94E1150E941E19E7E8F2E0D190E080EC
:10113000FF2400270E949B180E94C818EDE0F0E0F1
:10114000ABEBB2E00E94B51790914C0780914D0730
:10115000A7E8B2E08D939C93E6E5F2E30E94E115E7
:101160000E941E19E7E8F2E0D190E080FF240027FA
:101170000E949B180E94C818EDE0F0E0AFEBB2E0CF
:101180000E94B51790914E0780914F07A7E8B2E0F3
:101190008D939C93E6E5F2E30E94E1150E941E19EF
:1011A000E7E8F2E0D190E080FF2400270E949B183E
:1011B0000E94C818EDE0F0E0A3ECB2E00E94B51781
:1011C0009091500780915107A7E8B2E08D939C93CE
:1011D000E6E5F2E30E94E1150E941E19E7E8F2E05D
:1011E000D190E080FF2400270E949B180E94C8181D
:1011F000EDE0F0E0A7ECB2E00E94B517A0E4B2E0A9
:101200000C9103FB16F00C94050AE2E4F3E30E9450
:10121000E1150E94E111A0E8BFE3AF93BF93EBEAB1
:10122000F2E00E9471180E94681211E002E0BF9182
:10123000AF910E949B16E0E8FFE3A0E8BFE30E94A5
:10124000B0170E94D9110E94E811EAE4F3E30E946A
:10125000E1150E94E111A0E8BFE3AF93BF93EFEA6D
:10126000F2E00E9471180E94681211E002E0BF9142
:10127000AF910E949B16E0E8FFE3A0E8BFE30E9465
:10128000B0170E94D9110E94E811E2E5F3E30E9431
:10129000E1150E94E111A0E8BFE3AF93BF93E3EB38
:1012A000F2E00E9471180E94681211E002E0BF9102
:1012B000AF910E949B16E0E8FFE3A0E8BFE30E9425
:1012C000B0170E94D9110E94E811EAE3F3E30E94EB
:1012D000E1150E94E111A0E8BFE3AF93BF93E7EBF4
:1012E000F2E00E9471180E94681211E002E0BF91C2
:1012F000AF910E949B16E0E8FFE3A0E8BFE30E94E5
:10130000B0170E94D9110E94E811ECE5F3E30E94A6
:10131000E1150E94E111A0E8BFE3AF93BF93EBEBAF
:10132000F2E00E9471180E94681211E002E0BF9181
:10133000AF910E949B16E0E8FFE3A0E8BFE30E94A4
:10134000B0170E94D9110E94E811E6E6F3E30E946B
:10135000E1150E94E111A0E8BFE3AF93BF93EFEB6B
:10136000F2E00E9471180E94681211E002E0BF9141
:10137000AF910E949B16E0E8FFE3A0E8BFE30E9464
:10138000B0170E94D9110E94E811E0E7F3E30E9430
:10139000E1150E94E111A0E8BFE3AF93BF93E3EC36
:1013A000F2E00E9471180E94681211E002E0BF9101
:1013B000AF910E949B16E0E8FFE3A0E8BFE30E9424
:1013C000B0170E94D9110E94E811EAE7F3E30E94E6
:1013D000E1150E94E111A0E8BFE3AF93BF93E7ECF2
:1013E000F2E00E9471180E94681211E002E0BF91C1
:1013F000AF910E949B16E0E8FFE3A0E8BFE30E94E4
:10140000B0170E94D9110E94E8110C946D0A009146
:101410008102073011F00C94410A909142078091AB
:101420004307A7E8B2E08D939C93E2E8F3E30E94C0
:10143000E1150E94E111E7E8F2E0A0E8BFE30E94B5
:1014400000170E94D911E0E9F3E30E94E1150E9420
:10145000E111E7E8F2E0A0E8BFE30E9486170E94EE
:10146000D911E8E9F3E30E94E1150E94E111E7E8F0
:10147000F2E0A0E8BFE30E9400170E94D9110E9489
:10148000E81100918102083011F00C946D0A9091DE
:10149000430780914407A7E8B2E08D939C93E2E86C
:1014A000F3E30E94E1150E94E111E7E8F2E0A0E811
:1014B000BFE30E9400170E94D911E0E9F3E30E9404
:1014C000E1150E94E111E7E8F2E0A0E8BFE30E9425
:1014D00086170E94D9110E94E8110C94860AA0E494
:1014E000B2E00C9103FB16F00C94860AE0EAF3E3F9
:1014F0000E94E1150E94E111EFE7F2E0A0E8BFE3EE
:101500000E9486170E94D9110E94E8110895E2EB0B
:10151000F3E30E94E1150E94E111A5E7B6E00E9405
:10152000DB110E94E81181E0E5E7F6E006E00A93AE
:10153000ABE0B2E00E94BB17E5E7F6E09CE204E115
:1015400032E2A1EEB2E00E943C18A0EEB2E02C9391
:101550000091E002003018F011F00C94B10A0C94E4
:10156000E30A81E0809319014091E00200911901A2
:10157000041718F011F00C94E30AE9E1F1E0A0E897
:10158000BFE30E9410170E94D911E4EBF3E30E941D
:10159000E1150E94E111A9E1B1E00D91112745E1AA
:1015A00050E00E944915ACECB2E0A00FB11F0E94C0
:1015B000DB110E94E811A9E1B1E08C918F5F8C935F
:1015C00010F40C94B40AA1EEB2E00E94FC17082FAC
:1015D000063011F00C940F10E1EEF2E0A9E2B1E058
:1015E0000E94B017E9E2F1E0A9E2B1E00E94BA1569
:1015F0008FEF8093F901A9E2B1E0E6EBF3E30E94FB
:10160000E1150E94021811F00C94470B80E08093C2
:10161000F901A0E3B1E0EEEBF3E30E94E1150E94D3
:101620007615ABE0B2E0E2EDF3E30E94E1150E9433
:101630007615EBE0F2E0A0E3B1E00E94D2110E9447
:10164000B017A0E3B1E00E94D211E6EEF3E30E94EE
:10165000E1150E947615ABE0B2E0E0EBF2E30E9408
:10166000E1150E947615EBE0F2E0A0E3B1E00E9404
:10167000D2110E94B017A0E3B1E00E94D211E0EDB8
:10168000F2E30E94E1150E9476150C940D10E4EF30
:10169000F3E30E94E1150E94021811F00C94860BEE
:1016A0000091E002023011F00C94810BA6EFB2E041
:1016B0000E945517A9E1B1E00C9300911901013185
:1016C00010F00C947C0B80E08093F901A0E3B1E072
:1016D000ECEFF3E30E94E1150E947615E9E1F1E0F9
:1016E000A0E3B1E00E94D2110E941017809119016D
:1016F0008093D1020C947F0B85E08093F9010C94C8
:10170000840B84E08093F9010C940D10E4E1F4E380
:101710000E94E1150E94021811F00C949E0B80E0CB
:101720008093F901A0E3B1E0ECE1F4E30E94E1155C
:101730000E9476150E9495040C940D10E0E3F4E3EA
:101740000E94E1150E94021811F00C94AA0C00915D
:10175000E002023011F00C94A50CA6EFB2E00E945A
:10176000FC17082F0C3011F00C94A00C80E0809333
:10177000F90187E0E6EFF2E002E00A93ABE0B2E0C5
:101780000E94BB17ABE0B2E00E94D211E4EBF3E39E
:101790000E94E1150E94761589E0E6EFF2E002E092
:1017A0000A93ABE0B2E00E94D2110E94BB17ABE0FB
:1017B000B2E00E94D211E4EBF3E30E94E1150E9433
:1017C00076158BE0E6EFF2E002E00A93ABE0B2E0E0
:1017D0000E94D2110E94BB17ABE0B2E00E94DB1165
:1017E0000E94E811EBE0F2E0AFE0B1E00E94B01738
:1017F0000E94CB13E8E3F4E30E94E1150E94E1119B
:101800000E94BC13AFE0B1E00E94DB110E94E8111E
:1018100081E0E6EFF2E002E00A93ABE0B2E00E9482
:10182000BB17ABE0B2E00E94D211ECE3F4E30E94FC
:10183000E1150E94761583E0E6EFF2E002E00A93FC
:10184000ABE0B2E00E94D2110E94BB17ABE0B2E065
:101850000E94D211ECE3F4E30E94E1150E94761598
:1018600085E0E6EFF2E002E00A93ABE0B2E00E942E
:10187000D2110E94BB17ABE0B2E00E94DB110E94C4
:10188000E811EBE0F2E0A6E0B1E00E94B0170E94A0
:10189000C513EEE3F4E30E94E1150E94E1110E94FA
:1018A000BC13A6E0B1E00E94DB110E94E811A0E3A6
:1018B000B1E0E2E4F4E30E94E1150E9476150E9493
:1018C000BC13E6E0F1E0A0E3B1E00E94D2110E9477
:1018D000B017A0E3B1E00E94D211ECE6F4E30E945D
:1018E000E1150E9476150E94BC13EFE0F1E0A0E341
:1018F000B1E00E94D2110E94B017E3E0F1E00E9433
:101900001914ADE7B2E08C93E0E0F1E00E94F61428
:10191000A9E7B2E00D931D932D933D93E2E2F0E031
:10192000A9E7B2E094E07BE70E94D41770917E02B1
:10193000706870937E0281E08093D1020C94A30CB6
:1019400086E08093F9010C94A80C84E08093F9015F
:101950000C940D10E0E7F4E30E94E1150E940218D8
:1019600011F00C94EA0C80E08093F9010E94BC1302
:10197000EFE0F1E0ABE0B2E00E94B017A0E3B1E02D
:10198000E8E7F4E30E94E1150E947615EBE0F2E04F
:10199000A0E3B1E00E94D2110E94B017A0E3B1E031
:1019A0000E94D211E6E8F4E30E94E1150E94761548
:1019B0000E94BC13E6E0F1E0ABE0B2E00E94B01799
:1019C000EBE0F2E0A0E3B1E00E94D2110E94B01778
:1019D0000C940D10E6E9F4E30E94E1150E94021850
:1019E00011F00C94260D80E08093F901E9E7F2E014
:1019F000ABE0B2E00E942F15A0E3B1E0EEE9F4E322
:101A00000E94E1150E947615EBE0F2E0A0E3B1E060
:101A10000E94D2110E94B017A0E3B1E00E94D2113F
:101A2000E2EBF4E30E94E1150E947615E9E7F2E0AB
:101A3000ABE0B2E00E943715EBE0F2E0A0E3B1E0EA
:101A40000E94D2110E94B0170C940D10EAEBF4E33F
:101A50000E94E1150E94021811F00C94BD0D009136
:101A6000E002033011F00C94B80DA6EFB2E00E9432
:101A70005517AEE1B1E00C9300911E01003080E0FB
:101A800010F009F081E08F9300911E01053081E094
:101A900008F080E09F918923882311F40C94B30D02
:101AA000ABE0B3E00E945517A5E2B1E00D931D93A2
:101AB0002D933D93A5E2B1E00D911D912D913C91A7
:101AC000AEE1B1E0AD90BB24AEE3B2E0AA0CBB1C2A
:101AD000AA0CBB1CAA0DBB1D0D931D932D933C930B
:101AE000EEE1F1E0A190BB24EEEFFFEFAA0CBB1CEE
:101AF000AA0CBB1CEA0DFB1DA5E2B1E094E07BE75C
:101B00000E94D41780E08093F901A0E3B1E0E2ECF9
:101B1000F4E30E94E1150E947615EEE1F1E0A0E306
:101B2000B1E00E94D2110E941017A0E3B1E00E9420
:101B3000D211E4EBF3E30E94E1150E947615EEE189
:101B4000F1E0A190BB24EEE3F2E0AA0CBB1CAA0CCE
:101B5000BB1CEA0DFB1DA0E3B1E00E94D2110E9464
:101B600003170C94B60D83E08093F9010C94BB0D20
:101B700084E08093F9010C940D10E8EDF4E30E94E9
:101B8000E1150E94021811F00C94540E0091E0022D
:101B9000033011F00C944F0EA6EFB2E00E945517DF
:101BA000AEE1B1E00C9300911E01003080E010F036
:101BB00009F081E08F9300911E01053081E008F06B
:101BC00080E09F918923882311F40C944A0EABE0A6
:101BD000B3E00E945517A5E2B1E00D931D932D933C
:101BE0003D93A5E2B1E00D911D912D913C91AEE1A7
:101BF000B1E0AD90BB24AEE4B2E0AA0CBB1CAA0CD1
:101C0000BB1CAA0DBB1D0D931D932D933C93EEE1C0
:101C1000F1E0A190BB24EEE0F0E0AA0CBB1CAA0C02
:101C2000BB1CEA0DFB1DA5E2B1E094E07BE70E943E
:101C3000D41780E08093F901A0E3B1E0E2ECF4E393
:101C40000E94E1150E947615EEE1F1E0A0E3B1E01B
:101C50000E94D2110E941017A0E3B1E00E94D2119D
:101C6000E4EBF3E30E94E1150E947615EEE1F1E06A
:101C7000A190BB24EEE4F2E0AA0CBB1CAA0CBB1C96
:101C8000EA0DFB1DA0E3B1E00E94D2110E940317F0
:101C90000C944D0E83E08093F9010C94520E84E075
:101CA0008093F9010C940D10E0EEF4E30E94E1152D
:101CB0000E94021811F00C94B90E0091E00202305B
:101CC00011F00C94B40EA6EFB2E00E945517AEE1ED
:101CD000B1E00C9300911E01003080E010F009F09B
:101CE00081E08F9300911E01053081E008F080E0D3
:101CF0009F918923882311F40C94AF0EA0E3B1E0E7
:101D0000E8EEF4E30E94E1150E947615EEE1F1E0C1
:101D1000A0E3B1E00E94D2110E941017A0E3B1E04D
:101D20000E94D211E4EBF3E30E94E1150E947615C4
:101D3000EEE1F1E0A190BB24EEE3F2E0AA0CBB1CC3
:101D4000AA0CBB1CEA0DFB1DA0E3B1E00E94D2115E
:101D50000E94031780E08093F9010C94B20E83E097
:101D60008093F9010C94B70E84E08093F9010C94F0
:101D70000D10E0EFF4E30E94E1150E94021811F04B
:101D80000C941E0F0091E002023011F00C94190F18
:101D9000A6EFB2E00E945517AEE1B1E00C930091BE
:101DA0001E01003080E010F009F081E08F93009177
:101DB0001E01053081E008F080E09F91892388238F
:101DC00011F40C94140FA0E3B1E0E8EFF4E30E94E7
:101DD000E1150E947615EEE1F1E0A0E3B1E00E948A
:101DE000D2110E941017A0E3B1E00E94D211E4EBDF
:101DF000F3E30E94E1150E947615EEE1F1E0A19077
:101E0000BB24EEE4F2E0AA0CBB1CAA0CBB1CEA0D3E
:101E1000FB1DA0E3B1E00E94D2110E94031780E0F5
:101E20008093F9010C94170F83E08093F9010C94CF
:101E30001C0F84E08093F9010C940D10E4E0F5E3AD
:101E40000E94E1150E94021811F00C948B0F009172
:101E5000E002023011F00C94860FA6EFB2E00E946F
:101E60005517AEE1B1E00C9300911E01003080E007
:101E700010F009F081E08F9300911E01053081E0A0
:101E800008F080E09F918923882311F40C94810F3E
:101E900080E08093F90100911E0141E0041BA9E15B
:101EA000B1E00C9380911901AFEDB2E00E94D01522
:101EB0000E94C6159C91982B9C93A0E3B1E0ECE0A6
:101EC000F5E30E94E1150E947615EEE1F1E0A0E352
:101ED000B1E00E94D2110E941017A0E3B1E00E946D
:101EE000D211E2EEF2E30E94E1150E947615A0E322
:101EF000B1E00E94D211EFEDF2E00E949D170C9428
:101F0000840F83E08093F9010C94890F84E080931F
:101F1000F9010C940D10E0E2F5E30E94E1150E9436
:101F2000021811F00C94C20F0091E002023011F07F
:101F30000C94BD0F80E08093F901A6EFB2E00E94FF
:101F40005517A0E4B2E00C93E0E0F0E0A0E4B2E0CA
:101F50007BE70E94D117A0E3B1E0E8E2F5E30E943D
:101F6000E1150E947615E0E4F2E0A0E3B1E00E9402
:101F7000D2110E9410170C94C00F84E08093F901D5
:101F80000C940D10EEE3F5E30E94E1150E94021897
:101F900011F00C94E00F80E08093F901A0E3B1E030
:101FA000E4EEF2E30E94E1150E947615E0E4F2E02F
:101FB000A0E3B1E00E94D2110E9410170C940D1002
:101FC000E6E4F5E30E94E1150E94021811F00C947A
:101FD0000A1080E08093F9010E940404A0E3B1E0BC
:101FE000EEE4F5E30E94E1150E947615E2E6F2E0E8
:101FF000A0E3B1E00E94D2110E94B017A0E3B1E0CB
:102000000E94D211E0EDF2E30E94E1150E947615E4
:102010000C940D1081E08093F9010C94121082E071
:102020008093F9010091F901003018F011F00C943F
:102030001B100C942910E0E6F0E20E94E115A9EFD4
:10204000B1E08C9199270E94B215A0E3B1E00E9403
:102050007615A0E3B1E00E94DB110E94E81108951B
:102060004F4B00436F6D616E646F206E6F20726521
:10207000636F6E6F6369646F004C6F6E6769747530
:102080006420636F6D616E646F206E6F2076616C8B
:10209000696461004E756D65726F206465207061C2
:1020A00072616D6574726F206E6F2076616C696409
:1020B0006F004E756D65726F20646520706172618E
:1020C0006D6574726F7320696E76616C69646F0000
:1020D0004572726F72206C6F6E67697475642070E0
:1020E0006172616D6574726F2031004572726F723A
:1020F000206C6F6E676974756420706172616D65C4
:1021000074726F203200506172616D6574726F205D
:102110006E6F2076616C69646F004552524F523881
:10212000004552524F522053442E20496E74656E22
:102130007465206465206E7565766F000000000090
:1021400003000000330000003303000033330000BD
:102150003333030033C00C00FF0FFF0F55555555A7
:1021600033333333777777770C00FCFFCC00FCFFF9
:10217000CC0CFCFFCCCCFCFF0C00FCFFF0FFFFFF05
:102180000E94D802AEE7B2E08C9182FB16F00C946C
:10219000DC1070917E027B7F70937E02E8E5F5E3B0
:1021A0000E94E1150E94E111A5E7B6E00E94DB1153
:1021B0000E94E8110E94870AAEE7B2E08C9187FB8B
:1021C00016F00C94C210AEE7B2E08C9182FB16F0D0
:1021D0000C94FD1070917E027B7F70937E02E8E587
:1021E000F5E30E94E1150E94E111A5E7B6E00E9427
:1021F000DB110E94E8110E94870A81E080931C0194
:1022000000911C01043018F011F00C947B11009126
:102210001C0141E0041BADE1B1E00C9380911D0174
:10222000AFEDB2E00E94D0150E94C6150C900822B6
:10223000689409F4E89416F00C94731180911D01D0
:10224000AFEDB2E00E94D0150E94C6158C91892393
:102250008C93EEE5F5E30E94E1150E94E111ECE1BB
:10226000F1E0A0E8BFE30E9410170E94D9110E947C
:10227000E81100911C01013011F00C944911E6E6BF
:10228000F5E30E94E1150E94E1110E94E8110C940F
:102290007311023011F00C945711ECE6F5E30E9433
:1022A000E1150E94E1110E94E8110C9473110330B2
:1022B00011F00C946511E2E7F5E30E94E1150E942C
:1022C000E1110E94E8110C947311043011F00C9488
:1022D0007311E8E7F5E30E94E1150E94E1110E9405
:1022E000E8110E94EC04ACE1B1E08C918F5F8C931B
:1022F00010F40C940011AEE7B2E08C9185FB16F05F
:102300000C94891170917E027F7D70937E020E94F1
:102310006F050C94E310ED91FC91EF5FFF4FFC9380
:10232000EE93089509D00E94491500FC10D008953D
:1023300003D01ED001F8F9CF0024E89457FF02C063
:1023400009D0689400F80BD010F80124089502D049
:1023500009D00895509540954F5F5F4F0895E894D8
:1023600017FF0895009510950F5F1F4F689408950B
:10237000352F242FE894452B11F468940895512F9C
:10238000402F0027112780E1440F551F001F111F08
:10239000021B130B416018F4020F131F4E7F8A9526
:1023A00099F708958F938D918823E9F711978F916D
:1023B0000895A0E8BFE38D91882311F00CD0FBCFE6
:1023C00008950E947C15802D11F005D0FACF089554
:1023D0008DE001D08AE00090C00005FEFCCF809324
:1023E000C60008950090C80005FEFCCF8093CE0083
:1023F000089500FC05D0089530D005D001F8F9CF3C
:1024000037D03FD00895842F952FA62FB72FE8946B
:10241000452B462B472B11F468940895402F512FDC
:10242000622F732F0027112722273327F0E2440F52
:10243000551F661F771F001F111F221F331F081B08
:10244000190B2A0B3B0B416028F4080F191F2A1F98
:102450003B1F4E7FFA9559F708950024E89477FFC3
:1024600002C006D0689400F809D010F8012408953D
:1024700012D04F5F5F4F6F4F7F4F0895E89437FF43
:10248000089500951095209530950F5F1F4F2F4FA1
:102490003F4F6894089540955095609570950895C4
:1024A0003197F1F70895689462F80895E89462F816
:1024B0000895EF93FF93EE27E82BE92B31F0E0EA44
:1024C000FFE03197F1F70197D1F7FF91EF91089570
:1024D0008DE207FD8D938F2D881F802F881F8F57CA
:1024E000082F6894F7F8802F87FF17C08095839591
:1024F000082F80E38D938EE28D93802F815238F0E8
:1025000080E38D9399279C930E94D61508954427C4
:102510000A95802F09F19ED01FC0805230F09EE4B2
:102520009D9381E48D939D93EDCF4427DF92EF92AD
:10253000FF920F938FE1801B11F0082F8BD091D069
:102540009EE29D930F91FF90EF90DF9044270395BB
:10255000003209F4D5CF33D03F93E4EFF5E20E9487
:10256000E11538E12F2D1E2D0D2DFF24EE24DD2445
:102570004427000F111F221FB8F42F923F920E9490
:102580007C15102C0E947C15202C0E947C15302C70
:102590000E947C1531970E94AB15410DD21CE31CA3
:1025A000F01C3F902F9003C033960E94A4153196E3
:1025B0000E94A4153A95E9F63F9107D0A5CFDD0C0E
:1025C000EE1CFF1C0A95D9F70895002719E058D092
:1025D0008F93802B11F0039501C08F911A95B9F755
:1025E000802F882309F48CCF8F91805D8D930A957D
:1025F000D9F788CF0065CD1D80B2E60E405973072C
:10260000A0ACB90350D6DC01286BEE0094357700FE
:10261000CA9A3B0065CD1D00B2E60E005973070053
:10262000ACB90300D6DC01006BEE0000357700008A
:102630009A3B0000CD1D0000E60E0000730700006D
:10264000B9030000DC010000EE000000770000008C
:102650003B000000F694E794D79447950A95D1F78C
:10266000089500270DD08F9303958F2D8E298D29E6
:10267000842BC1F78F91805D8D930A95D9F742CF56
:102680001F930F93002710E2440FDD1CEE1CFF1C6C
:10269000001F802F9AE0890B10F0082F43951A95A0
:1026A00099F7802F0F911F910895082748E01695FC
:1026B000079510F4122701254A95C9F7089531E0CE
:1026C00005C032E003C033E001C034E00FEF1FEF7C
:1026D00020EA91E0192EE9DF46D08991682FE5DFE5
:1026E00042D08991E2DF3FD08991DFDF3CD0599120
:1026F000613078F0653068F48827D7DF34D0852FD3
:10270000869509F481E0D1DF2ED0802F2CD0812F47
:102710002AC0663041F49D918C91C7DF24D0892F67
:10272000C4DF21D0F2CF6031E9F48827BEDF1BD0AF
:10273000852F869509F481E0682FB7DF14D0862FA6
:10274000880FB3DF10D0513019F488279D9102C053
:102750009D918D91AADF07D0892FA7DF04D06A95BC
:10276000B9F7D3CF0895313011F40C94EB11323016
:1027700011F40C94F2110895A6E0B1E0E3E0F1E069
:102780000E94091433970C94E513E6E0F1E0A3E00E
:10279000B1E00C94F713EFE0F1E0A0E0B1E00C94AD
:1027A000D313ADE0BB27868197810E94F2150D936C
:1027B000838194810E94F2150D93808191810E9402
:1027C000F2150D930895EDE0FF2782810E94E71531
:1027D0008AE38D9381810E94E7158AE38D9380813E
:1027E0000E94E71588278C930895ADE0BB27808170
:1027F00091810E94F2150D93838194810E94F215BC
:102800000D93868197810E94F2150D930895EDE056
:10281000FF2780810E94E7158FE28D9381810E94BE
:10282000E7158FE28D9382810E94E71588278D93AB
:10283000089521D00F2D069506950F0D0D0D8F2DA6
:10284000837021F41E2D13300AF40A958E2D8A957B
:102850009927EAE6F8E20E94E115A8E1BB270E9469
:102860009815080F47E00C94EC17050101040602C7
:1028700004000305010393E0ADE002C096E0AAE086
:10288000B0E08FB7F89401910D939A95E1F78FBF5F
:1028900008950191119145EB55E00E949811440F64
:1028A000440FF42E0F31150728F481E0E82E03952C
:1028B000D02E24C00C33150728F482E0E82E0E51E8
:1028C000D02E1CC00150150B4DE651E00E94B811EE
:1028D000F40E7CE07A95872F9927EEEFF8E20E94BC
:1028E000E115A2E1BB270E9492150217130790F38E
:1028F0007395E72E021B130B0395D02E089500004D
:102900001F003B005A0078009700B500D400F30088
:10291000110130014E01019111912191308140E866
:1029200051E561E070E00E94FC11042F152F0C941A
:102930004B14A1DF0E2D0A95802F0295003220F056
:102940001F2D137009F40395DA940D0D11279927A3
:10295000E6E6F9E20E94E115A8E1BB270E9498157E
:10296000080F111F0895000F1B2A38475564738103
:10297000909E81DF0F2D11274CE355270E94921165
:1029800055270E0D151F4CE322273327662777277F
:102990000E9453150D0D131F231F08956CDFDF9246
:1029A000EF92FF920F2D1127222733274DE651E09A
:1029B00060E070E00E945315FF904F2D4D5F4695EB
:1029C00046955527662777270E94E316EF90DF90FC
:1029D0000F931F932F933F930E949A14222733271C
:1029E0007F916F915F914F910C94E31647DFAF9207
:1029F000BF92CF920E94CF1440E851E561E070E0B1
:102A00000E945315FF90EF90DF900F931F932F9329
:102A10003F930E94BA147F916F915F914F910C94F4
:102A2000E316019111912191308140E851E561E077
:102A300070E00E94FC110C942115019111912191DB
:102A4000308140E15EE060E070E00E94FC11F42E15
:102A50004CE350E00E949811E42ED02E0895AF93DD
:102A6000BF930E941115BF91AF910C94E313AF93E4
:102A7000BF930E948B14BF91AF910C94071441E255
:102A8000FF2747BF849108950191119121913081D1
:102A900008950F92B801469F8001479F100D569FE1
:102AA000100D0F9008950F921F922F92C801D90117
:102AB000489F80014A9F90014B9F202C499F100DF9
:102AC000211D321D5A9F202C589F100D211D321D93
:102AD000599F200D311D689F200D311D699F300DBC
:102AE000789F300D2F901F900F9008950E947C15B5
:102AF0000D920020D9F70895D895319628F48F9338
:102B00008BB783958BBF8F910020089591E005C00E
:102B100092E003C094E001C098E0EEDF0D929A9538
:102B2000E1F70895880F991FE80FF91F0DD0F0CF36
:102B3000E80FF91F09D0EACF880F991F880F991F56
:102B4000E80FF91F01D0E6CF28F48F938BB7839558
:102B50008BBF8F91089528F48F938BB78A958BBF85
:102B60008F9108950196019721F00E947C15E9F755
:102B7000FACF0895819104D08D938823D9F70895D1
:102B8000813618F08B3708F48F7D089591E0882303
:102B900021F08894991F8A95E9F7892F90950895D7
:102BA000883018F011968850FBCF08950F920024BA
:102BB0000BBE0F9008950F9301E00BBF0F91889407
:102BC00008950F930027F9CF0F9302E0F6CF002767
:102BD0008A3018F08A500395FBCF005D0D93805D1D
:102BE0008D930895805390530027813018F0065F2D
:102BF0008A95FBCF090F0895AF93BF930F939F93CF
:102C00008F938FB78F93A0E0B1E08C9183958D93D4
:102C10008C3309F03DC088278E9311968C91839553
:102C20008D938C3309F034C088278E9311968C9144
:102C300083958D93883161F588278E9311968C91B9
:102C400083958D939C910EE1943089F0963079F0C4
:102C5000993069F09B3059F00CE1923039F41196BB
:102C60009C911197937019F4039501C00FE180179F
:102C700078F071F081E08E9311968C9183958D930D
:102C80008D3031F481E08E9311968C9183958C93E5
:102C90008F918FBF8F919F910F91BF91AF910F92A5
:102CA0001F922F923F924F925F927F92AF92BF926C
:102CB0000F931F932F933F934F935F936F937F9344
:102CC0008F939F93AF93BF93CF93DF93EF93FF9334
:102CD0008FB78F938BB78F9388278BBF0E945E022D
:102CE0008F918BBF8F918FBFFF91EF91DF91CF912C
:102CF000BF91AF919F918F917F916F915F914F9114
:102D00003F912F911F910F91BF90AF907F905F9057
:102D10004F903F902F901F900F90189599278D916D
:102D200093958823E1F7939511968C9311978E9143
:102D30009A95D1F70895EA2FFB2F00244C918D919D
:102D400003948E32E1F711248D9113948823E1F7D7
:102D50001A94101640F41197202F2119239580E31F
:102D60008D932A95E9F7113039F59927AE2FBF2FAA
:102D7000A00DB91FA00FB91F8C919C93853308F447
:102D800021C031E08E918E32E9F38D3241F0830F14
:102D90008A3319F480E331E001C033278C93AE17F6
:102DA00089F7332341F0AE2FBF2FB8DF81E34D32D7
:102DB00009F43196808308958827E00DF81FE00F0D
:102DC000F81F80830895040F151F261F371F0895CD
:102DD000041B150B260B370B089504171507260740
:102DE00037070895000F111F221F331F0895009504
:102DF0001095209530950F5F1F4F2F4F3F4F08952F
:102E0000019110810FC00E9444150EC00E9444150C
:102E100010C00191108117FF05C03FEF2FEF04C0D4
:102E2000008111272227332737FF03C0E0DF8DE21F
:102E30008D93CF92DF92EF92AA24BB24CC24DD2481
:102E4000EE2440E2EAE0FF2755E093E38081890F1A
:102E500087FD9F7083FD907F891B81935A95A9F709
:102E6000C1DFAA1CBB1CCC1CDD1CEE1C4A9551F713
:102E7000E894EFE0FF2782910BD0EB30E0F71EF0F3
:102E800068948A2D09D04D93EF90DF90CF900895EC
:102E9000982F829501D0892F8F70805D26F0803326
:102EA00009F4089568948D93089500271127222727
:102EB00033271DD08A3328F4803318F005D015D07D
:102EC000F9CF0EF494CF089580538F93402F512F54
:102ED000622F732F87DF86DF76DF84DF8F9199275C
:102EE000080F191F291F391F08958D910895E8941F
:102EF000FCDF8032E9F38B32D9F38930C9F38D32AC
:102F000011F46894F2CF089541E003C042E001C09B
:102F100044E0E40F8827F81F8291982F829506D00D
:102F2000892F04D04A95C1F70C94AD178F708A3061
:102F300008F0895F805D8D93089541E0E40F882754
:102F4000F81F829138E098E1880F991F9D933A9578
:102F5000D1F74A95B1F70C94AD1788278D93089552
:102F600081918D938823E1F7089594E081918D9369
:102F70009A95E1F7089509919191992359F08A95CD
:102F8000D9F73197002331F081918D930A958823E9
:102F9000C9F70895E2CFF999FECFE1BDF2BD3196B0
:102FA000089591E001C092E07B3751F47FB7F89427
:102FB000F2DF8D9180BDFA9AF99A9A95C9F77FBF91
:102FC0007727089591E001C092E0E5DFF89A80B597
:102FD0008D939A95D1F70895FF93881BF9E0001F10
:102FE000FA9511F4FF910895881F841B18F4840F3B
:102FF0008894F5CF0894F3CF8FEF83959D91992313
:10300000E1F70895689401C0E894AF93BF938D9160
:1030100016F0919103C00E947C15902D891718F02D
:1030200011F48823A1F7BF91AF9108950D91998173
:10303000903009F013D0502788E0440F551F10F44A
:10304000422753278A95C9F7319781F7899199913A
:10305000803019F08A0105D0A801089588E0112771
:1030600001C080E1080116940794001F111F8A9582
:10307000D1F70895689401C0E8942227102F2317F0
:1030800009F4089526F40E947C15802D01C08191D9
:10309000803081F0891741F070E08D931A9591F797
:1030A000239571E01D93EACF01D0E8CF703011F085
:1030B00077270895772331F42395882713958D93E7
:1030C0001A95E9F70895B7FE089590E8B91611F436
:1030D000D0FE08959FEFD91AE90AF90A09F4039579
:1030E0000895D190E190F19001910895219131914D
:1030F000419151910895502F2D2D3E2D4F2D612F2F
:103100000895652F90E8440F551F5927990F47954B
:103110006078102F90E8FF0C001F0927990FF79493
:10312000107800380895FF0C90E89027110F9795BC
:10313000F794092F08951127BD2CDE2CEF2CF02ECB
:103140000EE1FF2039F4FE2CED2CDB2CBB240850C3
:10315000C2F752C032F00A95BB0CDD1CEE1CFF1CFE
:10316000F9CFB1DFE0CF2DEC3CEC4CEC5DE3662712
:103170000FC0B7DFC0DFDD24EE2490E8F92E0FE3A7
:1031800007C0B4DF05C02227332740E251E4662799
:10319000552351F1002381F1B4DF71F11627005856
:1031A00050580894050B18F407FD03C025C007FD0F
:1031B00023C0469537952795F694E794D79422D067
:1031C000FF202AF0DD0CEE1CFF1C015073F09D2D3A
:1031D000969548F0DD203AF4EE202AF491E0D90EDD
:1031E0009927E91EF91E9FCF07C09FE7092FF92AEB
:1031F0009FEFD92EE92E0895DD24EE24FF24002729
:10320000112708959F929924AA24BB2488E1D216FD
:10321000E306F40628F0D21AE30AF40A089401C07F
:103220008894991CAA1CBB1CDD0CEE1CFF1C8A9503
:1032300071F7D92CEA2CFB2C9F9008950E947C15E5
:10324000202D0E947C15302D0E947C15402D0E945F
:103250007C15502D08950000C84230372F30312F93
:103260003235000031313A32383A303000002A2A03
:103270002A2A2A2A2A2A2A2A2A2A20454D4554451A
:10328000522032303235202A2A2A2A2A2A2A2A2A69
:103290002A2A2A0030372D30312D32303235203174
:1032A000363A32333A353500302E302E343600007F
:1032B000454D455445522E4241530000417574001E
:1032C0003D002C204F46460049447365723C000087
:1032D0003E00556C74696D6120414354434C4B2052
:1032E00000002C00454E414255473D004944536C77
:1032F0006176653E00005472792000005458200029
:103300005054524D44423D005670733D0000497088
:10331000733D000050777270733D00005077726902
:103320006E3D0000566261743D00496261746368DD
:103330003D005077726263683D005077726F75741C
:103340003D00566C6F61643D0000496C6F61643DE7
:1033500000005077726C6F61643D000054656D70C1
:103360006261743D000054656D70636173653D007A
:1033700054656D70636F6D703D00426174736F636F
:103380003D00524547204D4442204445433D000006
:103390002C204845583D00002C204445433D00006A
:1033A000435243206661696C20656E20414444525B
:1033B0003D0024003A004C454556465700005665EE
:1033C0007273696F6E2046573A20466563686120C4
:1033D0003C0030372D30312D323032352031363A05
:1033E00032333A3536003E2C204172636869766F7D
:1033F000203C00005345544C454400005365206375
:103400006F6E666967757261207365746C656420A0
:1034100061200000525354564152000056616C6FB7
:1034200072657320706F722064656661756C7400DC
:10343000534554434C4B0000543E00002F00443E83
:1034400000005741544348494E4720494E464F5289
:103450004D412E20536520636F6E66696775726FEC
:103460002072656C6F6A20656E200000206120006C
:10347000534953434C4B0000486F726120616374A1
:1034800075616C3D00002C204665636861206163B6
:103490007475616C3D004C4545434C4B0000556CC8
:1034A00074696D612041435420434C4B2061203DA1
:1034B00000002C2064656C20000053455441555495
:1034C0000000536520636F6E66696775726F2074C4
:1034D00078204155542000005345544F4646000083
:1034E0004C454541555400005478204175742000E6
:1034F0004C45454F464600004F6666736574204153
:10350000757420005345544E4557000053652061A3
:10351000637469766F2054782E2041555420000042
:103520005345544255470000536520636F6E6669EA
:103530006775726F20454E414255473D00004C452E
:103540004542554700004C45455249440000494416
:1035500020736572203C0000534552313D005458A1
:10356000415554200000415554310000415554321A
:10357000000041555433000052656164204D4442BF
:02358000000049
:00000001FF
