:100000000C94460018950000189500001895000003
:10001000189500001895000018950000189500002C
:100020001895000018950000189500000C94F41E17
:10003000189500001895000018950000189500000C
:1000400018950000189500000C94F7011895000011
:100050000C94BB001895000018950000189500003E
:1000600018950000189500001895000018950000DC
:100070000C949E011895000018950000189500003A
:100080001895000018950000189500008FEF8DBF9F
:10009000C0E8E8E94E2E80E48EBFD0E4FFE35F2E97
:1000A000A89584B7082E882784BF88E19927809374
:1000B000600090936000EEEFFFE3A0E0B1E08827DE
:1000C0008D933197E9F787E68093C40080E08093B1
:1000D000C50088E18093C1006624209A25982D9A56
:1000E000279A2F9885E085BD80E084BD70916E00D1
:1000F000716070936E0085E085BD80E28093B600EC
:1001000085E08093B1007091700071607093700011
:10011000A6E0B1E0E6E5F5E40E94D91E0E946A1E61
:100120000E94B71CAFE0B1E0E0E6F5E40E94D91E02
:100130000E946A1E0E94BD1C7091C100706870937D
:10014000C10083E38093CC0080E08093CD00709168
:10015000C8007D7F7093C80087E08093CA0088E163
:100160008093C900229A7091C90070687093C90089
:1001700078940C94C5180F921F922F923F924F9231
:100180005F927F92AF92BF920F931F932F933F93F3
:100190004F935F936F937F938F939F93AF93BF938F
:1001A000CF93DF93EF93FF939FB79F939BB79F935B
:1001B00099279BBFA1ECB6E08091C6008C9384E2A6
:1001C000482F0091C106041711F00C94F2007091B1
:1001D0002C03706870932C03A8EFB5E088278C93EC
:1001E0000C94800185E2482F041711F00C94030150
:1001F00070912C03706270932C03ACE8B7E08827F1
:100200008C930C9480010D3011F00C944701ACE2FA
:10021000B3E08C9187FB16F00C94260170912C03AF
:100220007F7770932C0380E0A8EFB5E00E94C41A9A
:100230008D9388278C93E8EFF5E0A2ECB6E00E945E
:10024000A82070912C03706470932C03ACE2B3E08F
:100250008C9185FB16F00C94450170912C037F7DE9
:1002600070932C0380E0ACE8B7E00E94C41A8D9331
:1002700088278C93ECE8F7E0A9E1B8E00E94A82079
:1002800070912C03706170932C030C9480010F31DA
:1002900018F011F00C944E010C948001ACE2B3E024
:1002A0008C9187FB16F00C945F01A1ECB6E08C9169
:1002B000A8EFB5E00E94C41A8D9388278C93ACE216
:1002C000B3E08C9185FB16F00C948001A1ECB6E0B4
:1002D0008C91ACE8B7E00E94C41A8D9388278C9368
:1002E000ACE8B7E00E94F420082F0C3818F011F0A9
:1002F0000C947C010C948001ACE8B7E088278C93C7
:100300009F919BBF9F919FBFFF91EF91DF91CF91F5
:10031000BF91AF919F918F917F916F915F914F911D
:100320003F912F911F910F91BF90AF907F905F9061
:100330004F903F902F901F900F9018950F921F9203
:100340002F923F924F925F927F92AF92BF920F9304
:100350001F932F933F934F935F936F937F938F934D
:100360009F93AF93BF93CF93DF93EF93FF939FB789
:100370009F939BB79F9399279BBFA6EAB8E0809174
:10038000CE008C93ACE2B3E08C9183FB16F00C941E
:10039000D901A8EBB2E08C918F5F8C938091A60875
:1003A000A8EBB2E0AD90BB24A6EAB8E0AA0DBB1D55
:1003B0008C939F919BBF9F919FBFFF91EF91DF9186
:1003C000CF91BF91AF919F918F917F916F915F91ED
:1003D0004F913F912F911F910F91BF90AF907F90C0
:1003E0005F904F903F902F901F900F9018950F9215
:1003F0001F922F923F924F925F927F92AF92BF9245
:100400000F931F932F933F934F935F936F937F931C
:100410008F939F93AF93BF93CF93DF93EF93FF930C
:100420009FB79F939BB79F9399279BBF74E676BD19
:10043000A3E1B3E08C918F5F8C93A3E1B3E00C91C7
:1004400048E00E94E4208C9300911303003011F0E7
:100450000C946302A4E1B3E00C9140E20E94E4201A
:100460008C93E6E4F1E30E94D91EA9E1B3E08C91FC
:100470009927A5E1B3E00E94901E80911403A5E1A5
:10048000B3E00E94C41E0E94BA1E0C900822689419
:1004900009F4E894A7E4B2E08C9182F98C93A7E484
:1004A000B2E08C9194E089278C93A7E4B2E08C9120
:1004B00082FBA5E2B0E08C9180F98C93A4E1B3E0DB
:1004C0008C918F5F8C93ACE2B3E08C9183FB16F040
:1004D0000C948E02A0ECB2E00E947D1AA0ECB2E077
:1004E0000D911C9140EA50E00E94AA1AA0ECB2E0E3
:1004F0000D931C93A0ECB2E00D911C91003050E0E4
:10050000150711F00C948E0270912C03777F709375
:100510002C0370914702786070934702A7E4B2E021
:100520008C9180FB16F00C94AD02ACE1B3E00E941C
:100530007D1AAEE1B3E04D915C91ACE1B3E00D9179
:100540001C910417150711F00C94AB02709147022F
:100550007260709347020C94B30280E090E0ACE1CB
:10056000B3E08D939C939F919BBF9F919FBFFF9101
:10057000EF91DF91CF91BF91AF919F918F917F913B
:100580006F915F914F913F912F911F910F91BF906C
:10059000AF907F905F904F903F902F901F900F9063
:1005A0001895E0E0F1E00E94E81DA2E2B3E00D93AF
:1005B0001D932D933D9381E08093200300912003B0
:1005C000063018F011F00C944A030091200341E02A
:1005D000041BA1E2B3E00C93A2E2B3E00D911D91E4
:1005E0002D913C91A0E2B3E0AD90BB24A8E6B2E02F
:1005F000AA0CBB1CAA0CBB1CAA0DBB1D4D915D9186
:100600006D917C910E94E01FA6E2B3E00D931D93D3
:100610002D933D93A6E2B3E00D911D912D913C9158
:10062000A0E2B3E0AD90BB24A0E5B2E0AA0CBB1CF5
:10063000AA0CBB1CAA0DBB1D4D915D916D917C91C7
:100640000E94EE1AA6E2B3E00D931D932D933D9305
:1006500040E050E060E070E0A6E2B3E00D911D9153
:100660002D913C910E94E51F11F00C944203809162
:100670002103AAE2B3E00E94C41E0E94BA1E9C910C
:10068000982B9C93A0E2B3E08C918F5F8C9310F435
:100690000C94DE0270912B03716070932B0308950C
:1006A0002898EAE6F5E40E94D91E0E94D31A0E9417
:1006B000DA1AA0E8BFE3E0E9F5E40E94D91E0E943F
:1006C0006A1E0E94CB1A0E94DA1AA0E8BFE3E4EA8D
:1006D000F5E40E94D91E0E946A1E0E94CB1A0E9455
:1006E000DA1AA0E8BFE3ECEAF5E40E94D91E0E9402
:1006F0006A1E0E94CB1A0E94DA1A81E080931903C5
:1007000081E08093190100911901063018F011F071
:100710000C941604E9E1F1E0A190BB24EEEFFFEFA9
:10072000AA0CBB1CAA0CBB1CEA0DFB1DA9E1B1E085
:10073000AD90BB24A0E5B2E0AA0CBB1CAA0CBB1C6C
:10074000AA0DBB1D94E00E94DD20E9E1F1E0A1903B
:10075000BB24E6E1F0E0AA0CBB1CAA0CBB1CEA0D12
:10076000FB1DA9E1B1E0AD90BB24A8E6B2E0AA0C64
:10077000BB1CAA0CBB1CAA0DBB1D94E00E94DD2073
:10078000E8EBF5E40E94D91E0E94D31AE9E1F1E0FA
:10079000A0E8BFE30E9408200E94CB1AECEBF5E42E
:1007A0000E94D91E0E94D31AE9E1F1E0A190BB2476
:1007B000E0E5F2E0AA0CBB1CAA0CBB1CEA0DFB1D79
:1007C000A0E8BFE30E94FB1F0E94CB1AEEEBF5E40A
:1007D0000E94D91E0E94D31AE9E1F1E0A0E8BFE32C
:1007E0000E9408200E94CB1AECEBF5E40E94D91E6F
:1007F0000E94D31AE9E1F1E0A190BB24E8E6F2E01F
:10080000AA0CBB1CAA0CBB1CEA0DFB1DA0E8BFE395
:100810000E94FB1F0E94CB1A0E94DA1AA9E1B1E0E4
:100820008C918F5F8C9310F40C9483030E94A3042B
:10083000E4ECF5E40E94D91E0E94D31AA4E8B2E0C9
:100840000E94CD1AECECF5E40E94D91E0E94D31A46
:100850000E94DA1AE2E3F0E0A1EBB2E094E00E9439
:10086000DD20EEECF5E40E94D91E0E94D31AE1EBE4
:10087000F2E0A0E8BFE30E94291E0E94CB1AEEED31
:10088000F5E40E94D91E0E94D31AE1EBF2E0A0E841
:10089000BFE30E94211E0E94CB1A0E94DA1AE0E0F8
:1008A000F0E0A0E4B2E00E94DA20E0EEF5E40E947D
:1008B000D91E0E94D31AE0E4F2E0A0E8BFE30E9450
:1008C00008200E94CB1A0E94DA1AE1E0F0E0A1E4CD
:1008D000B2E00E94DA20E8EEF5E40E94D91E0E9400
:1008E000D31AE1E4F2E0A0E8BFE30E9408200E94EE
:1008F000CB1A0E94DA1AE6E3F0E0A1E1B3E00E942D
:10090000DC20A1E1B3E00D911C910F5F1F4FA1E12D
:10091000B3E00D931C93E6E3F0E0A1E1B3E07BE7E5
:100920000E94CB20E2EFF5E40E94D91E0E94D31A68
:10093000E1E1F3E0A0E8BFE30E94F81F0E94CB1AB8
:100940000E94DA1A089580E08093190180E0809374
:100950001A01A4E8B2E088278C938EE080931901F5
:1009600000911901073118F011F00C94CE04A9E19F
:10097000B1E0EC91FF270E94311E082FE0E1F0E08A
:10098000A4E8B2E00E94C41A0E947C20A9E1B1E070
:100990008C918F5F8C9310F40C94B004E4E8F2E037
:1009A000A0E3B1E00E94A820A4E8B2E088278C93DD
:1009B0008EE08093190100911901073118F011F0B0
:1009C0000C94F904A9E1B1E0EC91FF270E94311EDB
:1009D000082FE0E1F0E0A4E8B2E00E94C41A0E940F
:1009E0007C20A9E1B1E08C918F5F8C9310F40C9482
:1009F000DB04E0E3F1E0A4E8B2E00E94FC2011F0A7
:100A00000C94050581E080931901AAE1B1E08C9175
:100A10008F5F8C9300911901003011F00C94240524
:100A200084EF91E00E944B1BECEFF5E40E94D91E8D
:100A30000E94D31AEAE1F1E0A0E8BFE30E94082097
:100A40000E94CB1A0E94DA1A00911901013081E04C
:100A500009F080E08F9300911A010A3081E009F0DB
:100A600080E09F91892B882311F40C94A9040895A8
:100A700000E010E020E030E0A1E2B1E00D931D9332
:100A80002D933C9381E08093190100911901063068
:100A900018F011F00C948E05E9E1F1E0A190BB246F
:100AA000EEEFFFEFAA0CBB1CAA0CBB1CEA0DFB1D52
:100AB0000CE211E020E030E0A0E1BB2794E07BE70E
:100AC0000E94CC20E9E1F1E0A190BB24E6E1F0E056
:100AD000AA0CBB1CAA0CBB1CEA0DFB1DA1E2B1E0D9
:100AE00094E07BE70E94CC20A1E2B1E00D911D9142
:100AF0002D913C914CE350E060E070E00E94DB1FE0
:100B0000A1E2B1E00D931D932D933D93A9E1B1E0D6
:100B10008C918F5F8C9310F40C944505E1E0F0E02C
:100B2000A0E1BB2781E08C937BE70E94C920EEE027
:100B3000F0E00AE010E020E030E0A0E1BB2794E024
:100B40007BE70E94CC200895A2ECB2E08C918F5FED
:100B50008C93A2ECB2E00C9146E00E94E4208C93CE
:100B6000EEE5F0E30E94D91EA2ECB2E08C91992749
:100B7000A6EBB2E00E94861EE2E0F6E40E94D91ED7
:100B80000E94D31AE2ECF2E0A0E8BFE30E94082042
:100B90000E94CB1AE8E0F6E40E94D91E0E94D31A04
:100BA000E6EBF2E0A0E8BFE30E947E200E94CB1AB1
:100BB0000E94DA1A81E080931E0100911E01003428
:100BC00018F011F00C94F60580E0AEE1B1E0AD90C4
:100BD000BB24A6EAB8E0AA0DBB1D8C93AEE1B1E040
:100BE0008C918F5F8C9310F40C94DD0580E08093E2
:100BF000B802A0E4B2E00C9103FB16F00C942006BE
:100C0000E0E1F6E40E94D91E0E94D31AE6EBF2E07E
:100C1000A0E8BFE30E947E200E94CB1A0E94DA1A4D
:100C200084E28A93A6EBB2E08D919C918A939A9389
:100C300083E08A93809141020E94511C0E94DA1A3B
:100C400070912C03786070932C032A9A84E28A9323
:100C5000A6EBB2E08D919C918A939A9383E08A935C
:100C6000809141020E94531CEF93FF93ECE6F7E161
:100C70000E94421BFF91EF912A9870914702706188
:100C8000709347020895A0E4B2E00C9103FB16F0C4
:100C90000C949206E4E1F6E40E94D91E0E94D31A55
:100CA000E8EBF2E0A0E8BFE30E9408200E94CB1A24
:100CB000E8E0F6E40E94D91E0E94D31AE6EBF2E0C7
:100CC000A0E8BFE30E947E200E94CB1A0E94DA1A9D
:100CD00081E080931E014091B80200911E0104172B
:100CE00018F011F00C949006EEE1F1E0A190BB2415
:100CF000E6EAF8E0EA0DFB1DA0E8BFE30E947C20D5
:100D00000E94CB1AEEEDF5E40E94D91E0E94D31A80
:100D1000AEE1B1E08C918F5F8C9310F40C946B0674
:100D20000E94DA1A0091B80242E0041BA9EBB2E07B
:100D30000C930091B90241E0040FAAEBB2E00C93CE
:100D40000091BA0241E0040FABEBB2E00C9381E0FA
:100D50008A9381E08A93A9EBB2E0EC91FF274FEFF1
:100D60005FEF25E030E8A7EAB8E00E940E21ACEB87
:100D7000B2E04D935C93ABEBB2E0AD90BB24A6EA3E
:100D8000B8E0AA0DBB1D9C91AAEBB2E0AD90BB24CC
:100D9000A6EAB8E0AA0DBB1D8C91AFE1B1E08D933E
:100DA0009C93AFE1B1E04D915C91ACEBB2E00D9161
:100DB0001C910417150711F00C947F0BA7E4B2E007
:100DC0008C9184FB16F00C94170B0091C20200303A
:100DD00011F00C9485078091AA0880934F028091AE
:100DE000AB0880934E028091AC0880934D028091B5
:100DF000AD0880934C02ECE1F6E40E94D91E0E94FB
:100E0000D31AECE4F2E0A0E8BFE30E94FE1F0E94C8
:100E1000CB1A0E94DA1A8091AE0880934F0280911B
:100E2000AF0880934E028091B00880934D0280916C
:100E3000B10880934C02ACE4B2E08D919C91A3EC9C
:100E4000B2E08D939C93E2E2F6E40E94D91E0E94E8
:100E5000D31AE3ECF2E0A0E8BFE30E94F81F0E947F
:100E6000CB1A0E94DA1A8091B20880934F028091C7
:100E7000B30880934E028091B40880934D02809114
:100E8000B50880934C02ACE4B2E08D919C91A5EC46
:100E9000B2E08D939C93E6E2F6E40E94D91E0E9494
:100EA000D31AE5ECF2E0A0E8BFE30E94F81F0E942D
:100EB000CB1A0E94DA1A8091B60880934F02809173
:100EC000B70880934E028091B80880934D028091BC
:100ED000B90880934C02ACE4B2E08D919C91A7ECF0
:100EE000B2E08D939C93EAE2F6E40E94D91E0E9440
:100EF000D31AE7ECF2E0A0E8BFE30E94F81F0E94DB
:100F0000CB1A0E94DA1A0C94150B013011F00C94D4
:100F100063088091AA0880934F028091AB08809368
:100F20004E028091AC0880934D028091AD08809371
:100F30004C02EAE4F5E40E94D91E0E949822ECE4F7
:100F4000F2E00E9487210E94B1210E940122EDE07F
:100F5000F0E0ADECB2E00E94AD20EEE2F6E40E94DB
:100F6000D91E0E94D31AEDECF2E0A0E8BFE30E9484
:100F700087210E945A1B0E94CB1A0E94DA1A809184
:100F8000AE0880934F028091AF0880934E0280910B
:100F9000B00880934D028091B10880934C02EAE43E
:100FA000F5E40E94D91E0E949822ECE4F2E00E942F
:100FB00087210E94B1210E940122EDE0F0E0A1ED25
:100FC000B2E00E94AD20E4E3F6E40E94D91E0E9444
:100FD000D31AE1EDF2E0A0E8BFE30E9487210E946E
:100FE0005A1B0E94CB1A0E94DA1A8091B208809391
:100FF0004F028091B30880934E028091B408809391
:101000004D028091B50880934C02EAE4F5E40E9419
:10101000D91E0E949822ECE4F2E00E9487210E94EF
:10102000B1210E940122EDE0F0E0A5EDB2E00E94C6
:10103000AD20E8E3F6E40E94D91E0E94D31AE5ED44
:10104000F2E0A0E8BFE30E9487210E945A1B0E94A1
:10105000CB1A0E94DA1A8091B60880934F028091D1
:10106000B70880934E028091B80880934D0280911A
:10107000B90880934C02EAE4F5E40E94D91E0E946C
:101080009822ECE4F2E00E9487210E94B1210E94A4
:101090000122EDE0F0E0A9EDB2E00E94AD20ECE32A
:1010A000F6E40E94D91E0E94D31AE9EDF2E0A0E80E
:1010B000BFE30E9487210E945A1B0E94CB1A0E9404
:1010C000DA1A0C94150B023011F00C94410980913E
:1010D000AA0880934F028091AB0880934E028091C2
:1010E000AC0880934D028091AD0880934C02EEE4F1
:1010F000F5E40E94D91E0E949822ECE4F2E00E94DE
:1011000087210E94B1210E945A22EDE0F0E0A1E087
:10111000B3E00E94AD20E0E4F6E40E94D91E0E94F4
:10112000D31AE1E0F3E0A0E8BFE30E9487210E9428
:101130005A1B0E94CB1A0E94DA1A8091AE08809343
:101140004F028091AF0880934E028091B008809347
:101150004D028091B10880934C02EEE4F5E40E94C8
:10116000D91E0E949822ECE4F2E00E9487210E949E
:10117000B1210E945A22EDE0F0E0A5E0B3E00E9428
:10118000AD20E8E4F6E40E94D91E0E94D31AE5E0FF
:10119000F3E0A0E8BFE30E9487210E945A1B0E944F
:1011A000CB1A0E94DA1A8091B20880934F02809184
:1011B000B30880934E028091B40880934D028091D1
:1011C000B50880934C02EEE4F5E40E94D91E0E941B
:1011D0009822ECE4F2E00E9487210E94B1210E9453
:1011E0005A22EDE0F0E0A9E0B3E00E94AD20EEE489
:1011F000F6E40E94D91E0E94D31AE9E0F3E0A0E8C9
:10120000BFE30E9487210E945A1B0E94CB1A0E94B2
:10121000DA1A8091B60880934F028091B7088093C4
:101220004E028091B80880934D028091B908809356
:101230004C02EEE4F5E40E94D91E0E949822ECE4F0
:10124000F2E00E9487210E94B1210E945A22EDE023
:10125000F0E0ADE0B3E00E94AD20E4E5F6E40E94EA
:10126000D91E0E94D31AEDE0F3E0A0E8BFE30E948C
:1012700087210E945A1B0E94CB1A0E94DA1A0C94F2
:10128000150B033011F00C941F0A8091AA0880936B
:1012900053028091AB08809352028091AC088093F6
:1012A00051028091AD0880935002E2E5F5E40E947E
:1012B000D91E0E949822E0E5F2E00E9487210E9458
:1012C000C9210E945A22EDE0F0E0ADEDB2E00E94AB
:1012D000AD20EAE5F6E40E94D91E0E94D31AEDED96
:1012E000F2E0A0E8BFE30E9487210E945A1B0E94FF
:1012F000CB1A0E94DA1A8091AE0880935302809133
:10130000AF08809352028091B0088093510280917F
:10131000B10880935002E2E5F5E40E94D91E0E94D4
:101320009822E0E5F2E00E9487210E94C9210E94F4
:101330005A22EDE0F0E0A1EEB2E00E94AD20E2E63C
:10134000F6E40E94D91E0E94D31AE1EEF2E0A0E872
:10135000BFE30E9487210E945A1B0E94CB1A0E9461
:10136000DA1A8091B208809353028091B308809377
:1013700052028091B408809351028091B508809305
:101380005002E2E5F5E40E94D91E0E949822E0E5B1
:10139000F2E00E9487210E94C9210E945A22EDE0BA
:1013A000F0E0A5EEB2E00E94AD20E8E6F6E40E948F
:1013B000D91E0E94D31AE5EEF2E0A0E8BFE30E9436
:1013C00087210E945A1B0E94CB1A0E94DA1A809130
:1013D000B608809353028091B7088093520280919F
:1013E000B808809351028091B90880935002E2E5D9
:1013F000F5E40E94D91E0E949822E0E5F2E00E94E6
:1014000087210E94C9210E945A22EDE0F0E0A9EE56
:10141000B2E00E94AD20EEE6F6E40E94D91E0E94E2
:10142000D31AE9EEF2E0A0E8BFE30E9487210E9410
:101430005A1B0E94CB1A0E94DA1A0C94150B043026
:1014400011F00C94C70A8091AA0880934F028091F2
:10145000AB0880934E028091AC0880934D0280913E
:10146000AD0880934C02EEE4F5E40E94D91E0E9480
:101470009822ECE4F2E00E9487210E94B1210E94B0
:101480000122EDE0F0E0ADEEB2E00E94AD20E4E735
:10149000F6E40E94D91E0E94D31AEDEEF2E0A0E815
:1014A000BFE30E9487210E945A1B0E94CB1A0E9410
:1014B000DA1A8091AE0880934F028091AF08809332
:1014C0004E028091B00880934D028091B1088093C4
:1014D0004C02EEE4F5E40E94D91E0E949822ECE44E
:1014E000F2E00E9487210E94B1210E940122EDE0DA
:1014F000F0E0ADEFB2E00E94AD20EAE7F6E40E9432
:10150000D91E0E94D31AEDEFF2E0A0E8BFE30E94DB
:1015100087210E945A1B0E94CB1A0E94DA1A8091DE
:10152000BA0880934F028091BB0880934E0280914D
:10153000BC0880934D028091BD0880934C02EAE480
:10154000F5E40E94D91E0E949822ECE4F2E00E9489
:1015500087210E94B1210E940122EDE0F0E0A9EC78
:10156000B2E00E94AD20E0E8F6E40E94D91E0E949D
:10157000D31AE9ECF2E0A0E8BFE30E9487210E94C1
:101580005A1B0E94CB1A0E94DA1A0C94150B0530D4
:1015900011F00C940D0B8091AA0880934F0280915A
:1015A000AB0880934E028091AC0880934D028091ED
:1015B000AD0880934C02E6E8F6E40E94D91E0E9432
:1015C000D31AECE4F2E0A0E8BFE30E94FE1F0E9401
:1015D000CB1A0E94DA1A8091AE0880934F02809154
:1015E000AF0880934E028091B00880934D028091A5
:1015F000B10880934C02EAE8F6E40E94D91E0E94EA
:10160000D31AECE4F2E0A0E8BFE30E94FE1F0E94C0
:10161000CB1A0E94DA1A0C94150BEEE8F6E40E943D
:10162000D91E0E94D31A0E94DA1A0C947D0B0091E5
:10163000B802073011F00C94510B9091AA088091D8
:10164000AB08AEEBB2E08D939C93EAE9F6E40E941E
:10165000D91E0E94D31AEEEBF2E0A0E8BFE30E948D
:10166000F81F0E94CB1AE8EAF6E40E94D91E0E94F5
:10167000D31AEEEBF2E0A0E8BFE30E947E200E94C6
:10168000CB1AE0EBF6E40E94D91E0E94D31AEEEBCF
:10169000F2E0A0E8BFE30E94F81F0E94CB1A0E946C
:1016A000DA1A0091B802083011F00C947D0B909179
:1016B000AB088091AC08AEEBB2E08D939C93EAE965
:1016C000F6E40E94D91E0E94D31AEEEBF2E0A0E8E5
:1016D000BFE30E94F81F0E94CB1AE8EAF6E40E94DA
:1016E000D91E0E94D31AEEEBF2E0A0E8BFE30E94FD
:1016F0007E200E94CB1A0E94DA1A0C94960BA0E46A
:10170000B2E00C9103FB16F00C94960BE8EBF6E4B8
:101710000E94D91E0E94D31AE6EBF2E0A0E8BFE3D4
:101720000E947E200E94CB1A0E94DA1A089580E05F
:1017300080934602709147027F7770934702A6E438
:10174000B2E08C918F5F8C93EAECF6E40E94D91E94
:101750000E94D31AE6E4F2E0A0E8BFE30E9408206A
:101760000E94CB1A0E94DA1A84E690E0AEE1B3E060
:101770008D939C9380E090E0ACE1B3E08D939C93DB
:1017800070914702716070934702709147027D7FAC
:1017900070934702ACE2B3E08C9184FB16F00C949A
:1017A000E40B70912C037F7E70932C03E6EDF6E43E
:1017B0000E94D91E0E94D31AA9E1B8E00E94CD1A56
:1017C0000E94DA1A0E942111ACE2B3E08C9186FBF0
:1017D00016F00C94FE0B70912C037F7B70932C03FE
:1017E000EEEDF6E40E94D91E0E94D31AA2ECB6E0F8
:1017F0000E94CD1A0E94DA1A0E94AB11A7E4B2E04F
:101800008C9187FB81E00EF080E08F93A7E4B2E03B
:101810008C9181FB81E00EF080E09F91892B8823E1
:1018200011F40C94CA0B709147027E7F70934702AB
:10183000A7E4B2E08C9187FB16F40C942B0CE4EE39
:10184000F6E40E94D91E0E94D31AA0E3B1E00E94E0
:10185000CD1A0E94DA1AA7E4B2E08C9187FB81E0EE
:101860000EF080E08F9300914602033081E009F092
:1018700080E09F91892B882311F40C949F0B709129
:1018800047027E7F70934702709147027F77709383
:1018900047020895E6EEF6E40E94D91E0E94D31A8C
:1018A0000E94AE1CAFE0B1E00E94CD1AEEEDF5E46F
:1018B0000E94D91E0E94D31A0E94AE1CA6E0B1E07D
:1018C0000E94CD1A0E94DA1A0E94AE1CE6E0F1E0F6
:1018D000ABE9B2E00E94A8200E94AE1CEFE0F1E06C
:1018E000A6EAB2E00E94A820A0E3B1E0E0EFF6E4AF
:1018F0000E94D91E0E946A1EEBE9F2E0A0E3B1E06B
:101900000E94C41A0E94A820A0E3B1E00E94C41A59
:10191000EEEDF5E40E94D91E0E946A1EE6EAF2E0AE
:10192000A0E3B1E00E94C41A0E94A820A0E3B1E0A5
:101930000E94C41AEEEDF5E40E94D91E0E946A1EB0
:10194000E4E8F2E0A0E3B1E00E94C41A0E94A820FB
:10195000A0E3B1E00E94C41AE4EFF6E40E94D91EAD
:101960000E946A1EA0E3B1E00E94C41AEEEDF5E405
:101970000E94D91E0E946A1EE3ECF2E0A0E3B1E0EF
:101980000E94C41A0E94F81FA0E3B1E00E94C41A8A
:10199000EEEDF5E40E94D91E0E946A1EE5ECF2E02D
:1019A000A0E3B1E00E94C41A0E94F81FA0E3B1E0D6
:1019B0000E94C41AEEEDF5E40E94D91E0E946A1E30
:1019C000E7ECF2E0A0E3B1E00E94C41A0E94F81F25
:1019D000A0E3B1E00E94C41AEEEDF5E40E94D91E26
:1019E0000E946A1EE9ECF2E0A0E3B1E00E94C41A92
:1019F0000E9487210E945A1BA0E3B1E00E94C41AF2
:101A0000EEEDF5E40E94D91E0E946A1EE1EDF2E0BF
:101A1000A0E3B1E00E94C41A0E9487210E945A1BD1
:101A2000A0E3B1E00E94C41AEEEDF5E40E94D91ED5
:101A30000E946A1EE5EDF2E0A0E3B1E00E94C41A44
:101A40000E9487210E945A1BA0E3B1E00E94C41AA1
:101A5000EEEDF5E40E94D91E0E946A1EE9EDF2E067
:101A6000A0E3B1E00E94C41A0E9487210E945A1B81
:101A7000A0E3B1E00E94C41AEEEDF5E40E94D91E85
:101A80000E946A1EA0E3B1E00E94F420AFE1B1E041
:101A90008D9388278C93AFE1B1E0ED91FC91A0E3A9
:101AA000B1E00E943221A2E4B2E00D931D932D9388
:101AB0003D93A0E3B1E00E94C41AE8EFF6E40E946F
:101AC000D91E0E946A1EE2E4F2E0A0E3B1E00E94A7
:101AD000C41A0E948020E4EEF6E40E94D91E0E94FF
:101AE000D31AA0E3B1E00E94CD1A0E94DA1A0E9434
:101AF000970B0895EAEFF6E40E94D91E0E94D31ACC
:101B00000E94AE1CAFE0B1E00E94CD1AEEEDF5E40C
:101B10000E94D91E0E94D31A0E94AE1CA6E0B1E01A
:101B20000E94CD1A0E94DA1A0E94AE1CE6E0F1E093
:101B3000ABE9B2E00E94A8200E94AE1CEFE0F1E009
:101B4000A6EAB2E00E94A820A0E3B1E0E0EFF6E44C
:101B50000E94D91E0E946A1EEBE9F2E0A0E3B1E008
:101B60000E94C41A0E94A820A0E3B1E00E94C41AF7
:101B7000EEEDF5E40E94D91E0E946A1EE6EAF2E04C
:101B8000A0E3B1E00E94C41A0E94A820A0E3B1E043
:101B90000E94C41AEEEDF5E40E94D91E0E946A1E4E
:101BA000E4E8F2E0A0E3B1E00E94C41A0E94A82099
:101BB000A0E3B1E00E94C41AE4E0F7E40E94D91E59
:101BC0000E946A1EA0E3B1E00E94C41AEEEDF5E4A3
:101BD0000E94D91E0E946A1EEDEDF2E00E9487214C
:101BE000A0E8BFE3AF93BF930E945A1B11E002E04D
:101BF000BF91AF910E94931FE0E8FFE3A0E3B1E043
:101C00000E94C41A0E94A820A0E3B1E00E94C41A56
:101C1000EEEDF5E40E94D91E0E946A1EE1EEF2E0AC
:101C20000E948721A0E8BFE3AF93BF930E945A1B95
:101C300011E002E0BF91AF910E94931FE0E8FFE343
:101C4000A0E3B1E00E94C41A0E94A820A0E3B1E082
:101C50000E94C41AEEEDF5E40E94D91E0E946A1E8D
:101C6000E5EEF2E00E948721A0E8BFE3AF93BF93C7
:101C70000E945A1B11E002E0BF91AF910E94931F96
:101C8000E0E8FFE3A0E3B1E00E94C41A0E94A820AC
:101C9000A0E3B1E00E94C41AEEEDF5E40E94D91E63
:101CA0000E946A1EE9EEF2E00E948721A0E8BFE3ED
:101CB000AF93BF930E945A1B11E002E0BF91AF9116
:101CC0000E94931FE0E8FFE3A0E3B1E00E94C41A82
:101CD0000E94A820A0E3B1E00E94C41AEEEDF5E452
:101CE0000E94D91E0E946A1EEDEEF2E00E9487213A
:101CF000A0E8BFE3AF93BF930E945A1B11E002E03C
:101D0000BF91AF910E94931FE0E8FFE3A0E3B1E031
:101D10000E94C41A0E94A820A0E3B1E00E94C41A45
:101D2000EEEDF5E40E94D91E0E946A1EE1EFF2E09A
:101D3000A0E3B1E00E94C41A0E94FE1FA0E3B1E03C
:101D40000E94C41AEEEDF5E40E94D91E0E946A1E9C
:101D5000E5EFF2E0A0E3B1E00E94C41A0E94FE1F8A
:101D6000A0E3B1E00E94C41AEEEDF5E40E94D91E92
:101D70000E946A1EE9EFF2E0A0E3B1E00E94C41AFB
:101D80000E94FE1FA0E3B1E00E94F420AFE1B1E0A9
:101D90008D9388278C93AFE1B1E0ED91FC91A0E3A6
:101DA000B1E00E943221A2E4B2E00D931D932D9385
:101DB0003D93A0E3B1E00E94C41AE8EFF6E40E946C
:101DC000D91E0E946A1EE2E4F2E0A0E3B1E00E94A4
:101DD000C41A0E948020E4EEF6E40E94D91E0E94FC
:101DE000D31AA0E3B1E00E94CD1A0E94DA1A0E9431
:101DF000970B0895E8E0F7E40E94D91E0E94D31AD9
:101E00000E94AE1CAFE0B1E00E94CD1AEEEDF5E409
:101E10000E94D91E0E94D31A0E94AE1CA6E0B1E017
:101E20000E94CD1A0E94DA1A0E94AE1CE6E0F1E090
:101E3000ABE9B2E00E94A8200E94AE1CEFE0F1E006
:101E4000A6EAB2E00E94A820A0E3B1E0E0EFF6E449
:101E50000E94D91E0E946A1EEBE9F2E0A0E3B1E005
:101E60000E94C41A0E94A820A0E3B1E00E94C41AF4
:101E7000EEEDF5E40E94D91E0E946A1EE6EAF2E049
:101E8000A0E3B1E00E94C41A0E94A820A0E3B1E040
:101E90000E94C41AEEEDF5E40E94D91E0E946A1E4B
:101EA000E4E8F2E0A0E3B1E00E94C41A0E94A82096
:101EB000A0E3B1E00E94C41AE2E1F7E40E94D91E57
:101EC0000E946A1EA0E3B1E00E94C41AEEEDF5E4A0
:101ED0000E94D91E0E946A1EE1E0F3E00E94872161
:101EE000A0E8BFE3AF93BF930E945A1B11E002E04A
:101EF000BF91AF910E94931FE0E8FFE3A0E3B1E040
:101F00000E94C41A0E94A820A0E3B1E00E94C41A53
:101F1000EEEDF5E40E94D91E0E946A1EE5E0F3E0B2
:101F20000E948721A0E8BFE3AF93BF930E945A1B92
:101F300011E002E0BF91AF910E94931FE0E8FFE340
:101F4000A0E3B1E00E94C41A0E94A820A0E3B1E07F
:101F50000E94C41AEEEDF5E40E94D91E0E946A1E8A
:101F6000E9E0F3E00E948721A0E8BFE3AF93BF93CD
:101F70000E945A1B11E002E0BF91AF910E94931F93
:101F8000E0E8FFE3A0E3B1E00E94C41A0E94A820A9
:101F9000A0E3B1E00E94C41AEEEDF5E40E94D91E60
:101FA0000E946A1EEDE0F3E00E948721A0E8BFE3F3
:101FB000AF93BF930E945A1B11E002E0BF91AF9113
:101FC0000E94931FE0E8FFE3A0E3B1E00E94C41A7F
:101FD0000E94A820A0E3B1E00E94C41AEEEDF5E44F
:101FE0000E94D91E0E946A1EEDEFF2E00E94872136
:101FF000A0E8BFE3AF93BF930E945A1B11E002E039
:10200000BF91AF910E94931FE0E8FFE3A0E3B1E02E
:102010000E94C41A0E94A820A0E3B1E00E94C41A42
:10202000E6E1F7E40E94D91E0E946A1EA0E3B1E037
:102030000E94F420AFE1B1E08D9388278C93AFE14B
:10204000B1E0ED91FC91A0E3B1E00E943221A2E465
:10205000B2E00D931D932D933D93A0E3B1E00E9458
:10206000C41AE8EFF6E40E94D91E0E946A1EE2E458
:10207000F2E0A0E3B1E00E94C41A0E948020E4EEE6
:10208000F6E40E94D91E0E94D31AA0E3B1E00E9498
:10209000CD1A0E94DA1A0E94970B0895EAE1F7E43C
:1020A0000E94D91E0E94D31A0E94AE1CAFE0B1E07C
:1020B0000E94CD1AEEEDF5E40E94D91E0E94D31ABB
:1020C0000E94AE1CA6E0B1E00E94CD1A0E94DA1A6E
:1020D0000E94AE1CE6E0F1E0ABE9B2E00E94A8206D
:1020E0000E94AE1CEFE0F1E0A6EAB2E00E94A82058
:1020F000A0E3B1E0E0EFF6E40E94D91E0E946A1E60
:10210000EBE9F2E0A0E3B1E00E94C41A0E94A8202B
:10211000A0E3B1E00E94C41AEEEDF5E40E94D91EDE
:102120000E946A1EE6EAF2E0A0E3B1E00E94C41A4F
:102130000E94A820A0E3B1E00E94C41AEEEDF5E4ED
:102140000E94D91E0E946A1EE4E8F2E0A0E3B1E01A
:102150000E94C41A0E94A820A0E3B1E00E94C41A01
:10216000E4E2F7E40E94D91E0E946A1EA0E3B1E0F7
:102170000E94C41AEEEDF5E40E94D91E0E946A1E68
:10218000A3E2B0E08C9185FBA0E3B1E00E94C41A09
:102190000E94CA1E8D9388278C93A0E3B1E00E9411
:1021A000C41AEEEDF5E40E94D91E0E946A1EE1E118
:1021B000F3E0A0E3B1E00E94C41A0E94F81FA0E37C
:1021C000B1E00E94C41AE8E2F7E40E94D91E0E941E
:1021D0006A1EA0E3B1E00E94F420AFE1B1E08D936C
:1021E00088278C93AFE1B1E0ED91FC91A0E3B1E0E1
:1021F0000E943221A2E4B2E00D931D932D933D93F2
:10220000A0E3B1E00E94C41AE8EFF6E40E94D91EF0
:102210000E946A1EE2E4F2E0A0E3B1E00E94C41A68
:102220000E948020E4EEF6E40E94D91E0E94D31A98
:10223000A0E3B1E00E94CD1A0E94DA1A0E94970B27
:102240000895E9E1F8E09BE304E132E2AEE2B3E0B5
:102250000E945221ADE2B3E02C9300912D03003097
:1022600018F011F00C9436110C943E11EEE2F3E0EC
:10227000A9E2B1E00E94A8200C944411E9E1F8E041
:10228000A9E2B1E00E94A820A9E2B1E0E0E3F7E40E
:102290000E94D91E0E94FA2011F00C9456117091E0
:1022A00047027068709347020C94AA11E4E3F7E4C4
:1022B0000E94D91E0E94FA2011F00C9466117091B0
:1022C00047027F77709347020C94AA11E8E3F7E482
:1022D0000E94D91E0E94FA2011F00C948411709172
:1022E0002C03706470932C03E3E4F3E0A2ECB6E0FB
:1022F0000E94A820E0E4F7E40E94D91E0E94D31AAD
:102300000E94DA1A0C94AA11ECE4F7E40E94D91E98
:102310000E94FA2011F00C94A21170912C037064A9
:1023200070932C03E3E4F3E0A2ECB6E00E94A82053
:10233000E0E4F7E40E94D91E0E94D31A0E94DA1A40
:102340000C94AA11E4E5F7E40E94D91E0E94D31A66
:102350000E94DA1A089581E0E2ECF6E006E00A93C2
:10236000ABE0B2E00E94B320E2ECF6E09CE204E1D4
:1023700032E2AEE2B3E00E945221ADE2B3E02C9330
:10238000AEE2B3E00E94F420082F063011F00C9466
:102390009817EEE2F3E0A9E2B1E00E94A820E9E29A
:1023A000F1E0A9E2B1E00E94AE1E8FEF8093F90147
:1023B000A9E2B1E0E0E6F7E40E94D91E0E94FA200B
:1023C00011F00C94241280E08093F901A0E3B1E0B5
:1023D000E8E6F7E40E94D91E0E946A1EABE0B2E074
:1023E000E0E9F5E40E94D91E0E946A1EEBE0F2E0EB
:1023F000A0E3B1E00E94C41A0E94A820A0E3B1E0CB
:102400000E94C41AECE7F7E40E94D91E0E946A1EDB
:10241000ABE0B2E0ECEAF5E40E94D91E0E946A1E2D
:10242000EBE0F2E0A0E3B1E00E94C41A0E94A82011
:10243000A0E3B1E00E94C41AECECF5E40E94D91EBE
:102440000E946A1E0C949617EAE8F7E40E94D91ECF
:102450000E94FA2011F00C94631200912D030230B7
:1024600011F00C945E12A3E4B3E00E944D20A9E1A8
:10247000B1E00C9300911901013110F00C94591244
:1024800080E08093F901A0E3B1E0E2E9F7E40E9483
:10249000D91E0E946A1EE9E1F1E0A0E3B1E00E94CA
:1024A000C41A0E94082080911901809319030C948A
:1024B0005C1285E08093F9010C94611284E08093B2
:1024C000F9010C949617EAEAF7E40E94D91E0E94DB
:1024D000FA2011F00C947B1280E08093F901A0E3C4
:1024E000B1E0E2EBF7E40E94D91E0E946A1E0E944E
:1024F00038050C949617E6ECF7E40E94D91E0E946A
:10250000FA2011F00C94871300912D03023011F082
:102510000C948213A3E4B3E00E94F420082F0C3043
:1025200011F00C947D1380E08093F90187E0E3E4DF
:10253000F3E002E00A93ABE0B2E00E94B320ABE02C
:10254000B2E00E94C41AEEECF7E40E94D91E0E9489
:102550006A1E89E0E3E4F3E002E00A93ABE0B2E054
:102560000E94C41A0E94B320ABE0B2E00E94C41AD9
:10257000EEECF7E40E94D91E0E946A1E8BE0E3E4B1
:10258000F3E002E00A93ABE0B2E00E94C41A0E94BA
:10259000B320ABE0B2E00E94CD1A0E94DA1AEBE061
:1025A000F2E0AFE0B1E00E94A8200E94BD1CE0ED87
:1025B000F7E40E94D91E0E94D31A0E94AE1CAFE01D
:1025C000B1E00E94CD1A0E94DA1A81E0E3E4F3E060
:1025D00002E00A93ABE0B2E00E94B320ABE0B2E0CD
:1025E0000E94C41AE4EDF7E40E94D91E0E946A1EFC
:1025F00083E0E3E4F3E002E00A93ABE0B2E00E94A0
:10260000C41A0E94B320ABE0B2E00E94C41AE4ED09
:10261000F7E40E94D91E0E946A1E85E0E3E4F3E01D
:1026200002E00A93ABE0B2E00E94C41A0E94B32019
:10263000ABE0B2E00E94CD1A0E94DA1AEBE0F2E0C1
:10264000A6E0B1E00E94A8200E94B71CE6EDF7E4E6
:102650000E94D91E0E94D31A0E94AE1CA6E0B1E0CF
:102660000E94CD1A0E94DA1AA0E3B1E0EAEDF7E485
:102670000E94D91E0E946A1E0E94AE1CE6E0F1E094
:10268000A0E3B1E00E94C41A0E94A820A0E3B1E038
:102690000E94C41AE4E0F8E40E94D91E0E946A1E57
:1026A0000E94AE1CEFE0F1E0A0E3B1E00E94C41A8A
:1026B0000E94A820E3E0F1E00E940B1DA5EBB2E030
:1026C0008C93E0E0F1E00E94E81DA1EBB2E00D93F5
:1026D0001D932D933D93E2E3F0E0A1EBB2E094E093
:1026E0007BE70E94CC207091470270627093470292
:1026F00081E0809319030C94801386E08093F901A4
:102700000C94851384E08093F9010C949617E8E00B
:10271000F8E40E94D91E0E94FA2011F00C94C7130D
:1027200080E08093F9010E94AE1CEFE0F1E0ABE0A5
:10273000B2E00E94A820A0E3B1E0E0E1F8E40E944A
:10274000D91E0E946A1EEBE0F2E0A0E3B1E00E9415
:10275000C41A0E94A820A0E3B1E00E94C41AEEE1CE
:10276000F8E40E94D91E0E946A1E0E94AE1CE6E098
:10277000F1E0ABE0B2E00E94A820EBE0F2E0A0E3E1
:10278000B1E00E94C41A0E94A8200C949617EEE2B1
:10279000F8E40E94D91E0E94FA2011F00C94031450
:1027A00080E08093F901E1EBF2E0ABE0B2E00E945F
:1027B000211EA0E3B1E0E6E3F8E40E94D91E0E94E6
:1027C0006A1EEBE0F2E0A0E3B1E00E94C41A0E94AE
:1027D000A820A0E3B1E00E94C41AEAE4F8E40E9451
:1027E000D91E0E946A1EE1EBF2E0ABE0B2E00E946B
:1027F000291EEBE0F2E0A0E3B1E00E94C41A0E94BF
:10280000A8200C949617E2E5F8E40E94D91E0E94D5
:10281000FA2011F00C949A1400912D03033011F05A
:102820000C949514A3E4B3E00E944D20AEE1B1E016
:102830000C9300911E01003080E010F009F081E05F
:102840008F9300911E01073081E008F080E09F9196
:102850008923882311F40C949014A8E5B3E00E9416
:102860004D20A5E2B1E00D931D932D933D93A5E27C
:10287000B1E00D911D912D913C91AEE1B1E0AD9093
:10288000BB24A0E5B2E0AA0CBB1CAA0CBB1CAA0D81
:10289000BB1D0D931D932D933C93EEE1F1E0A190B0
:1028A000BB24EEEFFFEFAA0CBB1CAA0CBB1CEA0D6D
:1028B000FB1DA5E2B1E094E07BE70E94CC2080E024
:1028C0008093F901A0E3B1E0EAE5F8E40E94D91EA3
:1028D0000E946A1EEEE1F1E0A0E3B1E00E94C41A9A
:1028E0000E940820A0E3B1E00E94C41AEEECF7E4D5
:1028F0000E94D91E0E946A1EEEE1F1E0A190BB2465
:10290000E0E5F2E0AA0CBB1CAA0CBB1CEA0DFB1D07
:10291000A0E3B1E00E94C41A0E94FB1F0C94931420
:1029200083E08093F9010C94981484E08093F9017A
:102930000C949617E0E7F8E40E94D91E0E94FA2052
:1029400011F00C94311500912D03033011F00C940B
:102950002C15A3E4B3E00E944D20AEE1B1E00C934E
:1029600000911E01003080E010F009F081E08F93AB
:1029700000911E01073081E008F080E09F918923DB
:10298000882311F40C942715A8E5B3E00E944D208C
:10299000A5E2B1E00D931D932D933D93A5E2B1E027
:1029A0000D911D912D913C91AEE1B1E0AD90BB2414
:1029B000A8E6B2E0AA0CBB1CAA0CBB1CAA0DBB1D4E
:1029C0000D931D932D933C93EEE1F1E0A190BB2478
:1029D000E6E1F0E0AA0CBB1CAA0CBB1CEA0DFB1D37
:1029E000A5E2B1E094E07BE70E94CC2080E08093F8
:1029F000F901A0E3B1E0EAE5F8E40E94D91E0E94E3
:102A00006A1EEEE1F1E0A0E3B1E00E94C41A0E9468
:102A10000820A0E3B1E00E94C41AEEECF7E40E94A3
:102A2000D91E0E946A1EEEE1F1E0A190BB24E8E607
:102A3000F2E0AA0CBB1CAA0CBB1CEA0DFB1DA0E318
:102A4000B1E00E94C41A0E94FB1F0C942A1583E077
:102A50008093F9010C942F1584E08093F9010C9474
:102A60009617E8E7F8E40E94D91E0E94FA2011F0B8
:102A70000C94961500912D03023011F00C949115D1
:102A8000A3E4B3E00E944D20AEE1B1E00C930091CD
:102A90001E01003080E010F009F081E08F9300917A
:102AA0001E01073081E008F080E09F918923882390
:102AB00011F40C948C15A0E3B1E0E0E8F8E40E9476
:102AC000D91E0E946A1EEEE1F1E0A0E3B1E00E948F
:102AD000C41A0E940820A0E3B1E00E94C41AEEECE0
:102AE000F7E40E94D91E0E946A1EEEE1F1E0A19077
:102AF000BB24E0E5F2E0AA0CBB1CAA0CBB1CEA0D4F
:102B0000FB1DA0E3B1E00E94C41A0E94FB1F80E0FD
:102B10008093F9010C948F1583E08093F9010C9454
:102B2000941584E08093F9010C949617E8E8F8E492
:102B30000E94D91E0E94FA2011F00C94FB150091FE
:102B40002D03023011F00C94F615A3E4B3E00E94BB
:102B50004D20AEE1B1E00C9300911E01003080E009
:102B600010F009F081E08F9300911E01073081E0A1
:102B700008F080E09F918923882311F40C94F115CB
:102B8000A0E3B1E0E0E9F8E40E94D91E0E946A1EC9
:102B9000EEE1F1E0A0E3B1E00E94C41A0E94082037
:102BA000A0E3B1E00E94C41AEEECF7E40E94D91E43
:102BB0000E946A1EEEE1F1E0A190BB24E8E6F2E09B
:102BC000AA0CBB1CAA0CBB1CEA0DFB1DA0E3B1E0C8
:102BD0000E94C41A0E94FB1F80E08093F9010C94AC
:102BE000F41583E08093F9010C94F91584E0809347
:102BF000F9010C949617ECE9F8E40E94D91E0E94A2
:102C0000FA2011F00C94681600912D03023011F097
:102C10000C946316A3E4B3E00E944D20AEE1B1E052
:102C20000C9300911E01003080E010F009F081E06B
:102C30008F9300911E01073081E008F080E09F91A2
:102C40008923882311F40C945E1680E08093F901A7
:102C500000911E0141E0041BA9E1B1E00C938091B9
:102C60001901AAE2B3E00E94C41E0E94BA1E9C9100
:102C7000982B9C93A0E3B1E0E4EAF8E40E94D91E0B
:102C80000E946A1EEEE1F1E0A0E3B1E00E94C41AE6
:102C90000E940820A0E3B1E00E94C41AEEEDF5E422
:102CA0000E94D91E0E946A1EA0E3B1E00E94C41ACD
:102CB000EAE2F3E00E9495200C94611683E0809391
:102CC000F9010C94661684E08093F9010C94961730
:102CD000E8EBF8E40E94D91E0E94FA2011F00C944F
:102CE0009F1600912D03023011F00C949A1680E08B
:102CF0008093F901A3E4B3E00E944D20A0E4B2E088
:102D00000C93E0E0F0E0A0E4B2E07BE70E94C92091
:102D1000A0E3B1E0E0ECF8E40E94D91E0E946A1E34
:102D2000E0E4F2E0A0E3B1E00E94C41A0E940820AF
:102D30000C949D1684E08093F9010C949617E6EDAF
:102D4000F8E40E94D91E0E94FA2011F00C94BD16DE
:102D500080E08093F901A0E3B1E0E0EEF5E40E94A9
:102D6000D91E0E946A1EE0E4F2E0A0E3B1E00E94F6
:102D7000C41A0E9408200C949617EEEDF8E40E9405
:102D8000D91E0E94FA2011F00C94E71680E080937F
:102D9000F9010E94A304A0E3B1E0E6EEF8E40E948A
:102DA000D91E0E946A1EE4E8F2E0A0E3B1E00E94AE
:102DB000C41A0E94A820A0E3B1E00E94C41AECEC5F
:102DC000F5E40E94D91E0E946A1E0C949617E0EF4B
:102DD000F8E40E94D91E0E94FA2011F00C943B17CF
:102DE00000912D03023011F00C94361780E080938F
:102DF000F901A3E4B3E00E944D20A9E1B1E00C93F6
:102E000000911901003080E010F009F081E08F930B
:102E1000009119010F3F81E008F080E09F91892324
:102E2000882311F40C943117809119018093410289
:102E3000E1E0F0E0A1E4B2E07BE70E94C920A0E37A
:102E4000B1E0E8EFF8E40E94D91E0E946A1EE1E4B6
:102E5000F2E0A0E3B1E00E94C41A0E9408200C94A2
:102E6000341785E08093F9010C94391784E080933E
:102E7000F9010C949617E0E1F9E40E94D91E0E9432
:102E8000FA2011F00C94591780E08093F901A0E327
:102E9000B1E0E8E1F9E40E94D91E0E946A1EE1E473
:102EA000F2E0A0E3B1E00E94C41A0E9408200C9452
:102EB0009617E2E2F9E40E94D91E0E94FA2011F06E
:102EC0000C94931700912D03023011F00C948E177F
:102ED00080E08093F901A3E4B3E00E944D20A9E1D2
:102EE000B1E00C9300911901003011F00C9483179C
:102EF000A0E3B1E0EAE2F9E40E94D91E0E946A1E52
:102F00002F980C948C17A0E3B1E0E6E3F9E40E945B
:102F1000D91E0E946A1E2F9A0C94911784E0809308
:102F2000F9010C94961781E08093F9010C94111823
:102F3000EEE2F3E0A9E2B1E00E94A820E9E2F1E0CC
:102F4000A9E2B1E00E94AE1EA9E2B1E0E0E3F7E43D
:102F50000E94D91E0E94FA2011F00C94B9177091AA
:102F6000470270687093470280E08093F9010C94E7
:102F70001118E4E3F7E40E94D91E0E94FA2011F030
:102F80000C94CC17709147027F777093470280E0D2
:102F90008093F9010C941118E8E3F7E40E94D91E1C
:102FA0000E94FA2011F00C94ED1770912C037064BC
:102FB00070932C03E3E4F3E0A2ECB6E00E94A820B7
:102FC000E0E4F7E40E94D91E0E94D31A0E94DA1AA4
:102FD00080E08093F9010C941118ECE4F7E40E946E
:102FE000D91E0E94FA2011F00C940E1870912C0337
:102FF000706470932C03E3E4F3E0A2ECB6E00E946B
:10300000A820E0E4F7E40E94D91E0E94D31A0E948F
:10301000DA1A80E08093F9010C94111882E0809311
:10302000F9010091F901003018F011F00C941A1810
:103030000C942818EAE6F0E30E94D91EA9EFB1E04B
:103040008C9199270E94A61EA0E3B1E00E946A1EFF
:10305000A0E3B1E00E94CD1A0E94DA1A0895001090
:103060000E10AE102E103E10A0114F4B00436F6D8E
:10307000616E646F206E6F207265636F6E6F63693F
:10308000646F004C6F6E676974756420636F6D6167
:103090006E646F206E6F2076616C696461004E759E
:1030A0006D65726F20646520706172616D65747208
:1030B0006F206E6F2076616C69646F004E756D6570
:1030C000726F20646520706172616D6574726F73D8
:1030D00020696E76616C69646F004572726F722050
:1030E0006C6F6E676974756420706172616D657470
:1030F000726F2031004572726F72206C6F6E67695B
:1031000074756420706172616D6574726F20320035
:10311000506172616D6574726F206E6F2076616CA4
:1031200069646F004552524F5238004552524F5217
:103130002053442E20496E74656E746520646520AA
:103140006E7565766F00000000000300000033001C
:10315000000033030000333300003333030033C077
:103160000C00FF0FFF0F5555555533333333777729
:1031700077770C00FCFFCC00FCFFCC0CFCFFCCCC28
:10318000FCFF0C00FCFFF0FFFFFF0E945003E0E497
:10319000F9E40E94D91E0E94D31A0E94DA1A82E032
:1031A00080931903ACE2B3E08C9186FB16F00C948B
:1031B000EC1870912C037F7B70932C03EEEDF6E4FA
:1031C0000E94D91E0E94D31AA2ECB6E00E94CD1A2A
:1031D0000E94DA1A0E94AB1100912B03013011F00A
:1031E0000C94461970912B037E7F70932B03ABE1F7
:1031F000B3E08C918F5F8C93ABE1B3E00C9145E031
:103200000E94E4208C9300911B03003011F00C9479
:103210004619A0E3B1E0E6E5F9E40E94D91E0E9458
:103220006A1EA0E3B1E00E94F420AFE1B1E08D930B
:1032300088278C93AFE1B1E0ED91FC91A0E3B1E080
:103240000E943221A2E4B2E00D931D932D933D9391
:10325000A0E3B1E00E94C41AE8EFF6E40E94D91E90
:103260000E946A1EE2E4F2E0A0E3B1E00E94C41A08
:103270000E948020E4EEF6E40E94D91E0E94D31A38
:10328000A0E3B1E00E94CD1A0E94DA1AA7E4B2E0EE
:103290008C9185FB16F00C94D21881E08093190371
:1032A000ACE2B3E08C9186FB16F00C946A19709135
:1032B0002C037F7B70932C03EEEDF6E40E94D91E65
:1032C0000E94D31AA2ECB6E00E94CD1A0E94DA1A2C
:1032D0000E94AB1181E080931C0100911C0106301B
:1032E00018F011F00C94F41900911C0141E0041B3A
:1032F000ADE1B1E00C9380911D01AAE2B3E00E9420
:10330000C41E0E94BA1E0C900822689409F4E89426
:1033100016F00C94EC1980911D01AAE2B3E00E9412
:10332000C41E0E94BA1E8C9189238C9300911C01AB
:10333000013011F00C94A819EEE5F9E40E94D91EB1
:103340000E94D31A0E94DA1A0E944A0C0C94EC19BB
:10335000023011F00C94B819E4E6F9E40E94D91E89
:103360000E94D31A0E94DA1A0E947A0D0C94EC196A
:10337000033011F00C94C619EAE6F9E40E94D91E54
:103380000E94D31A0E94DA1A0C94EC19043011F03E
:103390000C94CE190E94A4050C94EC19053011F080
:1033A0000C94DE19E0E7F9E40E94D91E0E94D31ABA
:1033B0000E94DA1A0E94FA0E0C94EC19063011F0F1
:1033C0000C94EC19E6E7F9E40E94D91E0E94D31A86
:1033D0000E94DA1A0E944E10ACE1B1E08C918F5F2E
:1033E0008C9310F40C946D19A7E4B2E08C9183FBDC
:1033F00016F00C94021A70914702777F709347027F
:103400000E9443061D990C94411A0027A3E2B0E0E4
:103410008C9185FB00F94427A7E4B2E08C9186FBF0
:1034200040F9041711F40C943F1A8AE090E00E94CE
:103430004B1B1D990C943F1AECE7F9E40E94D91E2E
:103440000E94D31AA3E2B0E08C9185FBA0E8BFE311
:103450000E94CA1E8D9388278C930E94CB1A0E94CB
:10346000DA1AA3E2B0E08C9185FBA7E4B2E08C917C
:1034700086F98C9370912A03706270932A030C94DE
:103480007B1A0027A3E2B0E08C9185FB00F944276A
:10349000A7E4B2E08C9186FB40F9041711F40C9478
:1034A0007B1A8AE090E00E944B1B1D9B0C947B1AB8
:1034B000ECE7F9E40E94D91E0E94D31AA3E2B0E01F
:1034C0008C9185FBA0E8BFE30E94CA1E8D938827DC
:1034D0008C930E94CB1A0E94DA1AA3E2B0E08C917E
:1034E00085FBA7E4B2E08C9186F98C9370912A0356
:1034F000706270932A030C945019ED91FC91EF5F68
:10350000FF4FFC93EE93089509D00E943D1E00FCEE
:1035100010D0089503D01ED001F8F9CF0024E8940C
:1035200057FF02C009D0689400F80BD010F80124AE
:10353000089502D009D00895509540954F5F5F4F90
:103540000895E89417FF0895009510950F5F1F4F99
:1035500068940895352F242FE894452B11F468942E
:103560000895512F402F0027112780E1440F551F48
:10357000001F111F021B130B416018F4020F131FD1
:103580004E7F8A9599F708958F938D918823E9F757
:1035900011978F910895A0E8BFE38D91882311F0D2
:1035A0000CD0FBCF08950E94701E802D11F005D025
:1035B000FACF08958DE001D08AE00090C00005FEAA
:1035C000FCCF8093C60008950090C80005FEFCCF94
:1035D0008093CE00089500FC05D0089530D005D02A
:1035E00001F8F9CF37D03FD00895842F952FA62F1B
:1035F000B72FE894452B462B472B11F46894089578
:10360000402F512F622F732F002711272227332796
:10361000F0E2440F551F661F771F001F111F221F66
:10362000331F081B190B2A0B3B0B416028F4080FB2
:10363000191F2A1F3B1F4E7FFA9559F70895002442
:10364000E89477FF02C006D0689400F809D010F81B
:103650000124089512D04F5F5F4F6F4F7F4F089541
:10366000E89437FF089500951095209530950F5FE9
:103670001F4F2F4F3F4F6894089540955095609588
:10368000709508953197F1F70895689462F8089558
:10369000E89462F80895EF93FF93EE27E82BE92B67
:1036A00031F0E0EAFFE03197F1F70197D1F7FF91B0
:1036B000EF9108958DE207FD8D938F2D881F802F48
:1036C000881F8F57082F6894F7F8802F87FF17C03F
:1036D00080958395082F80E38D938EE28D93802FC4
:1036E000815238F080E38D9399279C930E94CE1EDF
:1036F000089544270A95802F09F19ED01FC080525B
:1037000030F09EE49D9381E48D939D93EDCF44270B
:10371000DF92EF92FF920F938FE1801B11F0082F41
:103720008BD091D09EE29D930F91FF90EF90DF9010
:1037300044270395003209F4D5CF33D03F93E8ED09
:10374000F7E30E94D91E38E12F2D1E2D0D2DFF24E9
:10375000EE24DD244427000F111F221FB8F42F92FE
:103760003F920E94701E102C0E94701E202C0E94FE
:10377000701E302C0E94701E31970E949F1E410DBA
:10378000D21CE31CF01C3F902F9003C033960E9484
:10379000981E31960E94981E3A95E9F63F9107D0FF
:1037A000A5CFDD0CEE1CFF1C0A95D9F70895002764
:1037B00019E058D08F93802B11F0039501C08F91A1
:1037C0001A95B9F7802F882309F48CCF8F91805DEB
:1037D0008D930A95D9F788CF0065CD1D80B2E60E8E
:1037E00040597307A0ACB90350D6DC01286BEE003A
:1037F00094357700CA9A3B0065CD1D00B2E60E00F5
:1038000059730700ACB90300D6DC01006BEE000071
:10381000357700009A3B0000CD1D0000E60E000049
:1038200073070000B9030000DC010000EE00000097
:10383000770000003B000000F694E794D79447958A
:103840000A95D1F7089500270DD08F9303958F2DFA
:103850008E298D29842BC1F78F91805D8D930A95D8
:10386000D9F742CF1F930F93002710E2440FDD1CBE
:10387000EE1CFF1C001F802F9AE0890B10F0082F10
:1038800043951A9599F7802F0F911F910895082756
:1038900048E01695079510F4122701254A95C9F7B7
:1038A000089531E005C032E003C033E001C034E0E8
:1038B0000FEF1FEF20EA91E0192EE9DF46D0899142
:1038C000682FE5DF42D08991E2DF3FD08991DFDFC9
:1038D0003CD05991613078F0653068F48827D7DFA3
:1038E00034D0852F869509F481E0D1DF2ED0802F4A
:1038F0002CD0812F2AC0663041F49D918C91C7DF76
:1039000024D0892FC4DF21D0F2CF6031E9F4882799
:10391000BEDF1BD0852F869509F481E0682FB7DFC5
:1039200014D0862F880FB3DF10D0513019F48827B8
:103930009D9102C09D918D91AADF07D0892FA7DFAD
:1039400004D06A95B9F7D3CF0895313011F40C94AF
:10395000DD1A323011F40C94E41A0895A6E0B1E0B7
:10396000E3E0F1E00E94FB1C33970C94D71CE6E0E7
:10397000F1E0A3E0B1E00C94E91CEFE0F1E0A0E09D
:10398000B1E00C94C51CADE0BB27868197810E94F5
:10399000EA1E0D93838194810E94EA1E0D9380811B
:1039A00091810E94EA1E0D930895EDE0FF27828128
:1039B0000E94DF1E8AE38D9381810E94DF1E8AE3CD
:1039C0008D9380810E94DF1E88278C930895ADE03F
:1039D000BB27808191810E94EA1E0D93838194818F
:1039E0000E94EA1E0D93868197810E94EA1E0D9324
:1039F0000895EDE0FF2780810E94DF1E8FE28D9306
:103A000081810E94DF1E8FE28D9382810E94DF1EE2
:103A100088278D93089521D00F2D069506950F0DBB
:103A20000D0D8F2D837021F41E2D13300AF40A958D
:103A30008E2D8A959927EEE4FAE30E94D91EA8E11B
:103A4000BB270E948C1E080F47E00C94E420050160
:103A50000104060204000305010393E0ADE002C087
:103A600096E0AAE0B0E08FB7F89401910D939A9593
:103A7000E1F78FBF08950191119145EB55E00E9448
:103A80008A1A440F440FF42E0F31150728F481E0F1
:103A9000E82E0395D02E24C00C33150728F482E0BD
:103AA000E82E0E51D02E1CC00150150B4DE651E0F2
:103AB0000E94AA1AF40E7CE07A95872F9927E2EEED
:103AC000FAE30E94D91EA2E1BB270E94861E0217BC
:103AD000130790F37395E72E021B130B0395D02E5B
:103AE000089500001F003B005A0078009700B500C1
:103AF000D400F300110130014E0101911191219187
:103B0000308140E851E561E070E00E94EE1A042F38
:103B1000152F0C943D1DA1DF0E2D0A95802F0295C7
:103B2000003220F01F2D137009F40395DA940D0D67
:103B300011279927EAE4FBE30E94D91EA8E1BB27DD
:103B40000E948C1E080F111F0895000F1B2A384772
:103B500055647381909E81DF0F2D11274CE355270B
:103B60000E94841A55270E0D151F4CE32227332778
:103B7000662777270E94471E0D0D131F231F0895E8
:103B80006CDFDF92EF92FF920F2D11272227332750
:103B90004DE651E060E070E00E94471EFF904F2D1F
:103BA0004D5F469546955527662777270E94DB1F70
:103BB000EF90DF900F931F932F933F930E948C1DE4
:103BC000222733277F916F915F914F910C94DB1FD8
:103BD00047DFAF92BF92CF920E94C11D40E851E5EE
:103BE00061E070E00E94471EFF90EF90DF900F931E
:103BF0001F932F933F930E94AC1D7F916F915F9114
:103C00004F910C94DB1F019111912191308140E87B
:103C100051E561E070E00E94EE1A0C94131E0191D0
:103C200011912191308140E15EE060E070E00E94FE
:103C3000EE1AF42E4CE350E00E948A1AE42ED02EA5
:103C40000895AF93BF930E94031EBF91AF910C9450
:103C5000D51CAF93BF930E947D1DBF91AF910C9473
:103C6000F91C41E2FF2747BF84910895019111910A
:103C7000219130810895015010400F92B801469F64
:103C80008001479F100D569F100D0F9008950F92C1
:103C90001F922F92C801D901489F80014A9F90012D
:103CA0004B9F202C499F100D211D321D5A9F202C07
:103CB000589F100D211D321D599F200D311D689FE9
:103CC000200D311D699F300D789F300D2F901F9072
:103CD0000F9008950E94701E0D920020D9F708954C
:103CE000D895319628F48F938BB783958BBF8F919E
:103CF0000020089591E005C092E003C094E001C067
:103D000098E0EEDF0D929A95E1F70895880F991FDC
:103D1000E80FF91F0DD0F0CFE80FF91F09D0EACF57
:103D2000880F991F880F991FE80FF91F01D0E6CF60
:103D300028F48F938BB783958BBF8F91089528F4C8
:103D40008F938BB78A958BBF8F91089501960197BA
:103D500021F00E94701EE9F7FACF0895819104D0F6
:103D60008D938823D9F70895813618F08B3708F49E
:103D70008F7D089591E0882321F08894991F8A957A
:103D8000E9F7892F90950895883018F0119688509A
:103D9000FBCF089580E30EF4839508950F920024DD
:103DA0000BBE0F9008950F9301E00BBF0F91889405
:103DB00008950F930027F9CF0F9302E0F6CF002765
:103DC0008A3018F08A500395FBCF005D0D93805D1B
:103DD0008D930895805390530027813018F0065F2B
:103DE0008A95FBCF090F0895AF93BF930F939F93CD
:103DF0008F938FB78F93A0E0B1E08C9183958D93D3
:103E00008C3309F03DC088278E9311968C91839551
:103E10008D938C3309F034C088278E9311968C9142
:103E200083958D93883161F588278E9311968C91B7
:103E300083958D939C910EE1943089F0963079F0C2
:103E4000993069F09B3059F00CE1923039F41196B9
:103E50009C911197937019F4039501C00FE180179D
:103E600078F071F081E08E9311968C9183958D930B
:103E70008D3031F481E08E9311968C9183958C93E3
:103E80008F918FBF8F919F910F91BF91AF910F92A3
:103E90001F922F923F924F925F927F92AF92BF926A
:103EA0000F931F932F933F934F935F936F937F9342
:103EB0008F939F93AF93BF93CF93DF93EF93FF9332
:103EC0009FB79F939BB79F9399279BBF0E94D10257
:103ED0009F919BBF9F919FBFFF91EF91DF91CF91EA
:103EE000BF91AF919F918F917F916F915F914F9112
:103EF0003F912F911F910F91BF90AF907F905F9056
:103F00004F903F902F901F900F90189599278D916B
:103F100093958823E1F7939511968C9311978E9141
:103F20009A95D1F70895EA2FFB2F00244C918D919B
:103F300003948E32E1F711248D9113948823E1F7D5
:103F40001A94101640F41197202F2119239580E31D
:103F50008D932A95E9F7113039F59927AE2FBF2FA8
:103F6000A00DB91FA00FB91F8C919C93853308F445
:103F700021C031E08E918E32E9F38D3241F0830F12
:103F80008A3319F480E331E001C033278C93AE17F4
:103F900089F7332341F0AE2FBF2FB8DF81E34D32D5
:103FA00009F43196808308958827E00DF81FE00F0B
:103FB000F81F80830895040F151F261F371F0895CB
:103FC000041B150B260B370B08950417150726073E
:103FD00037070895000F111F221F331F0895009502
:103FE0001095209530950F5F1F4F2F4F3F4F08952D
:103FF000019110810FC00E94361E0EC00E94361E15
:1040000010C00191108117FF05C03FEF2FEF04C0D2
:10401000008111272227332737FF03C0E0DF8DE21D
:104020008D93CF92DF92EF92AA24BB24CC24DD247F
:10403000EE2440E2EAE0FF2755E093E38081890F18
:1040400087FD9F7083FD907F891B81935A95A9F707
:10405000C1DFAA1CBB1CCC1CDD1CEE1C4A9551F711
:10406000E894EFE0FF2782910BD0EB30E0F71EF0F1
:1040700068948A2D09D04D93EF90DF90CF900895EA
:10408000982F829501D0892F8F70805D26F0803324
:1040900009F4089568948D93089500271127222725
:1040A00033271DD08A3328F4803318F005D015D07B
:1040B000F9CF0EF494CF089580538F93402F512F52
:1040C000622F732F87DF86DF76DF84DF8F9199275A
:1040D000080F191F291F391F08958D910895E8941D
:1040E000FCDF8032E9F38B32D9F38930C9F38D32AA
:1040F00011F46894F2CF089541E003C042E001C09A
:1041000044E0E40F8827F81F8291982F829506D00B
:10411000892F04D04A95C1F70C94A5208F708A305E
:1041200008F0895F805D8D93089541E0E40F882752
:10413000F81F829138E098E1880F991F9D933A9576
:10414000D1F74A95B1F70C94A52088278D9308954F
:1041500081918D938823E1F7089594E081918D9367
:104160009A95E1F7089509919191992359F08A95CB
:10417000D9F73197002331F081918D930A958823E7
:10418000C9F70895E2CFF999FECFE1BDF2BD3196AE
:10419000089591E001C092E07B3751F47FB7F89425
:1041A000F2DF8D9180BDFA9AF99A9A95C9F77FBF8F
:1041B0007727089591E001C092E0E5DFF89A80B595
:1041C0008D939A95D1F70895FF93881BF9E0001F0E
:1041D000FA9511F4FF910895881F841B18F4840F39
:1041E0008894F5CF0894F3CF8FEF83959D91992311
:1041F000E1F70895689401C0E894AF93BF938D915F
:1042000016F0919103C00E94701E902D891718F02E
:1042100011F48823A1F7BF91AF9108950D91998171
:10422000903009F013D0502788E0440F551F10F448
:10423000422753278A95C9F7319781F78991999138
:10424000803019F08A0105D0A801089588E011276F
:1042500001C080E1080116940794001F111F8A9580
:10426000D1F708950FEF1FEF2FEF3FEF60E273E8F4
:1042700088EB9DEE0D90002548E0889437952795B2
:104280001795079520F406271727282739274A95D9
:10429000A1F7319779F700951095209530950895FD
:1042A000689401C0E8942227102F231709F4089579
:1042B00026F40E94701E802D01C08191803081F013
:1042C000891741F070E08D931A9591F7239571E06D
:1042D0001D93EACF01D0E8CF703011F07727089511
:1042E000772331F42395882713958D931A95E9F751
:1042F0000895B7FE089590E8B91611F4D0FE089518
:104300009FEFD91AE90AF90A09F403950895D190A3
:10431000E190F19001910895219131914191519154
:104320000895502F2D2D3E2D4F2D612F0895652F6F
:1043300090E8440F551F5927990F47956078102F23
:1043400090E8FF0C001F0927990FF79410780038A8
:104350000895FF0C90E89027110F9795F794092F77
:1043600008951127BD2CDE2CEF2CF02E0EE1FF203E
:1043700039F4FE2CED2CDB2CBB240850C2F775C0A1
:1043800032F00A95BB0CDD1CEE1CFF1CF9CFB1DF2F
:10439000E0CF102FBD2CDE2CEF2CF02E11234AF491
:1043A000B094D094E094F0949FEFB91AD90AE90A36
:1043B000F90A0EE1FF2039F4FE2CED2CDB2CBB2496
:1043C0000850C2F752C032F00A95BB0CDD1CEE1C3F
:1043D000FF1CF9CF8EDFBDCF2DEC3CEC4CEC5DE348
:1043E00066270FC094DF9DDFDD24EE2490E8F92ED0
:1043F0000FE307C091DF05C02227332740E251E4D5
:104400006627552351F1002381F191DF71F11627C1
:10441000005850580894050B18F407FD03C025C038
:1044200007FD23C0469537952795F694E794D794D2
:1044300025D0FF202AF0DD0CEE1CFF1C015073F08C
:104440009D2D969548F0DD203AF4EE202AF491E077
:10445000D90E9927E91EF91E7CCF07C09FE7092FC7
:10446000F92A9FEFD92EE92E0895DD24EE24FF24AA
:104470000027112708950FE79FEFF2CF9F9299240D
:10448000AA24BB2488E1D216E306F40628F0D21A47
:10449000E30AF40A089401C08894991CAA1CBB1C66
:1044A000DD0CEE1CFF1C8A9571F7D92CEA2CFB2C35
:1044B0009F9008953CDFD9F05038C9F01627005876
:1044C000952F90580894091F12F418F40EC008F0A4
:1044D0000EC00FD0FF202AF0BB0CDD1CEE1CFF1C11
:1044E00002C0039513F005DF34CF0C942E220C94F8
:1044F00035229F92FF92EF928D2DFF24EE24DD2432
:10450000BB2493E0849F1001829FB00CD11CE21C5D
:10451000F31C839FD00CE11C2224F21C9A9531F0ED
:10452000BD2CDE2CEF2CFF248F91ECCF9F900895B3
:104530000E94701E202D0E94701E302D0E94701E41
:10454000402D0E94701E502D089500007A440000F6
:10455000C842000080BF30372F30312F3235000085
:1045600031313A32383A303000002A2A2A2A2A2AAF
:104570002A2A2A2A2A2A20454D45544552203230DB
:104580003235202A2A2A2A2A2A2A2A2A2A2A2A00AC
:1045900032332D31322D323032352031373A353801
:1045A0003A353800302E302E31323800454D4554E2
:1045B00045522E4241530000417574003D002C20AD
:1045C0004F46460049447365723C00003E00556CFE
:1045D00074696D6120414354434C4B2000002C0012
:1045E000454E414255473D004944536C6176653E16
:1045F0000000434E5452696E693D000054727920A8
:1046000000005074723D00002C20416464723D0033
:10461000545820005054524D44423D005633667366
:104620003D0056613D0056623D0056633D004933F2
:10463000733D000049613D0049623D0049633D0012
:1046400045616733733D00004561673D0000456289
:10465000673D00004563673D000050777233733D4E
:104660000000507772613D00507772623D005077D4
:1046700072633D00456133733D00457233733D0005
:10468000667265633D0043543D0056543D005074CE
:1046900072206E6F2076616C0000524547204D44B9
:1046A00042204445433D00002C204845583D000031
:1046B0002C204445433D0000435243206661696C11
:1046C00020656E20414444523D004573706572611F
:1046D00020525049200052504974783E0000534502
:1046E00052313D002400545841555431203B0000C4
:1046F000412C00002D3100002600545841555434FF
:10470000203B00002D320000545841555435203BC9
:1047100000002D3500002C2C2C00545841555436E7
:10472000203B00002D3600002C2C2C2C2C2C0000C3
:104730004F4B0000455252005345544D4244000037
:104740004E4557204D444320434D44005345544467
:10475000414100004E6F20636D642076616C000063
:104760004C4545564657000056657273696F6E207A
:1047700046573A204665636861203C003E2C204144
:1047800072636869766F203C00005345544C454481
:104790000000536520636F6E6669677572612073F0
:1047A00065746C6564206120000052535456415278
:1047B000000056616C6F72657320706F72206465C3
:1047C0006661756C7400534554434C4B00003A00CD
:1047D000543E00002F00443E0000574154434849D6
:1047E0004E4720494E464F524D412E20536520637F
:1047F0006F6E66696775726F2072656C6F6A20658F
:104800006E20000020612000534953434C4B0000B0
:10481000486F72612061637475616C3D00002C20EB
:1048200046656368612061637475616C3D004C4549
:1048300045434C4B0000556C74696D6120414354F5
:1048400020434C4B2061203D00002C2064656C20EF
:1048500000005345544155540000536520636F6E6A
:1048600066696775726F2074782041555420000086
:104870005345544F464600004C45454155540000B1
:1048800054782041757420004C45454F4646000041
:104890004F66667365742041757420005345544E0D
:1048A0004557000053652061637469766F20547822
:1048B0002E204155542000005345544255470000D6
:1048C000536520636F6E66696775726F20454E4150
:1048D0004255473D00004C454542554700004C4578
:1048E000455249440000494420736572203C000051
:1048F0005345544449520000536520636F6E666906
:104900006775726F204944736C6176652061200081
:104910004C454544495200004944736C617665201A
:104920003D0053455452454C0000524553455420D8
:1049300072656C6500005345542072656C6500001B
:1049400045737065726120434C4B2064656C205345
:10495000657276657200414354434C4B00004155EB
:104960005431000041555432000041555433000089
:10497000415554350000415554360000537075655B
:064980007274613D0000AD
:00000001FF
