:100000000C94460018950000189500001895000003
:10001000189500001895000018950000189500002C
:100020001895000018950000189500000C94871C86
:10003000189500001895000018950000189500000C
:1000400018950000189500000C94F7011895000011
:100050000C94BB001895000018950000189500003E
:1000600018950000189500001895000018950000DC
:100070000C949E011895000018950000189500003A
:100080001895000018950000189500008FEF8DBF9F
:10009000C0E8E8E94E2E80E48EBFD0E4FFE35F2E97
:1000A000A89584B7082E882784BF88E19927809374
:1000B000600090936000EEEFFFE3A0E0B1E08827DE
:1000C0008D933197E9F787E68093C40080E08093B1
:1000D000C50088E18093C1006624209A25982D9A56
:1000E000279A2F9885E085BD80E084BD70916E00D1
:1000F000716070936E0085E085BD80E28093B600EC
:1001000085E08093B1007091700071607093700011
:10011000A6E0B1E0E6EBFFE30E946C1C0E94FD1B31
:100120000E944A1AAFE0B1E0E0ECFFE30E946C1CD1
:100130000E94FD1B0E94501A7091C100706870935C
:10014000C10083E38093CC0080E08093CD00709168
:10015000C8007D7F7093C80087E08093CA0088E163
:100160008093C900229A7091C90070687093C90089
:1001700078940C945A160F921F922F923F924F929E
:100180005F927F92AF92BF920F931F932F933F93F3
:100190004F935F936F937F938F939F93AF93BF938F
:1001A000CF93DF93EF93FF939FB79F939BB79F935B
:1001B00099279BBFA9EAB6E08091C6008C9384E2A0
:1001C000482F0091A906041711F00C94F2007091C9
:1001D0001403706870931403A0EEB5E088278C9325
:1001E0000C94800185E2482F041711F00C94030150
:1001F00070911403706270931403A4E7B7E088272A
:100200008C930C9480010D3011F00C944701A4E103
:10021000B3E08C9187FB16F00C94260170911403C7
:100220007F777093140380E0A0EEB5E00E9457182A
:100230008D9388278C93E0EEF5E0AAEAB6E00E9461
:100240003B1E70911403706470931403A4E1B3E037
:100250008C9185FB16F00C944501709114037F7D01
:100260007093140380E0A4E7B7E00E9457188D93C1
:1002700088278C93E4E7F7E0A1E0B8E00E943B1EFA
:10028000709114037061709314030C9480010F310A
:1002900018F011F00C944E010C948001A4E1B3E02D
:1002A0008C9187FB16F00C945F01A9EAB6E08C9163
:1002B000A0EEB5E00E9457188D9388278C93A4E197
:1002C000B3E08C9185FB16F00C948001A9EAB6E0AE
:1002D0008C91A4E7B7E00E9457188D9388278C93E0
:1002E000A4E7B7E00E94871E082F0C3818F011F021
:1002F0000C947C010C948001A4E7B7E088278C93D0
:100300009F919BBF9F919FBFFF91EF91DF91CF91F5
:10031000BF91AF919F918F917F916F915F914F911D
:100320003F912F911F910F91BF90AF907F905F9061
:100330004F903F902F901F900F9018950F921F9203
:100340002F923F924F925F927F92AF92BF920F9304
:100350001F932F933F934F935F936F937F938F934D
:100360009F93AF93BF93CF93DF93EF93FF939FB789
:100370009F939BB79F9399279BBFAEE8B8E080916E
:10038000CE008C93A4E1B3E08C9183FB16F00C9427
:10039000D901A4EBB2E08C918F5F8C9380918E0891
:1003A000A4EBB2E0AD90BB24AEE8B8E0AA0DBB1D53
:1003B0008C939F919BBF9F919FBFFF91EF91DF9186
:1003C000CF91BF91AF919F918F917F916F915F91ED
:1003D0004F913F912F911F910F91BF90AF907F90C0
:1003E0005F904F903F902F901F900F9018950F9215
:1003F0001F922F923F924F925F927F92AF92BF9245
:100400000F931F932F933F934F935F936F937F931C
:100410008F939F93AF93BF93CF93DF93EF93FF930C
:100420009FB79F939BB79F9399279BBF74E676BD19
:10043000ABEFB2E08C918F5F8C93ABEFB2E00C919D
:1004400048E00E94771E8C930091FB02003011F06F
:100450000C946302ACEFB2E00C9140E20E94771E74
:100460008C93E0E7FCE20E946C1CA1E0B3E08C916D
:100470009927ADEFB2E00E94231C8091FC02ADEF02
:10048000B2E00E94571C0E944D1C0C9008226894F8
:1004900009F4E894A7E4B2E08C9182F98C93A7E484
:1004A000B2E08C9194E089278C93A7E4B2E08C9120
:1004B00082FBA5E2B0E08C9180F98C93ACEFB2E0C6
:1004C0008C918F5F8C93A4E1B3E08C9183FB16F049
:1004D0000C948E02ACEBB2E00E941018ACEBB2E0D0
:1004E0000D911C9140EA50E00E943D18ACEBB2E047
:1004F0000D931C93ACEBB2E00D911C91003050E0D9
:10050000150711F00C948E0270911403777F70938D
:10051000140370914702786070934702A7E4B2E039
:100520008C9180FB16F00C94AD02A4E0B3E00E9425
:100530001018A6E0B3E04D915C91A4E0B3E00D91FA
:100540001C910417150711F00C94AB02709147022F
:100550007260709347020C94B30280E090E0A4E0D4
:10056000B3E08D939C939F919BBF9F919FBFFF9101
:10057000EF91DF91CF91BF91AF919F918F917F913B
:100580006F915F914F913F912F911F910F91BF906C
:10059000AF907F905F904F903F902F901F900F9063
:1005A0001895E0E0F1E00E947B1BAAE0B3E00D9318
:1005B0001D932D933D9381E08093080300910803E0
:1005C000063018F011F00C944A030091080341E042
:1005D000041BA9E0B3E00C93AAE0B3E00D911D91D8
:1005E0002D913C91A8E0B3E0AD90BB24A4E6B2E02D
:1005F000AA0CBB1CAA0CBB1CAA0DBB1D4D915D9186
:100600006D917C910E94731DAEE0B3E00D931D933C
:100610002D933D93AEE0B3E00D911D912D913C9152
:10062000A8E0B3E0AD90BB24ACE4B2E0AA0CBB1CE4
:10063000AA0CBB1CAA0DBB1D4D915D916D917C91C7
:100640000E948118AEE0B3E00D931D932D933D936E
:1006500040E050E060E070E0AEE0B3E00D911D914D
:100660002D913C910E94781D11F00C9442038091D1
:100670000903A2E1B3E00E94571C0E944D1C9C910B
:10068000982B9C93A8E0B3E08C918F5F8C9310F42F
:100690000C94DE027091130371607093130308953C
:1006A0002898EAECFFE30E946C1C0E9466180E94E6
:1006B0006D18A0E8BFE3E0EFFFE30E946C1C0E940E
:1006C000FD1B0E945E180E946D18A0E8BFE3E4E0E5
:1006D000F0E40E946C1C0E94FD1B0E945E180E94A8
:1006E0006D18A0E8BFE3ECE0F0E40E946C1C0E94EF
:1006F000FD1B0E945E180E946D1881E0809301032B
:1007000081E08093190100911901063018F011F071
:100710000C941604E9E1F1E0A190BB24EEEFFFEFA9
:10072000AA0CBB1CAA0CBB1CEA0DFB1DA9E1B1E085
:10073000AD90BB24ACE4B2E0AA0CBB1CAA0CBB1C61
:10074000AA0DBB1D94E00E94701EE9E1F1E0A190AA
:10075000BB24E6E1F0E0AA0CBB1CAA0CBB1CEA0D12
:10076000FB1DA9E1B1E0AD90BB24A4E6B2E0AA0C68
:10077000BB1CAA0CBB1CAA0DBB1D94E00E94701EE2
:10078000E8E1F0E40E946C1C0E946618E9E1F1E0E7
:10079000A0E8BFE30E949B1D0E945E18ECE1F0E41C
:1007A0000E946C1C0E946618E9E1F1E0A190BB2454
:1007B000ECE4F2E0AA0CBB1CAA0CBB1CEA0DFB1D6E
:1007C000A0E8BFE30E948E1D0E945E18EEE1F0E4F7
:1007D0000E946C1C0E946618E9E1F1E0A0E8BFE30A
:1007E0000E949B1D0E945E18ECE1F0E40E946C1CCC
:1007F0000E946618E9E1F1E0A190BB24E4E6F2E092
:10080000AA0CBB1CAA0CBB1CEA0DFB1DA0E8BFE395
:100810000E948E1D0E945E180E946D18A9E1B1E031
:100820008C918F5F8C9310F40C9483030E94A3042B
:10083000E4E2F0E40E946C1C0E946618A0E8B2E0BA
:100840000E946018ECE2F0E40E946C1C0E946618A2
:100850000E946D18E2E3F0E0ADEAB2E094E00E949D
:10086000701EEEE2F0E40E946C1C0E946618EDEA35
:10087000F2E0A0E8BFE30E94BC1B0E945E18EEE31A
:10088000F0E40E946C1C0E946618EDEAF2E0A0E819
:10089000BFE30E94B41B0E945E180E946D18E0E046
:1008A000F0E0A0E4B2E00E946D1EE0E4F0E40E94FB
:1008B0006C1C0E946618E0E4F2E0A0E8BFE30E942E
:1008C0009B1D0E945E180E946D18E1E0F0E0A1E41B
:1008D000B2E00E946D1EE8E4F0E40E946C1C0E94ED
:1008E0006618E1E4F2E0A0E8BFE30E949B1D0E94CD
:1008F0005E180E946D18E6E3F0E0A9EFB2E00E94F6
:100900006F1EA9EFB2E00D911C910F5F1F4FA9EF71
:10091000B2E00D931C93E6E3F0E0A9EFB2E07BE7D1
:100920000E945E1EE2E5F0E40E946C1C0E946618C4
:10093000E9EFF2E0A0E8BFE30E948B1D0E945E1881
:100940000E946D18089580E08093190180E08093E3
:100950001A01A0E8B2E088278C938EE080931901F9
:1009600000911901073118F011F00C94CE04A9E19F
:10097000B1E0EC91FF270E94C41B082FE0E1F0E0FA
:10098000A0E8B2E00E9457180E940F1EA9E1B1E052
:100990008C918F5F8C9310F40C94B004E0E8F2E03B
:1009A000A0E3B1E00E943B1EA0E8B2E088278C9350
:1009B0008EE08093190100911901073118F011F0B0
:1009C0000C94F904A9E1B1E0EC91FF270E94C41B4B
:1009D000082FE0E1F0E0A0E8B2E00E9457180E9482
:1009E0000F1EA9E1B1E08C918F5F8C9310F40C94F1
:1009F000DB04E0E3F1E0A0E8B2E00E948F1E11F01A
:100A00000C94050581E080931901AAE1B1E08C9175
:100A10008F5F8C9300911901003011F00C94240524
:100A200084EF91E00E94DE18ECE5F0E40E946C1C7B
:100A30000E946618EAE1F1E0A0E8BFE30E949B1D76
:100A40000E945E180E946D1800911901013081E02A
:100A500009F080E08F9300911A010A3081E009F0DB
:100A600080E09F91892B882311F40C94A9040895A8
:100A700000E010E020E030E0A1E2B1E00D931D9332
:100A80002D933C9381E08093190100911901063068
:100A900018F011F00C948E05E9E1F1E0A190BB246F
:100AA000EEEFFFEFAA0CBB1CAA0CBB1CEA0DFB1D52
:100AB0000CE211E020E030E0A0E1BB2794E07BE70E
:100AC0000E945F1EE9E1F1E0A190BB24E6E1F0E0C5
:100AD000AA0CBB1CAA0CBB1CEA0DFB1DA1E2B1E0D9
:100AE00094E07BE70E945F1EA1E2B1E00D911D91B1
:100AF0002D913C914CE350E060E070E00E946E1D4F
:100B0000A1E2B1E00D931D932D933D93A9E1B1E0D6
:100B10008C918F5F8C9310F40C944505E1E0F0E02C
:100B2000A0E1BB2781E08C937BE70E945C1EEEE096
:100B3000F0E00AE010E020E030E0A0E1BB2794E024
:100B40007BE70E945F1E0895AEEBB2E08C918F5F51
:100B50008C93AEEBB2E00C9145E00E94771E8C9333
:100B6000EAE8FBE20E946C1CAEEBB2E08C919927A4
:100B7000A2EBB2E00E94191CE2E6F0E40E946C1CB9
:100B80000E946618EEEBF2E0A0E8BFE30E949B1D16
:100B90000E945E18E8E6F0E40E946C1C0E94661851
:100BA000E2EBF2E0A0E8BFE30E94111E0E945E1893
:100BB0000E946D1881E080931E0100911E01003497
:100BC00018F011F00C94F60580E0AEE1B1E0AD90C4
:100BD000BB24AEE8B8E0AA0DBB1D8C93AEE1B1E03A
:100BE0008C918F5F8C9310F40C94DD0580E08093E2
:100BF000B402A0E4B2E00C9103FB16F00C942006C2
:100C0000E0E7F0E40E946C1C0E946618E2EBF2E060
:100C1000A0E8BFE30E94111E0E945E180E946D189A
:100C200084E28A93A2EBB2E08D919C918A939A938D
:100C300083E08A93809141020E94E4190E946D181A
:100C4000709114037860709314032A9A84E28A9353
:100C5000A2EBB2E08D919C918A939A9383E08A9360
:100C6000809141020E94E619EF93FF93ECE6F7E1D1
:100C70000E94D518FF91EF912A98709147027061F8
:100C8000709347020895A0E4B2E00C9103FB16F0C4
:100C90000C949206E4E7F0E40E946C1C0E94661833
:100CA000E4EBF2E0A0E8BFE30E949B1D0E945E1807
:100CB000E8E6F0E40E946C1C0E946618E2EBF2E0A9
:100CC000A0E8BFE30E94111E0E945E180E946D18EA
:100CD00081E080931E014091B40200911E0104172F
:100CE00018F011F00C949006EEE1F1E0A190BB2415
:100CF000EEE8F8E0EA0DFB1DA0E8BFE30E940F1E3E
:100D00000E945E18EEE3F0E40E946C1C0E946618DC
:100D1000AEE1B1E08C918F5F8C9310F40C946B0674
:100D20000E946D180091B40242E0041BA5EBB2E0F2
:100D30000C930091B50241E0040FA6EBB2E00C93D6
:100D40000091B60241E0040FA7EBB2E00C9381E002
:100D50008A9381E08A93A5EBB2E0EC91FF274FEFF5
:100D60005FEF25E030E8AFE8B8E00E94A11EA8EBF5
:100D7000B2E04D935C93A7EBB2E0AD90BB24AEE83C
:100D8000B8E0AA0DBB1D9C91A6EBB2E0AD90BB24D0
:100D9000AEE8B8E0AA0DBB1D8C91AFE1B1E08D9338
:100DA0009C93AFE1B1E04D915C91A8EBB2E00D9165
:100DB0001C910417150711F00C94790AA7E4B2E00E
:100DC0008C9184FB16F00C94110A0091BE02003045
:100DD00011F00C9485078091920880934F028091C6
:100DE000930880934E028091940880934D028091E5
:100DF000950880934C02ECE7F0E40E946C1C0E9482
:100E00006618ECE4F2E0A0E8BFE30E94911D0E94A6
:100E10005E180E946D188091960880934F02809111
:100E2000970880934E028091980880934D0280919C
:100E3000990880934C02ACE4B2E08D919C91AFEBA9
:100E4000B2E08D939C93E2E8F0E40E946C1C0E9457
:100E50006618EFEBF2E0A0E8BFE30E948B1D0E9452
:100E60005E180E946D1880919A0880934F028091BD
:100E70009B0880934E0280919C0880934D02809144
:100E80009D0880934C02ACE4B2E08D919C91A1EC62
:100E9000B2E08D939C93E6E8F0E40E946C1C0E9403
:100EA0006618E1ECF2E0A0E8BFE30E948B1D0E940F
:100EB0005E180E946D1880919E0880934F02809169
:100EC0009F0880934E028091A00880934D028091EC
:100ED000A10880934C02ACE4B2E08D919C91A3EC0C
:100EE000B2E08D939C93EAE8F0E40E946C1C0E94AF
:100EF0006618E3ECF2E0A0E8BFE30E948B1D0E94BD
:100F00005E180E946D180C940F0A013011F00C94B9
:100F100063088091920880934F0280919308809398
:100F20004E028091940880934D02809195088093A1
:100F30004C02E2EBFFE30E946C1C0E94CC1FECE42D
:100F4000F2E00E941A1F0E94491F0E94761FEDE0E6
:100F5000F0E0A9ECB2E00E94401EEEE8F0E40E944E
:100F60006C1C0E946618E9ECF2E0A0E8BFE30E9466
:100F70001A1F0E94ED180E945E180E946D18809141
:100F8000960880934F028091970880934E0280913B
:100F9000980880934D028091990880934C02E2EB6F
:100FA000FFE30E946C1C0E94CC1FECE4F2E00E9464
:100FB0001A1F0E94491F0E94761FEDE0F0E0ADEC81
:100FC000B2E00E94401EE4E9F0E40E946C1C0E9422
:100FD0006618EDECF2E0A0E8BFE30E941A1F0E9441
:100FE000ED180E945E180E946D1880919A088093F7
:100FF0004F0280919B0880934E0280919C088093C1
:101000004D0280919D0880934C02E2EBFFE30E9429
:101010006C1C0E94CC1FECE4F2E00E941A1F0E949C
:10102000491F0E94761FEDE0F0E0A1EDB2E00E94C2
:10103000401EE8E9F0E40E946C1C0E946618E1ED95
:10104000F2E0A0E8BFE30E941A1F0E94ED180E9480
:101050005E180E946D1880919E0880934F028091C7
:101060009F0880934E028091A00880934D0280914A
:10107000A10880934C02E2EBFFE30E946C1C0E94EB
:10108000CC1FECE4F2E00E941A1F0E94491F0E944C
:10109000761FEDE0F0E0A5EDB2E00E94401EECE925
:1010A000F0E40E946C1C0E946618E5EDF2E0A0E8F6
:1010B000BFE30E941A1F0E94ED180E945E180E9452
:1010C0006D180C940F0A023011F00C9415098091E0
:1010D000920880934B028091930880934A028091FA
:1010E0009408809349028091950880934802E8E42F
:1010F000F2E0A9EDB2E00E94401EE0EAF0E40E94B6
:101100006C1C0E946618E9EDF2E0A0E8BFE30E94C3
:101110001A1F0E94ED180E945E180E946D1880919F
:10112000960880934B028091970880934A028091A1
:101130009808809349028091990880934802ECE4D2
:10114000F2E00E941A1F0E94491FADEDB2E00E941A
:10115000241FE8EAF0E40E946C1C0E946618EDED82
:10116000F2E0A0E8BFE30E941A1F0E94ED180E945F
:101170005E180E946D1880919A0880934B028091AE
:101180009B0880934A0280919C0880934902809139
:101190009D0880934802ECE4F2E00E941A1F0E942E
:1011A000491FA1EEB2E00E94241FEEEAF0E40E9483
:1011B0006C1C0E946618E1EEF2E0A0E8BFE30E941A
:1011C0001A1F0E94ED180E945E180E946D188091EF
:1011D0009E0880934B0280919F0880934A028091E1
:1011E000A008809349028091A10880934802ECE412
:1011F000F2E00E941A1F0E94491FA5EEB2E00E9471
:10120000241FE4EBF0E40E946C1C0E946618E5EEDB
:10121000F2E0A0E8BFE30E941A1F0E94ED180E94AE
:101220005E180E946D180C940F0A033011F00C9494
:10123000CB098091920880934F028091930880930C
:101240004E028091940880934D028091950880937E
:101250004C02ACE4B2E00D911D912D913C91A9EEB0
:10126000B2E00D931D932D933C93EAEBF0E40E94C2
:101270006C1C0E946618E9EEF2E0A0E8BFE30E9451
:10128000911D0E945E180E946D1880919A088093AB
:101290004F0280919B0880934E0280919C0880931E
:1012A0004D0280919D0880934C02ACE4B2E00D9118
:1012B0001D912D913C91ADEEB2E00D931D932D93B8
:1012C0003C93E0ECF0E40E946C1C0E946618EDEE8A
:1012D000F2E0A0E8BFE30E94911D0E945E180E9408
:1012E0006D1880919E0880934F0280919F08809393
:1012F0004E028091A00880934D028091A1088093B6
:101300004C02ACE4B2E00D911D912D913C91A1EF06
:10131000B2E00D931D932D933C93E4ECF0E40E9416
:101320006C1C0E946618E1EFF2E0A0E8BFE30E94A7
:10133000911D0E945E180E946D188091A2088093F2
:101340004F028091A30880934E028091A40880935D
:101350004D028091A50880934C02ACE4B2E00D915F
:101360001D912D913C91A5EFB2E00D931D932D930E
:101370003C93E4EBF0E40E946C1C0E946618E5EFDD
:10138000F2E0A0E8BFE30E94911D0E945E180E9457
:101390006D180C940F0A043011F00C94070A809118
:1013A000920880934F028091930880934E0280911F
:1013B000940880934D028091950880934C02E2EB53
:1013C000FFE30E946C1C0E94CC1FECE4F2E00E9440
:1013D0001A1F0E94491F0E94761FEDE0F0E0A5EC65
:1013E000B2E00E94401EE8ECF0E40E946C1C0E94F7
:1013F0006618E5ECF2E0A0E8BFE30E941A1F0E9425
:10140000ED180E945E180E946D180C940F0AEEEC05
:10141000F0E40E946C1C0E9466180E946D180C94E7
:10142000770A0091B402073011F00C944B0A9091A6
:10143000920880919308AAEBB2E08D939C93EAED19
:10144000F0E40E946C1C0E946618EAEBF2E0A0E84F
:10145000BFE30E948B1D0E945E18E8EEF0E40E943C
:101460006C1C0E946618EAEBF2E0A0E8BFE30E9461
:10147000111E0E945E18E0EFF0E40E946C1C0E94B6
:101480006618EAEBF2E0A0E8BFE30E948B1D0E9421
:101490005E180E946D180091B402083011F00C948F
:1014A000770A9091930880919408AAEBB2E08D930B
:1014B0009C93EAEDF0E40E946C1C0E946618EAEB33
:1014C000F2E0A0E8BFE30E948B1D0E945E18E8EEE8
:1014D000F0E40E946C1C0E946618EAEBF2E0A0E8BF
:1014E000BFE30E94111E0E945E180E946D180C94AA
:1014F000900AA0E4B2E00C9103FB16F00C94900A61
:10150000E8EFF0E40E946C1C0E946618E2EBF2E047
:10151000A0E8BFE30E94111E0E945E180E946D1891
:10152000089580E080934602709147027F77709320
:101530004702A6E4B2E08C918F5F8C93EAE0F1E47D
:101540000E946C1C0E946618E6E4F2E0A0E8BFE38B
:101550000E949B1D0E945E180E946D1884E690E018
:10156000A6E0B3E08D939C9380E090E0A4E0B3E02C
:101570008D939C93709147027160709347027091B4
:1015800047027D7F70934702A4E1B3E08C9184FB16
:1015900016F00C94DE0A709114037F7E709314038E
:1015A000E6E1F1E40E946C1C0E946618A1E0B8E03C
:1015B0000E9460180E946D180E94B70EA4E1B3E06B
:1015C0008C9186FB16F00C94F80A709114037F7BC3
:1015D00070931403EEE1F1E40E946C1C0E94661803
:1015E000AAEAB6E00E9460180E946D180E94410F9E
:1015F000A7E4B2E08C9187FB81E00EF080E08F934E
:10160000A7E4B2E08C9181FB81E00EF080E09F9135
:10161000892B882311F40C94C40A709147027E7FB1
:1016200070934702A7E4B2E08C9187FB16F40C9408
:10163000250BE4E2F1E40E946C1C0E946618A0E312
:10164000B1E00E9460180E946D18A7E4B2E08C918E
:1016500087FB81E00EF080E08F930091460203301B
:1016600081E009F080E09F91892B882311F40C948C
:10167000990A709147027E7F7093470270914702EA
:101680007F77709347020895E6E2F1E40E946C1CB4
:101690000E9466180E94411AAFE0B1E00E946018F3
:1016A000EEE3F0E40E946C1C0E9466180E94411A4E
:1016B000A6E0B1E00E9460180E946D180E94411AD5
:1016C000E6E0F1E0A7E9B2E00E943B1E0E94411A69
:1016D000EFE0F1E0A2EAB2E00E943B1EA0E3B1E03D
:1016E000E0E3F1E40E946C1C0E94FD1BE7E9F2E0DC
:1016F000A0E3B1E00E9457180E943B1EA0E3B1E0B6
:101700000E945718EEE3F0E40E946C1C0E94FD1B3F
:10171000E2EAF2E0A0E3B1E00E9457180E943B1E0B
:10172000A0E3B1E00E945718EEE3F0E40E946C1CC5
:101730000E94FD1BE0E8F2E0A0E3B1E00E94571830
:101740000E943B1EA0E3B1E00E945718E4E3F1E4DD
:101750000E946C1C0E94FD1BA0E3B1E00E94571880
:10176000EEE3F0E40E946C1C0E94FD1BEFEBF2E044
:10177000A0E3B1E00E9457180E948B1DA0E3B1E0E6
:101780000E945718EEE3F0E40E946C1C0E94FD1BBF
:10179000E1ECF2E0A0E3B1E00E9457180E948B1D3B
:1017A000A0E3B1E00E945718EEE3F0E40E946C1C45
:1017B0000E94FD1BE3ECF2E0A0E3B1E00E945718A9
:1017C0000E948B1DA0E3B1E00E945718EEE3F0E405
:1017D0000E946C1C0E94FD1BE5ECF2E0A0E3B1E06E
:1017E0000E9457180E941A1F0E94ED18A0E3B1E052
:1017F0000E945718EEE3F0E40E946C1C0E94FD1B4F
:10180000EDECF2E0A0E3B1E00E9457180E941A1F2D
:101810000E94ED18A0E3B1E00E945718EEE3F0E457
:101820000E946C1C0E94FD1BE1EDF2E0A0E3B1E020
:101830000E9457180E941A1F0E94ED18A0E3B1E001
:101840000E945718EEE3F0E40E946C1C0E94FD1BFE
:10185000E5EDF2E0A0E3B1E00E9457180E941A1FE4
:101860000E94ED18A0E3B1E00E945718EEE3F0E407
:101870000E946C1C0E94FD1BA0E3B1E00E94871E29
:10188000AFE1B1E08D9388278C93AFE1B1E0ED91AA
:10189000FC91A0E3B1E00E94C51EA2E4B2E00D936A
:1018A0001D932D933D93A0E3B1E00E945718E8E308
:1018B000F1E40E946C1C0E94FD1BE2E4F2E0A0E354
:1018C000B1E00E9457180E94131EE4E2F1E40E9466
:1018D0006C1C0E946618A0E3B1E00E9460180E9490
:1018E0006D180E94910A0895EAE3F1E40E946C1CCD
:1018F0000E9466180E94411AAFE0B1E00E94601891
:10190000EEE3F0E40E946C1C0E9466180E94411AEB
:10191000A6E0B1E00E9460180E946D180E94411A72
:10192000E6E0F1E0A7E9B2E00E943B1E0E94411A06
:10193000EFE0F1E0A2EAB2E00E943B1EA0E3B1E0DA
:10194000E0E3F1E40E946C1C0E94FD1BE7E9F2E079
:10195000A0E3B1E00E9457180E943B1EA0E3B1E053
:101960000E945718EEE3F0E40E946C1C0E94FD1BDD
:10197000E2EAF2E0A0E3B1E00E9457180E943B1EA9
:10198000A0E3B1E00E945718EEE3F0E40E946C1C63
:101990000E94FD1BE0E8F2E0A0E3B1E00E945718CE
:1019A0000E943B1EA0E3B1E00E945718E4E4F1E47A
:1019B0000E946C1C0E94FD1BA0E3B1E00E9457181E
:1019C000EEE3F0E40E946C1C0E94FD1BE9EDF2E0E6
:1019D0000E941A1FA0E8BFE3AF93BF930E94ED18C7
:1019E00011E002E0BF91AF910E94261DE0E8FFE305
:1019F000A0E3B1E00E9457180E943B1EA0E3B1E0B3
:101A00000E945718EEE3F0E40E946C1C0E94FD1B3C
:101A1000EDEDF2E00E941A1FA0E8BFE3AF93BF9381
:101A20000E94ED1811E002E0BF91AF910E94261DC7
:101A3000E0E8FFE3A0E3B1E00E9457180E943B1EDC
:101A4000A0E3B1E00E945718EEE3F0E40E946C1CA2
:101A50000E94FD1BE1EEF2E00E941A1FA0E8BFE326
:101A6000AF93BF930E94ED1811E002E0BF91AF91D8
:101A70000E94261DE0E8FFE3A0E3B1E00E945718B2
:101A80000E943B1EA0E3B1E00E945718EEE3F0E491
:101A90000E946C1C0E94FD1BE5EEF2E00E941A1FE2
:101AA000A0E8BFE3AF93BF930E94ED1811E002E0FE
:101AB000BF91AF910E94261DE0E8FFE3A0E3B1E0F3
:101AC0000E9457180E943B1EA0E3B1E00E945718E5
:101AD000EEE3F0E40E946C1C0E94FD1BE9EEF2E0D4
:101AE000A0E3B1E00E9457180E94911DA0E3B1E06D
:101AF0000E945718EEE3F0E40E946C1C0E94FD1B4C
:101B0000EDEEF2E0A0E3B1E00E9457180E94911DB3
:101B1000A0E3B1E00E945718EEE3F0E40E946C1CD1
:101B20000E94FD1BE1EFF2E0A0E3B1E00E94571834
:101B30000E94911DA0E3B1E00E945718EEE3F0E48B
:101B40000E946C1C0E94FD1BE5EFF2E0A0E3B1E0F7
:101B50000E9457180E94911DA0E3B1E00E94871EC9
:101B6000AFE1B1E08D9388278C93AFE1B1E0ED91C7
:101B7000FC91A0E3B1E00E94C51EA2E4B2E00D9387
:101B80001D932D933D93A0E3B1E00E945718E8E325
:101B9000F1E40E946C1C0E94FD1BE2E4F2E0A0E371
:101BA000B1E00E9457180E94131EE4E2F1E40E9483
:101BB0006C1C0E946618A0E3B1E00E9460180E94AD
:101BC0006D180E94910A0895E8E4F1E40E946C1CEB
:101BD0000E9466180E94411AAFE0B1E00E946018AE
:101BE000EEE3F0E40E946C1C0E9466180E94411A09
:101BF000A6E0B1E00E9460180E946D180E94411A90
:101C0000E6E0F1E0A7E9B2E00E943B1E0E94411A23
:101C1000EFE0F1E0A2EAB2E00E943B1EA0E3B1E0F7
:101C2000E0E3F1E40E946C1C0E94FD1BE7E9F2E096
:101C3000A0E3B1E00E9457180E943B1EA0E3B1E070
:101C40000E945718EEE3F0E40E946C1C0E94FD1BFA
:101C5000E2EAF2E0A0E3B1E00E9457180E943B1EC6
:101C6000A0E3B1E00E945718EEE3F0E40E946C1C80
:101C70000E94FD1BE0E8F2E0A0E3B1E00E945718EB
:101C80000E943B1EA0E3B1E00E945718E2E5F1E498
:101C90000E946C1C0E94FD1BA0E3B1E00E9457183B
:101CA000EEE3F0E40E946C1C0E94FD1BA3E2B0E096
:101CB0008C9185FBA0E3B1E00E9457180E945D1C47
:101CC0008D9388278C93A0E3B1E00E945718EEE330
:101CD000F0E40E946C1C0E94FD1BE9EFF2E0A0E31F
:101CE000B1E00E9457180E948B1DA0E3B1E00E9452
:101CF0005718E6E5F1E40E946C1C0E94FD1BA0E36E
:101D0000B1E00E94871EAFE1B1E08D9388278C93EC
:101D1000AFE1B1E0ED91FC91A0E3B1E00E94C51EFE
:101D2000A2E4B2E00D931D932D933D93A0E3B1E0A7
:101D30000E945718E8E3F1E40E946C1C0E94FD1B0E
:101D4000E2E4F2E0A0E3B1E00E9457180E94131E03
:101D5000E4E2F1E40E946C1C0E946618A0E3B1E08A
:101D60000E9460180E946D180E94910A0895E1E097
:101D7000F8E09BE304E132E2A6E1B3E00E94E51E55
:101D8000A5E1B3E02C9300911503003018F011F099
:101D90000C94CC0E0C94D40EE6E1F3E0A9E2B1E091
:101DA0000E943B1E0C94DA0EE1E0F8E0A9E2B1E0FB
:101DB0000E943B1EA9E2B1E0EEE5F1E40E946C1C3A
:101DC0000E948D1E11F00C94EC0E70914702706809
:101DD000709347020C94400FE2E6F1E40E946C1C01
:101DE0000E948D1E11F00C94FC0E709147027F77BB
:101DF000709347020C94400FE6E6F1E40E946C1CDD
:101E00000E948D1E11F00C941A0F709114037064CF
:101E100070931403EBE2F3E0AAEAB6E00E943B1EE3
:101E2000EEE6F1E40E946C1C0E9466180E946D1898
:101E30000C94400FEAE7F1E40E946C1C0E948D1E96
:101E400011F00C94380F70911403706470931403A4
:101E5000EBE2F3E0AAEAB6E00E943B1EEEE6F1E414
:101E60000E946C1C0E9466180E946D180C94400F12
:101E7000E2E8F1E40E946C1C0E9466180E946D1852
:101E8000089581E0EAEAF6E006E00A93ABE0B2E00A
:101E90000E94461EEAEAF6E09CE204E132E2A6E194
:101EA000B3E00E94E51EA5E1B3E02C93A6E1B3E008
:101EB0000E94871E082F063011F00C942E15E6E1C3
:101EC000F3E0A9E2B1E00E943B1EE9E2F1E0A9E201
:101ED000B1E00E94411C8FEF8093F901A9E2B1E0CB
:101EE000EEE8F1E40E946C1C0E948D1E11F00C942F
:101EF000BA0F80E08093F901A0E3B1E0E6E9F1E4F4
:101F00000E946C1C0E94FD1BABE0B2E0EAEAF1E427
:101F10000E946C1C0E94FD1BEBE0F2E0A0E3B1E02C
:101F20000E9457180E943B1EA0E3B1E00E94571880
:101F3000EEEBF1E40E946C1C0E94FD1BABE0B2E0F2
:101F4000ECE0F0E40E946C1C0E94FD1BEBE0F2E070
:101F5000A0E3B1E00E9457180E943B1EA0E3B1E04D
:101F60000E945718ECE2F0E40E946C1C0E94FD1BDA
:101F70000C942C15ECECF1E40E946C1C0E948D1E5C
:101F800011F00C94F90F00911503023011F00C942C
:101F9000F40FABE2B3E00E94E01DA9E1B1E00C93C5
:101FA00000911901013110F00C94EF0F80E0809343
:101FB000F901A0E3B1E0E4EDF1E40E946C1C0E94A1
:101FC000FD1BE9E1F1E0A0E3B1E00E9457180E9497
:101FD0009B1D80911901809301030C94F20F85E001
:101FE0008093F9010C94F70F84E08093F9010C942D
:101FF0002C15ECEEF1E40E946C1C0E948D1E11F079
:102000000C94111080E08093F901A0E3B1E0E4EFBB
:10201000F1E40E946C1C0E94FD1B0E9438050C9488
:102020002C15E8E0F2E40E946C1C0E948D1E11F059
:102030000C941D1100911503023011F00C9418112D
:10204000ABE2B3E00E94871E082F0C3011F00C9415
:10205000131180E08093F90187E0EBE2F3E002E006
:102060000A93ABE0B2E00E94461EABE0B2E00E94F1
:102070005718E0E1F2E40E946C1C0E94FD1B89E00D
:10208000EBE2F3E002E00A93ABE0B2E00E94571803
:102090000E94461EABE0B2E00E945718E0E1F2E475
:1020A0000E946C1C0E94FD1B8BE0EBE2F3E002E05F
:1020B0000A93ABE0B2E00E9457180E94461EABE0C4
:1020C000B2E00E9460180E946D18EBE0F2E0AFE011
:1020D000B1E00E943B1E0E94501AE2E1F2E40E942D
:1020E0006C1C0E9466180E94411AAFE0B1E00E9489
:1020F00060180E946D1881E0EBE2F3E002E00A93C1
:10210000ABE0B2E00E94461EABE0B2E00E9457187E
:10211000E6E1F2E40E946C1C0E94FD1B83E0EBE20E
:10212000F3E002E00A93ABE0B2E00E9457180E948D
:10213000461EABE0B2E00E945718E6E1F2E40E94CE
:102140006C1C0E94FD1B85E0EBE2F3E002E00A93C9
:10215000ABE0B2E00E9457180E94461EABE0B2E02E
:102160000E9460180E946D18EBE0F2E0A6E0B1E07A
:102170000E943B1E0E944A1AE8E1F2E40E946C1C95
:102180000E9466180E94411AA6E0B1E00E94601801
:102190000E946D18A0E3B1E0ECE1F2E40E946C1C37
:1021A0000E94FD1B0E94411AE6E0F1E0A0E3B1E0CD
:1021B0000E9457180E943B1EA0E3B1E00E945718EE
:1021C000E6E4F2E40E946C1C0E94FD1B0E94411A8E
:1021D000EFE0F1E0A0E3B1E00E9457180E943B1E3F
:1021E000E3E0F1E00E949E1AA1EBB2E08C93E0E004
:1021F000F1E00E947B1BADEAB2E00D931D932D939D
:102200003D93E2E3F0E0ADEAB2E094E07BE70E94C8
:102210005F1E7091470270627093470281E0809365
:1022200001030C94161186E08093F9010C941B11A4
:1022300084E08093F9010C942C15EAE4F2E40E9406
:102240006C1C0E948D1E11F00C945D1180E0809337
:10225000F9010E94411AEFE0F1E0ABE0B2E00E9428
:102260003B1EA0E3B1E0E2E5F2E40E946C1C0E9498
:10227000FD1BEBE0F2E0A0E3B1E00E9457180E94E2
:102280003B1EA0E3B1E00E945718E0E6F2E40E9492
:102290006C1C0E94FD1B0E94411AE6E0F1E0ABE0DD
:1022A000B2E00E943B1EEBE0F2E0A0E3B1E00E944E
:1022B00057180E943B1E0C942C15E0E7F2E40E9494
:1022C0006C1C0E948D1E11F00C94991180E080937B
:1022D000F901EDEAF2E0ABE0B2E00E94B41BA0E34A
:1022E000B1E0E8E7F2E40E946C1C0E94FD1BEBE009
:1022F000F2E0A0E3B1E00E9457180E943B1EA0E369
:10230000B1E00E945718ECE8F2E40E946C1C0E94B5
:10231000FD1BEDEAF2E0ABE0B2E00E94BC1BEBE09B
:10232000F2E0A0E3B1E00E9457180E943B1E0C941B
:102330002C15E4E9F2E40E946C1C0E948D1E11F041
:102340000C94301200911503033011F00C942B12F1
:10235000ABE2B3E00E94E01DAEE1B1E00C9300916E
:102360001E01003080E010F009F081E08F930091B1
:102370001E01073081E008F080E09F9189238823C7
:1023800011F40C942612A0E4B3E00E94E01DA5E233
:10239000B1E00D931D932D933D93A5E2B1E00D9116
:1023A0001D912D913C91AEE1B1E0AD90BB24ACE428
:1023B000B2E0AA0CBB1CAA0CBB1CAA0DBB1D0D9342
:1023C0001D932D933C93EEE1F1E0A190BB24EEEF41
:1023D000FFEFAA0CBB1CAA0CBB1CEA0DFB1DA5E25F
:1023E000B1E094E07BE70E945F1E80E08093F901FA
:1023F000A0E3B1E0ECE9F2E40E946C1C0E94FD1B3A
:10240000EEE1F1E0A0E3B1E00E9457180E949B1DAD
:10241000A0E3B1E00E945718E0E1F2E40E946C1CD6
:102420000E94FD1BEEE1F1E0A190BB24ECE4F2E0A0
:10243000AA0CBB1CAA0CBB1CEA0DFB1DA0E3B1E05F
:102440000E9457180E948E1D0C94291283E08093DD
:10245000F9010C942E1284E08093F9010C942C1550
:10246000E2EBF2E40E946C1C0E948D1E11F00C94B1
:10247000C71200911503033011F00C94C212ABE2A5
:10248000B3E00E94E01DAEE1B1E00C9300911E01AB
:10249000003080E010F009F081E08F9300911E0180
:1024A000073081E008F080E09F918923882311F4B0
:1024B0000C94BD12A0E4B3E00E94E01DA5E2B1E0DF
:1024C0000D931D932D933D93A5E2B1E00D911D91C8
:1024D0002D913C91AEE1B1E0AD90BB24A4E6B2E019
:1024E000AA0CBB1CAA0CBB1CAA0DBB1D0D931D93F3
:1024F0002D933C93EEE1F1E0A190BB24E6E1F0E006
:10250000AA0CBB1CAA0CBB1CEA0DFB1DA5E2B1E08A
:1025100094E07BE70E945F1E80E08093F901A0E3D6
:10252000B1E0ECE9F2E40E946C1C0E94FD1BEEE1BC
:10253000F1E0A0E3B1E00E9457180E949B1DA0E3C8
:10254000B1E00E945718E0E1F2E40E946C1C0E9486
:10255000FD1BEEE1F1E0A190BB24E4E6F2E0AA0C61
:10256000BB1CAA0CBB1CEA0DFB1DA0E3B1E00E9442
:1025700057180E948E1D0C94C01283E08093F901BD
:102580000C94C51284E08093F9010C942C15EAEBAD
:10259000F2E40E946C1C0E948D1E11F00C942C130E
:1025A00000911503023011F00C942713ABE2B3E055
:1025B0000E94E01DAEE1B1E00C9300911E010030DD
:1025C00080E010F009F081E08F9300911E01073048
:1025D00081E008F080E09F918923882311F40C9416
:1025E0002213A0E3B1E0E2ECF2E40E946C1C0E9432
:1025F000FD1BEEE1F1E0A0E3B1E00E9457180E945C
:102600009B1DA0E3B1E00E945718E0E1F2E40E94B4
:102610006C1C0E94FD1BEEE1F1E0A190BB24ECE4F8
:10262000F2E0AA0CBB1CAA0CBB1CEA0DFB1DA0E32C
:10263000B1E00E9457180E948E1D80E08093F9013E
:102640000C94251383E08093F9010C942A1384E001
:102650008093F9010C942C15EAECF2E40E946C1CB6
:102660000E948D1E11F00C949113009115030230FD
:1026700011F00C948C13ABE2B3E00E94E01DAEE1CC
:10268000B1E00C9300911E01003080E010F009F0E1
:1026900081E08F9300911E01073081E008F080E017
:1026A0009F918923882311F40C948713A0E3B1E050
:1026B000E2EDF2E40E946C1C0E94FD1BEEE1F1E0F1
:1026C000A0E3B1E00E9457180E949B1DA0E3B1E077
:1026D0000E945718E0E1F2E40E946C1C0E94FD1B6E
:1026E000EEE1F1E0A190BB24E4E6F2E0AA0CBB1C11
:1026F000AA0CBB1CEA0DFB1DA0E3B1E00E94571819
:102700000E948E1D80E08093F9010C948A1383E06F
:102710008093F9010C948F1384E08093F9010C9459
:102720002C15EEEDF2E40E946C1C0E948D1E11F03F
:102730000C94FE1300911503023011F00C94F91360
:10274000ABE2B3E00E94E01DAEE1B1E00C9300917A
:102750001E01003080E010F009F081E08F930091BD
:102760001E01073081E008F080E09F9189238823D3
:1027700011F40C94F41380E08093F90100911E0190
:1027800041E0041BA9E1B1E00C9380911901A2E1A1
:10279000B3E00E94571C0E944D1C9C91982B9C9367
:1027A000A0E3B1E0E6EEF2E40E946C1C0E94FD1B87
:1027B000EEE1F1E0A0E3B1E00E9457180E949B1DFA
:1027C000A0E3B1E00E945718EEE3F0E40E946C1C15
:1027D0000E94FD1BA0E3B1E00E945718E2E1F3E084
:1027E0000E94281E0C94F71383E08093F9010C9447
:1027F000FC1384E08093F9010C942C15EAEFF2E4C9
:102800000E946C1C0E948D1E11F00C9435140091D6
:102810001503023011F00C94301480E08093F9011C
:10282000ABE2B3E00E94E01DA0E4B2E00C93E0E074
:10283000F0E0A0E4B2E07BE70E945C1EA0E3B1E020
:10284000E2E0F3E40E946C1C0E94FD1BE0E4F2E075
:10285000A0E3B1E00E9457180E949B1D0C94331412
:1028600084E08093F9010C942C15E8E1F3E40E94D4
:102870006C1C0E948D1E11F00C94531480E0809308
:10288000F901A0E3B1E0E0E4F0E40E946C1C0E94D6
:10289000FD1BE0E4F2E0A0E3B1E00E9457180E94C3
:1028A0009B1D0C942C15E0E2F3E40E946C1C0E942A
:1028B0008D1E11F00C947D1480E08093F9010E942C
:1028C000A304A0E3B1E0E8E2F3E40E946C1C0E94E0
:1028D000FD1BE0E8F2E0A0E3B1E00E9457180E947F
:1028E0003B1EA0E3B1E00E945718ECE2F0E40E9426
:1028F0006C1C0E94FD1B0C942C15E2E3F3E40E9477
:102900006C1C0E948D1E11F00C94D11400911503C3
:10291000023011F00C94CC1480E08093F901ABE20A
:10292000B3E00E94E01DA9E1B1E00C930091190110
:10293000003080E010F009F081E08F9300911901E0
:102940000F3F81E008F080E09F918923882311F4F4
:102950000C94C7148091190180934102E1E0F0E0EA
:10296000A1E4B2E07BE70E945C1EA0E3B1E0EAE3F1
:10297000F3E40E946C1C0E94FD1BE1E4F2E0A0E382
:10298000B1E00E9457180E949B1D0C94CA1485E068
:102990008093F9010C94CF1484E08093F9010C9496
:1029A0002C15E2E5F3E40E946C1C0E948D1E11F0D0
:1029B0000C94EF1480E08093F901A0E3B1E0EAE524
:1029C000F3E40E946C1C0E94FD1BE1E4F2E0A0E332
:1029D000B1E00E9457180E949B1D0C942C15E4E650
:1029E000F3E40E946C1C0E948D1E11F00C942915BA
:1029F00000911503023011F00C94241580E08093AF
:102A0000F901ABE2B3E00E94E01DA9E1B1E00C9353
:102A100000911901003011F00C941915A0E3B1E0F8
:102A2000ECE6F3E40E946C1C0E94FD1B2F980C94B2
:102A30002215A0E3B1E0E8E7F3E40E946C1C0E94D9
:102A4000FD1B2F9A0C94271584E08093F9010C94B8
:102A50002C1581E08093F9010C94A715E6E1F3E0D1
:102A6000A9E2B1E00E943B1EE9E2F1E0A9E2B1E097
:102A70000E94411CA9E2B1E0EEE5F1E40E946C1C69
:102A80000E948D1E11F00C944F15709147027068D2
:102A90007093470280E08093F9010C94A715E2E659
:102AA000F1E40E946C1C0E948D1E11F00C946215C2
:102AB000709147027F777093470280E08093F9011D
:102AC0000C94A715E6E6F1E40E946C1C0E948D1E92
:102AD00011F00C94831570911403706470931403B7
:102AE000EBE2F3E0AAEAB6E00E943B1EEEE6F1E478
:102AF0000E946C1C0E9466180E946D1880E08093F2
:102B0000F9010C94A715EAE7F1E40E946C1C0E94FD
:102B10008D1E11F00C94A4157091140370647093C1
:102B20001403EBE2F3E0AAEAB6E00E943B1EEEE6F5
:102B3000F1E40E946C1C0E9466180E946D1880E0EF
:102B40008093F9010C94A71582E08093F90100911C
:102B5000F901003018F011F00C94B0150C94BE156A
:102B6000E4E9FBE20E946C1CA9EFB1E08C9199278B
:102B70000E94391CA0E3B1E00E94FD1BA0E3B1E07C
:102B80000E9460180E946D18089500100E102E10FB
:102B9000701046104F4B00436F6D616E646F206E76
:102BA0006F207265636F6E6F6369646F004C6F6E48
:102BB000676974756420636F6D616E646F206E6FFA
:102BC0002076616C696461004E756D65726F20647A
:102BD0006520706172616D6574726F206E6F207612
:102BE000616C69646F004E756D65726F206465205D
:102BF000706172616D6574726F7320696E76616C5D
:102C000069646F004572726F72206C6F6E676974D1
:102C1000756420706172616D6574726F203100455A
:102C200072726F72206C6F6E676974756420706168
:102C300072616D6574726F203200506172616D65F2
:102C400074726F206E6F2076616C69646F004552FC
:102C5000524F5238004552524F522053442E204971
:102C60006E74656E7465206465206E7565766F00A0
:102C700000000000030000003300000033030000E8
:102C8000333300003333030033C00C00FF0FFF0F5A
:102C90005555555533333333777777770C00FCFF31
:102CA000CC00FCFFCC0CFCFFCCCCFCFF0C00FCFFF0
:102CB000F0FFFFFF0E945003E2E8F3E40E946C1C67
:102CC0000E9466180E946D1882E080930103A4E1BF
:102CD000B3E08C9186FB16F00C948116709114036E
:102CE0007F7B70931403EEE1F1E40E946C1C0E9460
:102CF0006618AAEAB6E00E9460180E946D180E9449
:102D0000410F00911303013011F00C94DB16709108
:102D100013037E7F70931303A3E0B3E08C918F5F66
:102D20008C93A3E0B3E00C9145E00E94771E8C9356
:102D300000910303003011F00C94DB16A0E3B1E026
:102D4000E8E9F3E40E946C1C0E94FD1BA0E3B1E0E3
:102D50000E94871EAFE1B1E08D9388278C93AFE18D
:102D6000B1E0ED91FC91A0E3B1E00E94C51EA2E4A8
:102D7000B2E00D931D932D933D93A0E3B1E00E942B
:102D80005718E8E3F1E40E946C1C0E94FD1BE2E48A
:102D9000F2E0A0E3B1E00E9457180E94131EE4E2A3
:102DA000F1E40E946C1C0E946618A0E3B1E00E944E
:102DB00060180E946D18A7E4B2E08C9185FB16F0B4
:102DC0000C94671681E080930103A4E1B3E08C9139
:102DD00086FB16F00C94FF16709114037F7B7093A2
:102DE0001403EEE1F1E40E946C1C0E946618AAEA4A
:102DF000B6E00E9460180E946D180E94410F81E0A9
:102E000080931C0100911C01063018F011F00C9405
:102E1000871700911C0141E0041BADE1B1E00C9368
:102E200080911D01A2E1B3E00E94571C0E944D1C3D
:102E30000C900822689409F4E89416F00C947F171B
:102E400080911D01A2E1B3E00E94571C0E944D1C1D
:102E50008C9189238C9300911C01013011F00C940A
:102E60003D17E0EAF3E40E946C1C0E9466180E9481
:102E70006D180E94440B0C947F17023011F00C94D3
:102E80004D17E6EAF3E40E946C1C0E9466180E944B
:102E90006D180E94740C0C947F17033011F00C9481
:102EA0005B17ECEAF3E40E946C1C0E9466180E9417
:102EB0006D180C947F17043011F00C9463170E9466
:102EC000A4050C947F17053011F00C947117E2EBF8
:102ED000F3E40E946C1C0E9466180E946D180C940A
:102EE0007F17063011F00C947F17E8EBF3E40E9493
:102EF0006C1C0E9466180E946D180E94E40DACE1E3
:102F0000B1E08C918F5F8C9310F40C940217A7E4BE
:102F1000B2E08C9183FB16F00C94951770914702E8
:102F2000777F709347020E9443061D990C94D41733
:102F30000027A3E2B0E08C9185FB00F94427A7E4C9
:102F4000B2E08C9186FB40F9041711F40C94D2176F
:102F50008AE090E00E94DE181D990C94D217EEEBE7
:102F6000F3E40E946C1C0E946618A3E2B0E08C910E
:102F700085FBA0E8BFE30E945D1C8D9388278C939E
:102F80000E945E180E946D18A3E2B0E08C9185FB50
:102F9000A7E4B2E08C9186F98C9370911203706271
:102FA000709312030C940E180027A3E2B0E08C91EA
:102FB00085FB00F94427A7E4B2E08C9186FB40F939
:102FC000041711F40C940E188AE090E00E94DE18A9
:102FD0001D9B0C940E18EEEBF3E40E946C1C0E94F7
:102FE0006618A3E2B0E08C9185FBA0E8BFE30E94E5
:102FF0005D1C8D9388278C930E945E180E946D182B
:10300000A3E2B0E08C9185FBA7E4B2E08C9186F955
:103010008C93709112037062709312030C94E516F6
:10302000ED91FC91EF5FFF4FFC93EE93089509D073
:103030000E94D01B00FC10D0089503D01ED001F8D0
:10304000F9CF0024E89457FF02C009D0689400F833
:103050000BD010F80124089502D009D0089550959E
:1030600040954F5F5F4F0895E89417FF08950095CE
:1030700010950F5F1F4F68940895352F242FE89403
:10308000452B11F468940895512F402F00271127E4
:1030900080E1440F551F001F111F021B130B4160DD
:1030A00018F4020F131F4E7F8A9599F708958F9396
:1030B0008D918823E9F711978F910895A0E8BFE3D8
:1030C0008D91882311F00CD0FBCF08950E94031C32
:1030D000802D11F005D0FACF08958DE001D08AE05F
:1030E0000090C00005FEFCCF8093C60008950090BC
:1030F000C80005FEFCCF8093CE00089500FC05D0EB
:10310000089530D005D001F8F9CF37D03FD00895D9
:10311000842F952FA62FB72FE894452B462B472BAE
:1031200011F468940895402F512F622F732F0027B8
:10313000112722273327F0E2440F551F661F771F00
:10314000001F111F221F331F081B190B2A0B3B0BDB
:10315000416028F4080F191F2A1F3B1F4E7FFA9564
:1031600059F708950024E89477FF02C006D06894C8
:1031700000F809D010F80124089512D04F5F5F4F76
:103180006F4F7F4F0895E89437FF0895009510958D
:10319000209530950F5F1F4F2F4F3F4F6894089534
:1031A000409550956095709508953197F1F7089581
:1031B000689462F80895E89462F80895EF93FF9395
:1031C000EE27E82BE92B31F0E0EAFFE03197F1F749
:1031D0000197D1F7FF91EF9108958DE207FD8D934F
:1031E0008F2D881F802F881F8F57082F6894F7F81E
:1031F000802F87FF17C080958395082F80E38D93DC
:103200008EE28D93802F815238F080E38D93992741
:103210009C930E94611C089544270A95802F09F110
:103220009ED01FC0805230F09EE49D9381E48D9328
:103230009D93EDCF4427DF92EF92FF920F938FE1A2
:10324000801B11F0082F8BD091D09EE29D930F919F
:10325000FF90EF90DF9044270395003209F4D5CF1B
:1032600033D03F93EEEFF2E30E946C1C38E12F2D38
:103270001E2D0D2DFF24EE24DD244427000F111FE9
:10328000221FB8F42F923F920E94031C102C0E9420
:10329000031C202C0E94031C302C0E94031C31971D
:1032A0000E94321C410DD21CE31CF01C3F902F9059
:1032B00003C033960E942B1C31960E942B1C3A951A
:1032C000E9F63F9107D0A5CFDD0CEE1CFF1C0A9557
:1032D000D9F70895002719E058D08F93802B11F06B
:1032E000039501C08F911A95B9F7802F882309F4AF
:1032F0008CCF8F91805D8D930A95D9F788CF00652B
:10330000CD1D80B2E60E40597307A0ACB90350D66C
:10331000DC01286BEE0094357700CA9A3B0065CD3E
:103320001D00B2E60E0059730700ACB90300D6DCED
:1033300001006BEE0000357700009A3B0000CD1DC8
:103340000000E60E000073070000B9030000DC0176
:103350000000EE000000770000003B000000F69443
:10336000E794D79447950A95D1F7089500270DD093
:103370008F9303958F2D8E298D29842BC1F78F91E3
:10338000805D8D930A95D9F742CF1F930F93002745
:1033900010E2440FDD1CEE1CFF1C001F802F9AE082
:1033A000890B10F0082F43951A9599F7802F0F91EC
:1033B0001F910895082748E01695079510F41227E5
:1033C00001254A95C9F7089531E005C032E003C0F0
:1033D00033E001C034E00FEF1FEF20EA91E0192E37
:1033E000E9DF46D08991682FE5DF42D08991E2DF9D
:1033F0003FD08991DFDF3CD05991613078F0653062
:1034000068F48827D7DF34D0852F869509F481E0CA
:10341000D1DF2ED0802F2CD0812F2AC0663041F4EE
:103420009D918C91C7DF24D0892FC4DF21D0F2CFAA
:103430006031E9F48827BEDF1BD0852F869509F41B
:1034400081E0682FB7DF14D0862F880FB3DF10D04C
:10345000513019F488279D9102C09D918D91AADF6A
:1034600007D0892FA7DF04D06A95B9F7D3CF089585
:10347000313011F40C947018323011F40C94771828
:103480000895A6E0B1E0E3E0F1E00E948E1A3397E0
:103490000C946A1AE6E0F1E0A3E0B1E00C947C1A27
:1034A000EFE0F1E0A0E0B1E00C94581AADE0BB27EA
:1034B000868197810E947D1C0D93838194810E9457
:1034C0007D1C0D93808191810E947D1C0D93089538
:1034D000EDE0FF2782810E94721C8AE38D93818137
:1034E0000E94721C8AE38D9380810E94721C88273F
:1034F0008C930895ADE0BB27808191810E947D1C53
:103500000D93838194810E947D1C0D938681978108
:103510000E947D1C0D930895EDE0FF2780810E949D
:10352000721C8FE28D9381810E94721C8FE28D93B9
:1035300082810E94721C88278D93089521D00F2DBF
:10354000069506950F0D0D0D8F2D837021F41E2D00
:1035500013300AF40A958E2D8A959927E4E7F5E34E
:103560000E946C1CA8E1BB270E941F1C080F47E0AB
:103570000C94771E050101040602040003050103F3
:1035800093E0ADE002C096E0AAE0B0E08FB7F89417
:1035900001910D939A95E1F78FBF089501911191D3
:1035A00045EB55E00E941D18440F440FF42E0F31D7
:1035B000150728F481E0E82E0395D02E24C00C33A3
:1035C000150728F482E0E82E0E51D02E1CC00150C1
:1035D000150B4DE651E00E943D18F40E7CE07A9503
:1035E000872F9927E8E0F6E30E946C1CA2E1BB2735
:1035F0000E94191C0217130790F37395E72E021B04
:10360000130B0395D02E089500001F003B005A00B5
:1036100078009700B500D400F300110130014E018D
:10362000019111912191308140E851E561E070E014
:103630000E948118042F152F0C94D01AA1DF0E2D93
:103640000A95802F0295003220F01F2D137009F487
:103650000395DA940D0D11279927E0E7F6E30E9410
:103660006C1CA8E1BB270E941F1C080F111F0895A6
:10367000000F1B2A384755647381909E81DF0F2D00
:1036800011274CE355270E94171855270E0D151FBB
:103690004CE322273327662777270E94DA1B0D0D7C
:1036A000131F231F08956CDFDF92EF92FF920F2DFF
:1036B0001127222733274DE651E060E070E00E9499
:1036C000DA1BFF904F2D4D5F46954695552766278F
:1036D00077270E946E1DEF90DF900F931F932F931B
:1036E0003F930E941F1B222733277F916F915F9189
:1036F0004F910C946E1D47DFAF92BF92CF920E9404
:10370000541B40E851E561E070E00E94DA1BFF9035
:10371000EF90DF900F931F932F933F930E943F1BD7
:103720007F916F915F914F910C946E1D019111915A
:103730002191308140E851E561E070E00E948118FC
:103740000C94A61B019111912191308140E15EE022
:1037500060E070E00E948118F42E4CE350E00E947B
:103760001D18E42ED02E0895AF93BF930E94961B90
:10377000BF91AF910C94681AAF93BF930E94101B36
:10378000BF91AF910C948C1A41E2FF2747BF8491FF
:1037900008950191119121913081089501501040B7
:1037A0000F92B801469F8001479F100D569F100D44
:1037B0000F9008950F921F922F92C801D901489F30
:1037C00080014A9F90014B9F202C499F100D211D85
:1037D000321D5A9F202C589F100D211D321D599FBC
:1037E000200D311D689F200D311D699F300D789F80
:1037F000300D2F901F900F9008950E94031C0D9282
:103800000020D9F70895D895319628F48F938BB777
:1038100083958BBF8F910020089591E005C092E0C1
:1038200003C094E001C098E0EEDF0D929A95E1F7B5
:103830000895880F991FE80FF91F0DD0F0CFE80FFA
:10384000F91F09D0EACF880F991F880F991FE80F39
:10385000F91F01D0E6CF28F48F938BB783958BBFE8
:103860008F91089528F48F938BB78A958BBF8F9192
:1038700008950196019721F00E94031CE9F7FACF01
:103880000895819104D08D938823D9F708958136C6
:1038900018F08B3708F48F7D089591E0882321F08C
:1038A0008894991F8A95E9F7892F90950895883013
:1038B00018F011968850FBCF089580E30EF483959D
:1038C00008950F9200240BBE0F9008950F9301E00E
:1038D0000BBF0F91889408950F930027F9CF0F9392
:1038E00002E0F6CF00278A3018F08A500395FBCF0C
:1038F000005D0D93805D8D93089580539053002754
:10390000813018F0065F8A95FBCF090F0895AF93B9
:10391000BF930F939F938F938FB78F93A0E0B1E0E6
:103920008C9183958D938C3309F03DC088278E93BD
:1039300011968C9183958D938C3309F034C0882730
:103940008E9311968C9183958D93883161F588279C
:103950008E9311968C9183958D939C910EE194306A
:1039600089F0963079F0993069F09B3059F00CE18C
:10397000923039F411969C911197937019F4039534
:1039800001C00FE1801778F071F081E08E931196FD
:103990008C9183958D938D3031F481E08E931196C7
:1039A0008C9183958C938F918FBF8F919F910F9165
:1039B000BF91AF910F921F922F923F924F925F92C1
:1039C0007F92AF92BF920F931F932F933F934F938A
:1039D0005F936F937F938F939F93AF93BF93CF9397
:1039E000DF93EF93FF939FB79F939BB79F93992785
:1039F0009BBF0E94D1029F919BBF9F919FBFFF9150
:103A0000EF91DF91CF91BF91AF919F918F917F9176
:103A10006F915F914F913F912F911F910F91BF90A7
:103A2000AF907F905F904F903F902F901F900F909E
:103A3000189599278D9193958823E1F79395119681
:103A40008C9311978E919A95D1F70895EA2FFB2FB9
:103A500000244C918D9103948E32E1F711248D91C5
:103A600013948823E1F71A94101640F41197202F2D
:103A70002119239580E38D932A95E9F7113039F5C3
:103A80009927AE2FBF2FA00DB91FA00FB91F8C9182
:103A90009C93853308F421C031E08E918E32E9F396
:103AA0008D3241F0830F8A3319F480E331E001C095
:103AB00033278C93AE1789F7332341F0AE2FBF2FF6
:103AC000B8DF81E34D3209F4319680830895882769
:103AD000E00DF81FE00FF81F80830895040F151FF5
:103AE000261F371F0895041B150B260B370B08954F
:103AF00004171507260737070895000F111F221F07
:103B0000331F089500951095209530950F5F1F4F36
:103B10002F4F3F4F0895019110810FC00E94C91B84
:103B20000EC00E94C91B10C00191108117FF05C073
:103B30003FEF2FEF04C0008111272227332737FFE3
:103B400003C0E0DF8DE28D93CF92DF92EF92AA2443
:103B5000BB24CC24DD24EE2440E2EAE0FF2755E03C
:103B600093E38081890F87FD9F7083FD907F891B80
:103B700081935A95A9F7C1DFAA1CBB1CCC1CDD1C84
:103B8000EE1C4A9551F7E894EFE0FF2782910BD0A5
:103B9000EB30E0F71EF068948A2D09D04D93EF903A
:103BA000DF90CF900895982F829501D0892F8F7044
:103BB000805D26F0803309F4089568948D9308950C
:103BC00000271127222733271DD08A3328F480337A
:103BD00018F005D015D0F9CF0EF494CF0895805386
:103BE0008F93402F512F622F732F87DF86DF76DF71
:103BF00084DF8F919927080F191F291F391F0895F6
:103C00008D910895E894FCDF8032E9F38B32D9F38B
:103C10008930C9F38D3211F46894F2CF089541E0F0
:103C200003C042E001C044E0E40F8827F81F8291FE
:103C3000982F829506D0892F04D04A95C1F70C940D
:103C4000381E8F708A3008F0895F805D8D930895EB
:103C500041E0E40F8827F81F829138E098E1880F4F
:103C6000991F9D933A95D1F74A95B1F70C94381E58
:103C700088278D93089581918D938823E1F7089586
:103C800094E081918D939A95E1F70895099191912E
:103C9000992359F08A95D9F73197002331F0819112
:103CA0008D930A958823C9F70895E2CFF999FECF3D
:103CB000E1BDF2BD3196089591E001C092E07B37FD
:103CC00051F47FB7F894F2DF8D9180BDFA9AF99A9A
:103CD0009A95C9F77FBF7727089591E001C092E0D8
:103CE000E5DFF89A80B58D939A95D1F70895FF9303
:103CF000881BF9E0001FFA9511F4FF910895881FC1
:103D0000841B18F4840F8894F5CF0894F3CF8FEFB9
:103D100083959D919923E1F70895689401C0E894F3
:103D2000AF93BF938D9116F0919103C00E94031C35
:103D3000902D891718F011F48823A1F7BF91AF9146
:103D400008950D919981903009F013D0502788E0A3
:103D5000440F551F10F4422753278A95C9F731970E
:103D600081F789919991803019F08A0105D0A801D5
:103D7000089588E0112701C080E108011694079496
:103D8000001F111F8A95D1F708950FEF1FEF2FEF36
:103D90003FEF60E273E888EB9DEE0D90002548E070
:103DA0008894379527951795079520F406271727A8
:103DB000282739274A95A1F7319779F7009510956B
:103DC000209530950895689401C0E8942227102F1B
:103DD000231709F4089526F40E94031C802D01C0C6
:103DE0008191803081F0891741F070E08D931A95B0
:103DF00091F7239571E01D93EACF01D0E8CF7030A1
:103E000011F077270895772331F4239588271395A8
:103E10008D931A95E9F70895B7FE089590E8B916BD
:103E200011F4D0FE08959FEFD91AE90AF90A09F4AE
:103E300003950895D190E190F19001910895219119
:103E40003191419151910895DD92ED92FD920C9343
:103E50000895502F2D2D3E2D4F2D612F0895652F44
:103E600090E8440F551F5927990F47956078102FF8
:103E700090E8FF0C001F0927990FF794107800387D
:103E80000895FF0C90E89027110F9795F794092F4C
:103E900008951127BD2CDE2CEF2CF02E0EE1FF2013
:103EA00039F4FE2CED2CDB2CBB240850C2F752C099
:103EB00032F00A95BB0CDD1CEE1CFF1CF9CFACDF09
:103EC000E0CF2DEC3CEC4CEC5DE366270FC0B2DF9D
:103ED000C0DFDD24EE2490E8F92E0FE307C0AFDF4A
:103EE00005C02227332740E251E46627552351F1CC
:103EF000002381F1B4DF71F116270058505808945F
:103F0000050B18F407FD03C025C007FD23C0469527
:103F100037952795F694E794D79422D0FF202AF07E
:103F2000DD0CEE1CFF1C015073F09D2D969548F0A2
:103F3000DD203AF4EE202AF491E0D90E9927E91E0B
:103F4000F91E9FCF07C09FE7092FF92A9FEFD92EAF
:103F5000E92E0895DD24EE24FF240027112708957B
:103F60009F929924AA24BB2488E1D216E306F40682
:103F700028F0D21AE30AF40A089401C08894991C24
:103F8000AA1CBB1CDD0CEE1CFF1C8A9571F7D92CFA
:103F9000EA2CFB2C9F9008950E94031C202D0E9468
:103FA000031C302D0E94031C402D0E94031C502D29
:103FB000089500007A4430372F30312F3235000019
:103FC00031313A32383A303000002A2A2A2A2A2A55
:103FD0002A2A2A2A2A2A20454D4554455220323081
:103FE0003235202A2A2A2A2A2A2A2A2A2A2A2A0052
:103FF00032382D31312D323032352031333A3531AE
:104000003A323500302E302E31313000454D455496
:1040100045522E4241530000417574003D002C2052
:104020004F46460049447365723C00003E00556CA3
:1040300074696D6120414354434C4B2000002C00B7
:10404000454E414255473D004944536C6176653EBB
:104050000000434E5452696E693D0000547279204D
:1040600000005074723D00002C20416464723D00D9
:10407000545820005054524D44423D00563366730C
:104080003D0056613D0056623D0056633D00493398
:10409000733D000049613D0049623D0049633D00B8
:1040A00050575233733D0000507772613D00507796
:1040B00072623D00507772633D00456133733D008D
:1040C00045613D0045623D00667265633D00507488
:1040D00072206E6F2076616C0000524547204D447F
:1040E00042204445433D00002C204845583D0000F7
:1040F0002C204445433D0000435243206661696CD7
:1041000020656E20414444523D00457370657261E4
:1041100020525049200052504974783E00005345C7
:1041200052313D002400545841555431203B000089
:10413000412C00002D3100002600545841555434C4
:10414000203B00002D320000545841555436203B8E
:1041500000002D3600002C2C2C2C2C2C00004F4B5A
:104160000000455252005345544D424400004E4514
:1041700057204D444320434D44005345544441414E
:1041800000004E6F20636D642076616C00004C452A
:1041900045564657000056657273696F6E20465744
:1041A0003A204665636861203C0032382D31312D5C
:1041B000323032352031333A35313A3236003E2C06
:1041C000204172636869766F203C00005345544C6F
:1041D00045440000536520636F6E666967757261C0
:1041E000207365746C65642061200000525354563E
:1041F0004152000056616C6F72657320706F7220BF
:1042000064656661756C7400534554434C4B000003
:104210003A00543E00002F00443E000057415443F2
:1042200048494E4720494E464F524D412E20536536
:1042300020636F6E66696775726F2072656C6F6A56
:1042400020656E20000020612000534953434C4BF1
:104250000000486F72612061637475616C3D0000FD
:104260002C2046656368612061637475616C3D0054
:104270004C4545434C4B0000556C74696D612041C1
:10428000435420434C4B2061203D00002C206465AA
:104290006C20000053455441555400005365206381
:1042A0006F6E66696775726F20747820415554206F
:1042B00000005345544F464600004C454541555477
:1042C000000054782041757420004C45454F464607
:1042D00000004F6666736574204175742000534575
:1042E000544E4557000053652061637469766F2012
:1042F00054782E20415554200000534554425547D0
:104300000000536520636F6E66696775726F2045A4
:104310004E414255473D00004C454542554700003F
:104320004C45455249440000494420736572203C85
:1043300000005345544449520000536520636F6E9A
:1043400066696775726F204944736C617665206198
:1043500020004C454544495200004944736C617645
:1043600065203D0053455452454C0000524553458D
:10437000542072656C6500005345542072656C656D
:10438000000045737065726120434C4B2064656C7E
:104390002053657276657200414354434C4B0000D4
:1043A00041555431000041555432000041555433B9
:1043B00000004155543500004155543600005370FB
:0843C00075657274613D000097
:00000001FF
