:100000000C94460018950000189500001895000003
:10001000189500001895000018950000189500002C
:100020001895000018950000189500000C943E20CB
:10003000189500001895000018950000189500000C
:1000400018950000189500000C94F7011895000011
:100050000C94BB001895000018950000189500003E
:1000600018950000189500001895000018950000DC
:100070000C949E011895000018950000189500003A
:100080001895000018950000189500008FEF8DBF9F
:10009000C0E8E8E94E2E80E48EBFD0E4FFE35F2E97
:1000A000A89584B7082E877F84BF88E1992780931D
:1000B000600090936000EEEFFFE3A0E0B1E08827DE
:1000C0008D933197E9F787E68093C40080E08093B1
:1000D000C50088E18093C1006624209A25982D9A56
:1000E000279A2F9885E085BD80E084BD70916E00D1
:1000F000716070936E0085E085BD80E28093B600EC
:1001000085E08093B1007091700071607093700011
:10011000A7E0B1E0EEEEF7E40E9423200E94B41FB6
:100120000E94031EA0E1B1E0E8EFF7E40E94232063
:100130000E94B41F0E94091E7091C10070687093E4
:10014000C10083E38093CC0080E08093CD00709168
:10015000C8007D7F7093C80087E08093CA0088E163
:100160008093C900229A7091C90070687093C90089
:1001700078940C948A190F921F922F923F924F926B
:100180005F927F92AF92BF920F931F932F933F93F3
:100190004F935F936F937F938F939F93AF93BF938F
:1001A000CF93DF93EF93FF938FB78F938BB78F939B
:1001B00088278BBFA1ECB6E08091C6008C9384E2C7
:1001C000482F0091C106041711F00C94F2007091B1
:1001D0002C03706870932C03A8EFB5E088278C93EC
:1001E0000C94800185E2482F041711F00C94030150
:1001F00070912C03706270932C03ACE8B7E08827F1
:100200008C930C9480010D3011F00C944701ACE2FA
:10021000B3E08C9187FB16F00C94260170912C03AF
:100220007F7770932C0380E0A8EFB5E00E94101C4C
:100230008D9388278C93E8EFF5E0A2ECB6E00E945E
:10024000F32170912C03706470932C03ACE2B3E043
:100250008C9185FB16F00C94450170912C037F7DE9
:1002600070932C0380E0ACE8B7E00E94101C8D93E3
:1002700088278C93ECE8F7E0A9E1B8E00E94F3212D
:1002800070912C03706170932C030C9480010F31DA
:1002900018F011F00C944E010C948001ACE2B3E024
:1002A0008C9187FB16F00C945F01A1ECB6E08C9169
:1002B000A8EFB5E00E94101C8D9388278C93ACE2C8
:1002C000B3E08C9185FB16F00C948001A1ECB6E0B4
:1002D0008C91ACE8B7E00E94101C8D9388278C931A
:1002E000ACE8B7E00E943F22082F0C3818F011F05C
:1002F0000C947C010C948001ACE8B7E088278C93C7
:100300008F918BBF8F918FBFFF91EF91DF91CF9135
:10031000BF91AF919F918F917F916F915F914F911D
:100320003F912F911F910F91BF90AF907F905F9061
:100330004F903F902F901F900F9018950F921F9203
:100340002F923F924F925F927F92AF92BF920F9304
:100350001F932F933F934F935F936F937F938F934D
:100360009F93AF93BF93CF93DF93EF93FF938FB799
:100370008F938BB78F9388278BBFA6EAB8E08091C5
:10038000CE008C93ACE2B3E08C9183FB16F00C941E
:10039000D901A8EBB2E08C918F5F8C938091A60875
:1003A000A8EBB2E0AD90BB24A6EAB8E0AA0DBB1D55
:1003B0008C938F918BBF8F918FBFFF91EF91DF91C6
:1003C000CF91BF91AF919F918F917F916F915F91ED
:1003D0004F913F912F911F910F91BF90AF907F90C0
:1003E0005F904F903F902F901F900F9018950F9215
:1003F0001F922F923F924F925F927F92AF92BF9245
:100400000F931F932F933F934F935F936F937F931C
:100410008F939F93AF93BF93CF93DF93EF93FF930C
:100420008FB78F938BB78F9388278BBF74E676BD7A
:10043000A3E1B3E08C918F5F8C93A3E1B3E00C91C7
:1004400048E00E942F228C9300911303003011F09A
:100450000C946A02A4E1B3E00C9140E20E942F22C6
:100460008C93E0EDF2E30E942320A9E1B3E08C91AC
:100470009927A5E1B3E00E94DA1F80911403A5E15A
:10048000B3E00E940E200E9404200C900822689481
:1004900009F4E894A7E4B2E08C9182F98C93A7E484
:1004A000B2E08C9182FB882780F9809580FBA7E4DD
:1004B000B2E08C9182F98C93A7E4B2E08C9182FB3C
:1004C000A5E2B0E08C9180F98C93A4E1B3E08C912B
:1004D0008F5F8C93ACE2B3E08C9183FB16F00C94AD
:1004E0009502A0ECB2E00E94C91BA0ECB2E00D9115
:1004F0001C9140EA50E00E94F61BA0ECB2E00D9384
:100500001C93A0ECB2E00D911C91003050E0150757
:1005100011F00C94950270912C03777F70932C034B
:1005200070914702786070934702A7E4B2E08C9123
:1005300080FB16F00C94B402ACE1B3E00E94C91B3E
:10054000AEE1B3E04D915C91ACE1B3E00D911C9153
:100550000417150711F00C94B202709147027260F3
:10056000709347020C94BA0280E090E0ACE1B3E0F3
:100570008D939C938F918BBF8F918FBFFF91EF9144
:10058000DF91CF91BF91AF919F918F917F916F91AB
:100590005F914F913F912F911F910F91BF90AF901D
:1005A0007F905F904F903F902F901F900F901895E5
:1005B000E0E0F1E00E94341FA2E2B3E00D931D934E
:1005C0002D933D9381E0809320030091200306301A
:1005D00018F011F00C9451030091200341E0041B2A
:1005E000A1E2B3E00C93A2E2B3E00D911D912D9135
:1005F0003C91A0E2B3E0AD90BB24A8E6B2E0AA0C27
:10060000BB1CAA0CBB1CAA0DBB1D4D915D916D912D
:100610007C910E942A21A6E2B3E00D931D932D93B5
:100620003D93A6E2B3E00D911D912D913C91A0E286
:10063000B3E0AD90BB24A0E5B2E0AA0CBB1CAA0CB1
:10064000BB1CAA0DBB1D4D915D916D917C910E94CB
:100650003A1CA6E2B3E00D931D932D933D9340E029
:1006600050E060E070E0A6E2B3E00D911D912D91A5
:100670003C910E942F2111F00C9449038091210399
:10068000AAE2B3E00E940E200E9404209C91982BC5
:100690009C93A0E2B3E08C918F5F8C9310F40C9448
:1006A000E50270912B03716070932B0308952898D5
:1006B000E2E0F8E40E9423200E941F1C0E94261CF6
:1006C000A0E8BFE3E8E2F8E40E9423200E94B41F00
:1006D0000E94171C0E94261CA0E8BFE3ECE3F8E48C
:1006E0000E9423200E94B41F0E94171C0E94261CF7
:1006F000A0E8BFE3E4E4F8E40E9423200E94B41FD2
:100700000E94171C0E94261C81E08093190381E03F
:100710008093190100911901063018F011F00C9422
:100720001D04E9E1F1E0A190BB24EEEFFFEFAA0C7C
:10073000BB1CAA0CBB1CEA0DFB1DA9E1B1E0AD90EE
:10074000BB24A0E5B2E0AA0CBB1CAA0CBB1CAA0DE2
:10075000BB1D94E00E942822E9E1F1E0A190BB24B6
:10076000E6E1F0E0AA0CBB1CAA0CBB1CEA0DFB1DC9
:10077000A9E1B1E0AD90BB24A8E6B2E0AA0CBB1C95
:10078000AA0CBB1CAA0DBB1D94E00E942822E0E528
:10079000F8E40E9423200E941F1CE9E1F1E0A0E898
:1007A000BFE30E9452210E94171CE4E5F8E40E9476
:1007B00023200E941F1CE9E1F1E0A190BB24E0E5A9
:1007C000F2E0AA0CBB1CAA0CBB1CEA0DFB1DA0E8A6
:1007D000BFE30E9445210E94171CE6E5F8E40E9451
:1007E00023200E941F1CE9E1F1E0A0E8BFE30E9482
:1007F00052210E94171CE4E5F8E40E9423200E9485
:100800001F1CE9E1F1E0A190BB24E8E6F2E0AA0CAC
:10081000BB1CAA0CBB1CEA0DFB1DA0E8BFE30E9499
:1008200045210E94171C0E94261CA9E1B1E08C9171
:100830008F5F8C9310F40C948A030E94AA04ECE559
:10084000F8E40E9423200E941F1CA4E8B2E00E944A
:10085000191CE4E6F8E40E9423200E941F1C0E9459
:10086000261CE2E3F0E0A1EBB2E094E00E94282233
:10087000E6E6F8E40E9423200E941F1CE1EBF2E070
:10088000A0E8BFE30E94751F0E94171CE6E7F8E48A
:100890000E9423200E941F1CE1EBF2E0A0E8BFE3CE
:1008A0000E946D1F0E94171C0E94261CE0E0F0E0D1
:1008B000A0E4B2E00E942522E8E7F8E40E942320A9
:1008C0000E941F1CE0E4F2E0A0E8BFE30E94522176
:1008D0000E94171C0E94261CE1E0F0E0A1E4B2E0B7
:1008E0000E942522E0E8F8E40E9423200E941F1CB9
:1008F000E1E4F2E0A0E8BFE30E9452210E94171C4D
:100900000E94261CE6E3F0E0A1E1B3E00E9427226A
:10091000A1E1B3E00D911C910F5F1F4FA1E1B3E086
:100920000D931C93E6E3F0E0A1E1B3E07BE70E94C6
:100930001622EAE8F8E40E9423200E941F1CE1E14D
:10094000F3E0A0E8BFE30E9442210E94171C0E942E
:10095000261C089580E08093190180E080931A019D
:10096000A4E8B2E088278C938EE08093190100916F
:100970001901073118F011F00C94D304E09119011A
:100980000E947D1F082FA4E8B2E00E94101CE0E145
:10099000F0E00E94C721A9E1B1E08C918F5F8C93B8
:1009A00010F40C94B704E4E8F2E0A0E3B1E00E9494
:1009B000F321A4E8B2E088278C938EE0809319019C
:1009C00000911901073118F011F00C94FC04E0912A
:1009D00019010E947D1F082FA4E8B2E00E94101C9C
:1009E000E0E1F0E00E94C721A9E1B1E08C918F5FC6
:1009F0008C9310F40C94E004E0E3F1E0A4E8B2E09E
:100A00000E94472211F00C94080581E0809319019F
:100A1000AAE1B1E08C918F5F8C93009119010030B5
:100A200011F00C94270584EF91E00E94971CE4E9F3
:100A3000F8E40E9423200E941F1CEAE1F1E0A0E8F4
:100A4000BFE30E9452210E94171C0E94261C0091A5
:100A50001901013081E009F080E08F9300911A01C3
:100A60000A3081E009F080E09F91892B882311F4FE
:100A70000C94B004089500E010E020E030E0A1E222
:100A8000B1E00D931D932D933C9381E08093190168
:100A900000911901063018F011F00C949105E9E16C
:100AA000F1E0A190BB24EEEFFFEFAA0CBB1CAA0C57
:100AB000BB1CEA0DFB1D0CE211E020E030E0A0E1E0
:100AC000BB2794E07BE70E941722E9E1F1E0A190C7
:100AD000BB24E6E1F0E0AA0CBB1CAA0CBB1CEA0D8F
:100AE000FB1DA1E2B1E094E07BE70E941722A1E2A6
:100AF000B1E00D911D912D913C914CE350E060E0EF
:100B000070E00E942521A1E2B1E00D931D932D9389
:100B10003D93A9E1B1E08C918F5F8C9310F40C941C
:100B20004805E1E0F0E0A0E1BB2781E08C937BE7A2
:100B30000E941422EEE0F0E00AE010E020E030E055
:100B4000A0E1BB2794E07BE70E9417220895A2EC66
:100B5000B2E08C918F5F8C93A2ECB2E00C9146E0F6
:100B60000E942F228C93E8EEF1E30E942320A2EC56
:100B7000B2E08C919927A6EBB2E00E94D01FEAE97F
:100B8000F8E40E9423200E941F1CE2ECF2E0A0E89F
:100B9000BFE30E9452210E94171CE0EAF8E40E9481
:100BA00023200E941F1CA0E8BFE3E6EBF2E00E94B6
:100BB000C9210E94171C0E94261C81E080931E01FF
:100BC00000911E01003418F011F00C94F90580E03A
:100BD000AEE1B1E0AD90BB24A6EAB8E0AA0DBB1D22
:100BE0008C93AEE1B1E08C918F5F8C9310F40C94F8
:100BF000E00580E08093B802A0E4B2E00C9103FB32
:100C000016F00C942306E8EAF8E40E9423200E94E0
:100C10001F1CA0E8BFE3E6EBF2E00E94C9210E949E
:100C2000171C0E94261C84E28A93A6EBB2E08D91E9
:100C30009C918A939A9383E08A93809141020E94C7
:100C40009D1D0E94261C70912C03786070932C03CC
:100C50002A9A84E28A93A6EBB2E08D919C918A93C2
:100C60009A9383E08A93809141020E949F1DEF93A3
:100C7000FF93ECE6F7E10E948E1CFF91EF912A981A
:100C8000709147027061709347020895A0E4B2E04A
:100C90000C9103FB16F00C949506ECEAF8E40E9424
:100CA00023200E941F1CE8EBF2E0A0E8BFE30E94B3
:100CB00052210E94171CE0EAF8E40E9423200E94BF
:100CC0001F1CA0E8BFE3E6EBF2E00E94C9210E94EE
:100CD000171C0E94261C81E080931E014091B802DF
:100CE00000911E01041718F011F00C949306A0E86F
:100CF000BFE3EEE1F1E0A190BB24E6EAF8E0EA0D03
:100D0000FB1D0E94C7210E94171CE6E7F8E40E9421
:100D100023200E941F1CAEE1B1E08C918F5F8C9369
:100D200010F40C946E060E94261C0091B80242E05A
:100D3000041BA9EBB2E00C930091B90241E0040F4F
:100D4000AAEBB2E00C930091BA0241E0040FABEBC6
:100D5000B2E00C9381E08A9381E08A938091B9029A
:100D60008A934FEF5FEF25E030E8A7EAB8E00E94F2
:100D70005922ACEBB2E04D935C93ABEBB2E0AD909B
:100D8000BB24A6EAB8E0AA0DBB1D9C91AAEBB2E079
:100D9000AD90BB24A6EAB8E0AA0DBB1D8C91AFE1D3
:100DA000B1E08D939C93AFE1B1E04D915C91ACEBE0
:100DB000B2E00D911C910417150711F00C94810BF2
:100DC000A7E4B2E08C9184FB16F00C94190B00910F
:100DD000C202003011F00C9487078091AA0880931A
:100DE0004F028091AB0880934E028091AC088093B3
:100DF0004D028091AD0880934C02E4EBF8E40E9430
:100E000023200E941F1CECE4F2E0A0E8BFE30E9454
:100E100048210E94171C0E94261C8091AE088093D6
:100E20004F028091AF0880934E028091B00880936A
:100E30004D028091B10880934C02ACE4B2E08D91F8
:100E40009C91A3ECB2E08D939C93EAEBF8E40E94B2
:100E500023200E941F1CE3ECF2E0A0E8BFE30E9405
:100E600042210E94171C0E94261C8091B208809388
:100E70004F028091B30880934E028091B408809312
:100E80004D028091B50880934C02ACE4B2E08D91A4
:100E90009C91A5ECB2E08D939C93EEEBF8E40E945C
:100EA00023200E941F1CE5ECF2E0A0E8BFE30E94B3
:100EB00042210E94171C0E94261C8091B608809334
:100EC0004F028091B70880934E028091B8088093BA
:100ED0004D028091B90880934C02ACE4B2E08D9150
:100EE0009C91A7ECB2E08D939C93E2ECF8E40E9415
:100EF00023200E941F1CE7ECF2E0A0E8BFE30E9461
:100F000042210E94171C0E94261C0C94170B0130D2
:100F100011F00C9465088091AA0880934F0280918B
:100F2000AB0880934E028091AC0880934D02809173
:100F3000AD0880934C02E2EEF7E40E9423200E9469
:100F4000E423ECE4F2E00E94D3220E94FD220E94FE
:100F50004D23EDE0F0E0ADECB2E00E94F821E6ECCC
:100F6000F8E40E9423200E941F1CEDECF2E0A0E8B0
:100F7000BFE30E94D3220E94A61C0E94171C0E945D
:100F8000261C8091AE0880934F028091AF08809319
:100F90004E028091B00880934D028091B1088093F9
:100FA0004C02E2EEF7E40E9423200E94E423ECE4EA
:100FB000F2E00E94D3220E94FD220E944D23EDE028
:100FC000F0E0A1EDB2E00E94F821ECECF8E40E9420
:100FD00023200E941F1CE1EDF2E0A0E8BFE30E9485
:100FE000D3220E94A61C0E94171C0E94261C8091DE
:100FF000B20880934F028091B30880934E02809193
:10100000B40880934D028091B50880934C02E2EEC3
:10101000F7E40E9423200E94E423ECE4F2E00E9423
:10102000D3220E94FD220E944D23EDE0F0E0A5EDC9
:10103000B2E00E94F821E0EDF8E40E9423200E9433
:101040001F1CE5EDF2E0A0E8BFE30E94D3220E945E
:10105000A61C0E94171C0E94261C8091B608809333
:101060004F028091B70880934E028091B808809318
:101070004D028091B90880934C02E2EEF7E40E94A1
:1010800023200E94E423ECE4F2E00E94D3220E9499
:10109000FD220E944D23EDE0F0E0A9EDB2E00E94B8
:1010A000F821E4EDF8E40E9423200E941F1CE9EDE2
:1010B000F2E0A0E8BFE30E94D3220E94A61C0E9497
:1010C000171C0E94261C0C94170B023011F00C9474
:1010D00043098091AA0880934F028091AB088093C6
:1010E0004E028091AC0880934D028091AD088093B0
:1010F0004C02E6EEF7E40E9423200E94E423ECE495
:10110000F2E00E94D3220E94FD220E94A623EDE07D
:10111000F0E0A1E0B3E00E94F821E8EDF8E40E94DD
:1011200023200E941F1CE1E0F3E0A0E8BFE30E943F
:10113000D3220E94A61C0E94171C0E94261C80918C
:10114000AE0880934F028091AF0880934E02809149
:10115000B00880934D028091B10880934C02E6EE76
:10116000F7E40E9423200E94E423ECE4F2E00E94D2
:10117000D3220E94FD220E94A623EDE0F0E0A5E02C
:10118000B3E00E94F821E0EEF8E40E9423200E94E0
:101190001F1CE5E0F3E0A0E8BFE30E94D3220E9419
:1011A000A61C0E94171C0E94261C8091B2088093E6
:1011B0004F028091B30880934E028091B4088093CF
:1011C0004D028091B50880934C02E6EEF7E40E9450
:1011D00023200E94E423ECE4F2E00E94D3220E9448
:1011E000FD220E94A623EDE0F0E0A9E0B3E00E941A
:1011F000F821E6EEF8E40E9423200E941F1CE9E09B
:10120000F3E0A0E8BFE30E94D3220E94A61C0E9444
:10121000171C0E94261C8091B60880934F02809173
:10122000B70880934E028091B80880934D02809158
:10123000B90880934C02E6EEF7E40E9423200E9456
:10124000E423ECE4F2E00E94D3220E94FD220E94FB
:10125000A623EDE0F0E0ADE0B3E00E94F821ECEE73
:10126000F8E40E9423200E941F1CEDE0F3E0A0E8B8
:10127000BFE30E94D3220E94A61C0E94171C0E945A
:10128000261C0C94170B033011F00C94210A80914A
:10129000AA08809353028091AB08809352028091F8
:1012A000AC08809351028091AD0880935002EAEE21
:1012B000F7E40E9423200E94E423E0E5F2E00E948C
:1012C000D3220E9415230E94A623EDE0F0E0ADEDAD
:1012D000B2E00E94F821E2EFF8E40E9423200E948D
:1012E0001F1CEDEDF2E0A0E8BFE30E94D3220E94B4
:1012F000A61C0E94171C0E94261C8091AE08809399
:1013000053028091AF08809352028091B00880937D
:1013100051028091B10880935002EAEEF7E40E94F6
:1013200023200E94E423E0E5F2E00E94D3220E9401
:1013300015230E94A623EDE0F0E0A1EEB2E00E94AA
:10134000F821EAEFF8E40E9423200E941F1CE1EE3E
:10135000F2E0A0E8BFE30E94D3220E94A61C0E94F4
:10136000171C0E94261C8091B20880935302809122
:10137000B308809352028091B40880935102809107
:10138000B50880935002EAEEF7E40E9423200E9401
:10139000E423E0E5F2E00E94D3220E9415230E949C
:1013A000A623EDE0F0E0A5EEB2E00E94F821E0E037
:1013B000F9E40E9423200E941F1CE5EEF2E0A0E861
:1013C000BFE30E94D3220E94A61C0E94171C0E9409
:1013D000261C8091B608809353028091B7088093B1
:1013E00052028091B808809351028091B90880938D
:1013F0005002EAEEF7E40E9423200E94E423E0E595
:10140000F2E00E94D3220E9415230E94A623EDE061
:10141000F0E0A9EEB2E00E94F821E6E0F9E40E94D3
:1014200023200E941F1CE9EEF2E0A0E8BFE30E9427
:10143000D3220E94A61C0E94171C0E94261C0C94FA
:10144000170B043011F00C94C90A8091AA088093FC
:101450004F028091AB0880934E028091AC0880933C
:101460004D028091AD0880934C02E6EEF7E40E94B5
:1014700023200E94E423ECE4F2E00E94D3220E94A5
:10148000FD220E944D23EDE0F0E0ADEEB2E00E94BF
:10149000F821ECE0F9E40E9423200E941F1CEDEEED
:1014A000F2E0A0E8BFE30E94D3220E94A61C0E94A3
:1014B000171C0E94261C8091AE0880934F028091D9
:1014C000AF0880934E028091B00880934D028091C6
:1014D000B10880934C02E6EEF7E40E9423200E94BC
:1014E000E423ECE4F2E00E94D3220E94FD220E9459
:1014F0004D23EDE0F0E0ADEFB2E00E94F821E2E133
:10150000F9E40E9423200E941F1CEDEFF2E0A0E806
:10151000BFE30E94D3220E94A61C0E94171C0E94B7
:10152000261C8091BA0880934F028091BB0880935B
:101530004E028091BC0880934D028091BD0880933B
:101540004C02E2EEF7E40E9423200E94E423ECE444
:10155000F2E00E94D3220E94FD220E944D23EDE082
:10156000F0E0A9ECB2E00E94F821E8E1F9E40E9481
:1015700023200E941F1CE9ECF2E0A0E8BFE30E94D8
:10158000D3220E94A61C0E94171C0E94261C0C94A9
:10159000170B053011F00C940F0B8091AA08809363
:1015A0004F028091AB0880934E028091AC088093EB
:1015B0004D028091AD0880934C02EEE1F9E40E9467
:1015C00023200E941F1CECE4F2E0A0E8BFE30E948D
:1015D00048210E94171C0E94261C8091AE0880930F
:1015E0004F028091AF0880934E028091B0088093A3
:1015F0004D028091B10880934C02E2E2F9E40E942E
:1016000023200E941F1CECE4F2E0A0E8BFE30E944C
:1016100048210E94171C0E94261C0C94170BE6E21E
:10162000F9E40E9423200E941F1C0E94261C0C9497
:101630007F0B0091B802073011F00C94530B90917E
:10164000AA088091AB08AEEBB2E08D939C93E2E3E5
:10165000F9E40E9423200E941F1CEEEBF2E0A0E8B8
:10166000BFE30E9442210E94171CE0E4F9E40E94BB
:1016700023200E941F1CA0E8BFE3EEEBF2E00E94D3
:10168000C9210E94171CE8E4F9E40E9423200E946B
:101690001F1CEEEBF2E0A0E8BFE30E9442210E9493
:1016A000171C0E94261C0091B802083011F00C94FF
:1016B0007F0B9091AB088091AC08AEEBB2E08D93BC
:1016C0009C93E2E3F9E40E9423200E941F1CEEEBAE
:1016D000F2E0A0E8BFE30E9442210E94171CE0E470
:1016E000F9E40E9423200E941F1CA0E8BFE3EEEB58
:1016F000F2E00E94C9210E94171C0E94261C0C9433
:10170000980BA0E4B2E00C9103FB16F00C94980B3C
:10171000E0E5F9E40E9423200E941F1CA0E8BFE33B
:10172000E6EBF2E00E94C9210E94171C0E94261CD1
:10173000089580E080934602709147027F7770930E
:101740004702A6E4B2E08C918F5F8C93E2E6F9E465
:101750000E9423200E941F1CE6E4F2E0A0E8BFE301
:101760000E9452210E94171C0E94261C84E690E0D1
:10177000AEE1B3E08D939C9380E090E0ACE1B3E008
:101780008D939C93709147027160709347027091A2
:1017900047027D7F70934702ACE2B3E08C9184FBFB
:1017A00016F00C94E60B70912C037F7E70932C0343
:1017B000EEE6F9E40E9423200E941F1CA9E1B8E094
:1017C0000E94191C0E94261C0E94E611ACE2B3E0A4
:1017D0008C9186FB16F00C94000C70912C037F7B8F
:1017E00070932C03E6E7F9E40E9423200E941F1C5B
:1017F000A2ECB6E00E94191C0E94261C0E947012E6
:10180000A7E4B2E08C9187FB81E00EF080E08F933B
:10181000A7E4B2E08C9181FB81E00EF080E09F9123
:10182000892B882311F40C94CC0B709147027E7F96
:1018300070934702A7E4B2E08C9187FB16F40C94F6
:101840002D0CECE7F9E40E9423200E941F1CA0E36A
:10185000B1E00E94191C0E94261CA7E4B2E08C9102
:1018600087FB81E00EF080E08F9300914602033009
:1018700081E009F080E09F91892B882311F40C947A
:10188000A10B709147027E7F7093470270914702CF
:101890007F77709347020895EEE7F9E40E942320D2
:1018A0000E941F1C0E94FA1DA0E1B1E00E94191CB9
:1018B000E6E7F8E40E9423200E941F1C0E94FA1D04
:1018C000A7E0B1E00E94191C0E94261C0E94FA1D8C
:1018D000E7E0F1E0ABE9B2E00E94F3210E94FA1DDB
:1018E000E0E1F1E0A6EAB2E00E94F321A0E3B1E07A
:1018F000E8E8F9E40E9423200E94B41FEBE9F2E03B
:10190000A0E3B1E00E94101C0E94F321A0E3B1E02B
:101910000E94101CE6E7F8E40E9423200E94B41FF6
:10192000E6EAF2E0A0E3B1E00E94101C0E94F3217D
:10193000A0E3B1E00E94101CE6E7F8E40E94232037
:101940000E94B41FE4E8F2E0A0E3B1E00E94101CA2
:101950000E94F321A0E3B1E00E94101CECE8F9E43E
:101960000E9423200E94B41FA0E3B1E00E94101C3B
:10197000E6E7F8E40E9423200E94B41FE3ECF2E0C3
:10198000A0E3B1E00E94101C0E944221A0E3B1E05C
:101990000E94101CE6E7F8E40E9423200E94B41F76
:1019A000E5ECF2E0A0E3B1E00E94101C0E944221AD
:1019B000A0E3B1E00E94101CE6E7F8E40E942320B7
:1019C0000E94B41FE7ECF2E0A0E3B1E00E94101C1B
:1019D0000E944221A0E3B1E00E94101CE6E7F8E477
:1019E0000E9423200E94B41FE9ECF2E0A0E3B1E0E2
:1019F0000E94101C0E94D3220E94A61CA0E3B1E00A
:101A00000E94101CE6E7F8E40E9423200E94B41F05
:101A1000E1EDF2E0A0E3B1E00E94101C0E94D322AD
:101A20000E94A61CA0E3B1E00E94101CE6E7F8E4C7
:101A30000E9423200E94B41FE5EDF2E0A0E3B1E094
:101A40000E94101C0E94D3220E94A61CA0E3B1E0B9
:101A50000E94101CE6E7F8E40E9423200E94B41FB5
:101A6000E9EDF2E0A0E3B1E00E94101C0E94D32255
:101A70000E94A61CA0E3B1E00E94101CE6E7F8E477
:101A80000E9423200E94B41FA0E3B1E00E943F22E5
:101A9000AFE1B1E08D9388278C93AFE1B1E0ED9198
:101AA000FC91A0E3B1E00E947E22A2E4B2E00D939B
:101AB0001D932D933D93A0E3B1E00E94101CE0E93B
:101AC000F9E40E9423200E94B41FA0E3B1E00E9429
:101AD000101CE2E4F2E00E94CB21ECE7F9E40E9462
:101AE00023200E941F1CA0E3B1E00E94191C0E9449
:101AF000261C0E94990B0895E2E9F9E40E94232034
:101B00000E941F1C0E94FA1DA0E1B1E00E94191C56
:101B1000E6E7F8E40E9423200E941F1C0E94FA1DA1
:101B2000A7E0B1E00E94191C0E94261C0E94FA1D29
:101B3000E7E0F1E0ABE9B2E00E94F3210E94FA1D78
:101B4000E0E1F1E0A6EAB2E00E94F321A0E3B1E017
:101B5000E8E8F9E40E9423200E94B41FEBE9F2E0D8
:101B6000A0E3B1E00E94101C0E94F321A0E3B1E0C9
:101B70000E94101CE6E7F8E40E9423200E94B41F94
:101B8000E6EAF2E0A0E3B1E00E94101C0E94F3211B
:101B9000A0E3B1E00E94101CE6E7F8E40E942320D5
:101BA0000E94B41FE4E8F2E0A0E3B1E00E94101C40
:101BB0000E94F321A0E3B1E00E94101CECE9F9E4DB
:101BC0000E9423200E94B41FA0E3B1E00E94101CD9
:101BD000E6E7F8E40E9423200E94B41FA0E8BFE3D8
:101BE000AF93BF93EDEDF2E00E94D3220E94A61CBA
:101BF00011E002E0BF91AF910E94DD20E0E8FFE339
:101C0000A0E3B1E00E94101C0E94F321A0E3B1E028
:101C10000E94101CE6E7F8E40E9423200E94B41FF3
:101C2000A0E8BFE3AF93BF93E1EEF2E00E94D322BE
:101C30000E94A61C11E002E0BF91AF910E94DD203E
:101C4000E0E8FFE3A0E3B1E00E94101C0E94F32152
:101C5000A0E3B1E00E94101CE6E7F8E40E94232014
:101C60000E94B41FA0E8BFE3AF93BF93E5EEF2E09C
:101C70000E94D3220E94A61C11E002E0BF91AF9106
:101C80000E94DD20E0E8FFE3A0E3B1E00E94101C29
:101C90000E94F321A0E3B1E00E94101CE6E7F8E403
:101CA0000E9423200E94B41FA0E8BFE3AF93BF931C
:101CB000E9EEF2E00E94D3220E94A61C11E002E0AD
:101CC000BF91AF910E94DD20E0E8FFE3A0E3B1E027
:101CD0000E94101C0E94F321A0E3B1E00E94101C9E
:101CE000E6E7F8E40E9423200E94B41FA0E8BFE3C7
:101CF000AF93BF93EDEEF2E00E94D3220E94A61CA8
:101D000011E002E0BF91AF910E94DD20E0E8FFE327
:101D1000A0E3B1E00E94101C0E94F321A0E3B1E017
:101D20000E94101CE6E7F8E40E9423200E94B41FE2
:101D3000E1EFF2E0A0E3B1E00E94101C0E94482114
:101D4000A0E3B1E00E94101CE6E7F8E40E94232023
:101D50000E94B41FE5EFF2E0A0E3B1E00E94101C86
:101D60000E944821A0E3B1E00E94101CE6E7F8E4DD
:101D70000E9423200E94B41FE9EFF2E0A0E3B1E04B
:101D80000E94101C0E944821A0E3B1E00E943F2263
:101D9000AFE1B1E08D9388278C93AFE1B1E0ED9195
:101DA000FC91A0E3B1E00E947E22A2E4B2E00D9398
:101DB0001D932D933D93A0E3B1E00E94101CE0E938
:101DC000F9E40E9423200E94B41FA0E3B1E00E9426
:101DD000101CE2E4F2E00E94CB21ECE7F9E40E945F
:101DE00023200E941F1CA0E3B1E00E94191C0E9446
:101DF000261C0E94990B0895E0EAF9E40E94232032
:101E00000E941F1C0E94FA1DA0E1B1E00E94191C53
:101E1000E6E7F8E40E9423200E941F1C0E94FA1D9E
:101E2000A7E0B1E00E94191C0E94261C0E94FA1D26
:101E3000E7E0F1E0ABE9B2E00E94F3210E94FA1D75
:101E4000E0E1F1E0A6EAB2E00E94F321A0E3B1E014
:101E5000E8E8F9E40E9423200E94B41FEBE9F2E0D5
:101E6000A0E3B1E00E94101C0E94F321A0E3B1E0C6
:101E70000E94101CE6E7F8E40E9423200E94B41F91
:101E8000E6EAF2E0A0E3B1E00E94101C0E94F32118
:101E9000A0E3B1E00E94101CE6E7F8E40E942320D2
:101EA0000E94B41FE4E8F2E0A0E3B1E00E94101C3D
:101EB0000E94F321A0E3B1E00E94101CEAEAF9E4D9
:101EC0000E9423200E94B41FA0E3B1E00E94101CD6
:101ED000E6E7F8E40E9423200E94B41FA0E8BFE3D5
:101EE000AF93BF93E1E0F3E00E94D3220E94A61CCF
:101EF00011E002E0BF91AF910E94DD20E0E8FFE336
:101F0000A0E3B1E00E94101C0E94F321A0E3B1E025
:101F10000E94101CE6E7F8E40E9423200E94B41FF0
:101F2000A0E8BFE3AF93BF93E5E0F3E00E94D322C4
:101F30000E94A61C11E002E0BF91AF910E94DD203B
:101F4000E0E8FFE3A0E3B1E00E94101C0E94F3214F
:101F5000A0E3B1E00E94101CE6E7F8E40E94232011
:101F60000E94B41FA0E8BFE3AF93BF93E9E0F3E0A2
:101F70000E94D3220E94A61C11E002E0BF91AF9103
:101F80000E94DD20E0E8FFE3A0E3B1E00E94101C26
:101F90000E94F321A0E3B1E00E94101CE6E7F8E400
:101FA0000E9423200E94B41FA0E8BFE3AF93BF9319
:101FB000EDE0F3E00E94D3220E94A61C11E002E0B3
:101FC000BF91AF910E94DD20E0E8FFE3A0E3B1E024
:101FD0000E94101C0E94F321A0E3B1E00E94101C9B
:101FE000E6E7F8E40E9423200E94B41FA0E8BFE3C4
:101FF000AF93BF93EDEFF2E00E94D3220E94A61CA4
:1020000011E002E0BF91AF910E94DD20E0E8FFE324
:10201000A0E3B1E00E94101C0E94F321A0E3B1E014
:102020000E94101CEEEAF9E40E9423200E94B41FD3
:10203000A0E3B1E00E943F22AFE1B1E08D93882799
:102040008C93AFE1B1E0ED91FC91A0E3B1E00E948F
:102050007E22A2E4B2E00D931D932D933D93A0E365
:10206000B1E00E94101CE0E9F9E40E9423200E94E4
:10207000B41FA0E3B1E00E94101CE2E4F2E00E9471
:10208000CB21ECE7F9E40E9423200E941F1CA0E36F
:10209000B1E00E94191C0E94261C0E94990B089511
:1020A000E2EBF9E40E9423200E941F1C0E94FA1D0B
:1020B000A0E1B1E00E94191CE6E7F8E40E942320A9
:1020C0000E941F1C0E94FA1DA7E0B1E00E94191C8B
:1020D0000E94261C0E94FA1DE7E0F1E0ABE9B2E0A5
:1020E0000E94F3210E94FA1DE0E1F1E0A6EAB2E0CD
:1020F0000E94F321A0E3B1E0E8E8F9E40E94232084
:102100000E94B41FEBE9F2E0A0E3B1E00E94101CD2
:102110000E94F321A0E3B1E00E94101CE6E7F8E47E
:102120000E9423200E94B41FE6EAF2E0A0E3B1E09F
:102130000E94101C0E94F321A0E3B1E00E94101C39
:10214000E6E7F8E40E9423200E94B41FE4E8F2E0EE
:10215000A0E3B1E00E94101C0E94F321A0E3B1E0D3
:102160000E94101CECEBF9E40E9423200E94B41F93
:10217000A0E3B1E00E94101CE6E7F8E40E942320EF
:102180000E94B41FA3E2B0E08C9185FBA0E3B1E014
:102190000E94101C0E9414208D9388278C93A0E32A
:1021A000B1E00E94101CE6E7F8E40E9423200E94A0
:1021B000B41FE1E1F3E0A0E3B1E00E94101C0E9433
:1021C0004221A0E3B1E00E94101CE0ECF9E40E947F
:1021D00023200E94B41FA0E3B1E00E943F22AFE1A0
:1021E000B1E08D9388278C93AFE1B1E0ED91FC9144
:1021F000A0E3B1E00E947E22A2E4B2E00D931D9321
:102200002D933D93A0E3B1E00E94101CE0E9F9E4B6
:102210000E9423200E94B41FA0E3B1E00E94101C82
:10222000E2E4F2E00E94CB21ECE7F9E40E942320F3
:102230000E941F1CA0E3B1E00E94191C0E94261CF2
:102240000E94990B0895E2EBF9E40E9423200E947A
:102250001F1C0E94FA1DA0E1B1E00E94191CE6E7D4
:10226000F8E40E9423200E941F1C0E94FA1DA7E090
:10227000B1E00E94191C0E94261CA0E3B1E0E8E82E
:10228000F9E40E9423200E94B41FEBE9F2E0A0E3EE
:10229000B1E00E94101C0E94F321A0E3B1E00E9473
:1022A000101CE6E7F8E40E9423200E94B41FE6EA2F
:1022B000F2E0A0E3B1E00E94101C0E94F321A0E331
:1022C000B1E00E94101CE6E7F8E40E9423200E947F
:1022D000B41FE4E8F2E0A0E3B1E00E94101C0E9409
:1022E000F321A0E3B1E00E94101CECEBF9E40E94A2
:1022F00023200E94B41FA0E3B1E00E94101CE6E777
:10230000F8E40E9423200E94B41FA3E2B0E08C9165
:1023100085FBA0E3B1E00E94101C0E9414208D9365
:1023200088278C93A0E3B1E00E94101CE6E7F8E454
:102330000E9423200E94B41FE1E1F3E0A0E3B1E09A
:102340000E94101C0E944221A0E3B1E00E94101CD8
:10235000E0ECF9E40E9423200E94B41FA0E3B1E066
:102360000E943F22AFE1B1E08D9388278C93AFE1CB
:10237000B1E0ED91FC91A0E3B1E00E947E22A2E4E5
:10238000B2E00D931D932D933D93A0E3B1E00E9425
:10239000101CE0E9F9E40E9423200E94B41FA0E38E
:1023A000B1E00E94101CE2E4F2E00E94CB21ECE7D5
:1023B000F9E40E9423200E941F1CA0E3B1E00E94C8
:1023C000191C0E94261C0E94990B0895E9E1F8E06F
:1023D0009BE304E132E2AEE2B3E00E949E22ADE272
:1023E000B3E02C9300912D03003018F011F00C9401
:1023F000FB110C940312EEE2F3E0A9E2B1E00E94BB
:10240000F3210C940912E9E1F8E0A9E2B1E00E949D
:10241000F321A9E2B1E0E8ECF9E40E9423200E9454
:10242000452211F00C941B12709147027068709352
:1024300047020C946F12ECECF9E40E9423200E94F6
:10244000452211F00C942B12709147027F77709304
:1024500047020C946F12E0EDF9E40E9423200E94E1
:10246000452211F00C94491270912C037064709302
:102470002C03E3E4F3E0A2ECB6E00E94F321E8EDE4
:10248000F9E40E9423200E941F1C0E94261C0C9429
:102490006F12E4EEF9E40E9423200E94452211F01D
:1024A0000C94671270912C03706470932C03E3E416
:1024B000F3E0A2ECB6E00E94F321E8EDF9E40E941B
:1024C00023200E941F1C0E94261C0C946F12ECEE0D
:1024D000F9E40E9423200E941F1C0E94261C0895DC
:1024E00081E0E2ECF6E006E00A93ABE0B2E00E94A5
:1024F000FE21E2ECF6E09CE204E132E2AEE2B3E07F
:102500000E949E22ADE2B3E02C93AEE2B3E00E94C3
:102510003F22082F063011F00C945D18EEE2F3E034
:10252000A9E2B1E00E94F321E9E2F1E0A9E2B1E021
:102530000E94F81F8FEF8093F901A9E2B1E0E8EF64
:10254000F9E40E9423200E94452211F00C94E91224
:1025500080E08093F901A0E3B1E0E0E0FAE40E94BA
:1025600023200E94B41FABE0B2E0E8E2F8E40E944E
:1025700023200E94B41FEBE0F2E0A0E3B1E00E9450
:10258000101C0E94F321A0E3B1E00E94101CE4E1C2
:10259000FAE40E9423200E94B41FABE0B2E0E4E41E
:1025A000F8E40E9423200E94B41FEBE0F2E0A0E3D5
:1025B000B1E00E94101C0E94F321A0E3B1E00E9450
:1025C000101CE4E6F8E40E9423200E94B41F0C943F
:1025D0005B18E2E2FAE40E9423200E94452211F0F7
:1025E0000C94281300912D03023011F00C94231346
:1025F000A3E4B3E00E949821A9E1B1E00C9300911B
:102600001901013110F00C941E1380E08093F90140
:10261000A0E3B1E0EAE2FAE40E9423200E94B41FA2
:10262000E9E1F1E0A0E3B1E00E94101C0E94522118
:1026300080911901809319030C94211385E08093F4
:10264000F9010C94261384E08093F9010C945B1833
:10265000E2E4FAE40E9423200E94452211F00C9447
:10266000401380E08093F901A0E3B1E0EAE4FAE4EA
:102670000E9423200E94B41F0E943B050C945B180B
:10268000EEE5FAE40E9423200E94452211F00C940A
:102690004C1400912D03023011F00C944714A3E464
:1026A000B3E00E943F22082F0C3011F00C9442142A
:1026B00080E08093F90187E0E3E4F3E002E00A932D
:1026C000ABE0B2E00E94FE21ABE0B2E00E94101C41
:1026D000E6E6FAE40E9423200E94B41F89E0E3E4C6
:1026E000F3E002E00A93ABE0B2E00E94101C0E940B
:1026F000FE21ABE0B2E00E94101CE6E6FAE40E9484
:1027000023200E94B41F8BE0E3E4F3E002E00A938D
:10271000ABE0B2E00E94101C0E94FE21ABE0B2E0F0
:102720000E94191C0E94261CEBE0F2E0A0E1B1E03F
:102730000E94F3210E94091EE8E6FAE40E94232089
:102740000E941F1C0E94FA1DA0E1B1E00E94191C0A
:102750000E94261C81E0E3E4F3E002E00A93ABE090
:10276000B2E00E94FE21ABE0B2E00E94101CECE659
:10277000FAE40E9423200E94B41F83E0E3E4F3E024
:1027800002E00A93ABE0B2E00E94101C0E94FE211E
:10279000ABE0B2E00E94101CECE6FAE40E942320B9
:1027A0000E94B41F85E0E3E4F3E002E00A93ABE0AB
:1027B000B2E00E94101C0E94FE21ABE0B2E00E9439
:1027C000191C0E94261CEBE0F2E0A7E0B1E00E9499
:1027D000F3210E94031EEEE6FAE40E9423200E94E9
:1027E0001F1C0E94FA1DA7E0B1E00E94191C0E9464
:1027F000261CA0E3B1E0E2E7FAE40E9423200E9455
:10280000B41F0E94FA1DE7E0F1E0A0E3B1E00E94EE
:10281000101C0E94F321A0E3B1E00E94101CECE91F
:10282000FAE40E9423200E94B41F0E94FA1DE0E1F6
:10283000F1E0A0E3B1E00E94101C0E94F321E4E06B
:10284000F1E00E94571EA5EBB2E08C93E0E0F1E0CE
:102850000E94341FA1EBB2E00D931D932D933D9385
:10286000E2E3F0E0A1EBB2E094E07BE70E94172204
:102870007091470270627093470281E08093190360
:102880000C94451486E08093F9010C944A1484E07A
:102890008093F9010C945B18E0EAFAE40E9423208B
:1028A0000E94452211F00C948C1480E08093F90171
:1028B0000E94FA1DE0E1F1E0ABE0B2E00E94F321FA
:1028C000A0E3B1E0E8EAFAE40E9423200E94B41FEA
:1028D000EBE0F2E0A0E3B1E00E94101C0E94F321C3
:1028E000A0E3B1E00E94101CE6EBFAE40E94232072
:1028F0000E94B41F0E94FA1DE7E0F1E0ABE0B2E0F5
:102900000E94F321EBE0F2E0A0E3B1E00E94101C92
:102910000E94F3210C945B18E6ECFAE40E94232059
:102920000E94452211F00C94C81480E08093F901B4
:10293000E1EBF2E0ABE0B2E00E946D1FA0E3B1E09A
:10294000EEECFAE40E9423200E94B41FEBE0F2E0D8
:10295000A0E3B1E00E94101C0E94F321A0E3B1E0CB
:102960000E94101CE2EEFAE40E9423200E94B41F91
:10297000E1EBF2E0ABE0B2E00E94751FEBE0F2E0C9
:10298000A0E3B1E00E94101C0E94F3210C945B189C
:10299000EAEEFAE40E9423200E94452211F00C94F2
:1029A0005F1500912D03033011F00C945A15A3E428
:1029B000B3E00E949821AEE1B1E00C9300911E01BA
:1029C000003080E010F009F081E08F9300911E014B
:1029D000073081E008F080E09F918923882311F47B
:1029E0000C945515A8E5B3E00E949821A5E2B1E04A
:1029F0000D931D932D933D93A5E2B1E00D911D9193
:102A00002D913C91AEE1B1E0AD90BB24A0E5B2E0E8
:102A1000AA0CBB1CAA0CBB1CAA0DBB1D0D931D93BD
:102A20002D933C93EEE1F1E0A190BB24EEEFFFEF9C
:102A3000AA0CBB1CAA0CBB1CEA0DFB1DA5E2B1E055
:102A400094E07BE70E94172280E08093F901A0E3E5
:102A5000B1E0E2EFFAE40E9423200E94B41FEEE10D
:102A6000F1E0A0E3B1E00E94101C0E945221A0E31B
:102A7000B1E00E94101CE6E6FAE40E9423200E94C6
:102A8000B41FEEE1F1E0A190BB24E0E5F2E0AA0C76
:102A9000BB1CAA0CBB1CEA0DFB1DA0E3B1E00E940D
:102AA000101C0E9445210C94581583E08093F90175
:102AB0000C945D1584E08093F9010C945B18E8E0B8
:102AC000FBE40E9423200E94452211F00C94F6158D
:102AD00000912D03033011F00C94F115A3E4B3E041
:102AE0000E949821AEE1B1E00C9300911E010030EC
:102AF00080E010F009F081E08F9300911E01073013
:102B000081E008F080E09F918923882311F40C94E0
:102B1000EC15A8E5B3E00E949821A5E2B1E00D9381
:102B20001D932D933D93A5E2B1E00D911D912D9143
:102B30003C91AEE1B1E0AD90BB24A8E6B2E0AA0CB6
:102B4000BB1CAA0CBB1CAA0DBB1D0D931D932D9382
:102B50003C93EEE1F1E0A190BB24E6E1F0E0AA0CA9
:102B6000BB1CAA0CBB1CEA0DFB1DA5E2B1E094E066
:102B70007BE70E94172280E08093F901A0E3B1E097
:102B8000E2EFFAE40E9423200E94B41FEEE1F1E09C
:102B9000A0E3B1E00E94101C0E945221A0E3B1E02A
:102BA0000E94101CE6E6FAE40E9423200E94B41F53
:102BB000EEE1F1E0A190BB24E8E6F2E0AA0CBB1C38
:102BC000AA0CBB1CEA0DFB1DA0E3B1E00E94101C87
:102BD0000E9445210C94EF1583E08093F9010C9439
:102BE000F41584E08093F9010C945B18E0E1FBE4B8
:102BF0000E9423200E94452211F00C945B16009144
:102C00002D03023011F00C945616A3E4B3E00E9499
:102C10009821AEE1B1E00C9300911E01003080E0FC
:102C200010F009F081E08F9300911E01073081E0E0
:102C300008F080E09F918923882311F40C945116A9
:102C4000A0E3B1E0E8E1FBE40E9423200E94B41F6E
:102C5000EEE1F1E0A0E3B1E00E94101C0E945221DD
:102C6000A0E3B1E00E94101CE6E6FAE40E942320F3
:102C70000E94B41FEEE1F1E0A190BB24E0E5F2E098
:102C8000AA0CBB1CAA0CBB1CEA0DFB1DA0E3B1E007
:102C90000E94101C0E94452180E08093F9010C9451
:102CA000541683E08093F9010C94591684E08093C4
:102CB000F9010C945B18E0E2FBE40E9423200E94DF
:102CC000452211F00C94C01600912D03023011F032
:102CD0000C94BB16A3E4B3E00E949821AEE1B1E0EE
:102CE0000C9300911E01003080E010F009F081E0AB
:102CF0008F9300911E01073081E008F080E09F91E2
:102D00008923882311F40C94B616A0E3B1E0E8E21D
:102D1000FBE40E9423200E94B41FEEE1F1E0A0E357
:102D2000B1E00E94101C0E945221A0E3B1E00E9479
:102D3000101CE6E6FAE40E9423200E94B41FEEE194
:102D4000F1E0A190BB24E8E6F2E0AA0CBB1CAA0CBF
:102D5000BB1CEA0DFB1DA0E3B1E00E94101C0E9409
:102D6000452180E08093F9010C94B91683E08093AB
:102D7000F9010C94BE1684E08093F9010C945B1861
:102D8000E4E3FBE40E9423200E94452211F00C940E
:102D90002D1700912D03023011F00C942817A3E495
:102DA000B3E00E949821AEE1B1E00C9300911E01C6
:102DB000003080E010F009F081E08F9300911E0157
:102DC000073081E008F080E09F918923882311F487
:102DD0000C94231780E08093F90100911E0141E0DB
:102DE000041BA9E1B1E00C9380911901AAE2B3E0C0
:102DF0000E940E200E9404209C91982B9C93A0E39B
:102E0000B1E0ECE3FBE40E9423200E94B41FEEE15A
:102E1000F1E0A0E3B1E00E94101C0E945221A0E367
:102E2000B1E00E94101CE6E7F8E40E9423200E9413
:102E3000B41FA0E3B1E00E94101CEAE2F3E00E949C
:102E4000E0210C94261783E08093F9010C942B1752
:102E500084E08093F9010C945B18E0E5FBE40E94A8
:102E600023200E94452211F00C94641700912D0339
:102E7000023011F00C945F1780E08093F901A3E415
:102E8000B3E00E949821A0E4B2E00C93E0E0F0E00F
:102E9000A0E4B2E07BE70E941422A0E3B1E0E8E501
:102EA000FBE40E9423200E94B41FE0E4F2E0A0E3D0
:102EB000B1E00E94101C0E9452210C94621784E021
:102EC0008093F9010C945B18EEE6FBE40E9423204A
:102ED0000E94452211F00C94821780E08093F90142
:102EE000A0E3B1E0E8E7F8E40E9423200E94B41FC9
:102EF000E0E4F2E0A0E3B1E00E94101C0E94522145
:102F00000C945B18E6E7FBE40E9423200E94452214
:102F100011F00C94AC1780E08093F9010E94AA0490
:102F2000A0E3B1E0EEE7FBE40E9423200E94B41F7F
:102F3000E4E8F2E0A0E3B1E00E94101C0E94F3215B
:102F4000A0E3B1E00E94101CE4E6F8E40E94232014
:102F50000E94B41F0C945B18E8E8FBE40E94232055
:102F60000E94452211F00C94001800912D030230AC
:102F700011F00C94FB1780E08093F901A3E4B3E017
:102F80000E949821A9E1B1E00C9300911901003051
:102F900080E010F009F081E08F93009119010F3F5C
:102FA00081E008F080E09F918923882311F40C943C
:102FB000F6178091190180934102E1E0F0E0A1E46D
:102FC000B2E07BE70E941422A0E3B1E0E0E9FBE479
:102FD0000E9423200E94B41FE1E4F2E0A0E3B1E0EC
:102FE0000E94101C0E9452210C94F91785E08093D6
:102FF000F9010C94FE1784E08093F9010C945B189E
:10300000E8EAFBE40E9423200E94452211F00C9480
:103010001E1880E08093F901A0E3B1E0E0EBFBE44F
:103020000E9423200E94B41FE1E4F2E0A0E3B1E09B
:103030000E94101C0E9452210C945B18EAEBFBE4E6
:103040000E9423200E94452211F00C9458180091F0
:103050002D03023011F00C94531880E08093F90195
:10306000A3E4B3E00E949821A9E1B1E00C930091A0
:103070001901003011F00C944818A0E3B1E0E2EC23
:10308000FBE40E9423200E94B41F2F980C94511837
:10309000A0E3B1E0EEECFBE40E9423200E94B41F09
:1030A0002F9A0C94561884E08093F9010C945B18C5
:1030B00081E08093F9010C94D618EEE2F3E0A9E2E6
:1030C000B1E00E94F321E9E2F1E0A9E2B1E00E945F
:1030D000F81FA9E2B1E0E8ECF9E40E9423200E9485
:1030E000452211F00C947E1870914702706870931D
:1030F000470280E08093F9010C94D618ECECF9E4D7
:103100000E9423200E94452211F00C949118709186
:1031100047027F777093470280E08093F9010C9417
:10312000D618E0EDF9E40E9423200E94452211F018
:103130000C94B21870912C03706470932C03E3E428
:10314000F3E0A2ECB6E00E94F321E8EDF9E40E947E
:1031500023200E941F1C0E94261C80E08093F901FE
:103160000C94D618E4EEF9E40E9423200E94452234
:1031700011F00C94D31870912C03706470932C038D
:10318000E3E4F3E0A2ECB6E00E94F321E8EDF9E419
:103190000E9423200E941F1C0E94261C80E0809316
:1031A000F9010C94D61882E08093F9010091F9019D
:1031B000003018F011F00C94DF180C94ED18E4EFC7
:1031C000F1E30E942320A9EFB1E08C9199270E949E
:1031D000F01FA0E3B1E00E94B41FA0E3B1E00E94A1
:1031E000191C0E94261C089500100E10AE102E10FF
:1031F0003E10A0114F4B00436F6D616E646F206EE7
:103200006F207265636F6E6F6369646F004C6F6EE1
:10321000676974756420636F6D616E646F206E6F93
:103220002076616C696461004E756D65726F206413
:103230006520706172616D6574726F206E6F2076AB
:10324000616C69646F004E756D65726F20646520F6
:10325000706172616D6574726F7320696E76616CF6
:1032600069646F004572726F72206C6F6E6769746B
:10327000756420706172616D6574726F20310045F4
:1032800072726F72206C6F6E676974756420706102
:1032900072616D6574726F203200506172616D658C
:1032A00074726F206E6F2076616C69646F00455296
:1032B000524F5238004552524F522053442E20490B
:1032C0006E74656E7465206465206E7565766F003A
:1032D0000000000003000000330000003303000082
:1032E000333300003333030033C00C00FF0FFF0FF4
:1032F0005555555533333333777777770C00FCFFCB
:10330000CC00FCFFCC0CFCFFCCCCFCFF0C00FCFF89
:10331000F0FFFFFF0E945703E8EDFBE40E9423202B
:103320000E941F1C0E94261C82E080931903ACE2BD
:10333000B3E08C9186FB16F00C94B11970912C03BC
:103340007F7B70932C03E6E7F9E40E9423200E9420
:103350001F1CA2ECB6E00E94191C0E94261C0E94B1
:10336000701200912B03013011F00C940B1A709124
:103370002B037E7F70932B03ABE1B3E08C918F5FC7
:103380008C93ABE1B3E00C9145E00E942F228C932B
:1033900000911B03003011F00C940B1AA0E3B1E074
:1033A000EEEEFBE40E9423200E94B41FA0E3B1E0F4
:1033B0000E943F22AFE1B1E08D9388278C93AFE16B
:1033C000B1E0ED91FC91A0E3B1E00E947E22A2E485
:1033D000B2E00D931D932D933D93A0E3B1E00E94C5
:1033E000101CE0E9F9E40E9423200E94B41FA0E32E
:1033F000B1E00E94101CE2E4F2E00E94CB21ECE775
:10340000F9E40E9423200E941F1CA0E3B1E00E9467
:10341000191C0E94261CA7E4B2E08C9185FB16F0D3
:103420000C94971981E080931903ACE2B3E08C917E
:1034300086FB16F00C942F1A70912C037F7B7093EF
:103440002C03E6E7F9E40E9423200E941F1CA2EC53
:10345000B6E00E94191C0E94261C0E94701281E096
:1034600080931C0100911C01063018F011F00C949F
:10347000F61A00911C0141E0041BADE1B1E00C9390
:1034800080911D01AAE2B3E00E940E200E94042058
:103490000C900822689409F4E89416F00C94EE1A43
:1034A00080911D01AAE2B3E00E940E200E94042038
:1034B0008C9189238C9300911C01013011F00C94A4
:1034C0006D1AE6EFFBE40E9423200E941F1C0E945D
:1034D000261C0E944C0C0C94EE1A023011F00C9435
:1034E0007D1AECEFFBE40E9423200E941F1C0E9427
:1034F000261C0E947C0D0C94EE1A033011F00C94E3
:10350000C81AE2E0FCE40E9423200E941F1C0E94D3
:10351000261CA0E3B1E0EEEEFBE40E9423200E9413
:10352000B41FA0E3B1E00E943F22AFE1B1E08D9370
:1035300088278C93AFE1B1E0ED91FC91A0E3B1E07D
:103540000E947E22A2E4B2E00D931D932D933D9341
:10355000A0E3B1E00E94101CE0E9F9E40E942320FE
:103560000E94B41FA0E3B1E00E94101CE2E4F2E06C
:103570000E94CB21ECE7F9E40E9423200E941F1C4B
:10358000A0E3B1E00E94191C0E94261C0C94EE1AC4
:10359000043011F00C94D01A0E94A7050C94EE1A76
:1035A000053011F00C94E01AE8E0FCE40E942320BE
:1035B0000E941F1C0E94261C0E94FC0E0C94EE1AF6
:1035C000063011F00C94EE1AEEE0FCE40E94232089
:1035D0000E941F1C0E94261C0E945010ACE1B1E00A
:1035E0008C918F5F8C9310F40C94321AA7E4B2E0A4
:1035F0008C9183FB16F00C94041B70914702777F2B
:10360000709347020E9446061D990C94681B002780
:10361000A3E2B0E08C9185FB00F94427A7E4B2E077
:103620008C9186FB40F9041711F40C94661B8AE018
:1036300090E00E94971C1D990C94661BE4E1FCE449
:103640000E9423200E941F1CA3E2B0E08C9185FB06
:10365000A0E8BFE30E9414208D9388278C930E94DA
:10366000171C0E94261CA3E2B0E08C9185FBA7E406
:10367000B2E08C9186F98C93E0E0F1E00E94341F77
:10368000A1E2B1E00D931D932D933D93A1E2B1E032
:103690000D911D912D913C9141E050E060E070E072
:1036A0000E942A21A1E2B1E00D931D932D933D9339
:1036B000E1E2F1E0ABE9B2E00E94751FE1E2F1E086
:1036C000A6EAB2E00E946D1F0E9423110C94C71B52
:1036D0000027A3E2B0E08C9185FB00F94427A7E422
:1036E000B2E08C9186FB40F9041711F40C94C71BCF
:1036F0008AE090E00E94971C1D9B0C94C71BE4E19C
:10370000FCE40E9423200E941F1CA3E2B0E08C91E5
:1037100085FBA0E8BFE30E9414208D9388278C933B
:103720000E94171C0E94261CA3E2B0E08C9185FB2E
:10373000A7E4B2E08C9186F98C93E0E0F1E00E947E
:10374000341FA1E2B1E00D931D932D933D93A1E2AF
:10375000B1E00D911D912D913C9141E050E060E070
:1037600070E00E942521A1E2B1E00D931D932D93FD
:103770003D93E1E2F1E0ABE9B2E00E94751FE1E2C6
:10378000F1E0A6EAB2E00E946D1F0E9423110C94A2
:10379000151AED91FC91EF5FFF4FFC93EE930895A6
:1037A00009D00E94871F00FC10D0089503D01ED0BE
:1037B00001F8F9CF0024E89457FF02C009D06894BB
:1037C00000F80BD010F80124089502D009D0089514
:1037D000509540954F5F5F4F0895E89417FF089507
:1037E000009510950F5F1F4F68940895352F242F73
:1037F000E894452B11F468940895512F402F002729
:10380000112780E1440F551F001F111F021B130BCE
:10381000416018F4020F131F4E7F8A9599F708959F
:103820008F938D918823E9F711978F910895A0E8E0
:10383000BFE38D91882311F00CD0FBCF08950E9437
:10384000BA1F802D11F005D0FACF08958DE001D078
:103850008AE00090C00005FEFCCF8093C60008956A
:103860000090C80005FEFCCF8093CE00089500FCB8
:1038700005D0089530D005D001F8F9CF37D03FD02A
:103880000895842F952FA62FB72FE894452B462B0C
:10389000472B11F468940895402F512F622F732FF6
:1038A0000027112722273327F0E2440F551F661FF8
:1038B000771F001F111F221F331F081B190B2A0B14
:1038C0003B0B416028F4080F191F2A1F3B1F4E7F36
:1038D000FA9559F708950024E89477FF02C006D0BE
:1038E000689400F809D010F80124089512D04F5FB1
:1038F0005F4F6F4F7F4F0895E89437FF089500950D
:103900001095209530950F5F1F4F2F4F3F4F6894B4
:103910000895409550956095709508953197F1F709
:103920000895689462F80895E89462F80895EF9312
:10393000FF93EE27E82BE92B31F0E0EAFFE0319727
:10394000F1F70197D1F7FF91EF9108958DE207FD0F
:103950008D938F2D881F802F881F8F57082F689475
:10396000F7F8802F87FF17C080958395082F80E395
:103970008D938EE28D93802F815238F080E38D936A
:1039800099279C930E941820089544270A95802F18
:1039900009F19ED01FC0805230F09EE49D9381E4D7
:1039A0008D939D93EDCF4427DF92EF92FF920F937B
:1039B0008FE1801B11F0082F8BD091D09EE29D9358
:1039C0000F91FF90EF90DF9044270395003209F4A8
:1039D000D5CF33D03F93E0E7FAE30E94232038E1CC
:1039E0002F2D1E2D0D2DFF24EE24DD244427000F46
:1039F000111F221FB8F42F923F920E94BA1F102C61
:103A00000E94BA1F202C0E94BA1F302C0E94BA1F9D
:103A100031970E94E91F410DD21CE31CF01C3F901E
:103A20002F9003C033960E94E21F31960E94E21F3E
:103A30003A95E9F63F9107D0A5CFDD0CEE1CFF1CAF
:103A40000A95D9F70895002719E058D08F93802B55
:103A500011F0039501C08F911A95B9F7802F882333
:103A600009F48CCF8F91805D8D930A95D9F788CF1B
:103A70000065CD1D80B2E60E40597307A0ACB903B6
:103A800050D6DC01286BEE0094357700CA9A3B00D3
:103A900065CD1D00B2E60E0059730700ACB90300F6
:103AA000D6DC01006BEE0000357700009A3B000089
:103AB000CD1D0000E60E000073070000B9030000F2
:103AC000DC010000EE000000770000003B00000079
:103AD000F694E794D79447950A95D1F7089500276F
:103AE0000DD08F9303958F2D8E298D29842BC1F7AF
:103AF0008F91805D8D930A95D9F742CF1F930F93D5
:103B0000002710E2440FDD1CEE1CFF1C001F802F5D
:103B10009AE0890B10F0082F43951A9599F7802F9A
:103B20000F911F910895082748E01695079510F406
:103B3000122701254A95C9F7089531E005C032E002
:103B400003C033E001C034E00FEF1FEF20EA91E043
:103B5000192EE9DF46D08991682FE5DF42D089919F
:103B6000E2DF3FD08991DFDF3CD05991613078F0BE
:103B7000653068F48827D7DF34D0852F869509F41F
:103B800081E0D1DF2ED0802F2CD0812F2AC066304B
:103B900041F49D918C91C7DF24D0892FC4DF21D0BF
:103BA000F2CF6031E9F48827BEDF1BD0852F8695E0
:103BB00009F481E0682FB7DF14D0862F880FB3DFB8
:103BC00010D0513019F488279D9102C09D918D919C
:103BD000AADF07D0892FA7DF04D06A95B9F7D3CF22
:103BE0000895313011F40C94291C323011F40C94E6
:103BF000301C0895A7E0B1E0E4E0F1E00E94471E28
:103C000033970C94231EE7E0F1E0A4E0B1E00C94BC
:103C1000351EE0E1F1E0A0E0B1E00C94111EADE052
:103C2000BB27868197810E9434200D9383819481E4
:103C30000E9434200D93808191810E9434200D9345
:103C40000895EDE0FF2782810E9429208AE38D9369
:103C500081810E9429208AE38D9380810E942920FE
:103C600088278C930895ADE0BB27808191810E94C5
:103C700034200D93838194810E9434200D9386819A
:103C800097810E9434200D930895EDE0FF278081F5
:103C90000E9429208FE28D9381810E9429208FE24A
:103CA0008D9382810E94292088278D93089521D0A9
:103CB0000F2D069506950F0D0D0D8F2D837021F498
:103CC0001E2D13300AF40A958E2D8A959927E6EE5B
:103CD000FCE30E942320A8E1BB270E94D61F080F07
:103CE00047E00C942F22050101040602040003059D
:103CF000010393E0ADE002C096E0AAE0B0E08FB728
:103D0000F89401910D939A95E1F78FBF0895019171
:103D1000119145EB55E00E94D61B440F440FF42E41
:103D20000F31150728F481E0E82E0395D02E24C02A
:103D30000C33150728F482E0E82E0E51D02E1CC05B
:103D40000150150B4DE651E00E94F61BF40E7CE08D
:103D50007A95872F9927EAE7FDE30E942320A2E1C5
:103D6000BB270E94D01F0217130790F37395E72E0D
:103D7000021B130B0395D02E089500001F003B007B
:103D80005A0078009700B500D400F300110130010B
:103D90004E01019111912191308140E851E561E09E
:103DA00070E00E943A1C042F152F0C94891EA1DF8D
:103DB0000E2D0A95802F0295003220F01F2D1370D2
:103DC00009F40395DA940D0D11279927E2EEFDE32E
:103DD0000E942320A8E1BB270E94D61F080F111FB5
:103DE0000895000F1B2A384755647381909E81DF28
:103DF0000F2D11274CE355270E94D01B55270E0D80
:103E0000151F4CE322273327662777270E94911F2F
:103E10000D0D131F231F08956CDFDF92EF92FF92A9
:103E20000F2D1127222733274DE651E060E070E087
:103E30000E94911FFF904F2D4D5F46954695552747
:103E4000662777270E942521EF90DF900F931F931D
:103E50002F933F930E94D81E222733277F916F9183
:103E60005F914F910C94252147DFAF92BF92CF9283
:103E70000E940D1F40E851E561E070E00E94911F33
:103E8000FF90EF90DF900F931F932F933F930E942B
:103E9000F81E7F916F915F914F910C9425210191B4
:103EA00011912191308140E851E561E070E00E947C
:103EB0003A1C0C945F1F019111912191308140E1D6
:103EC0005EE060E070E00E943A1CF42E4CE350E0AB
:103ED0000E94D61BE42ED02E0895AF93BF930E946C
:103EE0004F1FBF91AF910C94211EAF93BF930E94BF
:103EF000C91EBF91AF910C94451E41E2FF2747BFF9
:103F000084910895019111912191308108950F922A
:103F1000B801469F8001479F100D569F100D0F90CE
:103F200008950F921F922F92C801D901489F8001D6
:103F30004A9F90014B9F202C499F100D211D321D3F
:103F40005A9F202C589F100D211D321D599F200D66
:103F5000311D689F200D311D699F300D789F300DF8
:103F60002F901F900F9008950E94BA1F0D9200206D
:103F7000D9F70895D895319628F48F938BB7839508
:103F80008BBF8F910020089591E005C092E003C09F
:103F900094E001C098E0EEDF0D929A95E1F7089564
:103FA000880F991FE80FF91F0DD0F0CFE80FF91F08
:103FB00009D0EACF880F991F880F991FE80FF91FC2
:103FC00001D0E6CF28F48F938BB783958BBF8F9169
:103FD000089528F48F938BB78A958BBF8F9108959E
:103FE0000196019721F00E94BA1FE9F7FACF0895D0
:103FF000819104D08D938823D9F70895813618F0E4
:104000008B3708F48F7D089591E0882321F0889400
:10401000991F8A95E9F7892F90950895883018F0AF
:1040200011968850FBCF089580E30EF48395089590
:104030000F9200240BBE0F9008950F9301E00BBF69
:104040000F91889408950F930027F9CF0F9302E002
:10405000F6CF00278A3018F08A500395FBCF005D19
:104060000D93805D8D930895805390530027813088
:1040700018F0065F8A95FBCF090F0895AF93BF93A1
:104080000F939F938F938FB78F93A0E0B1E08C91A4
:1040900083958D938C3309F03DC088278E931196BC
:1040A0008C9183958D938C3309F034C088278E933F
:1040B00011968C9183958D93883161F588278E9325
:1040C00011968C9183958D939C910EE1943089F09B
:1040D000963079F0993069F09B3059F00CE19230CC
:1040E00039F411969C911197937019F4039501C0BE
:1040F0000FE1801778F071F081E08E9311968C912A
:1041000083958D938D3031F481E08E9311968C914F
:1041100083958C938F918FBF8F919F910F91BF91BA
:10412000AF910F921F922F923F924F925F927F9288
:10413000AF92BF920F931F932F933F934F935F9331
:104140006F937F938F939F93AF93BF93CF93DF939F
:10415000EF93FF938FB78F938BB78F9388278BBF86
:104160000E94D8028F918BBF8F918FBFFF91EF91EB
:10417000DF91CF91BF91AF919F918F917F916F917F
:104180005F914F913F912F911F910F91BF90AF90F1
:104190007F905F904F903F902F901F900F901895B9
:1041A00099278D9193958823E1F7939511968C9398
:1041B00011978E919A95D1F70895EA2FFB2F00243D
:1041C0004C918D9103948E32E1F711248D911394CB
:1041D0008823E1F71A94101640F41197202F211923
:1041E000239580E38D932A95E9F7113039F59927C6
:1041F000AE2FBF2FA00DB91FA00FB91F8C919C939C
:10420000853308F421C031E08E918E32E9F38D328E
:1042100041F0830F8A3319F480E331E001C0332782
:104220008C93AE1789F7332341F0AE2FBF2FB8DF41
:1042300081E34D3209F43196808308958827E00D9B
:10424000F81FE00FF81F80830895040F151F261F25
:10425000371F0895041B150B260B370B0895041701
:104260001507260737070895000F111F221F331F58
:10427000089500951095209530950F5F1F4F2F4F93
:104280003F4F0895019110810FC00E94821F0EC000
:104290000E94821F10C00191108117FF05C03FEFDF
:1042A0002FEF04C0008111272227332737FF03C0D7
:1042B000E0DF8DE28D93CF92DF92EF92AA24BB24B0
:1042C000CC24DD24EE2440E2EAE0FF2755E093E32E
:1042D0008081890F87FD9F7083FD907F891B81936B
:1042E0005A95A9F7C1DFAA1CBB1CCC1CDD1CEE1C17
:1042F0004A9551F7E894EFE0FF2782910CD0EB301C
:10430000E0F71EF068948A2D0AD088278D93EF90ED
:10431000DF90CF900895982F829501D0892F8F70CC
:10432000805D26F0803309F4089568948D93089594
:1043300000271127222733271DD08A3328F4803302
:1043400018F005D015D0F9CF0EF493CF089580530F
:104350008F93402F512F622F732F86DF85DF75DFFC
:1043600083DF8F919927080F191F291F391F08957F
:104370008D910895E894FCDF8032E9F38B32D9F314
:104380008930C9F38D3211F46894F2CF089541E079
:1043900003C042E001C044E0E40F8827F81F829187
:1043A000982F829506D0892F04D04A95C1F70C9496
:1043B000F0218F708A3008F0895F805D8D930895B9
:1043C00041E0E40F8827F81F829138E098E1880FD8
:1043D000991F9D933A95D1F74A95B1F70C94F02126
:1043E00088278D93089581918D938823E1F708950F
:1043F00094E081918D939A95E1F7089509919191B7
:10440000992359F08A95D9F73197002331F081919A
:104410008D930A958823C9F70895E2CFF999FECFC5
:10442000E1BDF2BD3196089591E001C092E07B3785
:1044300051F47FB7F894F2DF8D9180BDFA9AF99A22
:104440009A95C9F77FBF7727089591E001C092E060
:10445000E5DFF89A80B58D939A95D1F70895FF938B
:10446000881BF9E0001FFA9511F4FF910895881F49
:10447000841B18F4840F8894F5CF0894F3CF8FEF42
:1044800083959D919923E1F70895689401C0E8947C
:10449000AF93BF938D9116F0919103C00E94BA1F04
:1044A000902D891718F011F48823A1F7BF91AF91CF
:1044B000089579910D919981903009F013D050278A
:1044C00088E0440F551F10F4422753278A95C9F7F7
:1044D0007A9581F789919991803019F08A0105D0F8
:1044E000A801089588E0112701C080E1F801F69540
:1044F000E795001F111F8A95D1F708950FEF1FEF61
:104500002FEF3FEF60E273E888EB9DEE0D90002502
:1045100048E08894379527951795079520F4062746
:104520001727282739274A95A1F7319779F700955A
:104530001095209530950895689401C0E89422273D
:10454000102F231709F4089526F40E94BA1F802D16
:1045500001C08191803081F0891741F070E08D9326
:104560001A9591F7239571E01D93EACF01D0E8CF1A
:10457000703011F077270895772331F42395882739
:1045800013958D931A95E9F70895B7FE089590E86D
:10459000B91611F4D0FE08959FEFD91AE90AF90A65
:1045A00009F403950895D190E190F1900191089557
:1045B00021913191419151910895502F2D2D3E2DF2
:1045C0004F2D612F0895652F90E8440F551F5927EF
:1045D000990F47956078102F90E8FF0C001F09276E
:1045E000990FF794107800380895FF0C90E8902701
:1045F000110F9795F794092F08951127BD2CDE2CE4
:10460000EF2CF02E0EE1FF2039F4FE2CED2CDB2CEC
:10461000BB240850C2F775C032F00A95BB0CDD1CF4
:10462000EE1CFF1CF9CFB1DFE0CF102FBD2CDE2C2C
:10463000EF2CF02E11234AF4B094D094E094F0942F
:104640009FEFB91AD90AE90AF90A0EE1FF2039F4F5
:10465000FE2CED2CDB2CBB240850C2F752C032F0EC
:104660000A95BB0CDD1CEE1CFF1CF9CF8EDFBDCF05
:104670002DEC3CEC4CEC5DE366270FC094DF9DDF36
:10468000DD24EE2490E8F92E0FE307C091DF05C08A
:104690002227332740E251E46627552351F10023B6
:1046A00081F191DF71F11627005850580894050BDD
:1046B00018F407FD03C025C007FD23C046953795B4
:1046C0002795F694E794D79425D0FF202AF0DD0CA7
:1046D000EE1CFF1C015073F09D2D969548F0DD20D7
:1046E0003AF4EE202AF491E0D90E9927E91EF91E3A
:1046F0007CCF07C09FE7092FF92A9FEFD92EE92E1B
:104700000895DD24EE24FF240027112708950FE7E4
:104710009FEFF2CF9F929924AA24BB2488E1D2165E
:10472000E306F40628F0D21AE30AF40A089401C05A
:104730008894991CAA1CBB1CDD0CEE1CFF1C8A95DE
:1047400071F7D92CEA2CFB2C9F9008953CDFD9F00F
:104750005038C9F016270058952F90580894091F13
:1047600012F418F40EC008F00EC00FD0FF202AF08B
:10477000BB0CDD1CEE1CFF1C02C0039513F005DF13
:1047800034CF0C947A230C9481239F92FF92EF9262
:104790008D2DFF24EE24DD24BB2493E0849F1001A3
:1047A000829FB00CD11CE21CF31C839FD00CE11C37
:1047B0002224F21C9A9531F0BD2CDE2CEF2CFF2424
:1047C0008F91ECCF9F9008950E94BA1F202D0E94D8
:1047D000BA1F302D0E94BA1F402D0E94BA1F502DC3
:1047E000089500007A440000C842000080BF3037BE
:1047F0002F30312F3235000031313A32383A3030F3
:1048000000002A2A2A2A2A2A2A2A2A2A2A2A20454B
:104810004D455445522032303235202A2A2A2A2A40
:104820002A2A2A2A2A2A2A0033302D30312D3230E2
:1048300032362031353A33303A313800302E302E8E
:1048400031333800454D455445522E424153000006
:10485000417574003D002C204F4646004944736565
:10486000723C00003E00556C74696D6120414354F8
:10487000434C4B2000002C00454E414255473D0023
:104880004944536C6176653E0000434E5452696E54
:10489000693D00005472792000005074723D0000A0
:1048A0002C20416464723D00545820005054524DF5
:1048B00044423D00563366733D0056613D005662EA
:1048C0003D0056633D004933733D000049613D00A2
:1048D00049623D0049633D0045616733733D000017
:1048E0004561673D00004562673D00004563673DE7
:1048F000000050777233733D0000507772613D00C5
:10490000507772623D00507772633D0045613373AA
:104910003D00457233733D00667265633D0043544C
:104920003D0056543D00507472206E6F2076616CCD
:104930000000524547204D4442204445433D00007D
:104940002C204845583D00002C204445433D0000A4
:10495000435243206661696C20656E204144445295
:104960003D004573706572612052504920005250DD
:104970004974783E0000534552313D00240054589C
:1049800041555431203B0000412C00002D310000E6
:104990002600545841555434203B00002D3200006D
:1049A000545841555435203B00002D3500002C2C27
:1049B0002C00545841555436203B00002D36000041
:1049C0002C2C2C2C2C2C00004F4B0000455252005C
:1049D0005345544D424400004E4557204D4443201A
:1049E000434D440053455444414100004E6F206301
:1049F0006D642076616C00004C45455646570000BA
:104A000056657273696F6E2046573A204665636833
:104A100061203C003E2C204172636869766F203C27
:104A200000005345544C45440000536520636F6EAD
:104A3000666967757261207365746C6564206120B6
:104A40000000525354564152000056616C6F72651B
:104A50007320706F722064656661756C74005345D5
:104A600054434C4B00003A00543E00002F00443E9B
:104A700000005741544348494E4720494E464F5243
:104A80004D412E20536520636F6E66696775726FA6
:104A90002072656C6F6A20656E2000002061200026
:104AA000534953434C4B0000486F7261206163745B
:104AB00075616C3D00002C20466563686120616370
:104AC0007475616C3D004C4545434C4B0000556C82
:104AD00074696D612041435420434C4B2061203D5B
:104AE00000002C2064656C2000005345544155544F
:104AF0000000536520636F6E66696775726F20747E
:104B000078204155542000005345544F464600003C
:104B10004C4545415554000054782041757420009F
:104B20004C45454F464600004F666673657420410C
:104B3000757420005345544E45570000536520615D
:104B4000637469766F2054782E20415554200000FC
:104B50005345544255470000536520636F6E6669A4
:104B60006775726F20454E414255473D00004C45E8
:104B70004542554700004C454552494400004944D0
:104B800020736572203C0000534554444952000094
:104B9000536520636F6E66696775726F2049447351
:104BA0006C617665206120004C4545444952000007
:104BB0004944736C617665203D0053455452454C21
:104BC000000052455345542072656C650000534502
:104BD000542072656C6500004573706572612043F6
:104BE0004C4B2064656C20536572766572004143BE
:104BF00054434C4B00004155543100004155543250
:104C000000004155543300004155543500004155D2
:0E4C100054360000537075657274613D0000EB
:00000001FF
