:100000000C94460018950000189500001895000003
:10001000189500001895000018950000189500002C
:100020001895000018950000189500000C94BB1856
:10003000189500001895000018950000189500000C
:1000400018950000189500000C94F3011895000015
:100050000C94B70018950000189500001895000042
:1000600018950000189500001895000018950000DC
:100070000C949A011895000018950000189500003E
:100080001895000018950000189500008FEF8DBF9F
:10009000C0E8E8E94E2E80E48EBFD0E4FFE35F2E97
:1000A000A89584B7082E882784BF88E19927809374
:1000B000600090936000EEEFFFE3A0E0B1E08827DE
:1000C0008D933197E9F787E68093C40080E08093B1
:1000D000C50088E18093C1006624209A85E085BD33
:1000E00080E084BD70916E00716070936E0085E059
:1000F00085BD80E28093B60085E08093B100709169
:100100007000716070937000A6E0B1E0EEE7F6E376
:100110000E94A0180E9435180E948416AFE0B1E03A
:10012000E8E8F6E30E94A0180E9435180E948A169B
:100130007091C10070687093C10083E38093CC001C
:1001400080E08093CD007091C8007D7F7093C800DF
:1001500087E08093CA0088E18093C900229A709159
:10016000C90070687093C90078940C942B130F9297
:100170001F922F923F924F925F927F92AF92BF92C7
:100180000F931F932F933F934F935F936F937F939F
:100190008F939F93AF93BF93CF93DF93EF93FF938F
:1001A0008FB78F938BB78F9388278BBFACE9B6E05F
:1001B0008091C6008C9384E2482F00919C0604171E
:1001C00011F00C94EE007091470271607093470239
:1001D000A3EDB5E088278C930C947C0185E2482F31
:1001E000041711F00C94FF00709107037064709372
:1001F0000703A7E6B7E088278C930C947C010D30A9
:1002000011F00C944301A7E4B2E08C9180FB16F04E
:100210000C942201709147027E7F7093470280E028
:10022000A3EDB5E00E9491148D9388278C93E3EDA4
:10023000F5E0ADE9B6E00E946F1A709107037068AF
:1002400070930703A7E0B3E08C9186FB16F00C9443
:100250004101709107037F7B7093070380E0A7E65D
:10026000B7E00E9491148D9388278C93E7E6F7E01E
:10027000A4EFB7E00E946F1A709107037062709349
:1002800007030C947C010F3118F011F00C944A0113
:100290000C947C01A7E4B2E08C9180FB16F00C94E6
:1002A0005B01ACE9B6E08C91A3EDB5E00E9491143E
:1002B0008D9388278C93A7E0B3E08C9186FB16F092
:1002C0000C947C01ACE9B6E08C91A7E6B7E00E9403
:1002D00091148D9388278C93A7E6B7E00E94B51AF6
:1002E000082F0C3818F011F00C9478010C947C0154
:1002F000A7E6B7E088278C938F918BBF8F918FBF34
:10030000FF91EF91DF91CF91BF91AF919F918F912D
:100310007F916F915F914F913F912F911F910F911D
:10032000BF90AF907F905F904F903F902F901F9025
:100330000F9018950F921F922F923F924F925F92BB
:100340007F92AF92BF920F931F932F933F934F9340
:100350005F936F937F938F939F93AF93BF93CF934D
:10036000DF93EF93FF938FB78F938BB78F9388278C
:100370008BBFA1E8B8E08091CE008C93A7E0B3E0FA
:100380008C9184FB16F00C94D501A4EAB2E08C9118
:100390008F5F8C9380918108A4EAB2E0AD90BB247A
:1003A000A1E8B8E0AA0DBB1D8C938F918BBF8F91F4
:1003B0008FBFFF91EF91DF91CF91BF91AF919F914F
:1003C0008F917F916F915F914F913F912F911F91ED
:1003D0000F91BF90AF907F905F904F903F902F9084
:1003E0001F900F9018950F921F922F923F924F924D
:1003F0005F927F92AF92BF920F931F932F933F9381
:100400004F935F936F937F938F939F93AF93BF931C
:10041000CF93DF93EF93FF938FB78F938BB78F9328
:1004200088278BBF74E676BDAEEEB2E08C918F5F0D
:100430008C93AEEEB2E00C9148E00E94A51A8C932A
:100440000091EE02003011F00C946602AFEEB2E0C3
:100450000C9140E20E94A51A8C93E2E1F6E20E9420
:10046000A018A4EFB2E08C919927A0EFB2E00E940F
:100470005B188091EF02A0EFB2E00E948F180E94FB
:1004800085180C900822689409F4E894A7E4B2E077
:100490008C9183F98C93A7E4B2E08C9183FB88273D
:1004A00080F9809580FBA7E4B2E08C9183F98C936E
:1004B000A7E4B2E08C9183FBA5E2B0E08C9180F9D7
:1004C0008C93AFEEB2E08C918F5F8C93A7E0B3E09A
:1004D0008C9184FB16F00C949102ACEAB2E00E947D
:1004E0004A14ACEAB2E00D911C9140EA50E00E943F
:1004F0007714ACEAB2E00D931C93ACEAB2E00D9134
:100500001C91003050E0150711F00C94910270918D
:1005100007037F7E709307037091470270617093A9
:100520004702A7E4B2E08C9181FB16F00C94B00274
:10053000A7EFB2E00E944A14A9EFB2E04D915C919E
:10054000A7EFB2E00D911C910417150711F00C9460
:10055000AE02709147027460709347020C94B60229
:1005600080E090E0A7EFB2E08D939C938F918BBFDA
:100570008F918FBFFF91EF91DF91CF91BF91AF919D
:100580009F918F917F916F915F914F913F912F91AB
:100590001F910F91BF90AF907F905F904F903F90D1
:1005A0002F901F900F901895E0E0F1E00E94B51792
:1005B000ADEFB2E00D931D932D933D9381E08093B9
:1005C000FB020091FB02043018F011F00C944D0373
:1005D0000091FB0241E0041BACEFB2E00C93ADEFE5
:1005E000B2E00D911D912D913C91ABEFB2E0AD9039
:1005F000BB24ACE5B2E0AA0CBB1CAA0CBB1CAA0D28
:10060000BB1D4D915D916D917C910E94A719A1E058
:10061000B3E00D931D932D933D93A1E0B3E00D91B5
:100620001D912D913C91ABEFB2E0AD90BB24ACE4B9
:10063000B2E0AA0CBB1CAA0CBB1CAA0DBB1D4D91A1
:100640005D916D917C910E94BB14A1E0B3E00D938C
:100650001D932D933D9340E050E060E070E0A1E0F9
:10066000B3E00D911D912D913C910E94AC1911F0B8
:100670000C9445038091FC02A5E0B3E00E948F1822
:100680000E9485189C91982B9C93ABEFB2E08C91C3
:100690008F5F8C9310F40C94E102709106037160EB
:1006A0007093060308952898E2E9F6E30E94A018E3
:1006B0000E94A0140E94A714A0E8BFE3E8EBF6E3B1
:1006C0000E94A0180E9435180E9498140E94A71436
:1006D000A0E8BFE3ECECF6E30E94A0180E943518F6
:1006E0000E9498140E94A714A0E8BFE3E4EDF6E38B
:1006F0000E94A0180E9435180E9498140E94A71406
:1007000081E08093F40281E0809319010091190146
:10071000043018F011F00C941904E9E1F1E0A19013
:10072000BB24EEEFFFEFAA0CBB1CAA0CBB1CEA0D0E
:10073000FB1DA9E1B1E0AD90BB24ACE4B2E0AA0C92
:10074000BB1CAA0CBB1CAA0DBB1D94E00E949E1AE8
:10075000E9E1F1E0A190BB24EEE0F0E0AA0CBB1CC3
:10076000AA0CBB1CEA0DFB1DA9E1B1E0AD90BB24B6
:10077000ACE5B2E0AA0CBB1CAA0CBB1CAA0DBB1DAD
:1007800094E00E949E1AE0EEF6E30E94A0180E94F8
:10079000A014E9E1F1E0A0E8BFE30E94CF190E94B4
:1007A0009814E4EEF6E30E94A0180E94A014E9E178
:1007B000F1E0A190BB24ECE4F2E0AA0CBB1CAA0C73
:1007C000BB1CEA0DFB1DA0E8BFE30E94C2190E94FA
:1007D0009814E6EEF6E30E94A0180E94A014E9E146
:1007E000F1E0A0E8BFE30E94CF190E949814E4EE64
:1007F000F6E30E94A0180E94A014E9E1F1E0A190A4
:10080000BB24ECE5F2E0AA0CBB1CAA0CBB1CEA0D55
:10081000FB1DA0E8BFE30E94C2190E9498140E9429
:10082000A714A9E1B1E08C918F5F8C9310F40C9424
:1008300086030E947F04ECEEF6E30E94A0180E945B
:10084000A014A0E7B2E00E949A14E4EFF6E30E943D
:10085000A0180E94A0140E94A714E2E2F0E0ADE903
:10086000B2E094E00E949E1AE6EFF6E30E94A01820
:100870000E94A014EDE9F2E0A0E8BFE30E94F617A1
:100880000E949814E6E0F7E30E94A0180E94A014CA
:10089000EDE9F2E0A0E8BFE30E94EE170E94981491
:1008A0000E94A714E0E0F0E0A0E4B2E00E949B1AEE
:1008B000E8E0F7E30E94A0180E94A014E0E4F2E050
:1008C000A0E8BFE30E94CF190E9498140E94A714C9
:1008D000E1E0F0E0A1E4B2E00E949B1AE0E1F7E37E
:1008E0000E94A0180E94A014E1E4F2E0A0E8BFE397
:1008F0000E94CF190E9498140E94A714089580E0C6
:100900008093190180E080931A01A0E7B2E0882764
:100910008C938EE08093190100911901073118F032
:1009200011F00C94A804E09119010E94FE17082F01
:10093000E0E1F0E0A0E7B2E00E9491140E94431AC7
:10094000A9E1B1E08C918F5F8C9310F40C948C042E
:10095000E0E7F2E0A0E3B1E00E946F1AA0E7B2E0A6
:1009600088278C938EE0809319010091190107313B
:1009700018F011F00C94D104E09119010E94FE17B7
:10098000082FE0E1F0E0A0E7B2E00E9491140E949D
:10099000431AA9E1B1E08C918F5F8C9310F40C9411
:1009A000B504E0E3F1E0A0E7B2E00E94BD1A11F067
:1009B0000C94DD0481E080931901AAE1B1E08C91EF
:1009C0008F5F8C9300911901003011F00C94FC049E
:1009D00084EF91E00E941815EAE1F7E30E94A01865
:1009E0000E94A014EAE1F1E0A0E8BFE30E94CF1961
:1009F0000E9498140E94A71400911901013081E00F
:100A000009F080E08F9300911A010A3081E009F02B
:100A100080E09F91892B882311F40C94850408951C
:100A200000E010E020E030E0A1E2B1E00D931D9382
:100A30002D933C9381E080931901009119010430BA
:100A400018F011F00C946605E9E1F1E0A190BB24E7
:100A5000EEEFFFEFAA0CBB1CAA0CBB1CEA0DFB1DA2
:100A60000CE211E020E030E0A0E1BB2794E07BE75E
:100A70000E948D1AE9E1F1E0A190BB24EEE0F0E0E4
:100A8000AA0CBB1CAA0CBB1CEA0DFB1DA1E2B1E029
:100A900094E07BE70E948D1AA1E2B1E00D911D91D7
:100AA0002D913C914CE350E060E070E00E94A2196F
:100AB000A1E2B1E00D931D932D933D93A9E1B1E027
:100AC0008C918F5F8C9310F40C941D050895ABE10D
:100AD000B1E08C918F5F8C93ABE1B1E00C9100FBA6
:100AE00016F40C947B0580E090E1A2EAB2E08D93CD
:100AF0009C930C94810586E490E1A2EAB2E08D9388
:100B00009C9381E080931E0100911E01003318F038
:100B100011F00C949D0580E0AEE1B1E0AD90BB24F6
:100B2000A1E8B8E0AA0DBB1D8C93AEE1B1E08C91B9
:100B30008F5F8C9310F40C94840580E08093A40262
:100B4000A0E4B2E00C9103FB16F00C94C705E0E2C0
:100B5000F7E30E94A0180E94A014E2EAF2E0A0E8E5
:100B6000BFE30E94451A0E9498140E94A71480E1D6
:100B70008A93A2EAB2E08D919C918A939A9383E042
:100B80008A93809141020E941E160E94A7147091C0
:100B900007037061709307032A9A80E18A93A2EA9F
:100BA000B2E08D919C918A939A9383E08A9380918D
:100BB00041020E942016EF93FF93ECE6F7E10E94BA
:100BC0000F15FF91EF912A98709147027062709310
:100BD00047020895A0E4B2E00C9103FB16F00C94D8
:100BE0002B06E4E2F7E30E94A0180E94A014E4EAB6
:100BF000F2E0A0E8BFE30E94CF190E9498140E947F
:100C0000A71481E080931E014091A40200911E016F
:100C1000041718F011F00C942906EEE1F1E0A19010
:100C2000BB24E1E8F8E0EA0DFB1DA0E8BFE30E9469
:100C3000431A0E949814E6E0F7E30E94A0180E946D
:100C4000A014AEE1B1E08C918F5F8C9310F40C9402
:100C500004060E94A7140091A40242E0041BA5EA26
:100C6000B2E00C930091A50241E0040FA6EAB2E0C5
:100C70000C930091A60241E0040FA7EAB2E00C93A6
:100C800081E08A9381E08A93A5EAB2E0EC91FF27A4
:100C90004FEF5FEF25E030E8A2E8B8E00E94CF1AFE
:100CA000A8EAB2E04D935C93A7EAB2E0AD90BB2412
:100CB000A1E8B8E0AA0DBB1D9C91A6EAB2E0AD90F8
:100CC000BB24A1E8B8E0AA0DBB1D8C91AFE1B1E057
:100CD0008D939C93AFE1B1E04D915C91A8EAB2E0B5
:100CE0000D911C910417150711F00C949C07A7E4B3
:100CF000B2E08C9185FB16F00C943407A2EAB2E0C6
:100D00000D911C91003050E1150711F00C9408076B
:100D10008091850880934F028091860880934E02CF
:100D20008091870880934D028091880880934C02BF
:100D3000ECE2F7E30E94A0180E94A014ECE4F2E0B9
:100D4000A0E8BFE30E94C5190E9498140E94A7144E
:100D50008091890880934F0280918A0880934E0287
:100D600080918B0880934D0280918C0880934C0277
:100D7000E2E3F7E30E94A0180E94A014ECE4F2E082
:100D8000A0E8BFE30E94C5190E9498140E94A7140E
:100D900080918D0880934F0280918E0880934E023F
:100DA00080918F0880934D028091900880934C022F
:100DB000E8E3F7E30E94A0180E94A014ECE4F2E03C
:100DC000A0E8BFE30E94C5190E9498140E94A714CE
:100DD0008091910880934F028091920880934E02F7
:100DE0008091930880934D028091940880934C02E7
:100DF000EEE3F7E30E94A0180E94A014ECE4F2E0F6
:100E0000A0E8BFE30E94C5190E9498140E94A7148D
:100E1000A2EAB2E00D911C91063450E1150711F0E1
:100E20000C9432078091850880934F028091860848
:100E300080934E028091870880934D0280918808AC
:100E400080934C02E4E4F7E30E94A0180E94A014EF
:100E5000ECE4F2E0A0E8BFE30E94C5190E949814F8
:100E60000E94A7140C949A070091A402073011F075
:100E70000C946E079091850880918608AAEAB2E0EA
:100E80008D939C93EAE4F7E30E94A0180E94A014BB
:100E9000EAEAF2E0A0E8BFE30E94BF190E949814BA
:100EA000E8E5F7E30E94A0180E94A014EAEAF2E045
:100EB000A0E8BFE30E94451A0E949814E0E6F7E319
:100EC0000E94A0180E94A014EAEAF2E0A0E8BFE3A2
:100ED0000E94BF190E9498140E94A7140091A402B6
:100EE000083011F00C949A07909186088091870839
:100EF000AAEAB2E08D939C93EAE4F7E30E94A0187B
:100F00000E94A014EAEAF2E0A0E8BFE30E94BF1941
:100F10000E949814E8E5F7E30E94A0180E94A0142C
:100F2000EAEAF2E0A0E8BFE30E94451A0E949814A2
:100F30000E94A7140C94B307A0E4B2E00C9103FB49
:100F400016F00C94B307E8E6F7E30E94A0180E949D
:100F5000A014E2EAF2E0A0E8BFE30E94451A0E9472
:100F600098140E94A714089580E08093460270911F
:100F700047027F7770934702A6E4B2E08C918F5FBF
:100F80008C93EAE7F7E30E94A0180E94A014E6E41D
:100F9000F2E0A0E8BFE30E94CF190E9498140E94DB
:100FA000A71484E690E0A9EFB2E08D939C9380E0D3
:100FB00090E0A7EFB2E08D939C937091470272602E
:100FC00070934702709147027B7F70934702A7E0BE
:100FD000B3E08C9185FB16F00C9401087091070327
:100FE0007F7D70930703E6E8F7E30E94A0180E9454
:100FF000A014A4EFB7E00E949A140E94A7140E94C4
:10100000C70BA7E0B3E08C9187FB16F00C941B088C
:10101000709107037F7770930703EEE8F7E30E9470
:10102000A0180E94A014ADE9B6E00E949A140E9494
:10103000A7140E94510CA7E4B2E08C9187FB81E0D9
:101040000EF080E08F93A7E4B2E08C9182FB81E008
:101050000EF080E09F91892B882311F40C94E70710
:10106000709147027D7F70934702A7E4B2E08C91B4
:1010700087FB16F40C944808E4E9F7E30E94A018F3
:101080000E94A014A0E3B1E00E949A140E94A71449
:10109000A7E4B2E08C9187FB81E00EF080E08F93B3
:1010A00000914602033081E009F080E09F91892B96
:1010B000882311F40C94BC07709147027D7F7093D4
:1010C0004702709147027F77709347020895E6E9DF
:1010D000F7E30E94A0180E94A0140E947B16AFE0C4
:1010E000B1E00E949A14E6E0F7E30E94A0180E9483
:1010F000A0140E947B16A6E0B1E00E949A140E9400
:10110000A7140E947B16E6E0F1E0A7E8B2E00E9497
:101110006F1A0E947B16EFE0F1E0A2E9B2E00E94B4
:101120006F1AA0E3B1E0E0EAF7E30E94A0180E9482
:101130003518E7E8F2E0A0E3B1E00E9491140E94C4
:101140006F1AA0E3B1E00E949114E6E0F7E30E9479
:10115000A0180E943518E2E9F2E0A0E3B1E00E9495
:1011600091140E946F1AA0E3B1E00E949114E6E08E
:10117000F7E30E94A0180E943518E0E7F2E0A0E330
:10118000B1E00E9491140E946F1AA0E3B1E00E94A6
:101190009114E4EAF7E30E94A0180E943518A0E336
:1011A000B1E00E949114E6E0F7E30E94A0180E94CB
:1011B0003518A0E8BFE3AF93BF93EEEAF2E00E94D8
:1011C0003A1B0E94271511E002E0BF91AF910E94E7
:1011D0005A19E0E8FFE3A0E3B1E00E9491140E94F5
:1011E0006F1AA0E3B1E00E949114E6E0F7E30E94D9
:1011F000A0180E943518A0E8BFE3AF93BF93E2EBBD
:10120000F2E00E943A1B0E94271511E002E0BF9114
:10121000AF910E945A19E0E8FFE3A0E3B1E00E9419
:1012200091140E946F1AA0E3B1E00E949114E6E0CD
:10123000F7E30E94A0180E943518A0E8BFE3AF931F
:10124000BF93E6EBF2E00E943A1B0E94271511E0E3
:1012500002E0BF91AF910E945A19E0E8FFE3A0E3DA
:10126000B1E00E9491140E946F1AA0E3B1E00E94C5
:101270009114E6E0F7E30E94A0180E943518A0E858
:10128000BFE3AF93BF93EAEBF2E00E943A1B0E94E8
:10129000271511E002E0BF91AF910E945A19E0E8D2
:1012A000FFE3A0E3B1E00E9491140E946F1AA0E353
:1012B000B1E00E949114E6E0F7E30E94A0180E94BA
:1012C0003518A0E8BFE3AF93BF93EEEBF2E00E94C6
:1012D0003A1B0E94271511E002E0BF91AF910E94D6
:1012E0005A19E0E8FFE3A0E3B1E00E9491140E94E4
:1012F0006F1AA0E3B1E00E949114E6E0F7E30E94C8
:10130000A0180E943518A0E8BFE3AF93BF93E2ECAA
:10131000F2E00E943A1B0E94271511E002E0BF9103
:10132000AF910E945A19E0E8FFE3A0E3B1E00E9408
:1013300091140E946F1AA0E3B1E00E949114E6E0BC
:10134000F7E30E94A0180E943518A0E8BFE3AF930E
:10135000BF93E6ECF2E00E943A1B0E94271511E0D1
:1013600002E0BF91AF910E945A19E0E8FFE3A0E3C9
:10137000B1E00E9491140E946F1AA0E3B1E00E94B4
:101380009114E6E0F7E30E94A0180E943518A0E847
:10139000BFE3AF93BF93EAECF2E00E943A1B0E94D6
:1013A000271511E002E0BF91AF910E945A19E0E8C1
:1013B000FFE3A0E3B1E00E9491140E946F1AA0E342
:1013C000B1E00E94B51AAFE1B1E08D9388278C930C
:1013D000AFE1B1E0ED91FC91A0E3B1E00E94F31A1E
:1013E000A2E4B2E00D931D932D933D93A0E3B1E0F1
:1013F0000E949114E8EAF7E30E94A0180E943518B1
:10140000E2E4F2E0A0E3B1E00E9491140E94471AE6
:10141000E4E9F7E30E94A0180E94A014A0E3B1E061
:101420000E949A140E94A7140E94B4070895EAEA41
:10143000F7E30E94A0180E94A0140E947B16AFE060
:10144000B1E00E949A14E6E0F7E30E94A0180E941F
:10145000A0140E947B16A6E0B1E00E949A140E949C
:10146000A7140E947B16E6E0F1E0A7E8B2E00E9434
:101470006F1A0E947B16EFE0F1E0A2E9B2E00E9451
:101480006F1AA0E3B1E0E0EAF7E30E94A0180E941F
:101490003518E7E8F2E0A0E3B1E00E9491140E9461
:1014A0006F1AA0E3B1E00E949114E6E0F7E30E9416
:1014B000A0180E943518E2E9F2E0A0E3B1E00E9432
:1014C00091140E946F1AA0E3B1E00E949114E6E02B
:1014D000F7E30E94A0180E943518E0E7F2E0A0E3CD
:1014E000B1E00E9491140E946F1AA0E3B1E00E9443
:1014F0009114E4EBF7E30E94A0180E943518A0E3D2
:10150000B1E00E949114E6E0F7E30E94A0180E9467
:101510003518A0E8BFE3AF93BF93EEECF2E00E9472
:101520003A1B0E94271511E002E0BF91AF910E9483
:101530005A19E0E8FFE3A0E3B1E00E9491140E9491
:101540006F1AA0E3B1E00E949114E6E0F7E30E9475
:10155000A0180E943518A0E8BFE3AF93BF93E2ED57
:10156000F2E00E943A1B0E94271511E002E0BF91B1
:10157000AF910E945A19E0E8FFE3A0E3B1E00E94B6
:1015800091140E946F1AA0E3B1E00E949114E6E06A
:10159000F7E30E94A0180E943518A0E8BFE3AF93BC
:1015A000BF93E6EDF2E00E943A1B0E94271511E07E
:1015B00002E0BF91AF910E945A19E0E8FFE3A0E377
:1015C000B1E00E9491140E946F1AA0E3B1E00E9462
:1015D0009114E6E0F7E30E94A0180E943518A0E8F5
:1015E000BFE3AF93BF93EAEDF2E00E943A1B0E9483
:1015F000271511E002E0BF91AF910E945A19E0E86F
:10160000FFE3A0E3B1E00E9491140E946F1AA0E3EF
:10161000B1E00E949114E6E0F7E30E94A0180E9456
:101620003518A0E8BFE3AF93BF93EEEDF2E00E9460
:101630003A1B0E94271511E002E0BF91AF910E9472
:101640005A19E0E8FFE3A0E3B1E00E9491140E9480
:101650006F1AA0E3B1E00E949114E6E0F7E30E9464
:10166000A0180E943518A0E8BFE3AF93BF93E2EE45
:10167000F2E00E943A1B0E94271511E002E0BF91A0
:10168000AF910E945A19E0E8FFE3A0E3B1E00E94A5
:1016900091140E946F1AA0E3B1E00E949114E6E059
:1016A000F7E30E94A0180E943518A0E8BFE3AF93AB
:1016B000BF93E6EEF2E00E943A1B0E94271511E06C
:1016C00002E0BF91AF910E945A19E0E8FFE3A0E366
:1016D000B1E00E9491140E946F1AA0E3B1E00E9451
:1016E0009114E6E0F7E30E94A0180E943518A0E8E4
:1016F000BFE3AF93BF93EAEEF2E00E943A1B0E9471
:10170000271511E002E0BF91AF910E945A19E0E85D
:10171000FFE3A0E3B1E00E9491140E946F1AA0E3DE
:10172000B1E00E94B51AAFE1B1E08D9388278C93A8
:10173000AFE1B1E0ED91FC91A0E3B1E00E94F31ABA
:10174000A2E4B2E00D931D932D933D93A0E3B1E08D
:101750000E949114E8EAF7E30E94A0180E9435184D
:10176000E2E4F2E0A0E3B1E00E9491140E94471A83
:10177000E4E9F7E30E94A0180E94A014A0E3B1E0FE
:101780000E949A140E94A7140E94B4070895E4EFDF
:10179000F7E09BE304E132E2A9E0B3E00E94131B0F
:1017A000A8E0B3E02C9300910803003018F011F08A
:1017B0000C94DC0B0C94E40BE9E0F3E0A9E2B1E05B
:1017C0000E946F1A0C94EA0BE4EFF7E0A9E2B1E093
:1017D0000E946F1AA9E2B1E0E8EBF7E30E94A018BB
:1017E0000E94BB1A11F00C94FC0B709147027068B8
:1017F000709347020C94500CECEBF7E30E94A01896
:101800000E94BB1A11F00C940C0C709147027F7768
:10181000709347020C94500CE0ECF7E30E94A01880
:101820000E94BB1A11F00C942A0C70910703706887
:1018300070930703EEE1F3E0ADE9B6E00E946F1AA2
:10184000E8ECF7E30E94A0180E94A0140E94A714DD
:101850000C94500CE4EDF7E30E94A0180E94BB1A10
:1018600011F00C94480C7091070370687093070393
:10187000EEE1F3E0ADE9B6E00E946F1AE8ECF7E3C1
:101880000E94A0180E94A0140E94A7140C94500C4F
:10189000ECEDF7E30E94A0180E94A0140E94A71488
:1018A000089581E0EDE9F6E006E00A93ABE0B2E0EE
:1018B0000E94741AEDE9F6E09CE204E132E2A9E04C
:1018C000B3E00E94131BA8E0B3E02C93A9E0B3E0BF
:1018D0000E94B51A082F063011F00C940412E9E0AA
:1018E000F3E0A9E2B1E00E946F1AE9E2F1E0A9E2B7
:1018F000B1E00E9479188FEF8093F901A9E2B1E07D
:10190000E8EEF7E30E94A0180E94BB1A11F00C94B5
:10191000CA0C80E08093F901A0E3B1E0E0EFF7E3C7
:101920000E94A0180E943518ABE0B2E0E8EBF6E3A5
:101930000E94A0180E943518EBE0F2E0A0E3B1E0AD
:101940000E9491140E946F1AA0E3B1E00E949114CA
:10195000E4E0F8E30E94A0180E943518ABE0B2E082
:10196000E4EDF6E30E94A0180E943518EBE0F2E0E7
:10197000A0E3B1E00E9491140E946F1AA0E3B1E0CD
:101980000E949114E4EFF6E30E94A0180E9435181B
:101990000C940212E2E1F8E30E94A0180E94BB1A24
:1019A00011F00C94090D00910803023011F00C9411
:1019B000040DAEE1B3E00E94141AA9E1B1E00C936A
:1019C00000911901013110F00C94FF0C80E080931C
:1019D000F901A0E3B1E0EAE1F8E30E94A0180E9457
:1019E0003518E9E1F1E0A0E3B1E00E9491140E9412
:1019F000CF19809119018093F4020C94020D85E0B7
:101A00008093F9010C94070D84E08093F9010C9404
:101A10000212E2E3F8E30E94A0180E94BB1A11F040
:101A20000C94210D80E08093F901A0E3B1E0EAE39A
:101A3000F8E30E94A0180E9435180E9410050C942B
:101A40000212EEE4F8E30E94A0180E94BB1A11F003
:101A50000C942D0E00910803023011F00C94280E06
:101A6000AEE1B3E00E94B51A082F0C3011F00C94CF
:101A7000230E80E08093F90187E0EEE1F3E002E0DD
:101A80000A93ABE0B2E00E94741AABE0B2E00E94AD
:101A90009114E6E5F8E30E94A0180E94351889E049
:101AA000EEE1F3E002E00A93ABE0B2E00E949114B1
:101AB0000E94741AABE0B2E00E949114E6E5F8E3EC
:101AC0000E94A0180E9435188BE0EEE1F3E002E0DE
:101AD0000A93ABE0B2E00E9491140E94741AABE04A
:101AE000B2E00E949A140E94A714EBE0F2E0AFE08B
:101AF000B1E00E946F1A0E948A16E8E5F8E30E949E
:101B0000A0180E94A0140E947B16AFE0B1E00E94D2
:101B10009A140E94A71481E0EEE1F3E002E00A9338
:101B2000ABE0B2E00E94741AABE0B2E00E94911404
:101B3000ECE5F8E30E94A0180E94351883E0EEE17E
:101B4000F3E002E00A93ABE0B2E00E9491140E943D
:101B5000741AABE0B2E00E949114ECE5F8E30E9445
:101B6000A0180E94351885E0EEE1F3E002E00A9348
:101B7000ABE0B2E00E9491140E94741AABE0B2E0B4
:101B80000E949A140E94A714EBE0F2E0A6E0B1E0F4
:101B90000E946F1A0E948416EEE5F8E30E94A018D6
:101BA0000E94A0140E947B16A6E0B1E00E949A1445
:101BB0000E94A714A0E3B1E0E2E6F8E30E94A018B7
:101BC0000E9435180E947B16E6E0F1E0A0E3B1E048
:101BD0000E9491140E946F1AA0E3B1E00E94911438
:101BE000ECE8F8E30E94A0180E9435180E947B16CA
:101BF000EFE0F1E0A0E3B1E00E9491140E946F1ABF
:101C0000E3E0F1E00E94D816A1EAB2E08C93E0E0B4
:101C1000F1E00E94B517ADE9B2E00D931D932D934D
:101C20003D93E2E2F0E0ADE9B2E094E07BE70E94B0
:101C30008D1A7091470270647093470281E080931F
:101C4000F4020C94260E86E08093F9010C942B0E7E
:101C500084E08093F9010C940212E0E9F8E30E9419
:101C6000A0180E94BB1A11F00C946D0E80E08093B6
:101C7000F9010E947B16EFE0F1E0ABE0B2E00E94D8
:101C80006F1AA0E3B1E0E8E9F8E30E94A0180E940F
:101C90003518EBE0F2E0A0E3B1E00E9491140E945D
:101CA0006F1AA0E3B1E00E949114E6EAF8E30E9403
:101CB000A0180E9435180E947B16E6E0F1E0ABE028
:101CC000B2E00E946F1AEBE0F2E0A0E3B1E00E9404
:101CD00091140E946F1A0C940212E6EBF8E30E9432
:101CE000A0180E94BB1A11F00C94A90E80E08093FA
:101CF000F901EDE9F2E0ABE0B2E00E94EE17A0E3FB
:101D0000B1E0EEEBF8E30E94A0180E943518EBE07A
:101D1000F2E0A0E3B1E00E9491140E946F1AA0E3E8
:101D2000B1E00E949114E2EDF8E30E94A0180E9435
:101D30003518EDE9F2E0ABE0B2E00E94F617EBE017
:101D4000F2E0A0E3B1E00E9491140E946F1A0C949B
:101D50000212EAEDF8E30E94A0180E94BB1A11F0EB
:101D60000C94400F00910803033011F00C943B0FCA
:101D7000AEE1B3E00E94141AAEE1B1E00C93009121
:101D80001E01003080E010F009F081E08F93009197
:101D90001E01053081E008F080E09F9189238823AF
:101DA00011F40C94360FA3E3B3E00E94141AA5E2D9
:101DB000B1E00D931D932D933D93A5E2B1E00D91FC
:101DC0001D912D913C91AEE1B1E0AD90BB24ACE40E
:101DD000B2E0AA0CBB1CAA0CBB1CAA0DBB1D0D9328
:101DE0001D932D933C93EEE1F1E0A190BB24EEEF27
:101DF000FFEFAA0CBB1CAA0CBB1CEA0DFB1DA5E245
:101E0000B1E094E07BE70E948D1A80E08093F901B5
:101E1000A0E3B1E0E2EEF8E30E94A0180E943518BA
:101E2000EEE1F1E0A0E3B1E00E9491140E94CF192D
:101E3000A0E3B1E00E949114E6E5F8E30E94A01847
:101E40000E943518EEE1F1E0A190BB24ECE4F2E051
:101E5000AA0CBB1CAA0CBB1CEA0DFB1DA0E3B1E045
:101E60000E9491140E94C2190C94390F83E0809350
:101E7000F9010C943E0F84E08093F9010C94021256
:101E8000E8EFF8E30E94A0180E94BB1A11F00C942E
:101E9000D70F00910803033011F00C94D20FAEE17C
:101EA000B3E00E94141AAEE1B1E00C9300911E0160
:101EB000003080E010F009F081E08F9300911E0166
:101EC000053081E008F080E09F918923882311F498
:101ED0000C94CD0FA3E3B3E00E94141AA5E2B1E085
:101EE0000D931D932D933D93A5E2B1E00D911D91AE
:101EF0002D913C91AEE1B1E0AD90BB24ACE5B2E0F8
:101F0000AA0CBB1CAA0CBB1CAA0DBB1D0D931D93D8
:101F10002D933C93EEE1F1E0A190BB24EEE0F0E0E4
:101F2000AA0CBB1CAA0CBB1CEA0DFB1DA5E2B1E070
:101F300094E07BE70E948D1A80E08093F901A0E392
:101F4000B1E0E2EEF8E30E94A0180E943518EEE13D
:101F5000F1E0A0E3B1E00E9491140E94CF19A0E348
:101F6000B1E00E949114E6E5F8E30E94A0180E94F7
:101F70003518EEE1F1E0A190BB24ECE5F2E0AA0C0B
:101F8000BB1CAA0CBB1CEA0DFB1DA0E3B1E00E9428
:101F900091140E94C2190C94D00F83E08093F90130
:101FA0000C94D50F84E08093F9010C940212E0E0C8
:101FB000F9E30E94A0180E94BB1A11F00C943C1087
:101FC00000910803023011F00C943710AEE1B3E039
:101FD0000E94141AAEE1B1E00C9300911E01003092
:101FE00080E010F009F081E08F9300911E01053030
:101FF00081E008F080E09F918923882311F40C94FC
:102000003210A0E3B1E0E8E0F9E30E94A0180E94DA
:102010003518EEE1F1E0A0E3B1E00E9491140E94D6
:10202000CF19A0E3B1E00E949114E6E5F8E30E9425
:10203000A0180E943518EEE1F1E0A190BB24ECE479
:10204000F2E0AA0CBB1CAA0CBB1CEA0DFB1DA0E312
:10205000B1E00E9491140E94C21980E08093F901BE
:102060000C94351083E08093F9010C943A1084E0CD
:102070008093F9010C940212E0E1F9E30E94A018A8
:102080000E94BB1A11F00C94A110009108030230B9
:1020900011F00C949C10AEE1B3E00E94141AAEE172
:1020A000B1E00C9300911E01003080E010F009F0C7
:1020B00081E08F9300911E01053081E008F080E0FF
:1020C0009F918923882311F40C949710A0E3B1E029
:1020D000E8E1F9E30E94A0180E943518EEE1F1E072
:1020E000A0E3B1E00E9491140E94CF19A0E3B1E0F7
:1020F0000E949114E6E5F8E30E94A0180E943518AA
:10210000EEE1F1E0A190BB24ECE5F2E0AA0CBB1CEF
:10211000AA0CBB1CEA0DFB1DA0E3B1E00E949114C8
:102120000E94C21980E08093F9010C949A1083E018
:102130008093F9010C949F1084E08093F9010C9432
:102140000212E4E2F9E30E94A0180E94BB1A11F007
:102150000C940E1100910803023011F00C94091137
:10216000AEE1B3E00E94141AAEE1B1E00C9300912D
:102170001E01003080E010F009F081E08F930091A3
:102180001E01053081E008F080E09F9189238823BB
:1021900011F40C94041180E08093F90100911E0168
:1021A00041E0041BA9E1B1E00C9380911901A5E085
:1021B000B3E00E948F180E9485189C91982B9C93E5
:1021C000A0E3B1E0ECE2F9E30E94A0180E94351808
:1021D000EEE1F1E0A0E3B1E00E9491140E94CF197A
:1021E000A0E3B1E00E949114E6E0F7E30E94A0189A
:1021F0000E943518A0E3B1E00E949114E5E0F3E0FD
:102200000E945C1A0C94071183E08093F9010C94EE
:102210000C1184E08093F9010C940212E0E4F9E3DC
:102220000E94A0180E94BB1A11F00C944511009155
:102230000803023011F00C94401180E08093F90102
:10224000AEE1B3E00E94141AA0E4B2E00C93E0E027
:10225000F0E0A0E4B2E07BE70E948A1AA0E3B1E0DC
:10226000E8E4F9E30E94A0180E943518E0E4F2E0E7
:10227000A0E3B1E00E9491140E94CF190C94431185
:1022800084E08093F9010C940212EEE5F9E30E94D8
:10229000A0180E94BB1A11F00C94631180E0809387
:1022A000F901A0E3B1E0E8E0F7E30E94A0180E9482
:1022B0003518E0E4F2E0A0E3B1E00E9491140E943E
:1022C000CF190C940212E6E6F9E30E94A0180E94CE
:1022D000BB1A11F00C948D1180E08093F9010E94DB
:1022E0007F04A0E3B1E0EEE6F9E30E94A0180E94AB
:1022F0003518E0E7F2E0A0E3B1E00E9491140E94FB
:102300006F1AA0E3B1E00E949114E4EFF6E30E949B
:10231000A0180E9435180C940212E8E7F9E30E9415
:10232000A0180E94BB1A11F00C94E111009108034F
:10233000023011F00C94DC1180E08093F901AEE1E1
:10234000B3E00E94141AA9E1B1E00C9300911901C5
:10235000003080E010F009F081E08F9300911901C6
:102360000F3F81E008F080E09F918923882311F4DA
:102370000C94D7118091190180934102E1E0F0E0C3
:10238000A1E4B2E07BE70E948A1AA0E3B1E0E0E8B2
:10239000F9E30E94A0180E943518E1E4F2E0A0E3FE
:1023A000B1E00E9491140E94CF190C94DA1185E0DB
:1023B0008093F9010C94DF1184E08093F9010C946F
:1023C0000212E8E9F9E30E94A0180E94BB1A11F07A
:1023D0000C94FF1180E08093F901A0E3B1E0E0EA02
:1023E000F9E30E94A0180E943518E1E4F2E0A0E3AE
:1023F000B1E00E9491140E94CF190C94021281E066
:102400008093F9010C947D12E9E0F3E0A9E2B1E0D8
:102410000E946F1AE9E2F1E0A9E2B1E00E947918A6
:10242000A9E2B1E0E8EBF7E30E94A0180E94BB1A12
:1024300011F00C9425127091470270687093470256
:1024400080E08093F9010C947D12ECEBF7E30E949D
:10245000A0180E94BB1A11F00C9438127091470218
:102460007F777093470280E08093F9010C947D128E
:10247000E0ECF7E30E94A0180E94BB1A11F00C9444
:10248000591270910703706870930703EEE1F3E04F
:10249000ADE9B6E00E946F1AE8ECF7E30E94A018DD
:1024A0000E94A0140E94A71480E08093F9010C946C
:1024B0007D12E4EDF7E30E94A0180E94BB1A11F010
:1024C0000C947A1270910703706870930703EEE121
:1024D000F3E0ADE9B6E00E946F1AE8ECF7E30E9482
:1024E000A0180E94A0140E94A71480E08093F90114
:1024F0000C947D1282E08093F9010091F901003083
:1025000018F011F00C9486120C949412E6E3F5E2A4
:102510000E94A018A9EFB1E08C9199270E94711830
:10252000A0E3B1E00E943518A0E3B1E00E949A1444
:102530000E94A71408954F4B00436F6D616E646F46
:10254000206E6F207265636F6E6F6369646F004CFD
:102550006F6E676974756420636F6D616E646F2060
:102560006E6F2076616C696461004E756D65726F87
:1025700020646520706172616D6574726F206E6F8A
:102580002076616C69646F004E756D65726F2064B2
:102590006520706172616D6574726F7320696E760B
:1025A000616C69646F004572726F72206C6F6E6748
:1025B0006974756420706172616D6574726F203129
:1025C000004572726F72206C6F6E6769747564205B
:1025D000706172616D6574726F203200506172615A
:1025E0006D6574726F206E6F2076616C69646F0028
:1025F0004552524F5238004552524F522053442EAA
:1026000020496E74656E7465206465206E7565760C
:102610006F000000000003000000330000003303DF
:102620000000333300003333030033C00C00FF0FCE
:10263000FF0F5555555533333333777777770C0084
:10264000FCFFCC00FCFFCC0CFCFFCCCCFCFF0C0056
:10265000FCFFF0FFFFFF0E945303EAEAF9E30E9448
:10266000A0180E94A0140E94A71482E08093F40294
:10267000A7E0B3E08C9187FB16F00C945213709195
:1026800007037F7770930703EEE8F7E30E94A01833
:102690000E94A014ADE9B6E00E949A140E94A7140B
:1026A0000E94510C00910603013011F00C94AC1300
:1026B000709106037E7F70930603A6EFB2E08C91C3
:1026C0008F5F8C93A6EFB2E00C9145E00E94A51AB3
:1026D0008C930091F602003011F00C94AC13A0E33F
:1026E000B1E0E0ECF9E30E94A0180E943518A0E3E5
:1026F000B1E00E94B51AAFE1B1E08D9388278C93C9
:10270000AFE1B1E0ED91FC91A0E3B1E00E94F31ADA
:10271000A2E4B2E00D931D932D933D93A0E3B1E0AD
:102720000E949114E8EAF7E30E94A0180E9435186D
:10273000E2E4F2E0A0E3B1E00E9491140E94471AA3
:10274000E4E9F7E30E94A0180E94A014A0E3B1E01E
:102750000E949A140E94A714A7E4B2E08C9186FB11
:1027600016F00C94381381E08093F402A7E0B3E0F4
:102770008C9187FB16F00C94D013709107037F7730
:1027800070930703EEE8F7E30E94A0180E94A014DC
:10279000ADE9B6E00E949A140E94A7140E94510C61
:1027A00081E080931C0100911C01043018F011F0AD
:1027B0000C943A1400911C0141E0041BADE1B1E01E
:1027C0000C9380911D01A5E0B3E00E948F180E9438
:1027D00085180C900822689409F4E89416F00C947B
:1027E000321480911D01A5E0B3E00E948F180E9471
:1027F00085188C9189238C9300911C01013011F074
:102800000C940E14E8ECF9E30E94A0180E94A014A6
:102810000E94A7140E9467080C943214023011F031
:102820000C941E14EEECF9E30E94A0180E94A01470
:102830000E94A7140E94170A0C943214033011F05E
:102840000C942C14E4EDF9E30E94A0180E94A0144B
:102850000E94A7140C943214043011F00C9432141A
:102860000E946705ACE1B1E08C918F5F8C9310F40E
:102870000C94D313A7E4B2E08C9184FB16F00C9473
:102880004814709147027F7E709347020E94EA05C8
:102890000C94B613ED91FC91EF5FFF4FFC93EE9318
:1028A000089509D00E94081800FC10D0089503D0A4
:1028B0001ED001F8F9CF0024E89457FF02C009D0D8
:1028C000689400F80BD010F80124089502D009D0C4
:1028D0000895509540954F5F5F4F0895E89417FF16
:1028E0000895009510950F5F1F4F68940895352F38
:1028F000242FE894452B11F468940895512F402F0C
:102900000027112780E1440F551F001F111F021BD4
:10291000130B416018F4020F131F4E7F8A9599F72D
:1029200008958F938D918823E9F711978F910895DA
:10293000A0E8BFE38D91882311F00CD0FBCF089560
:102940000E943B18802D11F005D0FACF08958DE03C
:1029500001D08AE00090C00005FEFCCF8093C60045
:1029600008950090C80005FEFCCF8093CE00089526
:1029700000FC05D0089530D005D001F8F9CF37D04C
:102980003FD00895842F952FA62FB72FE894452B7D
:10299000462B472B11F468940895402F512F622F36
:1029A000732F0027112722273327F0E2440F551FEA
:1029B000661F771F001F111F221F331F081B190BD3
:1029C0002A0B3B0B416028F4080F191F2A1F3B1FDD
:1029D0004E7FFA9559F708950024E89477FF02C0D6
:1029E00006D0689400F809D010F80124089512D098
:1029F0004F5F5F4F6F4F7F4F0895E89437FF089503
:102A000000951095209530950F5F1F4F2F4F3F4F2A
:102A10006894089540955095609570950895319704
:102A2000F1F70895689462F80895E89462F80895BB
:102A3000EF93FF93EE27E82BE92B31F0E0EAFFE07C
:102A40003197F1F70197D1F7FF91EF9108958DE25A
:102A500007FD8D938F2D881F802F881F8F57082F7C
:102A60006894F7F8802F87FF17C080958395082F0B
:102A700080E38D938EE28D93802F815238F080E336
:102A80008D9399279C930E949518089544270A9541
:102A9000802F09F19ED01FC0805230F09EE49D939C
:102AA00081E48D939D93EDCF4427DF92EF92FF92C7
:102AB0000F938FE1801B11F0082F8BD091D09EE2F5
:102AC0009D930F91FF90EF90DF9044270395003284
:102AD00009F4D5CF33D03F93E2E7FBE20E94A01880
:102AE00038E12F2D1E2D0D2DFF24EE24DD2444274B
:102AF000000F111F221FB8F42F923F920E943B1823
:102B0000102C0E943B18202C0E943B18302C0E9455
:102B10003B1831970E946A18410DD21CE31CF01C2F
:102B20003F902F9003C033960E94631831960E9405
:102B300063183A95E9F63F9107D0A5CFDD0CEE1C5E
:102B4000FF1C0A95D9F70895002719E058D08F93F4
:102B5000802B11F0039501C08F911A95B9F7802F42
:102B6000882309F48CCF8F91805D8D930A95D9F7D6
:102B700088CF0065CD1D80B2E60E40597307A0AC2A
:102B8000B90350D6DC01286BEE0094357700CA9A61
:102B90003B0065CD1D00B2E60E0059730700ACB9CD
:102BA0000300D6DC01006BEE0000357700009A3B95
:102BB0000000CD1D0000E60E000073070000B90301
:102BC0000000DC010000EE000000770000003B0088
:102BD0000000F694E794D79447950A95D1F70895A5
:102BE00000270DD08F9303958F2D8E298D29842B4F
:102BF000C1F78F91805D8D930A95D9F742CF1F93CE
:102C00000F93002710E2440FDD1CEE1CFF1C001F79
:102C1000802F9AE0890B10F0082F43951A9599F7A9
:102C2000802F0F911F910895082748E0169507956A
:102C300010F4122701254A95C9F7089531E005C01F
:102C400032E003C033E001C034E00FEF1FEF20EAB1
:102C500091E0192EE9DF46D08991682FE5DF42D057
:102C60008991E2DF3FD08991DFDF3CD0599161301B
:102C700078F0653068F48827D7DF34D0852F8695C3
:102C800009F481E0D1DF2ED0802F2CD0812F2AC0F3
:102C9000663041F49D918C91C7DF24D0892FC4DF29
:102CA00021D0F2CF6031E9F48827BEDF1BD0852F19
:102CB000869509F481E0682FB7DF14D0862F880F3E
:102CC000B3DF10D0513019F488279D9102C09D9137
:102CD0008D91AADF07D0892FA7DF04D06A95B9F7B5
:102CE000D3CF0895313011F40C94AA14323011F47A
:102CF0000C94B1140895A6E0B1E0E3E0F1E00E9485
:102D0000C81633970C94A416E6E0F1E0A3E0B1E016
:102D10000C94B616EFE0F1E0A0E0B1E00C9492164E
:102D2000ADE0BB27868197810E94B1180D93838106
:102D300094810E94B1180D93808191810E94B118F5
:102D40000D930895EDE0FF2782810E94A6188AE383
:102D50008D9381810E94A6188AE38D9380810E94C1
:102D6000A61888278C930895ADE0BB2780819181B8
:102D70000E94B1180D93838194810E94B1180D9324
:102D8000868197810E94B1180D930895EDE0FF2789
:102D900080810E94A6188FE28D9381810E94A618DF
:102DA0008FE28D9382810E94A61888278D930895C3
:102DB00021D00F2D069506950F0D0D0D8F2D8370CB
:102DC00021F41E2D13300AF40A958E2D8A95992729
:102DD000E8EEFDE20E94A018A8E1BB270E94571868
:102DE000080F47E00C94A51A05010104060204002F
:102DF0000305010393E0ADE002C096E0AAE0B0E075
:102E00008FB7F89401910D939A95E1F78FBF0895CC
:102E10000191119145EB55E00E945714440F440F66
:102E2000F42E0F31150728F481E0E82E0395D02EFB
:102E300024C00C33150728F482E0E82E0E51D02E62
:102E40001CC00150150B4DE651E00E947714F40EA2
:102E50007CE07A95872F9927ECE7FEE20E94A01884
:102E6000A2E1BB270E9451180217130790F3739534
:102E7000E72E021B130B0395D02E089500001F00B0
:102E80003B005A0078009700B500D400F300110110
:102E900030014E01019111912191308140E851E5BD
:102EA00061E070E00E94BB14042F152F0C940A17E8
:102EB000A1DF0E2D0A95802F0295003220F01F2DE4
:102EC000137009F40395DA940D0D11279927E4EE98
:102ED000FEE20E94A018A8E1BB270E945718080F25
:102EE000111F0895000F1B2A384755647381909E67
:102EF00081DF0F2D11274CE355270E9451145527D0
:102F00000E0D151F4CE322273327662777270E94D3
:102F100012180D0D131F231F08956CDFDF92EF921F
:102F2000FF920F2D1127222733274DE651E060E055
:102F300070E00E941218FF904F2D4D5F4695469508
:102F40005527662777270E94A219EF90DF900F93ED
:102F50001F932F933F930E945917222733277F9166
:102F60006F915F914F910C94A21947DFAF92BF927E
:102F7000CF920E948E1740E851E561E070E00E9418
:102F80001218FF90EF90DF900F931F932F933F93B2
:102F90000E9479177F916F915F914F910C94A219C4
:102FA000019111912191308140E851E561E070E09B
:102FB0000E94BB140C94E017019111912191308172
:102FC00040E15EE060E070E00E94BB14F42E4CE350
:102FD00050E00E945714E42ED02E0895AF93BF9373
:102FE0000E94D017BF91AF910C94A216AF93BF93DC
:102FF0000E944A17BF91AF910C94C61641E2FF2779
:1030000047BF8491089501911191219130810895D4
:103010000F92B801469F8001479F100D569F100DDB
:103020000F9008950F921F922F92C801D901489FC7
:1030300080014A9F90014B9F202C499F100D211D1C
:10304000321D5A9F202C589F100D211D321D599F53
:10305000200D311D689F200D311D699F300D789F17
:10306000300D2F901F900F9008950E943B180D92E5
:103070000020D9F70895D895319628F48F938BB70F
:1030800083958BBF8F910020089591E005C092E059
:1030900003C094E001C098E0EEDF0D929A95E1F74D
:1030A0000895880F991FE80FF91F0DD0F0CFE80F92
:1030B000F91F09D0EACF880F991F880F991FE80FD1
:1030C000F91F01D0E6CF28F48F938BB783958BBF80
:1030D0008F91089528F48F938BB78A958BBF8F912A
:1030E00008950196019721F00E943B18E9F7FACF65
:1030F0000895819104D08D938823D9F7089581365E
:1031000018F08B3708F48F7D089591E0882321F023
:103110008894991F8A95E9F7892F909508958830AA
:1031200018F011968850FBCF08950F9200240BBE23
:103130000F9008950F9301E00BBF0F9188940895AD
:103140000F930027F9CF0F9302E0F6CF00278A30C4
:1031500018F08A500395FBCF005D0D93805D8D9331
:103160000895805390530027813018F0065F8A95A8
:10317000FBCF090F0895AF93BF930F939F938F9346
:103180008FB78F93A0E0B1E08C9183958D938C33B2
:1031900009F03DC088278E9311968C9183958D936D
:1031A0008C3309F034C088278E9311968C918395C7
:1031B0008D93883161F588278E9311968C91839534
:1031C0008D939C910EE1943089F0963079F099308E
:1031D00069F09B3059F00CE1923039F411969C91D2
:1031E0001197937019F4039501C00FE1801778F0DF
:1031F00071F081E08E9311968C9183958D938D3033
:1032000031F481E08E9311968C9183958C938F91FC
:103210008FBF8F919F910F91BF91AF910F921F928E
:103220002F923F924F925F927F92AF92BF920F93F5
:103230001F932F933F934F935F936F937F938F933E
:103240009F93AF93BF93CF93DF93EF93FF938FB78A
:103250008F938BB78F9388278BBF0E94D4028F9157
:103260008BBF8F918FBFFF91EF91DF91CF91BF9176
:10327000AF919F918F917F916F915F914F913F910E
:103280002F911F910F91BF90AF907F905F904F90C3
:103290003F902F901F900F90189599278D9193959F
:1032A0008823E1F7939511968C9311978E919A95B7
:1032B000D1F70895EA2FFB2F00244C918D910394B0
:1032C0008E32E1F711248D9113948823E1F71A943B
:1032D000101640F41197202F2119239580E38D9328
:1032E0002A95E9F7113039F59927AE2FBF2FA00D98
:1032F000B91FA00FB91F8C919C93853308F421C08E
:1033000031E08E918E32E9F38D3241F0830F8A33B2
:1033100019F480E331E001C033278C93AE1789F7AD
:10332000332341F0AE2FBF2FB8DF81E34D3209F4D4
:103330003196808308958827E00DF81FE00FF81F6D
:1033400080830895040F151F261F371F0895041B3F
:10335000150B260B370B089504171507260737079B
:103360000895000F111F221F331F08950095109517
:10337000209530950F5F1F4F2F4F3F4F08950191BC
:1033800010810FC00E9403180EC00E94031810C0C5
:103390000191108117FF05C03FEF2FEF04C000819E
:1033A00011272227332737FF03C0E0DF8DE28D93FB
:1033B000CF92DF92EF92AA24BB24CC24DD24EE240A
:1033C00040E2EAE0FF2755E093E38081890F87FD23
:1033D0009F7083FD907F891B81935A95A9F7C1DF68
:1033E000AA1CBB1CCC1CDD1CEE1C4A9551F7E894B2
:1033F000EFE0FF2782910BD0EB30E0F71EF06894EE
:103400008A2D09D04D93EF90DF90CF900895982F9B
:10341000829501D0892F8F70805D26F0803309F46A
:10342000089568948D930895002711272227332744
:103430001DD08A3328F4803318F005D015D0F9CF89
:103440000EF494CF089580538F93402F512F622F05
:10345000732F87DF86DF76DF84DF8F919927080F50
:10346000191F291F391F08958D910895E894FCDFD5
:103470008032E9F38B32D9F38930C9F38D3211F4FC
:103480006894F2CF089541E003C042E001C044E0F7
:10349000E40F8827F81F8291982F829506D0892FF4
:1034A00004D04A95C1F70C946C1A8F708A3008F0DA
:1034B000895F805D8D93089541E0E40F8827F81FB0
:1034C000829138E098E1880F991F9D933A95D1F742
:1034D0004A95B1F70C946C1A88278D9308958191C1
:1034E0008D938823E1F7089509919191992359F0DB
:1034F0008A95D9F73197002331F081918D930A9500
:103500008823C9F70895E8CFF999FECFE1BDF2BD50
:103510003196089591E001C092E07B3751F47FB776
:10352000F894F2DF8D9180BDFA9AF99A9A95C9F7CD
:103530007FBF7727089591E001C092E0E5DFF89A18
:1035400080B58D939A95D1F70895FF93881BF9E084
:10355000001FFA9511F4FF910895881F841B18F439
:10356000840F8894F5CF0894F3CF8FEF83959D91C6
:103570009923E1F70895689401C0E894AF93BF934D
:103580008D9116F0919103C00E943B18902D8917E0
:1035900018F011F48823A1F7BF91AF9108950D9110
:1035A0009981903009F013D0502788E0440F551FBF
:1035B00010F4422753278A95C9F7319781F78991EB
:1035C0009991803019F08A0105D0A801089588E00A
:1035D000112701C080E1080116940794001F111FF4
:1035E0008A95D1F708950FEF1FEF2FEF3FEF60E2BD
:1035F00073E888EB9DEE0D90002548E088943795A0
:1036000027951795079520F4062717272827392788
:103610004A95A1F7319779F7009510952095309547
:103620000895689401C0E8942227102F231709F405
:10363000089526F40E943B18802D01C081918030AE
:1036400081F0891741F070E08D931A9591F72395D9
:1036500071E01D93EACF01D0E8CF703011F07727E9
:103660000895772331F42395882713958D931A9520
:10367000E9F70895D190E190F190019108953037E4
:103680002F30312F3235000031313A32383A303074
:1036900000002A2A2A2A2A2A2A2A2A2A2A2A2045CD
:1036A0004D455445522032303235202A2A2A2A2AC2
:1036B0002A2A2A2A2A2A2A0032342D30312D323061
:1036C00032352031353A32393A343900302E302E05
:1036D00038310000454D455445522E4241530000BB
:1036E000417574003D002C204F46460049447365E7
:1036F000723C00003E00556C74696D61204143547A
:10370000434C4B2000002C00454E414255473D00A4
:103710004944536C6176653E000054727920000084
:10372000545820005054524D44423D005633667365
:103730003D00566C316E3D00566C326E3D00566C4D
:10374000336E3D00667265633D00524547204D442F
:1037500042204445433D00002C204845583D000090
:103760002C204445433D0000435243206661696C70
:1037700020656E20414444523D004573706572617E
:1037800020525049200052504974783E0000534561
:1037900052313D002400545841555433203B000021
:1037A000412C00002D33000026005458415554345C
:1037B000203B00002D3400004F4B000045525200CA
:1037C0005345544D424400004E4557204D4443203C
:1037D000434D440053455444414100004E6F206323
:1037E0006D642076616C00004C45455646570000DC
:1037F00056657273696F6E2046573A204665636856
:1038000061203C003E2C204172636869766F203C49
:1038100000005345544C45440000536520636F6ECF
:10382000666967757261207365746C6564206120D8
:103830000000525354564152000056616C6F72653D
:103840007320706F722064656661756C74005345F7
:1038500054434C4B00003A00543E00002F00443EBD
:1038600000005741544348494E4720494E464F5265
:103870004D412E20536520636F6E66696775726FC8
:103880002072656C6F6A20656E2000002061200048
:10389000534953434C4B0000486F7261206163747D
:1038A00075616C3D00002C20466563686120616392
:1038B0007475616C3D004C4545434C4B0000556CA4
:1038C00074696D612041435420434C4B2061203D7D
:1038D00000002C2064656C20000053455441555471
:1038E0000000536520636F6E66696775726F2074A0
:1038F00078204155542000005345544F464600005F
:103900004C454541555400005478204175742000C1
:103910004C45454F464600004F666673657420412E
:10392000757420005345544E45570000536520617F
:10393000637469766F2054782E204155542000001E
:103940005345544255470000536520636F6E6669C6
:103950006775726F20454E414255473D00004C450A
:103960004542554700004C454552494400004944F2
:1039700020736572203C00005345544449520000B6
:10398000536520636F6E66696775726F2049447373
:103990006C617665206120004C4545444952000029
:1039A0004944736C617665203D00457370657261B2
:1039B00020434C4B2064656C205365727665720021
:1039C000414354434C4B0000415554310000415594
:0A39D000543200004155543300004A
:00000001FF
